{
	"contracts/Parcel.sol": {
		"Parcel": {
			"abi": [
				{
					"inputs": [],
					"stateMutability": "nonpayable",
					"type": "constructor"
				},
				{
					"inputs": [
						{
							"internalType": "uint256",
							"name": "parcel_no",
							"type": "uint256"
						},
						{
							"internalType": "string",
							"name": "owner_name",
							"type": "string"
						},
						{
							"internalType": "uint256",
							"name": "price",
							"type": "uint256"
						},
						{
							"internalType": "uint256",
							"name": "area",
							"type": "uint256"
						}
					],
					"name": "createParcel",
					"outputs": [],
					"stateMutability": "payable",
					"type": "function"
				},
				{
					"inputs": [
						{
							"internalType": "string",
							"name": "owner_name",
							"type": "string"
						},
						{
							"internalType": "uint256",
							"name": "price",
							"type": "uint256"
						}
					],
					"name": "mortgage",
					"outputs": [],
					"stateMutability": "payable",
					"type": "function"
				},
				{
					"inputs": [
						{
							"internalType": "string",
							"name": "owner_name",
							"type": "string"
						},
						{
							"internalType": "uint256",
							"name": "price",
							"type": "uint256"
						}
					],
					"name": "redeem",
					"outputs": [],
					"stateMutability": "payable",
					"type": "function"
				}
			],
			"devdoc": {
				"kind": "dev",
				"methods": {},
				"version": 1
			},
			"evm": {
				"assembly": "    /* \"contracts/Parcel.sol\":265:1750  contract Parcel {\r... */\n  mstore(0x40, 0x80)\n    /* \"contracts/Parcel.sol\":424:475  constructor() {\r... */\n  callvalue\n  dup1\n  iszero\n  tag_1\n  jumpi\n  0x00\n  dup1\n  revert\ntag_1:\n  pop\n    /* \"contracts/Parcel.sol\":457:467  msg.sender */\n  caller\n    /* \"contracts/Parcel.sol\":449:454  owner */\n  0x00\n  dup1\n    /* \"contracts/Parcel.sol\":449:467  owner = msg.sender */\n  0x0100\n  exp\n  dup2\n  sload\n  dup2\n  0xffffffffffffffffffffffffffffffffffffffff\n  mul\n  not\n  and\n  swap1\n  dup4\n  0xffffffffffffffffffffffffffffffffffffffff\n  and\n  mul\n  or\n  swap1\n  sstore\n  pop\n    /* \"contracts/Parcel.sol\":265:1750  contract Parcel {\r... */\n  dataSize(sub_0)\n  dup1\n  dataOffset(sub_0)\n  0x00\n  codecopy\n  0x00\n  return\nstop\n\nsub_0: assembly {\n        /* \"contracts/Parcel.sol\":265:1750  contract Parcel {\r... */\n      mstore(0x40, 0x80)\n      jumpi(tag_1, lt(calldatasize, 0x04))\n      shr(0xe0, calldataload(0x00))\n      dup1\n      0x4854e056\n      eq\n      tag_2\n      jumpi\n      dup1\n      0xb1b86b13\n      eq\n      tag_3\n      jumpi\n      dup1\n      0xbfd6843d\n      eq\n      tag_4\n      jumpi\n    tag_1:\n      0x00\n      dup1\n      revert\n        /* \"contracts/Parcel.sol\":680:978  function createParcel(uint parcel_no, string memory owner_name, uint price, uint area) public payable {\r... */\n    tag_2:\n      tag_5\n      0x04\n      dup1\n      calldatasize\n      sub\n      dup2\n      add\n      swap1\n      tag_6\n      swap2\n      swap1\n      tag_7\n      jump\t// in\n    tag_6:\n      tag_8\n      jump\t// in\n    tag_5:\n      stop\n        /* \"contracts/Parcel.sol\":1453:1745  function redeem(string memory owner_name, uint price) public payable {\r... */\n    tag_3:\n      tag_9\n      0x04\n      dup1\n      calldatasize\n      sub\n      dup2\n      add\n      swap1\n      tag_10\n      swap2\n      swap1\n      tag_11\n      jump\t// in\n    tag_10:\n      tag_12\n      jump\t// in\n    tag_9:\n      stop\n        /* \"contracts/Parcel.sol\":1111:1332  function mortgage(string memory owner_name, uint price) public payable {\r... */\n    tag_4:\n      tag_13\n      0x04\n      dup1\n      calldatasize\n      sub\n      dup2\n      add\n      swap1\n      tag_14\n      swap2\n      swap1\n      tag_11\n      jump\t// in\n    tag_14:\n      tag_15\n      jump\t// in\n    tag_13:\n      stop\n        /* \"contracts/Parcel.sol\":680:978  function createParcel(uint parcel_no, string memory owner_name, uint price, uint area) public payable {\r... */\n    tag_8:\n        /* \"contracts/Parcel.sol\":824:833  parcel_no */\n      dup4\n        /* \"contracts/Parcel.sol\":792:804  _parcel_land */\n      0x05\n        /* \"contracts/Parcel.sol\":792:811  _parcel_land[owner] */\n      0x00\n        /* \"contracts/Parcel.sol\":805:810  owner */\n      dup1\n      0x00\n      swap1\n      sload\n      swap1\n      0x0100\n      exp\n      swap1\n      div\n      0xffffffffffffffffffffffffffffffffffffffff\n      and\n        /* \"contracts/Parcel.sol\":792:811  _parcel_land[owner] */\n      0xffffffffffffffffffffffffffffffffffffffff\n      and\n      0xffffffffffffffffffffffffffffffffffffffff\n      and\n      dup2\n      mstore\n      0x20\n      add\n      swap1\n      dup2\n      mstore\n      0x20\n      add\n      0x00\n      keccak256\n        /* \"contracts/Parcel.sol\":792:821  _parcel_land[owner].parcel_no */\n      0x00\n      add\n        /* \"contracts/Parcel.sol\":792:833  _parcel_land[owner].parcel_no = parcel_no */\n      dup2\n      swap1\n      sstore\n      pop\n        /* \"contracts/Parcel.sol\":876:886  owner_name */\n      dup3\n        /* \"contracts/Parcel.sol\":843:855  _parcel_land */\n      0x05\n        /* \"contracts/Parcel.sol\":843:862  _parcel_land[owner] */\n      0x00\n        /* \"contracts/Parcel.sol\":856:861  owner */\n      dup1\n      0x00\n      swap1\n      sload\n      swap1\n      0x0100\n      exp\n      swap1\n      div\n      0xffffffffffffffffffffffffffffffffffffffff\n      and\n        /* \"contracts/Parcel.sol\":843:862  _parcel_land[owner] */\n      0xffffffffffffffffffffffffffffffffffffffff\n      and\n      0xffffffffffffffffffffffffffffffffffffffff\n      and\n      dup2\n      mstore\n      0x20\n      add\n      swap1\n      dup2\n      mstore\n      0x20\n      add\n      0x00\n      keccak256\n        /* \"contracts/Parcel.sol\":843:873  _parcel_land[owner].owner_name */\n      0x01\n      add\n        /* \"contracts/Parcel.sol\":843:886  _parcel_land[owner].owner_name = owner_name */\n      swap1\n      dup1\n      mload\n      swap1\n      0x20\n      add\n      swap1\n      tag_17\n      swap3\n      swap2\n      swap1\n      tag_18\n      jump\t// in\n    tag_17:\n      pop\n        /* \"contracts/Parcel.sol\":924:929  price */\n      dup2\n        /* \"contracts/Parcel.sol\":896:908  _parcel_land */\n      0x05\n        /* \"contracts/Parcel.sol\":896:915  _parcel_land[owner] */\n      0x00\n        /* \"contracts/Parcel.sol\":909:914  owner */\n      dup1\n      0x00\n      swap1\n      sload\n      swap1\n      0x0100\n      exp\n      swap1\n      div\n      0xffffffffffffffffffffffffffffffffffffffff\n      and\n        /* \"contracts/Parcel.sol\":896:915  _parcel_land[owner] */\n      0xffffffffffffffffffffffffffffffffffffffff\n      and\n      0xffffffffffffffffffffffffffffffffffffffff\n      and\n      dup2\n      mstore\n      0x20\n      add\n      swap1\n      dup2\n      mstore\n      0x20\n      add\n      0x00\n      keccak256\n        /* \"contracts/Parcel.sol\":896:921  _parcel_land[owner].price */\n      0x02\n      add\n        /* \"contracts/Parcel.sol\":896:929  _parcel_land[owner].price = price */\n      dup2\n      swap1\n      sstore\n      pop\n        /* \"contracts/Parcel.sol\":966:970  area */\n      dup1\n        /* \"contracts/Parcel.sol\":939:951  _parcel_land */\n      0x05\n        /* \"contracts/Parcel.sol\":939:958  _parcel_land[owner] */\n      0x00\n        /* \"contracts/Parcel.sol\":952:957  owner */\n      dup1\n      0x00\n      swap1\n      sload\n      swap1\n      0x0100\n      exp\n      swap1\n      div\n      0xffffffffffffffffffffffffffffffffffffffff\n      and\n        /* \"contracts/Parcel.sol\":939:958  _parcel_land[owner] */\n      0xffffffffffffffffffffffffffffffffffffffff\n      and\n      0xffffffffffffffffffffffffffffffffffffffff\n      and\n      dup2\n      mstore\n      0x20\n      add\n      swap1\n      dup2\n      mstore\n      0x20\n      add\n      0x00\n      keccak256\n        /* \"contracts/Parcel.sol\":939:963  _parcel_land[owner].area */\n      0x03\n      add\n        /* \"contracts/Parcel.sol\":939:970  _parcel_land[owner].area = area */\n      dup2\n      swap1\n      sstore\n      pop\n        /* \"contracts/Parcel.sol\":680:978  function createParcel(uint parcel_no, string memory owner_name, uint price, uint area) public payable {\r... */\n      pop\n      pop\n      pop\n      pop\n      jump\t// out\n        /* \"contracts/Parcel.sol\":1453:1745  function redeem(string memory owner_name, uint price) public payable {\r... */\n    tag_12:\n        /* \"contracts/Parcel.sol\":1568:1573  price */\n      dup1\n        /* \"contracts/Parcel.sol\":1541:1546  _olgt */\n      0x06\n        /* \"contracts/Parcel.sol\":1541:1553  _olgt[owner] */\n      0x00\n        /* \"contracts/Parcel.sol\":1547:1552  owner */\n      dup1\n      0x00\n      swap1\n      sload\n      swap1\n      0x0100\n      exp\n      swap1\n      div\n      0xffffffffffffffffffffffffffffffffffffffff\n      and\n        /* \"contracts/Parcel.sol\":1541:1553  _olgt[owner] */\n      0xffffffffffffffffffffffffffffffffffffffff\n      and\n      0xffffffffffffffffffffffffffffffffffffffff\n      and\n      dup2\n      mstore\n      0x20\n      add\n      swap1\n      dup2\n      mstore\n      0x20\n      add\n      0x00\n      keccak256\n        /* \"contracts/Parcel.sol\":1541:1564  _olgt[owner].olgt_price */\n      0x01\n      add\n      sload\n        /* \"contracts/Parcel.sol\":1541:1573  _olgt[owner].olgt_price >= price */\n      lt\n      iszero\n        /* \"contracts/Parcel.sol\":1533:1607  require(_olgt[owner].olgt_price >= price, \"Insufficient fund for redeem.\") */\n      tag_20\n      jumpi\n      mload(0x40)\n      0x08c379a000000000000000000000000000000000000000000000000000000000\n      dup2\n      mstore\n      0x04\n      add\n      tag_21\n      swap1\n      tag_22\n      jump\t// in\n    tag_21:\n      mload(0x40)\n      dup1\n      swap2\n      sub\n      swap1\n      revert\n    tag_20:\n        /* \"contracts/Parcel.sol\":1651:1661  owner_name */\n      dup2\n        /* \"contracts/Parcel.sol\":1618:1630  _parcel_land */\n      0x05\n        /* \"contracts/Parcel.sol\":1618:1637  _parcel_land[owner] */\n      0x00\n        /* \"contracts/Parcel.sol\":1631:1636  owner */\n      dup1\n      0x00\n      swap1\n      sload\n      swap1\n      0x0100\n      exp\n      swap1\n      div\n      0xffffffffffffffffffffffffffffffffffffffff\n      and\n        /* \"contracts/Parcel.sol\":1618:1637  _parcel_land[owner] */\n      0xffffffffffffffffffffffffffffffffffffffff\n      and\n      0xffffffffffffffffffffffffffffffffffffffff\n      and\n      dup2\n      mstore\n      0x20\n      add\n      swap1\n      dup2\n      mstore\n      0x20\n      add\n      0x00\n      keccak256\n        /* \"contracts/Parcel.sol\":1618:1648  _parcel_land[owner].owner_name */\n      0x01\n      add\n        /* \"contracts/Parcel.sol\":1618:1661  _parcel_land[owner].owner_name = owner_name */\n      swap1\n      dup1\n      mload\n      swap1\n      0x20\n      add\n      swap1\n      tag_23\n      swap3\n      swap2\n      swap1\n      tag_18\n      jump\t// in\n    tag_23:\n      pop\n        /* \"contracts/Parcel.sol\":1672:1699  _olgt[owner].olgt_name = \"\" */\n      mload(0x40)\n      dup1\n      0x20\n      add\n      0x40\n      mstore\n      dup1\n      0x00\n      dup2\n      mstore\n      pop\n        /* \"contracts/Parcel.sol\":1672:1677  _olgt */\n      0x06\n        /* \"contracts/Parcel.sol\":1672:1684  _olgt[owner] */\n      0x00\n        /* \"contracts/Parcel.sol\":1678:1683  owner */\n      dup1\n      0x00\n      swap1\n      sload\n      swap1\n      0x0100\n      exp\n      swap1\n      div\n      0xffffffffffffffffffffffffffffffffffffffff\n      and\n        /* \"contracts/Parcel.sol\":1672:1684  _olgt[owner] */\n      0xffffffffffffffffffffffffffffffffffffffff\n      and\n      0xffffffffffffffffffffffffffffffffffffffff\n      and\n      dup2\n      mstore\n      0x20\n      add\n      swap1\n      dup2\n      mstore\n      0x20\n      add\n      0x00\n      keccak256\n        /* \"contracts/Parcel.sol\":1672:1694  _olgt[owner].olgt_name */\n      0x00\n      add\n        /* \"contracts/Parcel.sol\":1672:1699  _olgt[owner].olgt_name = \"\" */\n      swap1\n      dup1\n      mload\n      swap1\n      0x20\n      add\n      swap1\n      tag_24\n      swap3\n      swap2\n      swap1\n      tag_18\n      jump\t// in\n    tag_24:\n      pop\n        /* \"contracts/Parcel.sol\":1736:1737  0 */\n      0x00\n        /* \"contracts/Parcel.sol\":1710:1715  _olgt */\n      0x06\n        /* \"contracts/Parcel.sol\":1710:1722  _olgt[owner] */\n      0x00\n        /* \"contracts/Parcel.sol\":1716:1721  owner */\n      dup1\n      0x00\n      swap1\n      sload\n      swap1\n      0x0100\n      exp\n      swap1\n      div\n      0xffffffffffffffffffffffffffffffffffffffff\n      and\n        /* \"contracts/Parcel.sol\":1710:1722  _olgt[owner] */\n      0xffffffffffffffffffffffffffffffffffffffff\n      and\n      0xffffffffffffffffffffffffffffffffffffffff\n      and\n      dup2\n      mstore\n      0x20\n      add\n      swap1\n      dup2\n      mstore\n      0x20\n      add\n      0x00\n      keccak256\n        /* \"contracts/Parcel.sol\":1710:1733  _olgt[owner].olgt_price */\n      0x01\n      add\n        /* \"contracts/Parcel.sol\":1710:1737  _olgt[owner].olgt_price = 0 */\n      dup2\n      swap1\n      sstore\n      pop\n        /* \"contracts/Parcel.sol\":1453:1745  function redeem(string memory owner_name, uint price) public payable {\r... */\n      pop\n      pop\n      jump\t// out\n        /* \"contracts/Parcel.sol\":1111:1332  function mortgage(string memory owner_name, uint price) public payable {\r... */\n    tag_15:\n        /* \"contracts/Parcel.sol\":1226:1236  owner_name */\n      dup2\n        /* \"contracts/Parcel.sol\":1193:1205  _parcel_land */\n      0x05\n        /* \"contracts/Parcel.sol\":1193:1212  _parcel_land[owner] */\n      0x00\n        /* \"contracts/Parcel.sol\":1206:1211  owner */\n      dup1\n      0x00\n      swap1\n      sload\n      swap1\n      0x0100\n      exp\n      swap1\n      div\n      0xffffffffffffffffffffffffffffffffffffffff\n      and\n        /* \"contracts/Parcel.sol\":1193:1212  _parcel_land[owner] */\n      0xffffffffffffffffffffffffffffffffffffffff\n      and\n      0xffffffffffffffffffffffffffffffffffffffff\n      and\n      dup2\n      mstore\n      0x20\n      add\n      swap1\n      dup2\n      mstore\n      0x20\n      add\n      0x00\n      keccak256\n        /* \"contracts/Parcel.sol\":1193:1223  _parcel_land[owner].owner_name */\n      0x01\n      add\n        /* \"contracts/Parcel.sol\":1193:1236  _parcel_land[owner].owner_name = owner_name */\n      swap1\n      dup1\n      mload\n      swap1\n      0x20\n      add\n      swap1\n      tag_26\n      swap3\n      swap2\n      swap1\n      tag_18\n      jump\t// in\n    tag_26:\n      pop\n        /* \"contracts/Parcel.sol\":1272:1282  owner_name */\n      dup2\n        /* \"contracts/Parcel.sol\":1247:1252  _olgt */\n      0x06\n        /* \"contracts/Parcel.sol\":1247:1259  _olgt[owner] */\n      0x00\n        /* \"contracts/Parcel.sol\":1253:1258  owner */\n      dup1\n      0x00\n      swap1\n      sload\n      swap1\n      0x0100\n      exp\n      swap1\n      div\n      0xffffffffffffffffffffffffffffffffffffffff\n      and\n        /* \"contracts/Parcel.sol\":1247:1259  _olgt[owner] */\n      0xffffffffffffffffffffffffffffffffffffffff\n      and\n      0xffffffffffffffffffffffffffffffffffffffff\n      and\n      dup2\n      mstore\n      0x20\n      add\n      swap1\n      dup2\n      mstore\n      0x20\n      add\n      0x00\n      keccak256\n        /* \"contracts/Parcel.sol\":1247:1269  _olgt[owner].olgt_name */\n      0x00\n      add\n        /* \"contracts/Parcel.sol\":1247:1282  _olgt[owner].olgt_name = owner_name */\n      swap1\n      dup1\n      mload\n      swap1\n      0x20\n      add\n      swap1\n      tag_27\n      swap3\n      swap2\n      swap1\n      tag_18\n      jump\t// in\n    tag_27:\n      pop\n        /* \"contracts/Parcel.sol\":1319:1324  price */\n      dup1\n        /* \"contracts/Parcel.sol\":1293:1298  _olgt */\n      0x06\n        /* \"contracts/Parcel.sol\":1293:1305  _olgt[owner] */\n      0x00\n        /* \"contracts/Parcel.sol\":1299:1304  owner */\n      dup1\n      0x00\n      swap1\n      sload\n      swap1\n      0x0100\n      exp\n      swap1\n      div\n      0xffffffffffffffffffffffffffffffffffffffff\n      and\n        /* \"contracts/Parcel.sol\":1293:1305  _olgt[owner] */\n      0xffffffffffffffffffffffffffffffffffffffff\n      and\n      0xffffffffffffffffffffffffffffffffffffffff\n      and\n      dup2\n      mstore\n      0x20\n      add\n      swap1\n      dup2\n      mstore\n      0x20\n      add\n      0x00\n      keccak256\n        /* \"contracts/Parcel.sol\":1293:1316  _olgt[owner].olgt_price */\n      0x01\n      add\n        /* \"contracts/Parcel.sol\":1293:1324  _olgt[owner].olgt_price = price */\n      dup2\n      swap1\n      sstore\n      pop\n        /* \"contracts/Parcel.sol\":1111:1332  function mortgage(string memory owner_name, uint price) public payable {\r... */\n      pop\n      pop\n      jump\t// out\n    tag_18:\n      dup3\n      dup1\n      sload\n      tag_28\n      swap1\n      tag_29\n      jump\t// in\n    tag_28:\n      swap1\n      0x00\n      mstore\n      keccak256(0x00, 0x20)\n      swap1\n      0x1f\n      add\n      0x20\n      swap1\n      div\n      dup2\n      add\n      swap3\n      dup3\n      tag_31\n      jumpi\n      0x00\n      dup6\n      sstore\n      jump(tag_30)\n    tag_31:\n      dup3\n      0x1f\n      lt\n      tag_32\n      jumpi\n      dup1\n      mload\n      not(0xff)\n      and\n      dup4\n      dup1\n      add\n      or\n      dup6\n      sstore\n      jump(tag_30)\n    tag_32:\n      dup3\n      dup1\n      add\n      0x01\n      add\n      dup6\n      sstore\n      dup3\n      iszero\n      tag_30\n      jumpi\n      swap2\n      dup3\n      add\n    tag_33:\n      dup3\n      dup2\n      gt\n      iszero\n      tag_34\n      jumpi\n      dup3\n      mload\n      dup3\n      sstore\n      swap2\n      0x20\n      add\n      swap2\n      swap1\n      0x01\n      add\n      swap1\n      jump(tag_33)\n    tag_34:\n    tag_30:\n      pop\n      swap1\n      pop\n      tag_35\n      swap2\n      swap1\n      tag_36\n      jump\t// in\n    tag_35:\n      pop\n      swap1\n      jump\t// out\n    tag_36:\n    tag_37:\n      dup1\n      dup3\n      gt\n      iszero\n      tag_38\n      jumpi\n      0x00\n      dup2\n      0x00\n      swap1\n      sstore\n      pop\n      0x01\n      add\n      jump(tag_37)\n    tag_38:\n      pop\n      swap1\n      jump\t// out\n        /* \"#utility.yul\":7:419   */\n    tag_40:\n        /* \"#utility.yul\":85:90   */\n      0x00\n        /* \"#utility.yul\":110:176   */\n      tag_42\n        /* \"#utility.yul\":126:175   */\n      tag_43\n        /* \"#utility.yul\":168:174   */\n      dup5\n        /* \"#utility.yul\":126:175   */\n      tag_44\n      jump\t// in\n    tag_43:\n        /* \"#utility.yul\":110:176   */\n      tag_45\n      jump\t// in\n    tag_42:\n        /* \"#utility.yul\":101:176   */\n      swap1\n      pop\n        /* \"#utility.yul\":199:205   */\n      dup3\n        /* \"#utility.yul\":192:197   */\n      dup2\n        /* \"#utility.yul\":185:206   */\n      mstore\n        /* \"#utility.yul\":237:241   */\n      0x20\n        /* \"#utility.yul\":230:235   */\n      dup2\n        /* \"#utility.yul\":226:242   */\n      add\n        /* \"#utility.yul\":275:278   */\n      dup5\n        /* \"#utility.yul\":266:272   */\n      dup5\n        /* \"#utility.yul\":261:264   */\n      dup5\n        /* \"#utility.yul\":257:273   */\n      add\n        /* \"#utility.yul\":254:279   */\n      gt\n        /* \"#utility.yul\":251:363   */\n      iszero\n      tag_46\n      jumpi\n        /* \"#utility.yul\":282:361   */\n      tag_47\n      tag_48\n      jump\t// in\n    tag_47:\n        /* \"#utility.yul\":251:363   */\n    tag_46:\n        /* \"#utility.yul\":372:413   */\n      tag_49\n        /* \"#utility.yul\":406:412   */\n      dup5\n        /* \"#utility.yul\":401:404   */\n      dup3\n        /* \"#utility.yul\":396:399   */\n      dup6\n        /* \"#utility.yul\":372:413   */\n      tag_50\n      jump\t// in\n    tag_49:\n        /* \"#utility.yul\":91:419   */\n      pop\n        /* \"#utility.yul\":7:419   */\n      swap4\n      swap3\n      pop\n      pop\n      pop\n      jump\t// out\n        /* \"#utility.yul\":439:779   */\n    tag_51:\n        /* \"#utility.yul\":495:500   */\n      0x00\n        /* \"#utility.yul\":544:547   */\n      dup3\n        /* \"#utility.yul\":537:541   */\n      0x1f\n        /* \"#utility.yul\":529:535   */\n      dup4\n        /* \"#utility.yul\":525:542   */\n      add\n        /* \"#utility.yul\":521:548   */\n      slt\n        /* \"#utility.yul\":511:633   */\n      tag_53\n      jumpi\n        /* \"#utility.yul\":552:631   */\n      tag_54\n      tag_55\n      jump\t// in\n    tag_54:\n        /* \"#utility.yul\":511:633   */\n    tag_53:\n        /* \"#utility.yul\":669:675   */\n      dup2\n        /* \"#utility.yul\":656:676   */\n      calldataload\n        /* \"#utility.yul\":694:773   */\n      tag_56\n        /* \"#utility.yul\":769:772   */\n      dup5\n        /* \"#utility.yul\":761:767   */\n      dup3\n        /* \"#utility.yul\":754:758   */\n      0x20\n        /* \"#utility.yul\":746:752   */\n      dup7\n        /* \"#utility.yul\":742:759   */\n      add\n        /* \"#utility.yul\":694:773   */\n      tag_40\n      jump\t// in\n    tag_56:\n        /* \"#utility.yul\":685:773   */\n      swap2\n      pop\n        /* \"#utility.yul\":501:779   */\n      pop\n        /* \"#utility.yul\":439:779   */\n      swap3\n      swap2\n      pop\n      pop\n      jump\t// out\n        /* \"#utility.yul\":785:924   */\n    tag_57:\n        /* \"#utility.yul\":831:836   */\n      0x00\n        /* \"#utility.yul\":869:875   */\n      dup2\n        /* \"#utility.yul\":856:876   */\n      calldataload\n        /* \"#utility.yul\":847:876   */\n      swap1\n      pop\n        /* \"#utility.yul\":885:918   */\n      tag_59\n        /* \"#utility.yul\":912:917   */\n      dup2\n        /* \"#utility.yul\":885:918   */\n      tag_60\n      jump\t// in\n    tag_59:\n        /* \"#utility.yul\":785:924   */\n      swap3\n      swap2\n      pop\n      pop\n      jump\t// out\n        /* \"#utility.yul\":930:1584   */\n    tag_11:\n        /* \"#utility.yul\":1008:1014   */\n      0x00\n        /* \"#utility.yul\":1016:1022   */\n      dup1\n        /* \"#utility.yul\":1065:1067   */\n      0x40\n        /* \"#utility.yul\":1053:1062   */\n      dup4\n        /* \"#utility.yul\":1044:1051   */\n      dup6\n        /* \"#utility.yul\":1040:1063   */\n      sub\n        /* \"#utility.yul\":1036:1068   */\n      slt\n        /* \"#utility.yul\":1033:1152   */\n      iszero\n      tag_62\n      jumpi\n        /* \"#utility.yul\":1071:1150   */\n      tag_63\n      tag_64\n      jump\t// in\n    tag_63:\n        /* \"#utility.yul\":1033:1152   */\n    tag_62:\n        /* \"#utility.yul\":1219:1220   */\n      0x00\n        /* \"#utility.yul\":1208:1217   */\n      dup4\n        /* \"#utility.yul\":1204:1221   */\n      add\n        /* \"#utility.yul\":1191:1222   */\n      calldataload\n        /* \"#utility.yul\":1249:1267   */\n      0xffffffffffffffff\n        /* \"#utility.yul\":1241:1247   */\n      dup2\n        /* \"#utility.yul\":1238:1268   */\n      gt\n        /* \"#utility.yul\":1235:1352   */\n      iszero\n      tag_65\n      jumpi\n        /* \"#utility.yul\":1271:1350   */\n      tag_66\n      tag_67\n      jump\t// in\n    tag_66:\n        /* \"#utility.yul\":1235:1352   */\n    tag_65:\n        /* \"#utility.yul\":1376:1439   */\n      tag_68\n        /* \"#utility.yul\":1431:1438   */\n      dup6\n        /* \"#utility.yul\":1422:1428   */\n      dup3\n        /* \"#utility.yul\":1411:1420   */\n      dup7\n        /* \"#utility.yul\":1407:1429   */\n      add\n        /* \"#utility.yul\":1376:1439   */\n      tag_51\n      jump\t// in\n    tag_68:\n        /* \"#utility.yul\":1366:1439   */\n      swap3\n      pop\n        /* \"#utility.yul\":1162:1449   */\n      pop\n        /* \"#utility.yul\":1488:1490   */\n      0x20\n        /* \"#utility.yul\":1514:1567   */\n      tag_69\n        /* \"#utility.yul\":1559:1566   */\n      dup6\n        /* \"#utility.yul\":1550:1556   */\n      dup3\n        /* \"#utility.yul\":1539:1548   */\n      dup7\n        /* \"#utility.yul\":1535:1557   */\n      add\n        /* \"#utility.yul\":1514:1567   */\n      tag_57\n      jump\t// in\n    tag_69:\n        /* \"#utility.yul\":1504:1567   */\n      swap2\n      pop\n        /* \"#utility.yul\":1459:1577   */\n      pop\n        /* \"#utility.yul\":930:1584   */\n      swap3\n      pop\n      swap3\n      swap1\n      pop\n      jump\t// out\n        /* \"#utility.yul\":1590:2535   */\n    tag_7:\n        /* \"#utility.yul\":1686:1692   */\n      0x00\n        /* \"#utility.yul\":1694:1700   */\n      dup1\n        /* \"#utility.yul\":1702:1708   */\n      0x00\n        /* \"#utility.yul\":1710:1716   */\n      dup1\n        /* \"#utility.yul\":1759:1762   */\n      0x80\n        /* \"#utility.yul\":1747:1756   */\n      dup6\n        /* \"#utility.yul\":1738:1745   */\n      dup8\n        /* \"#utility.yul\":1734:1757   */\n      sub\n        /* \"#utility.yul\":1730:1763   */\n      slt\n        /* \"#utility.yul\":1727:1847   */\n      iszero\n      tag_71\n      jumpi\n        /* \"#utility.yul\":1766:1845   */\n      tag_72\n      tag_64\n      jump\t// in\n    tag_72:\n        /* \"#utility.yul\":1727:1847   */\n    tag_71:\n        /* \"#utility.yul\":1886:1887   */\n      0x00\n        /* \"#utility.yul\":1911:1964   */\n      tag_73\n        /* \"#utility.yul\":1956:1963   */\n      dup8\n        /* \"#utility.yul\":1947:1953   */\n      dup3\n        /* \"#utility.yul\":1936:1945   */\n      dup9\n        /* \"#utility.yul\":1932:1954   */\n      add\n        /* \"#utility.yul\":1911:1964   */\n      tag_57\n      jump\t// in\n    tag_73:\n        /* \"#utility.yul\":1901:1964   */\n      swap5\n      pop\n        /* \"#utility.yul\":1857:1974   */\n      pop\n        /* \"#utility.yul\":2041:2043   */\n      0x20\n        /* \"#utility.yul\":2030:2039   */\n      dup6\n        /* \"#utility.yul\":2026:2044   */\n      add\n        /* \"#utility.yul\":2013:2045   */\n      calldataload\n        /* \"#utility.yul\":2072:2090   */\n      0xffffffffffffffff\n        /* \"#utility.yul\":2064:2070   */\n      dup2\n        /* \"#utility.yul\":2061:2091   */\n      gt\n        /* \"#utility.yul\":2058:2175   */\n      iszero\n      tag_74\n      jumpi\n        /* \"#utility.yul\":2094:2173   */\n      tag_75\n      tag_67\n      jump\t// in\n    tag_75:\n        /* \"#utility.yul\":2058:2175   */\n    tag_74:\n        /* \"#utility.yul\":2199:2262   */\n      tag_76\n        /* \"#utility.yul\":2254:2261   */\n      dup8\n        /* \"#utility.yul\":2245:2251   */\n      dup3\n        /* \"#utility.yul\":2234:2243   */\n      dup9\n        /* \"#utility.yul\":2230:2252   */\n      add\n        /* \"#utility.yul\":2199:2262   */\n      tag_51\n      jump\t// in\n    tag_76:\n        /* \"#utility.yul\":2189:2262   */\n      swap4\n      pop\n        /* \"#utility.yul\":1984:2272   */\n      pop\n        /* \"#utility.yul\":2311:2313   */\n      0x40\n        /* \"#utility.yul\":2337:2390   */\n      tag_77\n        /* \"#utility.yul\":2382:2389   */\n      dup8\n        /* \"#utility.yul\":2373:2379   */\n      dup3\n        /* \"#utility.yul\":2362:2371   */\n      dup9\n        /* \"#utility.yul\":2358:2380   */\n      add\n        /* \"#utility.yul\":2337:2390   */\n      tag_57\n      jump\t// in\n    tag_77:\n        /* \"#utility.yul\":2327:2390   */\n      swap3\n      pop\n        /* \"#utility.yul\":2282:2400   */\n      pop\n        /* \"#utility.yul\":2439:2441   */\n      0x60\n        /* \"#utility.yul\":2465:2518   */\n      tag_78\n        /* \"#utility.yul\":2510:2517   */\n      dup8\n        /* \"#utility.yul\":2501:2507   */\n      dup3\n        /* \"#utility.yul\":2490:2499   */\n      dup9\n        /* \"#utility.yul\":2486:2508   */\n      add\n        /* \"#utility.yul\":2465:2518   */\n      tag_57\n      jump\t// in\n    tag_78:\n        /* \"#utility.yul\":2455:2518   */\n      swap2\n      pop\n        /* \"#utility.yul\":2410:2528   */\n      pop\n        /* \"#utility.yul\":1590:2535   */\n      swap3\n      swap6\n      swap2\n      swap5\n      pop\n      swap3\n      pop\n      jump\t// out\n        /* \"#utility.yul\":2541:2907   */\n    tag_79:\n        /* \"#utility.yul\":2683:2686   */\n      0x00\n        /* \"#utility.yul\":2704:2771   */\n      tag_81\n        /* \"#utility.yul\":2768:2770   */\n      0x1d\n        /* \"#utility.yul\":2763:2766   */\n      dup4\n        /* \"#utility.yul\":2704:2771   */\n      tag_82\n      jump\t// in\n    tag_81:\n        /* \"#utility.yul\":2697:2771   */\n      swap2\n      pop\n        /* \"#utility.yul\":2780:2873   */\n      tag_83\n        /* \"#utility.yul\":2869:2872   */\n      dup3\n        /* \"#utility.yul\":2780:2873   */\n      tag_84\n      jump\t// in\n    tag_83:\n        /* \"#utility.yul\":2898:2900   */\n      0x20\n        /* \"#utility.yul\":2893:2896   */\n      dup3\n        /* \"#utility.yul\":2889:2901   */\n      add\n        /* \"#utility.yul\":2882:2901   */\n      swap1\n      pop\n        /* \"#utility.yul\":2541:2907   */\n      swap2\n      swap1\n      pop\n      jump\t// out\n        /* \"#utility.yul\":2913:3332   */\n    tag_22:\n        /* \"#utility.yul\":3079:3083   */\n      0x00\n        /* \"#utility.yul\":3117:3119   */\n      0x20\n        /* \"#utility.yul\":3106:3115   */\n      dup3\n        /* \"#utility.yul\":3102:3120   */\n      add\n        /* \"#utility.yul\":3094:3120   */\n      swap1\n      pop\n        /* \"#utility.yul\":3166:3175   */\n      dup2\n        /* \"#utility.yul\":3160:3164   */\n      dup2\n        /* \"#utility.yul\":3156:3176   */\n      sub\n        /* \"#utility.yul\":3152:3153   */\n      0x00\n        /* \"#utility.yul\":3141:3150   */\n      dup4\n        /* \"#utility.yul\":3137:3154   */\n      add\n        /* \"#utility.yul\":3130:3177   */\n      mstore\n        /* \"#utility.yul\":3194:3325   */\n      tag_86\n        /* \"#utility.yul\":3320:3324   */\n      dup2\n        /* \"#utility.yul\":3194:3325   */\n      tag_79\n      jump\t// in\n    tag_86:\n        /* \"#utility.yul\":3186:3325   */\n      swap1\n      pop\n        /* \"#utility.yul\":2913:3332   */\n      swap2\n      swap1\n      pop\n      jump\t// out\n        /* \"#utility.yul\":3338:3467   */\n    tag_45:\n        /* \"#utility.yul\":3372:3378   */\n      0x00\n        /* \"#utility.yul\":3399:3419   */\n      tag_88\n      tag_89\n      jump\t// in\n    tag_88:\n        /* \"#utility.yul\":3389:3419   */\n      swap1\n      pop\n        /* \"#utility.yul\":3428:3461   */\n      tag_90\n        /* \"#utility.yul\":3456:3460   */\n      dup3\n        /* \"#utility.yul\":3448:3454   */\n      dup3\n        /* \"#utility.yul\":3428:3461   */\n      tag_91\n      jump\t// in\n    tag_90:\n        /* \"#utility.yul\":3338:3467   */\n      swap2\n      swap1\n      pop\n      jump\t// out\n        /* \"#utility.yul\":3473:3548   */\n    tag_89:\n        /* \"#utility.yul\":3506:3512   */\n      0x00\n        /* \"#utility.yul\":3539:3541   */\n      0x40\n        /* \"#utility.yul\":3533:3542   */\n      mload\n        /* \"#utility.yul\":3523:3542   */\n      swap1\n      pop\n        /* \"#utility.yul\":3473:3548   */\n      swap1\n      jump\t// out\n        /* \"#utility.yul\":3554:3862   */\n    tag_44:\n        /* \"#utility.yul\":3616:3620   */\n      0x00\n        /* \"#utility.yul\":3706:3724   */\n      0xffffffffffffffff\n        /* \"#utility.yul\":3698:3704   */\n      dup3\n        /* \"#utility.yul\":3695:3725   */\n      gt\n        /* \"#utility.yul\":3692:3748   */\n      iszero\n      tag_94\n      jumpi\n        /* \"#utility.yul\":3728:3746   */\n      tag_95\n      tag_96\n      jump\t// in\n    tag_95:\n        /* \"#utility.yul\":3692:3748   */\n    tag_94:\n        /* \"#utility.yul\":3766:3795   */\n      tag_97\n        /* \"#utility.yul\":3788:3794   */\n      dup3\n        /* \"#utility.yul\":3766:3795   */\n      tag_98\n      jump\t// in\n    tag_97:\n        /* \"#utility.yul\":3758:3795   */\n      swap1\n      pop\n        /* \"#utility.yul\":3850:3854   */\n      0x20\n        /* \"#utility.yul\":3844:3848   */\n      dup2\n        /* \"#utility.yul\":3840:3855   */\n      add\n        /* \"#utility.yul\":3832:3855   */\n      swap1\n      pop\n        /* \"#utility.yul\":3554:3862   */\n      swap2\n      swap1\n      pop\n      jump\t// out\n        /* \"#utility.yul\":3868:4037   */\n    tag_82:\n        /* \"#utility.yul\":3952:3963   */\n      0x00\n        /* \"#utility.yul\":3986:3992   */\n      dup3\n        /* \"#utility.yul\":3981:3984   */\n      dup3\n        /* \"#utility.yul\":3974:3993   */\n      mstore\n        /* \"#utility.yul\":4026:4030   */\n      0x20\n        /* \"#utility.yul\":4021:4024   */\n      dup3\n        /* \"#utility.yul\":4017:4031   */\n      add\n        /* \"#utility.yul\":4002:4031   */\n      swap1\n      pop\n        /* \"#utility.yul\":3868:4037   */\n      swap3\n      swap2\n      pop\n      pop\n      jump\t// out\n        /* \"#utility.yul\":4043:4120   */\n    tag_100:\n        /* \"#utility.yul\":4080:4087   */\n      0x00\n        /* \"#utility.yul\":4109:4114   */\n      dup2\n        /* \"#utility.yul\":4098:4114   */\n      swap1\n      pop\n        /* \"#utility.yul\":4043:4120   */\n      swap2\n      swap1\n      pop\n      jump\t// out\n        /* \"#utility.yul\":4126:4280   */\n    tag_50:\n        /* \"#utility.yul\":4210:4216   */\n      dup3\n        /* \"#utility.yul\":4205:4208   */\n      dup2\n        /* \"#utility.yul\":4200:4203   */\n      dup4\n        /* \"#utility.yul\":4187:4217   */\n      calldatacopy\n        /* \"#utility.yul\":4272:4273   */\n      0x00\n        /* \"#utility.yul\":4263:4269   */\n      dup4\n        /* \"#utility.yul\":4258:4261   */\n      dup4\n        /* \"#utility.yul\":4254:4270   */\n      add\n        /* \"#utility.yul\":4247:4274   */\n      mstore\n        /* \"#utility.yul\":4126:4280   */\n      pop\n      pop\n      pop\n      jump\t// out\n        /* \"#utility.yul\":4286:4606   */\n    tag_29:\n        /* \"#utility.yul\":4330:4336   */\n      0x00\n        /* \"#utility.yul\":4367:4368   */\n      0x02\n        /* \"#utility.yul\":4361:4365   */\n      dup3\n        /* \"#utility.yul\":4357:4369   */\n      div\n        /* \"#utility.yul\":4347:4369   */\n      swap1\n      pop\n        /* \"#utility.yul\":4414:4415   */\n      0x01\n        /* \"#utility.yul\":4408:4412   */\n      dup3\n        /* \"#utility.yul\":4404:4416   */\n      and\n        /* \"#utility.yul\":4435:4453   */\n      dup1\n        /* \"#utility.yul\":4425:4506   */\n      tag_104\n      jumpi\n        /* \"#utility.yul\":4491:4495   */\n      0x7f\n        /* \"#utility.yul\":4483:4489   */\n      dup3\n        /* \"#utility.yul\":4479:4496   */\n      and\n        /* \"#utility.yul\":4469:4496   */\n      swap2\n      pop\n        /* \"#utility.yul\":4425:4506   */\n    tag_104:\n        /* \"#utility.yul\":4553:4555   */\n      0x20\n        /* \"#utility.yul\":4545:4551   */\n      dup3\n        /* \"#utility.yul\":4542:4556   */\n      lt\n        /* \"#utility.yul\":4522:4540   */\n      dup2\n        /* \"#utility.yul\":4519:4557   */\n      eq\n        /* \"#utility.yul\":4516:4600   */\n      iszero\n      tag_105\n      jumpi\n        /* \"#utility.yul\":4572:4590   */\n      tag_106\n      tag_107\n      jump\t// in\n    tag_106:\n        /* \"#utility.yul\":4516:4600   */\n    tag_105:\n        /* \"#utility.yul\":4337:4606   */\n      pop\n        /* \"#utility.yul\":4286:4606   */\n      swap2\n      swap1\n      pop\n      jump\t// out\n        /* \"#utility.yul\":4612:4893   */\n    tag_91:\n        /* \"#utility.yul\":4695:4722   */\n      tag_109\n        /* \"#utility.yul\":4717:4721   */\n      dup3\n        /* \"#utility.yul\":4695:4722   */\n      tag_98\n      jump\t// in\n    tag_109:\n        /* \"#utility.yul\":4687:4693   */\n      dup2\n        /* \"#utility.yul\":4683:4723   */\n      add\n        /* \"#utility.yul\":4825:4831   */\n      dup2\n        /* \"#utility.yul\":4813:4823   */\n      dup2\n        /* \"#utility.yul\":4810:4832   */\n      lt\n        /* \"#utility.yul\":4789:4807   */\n      0xffffffffffffffff\n        /* \"#utility.yul\":4777:4787   */\n      dup3\n        /* \"#utility.yul\":4774:4808   */\n      gt\n        /* \"#utility.yul\":4771:4833   */\n      or\n        /* \"#utility.yul\":4768:4856   */\n      iszero\n      tag_110\n      jumpi\n        /* \"#utility.yul\":4836:4854   */\n      tag_111\n      tag_96\n      jump\t// in\n    tag_111:\n        /* \"#utility.yul\":4768:4856   */\n    tag_110:\n        /* \"#utility.yul\":4876:4886   */\n      dup1\n        /* \"#utility.yul\":4872:4874   */\n      0x40\n        /* \"#utility.yul\":4865:4887   */\n      mstore\n        /* \"#utility.yul\":4655:4893   */\n      pop\n        /* \"#utility.yul\":4612:4893   */\n      pop\n      pop\n      jump\t// out\n        /* \"#utility.yul\":4899:5079   */\n    tag_107:\n        /* \"#utility.yul\":4947:5024   */\n      0x4e487b7100000000000000000000000000000000000000000000000000000000\n        /* \"#utility.yul\":4944:4945   */\n      0x00\n        /* \"#utility.yul\":4937:5025   */\n      mstore\n        /* \"#utility.yul\":5044:5048   */\n      0x22\n        /* \"#utility.yul\":5041:5042   */\n      0x04\n        /* \"#utility.yul\":5034:5049   */\n      mstore\n        /* \"#utility.yul\":5068:5072   */\n      0x24\n        /* \"#utility.yul\":5065:5066   */\n      0x00\n        /* \"#utility.yul\":5058:5073   */\n      revert\n        /* \"#utility.yul\":5085:5265   */\n    tag_96:\n        /* \"#utility.yul\":5133:5210   */\n      0x4e487b7100000000000000000000000000000000000000000000000000000000\n        /* \"#utility.yul\":5130:5131   */\n      0x00\n        /* \"#utility.yul\":5123:5211   */\n      mstore\n        /* \"#utility.yul\":5230:5234   */\n      0x41\n        /* \"#utility.yul\":5227:5228   */\n      0x04\n        /* \"#utility.yul\":5220:5235   */\n      mstore\n        /* \"#utility.yul\":5254:5258   */\n      0x24\n        /* \"#utility.yul\":5251:5252   */\n      0x00\n        /* \"#utility.yul\":5244:5259   */\n      revert\n        /* \"#utility.yul\":5271:5388   */\n    tag_55:\n        /* \"#utility.yul\":5380:5381   */\n      0x00\n        /* \"#utility.yul\":5377:5378   */\n      dup1\n        /* \"#utility.yul\":5370:5382   */\n      revert\n        /* \"#utility.yul\":5394:5511   */\n    tag_48:\n        /* \"#utility.yul\":5503:5504   */\n      0x00\n        /* \"#utility.yul\":5500:5501   */\n      dup1\n        /* \"#utility.yul\":5493:5505   */\n      revert\n        /* \"#utility.yul\":5517:5634   */\n    tag_67:\n        /* \"#utility.yul\":5626:5627   */\n      0x00\n        /* \"#utility.yul\":5623:5624   */\n      dup1\n        /* \"#utility.yul\":5616:5628   */\n      revert\n        /* \"#utility.yul\":5640:5757   */\n    tag_64:\n        /* \"#utility.yul\":5749:5750   */\n      0x00\n        /* \"#utility.yul\":5746:5747   */\n      dup1\n        /* \"#utility.yul\":5739:5751   */\n      revert\n        /* \"#utility.yul\":5763:5865   */\n    tag_98:\n        /* \"#utility.yul\":5804:5810   */\n      0x00\n        /* \"#utility.yul\":5855:5857   */\n      0x1f\n        /* \"#utility.yul\":5851:5858   */\n      not\n        /* \"#utility.yul\":5846:5848   */\n      0x1f\n        /* \"#utility.yul\":5839:5844   */\n      dup4\n        /* \"#utility.yul\":5835:5849   */\n      add\n        /* \"#utility.yul\":5831:5859   */\n      and\n        /* \"#utility.yul\":5821:5859   */\n      swap1\n      pop\n        /* \"#utility.yul\":5763:5865   */\n      swap2\n      swap1\n      pop\n      jump\t// out\n        /* \"#utility.yul\":5871:6050   */\n    tag_84:\n        /* \"#utility.yul\":6011:6042   */\n      0x496e73756666696369656e742066756e6420666f722072656465656d2e000000\n        /* \"#utility.yul\":6007:6008   */\n      0x00\n        /* \"#utility.yul\":5999:6005   */\n      dup3\n        /* \"#utility.yul\":5995:6009   */\n      add\n        /* \"#utility.yul\":5988:6043   */\n      mstore\n        /* \"#utility.yul\":5871:6050   */\n      pop\n      jump\t// out\n        /* \"#utility.yul\":6056:6178   */\n    tag_60:\n        /* \"#utility.yul\":6129:6153   */\n      tag_121\n        /* \"#utility.yul\":6147:6152   */\n      dup2\n        /* \"#utility.yul\":6129:6153   */\n      tag_100\n      jump\t// in\n    tag_121:\n        /* \"#utility.yul\":6122:6127   */\n      dup2\n        /* \"#utility.yul\":6119:6154   */\n      eq\n        /* \"#utility.yul\":6109:6172   */\n      tag_122\n      jumpi\n        /* \"#utility.yul\":6168:6169   */\n      0x00\n        /* \"#utility.yul\":6165:6166   */\n      dup1\n        /* \"#utility.yul\":6158:6170   */\n      revert\n        /* \"#utility.yul\":6109:6172   */\n    tag_122:\n        /* \"#utility.yul\":6056:6178   */\n      pop\n      jump\t// out\n\n    auxdata: 0xa26469706673582212209fae8aac77111eda1d58a66169cfb6b8a7d18f7e1de616288e90d10734226cbb64736f6c63430008070033\n}\n",
				"bytecode": {
					"linkReferences": {},
					"object": "608060405234801561001057600080fd5b50336000806101000a81548173ffffffffffffffffffffffffffffffffffffffff021916908373ffffffffffffffffffffffffffffffffffffffff1602179055506109d7806100606000396000f3fe6080604052600436106100345760003560e01c80634854e05614610039578063b1b86b1314610055578063bfd6843d14610071575b600080fd5b610053600480360381019061004e9190610735565b61008d565b005b61006f600480360381019061006a91906106d9565b610243565b005b61008b600480360381019061008691906106d9565b610455565b005b83600560008060009054906101000a900473ffffffffffffffffffffffffffffffffffffffff1673ffffffffffffffffffffffffffffffffffffffff1673ffffffffffffffffffffffffffffffffffffffff1681526020019081526020016000206000018190555082600560008060009054906101000a900473ffffffffffffffffffffffffffffffffffffffff1673ffffffffffffffffffffffffffffffffffffffff1673ffffffffffffffffffffffffffffffffffffffff168152602001908152602001600020600101908051906020019061016c9291906105b1565b5081600560008060009054906101000a900473ffffffffffffffffffffffffffffffffffffffff1673ffffffffffffffffffffffffffffffffffffffff1673ffffffffffffffffffffffffffffffffffffffff1681526020019081526020016000206002018190555080600560008060009054906101000a900473ffffffffffffffffffffffffffffffffffffffff1673ffffffffffffffffffffffffffffffffffffffff1673ffffffffffffffffffffffffffffffffffffffff1681526020019081526020016000206003018190555050505050565b80600660008060009054906101000a900473ffffffffffffffffffffffffffffffffffffffff1673ffffffffffffffffffffffffffffffffffffffff1673ffffffffffffffffffffffffffffffffffffffff1681526020019081526020016000206001015410156102e9576040517f08c379a00000000000000000000000000000000000000000000000000000000081526004016102e0906107db565b60405180910390fd5b81600560008060009054906101000a900473ffffffffffffffffffffffffffffffffffffffff1673ffffffffffffffffffffffffffffffffffffffff1673ffffffffffffffffffffffffffffffffffffffff16815260200190815260200160002060010190805190602001906103609291906105b1565b5060405180602001604052806000815250600660008060009054906101000a900473ffffffffffffffffffffffffffffffffffffffff1673ffffffffffffffffffffffffffffffffffffffff1673ffffffffffffffffffffffffffffffffffffffff16815260200190815260200160002060000190805190602001906103e79291906105b1565b506000600660008060009054906101000a900473ffffffffffffffffffffffffffffffffffffffff1673ffffffffffffffffffffffffffffffffffffffff1673ffffffffffffffffffffffffffffffffffffffff168152602001908152602001600020600101819055505050565b81600560008060009054906101000a900473ffffffffffffffffffffffffffffffffffffffff1673ffffffffffffffffffffffffffffffffffffffff1673ffffffffffffffffffffffffffffffffffffffff16815260200190815260200160002060010190805190602001906104cc9291906105b1565b5081600660008060009054906101000a900473ffffffffffffffffffffffffffffffffffffffff1673ffffffffffffffffffffffffffffffffffffffff1673ffffffffffffffffffffffffffffffffffffffff16815260200190815260200160002060000190805190602001906105449291906105b1565b5080600660008060009054906101000a900473ffffffffffffffffffffffffffffffffffffffff1673ffffffffffffffffffffffffffffffffffffffff1673ffffffffffffffffffffffffffffffffffffffff168152602001908152602001600020600101819055505050565b8280546105bd9061087b565b90600052602060002090601f0160209004810192826105df5760008555610626565b82601f106105f857805160ff1916838001178555610626565b82800160010185558215610626579182015b8281111561062557825182559160200191906001019061060a565b5b5090506106339190610637565b5090565b5b80821115610650576000816000905550600101610638565b5090565b600061066761066284610820565b6107fb565b90508281526020810184848401111561068357610682610941565b5b61068e84828561086c565b509392505050565b600082601f8301126106ab576106aa61093c565b5b81356106bb848260208601610654565b91505092915050565b6000813590506106d38161098a565b92915050565b600080604083850312156106f0576106ef61094b565b5b600083013567ffffffffffffffff81111561070e5761070d610946565b5b61071a85828601610696565b925050602061072b858286016106c4565b9150509250929050565b6000806000806080858703121561074f5761074e61094b565b5b600061075d878288016106c4565b945050602085013567ffffffffffffffff81111561077e5761077d610946565b5b61078a87828801610696565b935050604061079b878288016106c4565b92505060606107ac878288016106c4565b91505092959194509250565b60006107c5601d83610851565b91506107d082610961565b602082019050919050565b600060208201905081810360008301526107f4816107b8565b9050919050565b6000610805610816565b905061081182826108ad565b919050565b6000604051905090565b600067ffffffffffffffff82111561083b5761083a61090d565b5b61084482610950565b9050602081019050919050565b600082825260208201905092915050565b6000819050919050565b82818337600083830152505050565b6000600282049050600182168061089357607f821691505b602082108114156108a7576108a66108de565b5b50919050565b6108b682610950565b810181811067ffffffffffffffff821117156108d5576108d461090d565b5b80604052505050565b7f4e487b7100000000000000000000000000000000000000000000000000000000600052602260045260246000fd5b7f4e487b7100000000000000000000000000000000000000000000000000000000600052604160045260246000fd5b600080fd5b600080fd5b600080fd5b600080fd5b6000601f19601f8301169050919050565b7f496e73756666696369656e742066756e6420666f722072656465656d2e000000600082015250565b61099381610862565b811461099e57600080fd5b5056fea26469706673582212209fae8aac77111eda1d58a66169cfb6b8a7d18f7e1de616288e90d10734226cbb64736f6c63430008070033",
					"opcodes": "PUSH1 0x80 PUSH1 0x40 MSTORE CALLVALUE DUP1 ISZERO PUSH2 0x10 JUMPI PUSH1 0x0 DUP1 REVERT JUMPDEST POP CALLER PUSH1 0x0 DUP1 PUSH2 0x100 EXP DUP2 SLOAD DUP2 PUSH20 0xFFFFFFFFFFFFFFFFFFFFFFFFFFFFFFFFFFFFFFFF MUL NOT AND SWAP1 DUP4 PUSH20 0xFFFFFFFFFFFFFFFFFFFFFFFFFFFFFFFFFFFFFFFF AND MUL OR SWAP1 SSTORE POP PUSH2 0x9D7 DUP1 PUSH2 0x60 PUSH1 0x0 CODECOPY PUSH1 0x0 RETURN INVALID PUSH1 0x80 PUSH1 0x40 MSTORE PUSH1 0x4 CALLDATASIZE LT PUSH2 0x34 JUMPI PUSH1 0x0 CALLDATALOAD PUSH1 0xE0 SHR DUP1 PUSH4 0x4854E056 EQ PUSH2 0x39 JUMPI DUP1 PUSH4 0xB1B86B13 EQ PUSH2 0x55 JUMPI DUP1 PUSH4 0xBFD6843D EQ PUSH2 0x71 JUMPI JUMPDEST PUSH1 0x0 DUP1 REVERT JUMPDEST PUSH2 0x53 PUSH1 0x4 DUP1 CALLDATASIZE SUB DUP2 ADD SWAP1 PUSH2 0x4E SWAP2 SWAP1 PUSH2 0x735 JUMP JUMPDEST PUSH2 0x8D JUMP JUMPDEST STOP JUMPDEST PUSH2 0x6F PUSH1 0x4 DUP1 CALLDATASIZE SUB DUP2 ADD SWAP1 PUSH2 0x6A SWAP2 SWAP1 PUSH2 0x6D9 JUMP JUMPDEST PUSH2 0x243 JUMP JUMPDEST STOP JUMPDEST PUSH2 0x8B PUSH1 0x4 DUP1 CALLDATASIZE SUB DUP2 ADD SWAP1 PUSH2 0x86 SWAP2 SWAP1 PUSH2 0x6D9 JUMP JUMPDEST PUSH2 0x455 JUMP JUMPDEST STOP JUMPDEST DUP4 PUSH1 0x5 PUSH1 0x0 DUP1 PUSH1 0x0 SWAP1 SLOAD SWAP1 PUSH2 0x100 EXP SWAP1 DIV PUSH20 0xFFFFFFFFFFFFFFFFFFFFFFFFFFFFFFFFFFFFFFFF AND PUSH20 0xFFFFFFFFFFFFFFFFFFFFFFFFFFFFFFFFFFFFFFFF AND PUSH20 0xFFFFFFFFFFFFFFFFFFFFFFFFFFFFFFFFFFFFFFFF AND DUP2 MSTORE PUSH1 0x20 ADD SWAP1 DUP2 MSTORE PUSH1 0x20 ADD PUSH1 0x0 KECCAK256 PUSH1 0x0 ADD DUP2 SWAP1 SSTORE POP DUP3 PUSH1 0x5 PUSH1 0x0 DUP1 PUSH1 0x0 SWAP1 SLOAD SWAP1 PUSH2 0x100 EXP SWAP1 DIV PUSH20 0xFFFFFFFFFFFFFFFFFFFFFFFFFFFFFFFFFFFFFFFF AND PUSH20 0xFFFFFFFFFFFFFFFFFFFFFFFFFFFFFFFFFFFFFFFF AND PUSH20 0xFFFFFFFFFFFFFFFFFFFFFFFFFFFFFFFFFFFFFFFF AND DUP2 MSTORE PUSH1 0x20 ADD SWAP1 DUP2 MSTORE PUSH1 0x20 ADD PUSH1 0x0 KECCAK256 PUSH1 0x1 ADD SWAP1 DUP1 MLOAD SWAP1 PUSH1 0x20 ADD SWAP1 PUSH2 0x16C SWAP3 SWAP2 SWAP1 PUSH2 0x5B1 JUMP JUMPDEST POP DUP2 PUSH1 0x5 PUSH1 0x0 DUP1 PUSH1 0x0 SWAP1 SLOAD SWAP1 PUSH2 0x100 EXP SWAP1 DIV PUSH20 0xFFFFFFFFFFFFFFFFFFFFFFFFFFFFFFFFFFFFFFFF AND PUSH20 0xFFFFFFFFFFFFFFFFFFFFFFFFFFFFFFFFFFFFFFFF AND PUSH20 0xFFFFFFFFFFFFFFFFFFFFFFFFFFFFFFFFFFFFFFFF AND DUP2 MSTORE PUSH1 0x20 ADD SWAP1 DUP2 MSTORE PUSH1 0x20 ADD PUSH1 0x0 KECCAK256 PUSH1 0x2 ADD DUP2 SWAP1 SSTORE POP DUP1 PUSH1 0x5 PUSH1 0x0 DUP1 PUSH1 0x0 SWAP1 SLOAD SWAP1 PUSH2 0x100 EXP SWAP1 DIV PUSH20 0xFFFFFFFFFFFFFFFFFFFFFFFFFFFFFFFFFFFFFFFF AND PUSH20 0xFFFFFFFFFFFFFFFFFFFFFFFFFFFFFFFFFFFFFFFF AND PUSH20 0xFFFFFFFFFFFFFFFFFFFFFFFFFFFFFFFFFFFFFFFF AND DUP2 MSTORE PUSH1 0x20 ADD SWAP1 DUP2 MSTORE PUSH1 0x20 ADD PUSH1 0x0 KECCAK256 PUSH1 0x3 ADD DUP2 SWAP1 SSTORE POP POP POP POP POP JUMP JUMPDEST DUP1 PUSH1 0x6 PUSH1 0x0 DUP1 PUSH1 0x0 SWAP1 SLOAD SWAP1 PUSH2 0x100 EXP SWAP1 DIV PUSH20 0xFFFFFFFFFFFFFFFFFFFFFFFFFFFFFFFFFFFFFFFF AND PUSH20 0xFFFFFFFFFFFFFFFFFFFFFFFFFFFFFFFFFFFFFFFF AND PUSH20 0xFFFFFFFFFFFFFFFFFFFFFFFFFFFFFFFFFFFFFFFF AND DUP2 MSTORE PUSH1 0x20 ADD SWAP1 DUP2 MSTORE PUSH1 0x20 ADD PUSH1 0x0 KECCAK256 PUSH1 0x1 ADD SLOAD LT ISZERO PUSH2 0x2E9 JUMPI PUSH1 0x40 MLOAD PUSH32 0x8C379A000000000000000000000000000000000000000000000000000000000 DUP2 MSTORE PUSH1 0x4 ADD PUSH2 0x2E0 SWAP1 PUSH2 0x7DB JUMP JUMPDEST PUSH1 0x40 MLOAD DUP1 SWAP2 SUB SWAP1 REVERT JUMPDEST DUP2 PUSH1 0x5 PUSH1 0x0 DUP1 PUSH1 0x0 SWAP1 SLOAD SWAP1 PUSH2 0x100 EXP SWAP1 DIV PUSH20 0xFFFFFFFFFFFFFFFFFFFFFFFFFFFFFFFFFFFFFFFF AND PUSH20 0xFFFFFFFFFFFFFFFFFFFFFFFFFFFFFFFFFFFFFFFF AND PUSH20 0xFFFFFFFFFFFFFFFFFFFFFFFFFFFFFFFFFFFFFFFF AND DUP2 MSTORE PUSH1 0x20 ADD SWAP1 DUP2 MSTORE PUSH1 0x20 ADD PUSH1 0x0 KECCAK256 PUSH1 0x1 ADD SWAP1 DUP1 MLOAD SWAP1 PUSH1 0x20 ADD SWAP1 PUSH2 0x360 SWAP3 SWAP2 SWAP1 PUSH2 0x5B1 JUMP JUMPDEST POP PUSH1 0x40 MLOAD DUP1 PUSH1 0x20 ADD PUSH1 0x40 MSTORE DUP1 PUSH1 0x0 DUP2 MSTORE POP PUSH1 0x6 PUSH1 0x0 DUP1 PUSH1 0x0 SWAP1 SLOAD SWAP1 PUSH2 0x100 EXP SWAP1 DIV PUSH20 0xFFFFFFFFFFFFFFFFFFFFFFFFFFFFFFFFFFFFFFFF AND PUSH20 0xFFFFFFFFFFFFFFFFFFFFFFFFFFFFFFFFFFFFFFFF AND PUSH20 0xFFFFFFFFFFFFFFFFFFFFFFFFFFFFFFFFFFFFFFFF AND DUP2 MSTORE PUSH1 0x20 ADD SWAP1 DUP2 MSTORE PUSH1 0x20 ADD PUSH1 0x0 KECCAK256 PUSH1 0x0 ADD SWAP1 DUP1 MLOAD SWAP1 PUSH1 0x20 ADD SWAP1 PUSH2 0x3E7 SWAP3 SWAP2 SWAP1 PUSH2 0x5B1 JUMP JUMPDEST POP PUSH1 0x0 PUSH1 0x6 PUSH1 0x0 DUP1 PUSH1 0x0 SWAP1 SLOAD SWAP1 PUSH2 0x100 EXP SWAP1 DIV PUSH20 0xFFFFFFFFFFFFFFFFFFFFFFFFFFFFFFFFFFFFFFFF AND PUSH20 0xFFFFFFFFFFFFFFFFFFFFFFFFFFFFFFFFFFFFFFFF AND PUSH20 0xFFFFFFFFFFFFFFFFFFFFFFFFFFFFFFFFFFFFFFFF AND DUP2 MSTORE PUSH1 0x20 ADD SWAP1 DUP2 MSTORE PUSH1 0x20 ADD PUSH1 0x0 KECCAK256 PUSH1 0x1 ADD DUP2 SWAP1 SSTORE POP POP POP JUMP JUMPDEST DUP2 PUSH1 0x5 PUSH1 0x0 DUP1 PUSH1 0x0 SWAP1 SLOAD SWAP1 PUSH2 0x100 EXP SWAP1 DIV PUSH20 0xFFFFFFFFFFFFFFFFFFFFFFFFFFFFFFFFFFFFFFFF AND PUSH20 0xFFFFFFFFFFFFFFFFFFFFFFFFFFFFFFFFFFFFFFFF AND PUSH20 0xFFFFFFFFFFFFFFFFFFFFFFFFFFFFFFFFFFFFFFFF AND DUP2 MSTORE PUSH1 0x20 ADD SWAP1 DUP2 MSTORE PUSH1 0x20 ADD PUSH1 0x0 KECCAK256 PUSH1 0x1 ADD SWAP1 DUP1 MLOAD SWAP1 PUSH1 0x20 ADD SWAP1 PUSH2 0x4CC SWAP3 SWAP2 SWAP1 PUSH2 0x5B1 JUMP JUMPDEST POP DUP2 PUSH1 0x6 PUSH1 0x0 DUP1 PUSH1 0x0 SWAP1 SLOAD SWAP1 PUSH2 0x100 EXP SWAP1 DIV PUSH20 0xFFFFFFFFFFFFFFFFFFFFFFFFFFFFFFFFFFFFFFFF AND PUSH20 0xFFFFFFFFFFFFFFFFFFFFFFFFFFFFFFFFFFFFFFFF AND PUSH20 0xFFFFFFFFFFFFFFFFFFFFFFFFFFFFFFFFFFFFFFFF AND DUP2 MSTORE PUSH1 0x20 ADD SWAP1 DUP2 MSTORE PUSH1 0x20 ADD PUSH1 0x0 KECCAK256 PUSH1 0x0 ADD SWAP1 DUP1 MLOAD SWAP1 PUSH1 0x20 ADD SWAP1 PUSH2 0x544 SWAP3 SWAP2 SWAP1 PUSH2 0x5B1 JUMP JUMPDEST POP DUP1 PUSH1 0x6 PUSH1 0x0 DUP1 PUSH1 0x0 SWAP1 SLOAD SWAP1 PUSH2 0x100 EXP SWAP1 DIV PUSH20 0xFFFFFFFFFFFFFFFFFFFFFFFFFFFFFFFFFFFFFFFF AND PUSH20 0xFFFFFFFFFFFFFFFFFFFFFFFFFFFFFFFFFFFFFFFF AND PUSH20 0xFFFFFFFFFFFFFFFFFFFFFFFFFFFFFFFFFFFFFFFF AND DUP2 MSTORE PUSH1 0x20 ADD SWAP1 DUP2 MSTORE PUSH1 0x20 ADD PUSH1 0x0 KECCAK256 PUSH1 0x1 ADD DUP2 SWAP1 SSTORE POP POP POP JUMP JUMPDEST DUP3 DUP1 SLOAD PUSH2 0x5BD SWAP1 PUSH2 0x87B JUMP JUMPDEST SWAP1 PUSH1 0x0 MSTORE PUSH1 0x20 PUSH1 0x0 KECCAK256 SWAP1 PUSH1 0x1F ADD PUSH1 0x20 SWAP1 DIV DUP2 ADD SWAP3 DUP3 PUSH2 0x5DF JUMPI PUSH1 0x0 DUP6 SSTORE PUSH2 0x626 JUMP JUMPDEST DUP3 PUSH1 0x1F LT PUSH2 0x5F8 JUMPI DUP1 MLOAD PUSH1 0xFF NOT AND DUP4 DUP1 ADD OR DUP6 SSTORE PUSH2 0x626 JUMP JUMPDEST DUP3 DUP1 ADD PUSH1 0x1 ADD DUP6 SSTORE DUP3 ISZERO PUSH2 0x626 JUMPI SWAP2 DUP3 ADD JUMPDEST DUP3 DUP2 GT ISZERO PUSH2 0x625 JUMPI DUP3 MLOAD DUP3 SSTORE SWAP2 PUSH1 0x20 ADD SWAP2 SWAP1 PUSH1 0x1 ADD SWAP1 PUSH2 0x60A JUMP JUMPDEST JUMPDEST POP SWAP1 POP PUSH2 0x633 SWAP2 SWAP1 PUSH2 0x637 JUMP JUMPDEST POP SWAP1 JUMP JUMPDEST JUMPDEST DUP1 DUP3 GT ISZERO PUSH2 0x650 JUMPI PUSH1 0x0 DUP2 PUSH1 0x0 SWAP1 SSTORE POP PUSH1 0x1 ADD PUSH2 0x638 JUMP JUMPDEST POP SWAP1 JUMP JUMPDEST PUSH1 0x0 PUSH2 0x667 PUSH2 0x662 DUP5 PUSH2 0x820 JUMP JUMPDEST PUSH2 0x7FB JUMP JUMPDEST SWAP1 POP DUP3 DUP2 MSTORE PUSH1 0x20 DUP2 ADD DUP5 DUP5 DUP5 ADD GT ISZERO PUSH2 0x683 JUMPI PUSH2 0x682 PUSH2 0x941 JUMP JUMPDEST JUMPDEST PUSH2 0x68E DUP5 DUP3 DUP6 PUSH2 0x86C JUMP JUMPDEST POP SWAP4 SWAP3 POP POP POP JUMP JUMPDEST PUSH1 0x0 DUP3 PUSH1 0x1F DUP4 ADD SLT PUSH2 0x6AB JUMPI PUSH2 0x6AA PUSH2 0x93C JUMP JUMPDEST JUMPDEST DUP2 CALLDATALOAD PUSH2 0x6BB DUP5 DUP3 PUSH1 0x20 DUP7 ADD PUSH2 0x654 JUMP JUMPDEST SWAP2 POP POP SWAP3 SWAP2 POP POP JUMP JUMPDEST PUSH1 0x0 DUP2 CALLDATALOAD SWAP1 POP PUSH2 0x6D3 DUP2 PUSH2 0x98A JUMP JUMPDEST SWAP3 SWAP2 POP POP JUMP JUMPDEST PUSH1 0x0 DUP1 PUSH1 0x40 DUP4 DUP6 SUB SLT ISZERO PUSH2 0x6F0 JUMPI PUSH2 0x6EF PUSH2 0x94B JUMP JUMPDEST JUMPDEST PUSH1 0x0 DUP4 ADD CALLDATALOAD PUSH8 0xFFFFFFFFFFFFFFFF DUP2 GT ISZERO PUSH2 0x70E JUMPI PUSH2 0x70D PUSH2 0x946 JUMP JUMPDEST JUMPDEST PUSH2 0x71A DUP6 DUP3 DUP7 ADD PUSH2 0x696 JUMP JUMPDEST SWAP3 POP POP PUSH1 0x20 PUSH2 0x72B DUP6 DUP3 DUP7 ADD PUSH2 0x6C4 JUMP JUMPDEST SWAP2 POP POP SWAP3 POP SWAP3 SWAP1 POP JUMP JUMPDEST PUSH1 0x0 DUP1 PUSH1 0x0 DUP1 PUSH1 0x80 DUP6 DUP8 SUB SLT ISZERO PUSH2 0x74F JUMPI PUSH2 0x74E PUSH2 0x94B JUMP JUMPDEST JUMPDEST PUSH1 0x0 PUSH2 0x75D DUP8 DUP3 DUP9 ADD PUSH2 0x6C4 JUMP JUMPDEST SWAP5 POP POP PUSH1 0x20 DUP6 ADD CALLDATALOAD PUSH8 0xFFFFFFFFFFFFFFFF DUP2 GT ISZERO PUSH2 0x77E JUMPI PUSH2 0x77D PUSH2 0x946 JUMP JUMPDEST JUMPDEST PUSH2 0x78A DUP8 DUP3 DUP9 ADD PUSH2 0x696 JUMP JUMPDEST SWAP4 POP POP PUSH1 0x40 PUSH2 0x79B DUP8 DUP3 DUP9 ADD PUSH2 0x6C4 JUMP JUMPDEST SWAP3 POP POP PUSH1 0x60 PUSH2 0x7AC DUP8 DUP3 DUP9 ADD PUSH2 0x6C4 JUMP JUMPDEST SWAP2 POP POP SWAP3 SWAP6 SWAP2 SWAP5 POP SWAP3 POP JUMP JUMPDEST PUSH1 0x0 PUSH2 0x7C5 PUSH1 0x1D DUP4 PUSH2 0x851 JUMP JUMPDEST SWAP2 POP PUSH2 0x7D0 DUP3 PUSH2 0x961 JUMP JUMPDEST PUSH1 0x20 DUP3 ADD SWAP1 POP SWAP2 SWAP1 POP JUMP JUMPDEST PUSH1 0x0 PUSH1 0x20 DUP3 ADD SWAP1 POP DUP2 DUP2 SUB PUSH1 0x0 DUP4 ADD MSTORE PUSH2 0x7F4 DUP2 PUSH2 0x7B8 JUMP JUMPDEST SWAP1 POP SWAP2 SWAP1 POP JUMP JUMPDEST PUSH1 0x0 PUSH2 0x805 PUSH2 0x816 JUMP JUMPDEST SWAP1 POP PUSH2 0x811 DUP3 DUP3 PUSH2 0x8AD JUMP JUMPDEST SWAP2 SWAP1 POP JUMP JUMPDEST PUSH1 0x0 PUSH1 0x40 MLOAD SWAP1 POP SWAP1 JUMP JUMPDEST PUSH1 0x0 PUSH8 0xFFFFFFFFFFFFFFFF DUP3 GT ISZERO PUSH2 0x83B JUMPI PUSH2 0x83A PUSH2 0x90D JUMP JUMPDEST JUMPDEST PUSH2 0x844 DUP3 PUSH2 0x950 JUMP JUMPDEST SWAP1 POP PUSH1 0x20 DUP2 ADD SWAP1 POP SWAP2 SWAP1 POP JUMP JUMPDEST PUSH1 0x0 DUP3 DUP3 MSTORE PUSH1 0x20 DUP3 ADD SWAP1 POP SWAP3 SWAP2 POP POP JUMP JUMPDEST PUSH1 0x0 DUP2 SWAP1 POP SWAP2 SWAP1 POP JUMP JUMPDEST DUP3 DUP2 DUP4 CALLDATACOPY PUSH1 0x0 DUP4 DUP4 ADD MSTORE POP POP POP JUMP JUMPDEST PUSH1 0x0 PUSH1 0x2 DUP3 DIV SWAP1 POP PUSH1 0x1 DUP3 AND DUP1 PUSH2 0x893 JUMPI PUSH1 0x7F DUP3 AND SWAP2 POP JUMPDEST PUSH1 0x20 DUP3 LT DUP2 EQ ISZERO PUSH2 0x8A7 JUMPI PUSH2 0x8A6 PUSH2 0x8DE JUMP JUMPDEST JUMPDEST POP SWAP2 SWAP1 POP JUMP JUMPDEST PUSH2 0x8B6 DUP3 PUSH2 0x950 JUMP JUMPDEST DUP2 ADD DUP2 DUP2 LT PUSH8 0xFFFFFFFFFFFFFFFF DUP3 GT OR ISZERO PUSH2 0x8D5 JUMPI PUSH2 0x8D4 PUSH2 0x90D JUMP JUMPDEST JUMPDEST DUP1 PUSH1 0x40 MSTORE POP POP POP JUMP JUMPDEST PUSH32 0x4E487B7100000000000000000000000000000000000000000000000000000000 PUSH1 0x0 MSTORE PUSH1 0x22 PUSH1 0x4 MSTORE PUSH1 0x24 PUSH1 0x0 REVERT JUMPDEST PUSH32 0x4E487B7100000000000000000000000000000000000000000000000000000000 PUSH1 0x0 MSTORE PUSH1 0x41 PUSH1 0x4 MSTORE PUSH1 0x24 PUSH1 0x0 REVERT JUMPDEST PUSH1 0x0 DUP1 REVERT JUMPDEST PUSH1 0x0 DUP1 REVERT JUMPDEST PUSH1 0x0 DUP1 REVERT JUMPDEST PUSH1 0x0 DUP1 REVERT JUMPDEST PUSH1 0x0 PUSH1 0x1F NOT PUSH1 0x1F DUP4 ADD AND SWAP1 POP SWAP2 SWAP1 POP JUMP JUMPDEST PUSH32 0x496E73756666696369656E742066756E6420666F722072656465656D2E000000 PUSH1 0x0 DUP3 ADD MSTORE POP JUMP JUMPDEST PUSH2 0x993 DUP2 PUSH2 0x862 JUMP JUMPDEST DUP2 EQ PUSH2 0x99E JUMPI PUSH1 0x0 DUP1 REVERT JUMPDEST POP JUMP INVALID LOG2 PUSH5 0x6970667358 0x22 SLT KECCAK256 SWAP16 0xAE DUP11 0xAC PUSH24 0x111EDA1D58A66169CFB6B8A7D18F7E1DE616288E90D10734 0x22 PUSH13 0xBB64736F6C6343000807003300 "
				},
				"gasEstimates": {
					"creation": {
						"codeDepositCost": "503800",
						"executionCost": "24803",
						"totalCost": "528603"
					},
					"external": {
						"createParcel(uint256,string,uint256,uint256)": "infinite",
						"mortgage(string,uint256)": "infinite",
						"redeem(string,uint256)": "infinite"
					}
				},
				"methodIdentifiers": {
					"createParcel(uint256,string,uint256,uint256)": "4854e056",
					"mortgage(string,uint256)": "bfd6843d",
					"redeem(string,uint256)": "b1b86b13"
				}
			},
			"storageLayout": {
				"storage": [
					{
						"astId": 17,
						"contract": "contracts/Parcel.sol:Parcel",
						"label": "owner",
						"offset": 0,
						"slot": "0",
						"type": "t_address"
					},
					{
						"astId": 20,
						"contract": "contracts/Parcel.sol:Parcel",
						"label": "parcel_land",
						"offset": 0,
						"slot": "1",
						"type": "t_struct(Parcel_land)10_storage"
					},
					{
						"astId": 25,
						"contract": "contracts/Parcel.sol:Parcel",
						"label": "_parcel_land",
						"offset": 0,
						"slot": "5",
						"type": "t_mapping(t_address,t_struct(Parcel_land)10_storage)"
					},
					{
						"astId": 30,
						"contract": "contracts/Parcel.sol:Parcel",
						"label": "_olgt",
						"offset": 0,
						"slot": "6",
						"type": "t_mapping(t_address,t_struct(Olgt)15_storage)"
					}
				],
				"types": {
					"t_address": {
						"encoding": "inplace",
						"label": "address",
						"numberOfBytes": "20"
					},
					"t_mapping(t_address,t_struct(Olgt)15_storage)": {
						"encoding": "mapping",
						"key": "t_address",
						"label": "mapping(address => struct Olgt)",
						"numberOfBytes": "32",
						"value": "t_struct(Olgt)15_storage"
					},
					"t_mapping(t_address,t_struct(Parcel_land)10_storage)": {
						"encoding": "mapping",
						"key": "t_address",
						"label": "mapping(address => struct Parcel_land)",
						"numberOfBytes": "32",
						"value": "t_struct(Parcel_land)10_storage"
					},
					"t_string_storage": {
						"encoding": "bytes",
						"label": "string",
						"numberOfBytes": "32"
					},
					"t_struct(Olgt)15_storage": {
						"encoding": "inplace",
						"label": "struct Olgt",
						"members": [
							{
								"astId": 12,
								"contract": "contracts/Parcel.sol:Parcel",
								"label": "olgt_name",
								"offset": 0,
								"slot": "0",
								"type": "t_string_storage"
							},
							{
								"astId": 14,
								"contract": "contracts/Parcel.sol:Parcel",
								"label": "olgt_price",
								"offset": 0,
								"slot": "1",
								"type": "t_uint256"
							}
						],
						"numberOfBytes": "64"
					},
					"t_struct(Parcel_land)10_storage": {
						"encoding": "inplace",
						"label": "struct Parcel_land",
						"members": [
							{
								"astId": 3,
								"contract": "contracts/Parcel.sol:Parcel",
								"label": "parcel_no",
								"offset": 0,
								"slot": "0",
								"type": "t_uint256"
							},
							{
								"astId": 5,
								"contract": "contracts/Parcel.sol:Parcel",
								"label": "owner_name",
								"offset": 0,
								"slot": "1",
								"type": "t_string_storage"
							},
							{
								"astId": 7,
								"contract": "contracts/Parcel.sol:Parcel",
								"label": "price",
								"offset": 0,
								"slot": "2",
								"type": "t_uint256"
							},
							{
								"astId": 9,
								"contract": "contracts/Parcel.sol:Parcel",
								"label": "area",
								"offset": 0,
								"slot": "3",
								"type": "t_uint256"
							}
						],
						"numberOfBytes": "128"
					},
					"t_uint256": {
						"encoding": "inplace",
						"label": "uint256",
						"numberOfBytes": "32"
					}
				}
			},
			"userdoc": {
				"kind": "user",
				"methods": {},
				"version": 1
			}
		}
	}
}