{
	"contracts/Parcel.sol": {
		"Parcel": {
			"abi": [
				{
					"inputs": [],
					"stateMutability": "nonpayable",
					"type": "constructor"
				},
				{
					"inputs": [
						{
							"internalType": "uint256",
							"name": "parcel_no",
							"type": "uint256"
						},
						{
							"internalType": "string",
							"name": "owner_name",
							"type": "string"
						},
						{
							"internalType": "uint256",
							"name": "price",
							"type": "uint256"
						},
						{
							"internalType": "uint256",
							"name": "area",
							"type": "uint256"
						}
					],
					"name": "createParcel",
					"outputs": [],
					"stateMutability": "payable",
					"type": "function"
				},
				{
					"inputs": [
						{
							"internalType": "address",
							"name": "bank",
							"type": "address"
						},
						{
							"internalType": "string",
							"name": "owner_name",
							"type": "string"
						},
						{
							"internalType": "uint256",
							"name": "price",
							"type": "uint256"
						}
					],
					"name": "mortgage",
					"outputs": [],
					"stateMutability": "payable",
					"type": "function"
				},
				{
					"inputs": [
						{
							"internalType": "address",
							"name": "person",
							"type": "address"
						},
						{
							"internalType": "string",
							"name": "owner_name",
							"type": "string"
						},
						{
							"internalType": "uint256",
							"name": "price",
							"type": "uint256"
						}
					],
					"name": "redeem",
					"outputs": [],
					"stateMutability": "payable",
					"type": "function"
				}
			],
			"devdoc": {
				"kind": "dev",
				"methods": {},
				"version": 1
			},
			"evm": {
				"assembly": "    /* \"contracts/Parcel.sol\":265:1836  contract Parcel {\r... */\n  mstore(0x40, 0x80)\n    /* \"contracts/Parcel.sol\":424:475  constructor() {\r... */\n  callvalue\n  dup1\n  iszero\n  tag_1\n  jumpi\n  0x00\n  dup1\n  revert\ntag_1:\n  pop\n    /* \"contracts/Parcel.sol\":457:467  msg.sender */\n  caller\n    /* \"contracts/Parcel.sol\":449:454  owner */\n  0x00\n  dup1\n    /* \"contracts/Parcel.sol\":449:467  owner = msg.sender */\n  0x0100\n  exp\n  dup2\n  sload\n  dup2\n  0xffffffffffffffffffffffffffffffffffffffff\n  mul\n  not\n  and\n  swap1\n  dup4\n  0xffffffffffffffffffffffffffffffffffffffff\n  and\n  mul\n  or\n  swap1\n  sstore\n  pop\n    /* \"contracts/Parcel.sol\":265:1836  contract Parcel {\r... */\n  dataSize(sub_0)\n  dup1\n  dataOffset(sub_0)\n  0x00\n  codecopy\n  0x00\n  return\nstop\n\nsub_0: assembly {\n        /* \"contracts/Parcel.sol\":265:1836  contract Parcel {\r... */\n      mstore(0x40, 0x80)\n      jumpi(tag_1, lt(calldatasize, 0x04))\n      shr(0xe0, calldataload(0x00))\n      dup1\n      0x4854e056\n      eq\n      tag_2\n      jumpi\n      dup1\n      0x5b1dedc2\n      eq\n      tag_3\n      jumpi\n      dup1\n      0x868571ef\n      eq\n      tag_4\n      jumpi\n    tag_1:\n      0x00\n      dup1\n      revert\n        /* \"contracts/Parcel.sol\":680:978  function createParcel(uint parcel_no, string memory owner_name, uint price, uint area) public payable {\r... */\n    tag_2:\n      tag_5\n      0x04\n      dup1\n      calldatasize\n      sub\n      dup2\n      add\n      swap1\n      tag_6\n      swap2\n      swap1\n      tag_7\n      jump\t// in\n    tag_6:\n      tag_8\n      jump\t// in\n    tag_5:\n      stop\n        /* \"contracts/Parcel.sol\":1111:1354  function mortgage(address bank, string memory owner_name, uint price) isOwner public payable {\r... */\n    tag_3:\n      tag_9\n      0x04\n      dup1\n      calldatasize\n      sub\n      dup2\n      add\n      swap1\n      tag_10\n      swap2\n      swap1\n      tag_11\n      jump\t// in\n    tag_10:\n      tag_12\n      jump\t// in\n    tag_9:\n      stop\n        /* \"contracts/Parcel.sol\":1520:1831  function redeem(address person, string memory owner_name, uint price) public payable {\r... */\n    tag_4:\n      tag_13\n      0x04\n      dup1\n      calldatasize\n      sub\n      dup2\n      add\n      swap1\n      tag_14\n      swap2\n      swap1\n      tag_11\n      jump\t// in\n    tag_14:\n      tag_15\n      jump\t// in\n    tag_13:\n      stop\n        /* \"contracts/Parcel.sol\":680:978  function createParcel(uint parcel_no, string memory owner_name, uint price, uint area) public payable {\r... */\n    tag_8:\n        /* \"contracts/Parcel.sol\":824:833  parcel_no */\n      dup4\n        /* \"contracts/Parcel.sol\":792:804  _parcel_land */\n      0x05\n        /* \"contracts/Parcel.sol\":792:811  _parcel_land[owner] */\n      0x00\n        /* \"contracts/Parcel.sol\":805:810  owner */\n      dup1\n      0x00\n      swap1\n      sload\n      swap1\n      0x0100\n      exp\n      swap1\n      div\n      0xffffffffffffffffffffffffffffffffffffffff\n      and\n        /* \"contracts/Parcel.sol\":792:811  _parcel_land[owner] */\n      0xffffffffffffffffffffffffffffffffffffffff\n      and\n      0xffffffffffffffffffffffffffffffffffffffff\n      and\n      dup2\n      mstore\n      0x20\n      add\n      swap1\n      dup2\n      mstore\n      0x20\n      add\n      0x00\n      keccak256\n        /* \"contracts/Parcel.sol\":792:821  _parcel_land[owner].parcel_no */\n      0x00\n      add\n        /* \"contracts/Parcel.sol\":792:833  _parcel_land[owner].parcel_no = parcel_no */\n      dup2\n      swap1\n      sstore\n      pop\n        /* \"contracts/Parcel.sol\":876:886  owner_name */\n      dup3\n        /* \"contracts/Parcel.sol\":843:855  _parcel_land */\n      0x05\n        /* \"contracts/Parcel.sol\":843:862  _parcel_land[owner] */\n      0x00\n        /* \"contracts/Parcel.sol\":856:861  owner */\n      dup1\n      0x00\n      swap1\n      sload\n      swap1\n      0x0100\n      exp\n      swap1\n      div\n      0xffffffffffffffffffffffffffffffffffffffff\n      and\n        /* \"contracts/Parcel.sol\":843:862  _parcel_land[owner] */\n      0xffffffffffffffffffffffffffffffffffffffff\n      and\n      0xffffffffffffffffffffffffffffffffffffffff\n      and\n      dup2\n      mstore\n      0x20\n      add\n      swap1\n      dup2\n      mstore\n      0x20\n      add\n      0x00\n      keccak256\n        /* \"contracts/Parcel.sol\":843:873  _parcel_land[owner].owner_name */\n      0x01\n      add\n        /* \"contracts/Parcel.sol\":843:886  _parcel_land[owner].owner_name = owner_name */\n      swap1\n      dup1\n      mload\n      swap1\n      0x20\n      add\n      swap1\n      tag_17\n      swap3\n      swap2\n      swap1\n      tag_18\n      jump\t// in\n    tag_17:\n      pop\n        /* \"contracts/Parcel.sol\":924:929  price */\n      dup2\n        /* \"contracts/Parcel.sol\":896:908  _parcel_land */\n      0x05\n        /* \"contracts/Parcel.sol\":896:915  _parcel_land[owner] */\n      0x00\n        /* \"contracts/Parcel.sol\":909:914  owner */\n      dup1\n      0x00\n      swap1\n      sload\n      swap1\n      0x0100\n      exp\n      swap1\n      div\n      0xffffffffffffffffffffffffffffffffffffffff\n      and\n        /* \"contracts/Parcel.sol\":896:915  _parcel_land[owner] */\n      0xffffffffffffffffffffffffffffffffffffffff\n      and\n      0xffffffffffffffffffffffffffffffffffffffff\n      and\n      dup2\n      mstore\n      0x20\n      add\n      swap1\n      dup2\n      mstore\n      0x20\n      add\n      0x00\n      keccak256\n        /* \"contracts/Parcel.sol\":896:921  _parcel_land[owner].price */\n      0x02\n      add\n        /* \"contracts/Parcel.sol\":896:929  _parcel_land[owner].price = price */\n      dup2\n      swap1\n      sstore\n      pop\n        /* \"contracts/Parcel.sol\":966:970  area */\n      dup1\n        /* \"contracts/Parcel.sol\":939:951  _parcel_land */\n      0x05\n        /* \"contracts/Parcel.sol\":939:958  _parcel_land[owner] */\n      0x00\n        /* \"contracts/Parcel.sol\":952:957  owner */\n      dup1\n      0x00\n      swap1\n      sload\n      swap1\n      0x0100\n      exp\n      swap1\n      div\n      0xffffffffffffffffffffffffffffffffffffffff\n      and\n        /* \"contracts/Parcel.sol\":939:958  _parcel_land[owner] */\n      0xffffffffffffffffffffffffffffffffffffffff\n      and\n      0xffffffffffffffffffffffffffffffffffffffff\n      and\n      dup2\n      mstore\n      0x20\n      add\n      swap1\n      dup2\n      mstore\n      0x20\n      add\n      0x00\n      keccak256\n        /* \"contracts/Parcel.sol\":939:963  _parcel_land[owner].area */\n      0x03\n      add\n        /* \"contracts/Parcel.sol\":939:970  _parcel_land[owner].area = area */\n      dup2\n      swap1\n      sstore\n      pop\n        /* \"contracts/Parcel.sol\":680:978  function createParcel(uint parcel_no, string memory owner_name, uint price, uint area) public payable {\r... */\n      pop\n      pop\n      pop\n      pop\n      jump\t// out\n        /* \"contracts/Parcel.sol\":1111:1354  function mortgage(address bank, string memory owner_name, uint price) isOwner public payable {\r... */\n    tag_12:\n        /* \"contracts/Parcel.sol\":533:538  owner */\n      0x00\n      dup1\n      sload\n      swap1\n      0x0100\n      exp\n      swap1\n      div\n      0xffffffffffffffffffffffffffffffffffffffff\n      and\n        /* \"contracts/Parcel.sol\":519:538  msg.sender == owner */\n      0xffffffffffffffffffffffffffffffffffffffff\n      and\n        /* \"contracts/Parcel.sol\":519:529  msg.sender */\n      caller\n        /* \"contracts/Parcel.sol\":519:538  msg.sender == owner */\n      0xffffffffffffffffffffffffffffffffffffffff\n      and\n      eq\n        /* \"contracts/Parcel.sol\":511:568  require(msg.sender == owner, \"You are not parcel owner.\") */\n      tag_20\n      jumpi\n      mload(0x40)\n      0x08c379a000000000000000000000000000000000000000000000000000000000\n      dup2\n      mstore\n      0x04\n      add\n      tag_21\n      swap1\n      tag_22\n      jump\t// in\n    tag_21:\n      mload(0x40)\n      dup1\n      swap2\n      sub\n      swap1\n      revert\n    tag_20:\n        /* \"contracts/Parcel.sol\":1248:1258  owner_name */\n      dup2\n        /* \"contracts/Parcel.sol\":1215:1227  _parcel_land */\n      0x05\n        /* \"contracts/Parcel.sol\":1215:1234  _parcel_land[owner] */\n      0x00\n        /* \"contracts/Parcel.sol\":1228:1233  owner */\n      dup1\n      0x00\n      swap1\n      sload\n      swap1\n      0x0100\n      exp\n      swap1\n      div\n      0xffffffffffffffffffffffffffffffffffffffff\n      and\n        /* \"contracts/Parcel.sol\":1215:1234  _parcel_land[owner] */\n      0xffffffffffffffffffffffffffffffffffffffff\n      and\n      0xffffffffffffffffffffffffffffffffffffffff\n      and\n      dup2\n      mstore\n      0x20\n      add\n      swap1\n      dup2\n      mstore\n      0x20\n      add\n      0x00\n      keccak256\n        /* \"contracts/Parcel.sol\":1215:1245  _parcel_land[owner].owner_name */\n      0x01\n      add\n        /* \"contracts/Parcel.sol\":1215:1258  _parcel_land[owner].owner_name = owner_name */\n      swap1\n      dup1\n      mload\n      swap1\n      0x20\n      add\n      swap1\n      tag_24\n      swap3\n      swap2\n      swap1\n      tag_18\n      jump\t// in\n    tag_24:\n      pop\n        /* \"contracts/Parcel.sol\":1294:1304  owner_name */\n      dup2\n        /* \"contracts/Parcel.sol\":1269:1274  _olgt */\n      0x06\n        /* \"contracts/Parcel.sol\":1269:1281  _olgt[owner] */\n      0x00\n        /* \"contracts/Parcel.sol\":1275:1280  owner */\n      dup1\n      0x00\n      swap1\n      sload\n      swap1\n      0x0100\n      exp\n      swap1\n      div\n      0xffffffffffffffffffffffffffffffffffffffff\n      and\n        /* \"contracts/Parcel.sol\":1269:1281  _olgt[owner] */\n      0xffffffffffffffffffffffffffffffffffffffff\n      and\n      0xffffffffffffffffffffffffffffffffffffffff\n      and\n      dup2\n      mstore\n      0x20\n      add\n      swap1\n      dup2\n      mstore\n      0x20\n      add\n      0x00\n      keccak256\n        /* \"contracts/Parcel.sol\":1269:1291  _olgt[owner].olgt_name */\n      0x00\n      add\n        /* \"contracts/Parcel.sol\":1269:1304  _olgt[owner].olgt_name = owner_name */\n      swap1\n      dup1\n      mload\n      swap1\n      0x20\n      add\n      swap1\n      tag_25\n      swap3\n      swap2\n      swap1\n      tag_18\n      jump\t// in\n    tag_25:\n      pop\n        /* \"contracts/Parcel.sol\":1341:1346  price */\n      dup1\n        /* \"contracts/Parcel.sol\":1315:1320  _olgt */\n      0x06\n        /* \"contracts/Parcel.sol\":1315:1327  _olgt[owner] */\n      0x00\n        /* \"contracts/Parcel.sol\":1321:1326  owner */\n      dup1\n      0x00\n      swap1\n      sload\n      swap1\n      0x0100\n      exp\n      swap1\n      div\n      0xffffffffffffffffffffffffffffffffffffffff\n      and\n        /* \"contracts/Parcel.sol\":1315:1327  _olgt[owner] */\n      0xffffffffffffffffffffffffffffffffffffffff\n      and\n      0xffffffffffffffffffffffffffffffffffffffff\n      and\n      dup2\n      mstore\n      0x20\n      add\n      swap1\n      dup2\n      mstore\n      0x20\n      add\n      0x00\n      keccak256\n        /* \"contracts/Parcel.sol\":1315:1338  _olgt[owner].olgt_price */\n      0x01\n      add\n        /* \"contracts/Parcel.sol\":1315:1346  _olgt[owner].olgt_price = price */\n      dup2\n      swap1\n      sstore\n      pop\n        /* \"contracts/Parcel.sol\":1111:1354  function mortgage(address bank, string memory owner_name, uint price) isOwner public payable {\r... */\n      pop\n      pop\n      pop\n      jump\t// out\n        /* \"contracts/Parcel.sol\":1520:1831  function redeem(address person, string memory owner_name, uint price) public payable {\r... */\n    tag_15:\n        /* \"contracts/Parcel.sol\":1651:1656  price */\n      dup1\n        /* \"contracts/Parcel.sol\":1624:1629  _olgt */\n      0x06\n        /* \"contracts/Parcel.sol\":1624:1636  _olgt[owner] */\n      0x00\n        /* \"contracts/Parcel.sol\":1630:1635  owner */\n      dup1\n      0x00\n      swap1\n      sload\n      swap1\n      0x0100\n      exp\n      swap1\n      div\n      0xffffffffffffffffffffffffffffffffffffffff\n      and\n        /* \"contracts/Parcel.sol\":1624:1636  _olgt[owner] */\n      0xffffffffffffffffffffffffffffffffffffffff\n      and\n      0xffffffffffffffffffffffffffffffffffffffff\n      and\n      dup2\n      mstore\n      0x20\n      add\n      swap1\n      dup2\n      mstore\n      0x20\n      add\n      0x00\n      keccak256\n        /* \"contracts/Parcel.sol\":1624:1647  _olgt[owner].olgt_price */\n      0x01\n      add\n      sload\n        /* \"contracts/Parcel.sol\":1624:1656  _olgt[owner].olgt_price >= price */\n      lt\n      iszero\n        /* \"contracts/Parcel.sol\":1616:1690  require(_olgt[owner].olgt_price >= price, \"Insufficient fund for redeem.\") */\n      tag_27\n      jumpi\n      mload(0x40)\n      0x08c379a000000000000000000000000000000000000000000000000000000000\n      dup2\n      mstore\n      0x04\n      add\n      tag_28\n      swap1\n      tag_29\n      jump\t// in\n    tag_28:\n      mload(0x40)\n      dup1\n      swap2\n      sub\n      swap1\n      revert\n    tag_27:\n        /* \"contracts/Parcel.sol\":1735:1745  owner_name */\n      dup2\n        /* \"contracts/Parcel.sol\":1701:1713  _parcel_land */\n      0x05\n        /* \"contracts/Parcel.sol\":1701:1721  _parcel_land[person] */\n      0x00\n        /* \"contracts/Parcel.sol\":1714:1720  person */\n      dup6\n        /* \"contracts/Parcel.sol\":1701:1721  _parcel_land[person] */\n      0xffffffffffffffffffffffffffffffffffffffff\n      and\n      0xffffffffffffffffffffffffffffffffffffffff\n      and\n      dup2\n      mstore\n      0x20\n      add\n      swap1\n      dup2\n      mstore\n      0x20\n      add\n      0x00\n      keccak256\n        /* \"contracts/Parcel.sol\":1701:1732  _parcel_land[person].owner_name */\n      0x01\n      add\n        /* \"contracts/Parcel.sol\":1701:1745  _parcel_land[person].owner_name = owner_name */\n      swap1\n      dup1\n      mload\n      swap1\n      0x20\n      add\n      swap1\n      tag_30\n      swap3\n      swap2\n      swap1\n      tag_18\n      jump\t// in\n    tag_30:\n      pop\n        /* \"contracts/Parcel.sol\":1756:1784  _olgt[person].olgt_name = \"\" */\n      mload(0x40)\n      dup1\n      0x20\n      add\n      0x40\n      mstore\n      dup1\n      0x00\n      dup2\n      mstore\n      pop\n        /* \"contracts/Parcel.sol\":1756:1761  _olgt */\n      0x06\n        /* \"contracts/Parcel.sol\":1756:1769  _olgt[person] */\n      0x00\n        /* \"contracts/Parcel.sol\":1762:1768  person */\n      dup6\n        /* \"contracts/Parcel.sol\":1756:1769  _olgt[person] */\n      0xffffffffffffffffffffffffffffffffffffffff\n      and\n      0xffffffffffffffffffffffffffffffffffffffff\n      and\n      dup2\n      mstore\n      0x20\n      add\n      swap1\n      dup2\n      mstore\n      0x20\n      add\n      0x00\n      keccak256\n        /* \"contracts/Parcel.sol\":1756:1779  _olgt[person].olgt_name */\n      0x00\n      add\n        /* \"contracts/Parcel.sol\":1756:1784  _olgt[person].olgt_name = \"\" */\n      swap1\n      dup1\n      mload\n      swap1\n      0x20\n      add\n      swap1\n      tag_31\n      swap3\n      swap2\n      swap1\n      tag_18\n      jump\t// in\n    tag_31:\n      pop\n        /* \"contracts/Parcel.sol\":1822:1823  0 */\n      0x00\n        /* \"contracts/Parcel.sol\":1795:1800  _olgt */\n      0x06\n        /* \"contracts/Parcel.sol\":1795:1808  _olgt[person] */\n      0x00\n        /* \"contracts/Parcel.sol\":1801:1807  person */\n      dup6\n        /* \"contracts/Parcel.sol\":1795:1808  _olgt[person] */\n      0xffffffffffffffffffffffffffffffffffffffff\n      and\n      0xffffffffffffffffffffffffffffffffffffffff\n      and\n      dup2\n      mstore\n      0x20\n      add\n      swap1\n      dup2\n      mstore\n      0x20\n      add\n      0x00\n      keccak256\n        /* \"contracts/Parcel.sol\":1795:1819  _olgt[person].olgt_price */\n      0x01\n      add\n        /* \"contracts/Parcel.sol\":1795:1823  _olgt[person].olgt_price = 0 */\n      dup2\n      swap1\n      sstore\n      pop\n        /* \"contracts/Parcel.sol\":1520:1831  function redeem(address person, string memory owner_name, uint price) public payable {\r... */\n      pop\n      pop\n      pop\n      jump\t// out\n    tag_18:\n      dup3\n      dup1\n      sload\n      tag_32\n      swap1\n      tag_33\n      jump\t// in\n    tag_32:\n      swap1\n      0x00\n      mstore\n      keccak256(0x00, 0x20)\n      swap1\n      0x1f\n      add\n      0x20\n      swap1\n      div\n      dup2\n      add\n      swap3\n      dup3\n      tag_35\n      jumpi\n      0x00\n      dup6\n      sstore\n      jump(tag_34)\n    tag_35:\n      dup3\n      0x1f\n      lt\n      tag_36\n      jumpi\n      dup1\n      mload\n      not(0xff)\n      and\n      dup4\n      dup1\n      add\n      or\n      dup6\n      sstore\n      jump(tag_34)\n    tag_36:\n      dup3\n      dup1\n      add\n      0x01\n      add\n      dup6\n      sstore\n      dup3\n      iszero\n      tag_34\n      jumpi\n      swap2\n      dup3\n      add\n    tag_37:\n      dup3\n      dup2\n      gt\n      iszero\n      tag_38\n      jumpi\n      dup3\n      mload\n      dup3\n      sstore\n      swap2\n      0x20\n      add\n      swap2\n      swap1\n      0x01\n      add\n      swap1\n      jump(tag_37)\n    tag_38:\n    tag_34:\n      pop\n      swap1\n      pop\n      tag_39\n      swap2\n      swap1\n      tag_40\n      jump\t// in\n    tag_39:\n      pop\n      swap1\n      jump\t// out\n    tag_40:\n    tag_41:\n      dup1\n      dup3\n      gt\n      iszero\n      tag_42\n      jumpi\n      0x00\n      dup2\n      0x00\n      swap1\n      sstore\n      pop\n      0x01\n      add\n      jump(tag_41)\n    tag_42:\n      pop\n      swap1\n      jump\t// out\n        /* \"#utility.yul\":7:419   */\n    tag_44:\n        /* \"#utility.yul\":85:90   */\n      0x00\n        /* \"#utility.yul\":110:176   */\n      tag_46\n        /* \"#utility.yul\":126:175   */\n      tag_47\n        /* \"#utility.yul\":168:174   */\n      dup5\n        /* \"#utility.yul\":126:175   */\n      tag_48\n      jump\t// in\n    tag_47:\n        /* \"#utility.yul\":110:176   */\n      tag_49\n      jump\t// in\n    tag_46:\n        /* \"#utility.yul\":101:176   */\n      swap1\n      pop\n        /* \"#utility.yul\":199:205   */\n      dup3\n        /* \"#utility.yul\":192:197   */\n      dup2\n        /* \"#utility.yul\":185:206   */\n      mstore\n        /* \"#utility.yul\":237:241   */\n      0x20\n        /* \"#utility.yul\":230:235   */\n      dup2\n        /* \"#utility.yul\":226:242   */\n      add\n        /* \"#utility.yul\":275:278   */\n      dup5\n        /* \"#utility.yul\":266:272   */\n      dup5\n        /* \"#utility.yul\":261:264   */\n      dup5\n        /* \"#utility.yul\":257:273   */\n      add\n        /* \"#utility.yul\":254:279   */\n      gt\n        /* \"#utility.yul\":251:363   */\n      iszero\n      tag_50\n      jumpi\n        /* \"#utility.yul\":282:361   */\n      tag_51\n      tag_52\n      jump\t// in\n    tag_51:\n        /* \"#utility.yul\":251:363   */\n    tag_50:\n        /* \"#utility.yul\":372:413   */\n      tag_53\n        /* \"#utility.yul\":406:412   */\n      dup5\n        /* \"#utility.yul\":401:404   */\n      dup3\n        /* \"#utility.yul\":396:399   */\n      dup6\n        /* \"#utility.yul\":372:413   */\n      tag_54\n      jump\t// in\n    tag_53:\n        /* \"#utility.yul\":91:419   */\n      pop\n        /* \"#utility.yul\":7:419   */\n      swap4\n      swap3\n      pop\n      pop\n      pop\n      jump\t// out\n        /* \"#utility.yul\":425:564   */\n    tag_55:\n        /* \"#utility.yul\":471:476   */\n      0x00\n        /* \"#utility.yul\":509:515   */\n      dup2\n        /* \"#utility.yul\":496:516   */\n      calldataload\n        /* \"#utility.yul\":487:516   */\n      swap1\n      pop\n        /* \"#utility.yul\":525:558   */\n      tag_57\n        /* \"#utility.yul\":552:557   */\n      dup2\n        /* \"#utility.yul\":525:558   */\n      tag_58\n      jump\t// in\n    tag_57:\n        /* \"#utility.yul\":425:564   */\n      swap3\n      swap2\n      pop\n      pop\n      jump\t// out\n        /* \"#utility.yul\":584:924   */\n    tag_59:\n        /* \"#utility.yul\":640:645   */\n      0x00\n        /* \"#utility.yul\":689:692   */\n      dup3\n        /* \"#utility.yul\":682:686   */\n      0x1f\n        /* \"#utility.yul\":674:680   */\n      dup4\n        /* \"#utility.yul\":670:687   */\n      add\n        /* \"#utility.yul\":666:693   */\n      slt\n        /* \"#utility.yul\":656:778   */\n      tag_61\n      jumpi\n        /* \"#utility.yul\":697:776   */\n      tag_62\n      tag_63\n      jump\t// in\n    tag_62:\n        /* \"#utility.yul\":656:778   */\n    tag_61:\n        /* \"#utility.yul\":814:820   */\n      dup2\n        /* \"#utility.yul\":801:821   */\n      calldataload\n        /* \"#utility.yul\":839:918   */\n      tag_64\n        /* \"#utility.yul\":914:917   */\n      dup5\n        /* \"#utility.yul\":906:912   */\n      dup3\n        /* \"#utility.yul\":899:903   */\n      0x20\n        /* \"#utility.yul\":891:897   */\n      dup7\n        /* \"#utility.yul\":887:904   */\n      add\n        /* \"#utility.yul\":839:918   */\n      tag_44\n      jump\t// in\n    tag_64:\n        /* \"#utility.yul\":830:918   */\n      swap2\n      pop\n        /* \"#utility.yul\":646:924   */\n      pop\n        /* \"#utility.yul\":584:924   */\n      swap3\n      swap2\n      pop\n      pop\n      jump\t// out\n        /* \"#utility.yul\":930:1069   */\n    tag_65:\n        /* \"#utility.yul\":976:981   */\n      0x00\n        /* \"#utility.yul\":1014:1020   */\n      dup2\n        /* \"#utility.yul\":1001:1021   */\n      calldataload\n        /* \"#utility.yul\":992:1021   */\n      swap1\n      pop\n        /* \"#utility.yul\":1030:1063   */\n      tag_67\n        /* \"#utility.yul\":1057:1062   */\n      dup2\n        /* \"#utility.yul\":1030:1063   */\n      tag_68\n      jump\t// in\n    tag_67:\n        /* \"#utility.yul\":930:1069   */\n      swap3\n      swap2\n      pop\n      pop\n      jump\t// out\n        /* \"#utility.yul\":1075:1874   */\n    tag_11:\n        /* \"#utility.yul\":1162:1168   */\n      0x00\n        /* \"#utility.yul\":1170:1176   */\n      dup1\n        /* \"#utility.yul\":1178:1184   */\n      0x00\n        /* \"#utility.yul\":1227:1229   */\n      0x60\n        /* \"#utility.yul\":1215:1224   */\n      dup5\n        /* \"#utility.yul\":1206:1213   */\n      dup7\n        /* \"#utility.yul\":1202:1225   */\n      sub\n        /* \"#utility.yul\":1198:1230   */\n      slt\n        /* \"#utility.yul\":1195:1314   */\n      iszero\n      tag_70\n      jumpi\n        /* \"#utility.yul\":1233:1312   */\n      tag_71\n      tag_72\n      jump\t// in\n    tag_71:\n        /* \"#utility.yul\":1195:1314   */\n    tag_70:\n        /* \"#utility.yul\":1353:1354   */\n      0x00\n        /* \"#utility.yul\":1378:1431   */\n      tag_73\n        /* \"#utility.yul\":1423:1430   */\n      dup7\n        /* \"#utility.yul\":1414:1420   */\n      dup3\n        /* \"#utility.yul\":1403:1412   */\n      dup8\n        /* \"#utility.yul\":1399:1421   */\n      add\n        /* \"#utility.yul\":1378:1431   */\n      tag_55\n      jump\t// in\n    tag_73:\n        /* \"#utility.yul\":1368:1431   */\n      swap4\n      pop\n        /* \"#utility.yul\":1324:1441   */\n      pop\n        /* \"#utility.yul\":1508:1510   */\n      0x20\n        /* \"#utility.yul\":1497:1506   */\n      dup5\n        /* \"#utility.yul\":1493:1511   */\n      add\n        /* \"#utility.yul\":1480:1512   */\n      calldataload\n        /* \"#utility.yul\":1539:1557   */\n      0xffffffffffffffff\n        /* \"#utility.yul\":1531:1537   */\n      dup2\n        /* \"#utility.yul\":1528:1558   */\n      gt\n        /* \"#utility.yul\":1525:1642   */\n      iszero\n      tag_74\n      jumpi\n        /* \"#utility.yul\":1561:1640   */\n      tag_75\n      tag_76\n      jump\t// in\n    tag_75:\n        /* \"#utility.yul\":1525:1642   */\n    tag_74:\n        /* \"#utility.yul\":1666:1729   */\n      tag_77\n        /* \"#utility.yul\":1721:1728   */\n      dup7\n        /* \"#utility.yul\":1712:1718   */\n      dup3\n        /* \"#utility.yul\":1701:1710   */\n      dup8\n        /* \"#utility.yul\":1697:1719   */\n      add\n        /* \"#utility.yul\":1666:1729   */\n      tag_59\n      jump\t// in\n    tag_77:\n        /* \"#utility.yul\":1656:1729   */\n      swap3\n      pop\n        /* \"#utility.yul\":1451:1739   */\n      pop\n        /* \"#utility.yul\":1778:1780   */\n      0x40\n        /* \"#utility.yul\":1804:1857   */\n      tag_78\n        /* \"#utility.yul\":1849:1856   */\n      dup7\n        /* \"#utility.yul\":1840:1846   */\n      dup3\n        /* \"#utility.yul\":1829:1838   */\n      dup8\n        /* \"#utility.yul\":1825:1847   */\n      add\n        /* \"#utility.yul\":1804:1857   */\n      tag_65\n      jump\t// in\n    tag_78:\n        /* \"#utility.yul\":1794:1857   */\n      swap2\n      pop\n        /* \"#utility.yul\":1749:1867   */\n      pop\n        /* \"#utility.yul\":1075:1874   */\n      swap3\n      pop\n      swap3\n      pop\n      swap3\n      jump\t// out\n        /* \"#utility.yul\":1880:2825   */\n    tag_7:\n        /* \"#utility.yul\":1976:1982   */\n      0x00\n        /* \"#utility.yul\":1984:1990   */\n      dup1\n        /* \"#utility.yul\":1992:1998   */\n      0x00\n        /* \"#utility.yul\":2000:2006   */\n      dup1\n        /* \"#utility.yul\":2049:2052   */\n      0x80\n        /* \"#utility.yul\":2037:2046   */\n      dup6\n        /* \"#utility.yul\":2028:2035   */\n      dup8\n        /* \"#utility.yul\":2024:2047   */\n      sub\n        /* \"#utility.yul\":2020:2053   */\n      slt\n        /* \"#utility.yul\":2017:2137   */\n      iszero\n      tag_80\n      jumpi\n        /* \"#utility.yul\":2056:2135   */\n      tag_81\n      tag_72\n      jump\t// in\n    tag_81:\n        /* \"#utility.yul\":2017:2137   */\n    tag_80:\n        /* \"#utility.yul\":2176:2177   */\n      0x00\n        /* \"#utility.yul\":2201:2254   */\n      tag_82\n        /* \"#utility.yul\":2246:2253   */\n      dup8\n        /* \"#utility.yul\":2237:2243   */\n      dup3\n        /* \"#utility.yul\":2226:2235   */\n      dup9\n        /* \"#utility.yul\":2222:2244   */\n      add\n        /* \"#utility.yul\":2201:2254   */\n      tag_65\n      jump\t// in\n    tag_82:\n        /* \"#utility.yul\":2191:2254   */\n      swap5\n      pop\n        /* \"#utility.yul\":2147:2264   */\n      pop\n        /* \"#utility.yul\":2331:2333   */\n      0x20\n        /* \"#utility.yul\":2320:2329   */\n      dup6\n        /* \"#utility.yul\":2316:2334   */\n      add\n        /* \"#utility.yul\":2303:2335   */\n      calldataload\n        /* \"#utility.yul\":2362:2380   */\n      0xffffffffffffffff\n        /* \"#utility.yul\":2354:2360   */\n      dup2\n        /* \"#utility.yul\":2351:2381   */\n      gt\n        /* \"#utility.yul\":2348:2465   */\n      iszero\n      tag_83\n      jumpi\n        /* \"#utility.yul\":2384:2463   */\n      tag_84\n      tag_76\n      jump\t// in\n    tag_84:\n        /* \"#utility.yul\":2348:2465   */\n    tag_83:\n        /* \"#utility.yul\":2489:2552   */\n      tag_85\n        /* \"#utility.yul\":2544:2551   */\n      dup8\n        /* \"#utility.yul\":2535:2541   */\n      dup3\n        /* \"#utility.yul\":2524:2533   */\n      dup9\n        /* \"#utility.yul\":2520:2542   */\n      add\n        /* \"#utility.yul\":2489:2552   */\n      tag_59\n      jump\t// in\n    tag_85:\n        /* \"#utility.yul\":2479:2552   */\n      swap4\n      pop\n        /* \"#utility.yul\":2274:2562   */\n      pop\n        /* \"#utility.yul\":2601:2603   */\n      0x40\n        /* \"#utility.yul\":2627:2680   */\n      tag_86\n        /* \"#utility.yul\":2672:2679   */\n      dup8\n        /* \"#utility.yul\":2663:2669   */\n      dup3\n        /* \"#utility.yul\":2652:2661   */\n      dup9\n        /* \"#utility.yul\":2648:2670   */\n      add\n        /* \"#utility.yul\":2627:2680   */\n      tag_65\n      jump\t// in\n    tag_86:\n        /* \"#utility.yul\":2617:2680   */\n      swap3\n      pop\n        /* \"#utility.yul\":2572:2690   */\n      pop\n        /* \"#utility.yul\":2729:2731   */\n      0x60\n        /* \"#utility.yul\":2755:2808   */\n      tag_87\n        /* \"#utility.yul\":2800:2807   */\n      dup8\n        /* \"#utility.yul\":2791:2797   */\n      dup3\n        /* \"#utility.yul\":2780:2789   */\n      dup9\n        /* \"#utility.yul\":2776:2798   */\n      add\n        /* \"#utility.yul\":2755:2808   */\n      tag_65\n      jump\t// in\n    tag_87:\n        /* \"#utility.yul\":2745:2808   */\n      swap2\n      pop\n        /* \"#utility.yul\":2700:2818   */\n      pop\n        /* \"#utility.yul\":1880:2825   */\n      swap3\n      swap6\n      swap2\n      swap5\n      pop\n      swap3\n      pop\n      jump\t// out\n        /* \"#utility.yul\":2831:3197   */\n    tag_88:\n        /* \"#utility.yul\":2973:2976   */\n      0x00\n        /* \"#utility.yul\":2994:3061   */\n      tag_90\n        /* \"#utility.yul\":3058:3060   */\n      0x1d\n        /* \"#utility.yul\":3053:3056   */\n      dup4\n        /* \"#utility.yul\":2994:3061   */\n      tag_91\n      jump\t// in\n    tag_90:\n        /* \"#utility.yul\":2987:3061   */\n      swap2\n      pop\n        /* \"#utility.yul\":3070:3163   */\n      tag_92\n        /* \"#utility.yul\":3159:3162   */\n      dup3\n        /* \"#utility.yul\":3070:3163   */\n      tag_93\n      jump\t// in\n    tag_92:\n        /* \"#utility.yul\":3188:3190   */\n      0x20\n        /* \"#utility.yul\":3183:3186   */\n      dup3\n        /* \"#utility.yul\":3179:3191   */\n      add\n        /* \"#utility.yul\":3172:3191   */\n      swap1\n      pop\n        /* \"#utility.yul\":2831:3197   */\n      swap2\n      swap1\n      pop\n      jump\t// out\n        /* \"#utility.yul\":3203:3569   */\n    tag_94:\n        /* \"#utility.yul\":3345:3348   */\n      0x00\n        /* \"#utility.yul\":3366:3433   */\n      tag_96\n        /* \"#utility.yul\":3430:3432   */\n      0x19\n        /* \"#utility.yul\":3425:3428   */\n      dup4\n        /* \"#utility.yul\":3366:3433   */\n      tag_91\n      jump\t// in\n    tag_96:\n        /* \"#utility.yul\":3359:3433   */\n      swap2\n      pop\n        /* \"#utility.yul\":3442:3535   */\n      tag_97\n        /* \"#utility.yul\":3531:3534   */\n      dup3\n        /* \"#utility.yul\":3442:3535   */\n      tag_98\n      jump\t// in\n    tag_97:\n        /* \"#utility.yul\":3560:3562   */\n      0x20\n        /* \"#utility.yul\":3555:3558   */\n      dup3\n        /* \"#utility.yul\":3551:3563   */\n      add\n        /* \"#utility.yul\":3544:3563   */\n      swap1\n      pop\n        /* \"#utility.yul\":3203:3569   */\n      swap2\n      swap1\n      pop\n      jump\t// out\n        /* \"#utility.yul\":3575:3994   */\n    tag_29:\n        /* \"#utility.yul\":3741:3745   */\n      0x00\n        /* \"#utility.yul\":3779:3781   */\n      0x20\n        /* \"#utility.yul\":3768:3777   */\n      dup3\n        /* \"#utility.yul\":3764:3782   */\n      add\n        /* \"#utility.yul\":3756:3782   */\n      swap1\n      pop\n        /* \"#utility.yul\":3828:3837   */\n      dup2\n        /* \"#utility.yul\":3822:3826   */\n      dup2\n        /* \"#utility.yul\":3818:3838   */\n      sub\n        /* \"#utility.yul\":3814:3815   */\n      0x00\n        /* \"#utility.yul\":3803:3812   */\n      dup4\n        /* \"#utility.yul\":3799:3816   */\n      add\n        /* \"#utility.yul\":3792:3839   */\n      mstore\n        /* \"#utility.yul\":3856:3987   */\n      tag_100\n        /* \"#utility.yul\":3982:3986   */\n      dup2\n        /* \"#utility.yul\":3856:3987   */\n      tag_88\n      jump\t// in\n    tag_100:\n        /* \"#utility.yul\":3848:3987   */\n      swap1\n      pop\n        /* \"#utility.yul\":3575:3994   */\n      swap2\n      swap1\n      pop\n      jump\t// out\n        /* \"#utility.yul\":4000:4419   */\n    tag_22:\n        /* \"#utility.yul\":4166:4170   */\n      0x00\n        /* \"#utility.yul\":4204:4206   */\n      0x20\n        /* \"#utility.yul\":4193:4202   */\n      dup3\n        /* \"#utility.yul\":4189:4207   */\n      add\n        /* \"#utility.yul\":4181:4207   */\n      swap1\n      pop\n        /* \"#utility.yul\":4253:4262   */\n      dup2\n        /* \"#utility.yul\":4247:4251   */\n      dup2\n        /* \"#utility.yul\":4243:4263   */\n      sub\n        /* \"#utility.yul\":4239:4240   */\n      0x00\n        /* \"#utility.yul\":4228:4237   */\n      dup4\n        /* \"#utility.yul\":4224:4241   */\n      add\n        /* \"#utility.yul\":4217:4264   */\n      mstore\n        /* \"#utility.yul\":4281:4412   */\n      tag_102\n        /* \"#utility.yul\":4407:4411   */\n      dup2\n        /* \"#utility.yul\":4281:4412   */\n      tag_94\n      jump\t// in\n    tag_102:\n        /* \"#utility.yul\":4273:4412   */\n      swap1\n      pop\n        /* \"#utility.yul\":4000:4419   */\n      swap2\n      swap1\n      pop\n      jump\t// out\n        /* \"#utility.yul\":4425:4554   */\n    tag_49:\n        /* \"#utility.yul\":4459:4465   */\n      0x00\n        /* \"#utility.yul\":4486:4506   */\n      tag_104\n      tag_105\n      jump\t// in\n    tag_104:\n        /* \"#utility.yul\":4476:4506   */\n      swap1\n      pop\n        /* \"#utility.yul\":4515:4548   */\n      tag_106\n        /* \"#utility.yul\":4543:4547   */\n      dup3\n        /* \"#utility.yul\":4535:4541   */\n      dup3\n        /* \"#utility.yul\":4515:4548   */\n      tag_107\n      jump\t// in\n    tag_106:\n        /* \"#utility.yul\":4425:4554   */\n      swap2\n      swap1\n      pop\n      jump\t// out\n        /* \"#utility.yul\":4560:4635   */\n    tag_105:\n        /* \"#utility.yul\":4593:4599   */\n      0x00\n        /* \"#utility.yul\":4626:4628   */\n      0x40\n        /* \"#utility.yul\":4620:4629   */\n      mload\n        /* \"#utility.yul\":4610:4629   */\n      swap1\n      pop\n        /* \"#utility.yul\":4560:4635   */\n      swap1\n      jump\t// out\n        /* \"#utility.yul\":4641:4949   */\n    tag_48:\n        /* \"#utility.yul\":4703:4707   */\n      0x00\n        /* \"#utility.yul\":4793:4811   */\n      0xffffffffffffffff\n        /* \"#utility.yul\":4785:4791   */\n      dup3\n        /* \"#utility.yul\":4782:4812   */\n      gt\n        /* \"#utility.yul\":4779:4835   */\n      iszero\n      tag_110\n      jumpi\n        /* \"#utility.yul\":4815:4833   */\n      tag_111\n      tag_112\n      jump\t// in\n    tag_111:\n        /* \"#utility.yul\":4779:4835   */\n    tag_110:\n        /* \"#utility.yul\":4853:4882   */\n      tag_113\n        /* \"#utility.yul\":4875:4881   */\n      dup3\n        /* \"#utility.yul\":4853:4882   */\n      tag_114\n      jump\t// in\n    tag_113:\n        /* \"#utility.yul\":4845:4882   */\n      swap1\n      pop\n        /* \"#utility.yul\":4937:4941   */\n      0x20\n        /* \"#utility.yul\":4931:4935   */\n      dup2\n        /* \"#utility.yul\":4927:4942   */\n      add\n        /* \"#utility.yul\":4919:4942   */\n      swap1\n      pop\n        /* \"#utility.yul\":4641:4949   */\n      swap2\n      swap1\n      pop\n      jump\t// out\n        /* \"#utility.yul\":4955:5124   */\n    tag_91:\n        /* \"#utility.yul\":5039:5050   */\n      0x00\n        /* \"#utility.yul\":5073:5079   */\n      dup3\n        /* \"#utility.yul\":5068:5071   */\n      dup3\n        /* \"#utility.yul\":5061:5080   */\n      mstore\n        /* \"#utility.yul\":5113:5117   */\n      0x20\n        /* \"#utility.yul\":5108:5111   */\n      dup3\n        /* \"#utility.yul\":5104:5118   */\n      add\n        /* \"#utility.yul\":5089:5118   */\n      swap1\n      pop\n        /* \"#utility.yul\":4955:5124   */\n      swap3\n      swap2\n      pop\n      pop\n      jump\t// out\n        /* \"#utility.yul\":5130:5226   */\n    tag_116:\n        /* \"#utility.yul\":5167:5174   */\n      0x00\n        /* \"#utility.yul\":5196:5220   */\n      tag_118\n        /* \"#utility.yul\":5214:5219   */\n      dup3\n        /* \"#utility.yul\":5196:5220   */\n      tag_119\n      jump\t// in\n    tag_118:\n        /* \"#utility.yul\":5185:5220   */\n      swap1\n      pop\n        /* \"#utility.yul\":5130:5226   */\n      swap2\n      swap1\n      pop\n      jump\t// out\n        /* \"#utility.yul\":5232:5358   */\n    tag_119:\n        /* \"#utility.yul\":5269:5276   */\n      0x00\n        /* \"#utility.yul\":5309:5351   */\n      0xffffffffffffffffffffffffffffffffffffffff\n        /* \"#utility.yul\":5302:5307   */\n      dup3\n        /* \"#utility.yul\":5298:5352   */\n      and\n        /* \"#utility.yul\":5287:5352   */\n      swap1\n      pop\n        /* \"#utility.yul\":5232:5358   */\n      swap2\n      swap1\n      pop\n      jump\t// out\n        /* \"#utility.yul\":5364:5441   */\n    tag_121:\n        /* \"#utility.yul\":5401:5408   */\n      0x00\n        /* \"#utility.yul\":5430:5435   */\n      dup2\n        /* \"#utility.yul\":5419:5435   */\n      swap1\n      pop\n        /* \"#utility.yul\":5364:5441   */\n      swap2\n      swap1\n      pop\n      jump\t// out\n        /* \"#utility.yul\":5447:5601   */\n    tag_54:\n        /* \"#utility.yul\":5531:5537   */\n      dup3\n        /* \"#utility.yul\":5526:5529   */\n      dup2\n        /* \"#utility.yul\":5521:5524   */\n      dup4\n        /* \"#utility.yul\":5508:5538   */\n      calldatacopy\n        /* \"#utility.yul\":5593:5594   */\n      0x00\n        /* \"#utility.yul\":5584:5590   */\n      dup4\n        /* \"#utility.yul\":5579:5582   */\n      dup4\n        /* \"#utility.yul\":5575:5591   */\n      add\n        /* \"#utility.yul\":5568:5595   */\n      mstore\n        /* \"#utility.yul\":5447:5601   */\n      pop\n      pop\n      pop\n      jump\t// out\n        /* \"#utility.yul\":5607:5927   */\n    tag_33:\n        /* \"#utility.yul\":5651:5657   */\n      0x00\n        /* \"#utility.yul\":5688:5689   */\n      0x02\n        /* \"#utility.yul\":5682:5686   */\n      dup3\n        /* \"#utility.yul\":5678:5690   */\n      div\n        /* \"#utility.yul\":5668:5690   */\n      swap1\n      pop\n        /* \"#utility.yul\":5735:5736   */\n      0x01\n        /* \"#utility.yul\":5729:5733   */\n      dup3\n        /* \"#utility.yul\":5725:5737   */\n      and\n        /* \"#utility.yul\":5756:5774   */\n      dup1\n        /* \"#utility.yul\":5746:5827   */\n      tag_125\n      jumpi\n        /* \"#utility.yul\":5812:5816   */\n      0x7f\n        /* \"#utility.yul\":5804:5810   */\n      dup3\n        /* \"#utility.yul\":5800:5817   */\n      and\n        /* \"#utility.yul\":5790:5817   */\n      swap2\n      pop\n        /* \"#utility.yul\":5746:5827   */\n    tag_125:\n        /* \"#utility.yul\":5874:5876   */\n      0x20\n        /* \"#utility.yul\":5866:5872   */\n      dup3\n        /* \"#utility.yul\":5863:5877   */\n      lt\n        /* \"#utility.yul\":5843:5861   */\n      dup2\n        /* \"#utility.yul\":5840:5878   */\n      eq\n        /* \"#utility.yul\":5837:5921   */\n      iszero\n      tag_126\n      jumpi\n        /* \"#utility.yul\":5893:5911   */\n      tag_127\n      tag_128\n      jump\t// in\n    tag_127:\n        /* \"#utility.yul\":5837:5921   */\n    tag_126:\n        /* \"#utility.yul\":5658:5927   */\n      pop\n        /* \"#utility.yul\":5607:5927   */\n      swap2\n      swap1\n      pop\n      jump\t// out\n        /* \"#utility.yul\":5933:6214   */\n    tag_107:\n        /* \"#utility.yul\":6016:6043   */\n      tag_130\n        /* \"#utility.yul\":6038:6042   */\n      dup3\n        /* \"#utility.yul\":6016:6043   */\n      tag_114\n      jump\t// in\n    tag_130:\n        /* \"#utility.yul\":6008:6014   */\n      dup2\n        /* \"#utility.yul\":6004:6044   */\n      add\n        /* \"#utility.yul\":6146:6152   */\n      dup2\n        /* \"#utility.yul\":6134:6144   */\n      dup2\n        /* \"#utility.yul\":6131:6153   */\n      lt\n        /* \"#utility.yul\":6110:6128   */\n      0xffffffffffffffff\n        /* \"#utility.yul\":6098:6108   */\n      dup3\n        /* \"#utility.yul\":6095:6129   */\n      gt\n        /* \"#utility.yul\":6092:6154   */\n      or\n        /* \"#utility.yul\":6089:6177   */\n      iszero\n      tag_131\n      jumpi\n        /* \"#utility.yul\":6157:6175   */\n      tag_132\n      tag_112\n      jump\t// in\n    tag_132:\n        /* \"#utility.yul\":6089:6177   */\n    tag_131:\n        /* \"#utility.yul\":6197:6207   */\n      dup1\n        /* \"#utility.yul\":6193:6195   */\n      0x40\n        /* \"#utility.yul\":6186:6208   */\n      mstore\n        /* \"#utility.yul\":5976:6214   */\n      pop\n        /* \"#utility.yul\":5933:6214   */\n      pop\n      pop\n      jump\t// out\n        /* \"#utility.yul\":6220:6400   */\n    tag_128:\n        /* \"#utility.yul\":6268:6345   */\n      0x4e487b7100000000000000000000000000000000000000000000000000000000\n        /* \"#utility.yul\":6265:6266   */\n      0x00\n        /* \"#utility.yul\":6258:6346   */\n      mstore\n        /* \"#utility.yul\":6365:6369   */\n      0x22\n        /* \"#utility.yul\":6362:6363   */\n      0x04\n        /* \"#utility.yul\":6355:6370   */\n      mstore\n        /* \"#utility.yul\":6389:6393   */\n      0x24\n        /* \"#utility.yul\":6386:6387   */\n      0x00\n        /* \"#utility.yul\":6379:6394   */\n      revert\n        /* \"#utility.yul\":6406:6586   */\n    tag_112:\n        /* \"#utility.yul\":6454:6531   */\n      0x4e487b7100000000000000000000000000000000000000000000000000000000\n        /* \"#utility.yul\":6451:6452   */\n      0x00\n        /* \"#utility.yul\":6444:6532   */\n      mstore\n        /* \"#utility.yul\":6551:6555   */\n      0x41\n        /* \"#utility.yul\":6548:6549   */\n      0x04\n        /* \"#utility.yul\":6541:6556   */\n      mstore\n        /* \"#utility.yul\":6575:6579   */\n      0x24\n        /* \"#utility.yul\":6572:6573   */\n      0x00\n        /* \"#utility.yul\":6565:6580   */\n      revert\n        /* \"#utility.yul\":6592:6709   */\n    tag_63:\n        /* \"#utility.yul\":6701:6702   */\n      0x00\n        /* \"#utility.yul\":6698:6699   */\n      dup1\n        /* \"#utility.yul\":6691:6703   */\n      revert\n        /* \"#utility.yul\":6715:6832   */\n    tag_52:\n        /* \"#utility.yul\":6824:6825   */\n      0x00\n        /* \"#utility.yul\":6821:6822   */\n      dup1\n        /* \"#utility.yul\":6814:6826   */\n      revert\n        /* \"#utility.yul\":6838:6955   */\n    tag_76:\n        /* \"#utility.yul\":6947:6948   */\n      0x00\n        /* \"#utility.yul\":6944:6945   */\n      dup1\n        /* \"#utility.yul\":6937:6949   */\n      revert\n        /* \"#utility.yul\":6961:7078   */\n    tag_72:\n        /* \"#utility.yul\":7070:7071   */\n      0x00\n        /* \"#utility.yul\":7067:7068   */\n      dup1\n        /* \"#utility.yul\":7060:7072   */\n      revert\n        /* \"#utility.yul\":7084:7186   */\n    tag_114:\n        /* \"#utility.yul\":7125:7131   */\n      0x00\n        /* \"#utility.yul\":7176:7178   */\n      0x1f\n        /* \"#utility.yul\":7172:7179   */\n      not\n        /* \"#utility.yul\":7167:7169   */\n      0x1f\n        /* \"#utility.yul\":7160:7165   */\n      dup4\n        /* \"#utility.yul\":7156:7170   */\n      add\n        /* \"#utility.yul\":7152:7180   */\n      and\n        /* \"#utility.yul\":7142:7180   */\n      swap1\n      pop\n        /* \"#utility.yul\":7084:7186   */\n      swap2\n      swap1\n      pop\n      jump\t// out\n        /* \"#utility.yul\":7192:7371   */\n    tag_93:\n        /* \"#utility.yul\":7332:7363   */\n      0x496e73756666696369656e742066756e6420666f722072656465656d2e000000\n        /* \"#utility.yul\":7328:7329   */\n      0x00\n        /* \"#utility.yul\":7320:7326   */\n      dup3\n        /* \"#utility.yul\":7316:7330   */\n      add\n        /* \"#utility.yul\":7309:7364   */\n      mstore\n        /* \"#utility.yul\":7192:7371   */\n      pop\n      jump\t// out\n        /* \"#utility.yul\":7377:7552   */\n    tag_98:\n        /* \"#utility.yul\":7517:7544   */\n      0x596f7520617265206e6f742070617263656c206f776e65722e00000000000000\n        /* \"#utility.yul\":7513:7514   */\n      0x00\n        /* \"#utility.yul\":7505:7511   */\n      dup3\n        /* \"#utility.yul\":7501:7515   */\n      add\n        /* \"#utility.yul\":7494:7545   */\n      mstore\n        /* \"#utility.yul\":7377:7552   */\n      pop\n      jump\t// out\n        /* \"#utility.yul\":7558:7680   */\n    tag_58:\n        /* \"#utility.yul\":7631:7655   */\n      tag_143\n        /* \"#utility.yul\":7649:7654   */\n      dup2\n        /* \"#utility.yul\":7631:7655   */\n      tag_116\n      jump\t// in\n    tag_143:\n        /* \"#utility.yul\":7624:7629   */\n      dup2\n        /* \"#utility.yul\":7621:7656   */\n      eq\n        /* \"#utility.yul\":7611:7674   */\n      tag_144\n      jumpi\n        /* \"#utility.yul\":7670:7671   */\n      0x00\n        /* \"#utility.yul\":7667:7668   */\n      dup1\n        /* \"#utility.yul\":7660:7672   */\n      revert\n        /* \"#utility.yul\":7611:7674   */\n    tag_144:\n        /* \"#utility.yul\":7558:7680   */\n      pop\n      jump\t// out\n        /* \"#utility.yul\":7686:7808   */\n    tag_68:\n        /* \"#utility.yul\":7759:7783   */\n      tag_146\n        /* \"#utility.yul\":7777:7782   */\n      dup2\n        /* \"#utility.yul\":7759:7783   */\n      tag_121\n      jump\t// in\n    tag_146:\n        /* \"#utility.yul\":7752:7757   */\n      dup2\n        /* \"#utility.yul\":7749:7784   */\n      eq\n        /* \"#utility.yul\":7739:7802   */\n      tag_147\n      jumpi\n        /* \"#utility.yul\":7798:7799   */\n      0x00\n        /* \"#utility.yul\":7795:7796   */\n      dup1\n        /* \"#utility.yul\":7788:7800   */\n      revert\n        /* \"#utility.yul\":7739:7802   */\n    tag_147:\n        /* \"#utility.yul\":7686:7808   */\n      pop\n      jump\t// out\n\n    auxdata: 0xa2646970667358221220519a8a6cb3aa368256351723ba8e093b22a6bb163ccb0c727d7bc2b1a849703f64736f6c63430008070033\n}\n",
				"bytecode": {
					"linkReferences": {},
					"object": "608060405234801561001057600080fd5b50336000806101000a81548173ffffffffffffffffffffffffffffffffffffffff021916908373ffffffffffffffffffffffffffffffffffffffff160217905550610ae1806100606000396000f3fe6080604052600436106100345760003560e01c80634854e056146100395780635b1dedc214610055578063868571ef14610071575b600080fd5b610053600480360381019061004e919061078a565b61008d565b005b61006f600480360381019061006a919061071b565b610243565b005b61008b6004803603810190610086919061071b565b61042e565b005b83600560008060009054906101000a900473ffffffffffffffffffffffffffffffffffffffff1673ffffffffffffffffffffffffffffffffffffffff1673ffffffffffffffffffffffffffffffffffffffff1681526020019081526020016000206000018190555082600560008060009054906101000a900473ffffffffffffffffffffffffffffffffffffffff1673ffffffffffffffffffffffffffffffffffffffff1673ffffffffffffffffffffffffffffffffffffffff168152602001908152602001600020600101908051906020019061016c9291906105de565b5081600560008060009054906101000a900473ffffffffffffffffffffffffffffffffffffffff1673ffffffffffffffffffffffffffffffffffffffff1673ffffffffffffffffffffffffffffffffffffffff1681526020019081526020016000206002018190555080600560008060009054906101000a900473ffffffffffffffffffffffffffffffffffffffff1673ffffffffffffffffffffffffffffffffffffffff1673ffffffffffffffffffffffffffffffffffffffff1681526020019081526020016000206003018190555050505050565b60008054906101000a900473ffffffffffffffffffffffffffffffffffffffff1673ffffffffffffffffffffffffffffffffffffffff163373ffffffffffffffffffffffffffffffffffffffff16146102d1576040517f08c379a00000000000000000000000000000000000000000000000000000000081526004016102c890610873565b60405180910390fd5b81600560008060009054906101000a900473ffffffffffffffffffffffffffffffffffffffff1673ffffffffffffffffffffffffffffffffffffffff1673ffffffffffffffffffffffffffffffffffffffff16815260200190815260200160002060010190805190602001906103489291906105de565b5081600660008060009054906101000a900473ffffffffffffffffffffffffffffffffffffffff1673ffffffffffffffffffffffffffffffffffffffff1673ffffffffffffffffffffffffffffffffffffffff16815260200190815260200160002060000190805190602001906103c09291906105de565b5080600660008060009054906101000a900473ffffffffffffffffffffffffffffffffffffffff1673ffffffffffffffffffffffffffffffffffffffff1673ffffffffffffffffffffffffffffffffffffffff16815260200190815260200160002060010181905550505050565b80600660008060009054906101000a900473ffffffffffffffffffffffffffffffffffffffff1673ffffffffffffffffffffffffffffffffffffffff1673ffffffffffffffffffffffffffffffffffffffff1681526020019081526020016000206001015410156104d4576040517f08c379a00000000000000000000000000000000000000000000000000000000081526004016104cb90610853565b60405180910390fd5b81600560008573ffffffffffffffffffffffffffffffffffffffff1673ffffffffffffffffffffffffffffffffffffffff168152602001908152602001600020600101908051906020019061052a9291906105de565b5060405180602001604052806000815250600660008573ffffffffffffffffffffffffffffffffffffffff1673ffffffffffffffffffffffffffffffffffffffff16815260200190815260200160002060000190805190602001906105909291906105de565b506000600660008573ffffffffffffffffffffffffffffffffffffffff1673ffffffffffffffffffffffffffffffffffffffff16815260200190815260200160002060010181905550505050565b8280546105ea90610945565b90600052602060002090601f01602090048101928261060c5760008555610653565b82601f1061062557805160ff1916838001178555610653565b82800160010185558215610653579182015b82811115610652578251825591602001919060010190610637565b5b5090506106609190610664565b5090565b5b8082111561067d576000816000905550600101610665565b5090565b600061069461068f846108b8565b610893565b9050828152602081018484840111156106b0576106af610a0b565b5b6106bb848285610936565b509392505050565b6000813590506106d281610a7d565b92915050565b600082601f8301126106ed576106ec610a06565b5b81356106fd848260208601610681565b91505092915050565b60008135905061071581610a94565b92915050565b60008060006060848603121561073457610733610a15565b5b6000610742868287016106c3565b935050602084013567ffffffffffffffff81111561076357610762610a10565b5b61076f868287016106d8565b925050604061078086828701610706565b9150509250925092565b600080600080608085870312156107a4576107a3610a15565b5b60006107b287828801610706565b945050602085013567ffffffffffffffff8111156107d3576107d2610a10565b5b6107df878288016106d8565b93505060406107f087828801610706565b925050606061080187828801610706565b91505092959194509250565b600061081a601d836108e9565b915061082582610a2b565b602082019050919050565b600061083d6019836108e9565b915061084882610a54565b602082019050919050565b6000602082019050818103600083015261086c8161080d565b9050919050565b6000602082019050818103600083015261088c81610830565b9050919050565b600061089d6108ae565b90506108a98282610977565b919050565b6000604051905090565b600067ffffffffffffffff8211156108d3576108d26109d7565b5b6108dc82610a1a565b9050602081019050919050565b600082825260208201905092915050565b60006109058261090c565b9050919050565b600073ffffffffffffffffffffffffffffffffffffffff82169050919050565b6000819050919050565b82818337600083830152505050565b6000600282049050600182168061095d57607f821691505b60208210811415610971576109706109a8565b5b50919050565b61098082610a1a565b810181811067ffffffffffffffff8211171561099f5761099e6109d7565b5b80604052505050565b7f4e487b7100000000000000000000000000000000000000000000000000000000600052602260045260246000fd5b7f4e487b7100000000000000000000000000000000000000000000000000000000600052604160045260246000fd5b600080fd5b600080fd5b600080fd5b600080fd5b6000601f19601f8301169050919050565b7f496e73756666696369656e742066756e6420666f722072656465656d2e000000600082015250565b7f596f7520617265206e6f742070617263656c206f776e65722e00000000000000600082015250565b610a86816108fa565b8114610a9157600080fd5b50565b610a9d8161092c565b8114610aa857600080fd5b5056fea2646970667358221220519a8a6cb3aa368256351723ba8e093b22a6bb163ccb0c727d7bc2b1a849703f64736f6c63430008070033",
					"opcodes": "PUSH1 0x80 PUSH1 0x40 MSTORE CALLVALUE DUP1 ISZERO PUSH2 0x10 JUMPI PUSH1 0x0 DUP1 REVERT JUMPDEST POP CALLER PUSH1 0x0 DUP1 PUSH2 0x100 EXP DUP2 SLOAD DUP2 PUSH20 0xFFFFFFFFFFFFFFFFFFFFFFFFFFFFFFFFFFFFFFFF MUL NOT AND SWAP1 DUP4 PUSH20 0xFFFFFFFFFFFFFFFFFFFFFFFFFFFFFFFFFFFFFFFF AND MUL OR SWAP1 SSTORE POP PUSH2 0xAE1 DUP1 PUSH2 0x60 PUSH1 0x0 CODECOPY PUSH1 0x0 RETURN INVALID PUSH1 0x80 PUSH1 0x40 MSTORE PUSH1 0x4 CALLDATASIZE LT PUSH2 0x34 JUMPI PUSH1 0x0 CALLDATALOAD PUSH1 0xE0 SHR DUP1 PUSH4 0x4854E056 EQ PUSH2 0x39 JUMPI DUP1 PUSH4 0x5B1DEDC2 EQ PUSH2 0x55 JUMPI DUP1 PUSH4 0x868571EF EQ PUSH2 0x71 JUMPI JUMPDEST PUSH1 0x0 DUP1 REVERT JUMPDEST PUSH2 0x53 PUSH1 0x4 DUP1 CALLDATASIZE SUB DUP2 ADD SWAP1 PUSH2 0x4E SWAP2 SWAP1 PUSH2 0x78A JUMP JUMPDEST PUSH2 0x8D JUMP JUMPDEST STOP JUMPDEST PUSH2 0x6F PUSH1 0x4 DUP1 CALLDATASIZE SUB DUP2 ADD SWAP1 PUSH2 0x6A SWAP2 SWAP1 PUSH2 0x71B JUMP JUMPDEST PUSH2 0x243 JUMP JUMPDEST STOP JUMPDEST PUSH2 0x8B PUSH1 0x4 DUP1 CALLDATASIZE SUB DUP2 ADD SWAP1 PUSH2 0x86 SWAP2 SWAP1 PUSH2 0x71B JUMP JUMPDEST PUSH2 0x42E JUMP JUMPDEST STOP JUMPDEST DUP4 PUSH1 0x5 PUSH1 0x0 DUP1 PUSH1 0x0 SWAP1 SLOAD SWAP1 PUSH2 0x100 EXP SWAP1 DIV PUSH20 0xFFFFFFFFFFFFFFFFFFFFFFFFFFFFFFFFFFFFFFFF AND PUSH20 0xFFFFFFFFFFFFFFFFFFFFFFFFFFFFFFFFFFFFFFFF AND PUSH20 0xFFFFFFFFFFFFFFFFFFFFFFFFFFFFFFFFFFFFFFFF AND DUP2 MSTORE PUSH1 0x20 ADD SWAP1 DUP2 MSTORE PUSH1 0x20 ADD PUSH1 0x0 KECCAK256 PUSH1 0x0 ADD DUP2 SWAP1 SSTORE POP DUP3 PUSH1 0x5 PUSH1 0x0 DUP1 PUSH1 0x0 SWAP1 SLOAD SWAP1 PUSH2 0x100 EXP SWAP1 DIV PUSH20 0xFFFFFFFFFFFFFFFFFFFFFFFFFFFFFFFFFFFFFFFF AND PUSH20 0xFFFFFFFFFFFFFFFFFFFFFFFFFFFFFFFFFFFFFFFF AND PUSH20 0xFFFFFFFFFFFFFFFFFFFFFFFFFFFFFFFFFFFFFFFF AND DUP2 MSTORE PUSH1 0x20 ADD SWAP1 DUP2 MSTORE PUSH1 0x20 ADD PUSH1 0x0 KECCAK256 PUSH1 0x1 ADD SWAP1 DUP1 MLOAD SWAP1 PUSH1 0x20 ADD SWAP1 PUSH2 0x16C SWAP3 SWAP2 SWAP1 PUSH2 0x5DE JUMP JUMPDEST POP DUP2 PUSH1 0x5 PUSH1 0x0 DUP1 PUSH1 0x0 SWAP1 SLOAD SWAP1 PUSH2 0x100 EXP SWAP1 DIV PUSH20 0xFFFFFFFFFFFFFFFFFFFFFFFFFFFFFFFFFFFFFFFF AND PUSH20 0xFFFFFFFFFFFFFFFFFFFFFFFFFFFFFFFFFFFFFFFF AND PUSH20 0xFFFFFFFFFFFFFFFFFFFFFFFFFFFFFFFFFFFFFFFF AND DUP2 MSTORE PUSH1 0x20 ADD SWAP1 DUP2 MSTORE PUSH1 0x20 ADD PUSH1 0x0 KECCAK256 PUSH1 0x2 ADD DUP2 SWAP1 SSTORE POP DUP1 PUSH1 0x5 PUSH1 0x0 DUP1 PUSH1 0x0 SWAP1 SLOAD SWAP1 PUSH2 0x100 EXP SWAP1 DIV PUSH20 0xFFFFFFFFFFFFFFFFFFFFFFFFFFFFFFFFFFFFFFFF AND PUSH20 0xFFFFFFFFFFFFFFFFFFFFFFFFFFFFFFFFFFFFFFFF AND PUSH20 0xFFFFFFFFFFFFFFFFFFFFFFFFFFFFFFFFFFFFFFFF AND DUP2 MSTORE PUSH1 0x20 ADD SWAP1 DUP2 MSTORE PUSH1 0x20 ADD PUSH1 0x0 KECCAK256 PUSH1 0x3 ADD DUP2 SWAP1 SSTORE POP POP POP POP POP JUMP JUMPDEST PUSH1 0x0 DUP1 SLOAD SWAP1 PUSH2 0x100 EXP SWAP1 DIV PUSH20 0xFFFFFFFFFFFFFFFFFFFFFFFFFFFFFFFFFFFFFFFF AND PUSH20 0xFFFFFFFFFFFFFFFFFFFFFFFFFFFFFFFFFFFFFFFF AND CALLER PUSH20 0xFFFFFFFFFFFFFFFFFFFFFFFFFFFFFFFFFFFFFFFF AND EQ PUSH2 0x2D1 JUMPI PUSH1 0x40 MLOAD PUSH32 0x8C379A000000000000000000000000000000000000000000000000000000000 DUP2 MSTORE PUSH1 0x4 ADD PUSH2 0x2C8 SWAP1 PUSH2 0x873 JUMP JUMPDEST PUSH1 0x40 MLOAD DUP1 SWAP2 SUB SWAP1 REVERT JUMPDEST DUP2 PUSH1 0x5 PUSH1 0x0 DUP1 PUSH1 0x0 SWAP1 SLOAD SWAP1 PUSH2 0x100 EXP SWAP1 DIV PUSH20 0xFFFFFFFFFFFFFFFFFFFFFFFFFFFFFFFFFFFFFFFF AND PUSH20 0xFFFFFFFFFFFFFFFFFFFFFFFFFFFFFFFFFFFFFFFF AND PUSH20 0xFFFFFFFFFFFFFFFFFFFFFFFFFFFFFFFFFFFFFFFF AND DUP2 MSTORE PUSH1 0x20 ADD SWAP1 DUP2 MSTORE PUSH1 0x20 ADD PUSH1 0x0 KECCAK256 PUSH1 0x1 ADD SWAP1 DUP1 MLOAD SWAP1 PUSH1 0x20 ADD SWAP1 PUSH2 0x348 SWAP3 SWAP2 SWAP1 PUSH2 0x5DE JUMP JUMPDEST POP DUP2 PUSH1 0x6 PUSH1 0x0 DUP1 PUSH1 0x0 SWAP1 SLOAD SWAP1 PUSH2 0x100 EXP SWAP1 DIV PUSH20 0xFFFFFFFFFFFFFFFFFFFFFFFFFFFFFFFFFFFFFFFF AND PUSH20 0xFFFFFFFFFFFFFFFFFFFFFFFFFFFFFFFFFFFFFFFF AND PUSH20 0xFFFFFFFFFFFFFFFFFFFFFFFFFFFFFFFFFFFFFFFF AND DUP2 MSTORE PUSH1 0x20 ADD SWAP1 DUP2 MSTORE PUSH1 0x20 ADD PUSH1 0x0 KECCAK256 PUSH1 0x0 ADD SWAP1 DUP1 MLOAD SWAP1 PUSH1 0x20 ADD SWAP1 PUSH2 0x3C0 SWAP3 SWAP2 SWAP1 PUSH2 0x5DE JUMP JUMPDEST POP DUP1 PUSH1 0x6 PUSH1 0x0 DUP1 PUSH1 0x0 SWAP1 SLOAD SWAP1 PUSH2 0x100 EXP SWAP1 DIV PUSH20 0xFFFFFFFFFFFFFFFFFFFFFFFFFFFFFFFFFFFFFFFF AND PUSH20 0xFFFFFFFFFFFFFFFFFFFFFFFFFFFFFFFFFFFFFFFF AND PUSH20 0xFFFFFFFFFFFFFFFFFFFFFFFFFFFFFFFFFFFFFFFF AND DUP2 MSTORE PUSH1 0x20 ADD SWAP1 DUP2 MSTORE PUSH1 0x20 ADD PUSH1 0x0 KECCAK256 PUSH1 0x1 ADD DUP2 SWAP1 SSTORE POP POP POP POP JUMP JUMPDEST DUP1 PUSH1 0x6 PUSH1 0x0 DUP1 PUSH1 0x0 SWAP1 SLOAD SWAP1 PUSH2 0x100 EXP SWAP1 DIV PUSH20 0xFFFFFFFFFFFFFFFFFFFFFFFFFFFFFFFFFFFFFFFF AND PUSH20 0xFFFFFFFFFFFFFFFFFFFFFFFFFFFFFFFFFFFFFFFF AND PUSH20 0xFFFFFFFFFFFFFFFFFFFFFFFFFFFFFFFFFFFFFFFF AND DUP2 MSTORE PUSH1 0x20 ADD SWAP1 DUP2 MSTORE PUSH1 0x20 ADD PUSH1 0x0 KECCAK256 PUSH1 0x1 ADD SLOAD LT ISZERO PUSH2 0x4D4 JUMPI PUSH1 0x40 MLOAD PUSH32 0x8C379A000000000000000000000000000000000000000000000000000000000 DUP2 MSTORE PUSH1 0x4 ADD PUSH2 0x4CB SWAP1 PUSH2 0x853 JUMP JUMPDEST PUSH1 0x40 MLOAD DUP1 SWAP2 SUB SWAP1 REVERT JUMPDEST DUP2 PUSH1 0x5 PUSH1 0x0 DUP6 PUSH20 0xFFFFFFFFFFFFFFFFFFFFFFFFFFFFFFFFFFFFFFFF AND PUSH20 0xFFFFFFFFFFFFFFFFFFFFFFFFFFFFFFFFFFFFFFFF AND DUP2 MSTORE PUSH1 0x20 ADD SWAP1 DUP2 MSTORE PUSH1 0x20 ADD PUSH1 0x0 KECCAK256 PUSH1 0x1 ADD SWAP1 DUP1 MLOAD SWAP1 PUSH1 0x20 ADD SWAP1 PUSH2 0x52A SWAP3 SWAP2 SWAP1 PUSH2 0x5DE JUMP JUMPDEST POP PUSH1 0x40 MLOAD DUP1 PUSH1 0x20 ADD PUSH1 0x40 MSTORE DUP1 PUSH1 0x0 DUP2 MSTORE POP PUSH1 0x6 PUSH1 0x0 DUP6 PUSH20 0xFFFFFFFFFFFFFFFFFFFFFFFFFFFFFFFFFFFFFFFF AND PUSH20 0xFFFFFFFFFFFFFFFFFFFFFFFFFFFFFFFFFFFFFFFF AND DUP2 MSTORE PUSH1 0x20 ADD SWAP1 DUP2 MSTORE PUSH1 0x20 ADD PUSH1 0x0 KECCAK256 PUSH1 0x0 ADD SWAP1 DUP1 MLOAD SWAP1 PUSH1 0x20 ADD SWAP1 PUSH2 0x590 SWAP3 SWAP2 SWAP1 PUSH2 0x5DE JUMP JUMPDEST POP PUSH1 0x0 PUSH1 0x6 PUSH1 0x0 DUP6 PUSH20 0xFFFFFFFFFFFFFFFFFFFFFFFFFFFFFFFFFFFFFFFF AND PUSH20 0xFFFFFFFFFFFFFFFFFFFFFFFFFFFFFFFFFFFFFFFF AND DUP2 MSTORE PUSH1 0x20 ADD SWAP1 DUP2 MSTORE PUSH1 0x20 ADD PUSH1 0x0 KECCAK256 PUSH1 0x1 ADD DUP2 SWAP1 SSTORE POP POP POP POP JUMP JUMPDEST DUP3 DUP1 SLOAD PUSH2 0x5EA SWAP1 PUSH2 0x945 JUMP JUMPDEST SWAP1 PUSH1 0x0 MSTORE PUSH1 0x20 PUSH1 0x0 KECCAK256 SWAP1 PUSH1 0x1F ADD PUSH1 0x20 SWAP1 DIV DUP2 ADD SWAP3 DUP3 PUSH2 0x60C JUMPI PUSH1 0x0 DUP6 SSTORE PUSH2 0x653 JUMP JUMPDEST DUP3 PUSH1 0x1F LT PUSH2 0x625 JUMPI DUP1 MLOAD PUSH1 0xFF NOT AND DUP4 DUP1 ADD OR DUP6 SSTORE PUSH2 0x653 JUMP JUMPDEST DUP3 DUP1 ADD PUSH1 0x1 ADD DUP6 SSTORE DUP3 ISZERO PUSH2 0x653 JUMPI SWAP2 DUP3 ADD JUMPDEST DUP3 DUP2 GT ISZERO PUSH2 0x652 JUMPI DUP3 MLOAD DUP3 SSTORE SWAP2 PUSH1 0x20 ADD SWAP2 SWAP1 PUSH1 0x1 ADD SWAP1 PUSH2 0x637 JUMP JUMPDEST JUMPDEST POP SWAP1 POP PUSH2 0x660 SWAP2 SWAP1 PUSH2 0x664 JUMP JUMPDEST POP SWAP1 JUMP JUMPDEST JUMPDEST DUP1 DUP3 GT ISZERO PUSH2 0x67D JUMPI PUSH1 0x0 DUP2 PUSH1 0x0 SWAP1 SSTORE POP PUSH1 0x1 ADD PUSH2 0x665 JUMP JUMPDEST POP SWAP1 JUMP JUMPDEST PUSH1 0x0 PUSH2 0x694 PUSH2 0x68F DUP5 PUSH2 0x8B8 JUMP JUMPDEST PUSH2 0x893 JUMP JUMPDEST SWAP1 POP DUP3 DUP2 MSTORE PUSH1 0x20 DUP2 ADD DUP5 DUP5 DUP5 ADD GT ISZERO PUSH2 0x6B0 JUMPI PUSH2 0x6AF PUSH2 0xA0B JUMP JUMPDEST JUMPDEST PUSH2 0x6BB DUP5 DUP3 DUP6 PUSH2 0x936 JUMP JUMPDEST POP SWAP4 SWAP3 POP POP POP JUMP JUMPDEST PUSH1 0x0 DUP2 CALLDATALOAD SWAP1 POP PUSH2 0x6D2 DUP2 PUSH2 0xA7D JUMP JUMPDEST SWAP3 SWAP2 POP POP JUMP JUMPDEST PUSH1 0x0 DUP3 PUSH1 0x1F DUP4 ADD SLT PUSH2 0x6ED JUMPI PUSH2 0x6EC PUSH2 0xA06 JUMP JUMPDEST JUMPDEST DUP2 CALLDATALOAD PUSH2 0x6FD DUP5 DUP3 PUSH1 0x20 DUP7 ADD PUSH2 0x681 JUMP JUMPDEST SWAP2 POP POP SWAP3 SWAP2 POP POP JUMP JUMPDEST PUSH1 0x0 DUP2 CALLDATALOAD SWAP1 POP PUSH2 0x715 DUP2 PUSH2 0xA94 JUMP JUMPDEST SWAP3 SWAP2 POP POP JUMP JUMPDEST PUSH1 0x0 DUP1 PUSH1 0x0 PUSH1 0x60 DUP5 DUP7 SUB SLT ISZERO PUSH2 0x734 JUMPI PUSH2 0x733 PUSH2 0xA15 JUMP JUMPDEST JUMPDEST PUSH1 0x0 PUSH2 0x742 DUP7 DUP3 DUP8 ADD PUSH2 0x6C3 JUMP JUMPDEST SWAP4 POP POP PUSH1 0x20 DUP5 ADD CALLDATALOAD PUSH8 0xFFFFFFFFFFFFFFFF DUP2 GT ISZERO PUSH2 0x763 JUMPI PUSH2 0x762 PUSH2 0xA10 JUMP JUMPDEST JUMPDEST PUSH2 0x76F DUP7 DUP3 DUP8 ADD PUSH2 0x6D8 JUMP JUMPDEST SWAP3 POP POP PUSH1 0x40 PUSH2 0x780 DUP7 DUP3 DUP8 ADD PUSH2 0x706 JUMP JUMPDEST SWAP2 POP POP SWAP3 POP SWAP3 POP SWAP3 JUMP JUMPDEST PUSH1 0x0 DUP1 PUSH1 0x0 DUP1 PUSH1 0x80 DUP6 DUP8 SUB SLT ISZERO PUSH2 0x7A4 JUMPI PUSH2 0x7A3 PUSH2 0xA15 JUMP JUMPDEST JUMPDEST PUSH1 0x0 PUSH2 0x7B2 DUP8 DUP3 DUP9 ADD PUSH2 0x706 JUMP JUMPDEST SWAP5 POP POP PUSH1 0x20 DUP6 ADD CALLDATALOAD PUSH8 0xFFFFFFFFFFFFFFFF DUP2 GT ISZERO PUSH2 0x7D3 JUMPI PUSH2 0x7D2 PUSH2 0xA10 JUMP JUMPDEST JUMPDEST PUSH2 0x7DF DUP8 DUP3 DUP9 ADD PUSH2 0x6D8 JUMP JUMPDEST SWAP4 POP POP PUSH1 0x40 PUSH2 0x7F0 DUP8 DUP3 DUP9 ADD PUSH2 0x706 JUMP JUMPDEST SWAP3 POP POP PUSH1 0x60 PUSH2 0x801 DUP8 DUP3 DUP9 ADD PUSH2 0x706 JUMP JUMPDEST SWAP2 POP POP SWAP3 SWAP6 SWAP2 SWAP5 POP SWAP3 POP JUMP JUMPDEST PUSH1 0x0 PUSH2 0x81A PUSH1 0x1D DUP4 PUSH2 0x8E9 JUMP JUMPDEST SWAP2 POP PUSH2 0x825 DUP3 PUSH2 0xA2B JUMP JUMPDEST PUSH1 0x20 DUP3 ADD SWAP1 POP SWAP2 SWAP1 POP JUMP JUMPDEST PUSH1 0x0 PUSH2 0x83D PUSH1 0x19 DUP4 PUSH2 0x8E9 JUMP JUMPDEST SWAP2 POP PUSH2 0x848 DUP3 PUSH2 0xA54 JUMP JUMPDEST PUSH1 0x20 DUP3 ADD SWAP1 POP SWAP2 SWAP1 POP JUMP JUMPDEST PUSH1 0x0 PUSH1 0x20 DUP3 ADD SWAP1 POP DUP2 DUP2 SUB PUSH1 0x0 DUP4 ADD MSTORE PUSH2 0x86C DUP2 PUSH2 0x80D JUMP JUMPDEST SWAP1 POP SWAP2 SWAP1 POP JUMP JUMPDEST PUSH1 0x0 PUSH1 0x20 DUP3 ADD SWAP1 POP DUP2 DUP2 SUB PUSH1 0x0 DUP4 ADD MSTORE PUSH2 0x88C DUP2 PUSH2 0x830 JUMP JUMPDEST SWAP1 POP SWAP2 SWAP1 POP JUMP JUMPDEST PUSH1 0x0 PUSH2 0x89D PUSH2 0x8AE JUMP JUMPDEST SWAP1 POP PUSH2 0x8A9 DUP3 DUP3 PUSH2 0x977 JUMP JUMPDEST SWAP2 SWAP1 POP JUMP JUMPDEST PUSH1 0x0 PUSH1 0x40 MLOAD SWAP1 POP SWAP1 JUMP JUMPDEST PUSH1 0x0 PUSH8 0xFFFFFFFFFFFFFFFF DUP3 GT ISZERO PUSH2 0x8D3 JUMPI PUSH2 0x8D2 PUSH2 0x9D7 JUMP JUMPDEST JUMPDEST PUSH2 0x8DC DUP3 PUSH2 0xA1A JUMP JUMPDEST SWAP1 POP PUSH1 0x20 DUP2 ADD SWAP1 POP SWAP2 SWAP1 POP JUMP JUMPDEST PUSH1 0x0 DUP3 DUP3 MSTORE PUSH1 0x20 DUP3 ADD SWAP1 POP SWAP3 SWAP2 POP POP JUMP JUMPDEST PUSH1 0x0 PUSH2 0x905 DUP3 PUSH2 0x90C JUMP JUMPDEST SWAP1 POP SWAP2 SWAP1 POP JUMP JUMPDEST PUSH1 0x0 PUSH20 0xFFFFFFFFFFFFFFFFFFFFFFFFFFFFFFFFFFFFFFFF DUP3 AND SWAP1 POP SWAP2 SWAP1 POP JUMP JUMPDEST PUSH1 0x0 DUP2 SWAP1 POP SWAP2 SWAP1 POP JUMP JUMPDEST DUP3 DUP2 DUP4 CALLDATACOPY PUSH1 0x0 DUP4 DUP4 ADD MSTORE POP POP POP JUMP JUMPDEST PUSH1 0x0 PUSH1 0x2 DUP3 DIV SWAP1 POP PUSH1 0x1 DUP3 AND DUP1 PUSH2 0x95D JUMPI PUSH1 0x7F DUP3 AND SWAP2 POP JUMPDEST PUSH1 0x20 DUP3 LT DUP2 EQ ISZERO PUSH2 0x971 JUMPI PUSH2 0x970 PUSH2 0x9A8 JUMP JUMPDEST JUMPDEST POP SWAP2 SWAP1 POP JUMP JUMPDEST PUSH2 0x980 DUP3 PUSH2 0xA1A JUMP JUMPDEST DUP2 ADD DUP2 DUP2 LT PUSH8 0xFFFFFFFFFFFFFFFF DUP3 GT OR ISZERO PUSH2 0x99F JUMPI PUSH2 0x99E PUSH2 0x9D7 JUMP JUMPDEST JUMPDEST DUP1 PUSH1 0x40 MSTORE POP POP POP JUMP JUMPDEST PUSH32 0x4E487B7100000000000000000000000000000000000000000000000000000000 PUSH1 0x0 MSTORE PUSH1 0x22 PUSH1 0x4 MSTORE PUSH1 0x24 PUSH1 0x0 REVERT JUMPDEST PUSH32 0x4E487B7100000000000000000000000000000000000000000000000000000000 PUSH1 0x0 MSTORE PUSH1 0x41 PUSH1 0x4 MSTORE PUSH1 0x24 PUSH1 0x0 REVERT JUMPDEST PUSH1 0x0 DUP1 REVERT JUMPDEST PUSH1 0x0 DUP1 REVERT JUMPDEST PUSH1 0x0 DUP1 REVERT JUMPDEST PUSH1 0x0 DUP1 REVERT JUMPDEST PUSH1 0x0 PUSH1 0x1F NOT PUSH1 0x1F DUP4 ADD AND SWAP1 POP SWAP2 SWAP1 POP JUMP JUMPDEST PUSH32 0x496E73756666696369656E742066756E6420666F722072656465656D2E000000 PUSH1 0x0 DUP3 ADD MSTORE POP JUMP JUMPDEST PUSH32 0x596F7520617265206E6F742070617263656C206F776E65722E00000000000000 PUSH1 0x0 DUP3 ADD MSTORE POP JUMP JUMPDEST PUSH2 0xA86 DUP2 PUSH2 0x8FA JUMP JUMPDEST DUP2 EQ PUSH2 0xA91 JUMPI PUSH1 0x0 DUP1 REVERT JUMPDEST POP JUMP JUMPDEST PUSH2 0xA9D DUP2 PUSH2 0x92C JUMP JUMPDEST DUP2 EQ PUSH2 0xAA8 JUMPI PUSH1 0x0 DUP1 REVERT JUMPDEST POP JUMP INVALID LOG2 PUSH5 0x6970667358 0x22 SLT KECCAK256 MLOAD SWAP11 DUP11 PUSH13 0xB3AA368256351723BA8E093B22 0xA6 0xBB AND EXTCODECOPY 0xCB 0xC PUSH19 0x7D7BC2B1A849703F64736F6C63430008070033 "
				},
				"gasEstimates": {
					"creation": {
						"codeDepositCost": "557000",
						"executionCost": "24860",
						"totalCost": "581860"
					},
					"external": {
						"createParcel(uint256,string,uint256,uint256)": "infinite",
						"mortgage(address,string,uint256)": "infinite",
						"redeem(address,string,uint256)": "infinite"
					}
				},
				"methodIdentifiers": {
					"createParcel(uint256,string,uint256,uint256)": "4854e056",
					"mortgage(address,string,uint256)": "5b1dedc2",
					"redeem(address,string,uint256)": "868571ef"
				}
			},
			"storageLayout": {
				"storage": [
					{
						"astId": 17,
						"contract": "contracts/Parcel.sol:Parcel",
						"label": "owner",
						"offset": 0,
						"slot": "0",
						"type": "t_address"
					},
					{
						"astId": 20,
						"contract": "contracts/Parcel.sol:Parcel",
						"label": "parcel_land",
						"offset": 0,
						"slot": "1",
						"type": "t_struct(Parcel_land)10_storage"
					},
					{
						"astId": 25,
						"contract": "contracts/Parcel.sol:Parcel",
						"label": "_parcel_land",
						"offset": 0,
						"slot": "5",
						"type": "t_mapping(t_address,t_struct(Parcel_land)10_storage)"
					},
					{
						"astId": 30,
						"contract": "contracts/Parcel.sol:Parcel",
						"label": "_olgt",
						"offset": 0,
						"slot": "6",
						"type": "t_mapping(t_address,t_struct(Olgt)15_storage)"
					}
				],
				"types": {
					"t_address": {
						"encoding": "inplace",
						"label": "address",
						"numberOfBytes": "20"
					},
					"t_mapping(t_address,t_struct(Olgt)15_storage)": {
						"encoding": "mapping",
						"key": "t_address",
						"label": "mapping(address => struct Olgt)",
						"numberOfBytes": "32",
						"value": "t_struct(Olgt)15_storage"
					},
					"t_mapping(t_address,t_struct(Parcel_land)10_storage)": {
						"encoding": "mapping",
						"key": "t_address",
						"label": "mapping(address => struct Parcel_land)",
						"numberOfBytes": "32",
						"value": "t_struct(Parcel_land)10_storage"
					},
					"t_string_storage": {
						"encoding": "bytes",
						"label": "string",
						"numberOfBytes": "32"
					},
					"t_struct(Olgt)15_storage": {
						"encoding": "inplace",
						"label": "struct Olgt",
						"members": [
							{
								"astId": 12,
								"contract": "contracts/Parcel.sol:Parcel",
								"label": "olgt_name",
								"offset": 0,
								"slot": "0",
								"type": "t_string_storage"
							},
							{
								"astId": 14,
								"contract": "contracts/Parcel.sol:Parcel",
								"label": "olgt_price",
								"offset": 0,
								"slot": "1",
								"type": "t_uint256"
							}
						],
						"numberOfBytes": "64"
					},
					"t_struct(Parcel_land)10_storage": {
						"encoding": "inplace",
						"label": "struct Parcel_land",
						"members": [
							{
								"astId": 3,
								"contract": "contracts/Parcel.sol:Parcel",
								"label": "parcel_no",
								"offset": 0,
								"slot": "0",
								"type": "t_uint256"
							},
							{
								"astId": 5,
								"contract": "contracts/Parcel.sol:Parcel",
								"label": "owner_name",
								"offset": 0,
								"slot": "1",
								"type": "t_string_storage"
							},
							{
								"astId": 7,
								"contract": "contracts/Parcel.sol:Parcel",
								"label": "price",
								"offset": 0,
								"slot": "2",
								"type": "t_uint256"
							},
							{
								"astId": 9,
								"contract": "contracts/Parcel.sol:Parcel",
								"label": "area",
								"offset": 0,
								"slot": "3",
								"type": "t_uint256"
							}
						],
						"numberOfBytes": "128"
					},
					"t_uint256": {
						"encoding": "inplace",
						"label": "uint256",
						"numberOfBytes": "32"
					}
				}
			},
			"userdoc": {
				"kind": "user",
				"methods": {},
				"version": 1
			}
		}
	}
}