{
	"contracts/Parcel.sol": {
		"Parcel": {
			"abi": [
				{
					"inputs": [],
					"stateMutability": "nonpayable",
					"type": "constructor"
				},
				{
					"inputs": [
						{
							"internalType": "address",
							"name": "person",
							"type": "address"
						},
						{
							"internalType": "string",
							"name": "owner_name",
							"type": "string"
						},
						{
							"internalType": "uint256",
							"name": "price",
							"type": "uint256"
						},
						{
							"internalType": "uint256",
							"name": "area",
							"type": "uint256"
						}
					],
					"name": "createParcel",
					"outputs": [],
					"stateMutability": "payable",
					"type": "function"
				},
				{
					"inputs": [
						{
							"internalType": "string",
							"name": "owner_name",
							"type": "string"
						}
					],
					"name": "mortgage",
					"outputs": [],
					"stateMutability": "nonpayable",
					"type": "function"
				}
			],
			"devdoc": {
				"kind": "dev",
				"methods": {},
				"version": 1
			},
			"evm": {
				"assembly": "    /* \"contracts/Parcel.sol\":228:854  contract Parcel {\r... */\n  mstore(0x40, 0x80)\n    /* \"contracts/Parcel.sol\":352:403  constructor() {\r... */\n  callvalue\n  dup1\n  iszero\n  tag_1\n  jumpi\n  0x00\n  dup1\n  revert\ntag_1:\n  pop\n    /* \"contracts/Parcel.sol\":385:395  msg.sender */\n  caller\n    /* \"contracts/Parcel.sol\":377:382  owner */\n  0x00\n  dup1\n    /* \"contracts/Parcel.sol\":377:395  owner = msg.sender */\n  0x0100\n  exp\n  dup2\n  sload\n  dup2\n  0xffffffffffffffffffffffffffffffffffffffff\n  mul\n  not\n  and\n  swap1\n  dup4\n  0xffffffffffffffffffffffffffffffffffffffff\n  and\n  mul\n  or\n  swap1\n  sstore\n  pop\n    /* \"contracts/Parcel.sol\":228:854  contract Parcel {\r... */\n  dataSize(sub_0)\n  dup1\n  dataOffset(sub_0)\n  0x00\n  codecopy\n  0x00\n  return\nstop\n\nsub_0: assembly {\n        /* \"contracts/Parcel.sol\":228:854  contract Parcel {\r... */\n      mstore(0x40, 0x80)\n      jumpi(tag_1, lt(calldatasize, 0x04))\n      shr(0xe0, calldataload(0x00))\n      dup1\n      0x2a21e62e\n      eq\n      tag_2\n      jumpi\n      dup1\n      0x5f176ab8\n      eq\n      tag_3\n      jumpi\n    tag_1:\n      0x00\n      dup1\n      revert\n        /* \"contracts/Parcel.sol\":782:851  function mortgage(string memory owner_name) public {\r... */\n    tag_2:\n      callvalue\n      dup1\n      iszero\n      tag_4\n      jumpi\n      0x00\n      dup1\n      revert\n    tag_4:\n      pop\n      tag_5\n      0x04\n      dup1\n      calldatasize\n      sub\n      dup2\n      add\n      swap1\n      tag_6\n      swap2\n      swap1\n      tag_7\n      jump\t// in\n    tag_6:\n      tag_8\n      jump\t// in\n    tag_5:\n      stop\n        /* \"contracts/Parcel.sol\":524:774  function createParcel(address person, string memory owner_name, uint price, uint area) public payable {\r... */\n    tag_3:\n      tag_9\n      0x04\n      dup1\n      calldatasize\n      sub\n      dup2\n      add\n      swap1\n      tag_10\n      swap2\n      swap1\n      tag_11\n      jump\t// in\n    tag_10:\n      tag_12\n      jump\t// in\n    tag_9:\n      stop\n        /* \"contracts/Parcel.sol\":782:851  function mortgage(string memory owner_name) public {\r... */\n    tag_8:\n      pop\n      jump\t// out\n        /* \"contracts/Parcel.sol\":524:774  function createParcel(address person, string memory owner_name, uint price, uint area) public payable {\r... */\n    tag_12:\n        /* \"contracts/Parcel.sol\":670:680  owner_name */\n      dup3\n        /* \"contracts/Parcel.sol\":636:648  _parcel_land */\n      0x05\n        /* \"contracts/Parcel.sol\":636:656  _parcel_land[person] */\n      0x00\n        /* \"contracts/Parcel.sol\":649:655  person */\n      dup7\n        /* \"contracts/Parcel.sol\":636:656  _parcel_land[person] */\n      0xffffffffffffffffffffffffffffffffffffffff\n      and\n      0xffffffffffffffffffffffffffffffffffffffff\n      and\n      dup2\n      mstore\n      0x20\n      add\n      swap1\n      dup2\n      mstore\n      0x20\n      add\n      0x00\n      keccak256\n        /* \"contracts/Parcel.sol\":636:667  _parcel_land[person].owner_name */\n      0x01\n      add\n        /* \"contracts/Parcel.sol\":636:680  _parcel_land[person].owner_name = owner_name */\n      swap1\n      dup1\n      mload\n      swap1\n      0x20\n      add\n      swap1\n      tag_15\n      swap3\n      swap2\n      swap1\n      tag_16\n      jump\t// in\n    tag_15:\n      pop\n        /* \"contracts/Parcel.sol\":719:724  price */\n      dup2\n        /* \"contracts/Parcel.sol\":690:702  _parcel_land */\n      0x05\n        /* \"contracts/Parcel.sol\":690:710  _parcel_land[person] */\n      0x00\n        /* \"contracts/Parcel.sol\":703:709  person */\n      dup7\n        /* \"contracts/Parcel.sol\":690:710  _parcel_land[person] */\n      0xffffffffffffffffffffffffffffffffffffffff\n      and\n      0xffffffffffffffffffffffffffffffffffffffff\n      and\n      dup2\n      mstore\n      0x20\n      add\n      swap1\n      dup2\n      mstore\n      0x20\n      add\n      0x00\n      keccak256\n        /* \"contracts/Parcel.sol\":690:716  _parcel_land[person].price */\n      0x02\n      add\n        /* \"contracts/Parcel.sol\":690:724  _parcel_land[person].price = price */\n      dup2\n      swap1\n      sstore\n      pop\n        /* \"contracts/Parcel.sol\":762:766  area */\n      dup1\n        /* \"contracts/Parcel.sol\":734:746  _parcel_land */\n      0x05\n        /* \"contracts/Parcel.sol\":734:754  _parcel_land[person] */\n      0x00\n        /* \"contracts/Parcel.sol\":747:753  person */\n      dup7\n        /* \"contracts/Parcel.sol\":734:754  _parcel_land[person] */\n      0xffffffffffffffffffffffffffffffffffffffff\n      and\n      0xffffffffffffffffffffffffffffffffffffffff\n      and\n      dup2\n      mstore\n      0x20\n      add\n      swap1\n      dup2\n      mstore\n      0x20\n      add\n      0x00\n      keccak256\n        /* \"contracts/Parcel.sol\":734:759  _parcel_land[person].area */\n      0x03\n      add\n        /* \"contracts/Parcel.sol\":734:766  _parcel_land[person].area = area */\n      dup2\n      swap1\n      sstore\n      pop\n        /* \"contracts/Parcel.sol\":524:774  function createParcel(address person, string memory owner_name, uint price, uint area) public payable {\r... */\n      pop\n      pop\n      pop\n      pop\n      jump\t// out\n    tag_16:\n      dup3\n      dup1\n      sload\n      tag_17\n      swap1\n      tag_18\n      jump\t// in\n    tag_17:\n      swap1\n      0x00\n      mstore\n      keccak256(0x00, 0x20)\n      swap1\n      0x1f\n      add\n      0x20\n      swap1\n      div\n      dup2\n      add\n      swap3\n      dup3\n      tag_20\n      jumpi\n      0x00\n      dup6\n      sstore\n      jump(tag_19)\n    tag_20:\n      dup3\n      0x1f\n      lt\n      tag_21\n      jumpi\n      dup1\n      mload\n      not(0xff)\n      and\n      dup4\n      dup1\n      add\n      or\n      dup6\n      sstore\n      jump(tag_19)\n    tag_21:\n      dup3\n      dup1\n      add\n      0x01\n      add\n      dup6\n      sstore\n      dup3\n      iszero\n      tag_19\n      jumpi\n      swap2\n      dup3\n      add\n    tag_22:\n      dup3\n      dup2\n      gt\n      iszero\n      tag_23\n      jumpi\n      dup3\n      mload\n      dup3\n      sstore\n      swap2\n      0x20\n      add\n      swap2\n      swap1\n      0x01\n      add\n      swap1\n      jump(tag_22)\n    tag_23:\n    tag_19:\n      pop\n      swap1\n      pop\n      tag_24\n      swap2\n      swap1\n      tag_25\n      jump\t// in\n    tag_24:\n      pop\n      swap1\n      jump\t// out\n    tag_25:\n    tag_26:\n      dup1\n      dup3\n      gt\n      iszero\n      tag_27\n      jumpi\n      0x00\n      dup2\n      0x00\n      swap1\n      sstore\n      pop\n      0x01\n      add\n      jump(tag_26)\n    tag_27:\n      pop\n      swap1\n      jump\t// out\n        /* \"#utility.yul\":7:419   */\n    tag_29:\n        /* \"#utility.yul\":85:90   */\n      0x00\n        /* \"#utility.yul\":110:176   */\n      tag_31\n        /* \"#utility.yul\":126:175   */\n      tag_32\n        /* \"#utility.yul\":168:174   */\n      dup5\n        /* \"#utility.yul\":126:175   */\n      tag_33\n      jump\t// in\n    tag_32:\n        /* \"#utility.yul\":110:176   */\n      tag_34\n      jump\t// in\n    tag_31:\n        /* \"#utility.yul\":101:176   */\n      swap1\n      pop\n        /* \"#utility.yul\":199:205   */\n      dup3\n        /* \"#utility.yul\":192:197   */\n      dup2\n        /* \"#utility.yul\":185:206   */\n      mstore\n        /* \"#utility.yul\":237:241   */\n      0x20\n        /* \"#utility.yul\":230:235   */\n      dup2\n        /* \"#utility.yul\":226:242   */\n      add\n        /* \"#utility.yul\":275:278   */\n      dup5\n        /* \"#utility.yul\":266:272   */\n      dup5\n        /* \"#utility.yul\":261:264   */\n      dup5\n        /* \"#utility.yul\":257:273   */\n      add\n        /* \"#utility.yul\":254:279   */\n      gt\n        /* \"#utility.yul\":251:363   */\n      iszero\n      tag_35\n      jumpi\n        /* \"#utility.yul\":282:361   */\n      tag_36\n      tag_37\n      jump\t// in\n    tag_36:\n        /* \"#utility.yul\":251:363   */\n    tag_35:\n        /* \"#utility.yul\":372:413   */\n      tag_38\n        /* \"#utility.yul\":406:412   */\n      dup5\n        /* \"#utility.yul\":401:404   */\n      dup3\n        /* \"#utility.yul\":396:399   */\n      dup6\n        /* \"#utility.yul\":372:413   */\n      tag_39\n      jump\t// in\n    tag_38:\n        /* \"#utility.yul\":91:419   */\n      pop\n        /* \"#utility.yul\":7:419   */\n      swap4\n      swap3\n      pop\n      pop\n      pop\n      jump\t// out\n        /* \"#utility.yul\":425:564   */\n    tag_40:\n        /* \"#utility.yul\":471:476   */\n      0x00\n        /* \"#utility.yul\":509:515   */\n      dup2\n        /* \"#utility.yul\":496:516   */\n      calldataload\n        /* \"#utility.yul\":487:516   */\n      swap1\n      pop\n        /* \"#utility.yul\":525:558   */\n      tag_42\n        /* \"#utility.yul\":552:557   */\n      dup2\n        /* \"#utility.yul\":525:558   */\n      tag_43\n      jump\t// in\n    tag_42:\n        /* \"#utility.yul\":425:564   */\n      swap3\n      swap2\n      pop\n      pop\n      jump\t// out\n        /* \"#utility.yul\":584:924   */\n    tag_44:\n        /* \"#utility.yul\":640:645   */\n      0x00\n        /* \"#utility.yul\":689:692   */\n      dup3\n        /* \"#utility.yul\":682:686   */\n      0x1f\n        /* \"#utility.yul\":674:680   */\n      dup4\n        /* \"#utility.yul\":670:687   */\n      add\n        /* \"#utility.yul\":666:693   */\n      slt\n        /* \"#utility.yul\":656:778   */\n      tag_46\n      jumpi\n        /* \"#utility.yul\":697:776   */\n      tag_47\n      tag_48\n      jump\t// in\n    tag_47:\n        /* \"#utility.yul\":656:778   */\n    tag_46:\n        /* \"#utility.yul\":814:820   */\n      dup2\n        /* \"#utility.yul\":801:821   */\n      calldataload\n        /* \"#utility.yul\":839:918   */\n      tag_49\n        /* \"#utility.yul\":914:917   */\n      dup5\n        /* \"#utility.yul\":906:912   */\n      dup3\n        /* \"#utility.yul\":899:903   */\n      0x20\n        /* \"#utility.yul\":891:897   */\n      dup7\n        /* \"#utility.yul\":887:904   */\n      add\n        /* \"#utility.yul\":839:918   */\n      tag_29\n      jump\t// in\n    tag_49:\n        /* \"#utility.yul\":830:918   */\n      swap2\n      pop\n        /* \"#utility.yul\":646:924   */\n      pop\n        /* \"#utility.yul\":584:924   */\n      swap3\n      swap2\n      pop\n      pop\n      jump\t// out\n        /* \"#utility.yul\":930:1069   */\n    tag_50:\n        /* \"#utility.yul\":976:981   */\n      0x00\n        /* \"#utility.yul\":1014:1020   */\n      dup2\n        /* \"#utility.yul\":1001:1021   */\n      calldataload\n        /* \"#utility.yul\":992:1021   */\n      swap1\n      pop\n        /* \"#utility.yul\":1030:1063   */\n      tag_52\n        /* \"#utility.yul\":1057:1062   */\n      dup2\n        /* \"#utility.yul\":1030:1063   */\n      tag_53\n      jump\t// in\n    tag_52:\n        /* \"#utility.yul\":930:1069   */\n      swap3\n      swap2\n      pop\n      pop\n      jump\t// out\n        /* \"#utility.yul\":1075:2020   */\n    tag_11:\n        /* \"#utility.yul\":1171:1177   */\n      0x00\n        /* \"#utility.yul\":1179:1185   */\n      dup1\n        /* \"#utility.yul\":1187:1193   */\n      0x00\n        /* \"#utility.yul\":1195:1201   */\n      dup1\n        /* \"#utility.yul\":1244:1247   */\n      0x80\n        /* \"#utility.yul\":1232:1241   */\n      dup6\n        /* \"#utility.yul\":1223:1230   */\n      dup8\n        /* \"#utility.yul\":1219:1242   */\n      sub\n        /* \"#utility.yul\":1215:1248   */\n      slt\n        /* \"#utility.yul\":1212:1332   */\n      iszero\n      tag_55\n      jumpi\n        /* \"#utility.yul\":1251:1330   */\n      tag_56\n      tag_57\n      jump\t// in\n    tag_56:\n        /* \"#utility.yul\":1212:1332   */\n    tag_55:\n        /* \"#utility.yul\":1371:1372   */\n      0x00\n        /* \"#utility.yul\":1396:1449   */\n      tag_58\n        /* \"#utility.yul\":1441:1448   */\n      dup8\n        /* \"#utility.yul\":1432:1438   */\n      dup3\n        /* \"#utility.yul\":1421:1430   */\n      dup9\n        /* \"#utility.yul\":1417:1439   */\n      add\n        /* \"#utility.yul\":1396:1449   */\n      tag_40\n      jump\t// in\n    tag_58:\n        /* \"#utility.yul\":1386:1449   */\n      swap5\n      pop\n        /* \"#utility.yul\":1342:1459   */\n      pop\n        /* \"#utility.yul\":1526:1528   */\n      0x20\n        /* \"#utility.yul\":1515:1524   */\n      dup6\n        /* \"#utility.yul\":1511:1529   */\n      add\n        /* \"#utility.yul\":1498:1530   */\n      calldataload\n        /* \"#utility.yul\":1557:1575   */\n      0xffffffffffffffff\n        /* \"#utility.yul\":1549:1555   */\n      dup2\n        /* \"#utility.yul\":1546:1576   */\n      gt\n        /* \"#utility.yul\":1543:1660   */\n      iszero\n      tag_59\n      jumpi\n        /* \"#utility.yul\":1579:1658   */\n      tag_60\n      tag_61\n      jump\t// in\n    tag_60:\n        /* \"#utility.yul\":1543:1660   */\n    tag_59:\n        /* \"#utility.yul\":1684:1747   */\n      tag_62\n        /* \"#utility.yul\":1739:1746   */\n      dup8\n        /* \"#utility.yul\":1730:1736   */\n      dup3\n        /* \"#utility.yul\":1719:1728   */\n      dup9\n        /* \"#utility.yul\":1715:1737   */\n      add\n        /* \"#utility.yul\":1684:1747   */\n      tag_44\n      jump\t// in\n    tag_62:\n        /* \"#utility.yul\":1674:1747   */\n      swap4\n      pop\n        /* \"#utility.yul\":1469:1757   */\n      pop\n        /* \"#utility.yul\":1796:1798   */\n      0x40\n        /* \"#utility.yul\":1822:1875   */\n      tag_63\n        /* \"#utility.yul\":1867:1874   */\n      dup8\n        /* \"#utility.yul\":1858:1864   */\n      dup3\n        /* \"#utility.yul\":1847:1856   */\n      dup9\n        /* \"#utility.yul\":1843:1865   */\n      add\n        /* \"#utility.yul\":1822:1875   */\n      tag_50\n      jump\t// in\n    tag_63:\n        /* \"#utility.yul\":1812:1875   */\n      swap3\n      pop\n        /* \"#utility.yul\":1767:1885   */\n      pop\n        /* \"#utility.yul\":1924:1926   */\n      0x60\n        /* \"#utility.yul\":1950:2003   */\n      tag_64\n        /* \"#utility.yul\":1995:2002   */\n      dup8\n        /* \"#utility.yul\":1986:1992   */\n      dup3\n        /* \"#utility.yul\":1975:1984   */\n      dup9\n        /* \"#utility.yul\":1971:1993   */\n      add\n        /* \"#utility.yul\":1950:2003   */\n      tag_50\n      jump\t// in\n    tag_64:\n        /* \"#utility.yul\":1940:2003   */\n      swap2\n      pop\n        /* \"#utility.yul\":1895:2013   */\n      pop\n        /* \"#utility.yul\":1075:2020   */\n      swap3\n      swap6\n      swap2\n      swap5\n      pop\n      swap3\n      pop\n      jump\t// out\n        /* \"#utility.yul\":2026:2535   */\n    tag_7:\n        /* \"#utility.yul\":2095:2101   */\n      0x00\n        /* \"#utility.yul\":2144:2146   */\n      0x20\n        /* \"#utility.yul\":2132:2141   */\n      dup3\n        /* \"#utility.yul\":2123:2130   */\n      dup5\n        /* \"#utility.yul\":2119:2142   */\n      sub\n        /* \"#utility.yul\":2115:2147   */\n      slt\n        /* \"#utility.yul\":2112:2231   */\n      iszero\n      tag_66\n      jumpi\n        /* \"#utility.yul\":2150:2229   */\n      tag_67\n      tag_57\n      jump\t// in\n    tag_67:\n        /* \"#utility.yul\":2112:2231   */\n    tag_66:\n        /* \"#utility.yul\":2298:2299   */\n      0x00\n        /* \"#utility.yul\":2287:2296   */\n      dup3\n        /* \"#utility.yul\":2283:2300   */\n      add\n        /* \"#utility.yul\":2270:2301   */\n      calldataload\n        /* \"#utility.yul\":2328:2346   */\n      0xffffffffffffffff\n        /* \"#utility.yul\":2320:2326   */\n      dup2\n        /* \"#utility.yul\":2317:2347   */\n      gt\n        /* \"#utility.yul\":2314:2431   */\n      iszero\n      tag_68\n      jumpi\n        /* \"#utility.yul\":2350:2429   */\n      tag_69\n      tag_61\n      jump\t// in\n    tag_69:\n        /* \"#utility.yul\":2314:2431   */\n    tag_68:\n        /* \"#utility.yul\":2455:2518   */\n      tag_70\n        /* \"#utility.yul\":2510:2517   */\n      dup5\n        /* \"#utility.yul\":2501:2507   */\n      dup3\n        /* \"#utility.yul\":2490:2499   */\n      dup6\n        /* \"#utility.yul\":2486:2508   */\n      add\n        /* \"#utility.yul\":2455:2518   */\n      tag_44\n      jump\t// in\n    tag_70:\n        /* \"#utility.yul\":2445:2518   */\n      swap2\n      pop\n        /* \"#utility.yul\":2241:2528   */\n      pop\n        /* \"#utility.yul\":2026:2535   */\n      swap3\n      swap2\n      pop\n      pop\n      jump\t// out\n        /* \"#utility.yul\":2541:2670   */\n    tag_34:\n        /* \"#utility.yul\":2575:2581   */\n      0x00\n        /* \"#utility.yul\":2602:2622   */\n      tag_72\n      tag_73\n      jump\t// in\n    tag_72:\n        /* \"#utility.yul\":2592:2622   */\n      swap1\n      pop\n        /* \"#utility.yul\":2631:2664   */\n      tag_74\n        /* \"#utility.yul\":2659:2663   */\n      dup3\n        /* \"#utility.yul\":2651:2657   */\n      dup3\n        /* \"#utility.yul\":2631:2664   */\n      tag_75\n      jump\t// in\n    tag_74:\n        /* \"#utility.yul\":2541:2670   */\n      swap2\n      swap1\n      pop\n      jump\t// out\n        /* \"#utility.yul\":2676:2751   */\n    tag_73:\n        /* \"#utility.yul\":2709:2715   */\n      0x00\n        /* \"#utility.yul\":2742:2744   */\n      0x40\n        /* \"#utility.yul\":2736:2745   */\n      mload\n        /* \"#utility.yul\":2726:2745   */\n      swap1\n      pop\n        /* \"#utility.yul\":2676:2751   */\n      swap1\n      jump\t// out\n        /* \"#utility.yul\":2757:3065   */\n    tag_33:\n        /* \"#utility.yul\":2819:2823   */\n      0x00\n        /* \"#utility.yul\":2909:2927   */\n      0xffffffffffffffff\n        /* \"#utility.yul\":2901:2907   */\n      dup3\n        /* \"#utility.yul\":2898:2928   */\n      gt\n        /* \"#utility.yul\":2895:2951   */\n      iszero\n      tag_78\n      jumpi\n        /* \"#utility.yul\":2931:2949   */\n      tag_79\n      tag_80\n      jump\t// in\n    tag_79:\n        /* \"#utility.yul\":2895:2951   */\n    tag_78:\n        /* \"#utility.yul\":2969:2998   */\n      tag_81\n        /* \"#utility.yul\":2991:2997   */\n      dup3\n        /* \"#utility.yul\":2969:2998   */\n      tag_82\n      jump\t// in\n    tag_81:\n        /* \"#utility.yul\":2961:2998   */\n      swap1\n      pop\n        /* \"#utility.yul\":3053:3057   */\n      0x20\n        /* \"#utility.yul\":3047:3051   */\n      dup2\n        /* \"#utility.yul\":3043:3058   */\n      add\n        /* \"#utility.yul\":3035:3058   */\n      swap1\n      pop\n        /* \"#utility.yul\":2757:3065   */\n      swap2\n      swap1\n      pop\n      jump\t// out\n        /* \"#utility.yul\":3071:3167   */\n    tag_83:\n        /* \"#utility.yul\":3108:3115   */\n      0x00\n        /* \"#utility.yul\":3137:3161   */\n      tag_85\n        /* \"#utility.yul\":3155:3160   */\n      dup3\n        /* \"#utility.yul\":3137:3161   */\n      tag_86\n      jump\t// in\n    tag_85:\n        /* \"#utility.yul\":3126:3161   */\n      swap1\n      pop\n        /* \"#utility.yul\":3071:3167   */\n      swap2\n      swap1\n      pop\n      jump\t// out\n        /* \"#utility.yul\":3173:3299   */\n    tag_86:\n        /* \"#utility.yul\":3210:3217   */\n      0x00\n        /* \"#utility.yul\":3250:3292   */\n      0xffffffffffffffffffffffffffffffffffffffff\n        /* \"#utility.yul\":3243:3248   */\n      dup3\n        /* \"#utility.yul\":3239:3293   */\n      and\n        /* \"#utility.yul\":3228:3293   */\n      swap1\n      pop\n        /* \"#utility.yul\":3173:3299   */\n      swap2\n      swap1\n      pop\n      jump\t// out\n        /* \"#utility.yul\":3305:3382   */\n    tag_88:\n        /* \"#utility.yul\":3342:3349   */\n      0x00\n        /* \"#utility.yul\":3371:3376   */\n      dup2\n        /* \"#utility.yul\":3360:3376   */\n      swap1\n      pop\n        /* \"#utility.yul\":3305:3382   */\n      swap2\n      swap1\n      pop\n      jump\t// out\n        /* \"#utility.yul\":3388:3542   */\n    tag_39:\n        /* \"#utility.yul\":3472:3478   */\n      dup3\n        /* \"#utility.yul\":3467:3470   */\n      dup2\n        /* \"#utility.yul\":3462:3465   */\n      dup4\n        /* \"#utility.yul\":3449:3479   */\n      calldatacopy\n        /* \"#utility.yul\":3534:3535   */\n      0x00\n        /* \"#utility.yul\":3525:3531   */\n      dup4\n        /* \"#utility.yul\":3520:3523   */\n      dup4\n        /* \"#utility.yul\":3516:3532   */\n      add\n        /* \"#utility.yul\":3509:3536   */\n      mstore\n        /* \"#utility.yul\":3388:3542   */\n      pop\n      pop\n      pop\n      jump\t// out\n        /* \"#utility.yul\":3548:3868   */\n    tag_18:\n        /* \"#utility.yul\":3592:3598   */\n      0x00\n        /* \"#utility.yul\":3629:3630   */\n      0x02\n        /* \"#utility.yul\":3623:3627   */\n      dup3\n        /* \"#utility.yul\":3619:3631   */\n      div\n        /* \"#utility.yul\":3609:3631   */\n      swap1\n      pop\n        /* \"#utility.yul\":3676:3677   */\n      0x01\n        /* \"#utility.yul\":3670:3674   */\n      dup3\n        /* \"#utility.yul\":3666:3678   */\n      and\n        /* \"#utility.yul\":3697:3715   */\n      dup1\n        /* \"#utility.yul\":3687:3768   */\n      tag_92\n      jumpi\n        /* \"#utility.yul\":3753:3757   */\n      0x7f\n        /* \"#utility.yul\":3745:3751   */\n      dup3\n        /* \"#utility.yul\":3741:3758   */\n      and\n        /* \"#utility.yul\":3731:3758   */\n      swap2\n      pop\n        /* \"#utility.yul\":3687:3768   */\n    tag_92:\n        /* \"#utility.yul\":3815:3817   */\n      0x20\n        /* \"#utility.yul\":3807:3813   */\n      dup3\n        /* \"#utility.yul\":3804:3818   */\n      lt\n        /* \"#utility.yul\":3784:3802   */\n      dup2\n        /* \"#utility.yul\":3781:3819   */\n      eq\n        /* \"#utility.yul\":3778:3862   */\n      iszero\n      tag_93\n      jumpi\n        /* \"#utility.yul\":3834:3852   */\n      tag_94\n      tag_95\n      jump\t// in\n    tag_94:\n        /* \"#utility.yul\":3778:3862   */\n    tag_93:\n        /* \"#utility.yul\":3599:3868   */\n      pop\n        /* \"#utility.yul\":3548:3868   */\n      swap2\n      swap1\n      pop\n      jump\t// out\n        /* \"#utility.yul\":3874:4155   */\n    tag_75:\n        /* \"#utility.yul\":3957:3984   */\n      tag_97\n        /* \"#utility.yul\":3979:3983   */\n      dup3\n        /* \"#utility.yul\":3957:3984   */\n      tag_82\n      jump\t// in\n    tag_97:\n        /* \"#utility.yul\":3949:3955   */\n      dup2\n        /* \"#utility.yul\":3945:3985   */\n      add\n        /* \"#utility.yul\":4087:4093   */\n      dup2\n        /* \"#utility.yul\":4075:4085   */\n      dup2\n        /* \"#utility.yul\":4072:4094   */\n      lt\n        /* \"#utility.yul\":4051:4069   */\n      0xffffffffffffffff\n        /* \"#utility.yul\":4039:4049   */\n      dup3\n        /* \"#utility.yul\":4036:4070   */\n      gt\n        /* \"#utility.yul\":4033:4095   */\n      or\n        /* \"#utility.yul\":4030:4118   */\n      iszero\n      tag_98\n      jumpi\n        /* \"#utility.yul\":4098:4116   */\n      tag_99\n      tag_80\n      jump\t// in\n    tag_99:\n        /* \"#utility.yul\":4030:4118   */\n    tag_98:\n        /* \"#utility.yul\":4138:4148   */\n      dup1\n        /* \"#utility.yul\":4134:4136   */\n      0x40\n        /* \"#utility.yul\":4127:4149   */\n      mstore\n        /* \"#utility.yul\":3917:4155   */\n      pop\n        /* \"#utility.yul\":3874:4155   */\n      pop\n      pop\n      jump\t// out\n        /* \"#utility.yul\":4161:4341   */\n    tag_95:\n        /* \"#utility.yul\":4209:4286   */\n      0x4e487b7100000000000000000000000000000000000000000000000000000000\n        /* \"#utility.yul\":4206:4207   */\n      0x00\n        /* \"#utility.yul\":4199:4287   */\n      mstore\n        /* \"#utility.yul\":4306:4310   */\n      0x22\n        /* \"#utility.yul\":4303:4304   */\n      0x04\n        /* \"#utility.yul\":4296:4311   */\n      mstore\n        /* \"#utility.yul\":4330:4334   */\n      0x24\n        /* \"#utility.yul\":4327:4328   */\n      0x00\n        /* \"#utility.yul\":4320:4335   */\n      revert\n        /* \"#utility.yul\":4347:4527   */\n    tag_80:\n        /* \"#utility.yul\":4395:4472   */\n      0x4e487b7100000000000000000000000000000000000000000000000000000000\n        /* \"#utility.yul\":4392:4393   */\n      0x00\n        /* \"#utility.yul\":4385:4473   */\n      mstore\n        /* \"#utility.yul\":4492:4496   */\n      0x41\n        /* \"#utility.yul\":4489:4490   */\n      0x04\n        /* \"#utility.yul\":4482:4497   */\n      mstore\n        /* \"#utility.yul\":4516:4520   */\n      0x24\n        /* \"#utility.yul\":4513:4514   */\n      0x00\n        /* \"#utility.yul\":4506:4521   */\n      revert\n        /* \"#utility.yul\":4533:4650   */\n    tag_48:\n        /* \"#utility.yul\":4642:4643   */\n      0x00\n        /* \"#utility.yul\":4639:4640   */\n      dup1\n        /* \"#utility.yul\":4632:4644   */\n      revert\n        /* \"#utility.yul\":4656:4773   */\n    tag_37:\n        /* \"#utility.yul\":4765:4766   */\n      0x00\n        /* \"#utility.yul\":4762:4763   */\n      dup1\n        /* \"#utility.yul\":4755:4767   */\n      revert\n        /* \"#utility.yul\":4779:4896   */\n    tag_61:\n        /* \"#utility.yul\":4888:4889   */\n      0x00\n        /* \"#utility.yul\":4885:4886   */\n      dup1\n        /* \"#utility.yul\":4878:4890   */\n      revert\n        /* \"#utility.yul\":4902:5019   */\n    tag_57:\n        /* \"#utility.yul\":5011:5012   */\n      0x00\n        /* \"#utility.yul\":5008:5009   */\n      dup1\n        /* \"#utility.yul\":5001:5013   */\n      revert\n        /* \"#utility.yul\":5025:5127   */\n    tag_82:\n        /* \"#utility.yul\":5066:5072   */\n      0x00\n        /* \"#utility.yul\":5117:5119   */\n      0x1f\n        /* \"#utility.yul\":5113:5120   */\n      not\n        /* \"#utility.yul\":5108:5110   */\n      0x1f\n        /* \"#utility.yul\":5101:5106   */\n      dup4\n        /* \"#utility.yul\":5097:5111   */\n      add\n        /* \"#utility.yul\":5093:5121   */\n      and\n        /* \"#utility.yul\":5083:5121   */\n      swap1\n      pop\n        /* \"#utility.yul\":5025:5127   */\n      swap2\n      swap1\n      pop\n      jump\t// out\n        /* \"#utility.yul\":5133:5255   */\n    tag_43:\n        /* \"#utility.yul\":5206:5230   */\n      tag_108\n        /* \"#utility.yul\":5224:5229   */\n      dup2\n        /* \"#utility.yul\":5206:5230   */\n      tag_83\n      jump\t// in\n    tag_108:\n        /* \"#utility.yul\":5199:5204   */\n      dup2\n        /* \"#utility.yul\":5196:5231   */\n      eq\n        /* \"#utility.yul\":5186:5249   */\n      tag_109\n      jumpi\n        /* \"#utility.yul\":5245:5246   */\n      0x00\n        /* \"#utility.yul\":5242:5243   */\n      dup1\n        /* \"#utility.yul\":5235:5247   */\n      revert\n        /* \"#utility.yul\":5186:5249   */\n    tag_109:\n        /* \"#utility.yul\":5133:5255   */\n      pop\n      jump\t// out\n        /* \"#utility.yul\":5261:5383   */\n    tag_53:\n        /* \"#utility.yul\":5334:5358   */\n      tag_111\n        /* \"#utility.yul\":5352:5357   */\n      dup2\n        /* \"#utility.yul\":5334:5358   */\n      tag_88\n      jump\t// in\n    tag_111:\n        /* \"#utility.yul\":5327:5332   */\n      dup2\n        /* \"#utility.yul\":5324:5359   */\n      eq\n        /* \"#utility.yul\":5314:5377   */\n      tag_112\n      jumpi\n        /* \"#utility.yul\":5373:5374   */\n      0x00\n        /* \"#utility.yul\":5370:5371   */\n      dup1\n        /* \"#utility.yul\":5363:5375   */\n      revert\n        /* \"#utility.yul\":5314:5377   */\n    tag_112:\n        /* \"#utility.yul\":5261:5383   */\n      pop\n      jump\t// out\n\n    auxdata: 0xa2646970667358221220ca2d40fa5edd0984dc7af4fded774f4b55db55495bcb18d771c0fe862fa83e6264736f6c63430008070033\n}\n",
				"bytecode": {
					"linkReferences": {},
					"object": "608060405234801561001057600080fd5b50336000806101000a81548173ffffffffffffffffffffffffffffffffffffffff021916908373ffffffffffffffffffffffffffffffffffffffff160217905550610555806100606000396000f3fe6080604052600436106100295760003560e01c80632a21e62e1461002e5780635f176ab814610057575b600080fd5b34801561003a57600080fd5b5061005560048036038101906100509190610321565b610073565b005b610071600480360381019061006c919061029e565b610076565b005b50565b82600560008673ffffffffffffffffffffffffffffffffffffffff1673ffffffffffffffffffffffffffffffffffffffff16815260200190815260200160002060010190805190602001906100cc929190610161565b5081600560008673ffffffffffffffffffffffffffffffffffffffff1673ffffffffffffffffffffffffffffffffffffffff1681526020019081526020016000206002018190555080600560008673ffffffffffffffffffffffffffffffffffffffff1673ffffffffffffffffffffffffffffffffffffffff1681526020019081526020016000206003018190555050505050565b82805461016d9061040b565b90600052602060002090601f01602090048101928261018f57600085556101d6565b82601f106101a857805160ff19168380011785556101d6565b828001600101855582156101d6579182015b828111156101d55782518255916020019190600101906101ba565b5b5090506101e391906101e7565b5090565b5b808211156102005760008160009055506001016101e8565b5090565b60006102176102128461038f565b61036a565b905082815260208101848484011115610233576102326104d1565b5b61023e8482856103fc565b509392505050565b600081359050610255816104f1565b92915050565b600082601f8301126102705761026f6104cc565b5b8135610280848260208601610204565b91505092915050565b60008135905061029881610508565b92915050565b600080600080608085870312156102b8576102b76104db565b5b60006102c687828801610246565b945050602085013567ffffffffffffffff8111156102e7576102e66104d6565b5b6102f38782880161025b565b935050604061030487828801610289565b925050606061031587828801610289565b91505092959194509250565b600060208284031215610337576103366104db565b5b600082013567ffffffffffffffff811115610355576103546104d6565b5b6103618482850161025b565b91505092915050565b6000610374610385565b9050610380828261043d565b919050565b6000604051905090565b600067ffffffffffffffff8211156103aa576103a961049d565b5b6103b3826104e0565b9050602081019050919050565b60006103cb826103d2565b9050919050565b600073ffffffffffffffffffffffffffffffffffffffff82169050919050565b6000819050919050565b82818337600083830152505050565b6000600282049050600182168061042357607f821691505b602082108114156104375761043661046e565b5b50919050565b610446826104e0565b810181811067ffffffffffffffff821117156104655761046461049d565b5b80604052505050565b7f4e487b7100000000000000000000000000000000000000000000000000000000600052602260045260246000fd5b7f4e487b7100000000000000000000000000000000000000000000000000000000600052604160045260246000fd5b600080fd5b600080fd5b600080fd5b600080fd5b6000601f19601f8301169050919050565b6104fa816103c0565b811461050557600080fd5b50565b610511816103f2565b811461051c57600080fd5b5056fea2646970667358221220ca2d40fa5edd0984dc7af4fded774f4b55db55495bcb18d771c0fe862fa83e6264736f6c63430008070033",
					"opcodes": "PUSH1 0x80 PUSH1 0x40 MSTORE CALLVALUE DUP1 ISZERO PUSH2 0x10 JUMPI PUSH1 0x0 DUP1 REVERT JUMPDEST POP CALLER PUSH1 0x0 DUP1 PUSH2 0x100 EXP DUP2 SLOAD DUP2 PUSH20 0xFFFFFFFFFFFFFFFFFFFFFFFFFFFFFFFFFFFFFFFF MUL NOT AND SWAP1 DUP4 PUSH20 0xFFFFFFFFFFFFFFFFFFFFFFFFFFFFFFFFFFFFFFFF AND MUL OR SWAP1 SSTORE POP PUSH2 0x555 DUP1 PUSH2 0x60 PUSH1 0x0 CODECOPY PUSH1 0x0 RETURN INVALID PUSH1 0x80 PUSH1 0x40 MSTORE PUSH1 0x4 CALLDATASIZE LT PUSH2 0x29 JUMPI PUSH1 0x0 CALLDATALOAD PUSH1 0xE0 SHR DUP1 PUSH4 0x2A21E62E EQ PUSH2 0x2E JUMPI DUP1 PUSH4 0x5F176AB8 EQ PUSH2 0x57 JUMPI JUMPDEST PUSH1 0x0 DUP1 REVERT JUMPDEST CALLVALUE DUP1 ISZERO PUSH2 0x3A JUMPI PUSH1 0x0 DUP1 REVERT JUMPDEST POP PUSH2 0x55 PUSH1 0x4 DUP1 CALLDATASIZE SUB DUP2 ADD SWAP1 PUSH2 0x50 SWAP2 SWAP1 PUSH2 0x321 JUMP JUMPDEST PUSH2 0x73 JUMP JUMPDEST STOP JUMPDEST PUSH2 0x71 PUSH1 0x4 DUP1 CALLDATASIZE SUB DUP2 ADD SWAP1 PUSH2 0x6C SWAP2 SWAP1 PUSH2 0x29E JUMP JUMPDEST PUSH2 0x76 JUMP JUMPDEST STOP JUMPDEST POP JUMP JUMPDEST DUP3 PUSH1 0x5 PUSH1 0x0 DUP7 PUSH20 0xFFFFFFFFFFFFFFFFFFFFFFFFFFFFFFFFFFFFFFFF AND PUSH20 0xFFFFFFFFFFFFFFFFFFFFFFFFFFFFFFFFFFFFFFFF AND DUP2 MSTORE PUSH1 0x20 ADD SWAP1 DUP2 MSTORE PUSH1 0x20 ADD PUSH1 0x0 KECCAK256 PUSH1 0x1 ADD SWAP1 DUP1 MLOAD SWAP1 PUSH1 0x20 ADD SWAP1 PUSH2 0xCC SWAP3 SWAP2 SWAP1 PUSH2 0x161 JUMP JUMPDEST POP DUP2 PUSH1 0x5 PUSH1 0x0 DUP7 PUSH20 0xFFFFFFFFFFFFFFFFFFFFFFFFFFFFFFFFFFFFFFFF AND PUSH20 0xFFFFFFFFFFFFFFFFFFFFFFFFFFFFFFFFFFFFFFFF AND DUP2 MSTORE PUSH1 0x20 ADD SWAP1 DUP2 MSTORE PUSH1 0x20 ADD PUSH1 0x0 KECCAK256 PUSH1 0x2 ADD DUP2 SWAP1 SSTORE POP DUP1 PUSH1 0x5 PUSH1 0x0 DUP7 PUSH20 0xFFFFFFFFFFFFFFFFFFFFFFFFFFFFFFFFFFFFFFFF AND PUSH20 0xFFFFFFFFFFFFFFFFFFFFFFFFFFFFFFFFFFFFFFFF AND DUP2 MSTORE PUSH1 0x20 ADD SWAP1 DUP2 MSTORE PUSH1 0x20 ADD PUSH1 0x0 KECCAK256 PUSH1 0x3 ADD DUP2 SWAP1 SSTORE POP POP POP POP POP JUMP JUMPDEST DUP3 DUP1 SLOAD PUSH2 0x16D SWAP1 PUSH2 0x40B JUMP JUMPDEST SWAP1 PUSH1 0x0 MSTORE PUSH1 0x20 PUSH1 0x0 KECCAK256 SWAP1 PUSH1 0x1F ADD PUSH1 0x20 SWAP1 DIV DUP2 ADD SWAP3 DUP3 PUSH2 0x18F JUMPI PUSH1 0x0 DUP6 SSTORE PUSH2 0x1D6 JUMP JUMPDEST DUP3 PUSH1 0x1F LT PUSH2 0x1A8 JUMPI DUP1 MLOAD PUSH1 0xFF NOT AND DUP4 DUP1 ADD OR DUP6 SSTORE PUSH2 0x1D6 JUMP JUMPDEST DUP3 DUP1 ADD PUSH1 0x1 ADD DUP6 SSTORE DUP3 ISZERO PUSH2 0x1D6 JUMPI SWAP2 DUP3 ADD JUMPDEST DUP3 DUP2 GT ISZERO PUSH2 0x1D5 JUMPI DUP3 MLOAD DUP3 SSTORE SWAP2 PUSH1 0x20 ADD SWAP2 SWAP1 PUSH1 0x1 ADD SWAP1 PUSH2 0x1BA JUMP JUMPDEST JUMPDEST POP SWAP1 POP PUSH2 0x1E3 SWAP2 SWAP1 PUSH2 0x1E7 JUMP JUMPDEST POP SWAP1 JUMP JUMPDEST JUMPDEST DUP1 DUP3 GT ISZERO PUSH2 0x200 JUMPI PUSH1 0x0 DUP2 PUSH1 0x0 SWAP1 SSTORE POP PUSH1 0x1 ADD PUSH2 0x1E8 JUMP JUMPDEST POP SWAP1 JUMP JUMPDEST PUSH1 0x0 PUSH2 0x217 PUSH2 0x212 DUP5 PUSH2 0x38F JUMP JUMPDEST PUSH2 0x36A JUMP JUMPDEST SWAP1 POP DUP3 DUP2 MSTORE PUSH1 0x20 DUP2 ADD DUP5 DUP5 DUP5 ADD GT ISZERO PUSH2 0x233 JUMPI PUSH2 0x232 PUSH2 0x4D1 JUMP JUMPDEST JUMPDEST PUSH2 0x23E DUP5 DUP3 DUP6 PUSH2 0x3FC JUMP JUMPDEST POP SWAP4 SWAP3 POP POP POP JUMP JUMPDEST PUSH1 0x0 DUP2 CALLDATALOAD SWAP1 POP PUSH2 0x255 DUP2 PUSH2 0x4F1 JUMP JUMPDEST SWAP3 SWAP2 POP POP JUMP JUMPDEST PUSH1 0x0 DUP3 PUSH1 0x1F DUP4 ADD SLT PUSH2 0x270 JUMPI PUSH2 0x26F PUSH2 0x4CC JUMP JUMPDEST JUMPDEST DUP2 CALLDATALOAD PUSH2 0x280 DUP5 DUP3 PUSH1 0x20 DUP7 ADD PUSH2 0x204 JUMP JUMPDEST SWAP2 POP POP SWAP3 SWAP2 POP POP JUMP JUMPDEST PUSH1 0x0 DUP2 CALLDATALOAD SWAP1 POP PUSH2 0x298 DUP2 PUSH2 0x508 JUMP JUMPDEST SWAP3 SWAP2 POP POP JUMP JUMPDEST PUSH1 0x0 DUP1 PUSH1 0x0 DUP1 PUSH1 0x80 DUP6 DUP8 SUB SLT ISZERO PUSH2 0x2B8 JUMPI PUSH2 0x2B7 PUSH2 0x4DB JUMP JUMPDEST JUMPDEST PUSH1 0x0 PUSH2 0x2C6 DUP8 DUP3 DUP9 ADD PUSH2 0x246 JUMP JUMPDEST SWAP5 POP POP PUSH1 0x20 DUP6 ADD CALLDATALOAD PUSH8 0xFFFFFFFFFFFFFFFF DUP2 GT ISZERO PUSH2 0x2E7 JUMPI PUSH2 0x2E6 PUSH2 0x4D6 JUMP JUMPDEST JUMPDEST PUSH2 0x2F3 DUP8 DUP3 DUP9 ADD PUSH2 0x25B JUMP JUMPDEST SWAP4 POP POP PUSH1 0x40 PUSH2 0x304 DUP8 DUP3 DUP9 ADD PUSH2 0x289 JUMP JUMPDEST SWAP3 POP POP PUSH1 0x60 PUSH2 0x315 DUP8 DUP3 DUP9 ADD PUSH2 0x289 JUMP JUMPDEST SWAP2 POP POP SWAP3 SWAP6 SWAP2 SWAP5 POP SWAP3 POP JUMP JUMPDEST PUSH1 0x0 PUSH1 0x20 DUP3 DUP5 SUB SLT ISZERO PUSH2 0x337 JUMPI PUSH2 0x336 PUSH2 0x4DB JUMP JUMPDEST JUMPDEST PUSH1 0x0 DUP3 ADD CALLDATALOAD PUSH8 0xFFFFFFFFFFFFFFFF DUP2 GT ISZERO PUSH2 0x355 JUMPI PUSH2 0x354 PUSH2 0x4D6 JUMP JUMPDEST JUMPDEST PUSH2 0x361 DUP5 DUP3 DUP6 ADD PUSH2 0x25B JUMP JUMPDEST SWAP2 POP POP SWAP3 SWAP2 POP POP JUMP JUMPDEST PUSH1 0x0 PUSH2 0x374 PUSH2 0x385 JUMP JUMPDEST SWAP1 POP PUSH2 0x380 DUP3 DUP3 PUSH2 0x43D JUMP JUMPDEST SWAP2 SWAP1 POP JUMP JUMPDEST PUSH1 0x0 PUSH1 0x40 MLOAD SWAP1 POP SWAP1 JUMP JUMPDEST PUSH1 0x0 PUSH8 0xFFFFFFFFFFFFFFFF DUP3 GT ISZERO PUSH2 0x3AA JUMPI PUSH2 0x3A9 PUSH2 0x49D JUMP JUMPDEST JUMPDEST PUSH2 0x3B3 DUP3 PUSH2 0x4E0 JUMP JUMPDEST SWAP1 POP PUSH1 0x20 DUP2 ADD SWAP1 POP SWAP2 SWAP1 POP JUMP JUMPDEST PUSH1 0x0 PUSH2 0x3CB DUP3 PUSH2 0x3D2 JUMP JUMPDEST SWAP1 POP SWAP2 SWAP1 POP JUMP JUMPDEST PUSH1 0x0 PUSH20 0xFFFFFFFFFFFFFFFFFFFFFFFFFFFFFFFFFFFFFFFF DUP3 AND SWAP1 POP SWAP2 SWAP1 POP JUMP JUMPDEST PUSH1 0x0 DUP2 SWAP1 POP SWAP2 SWAP1 POP JUMP JUMPDEST DUP3 DUP2 DUP4 CALLDATACOPY PUSH1 0x0 DUP4 DUP4 ADD MSTORE POP POP POP JUMP JUMPDEST PUSH1 0x0 PUSH1 0x2 DUP3 DIV SWAP1 POP PUSH1 0x1 DUP3 AND DUP1 PUSH2 0x423 JUMPI PUSH1 0x7F DUP3 AND SWAP2 POP JUMPDEST PUSH1 0x20 DUP3 LT DUP2 EQ ISZERO PUSH2 0x437 JUMPI PUSH2 0x436 PUSH2 0x46E JUMP JUMPDEST JUMPDEST POP SWAP2 SWAP1 POP JUMP JUMPDEST PUSH2 0x446 DUP3 PUSH2 0x4E0 JUMP JUMPDEST DUP2 ADD DUP2 DUP2 LT PUSH8 0xFFFFFFFFFFFFFFFF DUP3 GT OR ISZERO PUSH2 0x465 JUMPI PUSH2 0x464 PUSH2 0x49D JUMP JUMPDEST JUMPDEST DUP1 PUSH1 0x40 MSTORE POP POP POP JUMP JUMPDEST PUSH32 0x4E487B7100000000000000000000000000000000000000000000000000000000 PUSH1 0x0 MSTORE PUSH1 0x22 PUSH1 0x4 MSTORE PUSH1 0x24 PUSH1 0x0 REVERT JUMPDEST PUSH32 0x4E487B7100000000000000000000000000000000000000000000000000000000 PUSH1 0x0 MSTORE PUSH1 0x41 PUSH1 0x4 MSTORE PUSH1 0x24 PUSH1 0x0 REVERT JUMPDEST PUSH1 0x0 DUP1 REVERT JUMPDEST PUSH1 0x0 DUP1 REVERT JUMPDEST PUSH1 0x0 DUP1 REVERT JUMPDEST PUSH1 0x0 DUP1 REVERT JUMPDEST PUSH1 0x0 PUSH1 0x1F NOT PUSH1 0x1F DUP4 ADD AND SWAP1 POP SWAP2 SWAP1 POP JUMP JUMPDEST PUSH2 0x4FA DUP2 PUSH2 0x3C0 JUMP JUMPDEST DUP2 EQ PUSH2 0x505 JUMPI PUSH1 0x0 DUP1 REVERT JUMPDEST POP JUMP JUMPDEST PUSH2 0x511 DUP2 PUSH2 0x3F2 JUMP JUMPDEST DUP2 EQ PUSH2 0x51C JUMPI PUSH1 0x0 DUP1 REVERT JUMPDEST POP JUMP INVALID LOG2 PUSH5 0x6970667358 0x22 SLT KECCAK256 0xCA 0x2D BLOCKHASH STATICCALL 0x5E 0xDD MULMOD DUP5 0xDC PUSH27 0xF4FDED774F4B55DB55495BCB18D771C0FE862FA83E6264736F6C63 NUMBER STOP ADDMOD SMOD STOP CALLER "
				},
				"gasEstimates": {
					"creation": {
						"codeDepositCost": "273000",
						"executionCost": "24578",
						"totalCost": "297578"
					},
					"external": {
						"createParcel(address,string,uint256,uint256)": "infinite",
						"mortgage(string)": "infinite"
					}
				},
				"methodIdentifiers": {
					"createParcel(address,string,uint256,uint256)": "5f176ab8",
					"mortgage(string)": "2a21e62e"
				}
			},
			"storageLayout": {
				"storage": [
					{
						"astId": 17,
						"contract": "contracts/Parcel.sol:Parcel",
						"label": "owner",
						"offset": 0,
						"slot": "0",
						"type": "t_address"
					},
					{
						"astId": 20,
						"contract": "contracts/Parcel.sol:Parcel",
						"label": "parcel_land",
						"offset": 0,
						"slot": "1",
						"type": "t_struct(Parcel_land)10_storage"
					},
					{
						"astId": 25,
						"contract": "contracts/Parcel.sol:Parcel",
						"label": "_parcel_land",
						"offset": 0,
						"slot": "5",
						"type": "t_mapping(t_address,t_struct(Parcel_land)10_storage)"
					}
				],
				"types": {
					"t_address": {
						"encoding": "inplace",
						"label": "address",
						"numberOfBytes": "20"
					},
					"t_mapping(t_address,t_struct(Parcel_land)10_storage)": {
						"encoding": "mapping",
						"key": "t_address",
						"label": "mapping(address => struct Parcel_land)",
						"numberOfBytes": "32",
						"value": "t_struct(Parcel_land)10_storage"
					},
					"t_string_storage": {
						"encoding": "bytes",
						"label": "string",
						"numberOfBytes": "32"
					},
					"t_struct(Parcel_land)10_storage": {
						"encoding": "inplace",
						"label": "struct Parcel_land",
						"members": [
							{
								"astId": 3,
								"contract": "contracts/Parcel.sol:Parcel",
								"label": "parcel_no",
								"offset": 0,
								"slot": "0",
								"type": "t_uint256"
							},
							{
								"astId": 5,
								"contract": "contracts/Parcel.sol:Parcel",
								"label": "owner_name",
								"offset": 0,
								"slot": "1",
								"type": "t_string_storage"
							},
							{
								"astId": 7,
								"contract": "contracts/Parcel.sol:Parcel",
								"label": "price",
								"offset": 0,
								"slot": "2",
								"type": "t_uint256"
							},
							{
								"astId": 9,
								"contract": "contracts/Parcel.sol:Parcel",
								"label": "area",
								"offset": 0,
								"slot": "3",
								"type": "t_uint256"
							}
						],
						"numberOfBytes": "128"
					},
					"t_uint256": {
						"encoding": "inplace",
						"label": "uint256",
						"numberOfBytes": "32"
					}
				}
			},
			"userdoc": {
				"kind": "user",
				"methods": {},
				"version": 1
			}
		}
	}
}