{
	"contracts/Parcel.sol": {
		"Parcel": {
			"abi": [
				{
					"inputs": [],
					"stateMutability": "nonpayable",
					"type": "constructor"
				},
				{
					"inputs": [
						{
							"internalType": "uint256",
							"name": "parcel_no",
							"type": "uint256"
						},
						{
							"internalType": "string",
							"name": "owner_name",
							"type": "string"
						},
						{
							"internalType": "uint256",
							"name": "price",
							"type": "uint256"
						},
						{
							"internalType": "uint256",
							"name": "area",
							"type": "uint256"
						}
					],
					"name": "createParcel",
					"outputs": [],
					"stateMutability": "payable",
					"type": "function"
				},
				{
					"inputs": [],
					"name": "getParcel",
					"outputs": [
						{
							"components": [
								{
									"internalType": "uint256",
									"name": "parcel_no",
									"type": "uint256"
								},
								{
									"internalType": "string",
									"name": "owner_name",
									"type": "string"
								},
								{
									"internalType": "uint256",
									"name": "price",
									"type": "uint256"
								},
								{
									"internalType": "uint256",
									"name": "area",
									"type": "uint256"
								}
							],
							"internalType": "struct Parcel_land",
							"name": "parcel_land",
							"type": "tuple"
						}
					],
					"stateMutability": "view",
					"type": "function"
				},
				{
					"inputs": [
						{
							"internalType": "string",
							"name": "owner_name",
							"type": "string"
						},
						{
							"internalType": "uint256",
							"name": "price",
							"type": "uint256"
						}
					],
					"name": "mortgage",
					"outputs": [],
					"stateMutability": "payable",
					"type": "function"
				}
			],
			"devdoc": {
				"kind": "dev",
				"methods": {},
				"version": 1
			},
			"evm": {
				"assembly": "    /* \"contracts/Parcel.sol\":265:1923  contract Parcel {\r... */\n  mstore(0x40, 0x80)\n    /* \"contracts/Parcel.sol\":394:445  constructor() {\r... */\n  callvalue\n  dup1\n  iszero\n  tag_1\n  jumpi\n  0x00\n  dup1\n  revert\ntag_1:\n  pop\n    /* \"contracts/Parcel.sol\":427:437  msg.sender */\n  caller\n    /* \"contracts/Parcel.sol\":419:424  owner */\n  0x00\n  dup1\n    /* \"contracts/Parcel.sol\":419:437  owner = msg.sender */\n  0x0100\n  exp\n  dup2\n  sload\n  dup2\n  0xffffffffffffffffffffffffffffffffffffffff\n  mul\n  not\n  and\n  swap1\n  dup4\n  0xffffffffffffffffffffffffffffffffffffffff\n  and\n  mul\n  or\n  swap1\n  sstore\n  pop\n    /* \"contracts/Parcel.sol\":265:1923  contract Parcel {\r... */\n  dataSize(sub_0)\n  dup1\n  dataOffset(sub_0)\n  0x00\n  codecopy\n  0x00\n  return\nstop\n\nsub_0: assembly {\n        /* \"contracts/Parcel.sol\":265:1923  contract Parcel {\r... */\n      mstore(0x40, 0x80)\n      jumpi(tag_1, lt(calldatasize, 0x04))\n      shr(0xe0, calldataload(0x00))\n      dup1\n      0x466911e6\n      eq\n      tag_2\n      jumpi\n      dup1\n      0x4854e056\n      eq\n      tag_3\n      jumpi\n      dup1\n      0xbfd6843d\n      eq\n      tag_4\n      jumpi\n    tag_1:\n      0x00\n      dup1\n      revert\n        /* \"contracts/Parcel.sol\":956:1075  function getParcel() public view returns (Parcel_land memory parcel_land) {\r... */\n    tag_2:\n      callvalue\n      dup1\n      iszero\n      tag_5\n      jumpi\n      0x00\n      dup1\n      revert\n    tag_5:\n      pop\n      tag_6\n      tag_7\n      jump\t// in\n    tag_6:\n      mload(0x40)\n      tag_8\n      swap2\n      swap1\n      tag_9\n      jump\t// in\n    tag_8:\n      mload(0x40)\n      dup1\n      swap2\n      sub\n      swap1\n      return\n        /* \"contracts/Parcel.sol\":650:948  function createParcel(uint parcel_no, string memory owner_name, uint price, uint area) public payable {\r... */\n    tag_3:\n      tag_10\n      0x04\n      dup1\n      calldatasize\n      sub\n      dup2\n      add\n      swap1\n      tag_11\n      swap2\n      swap1\n      tag_12\n      jump\t// in\n    tag_11:\n      tag_13\n      jump\t// in\n    tag_10:\n      stop\n        /* \"contracts/Parcel.sol\":1208:1437  function mortgage(string memory owner_name, uint price) isOwner public payable {\r... */\n    tag_4:\n      tag_14\n      0x04\n      dup1\n      calldatasize\n      sub\n      dup2\n      add\n      swap1\n      tag_15\n      swap2\n      swap1\n      tag_16\n      jump\t// in\n    tag_15:\n      tag_17\n      jump\t// in\n    tag_14:\n      stop\n        /* \"contracts/Parcel.sol\":956:1075  function getParcel() public view returns (Parcel_land memory parcel_land) {\r... */\n    tag_7:\n        /* \"contracts/Parcel.sol\":998:1028  Parcel_land memory parcel_land */\n      tag_18\n      tag_19\n      jump\t// in\n    tag_18:\n        /* \"contracts/Parcel.sol\":1048:1060  _parcel_land */\n      0x01\n        /* \"contracts/Parcel.sol\":1048:1067  _parcel_land[owner] */\n      0x00\n        /* \"contracts/Parcel.sol\":1061:1066  owner */\n      dup1\n      0x00\n      swap1\n      sload\n      swap1\n      0x0100\n      exp\n      swap1\n      div\n      0xffffffffffffffffffffffffffffffffffffffff\n      and\n        /* \"contracts/Parcel.sol\":1048:1067  _parcel_land[owner] */\n      0xffffffffffffffffffffffffffffffffffffffff\n      and\n      0xffffffffffffffffffffffffffffffffffffffff\n      and\n      dup2\n      mstore\n      0x20\n      add\n      swap1\n      dup2\n      mstore\n      0x20\n      add\n      0x00\n      keccak256\n        /* \"contracts/Parcel.sol\":1041:1067  return _parcel_land[owner] */\n      mload(0x40)\n      dup1\n      0x80\n      add\n      0x40\n      mstore\n      swap1\n      dup2\n      0x00\n      dup3\n      add\n      sload\n      dup2\n      mstore\n      0x20\n      add\n      0x01\n      dup3\n      add\n      dup1\n      sload\n      tag_21\n      swap1\n      tag_22\n      jump\t// in\n    tag_21:\n      dup1\n      0x1f\n      add\n      0x20\n      dup1\n      swap2\n      div\n      mul\n      0x20\n      add\n      mload(0x40)\n      swap1\n      dup2\n      add\n      0x40\n      mstore\n      dup1\n      swap3\n      swap2\n      swap1\n      dup2\n      dup2\n      mstore\n      0x20\n      add\n      dup3\n      dup1\n      sload\n      tag_23\n      swap1\n      tag_22\n      jump\t// in\n    tag_23:\n      dup1\n      iszero\n      tag_24\n      jumpi\n      dup1\n      0x1f\n      lt\n      tag_25\n      jumpi\n      0x0100\n      dup1\n      dup4\n      sload\n      div\n      mul\n      dup4\n      mstore\n      swap2\n      0x20\n      add\n      swap2\n      jump(tag_24)\n    tag_25:\n      dup3\n      add\n      swap2\n      swap1\n      0x00\n      mstore\n      keccak256(0x00, 0x20)\n      swap1\n    tag_26:\n      dup2\n      sload\n      dup2\n      mstore\n      swap1\n      0x01\n      add\n      swap1\n      0x20\n      add\n      dup1\n      dup4\n      gt\n      tag_26\n      jumpi\n      dup3\n      swap1\n      sub\n      0x1f\n      and\n      dup3\n      add\n      swap2\n    tag_24:\n      pop\n      pop\n      pop\n      pop\n      pop\n      dup2\n      mstore\n      0x20\n      add\n      0x02\n      dup3\n      add\n      sload\n      dup2\n      mstore\n      0x20\n      add\n      0x03\n      dup3\n      add\n      sload\n      dup2\n      mstore\n      pop\n      pop\n      swap1\n      pop\n        /* \"contracts/Parcel.sol\":956:1075  function getParcel() public view returns (Parcel_land memory parcel_land) {\r... */\n      swap1\n      jump\t// out\n        /* \"contracts/Parcel.sol\":650:948  function createParcel(uint parcel_no, string memory owner_name, uint price, uint area) public payable {\r... */\n    tag_13:\n        /* \"contracts/Parcel.sol\":794:803  parcel_no */\n      dup4\n        /* \"contracts/Parcel.sol\":762:774  _parcel_land */\n      0x01\n        /* \"contracts/Parcel.sol\":762:781  _parcel_land[owner] */\n      0x00\n        /* \"contracts/Parcel.sol\":775:780  owner */\n      dup1\n      0x00\n      swap1\n      sload\n      swap1\n      0x0100\n      exp\n      swap1\n      div\n      0xffffffffffffffffffffffffffffffffffffffff\n      and\n        /* \"contracts/Parcel.sol\":762:781  _parcel_land[owner] */\n      0xffffffffffffffffffffffffffffffffffffffff\n      and\n      0xffffffffffffffffffffffffffffffffffffffff\n      and\n      dup2\n      mstore\n      0x20\n      add\n      swap1\n      dup2\n      mstore\n      0x20\n      add\n      0x00\n      keccak256\n        /* \"contracts/Parcel.sol\":762:791  _parcel_land[owner].parcel_no */\n      0x00\n      add\n        /* \"contracts/Parcel.sol\":762:803  _parcel_land[owner].parcel_no = parcel_no */\n      dup2\n      swap1\n      sstore\n      pop\n        /* \"contracts/Parcel.sol\":846:856  owner_name */\n      dup3\n        /* \"contracts/Parcel.sol\":813:825  _parcel_land */\n      0x01\n        /* \"contracts/Parcel.sol\":813:832  _parcel_land[owner] */\n      0x00\n        /* \"contracts/Parcel.sol\":826:831  owner */\n      dup1\n      0x00\n      swap1\n      sload\n      swap1\n      0x0100\n      exp\n      swap1\n      div\n      0xffffffffffffffffffffffffffffffffffffffff\n      and\n        /* \"contracts/Parcel.sol\":813:832  _parcel_land[owner] */\n      0xffffffffffffffffffffffffffffffffffffffff\n      and\n      0xffffffffffffffffffffffffffffffffffffffff\n      and\n      dup2\n      mstore\n      0x20\n      add\n      swap1\n      dup2\n      mstore\n      0x20\n      add\n      0x00\n      keccak256\n        /* \"contracts/Parcel.sol\":813:843  _parcel_land[owner].owner_name */\n      0x01\n      add\n        /* \"contracts/Parcel.sol\":813:856  _parcel_land[owner].owner_name = owner_name */\n      swap1\n      dup1\n      mload\n      swap1\n      0x20\n      add\n      swap1\n      tag_28\n      swap3\n      swap2\n      swap1\n      tag_29\n      jump\t// in\n    tag_28:\n      pop\n        /* \"contracts/Parcel.sol\":894:899  price */\n      dup2\n        /* \"contracts/Parcel.sol\":866:878  _parcel_land */\n      0x01\n        /* \"contracts/Parcel.sol\":866:885  _parcel_land[owner] */\n      0x00\n        /* \"contracts/Parcel.sol\":879:884  owner */\n      dup1\n      0x00\n      swap1\n      sload\n      swap1\n      0x0100\n      exp\n      swap1\n      div\n      0xffffffffffffffffffffffffffffffffffffffff\n      and\n        /* \"contracts/Parcel.sol\":866:885  _parcel_land[owner] */\n      0xffffffffffffffffffffffffffffffffffffffff\n      and\n      0xffffffffffffffffffffffffffffffffffffffff\n      and\n      dup2\n      mstore\n      0x20\n      add\n      swap1\n      dup2\n      mstore\n      0x20\n      add\n      0x00\n      keccak256\n        /* \"contracts/Parcel.sol\":866:891  _parcel_land[owner].price */\n      0x02\n      add\n        /* \"contracts/Parcel.sol\":866:899  _parcel_land[owner].price = price */\n      dup2\n      swap1\n      sstore\n      pop\n        /* \"contracts/Parcel.sol\":936:940  area */\n      dup1\n        /* \"contracts/Parcel.sol\":909:921  _parcel_land */\n      0x01\n        /* \"contracts/Parcel.sol\":909:928  _parcel_land[owner] */\n      0x00\n        /* \"contracts/Parcel.sol\":922:927  owner */\n      dup1\n      0x00\n      swap1\n      sload\n      swap1\n      0x0100\n      exp\n      swap1\n      div\n      0xffffffffffffffffffffffffffffffffffffffff\n      and\n        /* \"contracts/Parcel.sol\":909:928  _parcel_land[owner] */\n      0xffffffffffffffffffffffffffffffffffffffff\n      and\n      0xffffffffffffffffffffffffffffffffffffffff\n      and\n      dup2\n      mstore\n      0x20\n      add\n      swap1\n      dup2\n      mstore\n      0x20\n      add\n      0x00\n      keccak256\n        /* \"contracts/Parcel.sol\":909:933  _parcel_land[owner].area */\n      0x03\n      add\n        /* \"contracts/Parcel.sol\":909:940  _parcel_land[owner].area = area */\n      dup2\n      swap1\n      sstore\n      pop\n        /* \"contracts/Parcel.sol\":650:948  function createParcel(uint parcel_no, string memory owner_name, uint price, uint area) public payable {\r... */\n      pop\n      pop\n      pop\n      pop\n      jump\t// out\n        /* \"contracts/Parcel.sol\":1208:1437  function mortgage(string memory owner_name, uint price) isOwner public payable {\r... */\n    tag_17:\n        /* \"contracts/Parcel.sol\":503:508  owner */\n      0x00\n      dup1\n      sload\n      swap1\n      0x0100\n      exp\n      swap1\n      div\n      0xffffffffffffffffffffffffffffffffffffffff\n      and\n        /* \"contracts/Parcel.sol\":489:508  msg.sender == owner */\n      0xffffffffffffffffffffffffffffffffffffffff\n      and\n        /* \"contracts/Parcel.sol\":489:499  msg.sender */\n      caller\n        /* \"contracts/Parcel.sol\":489:508  msg.sender == owner */\n      0xffffffffffffffffffffffffffffffffffffffff\n      and\n      eq\n        /* \"contracts/Parcel.sol\":481:538  require(msg.sender == owner, \"You are not parcel owner.\") */\n      tag_31\n      jumpi\n      mload(0x40)\n      0x08c379a000000000000000000000000000000000000000000000000000000000\n      dup2\n      mstore\n      0x04\n      add\n      tag_32\n      swap1\n      tag_33\n      jump\t// in\n    tag_32:\n      mload(0x40)\n      dup1\n      swap2\n      sub\n      swap1\n      revert\n    tag_31:\n        /* \"contracts/Parcel.sol\":1331:1341  owner_name */\n      dup2\n        /* \"contracts/Parcel.sol\":1298:1310  _parcel_land */\n      0x01\n        /* \"contracts/Parcel.sol\":1298:1317  _parcel_land[owner] */\n      0x00\n        /* \"contracts/Parcel.sol\":1311:1316  owner */\n      dup1\n      0x00\n      swap1\n      sload\n      swap1\n      0x0100\n      exp\n      swap1\n      div\n      0xffffffffffffffffffffffffffffffffffffffff\n      and\n        /* \"contracts/Parcel.sol\":1298:1317  _parcel_land[owner] */\n      0xffffffffffffffffffffffffffffffffffffffff\n      and\n      0xffffffffffffffffffffffffffffffffffffffff\n      and\n      dup2\n      mstore\n      0x20\n      add\n      swap1\n      dup2\n      mstore\n      0x20\n      add\n      0x00\n      keccak256\n        /* \"contracts/Parcel.sol\":1298:1328  _parcel_land[owner].owner_name */\n      0x01\n      add\n        /* \"contracts/Parcel.sol\":1298:1341  _parcel_land[owner].owner_name = owner_name */\n      swap1\n      dup1\n      mload\n      swap1\n      0x20\n      add\n      swap1\n      tag_35\n      swap3\n      swap2\n      swap1\n      tag_29\n      jump\t// in\n    tag_35:\n      pop\n        /* \"contracts/Parcel.sol\":1377:1387  owner_name */\n      dup2\n        /* \"contracts/Parcel.sol\":1352:1357  _olgt */\n      0x02\n        /* \"contracts/Parcel.sol\":1352:1364  _olgt[owner] */\n      0x00\n        /* \"contracts/Parcel.sol\":1358:1363  owner */\n      dup1\n      0x00\n      swap1\n      sload\n      swap1\n      0x0100\n      exp\n      swap1\n      div\n      0xffffffffffffffffffffffffffffffffffffffff\n      and\n        /* \"contracts/Parcel.sol\":1352:1364  _olgt[owner] */\n      0xffffffffffffffffffffffffffffffffffffffff\n      and\n      0xffffffffffffffffffffffffffffffffffffffff\n      and\n      dup2\n      mstore\n      0x20\n      add\n      swap1\n      dup2\n      mstore\n      0x20\n      add\n      0x00\n      keccak256\n        /* \"contracts/Parcel.sol\":1352:1374  _olgt[owner].olgt_name */\n      0x00\n      add\n        /* \"contracts/Parcel.sol\":1352:1387  _olgt[owner].olgt_name = owner_name */\n      swap1\n      dup1\n      mload\n      swap1\n      0x20\n      add\n      swap1\n      tag_36\n      swap3\n      swap2\n      swap1\n      tag_29\n      jump\t// in\n    tag_36:\n      pop\n        /* \"contracts/Parcel.sol\":1424:1429  price */\n      dup1\n        /* \"contracts/Parcel.sol\":1398:1403  _olgt */\n      0x02\n        /* \"contracts/Parcel.sol\":1398:1410  _olgt[owner] */\n      0x00\n        /* \"contracts/Parcel.sol\":1404:1409  owner */\n      dup1\n      0x00\n      swap1\n      sload\n      swap1\n      0x0100\n      exp\n      swap1\n      div\n      0xffffffffffffffffffffffffffffffffffffffff\n      and\n        /* \"contracts/Parcel.sol\":1398:1410  _olgt[owner] */\n      0xffffffffffffffffffffffffffffffffffffffff\n      and\n      0xffffffffffffffffffffffffffffffffffffffff\n      and\n      dup2\n      mstore\n      0x20\n      add\n      swap1\n      dup2\n      mstore\n      0x20\n      add\n      0x00\n      keccak256\n        /* \"contracts/Parcel.sol\":1398:1421  _olgt[owner].olgt_price */\n      0x01\n      add\n        /* \"contracts/Parcel.sol\":1398:1429  _olgt[owner].olgt_price = price */\n      dup2\n      swap1\n      sstore\n      pop\n        /* \"contracts/Parcel.sol\":1208:1437  function mortgage(string memory owner_name, uint price) isOwner public payable {\r... */\n      pop\n      pop\n      jump\t// out\n    tag_19:\n      mload(0x40)\n      dup1\n      0x80\n      add\n      0x40\n      mstore\n      dup1\n      0x00\n      dup2\n      mstore\n      0x20\n      add\n      0x60\n      dup2\n      mstore\n      0x20\n      add\n      0x00\n      dup2\n      mstore\n      0x20\n      add\n      0x00\n      dup2\n      mstore\n      pop\n      swap1\n      jump\t// out\n    tag_29:\n      dup3\n      dup1\n      sload\n      tag_37\n      swap1\n      tag_22\n      jump\t// in\n    tag_37:\n      swap1\n      0x00\n      mstore\n      keccak256(0x00, 0x20)\n      swap1\n      0x1f\n      add\n      0x20\n      swap1\n      div\n      dup2\n      add\n      swap3\n      dup3\n      tag_39\n      jumpi\n      0x00\n      dup6\n      sstore\n      jump(tag_38)\n    tag_39:\n      dup3\n      0x1f\n      lt\n      tag_40\n      jumpi\n      dup1\n      mload\n      not(0xff)\n      and\n      dup4\n      dup1\n      add\n      or\n      dup6\n      sstore\n      jump(tag_38)\n    tag_40:\n      dup3\n      dup1\n      add\n      0x01\n      add\n      dup6\n      sstore\n      dup3\n      iszero\n      tag_38\n      jumpi\n      swap2\n      dup3\n      add\n    tag_41:\n      dup3\n      dup2\n      gt\n      iszero\n      tag_42\n      jumpi\n      dup3\n      mload\n      dup3\n      sstore\n      swap2\n      0x20\n      add\n      swap2\n      swap1\n      0x01\n      add\n      swap1\n      jump(tag_41)\n    tag_42:\n    tag_38:\n      pop\n      swap1\n      pop\n      tag_43\n      swap2\n      swap1\n      tag_44\n      jump\t// in\n    tag_43:\n      pop\n      swap1\n      jump\t// out\n    tag_44:\n    tag_45:\n      dup1\n      dup3\n      gt\n      iszero\n      tag_46\n      jumpi\n      0x00\n      dup2\n      0x00\n      swap1\n      sstore\n      pop\n      0x01\n      add\n      jump(tag_45)\n    tag_46:\n      pop\n      swap1\n      jump\t// out\n        /* \"#utility.yul\":7:419   */\n    tag_48:\n        /* \"#utility.yul\":85:90   */\n      0x00\n        /* \"#utility.yul\":110:176   */\n      tag_50\n        /* \"#utility.yul\":126:175   */\n      tag_51\n        /* \"#utility.yul\":168:174   */\n      dup5\n        /* \"#utility.yul\":126:175   */\n      tag_52\n      jump\t// in\n    tag_51:\n        /* \"#utility.yul\":110:176   */\n      tag_53\n      jump\t// in\n    tag_50:\n        /* \"#utility.yul\":101:176   */\n      swap1\n      pop\n        /* \"#utility.yul\":199:205   */\n      dup3\n        /* \"#utility.yul\":192:197   */\n      dup2\n        /* \"#utility.yul\":185:206   */\n      mstore\n        /* \"#utility.yul\":237:241   */\n      0x20\n        /* \"#utility.yul\":230:235   */\n      dup2\n        /* \"#utility.yul\":226:242   */\n      add\n        /* \"#utility.yul\":275:278   */\n      dup5\n        /* \"#utility.yul\":266:272   */\n      dup5\n        /* \"#utility.yul\":261:264   */\n      dup5\n        /* \"#utility.yul\":257:273   */\n      add\n        /* \"#utility.yul\":254:279   */\n      gt\n        /* \"#utility.yul\":251:363   */\n      iszero\n      tag_54\n      jumpi\n        /* \"#utility.yul\":282:361   */\n      tag_55\n      tag_56\n      jump\t// in\n    tag_55:\n        /* \"#utility.yul\":251:363   */\n    tag_54:\n        /* \"#utility.yul\":372:413   */\n      tag_57\n        /* \"#utility.yul\":406:412   */\n      dup5\n        /* \"#utility.yul\":401:404   */\n      dup3\n        /* \"#utility.yul\":396:399   */\n      dup6\n        /* \"#utility.yul\":372:413   */\n      tag_58\n      jump\t// in\n    tag_57:\n        /* \"#utility.yul\":91:419   */\n      pop\n        /* \"#utility.yul\":7:419   */\n      swap4\n      swap3\n      pop\n      pop\n      pop\n      jump\t// out\n        /* \"#utility.yul\":439:779   */\n    tag_59:\n        /* \"#utility.yul\":495:500   */\n      0x00\n        /* \"#utility.yul\":544:547   */\n      dup3\n        /* \"#utility.yul\":537:541   */\n      0x1f\n        /* \"#utility.yul\":529:535   */\n      dup4\n        /* \"#utility.yul\":525:542   */\n      add\n        /* \"#utility.yul\":521:548   */\n      slt\n        /* \"#utility.yul\":511:633   */\n      tag_61\n      jumpi\n        /* \"#utility.yul\":552:631   */\n      tag_62\n      tag_63\n      jump\t// in\n    tag_62:\n        /* \"#utility.yul\":511:633   */\n    tag_61:\n        /* \"#utility.yul\":669:675   */\n      dup2\n        /* \"#utility.yul\":656:676   */\n      calldataload\n        /* \"#utility.yul\":694:773   */\n      tag_64\n        /* \"#utility.yul\":769:772   */\n      dup5\n        /* \"#utility.yul\":761:767   */\n      dup3\n        /* \"#utility.yul\":754:758   */\n      0x20\n        /* \"#utility.yul\":746:752   */\n      dup7\n        /* \"#utility.yul\":742:759   */\n      add\n        /* \"#utility.yul\":694:773   */\n      tag_48\n      jump\t// in\n    tag_64:\n        /* \"#utility.yul\":685:773   */\n      swap2\n      pop\n        /* \"#utility.yul\":501:779   */\n      pop\n        /* \"#utility.yul\":439:779   */\n      swap3\n      swap2\n      pop\n      pop\n      jump\t// out\n        /* \"#utility.yul\":785:924   */\n    tag_65:\n        /* \"#utility.yul\":831:836   */\n      0x00\n        /* \"#utility.yul\":869:875   */\n      dup2\n        /* \"#utility.yul\":856:876   */\n      calldataload\n        /* \"#utility.yul\":847:876   */\n      swap1\n      pop\n        /* \"#utility.yul\":885:918   */\n      tag_67\n        /* \"#utility.yul\":912:917   */\n      dup2\n        /* \"#utility.yul\":885:918   */\n      tag_68\n      jump\t// in\n    tag_67:\n        /* \"#utility.yul\":785:924   */\n      swap3\n      swap2\n      pop\n      pop\n      jump\t// out\n        /* \"#utility.yul\":930:1584   */\n    tag_16:\n        /* \"#utility.yul\":1008:1014   */\n      0x00\n        /* \"#utility.yul\":1016:1022   */\n      dup1\n        /* \"#utility.yul\":1065:1067   */\n      0x40\n        /* \"#utility.yul\":1053:1062   */\n      dup4\n        /* \"#utility.yul\":1044:1051   */\n      dup6\n        /* \"#utility.yul\":1040:1063   */\n      sub\n        /* \"#utility.yul\":1036:1068   */\n      slt\n        /* \"#utility.yul\":1033:1152   */\n      iszero\n      tag_70\n      jumpi\n        /* \"#utility.yul\":1071:1150   */\n      tag_71\n      tag_72\n      jump\t// in\n    tag_71:\n        /* \"#utility.yul\":1033:1152   */\n    tag_70:\n        /* \"#utility.yul\":1219:1220   */\n      0x00\n        /* \"#utility.yul\":1208:1217   */\n      dup4\n        /* \"#utility.yul\":1204:1221   */\n      add\n        /* \"#utility.yul\":1191:1222   */\n      calldataload\n        /* \"#utility.yul\":1249:1267   */\n      0xffffffffffffffff\n        /* \"#utility.yul\":1241:1247   */\n      dup2\n        /* \"#utility.yul\":1238:1268   */\n      gt\n        /* \"#utility.yul\":1235:1352   */\n      iszero\n      tag_73\n      jumpi\n        /* \"#utility.yul\":1271:1350   */\n      tag_74\n      tag_75\n      jump\t// in\n    tag_74:\n        /* \"#utility.yul\":1235:1352   */\n    tag_73:\n        /* \"#utility.yul\":1376:1439   */\n      tag_76\n        /* \"#utility.yul\":1431:1438   */\n      dup6\n        /* \"#utility.yul\":1422:1428   */\n      dup3\n        /* \"#utility.yul\":1411:1420   */\n      dup7\n        /* \"#utility.yul\":1407:1429   */\n      add\n        /* \"#utility.yul\":1376:1439   */\n      tag_59\n      jump\t// in\n    tag_76:\n        /* \"#utility.yul\":1366:1439   */\n      swap3\n      pop\n        /* \"#utility.yul\":1162:1449   */\n      pop\n        /* \"#utility.yul\":1488:1490   */\n      0x20\n        /* \"#utility.yul\":1514:1567   */\n      tag_77\n        /* \"#utility.yul\":1559:1566   */\n      dup6\n        /* \"#utility.yul\":1550:1556   */\n      dup3\n        /* \"#utility.yul\":1539:1548   */\n      dup7\n        /* \"#utility.yul\":1535:1557   */\n      add\n        /* \"#utility.yul\":1514:1567   */\n      tag_65\n      jump\t// in\n    tag_77:\n        /* \"#utility.yul\":1504:1567   */\n      swap2\n      pop\n        /* \"#utility.yul\":1459:1577   */\n      pop\n        /* \"#utility.yul\":930:1584   */\n      swap3\n      pop\n      swap3\n      swap1\n      pop\n      jump\t// out\n        /* \"#utility.yul\":1590:2535   */\n    tag_12:\n        /* \"#utility.yul\":1686:1692   */\n      0x00\n        /* \"#utility.yul\":1694:1700   */\n      dup1\n        /* \"#utility.yul\":1702:1708   */\n      0x00\n        /* \"#utility.yul\":1710:1716   */\n      dup1\n        /* \"#utility.yul\":1759:1762   */\n      0x80\n        /* \"#utility.yul\":1747:1756   */\n      dup6\n        /* \"#utility.yul\":1738:1745   */\n      dup8\n        /* \"#utility.yul\":1734:1757   */\n      sub\n        /* \"#utility.yul\":1730:1763   */\n      slt\n        /* \"#utility.yul\":1727:1847   */\n      iszero\n      tag_79\n      jumpi\n        /* \"#utility.yul\":1766:1845   */\n      tag_80\n      tag_72\n      jump\t// in\n    tag_80:\n        /* \"#utility.yul\":1727:1847   */\n    tag_79:\n        /* \"#utility.yul\":1886:1887   */\n      0x00\n        /* \"#utility.yul\":1911:1964   */\n      tag_81\n        /* \"#utility.yul\":1956:1963   */\n      dup8\n        /* \"#utility.yul\":1947:1953   */\n      dup3\n        /* \"#utility.yul\":1936:1945   */\n      dup9\n        /* \"#utility.yul\":1932:1954   */\n      add\n        /* \"#utility.yul\":1911:1964   */\n      tag_65\n      jump\t// in\n    tag_81:\n        /* \"#utility.yul\":1901:1964   */\n      swap5\n      pop\n        /* \"#utility.yul\":1857:1974   */\n      pop\n        /* \"#utility.yul\":2041:2043   */\n      0x20\n        /* \"#utility.yul\":2030:2039   */\n      dup6\n        /* \"#utility.yul\":2026:2044   */\n      add\n        /* \"#utility.yul\":2013:2045   */\n      calldataload\n        /* \"#utility.yul\":2072:2090   */\n      0xffffffffffffffff\n        /* \"#utility.yul\":2064:2070   */\n      dup2\n        /* \"#utility.yul\":2061:2091   */\n      gt\n        /* \"#utility.yul\":2058:2175   */\n      iszero\n      tag_82\n      jumpi\n        /* \"#utility.yul\":2094:2173   */\n      tag_83\n      tag_75\n      jump\t// in\n    tag_83:\n        /* \"#utility.yul\":2058:2175   */\n    tag_82:\n        /* \"#utility.yul\":2199:2262   */\n      tag_84\n        /* \"#utility.yul\":2254:2261   */\n      dup8\n        /* \"#utility.yul\":2245:2251   */\n      dup3\n        /* \"#utility.yul\":2234:2243   */\n      dup9\n        /* \"#utility.yul\":2230:2252   */\n      add\n        /* \"#utility.yul\":2199:2262   */\n      tag_59\n      jump\t// in\n    tag_84:\n        /* \"#utility.yul\":2189:2262   */\n      swap4\n      pop\n        /* \"#utility.yul\":1984:2272   */\n      pop\n        /* \"#utility.yul\":2311:2313   */\n      0x40\n        /* \"#utility.yul\":2337:2390   */\n      tag_85\n        /* \"#utility.yul\":2382:2389   */\n      dup8\n        /* \"#utility.yul\":2373:2379   */\n      dup3\n        /* \"#utility.yul\":2362:2371   */\n      dup9\n        /* \"#utility.yul\":2358:2380   */\n      add\n        /* \"#utility.yul\":2337:2390   */\n      tag_65\n      jump\t// in\n    tag_85:\n        /* \"#utility.yul\":2327:2390   */\n      swap3\n      pop\n        /* \"#utility.yul\":2282:2400   */\n      pop\n        /* \"#utility.yul\":2439:2441   */\n      0x60\n        /* \"#utility.yul\":2465:2518   */\n      tag_86\n        /* \"#utility.yul\":2510:2517   */\n      dup8\n        /* \"#utility.yul\":2501:2507   */\n      dup3\n        /* \"#utility.yul\":2490:2499   */\n      dup9\n        /* \"#utility.yul\":2486:2508   */\n      add\n        /* \"#utility.yul\":2465:2518   */\n      tag_65\n      jump\t// in\n    tag_86:\n        /* \"#utility.yul\":2455:2518   */\n      swap2\n      pop\n        /* \"#utility.yul\":2410:2528   */\n      pop\n        /* \"#utility.yul\":1590:2535   */\n      swap3\n      swap6\n      swap2\n      swap5\n      pop\n      swap3\n      pop\n      jump\t// out\n        /* \"#utility.yul\":2541:2885   */\n    tag_87:\n        /* \"#utility.yul\":2619:2622   */\n      0x00\n        /* \"#utility.yul\":2647:2686   */\n      tag_89\n        /* \"#utility.yul\":2680:2685   */\n      dup3\n        /* \"#utility.yul\":2647:2686   */\n      tag_90\n      jump\t// in\n    tag_89:\n        /* \"#utility.yul\":2702:2763   */\n      tag_91\n        /* \"#utility.yul\":2756:2762   */\n      dup2\n        /* \"#utility.yul\":2751:2754   */\n      dup6\n        /* \"#utility.yul\":2702:2763   */\n      tag_92\n      jump\t// in\n    tag_91:\n        /* \"#utility.yul\":2695:2763   */\n      swap4\n      pop\n        /* \"#utility.yul\":2772:2824   */\n      tag_93\n        /* \"#utility.yul\":2817:2823   */\n      dup2\n        /* \"#utility.yul\":2812:2815   */\n      dup6\n        /* \"#utility.yul\":2805:2809   */\n      0x20\n        /* \"#utility.yul\":2798:2803   */\n      dup7\n        /* \"#utility.yul\":2794:2810   */\n      add\n        /* \"#utility.yul\":2772:2824   */\n      tag_94\n      jump\t// in\n    tag_93:\n        /* \"#utility.yul\":2849:2878   */\n      tag_95\n        /* \"#utility.yul\":2871:2877   */\n      dup2\n        /* \"#utility.yul\":2849:2878   */\n      tag_96\n      jump\t// in\n    tag_95:\n        /* \"#utility.yul\":2844:2847   */\n      dup5\n        /* \"#utility.yul\":2840:2879   */\n      add\n        /* \"#utility.yul\":2833:2879   */\n      swap2\n      pop\n        /* \"#utility.yul\":2623:2885   */\n      pop\n        /* \"#utility.yul\":2541:2885   */\n      swap3\n      swap2\n      pop\n      pop\n      jump\t// out\n        /* \"#utility.yul\":2891:3257   */\n    tag_97:\n        /* \"#utility.yul\":3033:3036   */\n      0x00\n        /* \"#utility.yul\":3054:3121   */\n      tag_99\n        /* \"#utility.yul\":3118:3120   */\n      0x19\n        /* \"#utility.yul\":3113:3116   */\n      dup4\n        /* \"#utility.yul\":3054:3121   */\n      tag_100\n      jump\t// in\n    tag_99:\n        /* \"#utility.yul\":3047:3121   */\n      swap2\n      pop\n        /* \"#utility.yul\":3130:3223   */\n      tag_101\n        /* \"#utility.yul\":3219:3222   */\n      dup3\n        /* \"#utility.yul\":3130:3223   */\n      tag_102\n      jump\t// in\n    tag_101:\n        /* \"#utility.yul\":3248:3250   */\n      0x20\n        /* \"#utility.yul\":3243:3246   */\n      dup3\n        /* \"#utility.yul\":3239:3251   */\n      add\n        /* \"#utility.yul\":3232:3251   */\n      swap1\n      pop\n        /* \"#utility.yul\":2891:3257   */\n      swap2\n      swap1\n      pop\n      jump\t// out\n        /* \"#utility.yul\":3311:4281   */\n    tag_103:\n        /* \"#utility.yul\":3434:3437   */\n      0x00\n        /* \"#utility.yul\":3470:3474   */\n      0x80\n        /* \"#utility.yul\":3465:3468   */\n      dup4\n        /* \"#utility.yul\":3461:3475   */\n      add\n        /* \"#utility.yul\":3562:3566   */\n      0x00\n        /* \"#utility.yul\":3555:3560   */\n      dup4\n        /* \"#utility.yul\":3551:3567   */\n      add\n        /* \"#utility.yul\":3545:3568   */\n      mload\n        /* \"#utility.yul\":3581:3644   */\n      tag_105\n        /* \"#utility.yul\":3638:3642   */\n      0x00\n        /* \"#utility.yul\":3633:3636   */\n      dup7\n        /* \"#utility.yul\":3629:3643   */\n      add\n        /* \"#utility.yul\":3615:3627   */\n      dup3\n        /* \"#utility.yul\":3581:3644   */\n      tag_106\n      jump\t// in\n    tag_105:\n        /* \"#utility.yul\":3485:3654   */\n      pop\n        /* \"#utility.yul\":3742:3746   */\n      0x20\n        /* \"#utility.yul\":3735:3740   */\n      dup4\n        /* \"#utility.yul\":3731:3747   */\n      add\n        /* \"#utility.yul\":3725:3748   */\n      mload\n        /* \"#utility.yul\":3795:3798   */\n      dup5\n        /* \"#utility.yul\":3789:3793   */\n      dup3\n        /* \"#utility.yul\":3785:3799   */\n      sub\n        /* \"#utility.yul\":3778:3782   */\n      0x20\n        /* \"#utility.yul\":3773:3776   */\n      dup7\n        /* \"#utility.yul\":3769:3783   */\n      add\n        /* \"#utility.yul\":3762:3800   */\n      mstore\n        /* \"#utility.yul\":3821:3894   */\n      tag_107\n        /* \"#utility.yul\":3889:3893   */\n      dup3\n        /* \"#utility.yul\":3875:3887   */\n      dup3\n        /* \"#utility.yul\":3821:3894   */\n      tag_87\n      jump\t// in\n    tag_107:\n        /* \"#utility.yul\":3813:3894   */\n      swap2\n      pop\n        /* \"#utility.yul\":3664:3905   */\n      pop\n        /* \"#utility.yul\":3988:3992   */\n      0x40\n        /* \"#utility.yul\":3981:3986   */\n      dup4\n        /* \"#utility.yul\":3977:3993   */\n      add\n        /* \"#utility.yul\":3971:3994   */\n      mload\n        /* \"#utility.yul\":4007:4070   */\n      tag_108\n        /* \"#utility.yul\":4064:4068   */\n      0x40\n        /* \"#utility.yul\":4059:4062   */\n      dup7\n        /* \"#utility.yul\":4055:4069   */\n      add\n        /* \"#utility.yul\":4041:4053   */\n      dup3\n        /* \"#utility.yul\":4007:4070   */\n      tag_106\n      jump\t// in\n    tag_108:\n        /* \"#utility.yul\":3915:4080   */\n      pop\n        /* \"#utility.yul\":4162:4166   */\n      0x60\n        /* \"#utility.yul\":4155:4160   */\n      dup4\n        /* \"#utility.yul\":4151:4167   */\n      add\n        /* \"#utility.yul\":4145:4168   */\n      mload\n        /* \"#utility.yul\":4181:4244   */\n      tag_109\n        /* \"#utility.yul\":4238:4242   */\n      0x60\n        /* \"#utility.yul\":4233:4236   */\n      dup7\n        /* \"#utility.yul\":4229:4243   */\n      add\n        /* \"#utility.yul\":4215:4227   */\n      dup3\n        /* \"#utility.yul\":4181:4244   */\n      tag_106\n      jump\t// in\n    tag_109:\n        /* \"#utility.yul\":4090:4254   */\n      pop\n        /* \"#utility.yul\":4271:4275   */\n      dup1\n        /* \"#utility.yul\":4264:4275   */\n      swap2\n      pop\n        /* \"#utility.yul\":3439:4281   */\n      pop\n        /* \"#utility.yul\":3311:4281   */\n      swap3\n      swap2\n      pop\n      pop\n      jump\t// out\n        /* \"#utility.yul\":4287:4395   */\n    tag_106:\n        /* \"#utility.yul\":4364:4388   */\n      tag_111\n        /* \"#utility.yul\":4382:4387   */\n      dup2\n        /* \"#utility.yul\":4364:4388   */\n      tag_112\n      jump\t// in\n    tag_111:\n        /* \"#utility.yul\":4359:4362   */\n      dup3\n        /* \"#utility.yul\":4352:4389   */\n      mstore\n        /* \"#utility.yul\":4287:4395   */\n      pop\n      pop\n      jump\t// out\n        /* \"#utility.yul\":4401:4820   */\n    tag_33:\n        /* \"#utility.yul\":4567:4571   */\n      0x00\n        /* \"#utility.yul\":4605:4607   */\n      0x20\n        /* \"#utility.yul\":4594:4603   */\n      dup3\n        /* \"#utility.yul\":4590:4608   */\n      add\n        /* \"#utility.yul\":4582:4608   */\n      swap1\n      pop\n        /* \"#utility.yul\":4654:4663   */\n      dup2\n        /* \"#utility.yul\":4648:4652   */\n      dup2\n        /* \"#utility.yul\":4644:4664   */\n      sub\n        /* \"#utility.yul\":4640:4641   */\n      0x00\n        /* \"#utility.yul\":4629:4638   */\n      dup4\n        /* \"#utility.yul\":4625:4642   */\n      add\n        /* \"#utility.yul\":4618:4665   */\n      mstore\n        /* \"#utility.yul\":4682:4813   */\n      tag_114\n        /* \"#utility.yul\":4808:4812   */\n      dup2\n        /* \"#utility.yul\":4682:4813   */\n      tag_97\n      jump\t// in\n    tag_114:\n        /* \"#utility.yul\":4674:4813   */\n      swap1\n      pop\n        /* \"#utility.yul\":4401:4820   */\n      swap2\n      swap1\n      pop\n      jump\t// out\n        /* \"#utility.yul\":4826:5207   */\n    tag_9:\n        /* \"#utility.yul\":4973:4977   */\n      0x00\n        /* \"#utility.yul\":5011:5013   */\n      0x20\n        /* \"#utility.yul\":5000:5009   */\n      dup3\n        /* \"#utility.yul\":4996:5014   */\n      add\n        /* \"#utility.yul\":4988:5014   */\n      swap1\n      pop\n        /* \"#utility.yul\":5060:5069   */\n      dup2\n        /* \"#utility.yul\":5054:5058   */\n      dup2\n        /* \"#utility.yul\":5050:5070   */\n      sub\n        /* \"#utility.yul\":5046:5047   */\n      0x00\n        /* \"#utility.yul\":5035:5044   */\n      dup4\n        /* \"#utility.yul\":5031:5048   */\n      add\n        /* \"#utility.yul\":5024:5071   */\n      mstore\n        /* \"#utility.yul\":5088:5200   */\n      tag_116\n        /* \"#utility.yul\":5195:5199   */\n      dup2\n        /* \"#utility.yul\":5186:5192   */\n      dup5\n        /* \"#utility.yul\":5088:5200   */\n      tag_103\n      jump\t// in\n    tag_116:\n        /* \"#utility.yul\":5080:5200   */\n      swap1\n      pop\n        /* \"#utility.yul\":4826:5207   */\n      swap3\n      swap2\n      pop\n      pop\n      jump\t// out\n        /* \"#utility.yul\":5213:5342   */\n    tag_53:\n        /* \"#utility.yul\":5247:5253   */\n      0x00\n        /* \"#utility.yul\":5274:5294   */\n      tag_118\n      tag_119\n      jump\t// in\n    tag_118:\n        /* \"#utility.yul\":5264:5294   */\n      swap1\n      pop\n        /* \"#utility.yul\":5303:5336   */\n      tag_120\n        /* \"#utility.yul\":5331:5335   */\n      dup3\n        /* \"#utility.yul\":5323:5329   */\n      dup3\n        /* \"#utility.yul\":5303:5336   */\n      tag_121\n      jump\t// in\n    tag_120:\n        /* \"#utility.yul\":5213:5342   */\n      swap2\n      swap1\n      pop\n      jump\t// out\n        /* \"#utility.yul\":5348:5423   */\n    tag_119:\n        /* \"#utility.yul\":5381:5387   */\n      0x00\n        /* \"#utility.yul\":5414:5416   */\n      0x40\n        /* \"#utility.yul\":5408:5417   */\n      mload\n        /* \"#utility.yul\":5398:5417   */\n      swap1\n      pop\n        /* \"#utility.yul\":5348:5423   */\n      swap1\n      jump\t// out\n        /* \"#utility.yul\":5429:5737   */\n    tag_52:\n        /* \"#utility.yul\":5491:5495   */\n      0x00\n        /* \"#utility.yul\":5581:5599   */\n      0xffffffffffffffff\n        /* \"#utility.yul\":5573:5579   */\n      dup3\n        /* \"#utility.yul\":5570:5600   */\n      gt\n        /* \"#utility.yul\":5567:5623   */\n      iszero\n      tag_124\n      jumpi\n        /* \"#utility.yul\":5603:5621   */\n      tag_125\n      tag_126\n      jump\t// in\n    tag_125:\n        /* \"#utility.yul\":5567:5623   */\n    tag_124:\n        /* \"#utility.yul\":5641:5670   */\n      tag_127\n        /* \"#utility.yul\":5663:5669   */\n      dup3\n        /* \"#utility.yul\":5641:5670   */\n      tag_96\n      jump\t// in\n    tag_127:\n        /* \"#utility.yul\":5633:5670   */\n      swap1\n      pop\n        /* \"#utility.yul\":5725:5729   */\n      0x20\n        /* \"#utility.yul\":5719:5723   */\n      dup2\n        /* \"#utility.yul\":5715:5730   */\n      add\n        /* \"#utility.yul\":5707:5730   */\n      swap1\n      pop\n        /* \"#utility.yul\":5429:5737   */\n      swap2\n      swap1\n      pop\n      jump\t// out\n        /* \"#utility.yul\":5743:5842   */\n    tag_90:\n        /* \"#utility.yul\":5795:5801   */\n      0x00\n        /* \"#utility.yul\":5829:5834   */\n      dup2\n        /* \"#utility.yul\":5823:5835   */\n      mload\n        /* \"#utility.yul\":5813:5835   */\n      swap1\n      pop\n        /* \"#utility.yul\":5743:5842   */\n      swap2\n      swap1\n      pop\n      jump\t// out\n        /* \"#utility.yul\":5848:6007   */\n    tag_92:\n        /* \"#utility.yul\":5922:5933   */\n      0x00\n        /* \"#utility.yul\":5956:5962   */\n      dup3\n        /* \"#utility.yul\":5951:5954   */\n      dup3\n        /* \"#utility.yul\":5944:5963   */\n      mstore\n        /* \"#utility.yul\":5996:6000   */\n      0x20\n        /* \"#utility.yul\":5991:5994   */\n      dup3\n        /* \"#utility.yul\":5987:6001   */\n      add\n        /* \"#utility.yul\":5972:6001   */\n      swap1\n      pop\n        /* \"#utility.yul\":5848:6007   */\n      swap3\n      swap2\n      pop\n      pop\n      jump\t// out\n        /* \"#utility.yul\":6013:6182   */\n    tag_100:\n        /* \"#utility.yul\":6097:6108   */\n      0x00\n        /* \"#utility.yul\":6131:6137   */\n      dup3\n        /* \"#utility.yul\":6126:6129   */\n      dup3\n        /* \"#utility.yul\":6119:6138   */\n      mstore\n        /* \"#utility.yul\":6171:6175   */\n      0x20\n        /* \"#utility.yul\":6166:6169   */\n      dup3\n        /* \"#utility.yul\":6162:6176   */\n      add\n        /* \"#utility.yul\":6147:6176   */\n      swap1\n      pop\n        /* \"#utility.yul\":6013:6182   */\n      swap3\n      swap2\n      pop\n      pop\n      jump\t// out\n        /* \"#utility.yul\":6188:6265   */\n    tag_112:\n        /* \"#utility.yul\":6225:6232   */\n      0x00\n        /* \"#utility.yul\":6254:6259   */\n      dup2\n        /* \"#utility.yul\":6243:6259   */\n      swap1\n      pop\n        /* \"#utility.yul\":6188:6265   */\n      swap2\n      swap1\n      pop\n      jump\t// out\n        /* \"#utility.yul\":6271:6425   */\n    tag_58:\n        /* \"#utility.yul\":6355:6361   */\n      dup3\n        /* \"#utility.yul\":6350:6353   */\n      dup2\n        /* \"#utility.yul\":6345:6348   */\n      dup4\n        /* \"#utility.yul\":6332:6362   */\n      calldatacopy\n        /* \"#utility.yul\":6417:6418   */\n      0x00\n        /* \"#utility.yul\":6408:6414   */\n      dup4\n        /* \"#utility.yul\":6403:6406   */\n      dup4\n        /* \"#utility.yul\":6399:6415   */\n      add\n        /* \"#utility.yul\":6392:6419   */\n      mstore\n        /* \"#utility.yul\":6271:6425   */\n      pop\n      pop\n      pop\n      jump\t// out\n        /* \"#utility.yul\":6431:6738   */\n    tag_94:\n        /* \"#utility.yul\":6499:6500   */\n      0x00\n        /* \"#utility.yul\":6509:6622   */\n    tag_134:\n        /* \"#utility.yul\":6523:6529   */\n      dup4\n        /* \"#utility.yul\":6520:6521   */\n      dup2\n        /* \"#utility.yul\":6517:6530   */\n      lt\n        /* \"#utility.yul\":6509:6622   */\n      iszero\n      tag_136\n      jumpi\n        /* \"#utility.yul\":6608:6609   */\n      dup1\n        /* \"#utility.yul\":6603:6606   */\n      dup3\n        /* \"#utility.yul\":6599:6610   */\n      add\n        /* \"#utility.yul\":6593:6611   */\n      mload\n        /* \"#utility.yul\":6589:6590   */\n      dup2\n        /* \"#utility.yul\":6584:6587   */\n      dup5\n        /* \"#utility.yul\":6580:6591   */\n      add\n        /* \"#utility.yul\":6573:6612   */\n      mstore\n        /* \"#utility.yul\":6545:6547   */\n      0x20\n        /* \"#utility.yul\":6542:6543   */\n      dup2\n        /* \"#utility.yul\":6538:6548   */\n      add\n        /* \"#utility.yul\":6533:6548   */\n      swap1\n      pop\n        /* \"#utility.yul\":6509:6622   */\n      jump(tag_134)\n    tag_136:\n        /* \"#utility.yul\":6640:6646   */\n      dup4\n        /* \"#utility.yul\":6637:6638   */\n      dup2\n        /* \"#utility.yul\":6634:6647   */\n      gt\n        /* \"#utility.yul\":6631:6732   */\n      iszero\n      tag_137\n      jumpi\n        /* \"#utility.yul\":6720:6721   */\n      0x00\n        /* \"#utility.yul\":6711:6717   */\n      dup5\n        /* \"#utility.yul\":6706:6709   */\n      dup5\n        /* \"#utility.yul\":6702:6718   */\n      add\n        /* \"#utility.yul\":6695:6722   */\n      mstore\n        /* \"#utility.yul\":6631:6732   */\n    tag_137:\n        /* \"#utility.yul\":6480:6738   */\n      pop\n        /* \"#utility.yul\":6431:6738   */\n      pop\n      pop\n      pop\n      jump\t// out\n        /* \"#utility.yul\":6744:7064   */\n    tag_22:\n        /* \"#utility.yul\":6788:6794   */\n      0x00\n        /* \"#utility.yul\":6825:6826   */\n      0x02\n        /* \"#utility.yul\":6819:6823   */\n      dup3\n        /* \"#utility.yul\":6815:6827   */\n      div\n        /* \"#utility.yul\":6805:6827   */\n      swap1\n      pop\n        /* \"#utility.yul\":6872:6873   */\n      0x01\n        /* \"#utility.yul\":6866:6870   */\n      dup3\n        /* \"#utility.yul\":6862:6874   */\n      and\n        /* \"#utility.yul\":6893:6911   */\n      dup1\n        /* \"#utility.yul\":6883:6964   */\n      tag_139\n      jumpi\n        /* \"#utility.yul\":6949:6953   */\n      0x7f\n        /* \"#utility.yul\":6941:6947   */\n      dup3\n        /* \"#utility.yul\":6937:6954   */\n      and\n        /* \"#utility.yul\":6927:6954   */\n      swap2\n      pop\n        /* \"#utility.yul\":6883:6964   */\n    tag_139:\n        /* \"#utility.yul\":7011:7013   */\n      0x20\n        /* \"#utility.yul\":7003:7009   */\n      dup3\n        /* \"#utility.yul\":7000:7014   */\n      lt\n        /* \"#utility.yul\":6980:6998   */\n      dup2\n        /* \"#utility.yul\":6977:7015   */\n      eq\n        /* \"#utility.yul\":6974:7058   */\n      iszero\n      tag_140\n      jumpi\n        /* \"#utility.yul\":7030:7048   */\n      tag_141\n      tag_142\n      jump\t// in\n    tag_141:\n        /* \"#utility.yul\":6974:7058   */\n    tag_140:\n        /* \"#utility.yul\":6795:7064   */\n      pop\n        /* \"#utility.yul\":6744:7064   */\n      swap2\n      swap1\n      pop\n      jump\t// out\n        /* \"#utility.yul\":7070:7351   */\n    tag_121:\n        /* \"#utility.yul\":7153:7180   */\n      tag_144\n        /* \"#utility.yul\":7175:7179   */\n      dup3\n        /* \"#utility.yul\":7153:7180   */\n      tag_96\n      jump\t// in\n    tag_144:\n        /* \"#utility.yul\":7145:7151   */\n      dup2\n        /* \"#utility.yul\":7141:7181   */\n      add\n        /* \"#utility.yul\":7283:7289   */\n      dup2\n        /* \"#utility.yul\":7271:7281   */\n      dup2\n        /* \"#utility.yul\":7268:7290   */\n      lt\n        /* \"#utility.yul\":7247:7265   */\n      0xffffffffffffffff\n        /* \"#utility.yul\":7235:7245   */\n      dup3\n        /* \"#utility.yul\":7232:7266   */\n      gt\n        /* \"#utility.yul\":7229:7291   */\n      or\n        /* \"#utility.yul\":7226:7314   */\n      iszero\n      tag_145\n      jumpi\n        /* \"#utility.yul\":7294:7312   */\n      tag_146\n      tag_126\n      jump\t// in\n    tag_146:\n        /* \"#utility.yul\":7226:7314   */\n    tag_145:\n        /* \"#utility.yul\":7334:7344   */\n      dup1\n        /* \"#utility.yul\":7330:7332   */\n      0x40\n        /* \"#utility.yul\":7323:7345   */\n      mstore\n        /* \"#utility.yul\":7113:7351   */\n      pop\n        /* \"#utility.yul\":7070:7351   */\n      pop\n      pop\n      jump\t// out\n        /* \"#utility.yul\":7357:7537   */\n    tag_142:\n        /* \"#utility.yul\":7405:7482   */\n      0x4e487b7100000000000000000000000000000000000000000000000000000000\n        /* \"#utility.yul\":7402:7403   */\n      0x00\n        /* \"#utility.yul\":7395:7483   */\n      mstore\n        /* \"#utility.yul\":7502:7506   */\n      0x22\n        /* \"#utility.yul\":7499:7500   */\n      0x04\n        /* \"#utility.yul\":7492:7507   */\n      mstore\n        /* \"#utility.yul\":7526:7530   */\n      0x24\n        /* \"#utility.yul\":7523:7524   */\n      0x00\n        /* \"#utility.yul\":7516:7531   */\n      revert\n        /* \"#utility.yul\":7543:7723   */\n    tag_126:\n        /* \"#utility.yul\":7591:7668   */\n      0x4e487b7100000000000000000000000000000000000000000000000000000000\n        /* \"#utility.yul\":7588:7589   */\n      0x00\n        /* \"#utility.yul\":7581:7669   */\n      mstore\n        /* \"#utility.yul\":7688:7692   */\n      0x41\n        /* \"#utility.yul\":7685:7686   */\n      0x04\n        /* \"#utility.yul\":7678:7693   */\n      mstore\n        /* \"#utility.yul\":7712:7716   */\n      0x24\n        /* \"#utility.yul\":7709:7710   */\n      0x00\n        /* \"#utility.yul\":7702:7717   */\n      revert\n        /* \"#utility.yul\":7729:7846   */\n    tag_63:\n        /* \"#utility.yul\":7838:7839   */\n      0x00\n        /* \"#utility.yul\":7835:7836   */\n      dup1\n        /* \"#utility.yul\":7828:7840   */\n      revert\n        /* \"#utility.yul\":7852:7969   */\n    tag_56:\n        /* \"#utility.yul\":7961:7962   */\n      0x00\n        /* \"#utility.yul\":7958:7959   */\n      dup1\n        /* \"#utility.yul\":7951:7963   */\n      revert\n        /* \"#utility.yul\":7975:8092   */\n    tag_75:\n        /* \"#utility.yul\":8084:8085   */\n      0x00\n        /* \"#utility.yul\":8081:8082   */\n      dup1\n        /* \"#utility.yul\":8074:8086   */\n      revert\n        /* \"#utility.yul\":8098:8215   */\n    tag_72:\n        /* \"#utility.yul\":8207:8208   */\n      0x00\n        /* \"#utility.yul\":8204:8205   */\n      dup1\n        /* \"#utility.yul\":8197:8209   */\n      revert\n        /* \"#utility.yul\":8221:8323   */\n    tag_96:\n        /* \"#utility.yul\":8262:8268   */\n      0x00\n        /* \"#utility.yul\":8313:8315   */\n      0x1f\n        /* \"#utility.yul\":8309:8316   */\n      not\n        /* \"#utility.yul\":8304:8306   */\n      0x1f\n        /* \"#utility.yul\":8297:8302   */\n      dup4\n        /* \"#utility.yul\":8293:8307   */\n      add\n        /* \"#utility.yul\":8289:8317   */\n      and\n        /* \"#utility.yul\":8279:8317   */\n      swap1\n      pop\n        /* \"#utility.yul\":8221:8323   */\n      swap2\n      swap1\n      pop\n      jump\t// out\n        /* \"#utility.yul\":8329:8504   */\n    tag_102:\n        /* \"#utility.yul\":8469:8496   */\n      0x596f7520617265206e6f742070617263656c206f776e65722e00000000000000\n        /* \"#utility.yul\":8465:8466   */\n      0x00\n        /* \"#utility.yul\":8457:8463   */\n      dup3\n        /* \"#utility.yul\":8453:8467   */\n      add\n        /* \"#utility.yul\":8446:8497   */\n      mstore\n        /* \"#utility.yul\":8329:8504   */\n      pop\n      jump\t// out\n        /* \"#utility.yul\":8510:8632   */\n    tag_68:\n        /* \"#utility.yul\":8583:8607   */\n      tag_156\n        /* \"#utility.yul\":8601:8606   */\n      dup2\n        /* \"#utility.yul\":8583:8607   */\n      tag_112\n      jump\t// in\n    tag_156:\n        /* \"#utility.yul\":8576:8581   */\n      dup2\n        /* \"#utility.yul\":8573:8608   */\n      eq\n        /* \"#utility.yul\":8563:8626   */\n      tag_157\n      jumpi\n        /* \"#utility.yul\":8622:8623   */\n      0x00\n        /* \"#utility.yul\":8619:8620   */\n      dup1\n        /* \"#utility.yul\":8612:8624   */\n      revert\n        /* \"#utility.yul\":8563:8626   */\n    tag_157:\n        /* \"#utility.yul\":8510:8632   */\n      pop\n      jump\t// out\n\n    auxdata: 0xa264697066735822122075a68dc0adace21f2c31456372bbaff0aa375e49d9d258f4c865e3dfc39c69d664736f6c63430008070033\n}\n",
				"bytecode": {
					"linkReferences": {},
					"object": "608060405234801561001057600080fd5b50336000806101000a81548173ffffffffffffffffffffffffffffffffffffffff021916908373ffffffffffffffffffffffffffffffffffffffff160217905550610ace806100606000396000f3fe6080604052600436106100345760003560e01c8063466911e6146100395780634854e05614610064578063bfd6843d14610080575b600080fd5b34801561004557600080fd5b5061004e61009c565b60405161005b9190610881565b60405180910390f35b61007e60048036038101906100799190610710565b6101c4565b005b61009a600480360381019061009591906106b4565b61037a565b005b6100a4610564565b600160008060009054906101000a900473ffffffffffffffffffffffffffffffffffffffff1673ffffffffffffffffffffffffffffffffffffffff1673ffffffffffffffffffffffffffffffffffffffff1681526020019081526020016000206040518060800160405290816000820154815260200160018201805461012990610972565b80601f016020809104026020016040519081016040528092919081815260200182805461015590610972565b80156101a25780601f10610177576101008083540402835291602001916101a2565b820191906000526020600020905b81548152906001019060200180831161018557829003601f168201915b5050505050815260200160028201548152602001600382015481525050905090565b83600160008060009054906101000a900473ffffffffffffffffffffffffffffffffffffffff1673ffffffffffffffffffffffffffffffffffffffff1673ffffffffffffffffffffffffffffffffffffffff1681526020019081526020016000206000018190555082600160008060009054906101000a900473ffffffffffffffffffffffffffffffffffffffff1673ffffffffffffffffffffffffffffffffffffffff1673ffffffffffffffffffffffffffffffffffffffff16815260200190815260200160002060010190805190602001906102a392919061058c565b5081600160008060009054906101000a900473ffffffffffffffffffffffffffffffffffffffff1673ffffffffffffffffffffffffffffffffffffffff1673ffffffffffffffffffffffffffffffffffffffff1681526020019081526020016000206002018190555080600160008060009054906101000a900473ffffffffffffffffffffffffffffffffffffffff1673ffffffffffffffffffffffffffffffffffffffff1673ffffffffffffffffffffffffffffffffffffffff1681526020019081526020016000206003018190555050505050565b60008054906101000a900473ffffffffffffffffffffffffffffffffffffffff1673ffffffffffffffffffffffffffffffffffffffff163373ffffffffffffffffffffffffffffffffffffffff1614610408576040517f08c379a00000000000000000000000000000000000000000000000000000000081526004016103ff90610861565b60405180910390fd5b81600160008060009054906101000a900473ffffffffffffffffffffffffffffffffffffffff1673ffffffffffffffffffffffffffffffffffffffff1673ffffffffffffffffffffffffffffffffffffffff168152602001908152602001600020600101908051906020019061047f92919061058c565b5081600260008060009054906101000a900473ffffffffffffffffffffffffffffffffffffffff1673ffffffffffffffffffffffffffffffffffffffff1673ffffffffffffffffffffffffffffffffffffffff16815260200190815260200160002060000190805190602001906104f792919061058c565b5080600260008060009054906101000a900473ffffffffffffffffffffffffffffffffffffffff1673ffffffffffffffffffffffffffffffffffffffff1673ffffffffffffffffffffffffffffffffffffffff168152602001908152602001600020600101819055505050565b6040518060800160405280600081526020016060815260200160008152602001600081525090565b82805461059890610972565b90600052602060002090601f0160209004810192826105ba5760008555610601565b82601f106105d357805160ff1916838001178555610601565b82800160010185558215610601579182015b828111156106005782518255916020019190600101906105e5565b5b50905061060e9190610612565b5090565b5b8082111561062b576000816000905550600101610613565b5090565b600061064261063d846108c8565b6108a3565b90508281526020810184848401111561065e5761065d610a38565b5b610669848285610930565b509392505050565b600082601f83011261068657610685610a33565b5b813561069684826020860161062f565b91505092915050565b6000813590506106ae81610a81565b92915050565b600080604083850312156106cb576106ca610a42565b5b600083013567ffffffffffffffff8111156106e9576106e8610a3d565b5b6106f585828601610671565b92505060206107068582860161069f565b9150509250929050565b6000806000806080858703121561072a57610729610a42565b5b60006107388782880161069f565b945050602085013567ffffffffffffffff81111561075957610758610a3d565b5b61076587828801610671565b93505060406107768782880161069f565b92505060606107878782880161069f565b91505092959194509250565b600061079e826108f9565b6107a88185610904565b93506107b881856020860161093f565b6107c181610a47565b840191505092915050565b60006107d9601983610915565b91506107e482610a58565b602082019050919050565b60006080830160008301516108076000860182610852565b506020830151848203602086015261081f8282610793565b91505060408301516108346040860182610852565b5060608301516108476060860182610852565b508091505092915050565b61085b81610926565b82525050565b6000602082019050818103600083015261087a816107cc565b9050919050565b6000602082019050818103600083015261089b81846107ef565b905092915050565b60006108ad6108be565b90506108b982826109a4565b919050565b6000604051905090565b600067ffffffffffffffff8211156108e3576108e2610a04565b5b6108ec82610a47565b9050602081019050919050565b600081519050919050565b600082825260208201905092915050565b600082825260208201905092915050565b6000819050919050565b82818337600083830152505050565b60005b8381101561095d578082015181840152602081019050610942565b8381111561096c576000848401525b50505050565b6000600282049050600182168061098a57607f821691505b6020821081141561099e5761099d6109d5565b5b50919050565b6109ad82610a47565b810181811067ffffffffffffffff821117156109cc576109cb610a04565b5b80604052505050565b7f4e487b7100000000000000000000000000000000000000000000000000000000600052602260045260246000fd5b7f4e487b7100000000000000000000000000000000000000000000000000000000600052604160045260246000fd5b600080fd5b600080fd5b600080fd5b600080fd5b6000601f19601f8301169050919050565b7f596f7520617265206e6f742070617263656c206f776e65722e00000000000000600082015250565b610a8a81610926565b8114610a9557600080fd5b5056fea264697066735822122075a68dc0adace21f2c31456372bbaff0aa375e49d9d258f4c865e3dfc39c69d664736f6c63430008070033",
					"opcodes": "PUSH1 0x80 PUSH1 0x40 MSTORE CALLVALUE DUP1 ISZERO PUSH2 0x10 JUMPI PUSH1 0x0 DUP1 REVERT JUMPDEST POP CALLER PUSH1 0x0 DUP1 PUSH2 0x100 EXP DUP2 SLOAD DUP2 PUSH20 0xFFFFFFFFFFFFFFFFFFFFFFFFFFFFFFFFFFFFFFFF MUL NOT AND SWAP1 DUP4 PUSH20 0xFFFFFFFFFFFFFFFFFFFFFFFFFFFFFFFFFFFFFFFF AND MUL OR SWAP1 SSTORE POP PUSH2 0xACE DUP1 PUSH2 0x60 PUSH1 0x0 CODECOPY PUSH1 0x0 RETURN INVALID PUSH1 0x80 PUSH1 0x40 MSTORE PUSH1 0x4 CALLDATASIZE LT PUSH2 0x34 JUMPI PUSH1 0x0 CALLDATALOAD PUSH1 0xE0 SHR DUP1 PUSH4 0x466911E6 EQ PUSH2 0x39 JUMPI DUP1 PUSH4 0x4854E056 EQ PUSH2 0x64 JUMPI DUP1 PUSH4 0xBFD6843D EQ PUSH2 0x80 JUMPI JUMPDEST PUSH1 0x0 DUP1 REVERT JUMPDEST CALLVALUE DUP1 ISZERO PUSH2 0x45 JUMPI PUSH1 0x0 DUP1 REVERT JUMPDEST POP PUSH2 0x4E PUSH2 0x9C JUMP JUMPDEST PUSH1 0x40 MLOAD PUSH2 0x5B SWAP2 SWAP1 PUSH2 0x881 JUMP JUMPDEST PUSH1 0x40 MLOAD DUP1 SWAP2 SUB SWAP1 RETURN JUMPDEST PUSH2 0x7E PUSH1 0x4 DUP1 CALLDATASIZE SUB DUP2 ADD SWAP1 PUSH2 0x79 SWAP2 SWAP1 PUSH2 0x710 JUMP JUMPDEST PUSH2 0x1C4 JUMP JUMPDEST STOP JUMPDEST PUSH2 0x9A PUSH1 0x4 DUP1 CALLDATASIZE SUB DUP2 ADD SWAP1 PUSH2 0x95 SWAP2 SWAP1 PUSH2 0x6B4 JUMP JUMPDEST PUSH2 0x37A JUMP JUMPDEST STOP JUMPDEST PUSH2 0xA4 PUSH2 0x564 JUMP JUMPDEST PUSH1 0x1 PUSH1 0x0 DUP1 PUSH1 0x0 SWAP1 SLOAD SWAP1 PUSH2 0x100 EXP SWAP1 DIV PUSH20 0xFFFFFFFFFFFFFFFFFFFFFFFFFFFFFFFFFFFFFFFF AND PUSH20 0xFFFFFFFFFFFFFFFFFFFFFFFFFFFFFFFFFFFFFFFF AND PUSH20 0xFFFFFFFFFFFFFFFFFFFFFFFFFFFFFFFFFFFFFFFF AND DUP2 MSTORE PUSH1 0x20 ADD SWAP1 DUP2 MSTORE PUSH1 0x20 ADD PUSH1 0x0 KECCAK256 PUSH1 0x40 MLOAD DUP1 PUSH1 0x80 ADD PUSH1 0x40 MSTORE SWAP1 DUP2 PUSH1 0x0 DUP3 ADD SLOAD DUP2 MSTORE PUSH1 0x20 ADD PUSH1 0x1 DUP3 ADD DUP1 SLOAD PUSH2 0x129 SWAP1 PUSH2 0x972 JUMP JUMPDEST DUP1 PUSH1 0x1F ADD PUSH1 0x20 DUP1 SWAP2 DIV MUL PUSH1 0x20 ADD PUSH1 0x40 MLOAD SWAP1 DUP2 ADD PUSH1 0x40 MSTORE DUP1 SWAP3 SWAP2 SWAP1 DUP2 DUP2 MSTORE PUSH1 0x20 ADD DUP3 DUP1 SLOAD PUSH2 0x155 SWAP1 PUSH2 0x972 JUMP JUMPDEST DUP1 ISZERO PUSH2 0x1A2 JUMPI DUP1 PUSH1 0x1F LT PUSH2 0x177 JUMPI PUSH2 0x100 DUP1 DUP4 SLOAD DIV MUL DUP4 MSTORE SWAP2 PUSH1 0x20 ADD SWAP2 PUSH2 0x1A2 JUMP JUMPDEST DUP3 ADD SWAP2 SWAP1 PUSH1 0x0 MSTORE PUSH1 0x20 PUSH1 0x0 KECCAK256 SWAP1 JUMPDEST DUP2 SLOAD DUP2 MSTORE SWAP1 PUSH1 0x1 ADD SWAP1 PUSH1 0x20 ADD DUP1 DUP4 GT PUSH2 0x185 JUMPI DUP3 SWAP1 SUB PUSH1 0x1F AND DUP3 ADD SWAP2 JUMPDEST POP POP POP POP POP DUP2 MSTORE PUSH1 0x20 ADD PUSH1 0x2 DUP3 ADD SLOAD DUP2 MSTORE PUSH1 0x20 ADD PUSH1 0x3 DUP3 ADD SLOAD DUP2 MSTORE POP POP SWAP1 POP SWAP1 JUMP JUMPDEST DUP4 PUSH1 0x1 PUSH1 0x0 DUP1 PUSH1 0x0 SWAP1 SLOAD SWAP1 PUSH2 0x100 EXP SWAP1 DIV PUSH20 0xFFFFFFFFFFFFFFFFFFFFFFFFFFFFFFFFFFFFFFFF AND PUSH20 0xFFFFFFFFFFFFFFFFFFFFFFFFFFFFFFFFFFFFFFFF AND PUSH20 0xFFFFFFFFFFFFFFFFFFFFFFFFFFFFFFFFFFFFFFFF AND DUP2 MSTORE PUSH1 0x20 ADD SWAP1 DUP2 MSTORE PUSH1 0x20 ADD PUSH1 0x0 KECCAK256 PUSH1 0x0 ADD DUP2 SWAP1 SSTORE POP DUP3 PUSH1 0x1 PUSH1 0x0 DUP1 PUSH1 0x0 SWAP1 SLOAD SWAP1 PUSH2 0x100 EXP SWAP1 DIV PUSH20 0xFFFFFFFFFFFFFFFFFFFFFFFFFFFFFFFFFFFFFFFF AND PUSH20 0xFFFFFFFFFFFFFFFFFFFFFFFFFFFFFFFFFFFFFFFF AND PUSH20 0xFFFFFFFFFFFFFFFFFFFFFFFFFFFFFFFFFFFFFFFF AND DUP2 MSTORE PUSH1 0x20 ADD SWAP1 DUP2 MSTORE PUSH1 0x20 ADD PUSH1 0x0 KECCAK256 PUSH1 0x1 ADD SWAP1 DUP1 MLOAD SWAP1 PUSH1 0x20 ADD SWAP1 PUSH2 0x2A3 SWAP3 SWAP2 SWAP1 PUSH2 0x58C JUMP JUMPDEST POP DUP2 PUSH1 0x1 PUSH1 0x0 DUP1 PUSH1 0x0 SWAP1 SLOAD SWAP1 PUSH2 0x100 EXP SWAP1 DIV PUSH20 0xFFFFFFFFFFFFFFFFFFFFFFFFFFFFFFFFFFFFFFFF AND PUSH20 0xFFFFFFFFFFFFFFFFFFFFFFFFFFFFFFFFFFFFFFFF AND PUSH20 0xFFFFFFFFFFFFFFFFFFFFFFFFFFFFFFFFFFFFFFFF AND DUP2 MSTORE PUSH1 0x20 ADD SWAP1 DUP2 MSTORE PUSH1 0x20 ADD PUSH1 0x0 KECCAK256 PUSH1 0x2 ADD DUP2 SWAP1 SSTORE POP DUP1 PUSH1 0x1 PUSH1 0x0 DUP1 PUSH1 0x0 SWAP1 SLOAD SWAP1 PUSH2 0x100 EXP SWAP1 DIV PUSH20 0xFFFFFFFFFFFFFFFFFFFFFFFFFFFFFFFFFFFFFFFF AND PUSH20 0xFFFFFFFFFFFFFFFFFFFFFFFFFFFFFFFFFFFFFFFF AND PUSH20 0xFFFFFFFFFFFFFFFFFFFFFFFFFFFFFFFFFFFFFFFF AND DUP2 MSTORE PUSH1 0x20 ADD SWAP1 DUP2 MSTORE PUSH1 0x20 ADD PUSH1 0x0 KECCAK256 PUSH1 0x3 ADD DUP2 SWAP1 SSTORE POP POP POP POP POP JUMP JUMPDEST PUSH1 0x0 DUP1 SLOAD SWAP1 PUSH2 0x100 EXP SWAP1 DIV PUSH20 0xFFFFFFFFFFFFFFFFFFFFFFFFFFFFFFFFFFFFFFFF AND PUSH20 0xFFFFFFFFFFFFFFFFFFFFFFFFFFFFFFFFFFFFFFFF AND CALLER PUSH20 0xFFFFFFFFFFFFFFFFFFFFFFFFFFFFFFFFFFFFFFFF AND EQ PUSH2 0x408 JUMPI PUSH1 0x40 MLOAD PUSH32 0x8C379A000000000000000000000000000000000000000000000000000000000 DUP2 MSTORE PUSH1 0x4 ADD PUSH2 0x3FF SWAP1 PUSH2 0x861 JUMP JUMPDEST PUSH1 0x40 MLOAD DUP1 SWAP2 SUB SWAP1 REVERT JUMPDEST DUP2 PUSH1 0x1 PUSH1 0x0 DUP1 PUSH1 0x0 SWAP1 SLOAD SWAP1 PUSH2 0x100 EXP SWAP1 DIV PUSH20 0xFFFFFFFFFFFFFFFFFFFFFFFFFFFFFFFFFFFFFFFF AND PUSH20 0xFFFFFFFFFFFFFFFFFFFFFFFFFFFFFFFFFFFFFFFF AND PUSH20 0xFFFFFFFFFFFFFFFFFFFFFFFFFFFFFFFFFFFFFFFF AND DUP2 MSTORE PUSH1 0x20 ADD SWAP1 DUP2 MSTORE PUSH1 0x20 ADD PUSH1 0x0 KECCAK256 PUSH1 0x1 ADD SWAP1 DUP1 MLOAD SWAP1 PUSH1 0x20 ADD SWAP1 PUSH2 0x47F SWAP3 SWAP2 SWAP1 PUSH2 0x58C JUMP JUMPDEST POP DUP2 PUSH1 0x2 PUSH1 0x0 DUP1 PUSH1 0x0 SWAP1 SLOAD SWAP1 PUSH2 0x100 EXP SWAP1 DIV PUSH20 0xFFFFFFFFFFFFFFFFFFFFFFFFFFFFFFFFFFFFFFFF AND PUSH20 0xFFFFFFFFFFFFFFFFFFFFFFFFFFFFFFFFFFFFFFFF AND PUSH20 0xFFFFFFFFFFFFFFFFFFFFFFFFFFFFFFFFFFFFFFFF AND DUP2 MSTORE PUSH1 0x20 ADD SWAP1 DUP2 MSTORE PUSH1 0x20 ADD PUSH1 0x0 KECCAK256 PUSH1 0x0 ADD SWAP1 DUP1 MLOAD SWAP1 PUSH1 0x20 ADD SWAP1 PUSH2 0x4F7 SWAP3 SWAP2 SWAP1 PUSH2 0x58C JUMP JUMPDEST POP DUP1 PUSH1 0x2 PUSH1 0x0 DUP1 PUSH1 0x0 SWAP1 SLOAD SWAP1 PUSH2 0x100 EXP SWAP1 DIV PUSH20 0xFFFFFFFFFFFFFFFFFFFFFFFFFFFFFFFFFFFFFFFF AND PUSH20 0xFFFFFFFFFFFFFFFFFFFFFFFFFFFFFFFFFFFFFFFF AND PUSH20 0xFFFFFFFFFFFFFFFFFFFFFFFFFFFFFFFFFFFFFFFF AND DUP2 MSTORE PUSH1 0x20 ADD SWAP1 DUP2 MSTORE PUSH1 0x20 ADD PUSH1 0x0 KECCAK256 PUSH1 0x1 ADD DUP2 SWAP1 SSTORE POP POP POP JUMP JUMPDEST PUSH1 0x40 MLOAD DUP1 PUSH1 0x80 ADD PUSH1 0x40 MSTORE DUP1 PUSH1 0x0 DUP2 MSTORE PUSH1 0x20 ADD PUSH1 0x60 DUP2 MSTORE PUSH1 0x20 ADD PUSH1 0x0 DUP2 MSTORE PUSH1 0x20 ADD PUSH1 0x0 DUP2 MSTORE POP SWAP1 JUMP JUMPDEST DUP3 DUP1 SLOAD PUSH2 0x598 SWAP1 PUSH2 0x972 JUMP JUMPDEST SWAP1 PUSH1 0x0 MSTORE PUSH1 0x20 PUSH1 0x0 KECCAK256 SWAP1 PUSH1 0x1F ADD PUSH1 0x20 SWAP1 DIV DUP2 ADD SWAP3 DUP3 PUSH2 0x5BA JUMPI PUSH1 0x0 DUP6 SSTORE PUSH2 0x601 JUMP JUMPDEST DUP3 PUSH1 0x1F LT PUSH2 0x5D3 JUMPI DUP1 MLOAD PUSH1 0xFF NOT AND DUP4 DUP1 ADD OR DUP6 SSTORE PUSH2 0x601 JUMP JUMPDEST DUP3 DUP1 ADD PUSH1 0x1 ADD DUP6 SSTORE DUP3 ISZERO PUSH2 0x601 JUMPI SWAP2 DUP3 ADD JUMPDEST DUP3 DUP2 GT ISZERO PUSH2 0x600 JUMPI DUP3 MLOAD DUP3 SSTORE SWAP2 PUSH1 0x20 ADD SWAP2 SWAP1 PUSH1 0x1 ADD SWAP1 PUSH2 0x5E5 JUMP JUMPDEST JUMPDEST POP SWAP1 POP PUSH2 0x60E SWAP2 SWAP1 PUSH2 0x612 JUMP JUMPDEST POP SWAP1 JUMP JUMPDEST JUMPDEST DUP1 DUP3 GT ISZERO PUSH2 0x62B JUMPI PUSH1 0x0 DUP2 PUSH1 0x0 SWAP1 SSTORE POP PUSH1 0x1 ADD PUSH2 0x613 JUMP JUMPDEST POP SWAP1 JUMP JUMPDEST PUSH1 0x0 PUSH2 0x642 PUSH2 0x63D DUP5 PUSH2 0x8C8 JUMP JUMPDEST PUSH2 0x8A3 JUMP JUMPDEST SWAP1 POP DUP3 DUP2 MSTORE PUSH1 0x20 DUP2 ADD DUP5 DUP5 DUP5 ADD GT ISZERO PUSH2 0x65E JUMPI PUSH2 0x65D PUSH2 0xA38 JUMP JUMPDEST JUMPDEST PUSH2 0x669 DUP5 DUP3 DUP6 PUSH2 0x930 JUMP JUMPDEST POP SWAP4 SWAP3 POP POP POP JUMP JUMPDEST PUSH1 0x0 DUP3 PUSH1 0x1F DUP4 ADD SLT PUSH2 0x686 JUMPI PUSH2 0x685 PUSH2 0xA33 JUMP JUMPDEST JUMPDEST DUP2 CALLDATALOAD PUSH2 0x696 DUP5 DUP3 PUSH1 0x20 DUP7 ADD PUSH2 0x62F JUMP JUMPDEST SWAP2 POP POP SWAP3 SWAP2 POP POP JUMP JUMPDEST PUSH1 0x0 DUP2 CALLDATALOAD SWAP1 POP PUSH2 0x6AE DUP2 PUSH2 0xA81 JUMP JUMPDEST SWAP3 SWAP2 POP POP JUMP JUMPDEST PUSH1 0x0 DUP1 PUSH1 0x40 DUP4 DUP6 SUB SLT ISZERO PUSH2 0x6CB JUMPI PUSH2 0x6CA PUSH2 0xA42 JUMP JUMPDEST JUMPDEST PUSH1 0x0 DUP4 ADD CALLDATALOAD PUSH8 0xFFFFFFFFFFFFFFFF DUP2 GT ISZERO PUSH2 0x6E9 JUMPI PUSH2 0x6E8 PUSH2 0xA3D JUMP JUMPDEST JUMPDEST PUSH2 0x6F5 DUP6 DUP3 DUP7 ADD PUSH2 0x671 JUMP JUMPDEST SWAP3 POP POP PUSH1 0x20 PUSH2 0x706 DUP6 DUP3 DUP7 ADD PUSH2 0x69F JUMP JUMPDEST SWAP2 POP POP SWAP3 POP SWAP3 SWAP1 POP JUMP JUMPDEST PUSH1 0x0 DUP1 PUSH1 0x0 DUP1 PUSH1 0x80 DUP6 DUP8 SUB SLT ISZERO PUSH2 0x72A JUMPI PUSH2 0x729 PUSH2 0xA42 JUMP JUMPDEST JUMPDEST PUSH1 0x0 PUSH2 0x738 DUP8 DUP3 DUP9 ADD PUSH2 0x69F JUMP JUMPDEST SWAP5 POP POP PUSH1 0x20 DUP6 ADD CALLDATALOAD PUSH8 0xFFFFFFFFFFFFFFFF DUP2 GT ISZERO PUSH2 0x759 JUMPI PUSH2 0x758 PUSH2 0xA3D JUMP JUMPDEST JUMPDEST PUSH2 0x765 DUP8 DUP3 DUP9 ADD PUSH2 0x671 JUMP JUMPDEST SWAP4 POP POP PUSH1 0x40 PUSH2 0x776 DUP8 DUP3 DUP9 ADD PUSH2 0x69F JUMP JUMPDEST SWAP3 POP POP PUSH1 0x60 PUSH2 0x787 DUP8 DUP3 DUP9 ADD PUSH2 0x69F JUMP JUMPDEST SWAP2 POP POP SWAP3 SWAP6 SWAP2 SWAP5 POP SWAP3 POP JUMP JUMPDEST PUSH1 0x0 PUSH2 0x79E DUP3 PUSH2 0x8F9 JUMP JUMPDEST PUSH2 0x7A8 DUP2 DUP6 PUSH2 0x904 JUMP JUMPDEST SWAP4 POP PUSH2 0x7B8 DUP2 DUP6 PUSH1 0x20 DUP7 ADD PUSH2 0x93F JUMP JUMPDEST PUSH2 0x7C1 DUP2 PUSH2 0xA47 JUMP JUMPDEST DUP5 ADD SWAP2 POP POP SWAP3 SWAP2 POP POP JUMP JUMPDEST PUSH1 0x0 PUSH2 0x7D9 PUSH1 0x19 DUP4 PUSH2 0x915 JUMP JUMPDEST SWAP2 POP PUSH2 0x7E4 DUP3 PUSH2 0xA58 JUMP JUMPDEST PUSH1 0x20 DUP3 ADD SWAP1 POP SWAP2 SWAP1 POP JUMP JUMPDEST PUSH1 0x0 PUSH1 0x80 DUP4 ADD PUSH1 0x0 DUP4 ADD MLOAD PUSH2 0x807 PUSH1 0x0 DUP7 ADD DUP3 PUSH2 0x852 JUMP JUMPDEST POP PUSH1 0x20 DUP4 ADD MLOAD DUP5 DUP3 SUB PUSH1 0x20 DUP7 ADD MSTORE PUSH2 0x81F DUP3 DUP3 PUSH2 0x793 JUMP JUMPDEST SWAP2 POP POP PUSH1 0x40 DUP4 ADD MLOAD PUSH2 0x834 PUSH1 0x40 DUP7 ADD DUP3 PUSH2 0x852 JUMP JUMPDEST POP PUSH1 0x60 DUP4 ADD MLOAD PUSH2 0x847 PUSH1 0x60 DUP7 ADD DUP3 PUSH2 0x852 JUMP JUMPDEST POP DUP1 SWAP2 POP POP SWAP3 SWAP2 POP POP JUMP JUMPDEST PUSH2 0x85B DUP2 PUSH2 0x926 JUMP JUMPDEST DUP3 MSTORE POP POP JUMP JUMPDEST PUSH1 0x0 PUSH1 0x20 DUP3 ADD SWAP1 POP DUP2 DUP2 SUB PUSH1 0x0 DUP4 ADD MSTORE PUSH2 0x87A DUP2 PUSH2 0x7CC JUMP JUMPDEST SWAP1 POP SWAP2 SWAP1 POP JUMP JUMPDEST PUSH1 0x0 PUSH1 0x20 DUP3 ADD SWAP1 POP DUP2 DUP2 SUB PUSH1 0x0 DUP4 ADD MSTORE PUSH2 0x89B DUP2 DUP5 PUSH2 0x7EF JUMP JUMPDEST SWAP1 POP SWAP3 SWAP2 POP POP JUMP JUMPDEST PUSH1 0x0 PUSH2 0x8AD PUSH2 0x8BE JUMP JUMPDEST SWAP1 POP PUSH2 0x8B9 DUP3 DUP3 PUSH2 0x9A4 JUMP JUMPDEST SWAP2 SWAP1 POP JUMP JUMPDEST PUSH1 0x0 PUSH1 0x40 MLOAD SWAP1 POP SWAP1 JUMP JUMPDEST PUSH1 0x0 PUSH8 0xFFFFFFFFFFFFFFFF DUP3 GT ISZERO PUSH2 0x8E3 JUMPI PUSH2 0x8E2 PUSH2 0xA04 JUMP JUMPDEST JUMPDEST PUSH2 0x8EC DUP3 PUSH2 0xA47 JUMP JUMPDEST SWAP1 POP PUSH1 0x20 DUP2 ADD SWAP1 POP SWAP2 SWAP1 POP JUMP JUMPDEST PUSH1 0x0 DUP2 MLOAD SWAP1 POP SWAP2 SWAP1 POP JUMP JUMPDEST PUSH1 0x0 DUP3 DUP3 MSTORE PUSH1 0x20 DUP3 ADD SWAP1 POP SWAP3 SWAP2 POP POP JUMP JUMPDEST PUSH1 0x0 DUP3 DUP3 MSTORE PUSH1 0x20 DUP3 ADD SWAP1 POP SWAP3 SWAP2 POP POP JUMP JUMPDEST PUSH1 0x0 DUP2 SWAP1 POP SWAP2 SWAP1 POP JUMP JUMPDEST DUP3 DUP2 DUP4 CALLDATACOPY PUSH1 0x0 DUP4 DUP4 ADD MSTORE POP POP POP JUMP JUMPDEST PUSH1 0x0 JUMPDEST DUP4 DUP2 LT ISZERO PUSH2 0x95D JUMPI DUP1 DUP3 ADD MLOAD DUP2 DUP5 ADD MSTORE PUSH1 0x20 DUP2 ADD SWAP1 POP PUSH2 0x942 JUMP JUMPDEST DUP4 DUP2 GT ISZERO PUSH2 0x96C JUMPI PUSH1 0x0 DUP5 DUP5 ADD MSTORE JUMPDEST POP POP POP POP JUMP JUMPDEST PUSH1 0x0 PUSH1 0x2 DUP3 DIV SWAP1 POP PUSH1 0x1 DUP3 AND DUP1 PUSH2 0x98A JUMPI PUSH1 0x7F DUP3 AND SWAP2 POP JUMPDEST PUSH1 0x20 DUP3 LT DUP2 EQ ISZERO PUSH2 0x99E JUMPI PUSH2 0x99D PUSH2 0x9D5 JUMP JUMPDEST JUMPDEST POP SWAP2 SWAP1 POP JUMP JUMPDEST PUSH2 0x9AD DUP3 PUSH2 0xA47 JUMP JUMPDEST DUP2 ADD DUP2 DUP2 LT PUSH8 0xFFFFFFFFFFFFFFFF DUP3 GT OR ISZERO PUSH2 0x9CC JUMPI PUSH2 0x9CB PUSH2 0xA04 JUMP JUMPDEST JUMPDEST DUP1 PUSH1 0x40 MSTORE POP POP POP JUMP JUMPDEST PUSH32 0x4E487B7100000000000000000000000000000000000000000000000000000000 PUSH1 0x0 MSTORE PUSH1 0x22 PUSH1 0x4 MSTORE PUSH1 0x24 PUSH1 0x0 REVERT JUMPDEST PUSH32 0x4E487B7100000000000000000000000000000000000000000000000000000000 PUSH1 0x0 MSTORE PUSH1 0x41 PUSH1 0x4 MSTORE PUSH1 0x24 PUSH1 0x0 REVERT JUMPDEST PUSH1 0x0 DUP1 REVERT JUMPDEST PUSH1 0x0 DUP1 REVERT JUMPDEST PUSH1 0x0 DUP1 REVERT JUMPDEST PUSH1 0x0 DUP1 REVERT JUMPDEST PUSH1 0x0 PUSH1 0x1F NOT PUSH1 0x1F DUP4 ADD AND SWAP1 POP SWAP2 SWAP1 POP JUMP JUMPDEST PUSH32 0x596F7520617265206E6F742070617263656C206F776E65722E00000000000000 PUSH1 0x0 DUP3 ADD MSTORE POP JUMP JUMPDEST PUSH2 0xA8A DUP2 PUSH2 0x926 JUMP JUMPDEST DUP2 EQ PUSH2 0xA95 JUMPI PUSH1 0x0 DUP1 REVERT JUMPDEST POP JUMP INVALID LOG2 PUSH5 0x6970667358 0x22 SLT KECCAK256 PUSH22 0xA68DC0ADACE21F2C31456372BBAFF0AA375E49D9D258 DELEGATECALL 0xC8 PUSH6 0xE3DFC39C69D6 PUSH5 0x736F6C6343 STOP ADDMOD SMOD STOP CALLER "
				},
				"gasEstimates": {
					"creation": {
						"codeDepositCost": "553200",
						"executionCost": "24853",
						"totalCost": "578053"
					},
					"external": {
						"createParcel(uint256,string,uint256,uint256)": "infinite",
						"getParcel()": "infinite",
						"mortgage(string,uint256)": "infinite"
					}
				},
				"methodIdentifiers": {
					"createParcel(uint256,string,uint256,uint256)": "4854e056",
					"getParcel()": "466911e6",
					"mortgage(string,uint256)": "bfd6843d"
				}
			},
			"storageLayout": {
				"storage": [
					{
						"astId": 17,
						"contract": "contracts/Parcel.sol:Parcel",
						"label": "owner",
						"offset": 0,
						"slot": "0",
						"type": "t_address"
					},
					{
						"astId": 22,
						"contract": "contracts/Parcel.sol:Parcel",
						"label": "_parcel_land",
						"offset": 0,
						"slot": "1",
						"type": "t_mapping(t_address,t_struct(Parcel_land)10_storage)"
					},
					{
						"astId": 27,
						"contract": "contracts/Parcel.sol:Parcel",
						"label": "_olgt",
						"offset": 0,
						"slot": "2",
						"type": "t_mapping(t_address,t_struct(Olgt)15_storage)"
					}
				],
				"types": {
					"t_address": {
						"encoding": "inplace",
						"label": "address",
						"numberOfBytes": "20"
					},
					"t_mapping(t_address,t_struct(Olgt)15_storage)": {
						"encoding": "mapping",
						"key": "t_address",
						"label": "mapping(address => struct Olgt)",
						"numberOfBytes": "32",
						"value": "t_struct(Olgt)15_storage"
					},
					"t_mapping(t_address,t_struct(Parcel_land)10_storage)": {
						"encoding": "mapping",
						"key": "t_address",
						"label": "mapping(address => struct Parcel_land)",
						"numberOfBytes": "32",
						"value": "t_struct(Parcel_land)10_storage"
					},
					"t_string_storage": {
						"encoding": "bytes",
						"label": "string",
						"numberOfBytes": "32"
					},
					"t_struct(Olgt)15_storage": {
						"encoding": "inplace",
						"label": "struct Olgt",
						"members": [
							{
								"astId": 12,
								"contract": "contracts/Parcel.sol:Parcel",
								"label": "olgt_name",
								"offset": 0,
								"slot": "0",
								"type": "t_string_storage"
							},
							{
								"astId": 14,
								"contract": "contracts/Parcel.sol:Parcel",
								"label": "olgt_price",
								"offset": 0,
								"slot": "1",
								"type": "t_uint256"
							}
						],
						"numberOfBytes": "64"
					},
					"t_struct(Parcel_land)10_storage": {
						"encoding": "inplace",
						"label": "struct Parcel_land",
						"members": [
							{
								"astId": 3,
								"contract": "contracts/Parcel.sol:Parcel",
								"label": "parcel_no",
								"offset": 0,
								"slot": "0",
								"type": "t_uint256"
							},
							{
								"astId": 5,
								"contract": "contracts/Parcel.sol:Parcel",
								"label": "owner_name",
								"offset": 0,
								"slot": "1",
								"type": "t_string_storage"
							},
							{
								"astId": 7,
								"contract": "contracts/Parcel.sol:Parcel",
								"label": "price",
								"offset": 0,
								"slot": "2",
								"type": "t_uint256"
							},
							{
								"astId": 9,
								"contract": "contracts/Parcel.sol:Parcel",
								"label": "area",
								"offset": 0,
								"slot": "3",
								"type": "t_uint256"
							}
						],
						"numberOfBytes": "128"
					},
					"t_uint256": {
						"encoding": "inplace",
						"label": "uint256",
						"numberOfBytes": "32"
					}
				}
			},
			"userdoc": {
				"kind": "user",
				"methods": {},
				"version": 1
			}
		}
	}
}