{
	"contracts/Parcel.sol": {
		"Parcel": {
			"abi": [
				{
					"inputs": [],
					"stateMutability": "nonpayable",
					"type": "constructor"
				},
				{
					"inputs": [
						{
							"internalType": "address",
							"name": "owner",
							"type": "address"
						},
						{
							"internalType": "uint256",
							"name": "parcel_no",
							"type": "uint256"
						},
						{
							"internalType": "string",
							"name": "owner_name",
							"type": "string"
						},
						{
							"internalType": "uint256",
							"name": "price",
							"type": "uint256"
						},
						{
							"internalType": "uint256",
							"name": "area",
							"type": "uint256"
						}
					],
					"name": "createParcel",
					"outputs": [],
					"stateMutability": "payable",
					"type": "function"
				},
				{
					"inputs": [
						{
							"internalType": "address",
							"name": "bank",
							"type": "address"
						}
					],
					"name": "deposit",
					"outputs": [],
					"stateMutability": "payable",
					"type": "function"
				},
				{
					"inputs": [
						{
							"internalType": "address",
							"name": "owner",
							"type": "address"
						}
					],
					"name": "getOlgt",
					"outputs": [
						{
							"components": [
								{
									"internalType": "uint256",
									"name": "parcel_no",
									"type": "uint256"
								},
								{
									"internalType": "string",
									"name": "olgt_name",
									"type": "string"
								},
								{
									"internalType": "uint256",
									"name": "olgt_price",
									"type": "uint256"
								}
							],
							"internalType": "struct OlgtBank",
							"name": "olgt",
							"type": "tuple"
						}
					],
					"stateMutability": "view",
					"type": "function"
				},
				{
					"inputs": [
						{
							"internalType": "address",
							"name": "owner",
							"type": "address"
						}
					],
					"name": "getParcel",
					"outputs": [
						{
							"components": [
								{
									"internalType": "uint256",
									"name": "parcel_no",
									"type": "uint256"
								},
								{
									"internalType": "string",
									"name": "owner_name",
									"type": "string"
								},
								{
									"internalType": "uint256",
									"name": "price",
									"type": "uint256"
								},
								{
									"internalType": "uint256",
									"name": "area",
									"type": "uint256"
								}
							],
							"internalType": "struct Parcel_land",
							"name": "parcel_land",
							"type": "tuple"
						}
					],
					"stateMutability": "view",
					"type": "function"
				},
				{
					"inputs": [
						{
							"internalType": "address",
							"name": "owner",
							"type": "address"
						},
						{
							"internalType": "address",
							"name": "bank",
							"type": "address"
						},
						{
							"internalType": "uint256",
							"name": "parcel_no",
							"type": "uint256"
						},
						{
							"internalType": "string",
							"name": "owner_name",
							"type": "string"
						},
						{
							"internalType": "uint256",
							"name": "price",
							"type": "uint256"
						}
					],
					"name": "mortgage",
					"outputs": [],
					"stateMutability": "payable",
					"type": "function"
				},
				{
					"inputs": [
						{
							"internalType": "address",
							"name": "owner",
							"type": "address"
						},
						{
							"internalType": "string",
							"name": "owner_name",
							"type": "string"
						},
						{
							"internalType": "uint256",
							"name": "price",
							"type": "uint256"
						}
					],
					"name": "redeem",
					"outputs": [],
					"stateMutability": "nonpayable",
					"type": "function"
				}
			],
			"devdoc": {
				"kind": "dev",
				"methods": {},
				"version": 1
			},
			"evm": {
				"assembly": "    /* \"contracts/Parcel.sol\":317:2764  contract Parcel {\r... */\n  mstore(0x40, 0x80)\n    /* \"contracts/Parcel.sol\":533:584  constructor() {\r... */\n  callvalue\n  dup1\n  iszero\n  tag_1\n  jumpi\n  0x00\n  dup1\n  revert\ntag_1:\n  pop\n    /* \"contracts/Parcel.sol\":566:576  msg.sender */\n  caller\n    /* \"contracts/Parcel.sol\":558:563  staff */\n  0x00\n  dup1\n    /* \"contracts/Parcel.sol\":558:576  staff = msg.sender */\n  0x0100\n  exp\n  dup2\n  sload\n  dup2\n  0xffffffffffffffffffffffffffffffffffffffff\n  mul\n  not\n  and\n  swap1\n  dup4\n  0xffffffffffffffffffffffffffffffffffffffff\n  and\n  mul\n  or\n  swap1\n  sstore\n  pop\n    /* \"contracts/Parcel.sol\":317:2764  contract Parcel {\r... */\n  dataSize(sub_0)\n  dup1\n  dataOffset(sub_0)\n  0x00\n  codecopy\n  0x00\n  return\nstop\n\nsub_0: assembly {\n        /* \"contracts/Parcel.sol\":317:2764  contract Parcel {\r... */\n      mstore(0x40, 0x80)\n      jumpi(tag_1, lt(calldatasize, 0x04))\n      shr(0xe0, calldataload(0x00))\n      dup1\n      0x198e86c6\n      eq\n      tag_2\n      jumpi\n      dup1\n      0x215271cb\n      eq\n      tag_3\n      jumpi\n      dup1\n      0x868571ef\n      eq\n      tag_4\n      jumpi\n      dup1\n      0x8f1e4afa\n      eq\n      tag_5\n      jumpi\n      dup1\n      0x935656c2\n      eq\n      tag_6\n      jumpi\n      dup1\n      0xf340fa01\n      eq\n      tag_7\n      jumpi\n    tag_1:\n      0x00\n      dup1\n      revert\n        /* \"contracts/Parcel.sol\":1120:1260  function getParcel(address owner) isStaff public view returns (Parcel_land memory parcel_land) {\r... */\n    tag_2:\n      callvalue\n      dup1\n      iszero\n      tag_8\n      jumpi\n      0x00\n      dup1\n      revert\n    tag_8:\n      pop\n      tag_9\n      0x04\n      dup1\n      calldatasize\n      sub\n      dup2\n      add\n      swap1\n      tag_10\n      swap2\n      swap1\n      tag_11\n      jump\t// in\n    tag_10:\n      tag_12\n      jump\t// in\n    tag_9:\n      mload(0x40)\n      tag_13\n      swap2\n      swap1\n      tag_14\n      jump\t// in\n    tag_13:\n      mload(0x40)\n      dup1\n      swap2\n      sub\n      swap1\n      return\n        /* \"contracts/Parcel.sol\":1268:1394  function getOlgt(address owner) isStaff public view returns (OlgtBank memory olgt) {\r... */\n    tag_3:\n      callvalue\n      dup1\n      iszero\n      tag_15\n      jumpi\n      0x00\n      dup1\n      revert\n    tag_15:\n      pop\n      tag_16\n      0x04\n      dup1\n      calldatasize\n      sub\n      dup2\n      add\n      swap1\n      tag_17\n      swap2\n      swap1\n      tag_11\n      jump\t// in\n    tag_17:\n      tag_18\n      jump\t// in\n    tag_16:\n      mload(0x40)\n      tag_19\n      swap2\n      swap1\n      tag_20\n      jump\t// in\n    tag_19:\n      mload(0x40)\n      dup1\n      swap2\n      sub\n      swap1\n      return\n        /* \"contracts/Parcel.sol\":2394:2759  function redeem(address owner, string memory owner_name, uint price) isStaff public  {\r... */\n    tag_4:\n      callvalue\n      dup1\n      iszero\n      tag_21\n      jumpi\n      0x00\n      dup1\n      revert\n    tag_21:\n      pop\n      tag_22\n      0x04\n      dup1\n      calldatasize\n      sub\n      dup2\n      add\n      swap1\n      tag_23\n      swap2\n      swap1\n      tag_24\n      jump\t// in\n    tag_23:\n      tag_25\n      jump\t// in\n    tag_22:\n      stop\n        /* \"contracts/Parcel.sol\":1803:2228  function mortgage(address owner, address bank, uint parcel_no, string memory owner_name, uint price) isStaff public payable  {\r... */\n    tag_5:\n      tag_26\n      0x04\n      dup1\n      calldatasize\n      sub\n      dup2\n      add\n      swap1\n      tag_27\n      swap2\n      swap1\n      tag_28\n      jump\t// in\n    tag_27:\n      tag_29\n      jump\t// in\n    tag_26:\n      stop\n        /* \"contracts/Parcel.sol\":791:1112  function createParcel(address owner, uint parcel_no, string memory owner_name, uint price, uint area) isStaff public payable {\r... */\n    tag_6:\n      tag_30\n      0x04\n      dup1\n      calldatasize\n      sub\n      dup2\n      add\n      swap1\n      tag_31\n      swap2\n      swap1\n      tag_32\n      jump\t// in\n    tag_31:\n      tag_33\n      jump\t// in\n    tag_30:\n      stop\n        /* \"contracts/Parcel.sol\":1528:1670  function deposit(address bank)  public payable  {\r... */\n    tag_7:\n      tag_34\n      0x04\n      dup1\n      calldatasize\n      sub\n      dup2\n      add\n      swap1\n      tag_35\n      swap2\n      swap1\n      tag_11\n      jump\t// in\n    tag_35:\n      tag_36\n      jump\t// in\n    tag_34:\n      stop\n        /* \"contracts/Parcel.sol\":1120:1260  function getParcel(address owner) isStaff public view returns (Parcel_land memory parcel_land) {\r... */\n    tag_12:\n        /* \"contracts/Parcel.sol\":1183:1213  Parcel_land memory parcel_land */\n      tag_37\n      tag_38\n      jump\t// in\n    tag_37:\n        /* \"contracts/Parcel.sol\":642:647  staff */\n      0x00\n      dup1\n      sload\n      swap1\n      0x0100\n      exp\n      swap1\n      div\n      0xffffffffffffffffffffffffffffffffffffffff\n      and\n        /* \"contracts/Parcel.sol\":628:647  msg.sender == staff */\n      0xffffffffffffffffffffffffffffffffffffffff\n      and\n        /* \"contracts/Parcel.sol\":628:638  msg.sender */\n      caller\n        /* \"contracts/Parcel.sol\":628:647  msg.sender == staff */\n      0xffffffffffffffffffffffffffffffffffffffff\n      and\n      eq\n        /* \"contracts/Parcel.sol\":620:681  require(msg.sender == staff, \"You are not landoffice staff.\") */\n      tag_40\n      jumpi\n      mload(0x40)\n      0x08c379a000000000000000000000000000000000000000000000000000000000\n      dup2\n      mstore\n      0x04\n      add\n      tag_41\n      swap1\n      tag_42\n      jump\t// in\n    tag_41:\n      mload(0x40)\n      dup1\n      swap2\n      sub\n      swap1\n      revert\n    tag_40:\n        /* \"contracts/Parcel.sol\":1233:1245  _parcel_land */\n      0x01\n        /* \"contracts/Parcel.sol\":1233:1252  _parcel_land[owner] */\n      0x00\n        /* \"contracts/Parcel.sol\":1246:1251  owner */\n      dup4\n        /* \"contracts/Parcel.sol\":1233:1252  _parcel_land[owner] */\n      0xffffffffffffffffffffffffffffffffffffffff\n      and\n      0xffffffffffffffffffffffffffffffffffffffff\n      and\n      dup2\n      mstore\n      0x20\n      add\n      swap1\n      dup2\n      mstore\n      0x20\n      add\n      0x00\n      keccak256\n        /* \"contracts/Parcel.sol\":1226:1252  return _parcel_land[owner] */\n      mload(0x40)\n      dup1\n      0x80\n      add\n      0x40\n      mstore\n      swap1\n      dup2\n      0x00\n      dup3\n      add\n      sload\n      dup2\n      mstore\n      0x20\n      add\n      0x01\n      dup3\n      add\n      dup1\n      sload\n      tag_44\n      swap1\n      tag_45\n      jump\t// in\n    tag_44:\n      dup1\n      0x1f\n      add\n      0x20\n      dup1\n      swap2\n      div\n      mul\n      0x20\n      add\n      mload(0x40)\n      swap1\n      dup2\n      add\n      0x40\n      mstore\n      dup1\n      swap3\n      swap2\n      swap1\n      dup2\n      dup2\n      mstore\n      0x20\n      add\n      dup3\n      dup1\n      sload\n      tag_46\n      swap1\n      tag_45\n      jump\t// in\n    tag_46:\n      dup1\n      iszero\n      tag_47\n      jumpi\n      dup1\n      0x1f\n      lt\n      tag_48\n      jumpi\n      0x0100\n      dup1\n      dup4\n      sload\n      div\n      mul\n      dup4\n      mstore\n      swap2\n      0x20\n      add\n      swap2\n      jump(tag_47)\n    tag_48:\n      dup3\n      add\n      swap2\n      swap1\n      0x00\n      mstore\n      keccak256(0x00, 0x20)\n      swap1\n    tag_49:\n      dup2\n      sload\n      dup2\n      mstore\n      swap1\n      0x01\n      add\n      swap1\n      0x20\n      add\n      dup1\n      dup4\n      gt\n      tag_49\n      jumpi\n      dup3\n      swap1\n      sub\n      0x1f\n      and\n      dup3\n      add\n      swap2\n    tag_47:\n      pop\n      pop\n      pop\n      pop\n      pop\n      dup2\n      mstore\n      0x20\n      add\n      0x02\n      dup3\n      add\n      sload\n      dup2\n      mstore\n      0x20\n      add\n      0x03\n      dup3\n      add\n      sload\n      dup2\n      mstore\n      pop\n      pop\n      swap1\n      pop\n        /* \"contracts/Parcel.sol\":1120:1260  function getParcel(address owner) isStaff public view returns (Parcel_land memory parcel_land) {\r... */\n      swap2\n      swap1\n      pop\n      jump\t// out\n        /* \"contracts/Parcel.sol\":1268:1394  function getOlgt(address owner) isStaff public view returns (OlgtBank memory olgt) {\r... */\n    tag_18:\n        /* \"contracts/Parcel.sol\":1329:1349  OlgtBank memory olgt */\n      tag_50\n      tag_51\n      jump\t// in\n    tag_50:\n        /* \"contracts/Parcel.sol\":642:647  staff */\n      0x00\n      dup1\n      sload\n      swap1\n      0x0100\n      exp\n      swap1\n      div\n      0xffffffffffffffffffffffffffffffffffffffff\n      and\n        /* \"contracts/Parcel.sol\":628:647  msg.sender == staff */\n      0xffffffffffffffffffffffffffffffffffffffff\n      and\n        /* \"contracts/Parcel.sol\":628:638  msg.sender */\n      caller\n        /* \"contracts/Parcel.sol\":628:647  msg.sender == staff */\n      0xffffffffffffffffffffffffffffffffffffffff\n      and\n      eq\n        /* \"contracts/Parcel.sol\":620:681  require(msg.sender == staff, \"You are not landoffice staff.\") */\n      tag_53\n      jumpi\n      mload(0x40)\n      0x08c379a000000000000000000000000000000000000000000000000000000000\n      dup2\n      mstore\n      0x04\n      add\n      tag_54\n      swap1\n      tag_42\n      jump\t// in\n    tag_54:\n      mload(0x40)\n      dup1\n      swap2\n      sub\n      swap1\n      revert\n    tag_53:\n        /* \"contracts/Parcel.sol\":1369:1379  _olgt_bank */\n      0x02\n        /* \"contracts/Parcel.sol\":1369:1386  _olgt_bank[owner] */\n      0x00\n        /* \"contracts/Parcel.sol\":1380:1385  owner */\n      dup4\n        /* \"contracts/Parcel.sol\":1369:1386  _olgt_bank[owner] */\n      0xffffffffffffffffffffffffffffffffffffffff\n      and\n      0xffffffffffffffffffffffffffffffffffffffff\n      and\n      dup2\n      mstore\n      0x20\n      add\n      swap1\n      dup2\n      mstore\n      0x20\n      add\n      0x00\n      keccak256\n        /* \"contracts/Parcel.sol\":1362:1386  return _olgt_bank[owner] */\n      mload(0x40)\n      dup1\n      0x60\n      add\n      0x40\n      mstore\n      swap1\n      dup2\n      0x00\n      dup3\n      add\n      sload\n      dup2\n      mstore\n      0x20\n      add\n      0x01\n      dup3\n      add\n      dup1\n      sload\n      tag_56\n      swap1\n      tag_45\n      jump\t// in\n    tag_56:\n      dup1\n      0x1f\n      add\n      0x20\n      dup1\n      swap2\n      div\n      mul\n      0x20\n      add\n      mload(0x40)\n      swap1\n      dup2\n      add\n      0x40\n      mstore\n      dup1\n      swap3\n      swap2\n      swap1\n      dup2\n      dup2\n      mstore\n      0x20\n      add\n      dup3\n      dup1\n      sload\n      tag_57\n      swap1\n      tag_45\n      jump\t// in\n    tag_57:\n      dup1\n      iszero\n      tag_58\n      jumpi\n      dup1\n      0x1f\n      lt\n      tag_59\n      jumpi\n      0x0100\n      dup1\n      dup4\n      sload\n      div\n      mul\n      dup4\n      mstore\n      swap2\n      0x20\n      add\n      swap2\n      jump(tag_58)\n    tag_59:\n      dup3\n      add\n      swap2\n      swap1\n      0x00\n      mstore\n      keccak256(0x00, 0x20)\n      swap1\n    tag_60:\n      dup2\n      sload\n      dup2\n      mstore\n      swap1\n      0x01\n      add\n      swap1\n      0x20\n      add\n      dup1\n      dup4\n      gt\n      tag_60\n      jumpi\n      dup3\n      swap1\n      sub\n      0x1f\n      and\n      dup3\n      add\n      swap2\n    tag_58:\n      pop\n      pop\n      pop\n      pop\n      pop\n      dup2\n      mstore\n      0x20\n      add\n      0x02\n      dup3\n      add\n      sload\n      dup2\n      mstore\n      pop\n      pop\n      swap1\n      pop\n        /* \"contracts/Parcel.sol\":1268:1394  function getOlgt(address owner) isStaff public view returns (OlgtBank memory olgt) {\r... */\n      swap2\n      swap1\n      pop\n      jump\t// out\n        /* \"contracts/Parcel.sol\":2394:2759  function redeem(address owner, string memory owner_name, uint price) isStaff public  {\r... */\n    tag_25:\n        /* \"contracts/Parcel.sol\":642:647  staff */\n      0x00\n      dup1\n      sload\n      swap1\n      0x0100\n      exp\n      swap1\n      div\n      0xffffffffffffffffffffffffffffffffffffffff\n      and\n        /* \"contracts/Parcel.sol\":628:647  msg.sender == staff */\n      0xffffffffffffffffffffffffffffffffffffffff\n      and\n        /* \"contracts/Parcel.sol\":628:638  msg.sender */\n      caller\n        /* \"contracts/Parcel.sol\":628:647  msg.sender == staff */\n      0xffffffffffffffffffffffffffffffffffffffff\n      and\n      eq\n        /* \"contracts/Parcel.sol\":620:681  require(msg.sender == staff, \"You are not landoffice staff.\") */\n      tag_62\n      jumpi\n      mload(0x40)\n      0x08c379a000000000000000000000000000000000000000000000000000000000\n      dup2\n      mstore\n      0x04\n      add\n      tag_63\n      swap1\n      tag_42\n      jump\t// in\n    tag_63:\n      mload(0x40)\n      dup1\n      swap2\n      sub\n      swap1\n      revert\n    tag_62:\n        /* \"contracts/Parcel.sol\":2530:2535  price */\n      dup1\n        /* \"contracts/Parcel.sol\":2498:2508  _olgt_bank */\n      0x02\n        /* \"contracts/Parcel.sol\":2498:2515  _olgt_bank[owner] */\n      0x00\n        /* \"contracts/Parcel.sol\":2509:2514  owner */\n      dup6\n        /* \"contracts/Parcel.sol\":2498:2515  _olgt_bank[owner] */\n      0xffffffffffffffffffffffffffffffffffffffff\n      and\n      0xffffffffffffffffffffffffffffffffffffffff\n      and\n      dup2\n      mstore\n      0x20\n      add\n      swap1\n      dup2\n      mstore\n      0x20\n      add\n      0x00\n      keccak256\n        /* \"contracts/Parcel.sol\":2498:2526  _olgt_bank[owner].olgt_price */\n      0x02\n      add\n      sload\n        /* \"contracts/Parcel.sol\":2498:2535  _olgt_bank[owner].olgt_price >= price */\n      lt\n      iszero\n        /* \"contracts/Parcel.sol\":2490:2569  require(_olgt_bank[owner].olgt_price >= price, \"Insufficient fund for redeem.\") */\n      tag_65\n      jumpi\n      mload(0x40)\n      0x08c379a000000000000000000000000000000000000000000000000000000000\n      dup2\n      mstore\n      0x04\n      add\n      tag_66\n      swap1\n      tag_67\n      jump\t// in\n    tag_66:\n      mload(0x40)\n      dup1\n      swap2\n      sub\n      swap1\n      revert\n    tag_65:\n        /* \"contracts/Parcel.sol\":2613:2623  owner_name */\n      dup2\n        /* \"contracts/Parcel.sol\":2580:2592  _parcel_land */\n      0x01\n        /* \"contracts/Parcel.sol\":2580:2599  _parcel_land[owner] */\n      0x00\n        /* \"contracts/Parcel.sol\":2593:2598  owner */\n      dup6\n        /* \"contracts/Parcel.sol\":2580:2599  _parcel_land[owner] */\n      0xffffffffffffffffffffffffffffffffffffffff\n      and\n      0xffffffffffffffffffffffffffffffffffffffff\n      and\n      dup2\n      mstore\n      0x20\n      add\n      swap1\n      dup2\n      mstore\n      0x20\n      add\n      0x00\n      keccak256\n        /* \"contracts/Parcel.sol\":2580:2610  _parcel_land[owner].owner_name */\n      0x01\n      add\n        /* \"contracts/Parcel.sol\":2580:2623  _parcel_land[owner].owner_name = owner_name */\n      swap1\n      dup1\n      mload\n      swap1\n      0x20\n      add\n      swap1\n      tag_68\n      swap3\n      swap2\n      swap1\n      tag_69\n      jump\t// in\n    tag_68:\n      pop\n        /* \"contracts/Parcel.sol\":2664:2665  0 */\n      0x00\n        /* \"contracts/Parcel.sol\":2634:2644  _olgt_bank */\n      0x02\n        /* \"contracts/Parcel.sol\":2634:2651  _olgt_bank[owner] */\n      0x00\n        /* \"contracts/Parcel.sol\":2645:2650  owner */\n      dup6\n        /* \"contracts/Parcel.sol\":2634:2651  _olgt_bank[owner] */\n      0xffffffffffffffffffffffffffffffffffffffff\n      and\n      0xffffffffffffffffffffffffffffffffffffffff\n      and\n      dup2\n      mstore\n      0x20\n      add\n      swap1\n      dup2\n      mstore\n      0x20\n      add\n      0x00\n      keccak256\n        /* \"contracts/Parcel.sol\":2634:2661  _olgt_bank[owner].parcel_no */\n      0x00\n      add\n        /* \"contracts/Parcel.sol\":2634:2665  _olgt_bank[owner].parcel_no = 0 */\n      dup2\n      swap1\n      sstore\n      pop\n        /* \"contracts/Parcel.sol\":2676:2708  _olgt_bank[owner].olgt_name = \"\" */\n      mload(0x40)\n      dup1\n      0x20\n      add\n      0x40\n      mstore\n      dup1\n      0x00\n      dup2\n      mstore\n      pop\n        /* \"contracts/Parcel.sol\":2676:2686  _olgt_bank */\n      0x02\n        /* \"contracts/Parcel.sol\":2676:2693  _olgt_bank[owner] */\n      0x00\n        /* \"contracts/Parcel.sol\":2687:2692  owner */\n      dup6\n        /* \"contracts/Parcel.sol\":2676:2693  _olgt_bank[owner] */\n      0xffffffffffffffffffffffffffffffffffffffff\n      and\n      0xffffffffffffffffffffffffffffffffffffffff\n      and\n      dup2\n      mstore\n      0x20\n      add\n      swap1\n      dup2\n      mstore\n      0x20\n      add\n      0x00\n      keccak256\n        /* \"contracts/Parcel.sol\":2676:2703  _olgt_bank[owner].olgt_name */\n      0x01\n      add\n        /* \"contracts/Parcel.sol\":2676:2708  _olgt_bank[owner].olgt_name = \"\" */\n      swap1\n      dup1\n      mload\n      swap1\n      0x20\n      add\n      swap1\n      tag_70\n      swap3\n      swap2\n      swap1\n      tag_69\n      jump\t// in\n    tag_70:\n      pop\n        /* \"contracts/Parcel.sol\":2750:2751  0 */\n      0x00\n        /* \"contracts/Parcel.sol\":2719:2729  _olgt_bank */\n      0x02\n        /* \"contracts/Parcel.sol\":2719:2736  _olgt_bank[owner] */\n      0x00\n        /* \"contracts/Parcel.sol\":2730:2735  owner */\n      dup6\n        /* \"contracts/Parcel.sol\":2719:2736  _olgt_bank[owner] */\n      0xffffffffffffffffffffffffffffffffffffffff\n      and\n      0xffffffffffffffffffffffffffffffffffffffff\n      and\n      dup2\n      mstore\n      0x20\n      add\n      swap1\n      dup2\n      mstore\n      0x20\n      add\n      0x00\n      keccak256\n        /* \"contracts/Parcel.sol\":2719:2747  _olgt_bank[owner].olgt_price */\n      0x02\n      add\n        /* \"contracts/Parcel.sol\":2719:2751  _olgt_bank[owner].olgt_price = 0 */\n      dup2\n      swap1\n      sstore\n      pop\n        /* \"contracts/Parcel.sol\":2394:2759  function redeem(address owner, string memory owner_name, uint price) isStaff public  {\r... */\n      pop\n      pop\n      pop\n      jump\t// out\n        /* \"contracts/Parcel.sol\":1803:2228  function mortgage(address owner, address bank, uint parcel_no, string memory owner_name, uint price) isStaff public payable  {\r... */\n    tag_29:\n        /* \"contracts/Parcel.sol\":642:647  staff */\n      0x00\n      dup1\n      sload\n      swap1\n      0x0100\n      exp\n      swap1\n      div\n      0xffffffffffffffffffffffffffffffffffffffff\n      and\n        /* \"contracts/Parcel.sol\":628:647  msg.sender == staff */\n      0xffffffffffffffffffffffffffffffffffffffff\n      and\n        /* \"contracts/Parcel.sol\":628:638  msg.sender */\n      caller\n        /* \"contracts/Parcel.sol\":628:647  msg.sender == staff */\n      0xffffffffffffffffffffffffffffffffffffffff\n      and\n      eq\n        /* \"contracts/Parcel.sol\":620:681  require(msg.sender == staff, \"You are not landoffice staff.\") */\n      tag_72\n      jumpi\n      mload(0x40)\n      0x08c379a000000000000000000000000000000000000000000000000000000000\n      dup2\n      mstore\n      0x04\n      add\n      tag_73\n      swap1\n      tag_42\n      jump\t// in\n    tag_73:\n      mload(0x40)\n      dup1\n      swap2\n      sub\n      swap1\n      revert\n    tag_72:\n        /* \"contracts/Parcel.sol\":1972:1982  owner_name */\n      dup2\n        /* \"contracts/Parcel.sol\":1939:1951  _parcel_land */\n      0x01\n        /* \"contracts/Parcel.sol\":1939:1958  _parcel_land[owner] */\n      0x00\n        /* \"contracts/Parcel.sol\":1952:1957  owner */\n      dup8\n        /* \"contracts/Parcel.sol\":1939:1958  _parcel_land[owner] */\n      0xffffffffffffffffffffffffffffffffffffffff\n      and\n      0xffffffffffffffffffffffffffffffffffffffff\n      and\n      dup2\n      mstore\n      0x20\n      add\n      swap1\n      dup2\n      mstore\n      0x20\n      add\n      0x00\n      keccak256\n        /* \"contracts/Parcel.sol\":1939:1969  _parcel_land[owner].owner_name */\n      0x01\n      add\n        /* \"contracts/Parcel.sol\":1939:1982  _parcel_land[owner].owner_name = owner_name */\n      swap1\n      dup1\n      mload\n      swap1\n      0x20\n      add\n      swap1\n      tag_75\n      swap3\n      swap2\n      swap1\n      tag_69\n      jump\t// in\n    tag_75:\n      pop\n        /* \"contracts/Parcel.sol\":2023:2032  parcel_no */\n      dup3\n        /* \"contracts/Parcel.sol\":1993:2003  _olgt_bank */\n      0x02\n        /* \"contracts/Parcel.sol\":1993:2010  _olgt_bank[owner] */\n      0x00\n        /* \"contracts/Parcel.sol\":2004:2009  owner */\n      dup8\n        /* \"contracts/Parcel.sol\":1993:2010  _olgt_bank[owner] */\n      0xffffffffffffffffffffffffffffffffffffffff\n      and\n      0xffffffffffffffffffffffffffffffffffffffff\n      and\n      dup2\n      mstore\n      0x20\n      add\n      swap1\n      dup2\n      mstore\n      0x20\n      add\n      0x00\n      keccak256\n        /* \"contracts/Parcel.sol\":1993:2020  _olgt_bank[owner].parcel_no */\n      0x00\n      add\n        /* \"contracts/Parcel.sol\":1993:2032  _olgt_bank[owner].parcel_no = parcel_no */\n      dup2\n      swap1\n      sstore\n      pop\n        /* \"contracts/Parcel.sol\":2073:2083  owner_name */\n      dup2\n        /* \"contracts/Parcel.sol\":2043:2053  _olgt_bank */\n      0x02\n        /* \"contracts/Parcel.sol\":2043:2060  _olgt_bank[owner] */\n      0x00\n        /* \"contracts/Parcel.sol\":2054:2059  owner */\n      dup8\n        /* \"contracts/Parcel.sol\":2043:2060  _olgt_bank[owner] */\n      0xffffffffffffffffffffffffffffffffffffffff\n      and\n      0xffffffffffffffffffffffffffffffffffffffff\n      and\n      dup2\n      mstore\n      0x20\n      add\n      swap1\n      dup2\n      mstore\n      0x20\n      add\n      0x00\n      keccak256\n        /* \"contracts/Parcel.sol\":2043:2070  _olgt_bank[owner].olgt_name */\n      0x01\n      add\n        /* \"contracts/Parcel.sol\":2043:2083  _olgt_bank[owner].olgt_name = owner_name */\n      swap1\n      dup1\n      mload\n      swap1\n      0x20\n      add\n      swap1\n      tag_76\n      swap3\n      swap2\n      swap1\n      tag_69\n      jump\t// in\n    tag_76:\n      pop\n        /* \"contracts/Parcel.sol\":2125:2130  price */\n      dup1\n        /* \"contracts/Parcel.sol\":2094:2104  _olgt_bank */\n      0x02\n        /* \"contracts/Parcel.sol\":2094:2111  _olgt_bank[owner] */\n      0x00\n        /* \"contracts/Parcel.sol\":2105:2110  owner */\n      dup8\n        /* \"contracts/Parcel.sol\":2094:2111  _olgt_bank[owner] */\n      0xffffffffffffffffffffffffffffffffffffffff\n      and\n      0xffffffffffffffffffffffffffffffffffffffff\n      and\n      dup2\n      mstore\n      0x20\n      add\n      swap1\n      dup2\n      mstore\n      0x20\n      add\n      0x00\n      keccak256\n        /* \"contracts/Parcel.sol\":2094:2122  _olgt_bank[owner].olgt_price */\n      0x02\n      add\n        /* \"contracts/Parcel.sol\":2094:2130  _olgt_bank[owner].olgt_price = price */\n      dup2\n      swap1\n      sstore\n      pop\n        /* \"contracts/Parcel.sol\":2199:2203  bank */\n      dup4\n        /* \"contracts/Parcel.sol\":2191:2213  payable(bank).transfer */\n      0xffffffffffffffffffffffffffffffffffffffff\n      and\n        /* \"contracts/Parcel.sol\":2191:2220  payable(bank).transfer(price) */\n      0x08fc\n        /* \"contracts/Parcel.sol\":2214:2219  price */\n      dup3\n        /* \"contracts/Parcel.sol\":2191:2220  payable(bank).transfer(price) */\n      swap1\n      dup2\n      iszero\n      mul\n      swap1\n      mload(0x40)\n      0x00\n      mload(0x40)\n      dup1\n      dup4\n      sub\n      dup2\n      dup6\n      dup9\n      dup9\n      call\n      swap4\n      pop\n      pop\n      pop\n      pop\n      iszero\n      dup1\n      iszero\n      tag_78\n      jumpi\n      returndatasize\n      0x00\n      dup1\n      returndatacopy\n      revert(0x00, returndatasize)\n    tag_78:\n      pop\n        /* \"contracts/Parcel.sol\":1803:2228  function mortgage(address owner, address bank, uint parcel_no, string memory owner_name, uint price) isStaff public payable  {\r... */\n      pop\n      pop\n      pop\n      pop\n      pop\n      jump\t// out\n        /* \"contracts/Parcel.sol\":791:1112  function createParcel(address owner, uint parcel_no, string memory owner_name, uint price, uint area) isStaff public payable {\r... */\n    tag_33:\n        /* \"contracts/Parcel.sol\":642:647  staff */\n      0x00\n      dup1\n      sload\n      swap1\n      0x0100\n      exp\n      swap1\n      div\n      0xffffffffffffffffffffffffffffffffffffffff\n      and\n        /* \"contracts/Parcel.sol\":628:647  msg.sender == staff */\n      0xffffffffffffffffffffffffffffffffffffffff\n      and\n        /* \"contracts/Parcel.sol\":628:638  msg.sender */\n      caller\n        /* \"contracts/Parcel.sol\":628:647  msg.sender == staff */\n      0xffffffffffffffffffffffffffffffffffffffff\n      and\n      eq\n        /* \"contracts/Parcel.sol\":620:681  require(msg.sender == staff, \"You are not landoffice staff.\") */\n      tag_80\n      jumpi\n      mload(0x40)\n      0x08c379a000000000000000000000000000000000000000000000000000000000\n      dup2\n      mstore\n      0x04\n      add\n      tag_81\n      swap1\n      tag_42\n      jump\t// in\n    tag_81:\n      mload(0x40)\n      dup1\n      swap2\n      sub\n      swap1\n      revert\n    tag_80:\n        /* \"contracts/Parcel.sol\":958:967  parcel_no */\n      dup4\n        /* \"contracts/Parcel.sol\":926:938  _parcel_land */\n      0x01\n        /* \"contracts/Parcel.sol\":926:945  _parcel_land[owner] */\n      0x00\n        /* \"contracts/Parcel.sol\":939:944  owner */\n      dup8\n        /* \"contracts/Parcel.sol\":926:945  _parcel_land[owner] */\n      0xffffffffffffffffffffffffffffffffffffffff\n      and\n      0xffffffffffffffffffffffffffffffffffffffff\n      and\n      dup2\n      mstore\n      0x20\n      add\n      swap1\n      dup2\n      mstore\n      0x20\n      add\n      0x00\n      keccak256\n        /* \"contracts/Parcel.sol\":926:955  _parcel_land[owner].parcel_no */\n      0x00\n      add\n        /* \"contracts/Parcel.sol\":926:967  _parcel_land[owner].parcel_no = parcel_no */\n      dup2\n      swap1\n      sstore\n      pop\n        /* \"contracts/Parcel.sol\":1010:1020  owner_name */\n      dup3\n        /* \"contracts/Parcel.sol\":977:989  _parcel_land */\n      0x01\n        /* \"contracts/Parcel.sol\":977:996  _parcel_land[owner] */\n      0x00\n        /* \"contracts/Parcel.sol\":990:995  owner */\n      dup8\n        /* \"contracts/Parcel.sol\":977:996  _parcel_land[owner] */\n      0xffffffffffffffffffffffffffffffffffffffff\n      and\n      0xffffffffffffffffffffffffffffffffffffffff\n      and\n      dup2\n      mstore\n      0x20\n      add\n      swap1\n      dup2\n      mstore\n      0x20\n      add\n      0x00\n      keccak256\n        /* \"contracts/Parcel.sol\":977:1007  _parcel_land[owner].owner_name */\n      0x01\n      add\n        /* \"contracts/Parcel.sol\":977:1020  _parcel_land[owner].owner_name = owner_name */\n      swap1\n      dup1\n      mload\n      swap1\n      0x20\n      add\n      swap1\n      tag_83\n      swap3\n      swap2\n      swap1\n      tag_69\n      jump\t// in\n    tag_83:\n      pop\n        /* \"contracts/Parcel.sol\":1058:1063  price */\n      dup2\n        /* \"contracts/Parcel.sol\":1030:1042  _parcel_land */\n      0x01\n        /* \"contracts/Parcel.sol\":1030:1049  _parcel_land[owner] */\n      0x00\n        /* \"contracts/Parcel.sol\":1043:1048  owner */\n      dup8\n        /* \"contracts/Parcel.sol\":1030:1049  _parcel_land[owner] */\n      0xffffffffffffffffffffffffffffffffffffffff\n      and\n      0xffffffffffffffffffffffffffffffffffffffff\n      and\n      dup2\n      mstore\n      0x20\n      add\n      swap1\n      dup2\n      mstore\n      0x20\n      add\n      0x00\n      keccak256\n        /* \"contracts/Parcel.sol\":1030:1055  _parcel_land[owner].price */\n      0x02\n      add\n        /* \"contracts/Parcel.sol\":1030:1063  _parcel_land[owner].price = price */\n      dup2\n      swap1\n      sstore\n      pop\n        /* \"contracts/Parcel.sol\":1100:1104  area */\n      dup1\n        /* \"contracts/Parcel.sol\":1073:1085  _parcel_land */\n      0x01\n        /* \"contracts/Parcel.sol\":1073:1092  _parcel_land[owner] */\n      0x00\n        /* \"contracts/Parcel.sol\":1086:1091  owner */\n      dup8\n        /* \"contracts/Parcel.sol\":1073:1092  _parcel_land[owner] */\n      0xffffffffffffffffffffffffffffffffffffffff\n      and\n      0xffffffffffffffffffffffffffffffffffffffff\n      and\n      dup2\n      mstore\n      0x20\n      add\n      swap1\n      dup2\n      mstore\n      0x20\n      add\n      0x00\n      keccak256\n        /* \"contracts/Parcel.sol\":1073:1097  _parcel_land[owner].area */\n      0x03\n      add\n        /* \"contracts/Parcel.sol\":1073:1104  _parcel_land[owner].area = area */\n      dup2\n      swap1\n      sstore\n      pop\n        /* \"contracts/Parcel.sol\":791:1112  function createParcel(address owner, uint parcel_no, string memory owner_name, uint price, uint area) isStaff public payable {\r... */\n      pop\n      pop\n      pop\n      pop\n      pop\n      jump\t// out\n        /* \"contracts/Parcel.sol\":1528:1670  function deposit(address bank)  public payable  {\r... */\n    tag_36:\n        /* \"contracts/Parcel.sol\":1645:1649  bank */\n      dup1\n        /* \"contracts/Parcel.sol\":1637:1659  payable(bank).transfer */\n      0xffffffffffffffffffffffffffffffffffffffff\n      and\n        /* \"contracts/Parcel.sol\":1637:1662  payable(bank).transfer(2) */\n      0x08fc\n        /* \"contracts/Parcel.sol\":1660:1661  2 */\n      0x02\n        /* \"contracts/Parcel.sol\":1637:1662  payable(bank).transfer(2) */\n      swap1\n      dup2\n      iszero\n      mul\n      swap1\n      mload(0x40)\n      0x00\n      mload(0x40)\n      dup1\n      dup4\n      sub\n      dup2\n      dup6\n      dup9\n      dup9\n      call\n      swap4\n      pop\n      pop\n      pop\n      pop\n      iszero\n      dup1\n      iszero\n      tag_86\n      jumpi\n      returndatasize\n      0x00\n      dup1\n      returndatacopy\n      revert(0x00, returndatasize)\n    tag_86:\n      pop\n        /* \"contracts/Parcel.sol\":1528:1670  function deposit(address bank)  public payable  {\r... */\n      pop\n      jump\t// out\n    tag_38:\n      mload(0x40)\n      dup1\n      0x80\n      add\n      0x40\n      mstore\n      dup1\n      0x00\n      dup2\n      mstore\n      0x20\n      add\n      0x60\n      dup2\n      mstore\n      0x20\n      add\n      0x00\n      dup2\n      mstore\n      0x20\n      add\n      0x00\n      dup2\n      mstore\n      pop\n      swap1\n      jump\t// out\n    tag_51:\n      mload(0x40)\n      dup1\n      0x60\n      add\n      0x40\n      mstore\n      dup1\n      0x00\n      dup2\n      mstore\n      0x20\n      add\n      0x60\n      dup2\n      mstore\n      0x20\n      add\n      0x00\n      dup2\n      mstore\n      pop\n      swap1\n      jump\t// out\n    tag_69:\n      dup3\n      dup1\n      sload\n      tag_87\n      swap1\n      tag_45\n      jump\t// in\n    tag_87:\n      swap1\n      0x00\n      mstore\n      keccak256(0x00, 0x20)\n      swap1\n      0x1f\n      add\n      0x20\n      swap1\n      div\n      dup2\n      add\n      swap3\n      dup3\n      tag_89\n      jumpi\n      0x00\n      dup6\n      sstore\n      jump(tag_88)\n    tag_89:\n      dup3\n      0x1f\n      lt\n      tag_90\n      jumpi\n      dup1\n      mload\n      not(0xff)\n      and\n      dup4\n      dup1\n      add\n      or\n      dup6\n      sstore\n      jump(tag_88)\n    tag_90:\n      dup3\n      dup1\n      add\n      0x01\n      add\n      dup6\n      sstore\n      dup3\n      iszero\n      tag_88\n      jumpi\n      swap2\n      dup3\n      add\n    tag_91:\n      dup3\n      dup2\n      gt\n      iszero\n      tag_92\n      jumpi\n      dup3\n      mload\n      dup3\n      sstore\n      swap2\n      0x20\n      add\n      swap2\n      swap1\n      0x01\n      add\n      swap1\n      jump(tag_91)\n    tag_92:\n    tag_88:\n      pop\n      swap1\n      pop\n      tag_93\n      swap2\n      swap1\n      tag_94\n      jump\t// in\n    tag_93:\n      pop\n      swap1\n      jump\t// out\n    tag_94:\n    tag_95:\n      dup1\n      dup3\n      gt\n      iszero\n      tag_96\n      jumpi\n      0x00\n      dup2\n      0x00\n      swap1\n      sstore\n      pop\n      0x01\n      add\n      jump(tag_95)\n    tag_96:\n      pop\n      swap1\n      jump\t// out\n        /* \"#utility.yul\":7:419   */\n    tag_98:\n        /* \"#utility.yul\":85:90   */\n      0x00\n        /* \"#utility.yul\":110:176   */\n      tag_100\n        /* \"#utility.yul\":126:175   */\n      tag_101\n        /* \"#utility.yul\":168:174   */\n      dup5\n        /* \"#utility.yul\":126:175   */\n      tag_102\n      jump\t// in\n    tag_101:\n        /* \"#utility.yul\":110:176   */\n      tag_103\n      jump\t// in\n    tag_100:\n        /* \"#utility.yul\":101:176   */\n      swap1\n      pop\n        /* \"#utility.yul\":199:205   */\n      dup3\n        /* \"#utility.yul\":192:197   */\n      dup2\n        /* \"#utility.yul\":185:206   */\n      mstore\n        /* \"#utility.yul\":237:241   */\n      0x20\n        /* \"#utility.yul\":230:235   */\n      dup2\n        /* \"#utility.yul\":226:242   */\n      add\n        /* \"#utility.yul\":275:278   */\n      dup5\n        /* \"#utility.yul\":266:272   */\n      dup5\n        /* \"#utility.yul\":261:264   */\n      dup5\n        /* \"#utility.yul\":257:273   */\n      add\n        /* \"#utility.yul\":254:279   */\n      gt\n        /* \"#utility.yul\":251:363   */\n      iszero\n      tag_104\n      jumpi\n        /* \"#utility.yul\":282:361   */\n      tag_105\n      tag_106\n      jump\t// in\n    tag_105:\n        /* \"#utility.yul\":251:363   */\n    tag_104:\n        /* \"#utility.yul\":372:413   */\n      tag_107\n        /* \"#utility.yul\":406:412   */\n      dup5\n        /* \"#utility.yul\":401:404   */\n      dup3\n        /* \"#utility.yul\":396:399   */\n      dup6\n        /* \"#utility.yul\":372:413   */\n      tag_108\n      jump\t// in\n    tag_107:\n        /* \"#utility.yul\":91:419   */\n      pop\n        /* \"#utility.yul\":7:419   */\n      swap4\n      swap3\n      pop\n      pop\n      pop\n      jump\t// out\n        /* \"#utility.yul\":425:564   */\n    tag_109:\n        /* \"#utility.yul\":471:476   */\n      0x00\n        /* \"#utility.yul\":509:515   */\n      dup2\n        /* \"#utility.yul\":496:516   */\n      calldataload\n        /* \"#utility.yul\":487:516   */\n      swap1\n      pop\n        /* \"#utility.yul\":525:558   */\n      tag_111\n        /* \"#utility.yul\":552:557   */\n      dup2\n        /* \"#utility.yul\":525:558   */\n      tag_112\n      jump\t// in\n    tag_111:\n        /* \"#utility.yul\":425:564   */\n      swap3\n      swap2\n      pop\n      pop\n      jump\t// out\n        /* \"#utility.yul\":584:924   */\n    tag_113:\n        /* \"#utility.yul\":640:645   */\n      0x00\n        /* \"#utility.yul\":689:692   */\n      dup3\n        /* \"#utility.yul\":682:686   */\n      0x1f\n        /* \"#utility.yul\":674:680   */\n      dup4\n        /* \"#utility.yul\":670:687   */\n      add\n        /* \"#utility.yul\":666:693   */\n      slt\n        /* \"#utility.yul\":656:778   */\n      tag_115\n      jumpi\n        /* \"#utility.yul\":697:776   */\n      tag_116\n      tag_117\n      jump\t// in\n    tag_116:\n        /* \"#utility.yul\":656:778   */\n    tag_115:\n        /* \"#utility.yul\":814:820   */\n      dup2\n        /* \"#utility.yul\":801:821   */\n      calldataload\n        /* \"#utility.yul\":839:918   */\n      tag_118\n        /* \"#utility.yul\":914:917   */\n      dup5\n        /* \"#utility.yul\":906:912   */\n      dup3\n        /* \"#utility.yul\":899:903   */\n      0x20\n        /* \"#utility.yul\":891:897   */\n      dup7\n        /* \"#utility.yul\":887:904   */\n      add\n        /* \"#utility.yul\":839:918   */\n      tag_98\n      jump\t// in\n    tag_118:\n        /* \"#utility.yul\":830:918   */\n      swap2\n      pop\n        /* \"#utility.yul\":646:924   */\n      pop\n        /* \"#utility.yul\":584:924   */\n      swap3\n      swap2\n      pop\n      pop\n      jump\t// out\n        /* \"#utility.yul\":930:1069   */\n    tag_119:\n        /* \"#utility.yul\":976:981   */\n      0x00\n        /* \"#utility.yul\":1014:1020   */\n      dup2\n        /* \"#utility.yul\":1001:1021   */\n      calldataload\n        /* \"#utility.yul\":992:1021   */\n      swap1\n      pop\n        /* \"#utility.yul\":1030:1063   */\n      tag_121\n        /* \"#utility.yul\":1057:1062   */\n      dup2\n        /* \"#utility.yul\":1030:1063   */\n      tag_122\n      jump\t// in\n    tag_121:\n        /* \"#utility.yul\":930:1069   */\n      swap3\n      swap2\n      pop\n      pop\n      jump\t// out\n        /* \"#utility.yul\":1075:1404   */\n    tag_11:\n        /* \"#utility.yul\":1134:1140   */\n      0x00\n        /* \"#utility.yul\":1183:1185   */\n      0x20\n        /* \"#utility.yul\":1171:1180   */\n      dup3\n        /* \"#utility.yul\":1162:1169   */\n      dup5\n        /* \"#utility.yul\":1158:1181   */\n      sub\n        /* \"#utility.yul\":1154:1186   */\n      slt\n        /* \"#utility.yul\":1151:1270   */\n      iszero\n      tag_124\n      jumpi\n        /* \"#utility.yul\":1189:1268   */\n      tag_125\n      tag_126\n      jump\t// in\n    tag_125:\n        /* \"#utility.yul\":1151:1270   */\n    tag_124:\n        /* \"#utility.yul\":1309:1310   */\n      0x00\n        /* \"#utility.yul\":1334:1387   */\n      tag_127\n        /* \"#utility.yul\":1379:1386   */\n      dup5\n        /* \"#utility.yul\":1370:1376   */\n      dup3\n        /* \"#utility.yul\":1359:1368   */\n      dup6\n        /* \"#utility.yul\":1355:1377   */\n      add\n        /* \"#utility.yul\":1334:1387   */\n      tag_109\n      jump\t// in\n    tag_127:\n        /* \"#utility.yul\":1324:1387   */\n      swap2\n      pop\n        /* \"#utility.yul\":1280:1397   */\n      pop\n        /* \"#utility.yul\":1075:1404   */\n      swap3\n      swap2\n      pop\n      pop\n      jump\t// out\n        /* \"#utility.yul\":1410:2501   */\n    tag_28:\n        /* \"#utility.yul\":1515:1521   */\n      0x00\n        /* \"#utility.yul\":1523:1529   */\n      dup1\n        /* \"#utility.yul\":1531:1537   */\n      0x00\n        /* \"#utility.yul\":1539:1545   */\n      dup1\n        /* \"#utility.yul\":1547:1553   */\n      0x00\n        /* \"#utility.yul\":1596:1599   */\n      0xa0\n        /* \"#utility.yul\":1584:1593   */\n      dup7\n        /* \"#utility.yul\":1575:1582   */\n      dup9\n        /* \"#utility.yul\":1571:1594   */\n      sub\n        /* \"#utility.yul\":1567:1600   */\n      slt\n        /* \"#utility.yul\":1564:1684   */\n      iszero\n      tag_129\n      jumpi\n        /* \"#utility.yul\":1603:1682   */\n      tag_130\n      tag_126\n      jump\t// in\n    tag_130:\n        /* \"#utility.yul\":1564:1684   */\n    tag_129:\n        /* \"#utility.yul\":1723:1724   */\n      0x00\n        /* \"#utility.yul\":1748:1801   */\n      tag_131\n        /* \"#utility.yul\":1793:1800   */\n      dup9\n        /* \"#utility.yul\":1784:1790   */\n      dup3\n        /* \"#utility.yul\":1773:1782   */\n      dup10\n        /* \"#utility.yul\":1769:1791   */\n      add\n        /* \"#utility.yul\":1748:1801   */\n      tag_109\n      jump\t// in\n    tag_131:\n        /* \"#utility.yul\":1738:1801   */\n      swap6\n      pop\n        /* \"#utility.yul\":1694:1811   */\n      pop\n        /* \"#utility.yul\":1850:1852   */\n      0x20\n        /* \"#utility.yul\":1876:1929   */\n      tag_132\n        /* \"#utility.yul\":1921:1928   */\n      dup9\n        /* \"#utility.yul\":1912:1918   */\n      dup3\n        /* \"#utility.yul\":1901:1910   */\n      dup10\n        /* \"#utility.yul\":1897:1919   */\n      add\n        /* \"#utility.yul\":1876:1929   */\n      tag_109\n      jump\t// in\n    tag_132:\n        /* \"#utility.yul\":1866:1929   */\n      swap5\n      pop\n        /* \"#utility.yul\":1821:1939   */\n      pop\n        /* \"#utility.yul\":1978:1980   */\n      0x40\n        /* \"#utility.yul\":2004:2057   */\n      tag_133\n        /* \"#utility.yul\":2049:2056   */\n      dup9\n        /* \"#utility.yul\":2040:2046   */\n      dup3\n        /* \"#utility.yul\":2029:2038   */\n      dup10\n        /* \"#utility.yul\":2025:2047   */\n      add\n        /* \"#utility.yul\":2004:2057   */\n      tag_119\n      jump\t// in\n    tag_133:\n        /* \"#utility.yul\":1994:2057   */\n      swap4\n      pop\n        /* \"#utility.yul\":1949:2067   */\n      pop\n        /* \"#utility.yul\":2134:2136   */\n      0x60\n        /* \"#utility.yul\":2123:2132   */\n      dup7\n        /* \"#utility.yul\":2119:2137   */\n      add\n        /* \"#utility.yul\":2106:2138   */\n      calldataload\n        /* \"#utility.yul\":2165:2183   */\n      0xffffffffffffffff\n        /* \"#utility.yul\":2157:2163   */\n      dup2\n        /* \"#utility.yul\":2154:2184   */\n      gt\n        /* \"#utility.yul\":2151:2268   */\n      iszero\n      tag_134\n      jumpi\n        /* \"#utility.yul\":2187:2266   */\n      tag_135\n      tag_136\n      jump\t// in\n    tag_135:\n        /* \"#utility.yul\":2151:2268   */\n    tag_134:\n        /* \"#utility.yul\":2292:2355   */\n      tag_137\n        /* \"#utility.yul\":2347:2354   */\n      dup9\n        /* \"#utility.yul\":2338:2344   */\n      dup3\n        /* \"#utility.yul\":2327:2336   */\n      dup10\n        /* \"#utility.yul\":2323:2345   */\n      add\n        /* \"#utility.yul\":2292:2355   */\n      tag_113\n      jump\t// in\n    tag_137:\n        /* \"#utility.yul\":2282:2355   */\n      swap3\n      pop\n        /* \"#utility.yul\":2077:2365   */\n      pop\n        /* \"#utility.yul\":2404:2407   */\n      0x80\n        /* \"#utility.yul\":2431:2484   */\n      tag_138\n        /* \"#utility.yul\":2476:2483   */\n      dup9\n        /* \"#utility.yul\":2467:2473   */\n      dup3\n        /* \"#utility.yul\":2456:2465   */\n      dup10\n        /* \"#utility.yul\":2452:2474   */\n      add\n        /* \"#utility.yul\":2431:2484   */\n      tag_119\n      jump\t// in\n    tag_138:\n        /* \"#utility.yul\":2421:2484   */\n      swap2\n      pop\n        /* \"#utility.yul\":2375:2494   */\n      pop\n        /* \"#utility.yul\":1410:2501   */\n      swap3\n      swap6\n      pop\n      swap3\n      swap6\n      swap1\n      swap4\n      pop\n      jump\t// out\n        /* \"#utility.yul\":2507:3306   */\n    tag_24:\n        /* \"#utility.yul\":2594:2600   */\n      0x00\n        /* \"#utility.yul\":2602:2608   */\n      dup1\n        /* \"#utility.yul\":2610:2616   */\n      0x00\n        /* \"#utility.yul\":2659:2661   */\n      0x60\n        /* \"#utility.yul\":2647:2656   */\n      dup5\n        /* \"#utility.yul\":2638:2645   */\n      dup7\n        /* \"#utility.yul\":2634:2657   */\n      sub\n        /* \"#utility.yul\":2630:2662   */\n      slt\n        /* \"#utility.yul\":2627:2746   */\n      iszero\n      tag_140\n      jumpi\n        /* \"#utility.yul\":2665:2744   */\n      tag_141\n      tag_126\n      jump\t// in\n    tag_141:\n        /* \"#utility.yul\":2627:2746   */\n    tag_140:\n        /* \"#utility.yul\":2785:2786   */\n      0x00\n        /* \"#utility.yul\":2810:2863   */\n      tag_142\n        /* \"#utility.yul\":2855:2862   */\n      dup7\n        /* \"#utility.yul\":2846:2852   */\n      dup3\n        /* \"#utility.yul\":2835:2844   */\n      dup8\n        /* \"#utility.yul\":2831:2853   */\n      add\n        /* \"#utility.yul\":2810:2863   */\n      tag_109\n      jump\t// in\n    tag_142:\n        /* \"#utility.yul\":2800:2863   */\n      swap4\n      pop\n        /* \"#utility.yul\":2756:2873   */\n      pop\n        /* \"#utility.yul\":2940:2942   */\n      0x20\n        /* \"#utility.yul\":2929:2938   */\n      dup5\n        /* \"#utility.yul\":2925:2943   */\n      add\n        /* \"#utility.yul\":2912:2944   */\n      calldataload\n        /* \"#utility.yul\":2971:2989   */\n      0xffffffffffffffff\n        /* \"#utility.yul\":2963:2969   */\n      dup2\n        /* \"#utility.yul\":2960:2990   */\n      gt\n        /* \"#utility.yul\":2957:3074   */\n      iszero\n      tag_143\n      jumpi\n        /* \"#utility.yul\":2993:3072   */\n      tag_144\n      tag_136\n      jump\t// in\n    tag_144:\n        /* \"#utility.yul\":2957:3074   */\n    tag_143:\n        /* \"#utility.yul\":3098:3161   */\n      tag_145\n        /* \"#utility.yul\":3153:3160   */\n      dup7\n        /* \"#utility.yul\":3144:3150   */\n      dup3\n        /* \"#utility.yul\":3133:3142   */\n      dup8\n        /* \"#utility.yul\":3129:3151   */\n      add\n        /* \"#utility.yul\":3098:3161   */\n      tag_113\n      jump\t// in\n    tag_145:\n        /* \"#utility.yul\":3088:3161   */\n      swap3\n      pop\n        /* \"#utility.yul\":2883:3171   */\n      pop\n        /* \"#utility.yul\":3210:3212   */\n      0x40\n        /* \"#utility.yul\":3236:3289   */\n      tag_146\n        /* \"#utility.yul\":3281:3288   */\n      dup7\n        /* \"#utility.yul\":3272:3278   */\n      dup3\n        /* \"#utility.yul\":3261:3270   */\n      dup8\n        /* \"#utility.yul\":3257:3279   */\n      add\n        /* \"#utility.yul\":3236:3289   */\n      tag_119\n      jump\t// in\n    tag_146:\n        /* \"#utility.yul\":3226:3289   */\n      swap2\n      pop\n        /* \"#utility.yul\":3181:3299   */\n      pop\n        /* \"#utility.yul\":2507:3306   */\n      swap3\n      pop\n      swap3\n      pop\n      swap3\n      jump\t// out\n        /* \"#utility.yul\":3312:4403   */\n    tag_32:\n        /* \"#utility.yul\":3417:3423   */\n      0x00\n        /* \"#utility.yul\":3425:3431   */\n      dup1\n        /* \"#utility.yul\":3433:3439   */\n      0x00\n        /* \"#utility.yul\":3441:3447   */\n      dup1\n        /* \"#utility.yul\":3449:3455   */\n      0x00\n        /* \"#utility.yul\":3498:3501   */\n      0xa0\n        /* \"#utility.yul\":3486:3495   */\n      dup7\n        /* \"#utility.yul\":3477:3484   */\n      dup9\n        /* \"#utility.yul\":3473:3496   */\n      sub\n        /* \"#utility.yul\":3469:3502   */\n      slt\n        /* \"#utility.yul\":3466:3586   */\n      iszero\n      tag_148\n      jumpi\n        /* \"#utility.yul\":3505:3584   */\n      tag_149\n      tag_126\n      jump\t// in\n    tag_149:\n        /* \"#utility.yul\":3466:3586   */\n    tag_148:\n        /* \"#utility.yul\":3625:3626   */\n      0x00\n        /* \"#utility.yul\":3650:3703   */\n      tag_150\n        /* \"#utility.yul\":3695:3702   */\n      dup9\n        /* \"#utility.yul\":3686:3692   */\n      dup3\n        /* \"#utility.yul\":3675:3684   */\n      dup10\n        /* \"#utility.yul\":3671:3693   */\n      add\n        /* \"#utility.yul\":3650:3703   */\n      tag_109\n      jump\t// in\n    tag_150:\n        /* \"#utility.yul\":3640:3703   */\n      swap6\n      pop\n        /* \"#utility.yul\":3596:3713   */\n      pop\n        /* \"#utility.yul\":3752:3754   */\n      0x20\n        /* \"#utility.yul\":3778:3831   */\n      tag_151\n        /* \"#utility.yul\":3823:3830   */\n      dup9\n        /* \"#utility.yul\":3814:3820   */\n      dup3\n        /* \"#utility.yul\":3803:3812   */\n      dup10\n        /* \"#utility.yul\":3799:3821   */\n      add\n        /* \"#utility.yul\":3778:3831   */\n      tag_119\n      jump\t// in\n    tag_151:\n        /* \"#utility.yul\":3768:3831   */\n      swap5\n      pop\n        /* \"#utility.yul\":3723:3841   */\n      pop\n        /* \"#utility.yul\":3908:3910   */\n      0x40\n        /* \"#utility.yul\":3897:3906   */\n      dup7\n        /* \"#utility.yul\":3893:3911   */\n      add\n        /* \"#utility.yul\":3880:3912   */\n      calldataload\n        /* \"#utility.yul\":3939:3957   */\n      0xffffffffffffffff\n        /* \"#utility.yul\":3931:3937   */\n      dup2\n        /* \"#utility.yul\":3928:3958   */\n      gt\n        /* \"#utility.yul\":3925:4042   */\n      iszero\n      tag_152\n      jumpi\n        /* \"#utility.yul\":3961:4040   */\n      tag_153\n      tag_136\n      jump\t// in\n    tag_153:\n        /* \"#utility.yul\":3925:4042   */\n    tag_152:\n        /* \"#utility.yul\":4066:4129   */\n      tag_154\n        /* \"#utility.yul\":4121:4128   */\n      dup9\n        /* \"#utility.yul\":4112:4118   */\n      dup3\n        /* \"#utility.yul\":4101:4110   */\n      dup10\n        /* \"#utility.yul\":4097:4119   */\n      add\n        /* \"#utility.yul\":4066:4129   */\n      tag_113\n      jump\t// in\n    tag_154:\n        /* \"#utility.yul\":4056:4129   */\n      swap4\n      pop\n        /* \"#utility.yul\":3851:4139   */\n      pop\n        /* \"#utility.yul\":4178:4180   */\n      0x60\n        /* \"#utility.yul\":4204:4257   */\n      tag_155\n        /* \"#utility.yul\":4249:4256   */\n      dup9\n        /* \"#utility.yul\":4240:4246   */\n      dup3\n        /* \"#utility.yul\":4229:4238   */\n      dup10\n        /* \"#utility.yul\":4225:4247   */\n      add\n        /* \"#utility.yul\":4204:4257   */\n      tag_119\n      jump\t// in\n    tag_155:\n        /* \"#utility.yul\":4194:4257   */\n      swap3\n      pop\n        /* \"#utility.yul\":4149:4267   */\n      pop\n        /* \"#utility.yul\":4306:4309   */\n      0x80\n        /* \"#utility.yul\":4333:4386   */\n      tag_156\n        /* \"#utility.yul\":4378:4385   */\n      dup9\n        /* \"#utility.yul\":4369:4375   */\n      dup3\n        /* \"#utility.yul\":4358:4367   */\n      dup10\n        /* \"#utility.yul\":4354:4376   */\n      add\n        /* \"#utility.yul\":4333:4386   */\n      tag_119\n      jump\t// in\n    tag_156:\n        /* \"#utility.yul\":4323:4386   */\n      swap2\n      pop\n        /* \"#utility.yul\":4277:4396   */\n      pop\n        /* \"#utility.yul\":3312:4403   */\n      swap3\n      swap6\n      pop\n      swap3\n      swap6\n      swap1\n      swap4\n      pop\n      jump\t// out\n        /* \"#utility.yul\":4409:4753   */\n    tag_157:\n        /* \"#utility.yul\":4487:4490   */\n      0x00\n        /* \"#utility.yul\":4515:4554   */\n      tag_159\n        /* \"#utility.yul\":4548:4553   */\n      dup3\n        /* \"#utility.yul\":4515:4554   */\n      tag_160\n      jump\t// in\n    tag_159:\n        /* \"#utility.yul\":4570:4631   */\n      tag_161\n        /* \"#utility.yul\":4624:4630   */\n      dup2\n        /* \"#utility.yul\":4619:4622   */\n      dup6\n        /* \"#utility.yul\":4570:4631   */\n      tag_162\n      jump\t// in\n    tag_161:\n        /* \"#utility.yul\":4563:4631   */\n      swap4\n      pop\n        /* \"#utility.yul\":4640:4692   */\n      tag_163\n        /* \"#utility.yul\":4685:4691   */\n      dup2\n        /* \"#utility.yul\":4680:4683   */\n      dup6\n        /* \"#utility.yul\":4673:4677   */\n      0x20\n        /* \"#utility.yul\":4666:4671   */\n      dup7\n        /* \"#utility.yul\":4662:4678   */\n      add\n        /* \"#utility.yul\":4640:4692   */\n      tag_164\n      jump\t// in\n    tag_163:\n        /* \"#utility.yul\":4717:4746   */\n      tag_165\n        /* \"#utility.yul\":4739:4745   */\n      dup2\n        /* \"#utility.yul\":4717:4746   */\n      tag_166\n      jump\t// in\n    tag_165:\n        /* \"#utility.yul\":4712:4715   */\n      dup5\n        /* \"#utility.yul\":4708:4747   */\n      add\n        /* \"#utility.yul\":4701:4747   */\n      swap2\n      pop\n        /* \"#utility.yul\":4491:4753   */\n      pop\n        /* \"#utility.yul\":4409:4753   */\n      swap3\n      swap2\n      pop\n      pop\n      jump\t// out\n        /* \"#utility.yul\":4759:5125   */\n    tag_167:\n        /* \"#utility.yul\":4901:4904   */\n      0x00\n        /* \"#utility.yul\":4922:4989   */\n      tag_169\n        /* \"#utility.yul\":4986:4988   */\n      0x1d\n        /* \"#utility.yul\":4981:4984   */\n      dup4\n        /* \"#utility.yul\":4922:4989   */\n      tag_170\n      jump\t// in\n    tag_169:\n        /* \"#utility.yul\":4915:4989   */\n      swap2\n      pop\n        /* \"#utility.yul\":4998:5091   */\n      tag_171\n        /* \"#utility.yul\":5087:5090   */\n      dup3\n        /* \"#utility.yul\":4998:5091   */\n      tag_172\n      jump\t// in\n    tag_171:\n        /* \"#utility.yul\":5116:5118   */\n      0x20\n        /* \"#utility.yul\":5111:5114   */\n      dup3\n        /* \"#utility.yul\":5107:5119   */\n      add\n        /* \"#utility.yul\":5100:5119   */\n      swap1\n      pop\n        /* \"#utility.yul\":4759:5125   */\n      swap2\n      swap1\n      pop\n      jump\t// out\n        /* \"#utility.yul\":5131:5497   */\n    tag_173:\n        /* \"#utility.yul\":5273:5276   */\n      0x00\n        /* \"#utility.yul\":5294:5361   */\n      tag_175\n        /* \"#utility.yul\":5358:5360   */\n      0x1d\n        /* \"#utility.yul\":5353:5356   */\n      dup4\n        /* \"#utility.yul\":5294:5361   */\n      tag_170\n      jump\t// in\n    tag_175:\n        /* \"#utility.yul\":5287:5361   */\n      swap2\n      pop\n        /* \"#utility.yul\":5370:5463   */\n      tag_176\n        /* \"#utility.yul\":5459:5462   */\n      dup3\n        /* \"#utility.yul\":5370:5463   */\n      tag_177\n      jump\t// in\n    tag_176:\n        /* \"#utility.yul\":5488:5490   */\n      0x20\n        /* \"#utility.yul\":5483:5486   */\n      dup3\n        /* \"#utility.yul\":5479:5491   */\n      add\n        /* \"#utility.yul\":5472:5491   */\n      swap1\n      pop\n        /* \"#utility.yul\":5131:5497   */\n      swap2\n      swap1\n      pop\n      jump\t// out\n        /* \"#utility.yul\":5545:6339   */\n    tag_178:\n        /* \"#utility.yul\":5662:5665   */\n      0x00\n        /* \"#utility.yul\":5698:5702   */\n      0x60\n        /* \"#utility.yul\":5693:5696   */\n      dup4\n        /* \"#utility.yul\":5689:5703   */\n      add\n        /* \"#utility.yul\":5790:5794   */\n      0x00\n        /* \"#utility.yul\":5783:5788   */\n      dup4\n        /* \"#utility.yul\":5779:5795   */\n      add\n        /* \"#utility.yul\":5773:5796   */\n      mload\n        /* \"#utility.yul\":5809:5872   */\n      tag_180\n        /* \"#utility.yul\":5866:5870   */\n      0x00\n        /* \"#utility.yul\":5861:5864   */\n      dup7\n        /* \"#utility.yul\":5857:5871   */\n      add\n        /* \"#utility.yul\":5843:5855   */\n      dup3\n        /* \"#utility.yul\":5809:5872   */\n      tag_181\n      jump\t// in\n    tag_180:\n        /* \"#utility.yul\":5713:5882   */\n      pop\n        /* \"#utility.yul\":5969:5973   */\n      0x20\n        /* \"#utility.yul\":5962:5967   */\n      dup4\n        /* \"#utility.yul\":5958:5974   */\n      add\n        /* \"#utility.yul\":5952:5975   */\n      mload\n        /* \"#utility.yul\":6022:6025   */\n      dup5\n        /* \"#utility.yul\":6016:6020   */\n      dup3\n        /* \"#utility.yul\":6012:6026   */\n      sub\n        /* \"#utility.yul\":6005:6009   */\n      0x20\n        /* \"#utility.yul\":6000:6003   */\n      dup7\n        /* \"#utility.yul\":5996:6010   */\n      add\n        /* \"#utility.yul\":5989:6027   */\n      mstore\n        /* \"#utility.yul\":6048:6121   */\n      tag_182\n        /* \"#utility.yul\":6116:6120   */\n      dup3\n        /* \"#utility.yul\":6102:6114   */\n      dup3\n        /* \"#utility.yul\":6048:6121   */\n      tag_157\n      jump\t// in\n    tag_182:\n        /* \"#utility.yul\":6040:6121   */\n      swap2\n      pop\n        /* \"#utility.yul\":5892:6132   */\n      pop\n        /* \"#utility.yul\":6220:6224   */\n      0x40\n        /* \"#utility.yul\":6213:6218   */\n      dup4\n        /* \"#utility.yul\":6209:6225   */\n      add\n        /* \"#utility.yul\":6203:6226   */\n      mload\n        /* \"#utility.yul\":6239:6302   */\n      tag_183\n        /* \"#utility.yul\":6296:6300   */\n      0x40\n        /* \"#utility.yul\":6291:6294   */\n      dup7\n        /* \"#utility.yul\":6287:6301   */\n      add\n        /* \"#utility.yul\":6273:6285   */\n      dup3\n        /* \"#utility.yul\":6239:6302   */\n      tag_181\n      jump\t// in\n    tag_183:\n        /* \"#utility.yul\":6142:6312   */\n      pop\n        /* \"#utility.yul\":6329:6333   */\n      dup1\n        /* \"#utility.yul\":6322:6333   */\n      swap2\n      pop\n        /* \"#utility.yul\":5667:6339   */\n      pop\n        /* \"#utility.yul\":5545:6339   */\n      swap3\n      swap2\n      pop\n      pop\n      jump\t// out\n        /* \"#utility.yul\":6393:7363   */\n    tag_184:\n        /* \"#utility.yul\":6516:6519   */\n      0x00\n        /* \"#utility.yul\":6552:6556   */\n      0x80\n        /* \"#utility.yul\":6547:6550   */\n      dup4\n        /* \"#utility.yul\":6543:6557   */\n      add\n        /* \"#utility.yul\":6644:6648   */\n      0x00\n        /* \"#utility.yul\":6637:6642   */\n      dup4\n        /* \"#utility.yul\":6633:6649   */\n      add\n        /* \"#utility.yul\":6627:6650   */\n      mload\n        /* \"#utility.yul\":6663:6726   */\n      tag_186\n        /* \"#utility.yul\":6720:6724   */\n      0x00\n        /* \"#utility.yul\":6715:6718   */\n      dup7\n        /* \"#utility.yul\":6711:6725   */\n      add\n        /* \"#utility.yul\":6697:6709   */\n      dup3\n        /* \"#utility.yul\":6663:6726   */\n      tag_181\n      jump\t// in\n    tag_186:\n        /* \"#utility.yul\":6567:6736   */\n      pop\n        /* \"#utility.yul\":6824:6828   */\n      0x20\n        /* \"#utility.yul\":6817:6822   */\n      dup4\n        /* \"#utility.yul\":6813:6829   */\n      add\n        /* \"#utility.yul\":6807:6830   */\n      mload\n        /* \"#utility.yul\":6877:6880   */\n      dup5\n        /* \"#utility.yul\":6871:6875   */\n      dup3\n        /* \"#utility.yul\":6867:6881   */\n      sub\n        /* \"#utility.yul\":6860:6864   */\n      0x20\n        /* \"#utility.yul\":6855:6858   */\n      dup7\n        /* \"#utility.yul\":6851:6865   */\n      add\n        /* \"#utility.yul\":6844:6882   */\n      mstore\n        /* \"#utility.yul\":6903:6976   */\n      tag_187\n        /* \"#utility.yul\":6971:6975   */\n      dup3\n        /* \"#utility.yul\":6957:6969   */\n      dup3\n        /* \"#utility.yul\":6903:6976   */\n      tag_157\n      jump\t// in\n    tag_187:\n        /* \"#utility.yul\":6895:6976   */\n      swap2\n      pop\n        /* \"#utility.yul\":6746:6987   */\n      pop\n        /* \"#utility.yul\":7070:7074   */\n      0x40\n        /* \"#utility.yul\":7063:7068   */\n      dup4\n        /* \"#utility.yul\":7059:7075   */\n      add\n        /* \"#utility.yul\":7053:7076   */\n      mload\n        /* \"#utility.yul\":7089:7152   */\n      tag_188\n        /* \"#utility.yul\":7146:7150   */\n      0x40\n        /* \"#utility.yul\":7141:7144   */\n      dup7\n        /* \"#utility.yul\":7137:7151   */\n      add\n        /* \"#utility.yul\":7123:7135   */\n      dup3\n        /* \"#utility.yul\":7089:7152   */\n      tag_181\n      jump\t// in\n    tag_188:\n        /* \"#utility.yul\":6997:7162   */\n      pop\n        /* \"#utility.yul\":7244:7248   */\n      0x60\n        /* \"#utility.yul\":7237:7242   */\n      dup4\n        /* \"#utility.yul\":7233:7249   */\n      add\n        /* \"#utility.yul\":7227:7250   */\n      mload\n        /* \"#utility.yul\":7263:7326   */\n      tag_189\n        /* \"#utility.yul\":7320:7324   */\n      0x60\n        /* \"#utility.yul\":7315:7318   */\n      dup7\n        /* \"#utility.yul\":7311:7325   */\n      add\n        /* \"#utility.yul\":7297:7309   */\n      dup3\n        /* \"#utility.yul\":7263:7326   */\n      tag_181\n      jump\t// in\n    tag_189:\n        /* \"#utility.yul\":7172:7336   */\n      pop\n        /* \"#utility.yul\":7353:7357   */\n      dup1\n        /* \"#utility.yul\":7346:7357   */\n      swap2\n      pop\n        /* \"#utility.yul\":6521:7363   */\n      pop\n        /* \"#utility.yul\":6393:7363   */\n      swap3\n      swap2\n      pop\n      pop\n      jump\t// out\n        /* \"#utility.yul\":7369:7477   */\n    tag_181:\n        /* \"#utility.yul\":7446:7470   */\n      tag_191\n        /* \"#utility.yul\":7464:7469   */\n      dup2\n        /* \"#utility.yul\":7446:7470   */\n      tag_192\n      jump\t// in\n    tag_191:\n        /* \"#utility.yul\":7441:7444   */\n      dup3\n        /* \"#utility.yul\":7434:7471   */\n      mstore\n        /* \"#utility.yul\":7369:7477   */\n      pop\n      pop\n      jump\t// out\n        /* \"#utility.yul\":7483:7902   */\n    tag_42:\n        /* \"#utility.yul\":7649:7653   */\n      0x00\n        /* \"#utility.yul\":7687:7689   */\n      0x20\n        /* \"#utility.yul\":7676:7685   */\n      dup3\n        /* \"#utility.yul\":7672:7690   */\n      add\n        /* \"#utility.yul\":7664:7690   */\n      swap1\n      pop\n        /* \"#utility.yul\":7736:7745   */\n      dup2\n        /* \"#utility.yul\":7730:7734   */\n      dup2\n        /* \"#utility.yul\":7726:7746   */\n      sub\n        /* \"#utility.yul\":7722:7723   */\n      0x00\n        /* \"#utility.yul\":7711:7720   */\n      dup4\n        /* \"#utility.yul\":7707:7724   */\n      add\n        /* \"#utility.yul\":7700:7747   */\n      mstore\n        /* \"#utility.yul\":7764:7895   */\n      tag_194\n        /* \"#utility.yul\":7890:7894   */\n      dup2\n        /* \"#utility.yul\":7764:7895   */\n      tag_167\n      jump\t// in\n    tag_194:\n        /* \"#utility.yul\":7756:7895   */\n      swap1\n      pop\n        /* \"#utility.yul\":7483:7902   */\n      swap2\n      swap1\n      pop\n      jump\t// out\n        /* \"#utility.yul\":7908:8327   */\n    tag_67:\n        /* \"#utility.yul\":8074:8078   */\n      0x00\n        /* \"#utility.yul\":8112:8114   */\n      0x20\n        /* \"#utility.yul\":8101:8110   */\n      dup3\n        /* \"#utility.yul\":8097:8115   */\n      add\n        /* \"#utility.yul\":8089:8115   */\n      swap1\n      pop\n        /* \"#utility.yul\":8161:8170   */\n      dup2\n        /* \"#utility.yul\":8155:8159   */\n      dup2\n        /* \"#utility.yul\":8151:8171   */\n      sub\n        /* \"#utility.yul\":8147:8148   */\n      0x00\n        /* \"#utility.yul\":8136:8145   */\n      dup4\n        /* \"#utility.yul\":8132:8149   */\n      add\n        /* \"#utility.yul\":8125:8172   */\n      mstore\n        /* \"#utility.yul\":8189:8320   */\n      tag_196\n        /* \"#utility.yul\":8315:8319   */\n      dup2\n        /* \"#utility.yul\":8189:8320   */\n      tag_173\n      jump\t// in\n    tag_196:\n        /* \"#utility.yul\":8181:8320   */\n      swap1\n      pop\n        /* \"#utility.yul\":7908:8327   */\n      swap2\n      swap1\n      pop\n      jump\t// out\n        /* \"#utility.yul\":8333:8702   */\n    tag_20:\n        /* \"#utility.yul\":8474:8478   */\n      0x00\n        /* \"#utility.yul\":8512:8514   */\n      0x20\n        /* \"#utility.yul\":8501:8510   */\n      dup3\n        /* \"#utility.yul\":8497:8515   */\n      add\n        /* \"#utility.yul\":8489:8515   */\n      swap1\n      pop\n        /* \"#utility.yul\":8561:8570   */\n      dup2\n        /* \"#utility.yul\":8555:8559   */\n      dup2\n        /* \"#utility.yul\":8551:8571   */\n      sub\n        /* \"#utility.yul\":8547:8548   */\n      0x00\n        /* \"#utility.yul\":8536:8545   */\n      dup4\n        /* \"#utility.yul\":8532:8549   */\n      add\n        /* \"#utility.yul\":8525:8572   */\n      mstore\n        /* \"#utility.yul\":8589:8695   */\n      tag_198\n        /* \"#utility.yul\":8690:8694   */\n      dup2\n        /* \"#utility.yul\":8681:8687   */\n      dup5\n        /* \"#utility.yul\":8589:8695   */\n      tag_178\n      jump\t// in\n    tag_198:\n        /* \"#utility.yul\":8581:8695   */\n      swap1\n      pop\n        /* \"#utility.yul\":8333:8702   */\n      swap3\n      swap2\n      pop\n      pop\n      jump\t// out\n        /* \"#utility.yul\":8708:9089   */\n    tag_14:\n        /* \"#utility.yul\":8855:8859   */\n      0x00\n        /* \"#utility.yul\":8893:8895   */\n      0x20\n        /* \"#utility.yul\":8882:8891   */\n      dup3\n        /* \"#utility.yul\":8878:8896   */\n      add\n        /* \"#utility.yul\":8870:8896   */\n      swap1\n      pop\n        /* \"#utility.yul\":8942:8951   */\n      dup2\n        /* \"#utility.yul\":8936:8940   */\n      dup2\n        /* \"#utility.yul\":8932:8952   */\n      sub\n        /* \"#utility.yul\":8928:8929   */\n      0x00\n        /* \"#utility.yul\":8917:8926   */\n      dup4\n        /* \"#utility.yul\":8913:8930   */\n      add\n        /* \"#utility.yul\":8906:8953   */\n      mstore\n        /* \"#utility.yul\":8970:9082   */\n      tag_200\n        /* \"#utility.yul\":9077:9081   */\n      dup2\n        /* \"#utility.yul\":9068:9074   */\n      dup5\n        /* \"#utility.yul\":8970:9082   */\n      tag_184\n      jump\t// in\n    tag_200:\n        /* \"#utility.yul\":8962:9082   */\n      swap1\n      pop\n        /* \"#utility.yul\":8708:9089   */\n      swap3\n      swap2\n      pop\n      pop\n      jump\t// out\n        /* \"#utility.yul\":9095:9224   */\n    tag_103:\n        /* \"#utility.yul\":9129:9135   */\n      0x00\n        /* \"#utility.yul\":9156:9176   */\n      tag_202\n      tag_203\n      jump\t// in\n    tag_202:\n        /* \"#utility.yul\":9146:9176   */\n      swap1\n      pop\n        /* \"#utility.yul\":9185:9218   */\n      tag_204\n        /* \"#utility.yul\":9213:9217   */\n      dup3\n        /* \"#utility.yul\":9205:9211   */\n      dup3\n        /* \"#utility.yul\":9185:9218   */\n      tag_205\n      jump\t// in\n    tag_204:\n        /* \"#utility.yul\":9095:9224   */\n      swap2\n      swap1\n      pop\n      jump\t// out\n        /* \"#utility.yul\":9230:9305   */\n    tag_203:\n        /* \"#utility.yul\":9263:9269   */\n      0x00\n        /* \"#utility.yul\":9296:9298   */\n      0x40\n        /* \"#utility.yul\":9290:9299   */\n      mload\n        /* \"#utility.yul\":9280:9299   */\n      swap1\n      pop\n        /* \"#utility.yul\":9230:9305   */\n      swap1\n      jump\t// out\n        /* \"#utility.yul\":9311:9619   */\n    tag_102:\n        /* \"#utility.yul\":9373:9377   */\n      0x00\n        /* \"#utility.yul\":9463:9481   */\n      0xffffffffffffffff\n        /* \"#utility.yul\":9455:9461   */\n      dup3\n        /* \"#utility.yul\":9452:9482   */\n      gt\n        /* \"#utility.yul\":9449:9505   */\n      iszero\n      tag_208\n      jumpi\n        /* \"#utility.yul\":9485:9503   */\n      tag_209\n      tag_210\n      jump\t// in\n    tag_209:\n        /* \"#utility.yul\":9449:9505   */\n    tag_208:\n        /* \"#utility.yul\":9523:9552   */\n      tag_211\n        /* \"#utility.yul\":9545:9551   */\n      dup3\n        /* \"#utility.yul\":9523:9552   */\n      tag_166\n      jump\t// in\n    tag_211:\n        /* \"#utility.yul\":9515:9552   */\n      swap1\n      pop\n        /* \"#utility.yul\":9607:9611   */\n      0x20\n        /* \"#utility.yul\":9601:9605   */\n      dup2\n        /* \"#utility.yul\":9597:9612   */\n      add\n        /* \"#utility.yul\":9589:9612   */\n      swap1\n      pop\n        /* \"#utility.yul\":9311:9619   */\n      swap2\n      swap1\n      pop\n      jump\t// out\n        /* \"#utility.yul\":9625:9724   */\n    tag_160:\n        /* \"#utility.yul\":9677:9683   */\n      0x00\n        /* \"#utility.yul\":9711:9716   */\n      dup2\n        /* \"#utility.yul\":9705:9717   */\n      mload\n        /* \"#utility.yul\":9695:9717   */\n      swap1\n      pop\n        /* \"#utility.yul\":9625:9724   */\n      swap2\n      swap1\n      pop\n      jump\t// out\n        /* \"#utility.yul\":9730:9889   */\n    tag_162:\n        /* \"#utility.yul\":9804:9815   */\n      0x00\n        /* \"#utility.yul\":9838:9844   */\n      dup3\n        /* \"#utility.yul\":9833:9836   */\n      dup3\n        /* \"#utility.yul\":9826:9845   */\n      mstore\n        /* \"#utility.yul\":9878:9882   */\n      0x20\n        /* \"#utility.yul\":9873:9876   */\n      dup3\n        /* \"#utility.yul\":9869:9883   */\n      add\n        /* \"#utility.yul\":9854:9883   */\n      swap1\n      pop\n        /* \"#utility.yul\":9730:9889   */\n      swap3\n      swap2\n      pop\n      pop\n      jump\t// out\n        /* \"#utility.yul\":9895:10064   */\n    tag_170:\n        /* \"#utility.yul\":9979:9990   */\n      0x00\n        /* \"#utility.yul\":10013:10019   */\n      dup3\n        /* \"#utility.yul\":10008:10011   */\n      dup3\n        /* \"#utility.yul\":10001:10020   */\n      mstore\n        /* \"#utility.yul\":10053:10057   */\n      0x20\n        /* \"#utility.yul\":10048:10051   */\n      dup3\n        /* \"#utility.yul\":10044:10058   */\n      add\n        /* \"#utility.yul\":10029:10058   */\n      swap1\n      pop\n        /* \"#utility.yul\":9895:10064   */\n      swap3\n      swap2\n      pop\n      pop\n      jump\t// out\n        /* \"#utility.yul\":10070:10166   */\n    tag_215:\n        /* \"#utility.yul\":10107:10114   */\n      0x00\n        /* \"#utility.yul\":10136:10160   */\n      tag_217\n        /* \"#utility.yul\":10154:10159   */\n      dup3\n        /* \"#utility.yul\":10136:10160   */\n      tag_218\n      jump\t// in\n    tag_217:\n        /* \"#utility.yul\":10125:10160   */\n      swap1\n      pop\n        /* \"#utility.yul\":10070:10166   */\n      swap2\n      swap1\n      pop\n      jump\t// out\n        /* \"#utility.yul\":10172:10298   */\n    tag_218:\n        /* \"#utility.yul\":10209:10216   */\n      0x00\n        /* \"#utility.yul\":10249:10291   */\n      0xffffffffffffffffffffffffffffffffffffffff\n        /* \"#utility.yul\":10242:10247   */\n      dup3\n        /* \"#utility.yul\":10238:10292   */\n      and\n        /* \"#utility.yul\":10227:10292   */\n      swap1\n      pop\n        /* \"#utility.yul\":10172:10298   */\n      swap2\n      swap1\n      pop\n      jump\t// out\n        /* \"#utility.yul\":10304:10381   */\n    tag_192:\n        /* \"#utility.yul\":10341:10348   */\n      0x00\n        /* \"#utility.yul\":10370:10375   */\n      dup2\n        /* \"#utility.yul\":10359:10375   */\n      swap1\n      pop\n        /* \"#utility.yul\":10304:10381   */\n      swap2\n      swap1\n      pop\n      jump\t// out\n        /* \"#utility.yul\":10387:10541   */\n    tag_108:\n        /* \"#utility.yul\":10471:10477   */\n      dup3\n        /* \"#utility.yul\":10466:10469   */\n      dup2\n        /* \"#utility.yul\":10461:10464   */\n      dup4\n        /* \"#utility.yul\":10448:10478   */\n      calldatacopy\n        /* \"#utility.yul\":10533:10534   */\n      0x00\n        /* \"#utility.yul\":10524:10530   */\n      dup4\n        /* \"#utility.yul\":10519:10522   */\n      dup4\n        /* \"#utility.yul\":10515:10531   */\n      add\n        /* \"#utility.yul\":10508:10535   */\n      mstore\n        /* \"#utility.yul\":10387:10541   */\n      pop\n      pop\n      pop\n      jump\t// out\n        /* \"#utility.yul\":10547:10854   */\n    tag_164:\n        /* \"#utility.yul\":10615:10616   */\n      0x00\n        /* \"#utility.yul\":10625:10738   */\n    tag_223:\n        /* \"#utility.yul\":10639:10645   */\n      dup4\n        /* \"#utility.yul\":10636:10637   */\n      dup2\n        /* \"#utility.yul\":10633:10646   */\n      lt\n        /* \"#utility.yul\":10625:10738   */\n      iszero\n      tag_225\n      jumpi\n        /* \"#utility.yul\":10724:10725   */\n      dup1\n        /* \"#utility.yul\":10719:10722   */\n      dup3\n        /* \"#utility.yul\":10715:10726   */\n      add\n        /* \"#utility.yul\":10709:10727   */\n      mload\n        /* \"#utility.yul\":10705:10706   */\n      dup2\n        /* \"#utility.yul\":10700:10703   */\n      dup5\n        /* \"#utility.yul\":10696:10707   */\n      add\n        /* \"#utility.yul\":10689:10728   */\n      mstore\n        /* \"#utility.yul\":10661:10663   */\n      0x20\n        /* \"#utility.yul\":10658:10659   */\n      dup2\n        /* \"#utility.yul\":10654:10664   */\n      add\n        /* \"#utility.yul\":10649:10664   */\n      swap1\n      pop\n        /* \"#utility.yul\":10625:10738   */\n      jump(tag_223)\n    tag_225:\n        /* \"#utility.yul\":10756:10762   */\n      dup4\n        /* \"#utility.yul\":10753:10754   */\n      dup2\n        /* \"#utility.yul\":10750:10763   */\n      gt\n        /* \"#utility.yul\":10747:10848   */\n      iszero\n      tag_226\n      jumpi\n        /* \"#utility.yul\":10836:10837   */\n      0x00\n        /* \"#utility.yul\":10827:10833   */\n      dup5\n        /* \"#utility.yul\":10822:10825   */\n      dup5\n        /* \"#utility.yul\":10818:10834   */\n      add\n        /* \"#utility.yul\":10811:10838   */\n      mstore\n        /* \"#utility.yul\":10747:10848   */\n    tag_226:\n        /* \"#utility.yul\":10596:10854   */\n      pop\n        /* \"#utility.yul\":10547:10854   */\n      pop\n      pop\n      pop\n      jump\t// out\n        /* \"#utility.yul\":10860:11180   */\n    tag_45:\n        /* \"#utility.yul\":10904:10910   */\n      0x00\n        /* \"#utility.yul\":10941:10942   */\n      0x02\n        /* \"#utility.yul\":10935:10939   */\n      dup3\n        /* \"#utility.yul\":10931:10943   */\n      div\n        /* \"#utility.yul\":10921:10943   */\n      swap1\n      pop\n        /* \"#utility.yul\":10988:10989   */\n      0x01\n        /* \"#utility.yul\":10982:10986   */\n      dup3\n        /* \"#utility.yul\":10978:10990   */\n      and\n        /* \"#utility.yul\":11009:11027   */\n      dup1\n        /* \"#utility.yul\":10999:11080   */\n      tag_228\n      jumpi\n        /* \"#utility.yul\":11065:11069   */\n      0x7f\n        /* \"#utility.yul\":11057:11063   */\n      dup3\n        /* \"#utility.yul\":11053:11070   */\n      and\n        /* \"#utility.yul\":11043:11070   */\n      swap2\n      pop\n        /* \"#utility.yul\":10999:11080   */\n    tag_228:\n        /* \"#utility.yul\":11127:11129   */\n      0x20\n        /* \"#utility.yul\":11119:11125   */\n      dup3\n        /* \"#utility.yul\":11116:11130   */\n      lt\n        /* \"#utility.yul\":11096:11114   */\n      dup2\n        /* \"#utility.yul\":11093:11131   */\n      eq\n        /* \"#utility.yul\":11090:11174   */\n      iszero\n      tag_229\n      jumpi\n        /* \"#utility.yul\":11146:11164   */\n      tag_230\n      tag_231\n      jump\t// in\n    tag_230:\n        /* \"#utility.yul\":11090:11174   */\n    tag_229:\n        /* \"#utility.yul\":10911:11180   */\n      pop\n        /* \"#utility.yul\":10860:11180   */\n      swap2\n      swap1\n      pop\n      jump\t// out\n        /* \"#utility.yul\":11186:11467   */\n    tag_205:\n        /* \"#utility.yul\":11269:11296   */\n      tag_233\n        /* \"#utility.yul\":11291:11295   */\n      dup3\n        /* \"#utility.yul\":11269:11296   */\n      tag_166\n      jump\t// in\n    tag_233:\n        /* \"#utility.yul\":11261:11267   */\n      dup2\n        /* \"#utility.yul\":11257:11297   */\n      add\n        /* \"#utility.yul\":11399:11405   */\n      dup2\n        /* \"#utility.yul\":11387:11397   */\n      dup2\n        /* \"#utility.yul\":11384:11406   */\n      lt\n        /* \"#utility.yul\":11363:11381   */\n      0xffffffffffffffff\n        /* \"#utility.yul\":11351:11361   */\n      dup3\n        /* \"#utility.yul\":11348:11382   */\n      gt\n        /* \"#utility.yul\":11345:11407   */\n      or\n        /* \"#utility.yul\":11342:11430   */\n      iszero\n      tag_234\n      jumpi\n        /* \"#utility.yul\":11410:11428   */\n      tag_235\n      tag_210\n      jump\t// in\n    tag_235:\n        /* \"#utility.yul\":11342:11430   */\n    tag_234:\n        /* \"#utility.yul\":11450:11460   */\n      dup1\n        /* \"#utility.yul\":11446:11448   */\n      0x40\n        /* \"#utility.yul\":11439:11461   */\n      mstore\n        /* \"#utility.yul\":11229:11467   */\n      pop\n        /* \"#utility.yul\":11186:11467   */\n      pop\n      pop\n      jump\t// out\n        /* \"#utility.yul\":11473:11653   */\n    tag_231:\n        /* \"#utility.yul\":11521:11598   */\n      0x4e487b7100000000000000000000000000000000000000000000000000000000\n        /* \"#utility.yul\":11518:11519   */\n      0x00\n        /* \"#utility.yul\":11511:11599   */\n      mstore\n        /* \"#utility.yul\":11618:11622   */\n      0x22\n        /* \"#utility.yul\":11615:11616   */\n      0x04\n        /* \"#utility.yul\":11608:11623   */\n      mstore\n        /* \"#utility.yul\":11642:11646   */\n      0x24\n        /* \"#utility.yul\":11639:11640   */\n      0x00\n        /* \"#utility.yul\":11632:11647   */\n      revert\n        /* \"#utility.yul\":11659:11839   */\n    tag_210:\n        /* \"#utility.yul\":11707:11784   */\n      0x4e487b7100000000000000000000000000000000000000000000000000000000\n        /* \"#utility.yul\":11704:11705   */\n      0x00\n        /* \"#utility.yul\":11697:11785   */\n      mstore\n        /* \"#utility.yul\":11804:11808   */\n      0x41\n        /* \"#utility.yul\":11801:11802   */\n      0x04\n        /* \"#utility.yul\":11794:11809   */\n      mstore\n        /* \"#utility.yul\":11828:11832   */\n      0x24\n        /* \"#utility.yul\":11825:11826   */\n      0x00\n        /* \"#utility.yul\":11818:11833   */\n      revert\n        /* \"#utility.yul\":11845:11962   */\n    tag_117:\n        /* \"#utility.yul\":11954:11955   */\n      0x00\n        /* \"#utility.yul\":11951:11952   */\n      dup1\n        /* \"#utility.yul\":11944:11956   */\n      revert\n        /* \"#utility.yul\":11968:12085   */\n    tag_106:\n        /* \"#utility.yul\":12077:12078   */\n      0x00\n        /* \"#utility.yul\":12074:12075   */\n      dup1\n        /* \"#utility.yul\":12067:12079   */\n      revert\n        /* \"#utility.yul\":12091:12208   */\n    tag_136:\n        /* \"#utility.yul\":12200:12201   */\n      0x00\n        /* \"#utility.yul\":12197:12198   */\n      dup1\n        /* \"#utility.yul\":12190:12202   */\n      revert\n        /* \"#utility.yul\":12214:12331   */\n    tag_126:\n        /* \"#utility.yul\":12323:12324   */\n      0x00\n        /* \"#utility.yul\":12320:12321   */\n      dup1\n        /* \"#utility.yul\":12313:12325   */\n      revert\n        /* \"#utility.yul\":12337:12439   */\n    tag_166:\n        /* \"#utility.yul\":12378:12384   */\n      0x00\n        /* \"#utility.yul\":12429:12431   */\n      0x1f\n        /* \"#utility.yul\":12425:12432   */\n      not\n        /* \"#utility.yul\":12420:12422   */\n      0x1f\n        /* \"#utility.yul\":12413:12418   */\n      dup4\n        /* \"#utility.yul\":12409:12423   */\n      add\n        /* \"#utility.yul\":12405:12433   */\n      and\n        /* \"#utility.yul\":12395:12433   */\n      swap1\n      pop\n        /* \"#utility.yul\":12337:12439   */\n      swap2\n      swap1\n      pop\n      jump\t// out\n        /* \"#utility.yul\":12445:12624   */\n    tag_172:\n        /* \"#utility.yul\":12585:12616   */\n      0x596f7520617265206e6f74206c616e646f66666963652073746166662e000000\n        /* \"#utility.yul\":12581:12582   */\n      0x00\n        /* \"#utility.yul\":12573:12579   */\n      dup3\n        /* \"#utility.yul\":12569:12583   */\n      add\n        /* \"#utility.yul\":12562:12617   */\n      mstore\n        /* \"#utility.yul\":12445:12624   */\n      pop\n      jump\t// out\n        /* \"#utility.yul\":12630:12809   */\n    tag_177:\n        /* \"#utility.yul\":12770:12801   */\n      0x496e73756666696369656e742066756e6420666f722072656465656d2e000000\n        /* \"#utility.yul\":12766:12767   */\n      0x00\n        /* \"#utility.yul\":12758:12764   */\n      dup3\n        /* \"#utility.yul\":12754:12768   */\n      add\n        /* \"#utility.yul\":12747:12802   */\n      mstore\n        /* \"#utility.yul\":12630:12809   */\n      pop\n      jump\t// out\n        /* \"#utility.yul\":12815:12937   */\n    tag_112:\n        /* \"#utility.yul\":12888:12912   */\n      tag_246\n        /* \"#utility.yul\":12906:12911   */\n      dup2\n        /* \"#utility.yul\":12888:12912   */\n      tag_215\n      jump\t// in\n    tag_246:\n        /* \"#utility.yul\":12881:12886   */\n      dup2\n        /* \"#utility.yul\":12878:12913   */\n      eq\n        /* \"#utility.yul\":12868:12931   */\n      tag_247\n      jumpi\n        /* \"#utility.yul\":12927:12928   */\n      0x00\n        /* \"#utility.yul\":12924:12925   */\n      dup1\n        /* \"#utility.yul\":12917:12929   */\n      revert\n        /* \"#utility.yul\":12868:12931   */\n    tag_247:\n        /* \"#utility.yul\":12815:12937   */\n      pop\n      jump\t// out\n        /* \"#utility.yul\":12943:13065   */\n    tag_122:\n        /* \"#utility.yul\":13016:13040   */\n      tag_249\n        /* \"#utility.yul\":13034:13039   */\n      dup2\n        /* \"#utility.yul\":13016:13040   */\n      tag_192\n      jump\t// in\n    tag_249:\n        /* \"#utility.yul\":13009:13014   */\n      dup2\n        /* \"#utility.yul\":13006:13041   */\n      eq\n        /* \"#utility.yul\":12996:13059   */\n      tag_250\n      jumpi\n        /* \"#utility.yul\":13055:13056   */\n      0x00\n        /* \"#utility.yul\":13052:13053   */\n      dup1\n        /* \"#utility.yul\":13045:13057   */\n      revert\n        /* \"#utility.yul\":12996:13059   */\n    tag_250:\n        /* \"#utility.yul\":12943:13065   */\n      pop\n      jump\t// out\n\n    auxdata: 0xa264697066735822122057125e5c04e646edc7f0051567e51a82e9b5cdbcc34c1f63fc07eb8721454e8b64736f6c63430008070033\n}\n",
				"bytecode": {
					"linkReferences": {},
					"object": "608060405234801561001057600080fd5b50336000806101000a81548173ffffffffffffffffffffffffffffffffffffffff021916908373ffffffffffffffffffffffffffffffffffffffff1602179055506112b0806100606000396000f3fe6080604052600436106100555760003560e01c8063198e86c61461005a578063215271cb14610097578063868571ef146100d45780638f1e4afa146100fd578063935656c214610119578063f340fa0114610135575b600080fd5b34801561006657600080fd5b50610081600480360381019061007c9190610c84565b610151565b60405161008e9190610ff1565b60405180910390f35b3480156100a357600080fd5b506100be60048036038101906100b99190610c84565b6102e8565b6040516100cb9190610fcf565b60405180910390f35b3480156100e057600080fd5b506100fb60048036038101906100f69190610d48565b610475565b005b61011760048036038101906101129190610cb1565b6106da565b005b610133600480360381019061012e9190610db7565b6108f2565b005b61014f600480360381019061014a9190610c84565b610ab3565b005b610159610afe565b60008054906101000a900473ffffffffffffffffffffffffffffffffffffffff1673ffffffffffffffffffffffffffffffffffffffff163373ffffffffffffffffffffffffffffffffffffffff16146101e7576040517f08c379a00000000000000000000000000000000000000000000000000000000081526004016101de90610f8f565b60405180910390fd5b600160008373ffffffffffffffffffffffffffffffffffffffff1673ffffffffffffffffffffffffffffffffffffffff1681526020019081526020016000206040518060800160405290816000820154815260200160018201805461024b90611114565b80601f016020809104026020016040519081016040528092919081815260200182805461027790611114565b80156102c45780601f10610299576101008083540402835291602001916102c4565b820191906000526020600020905b8154815290600101906020018083116102a757829003601f168201915b50505050508152602001600282015481526020016003820154815250509050919050565b6102f0610b26565b60008054906101000a900473ffffffffffffffffffffffffffffffffffffffff1673ffffffffffffffffffffffffffffffffffffffff163373ffffffffffffffffffffffffffffffffffffffff161461037e576040517f08c379a000000000000000000000000000000000000000000000000000000000815260040161037590610f8f565b60405180910390fd5b600260008373ffffffffffffffffffffffffffffffffffffffff1673ffffffffffffffffffffffffffffffffffffffff168152602001908152602001600020604051806060016040529081600082015481526020016001820180546103e290611114565b80601f016020809104026020016040519081016040528092919081815260200182805461040e90611114565b801561045b5780601f106104305761010080835404028352916020019161045b565b820191906000526020600020905b81548152906001019060200180831161043e57829003601f168201915b505050505081526020016002820154815250509050919050565b60008054906101000a900473ffffffffffffffffffffffffffffffffffffffff1673ffffffffffffffffffffffffffffffffffffffff163373ffffffffffffffffffffffffffffffffffffffff1614610503576040517f08c379a00000000000000000000000000000000000000000000000000000000081526004016104fa90610f8f565b60405180910390fd5b80600260008573ffffffffffffffffffffffffffffffffffffffff1673ffffffffffffffffffffffffffffffffffffffff168152602001908152602001600020600201541015610588576040517f08c379a000000000000000000000000000000000000000000000000000000000815260040161057f90610faf565b60405180910390fd5b81600160008573ffffffffffffffffffffffffffffffffffffffff1673ffffffffffffffffffffffffffffffffffffffff16815260200190815260200160002060010190805190602001906105de929190610b47565b506000600260008573ffffffffffffffffffffffffffffffffffffffff1673ffffffffffffffffffffffffffffffffffffffff1681526020019081526020016000206000018190555060405180602001604052806000815250600260008573ffffffffffffffffffffffffffffffffffffffff1673ffffffffffffffffffffffffffffffffffffffff168152602001908152602001600020600101908051906020019061068c929190610b47565b506000600260008573ffffffffffffffffffffffffffffffffffffffff1673ffffffffffffffffffffffffffffffffffffffff16815260200190815260200160002060020181905550505050565b60008054906101000a900473ffffffffffffffffffffffffffffffffffffffff1673ffffffffffffffffffffffffffffffffffffffff163373ffffffffffffffffffffffffffffffffffffffff1614610768576040517f08c379a000000000000000000000000000000000000000000000000000000000815260040161075f90610f8f565b60405180910390fd5b81600160008773ffffffffffffffffffffffffffffffffffffffff1673ffffffffffffffffffffffffffffffffffffffff16815260200190815260200160002060010190805190602001906107be929190610b47565b5082600260008773ffffffffffffffffffffffffffffffffffffffff1673ffffffffffffffffffffffffffffffffffffffff1681526020019081526020016000206000018190555081600260008773ffffffffffffffffffffffffffffffffffffffff1673ffffffffffffffffffffffffffffffffffffffff168152602001908152602001600020600101908051906020019061085c929190610b47565b5080600260008773ffffffffffffffffffffffffffffffffffffffff1673ffffffffffffffffffffffffffffffffffffffff168152602001908152602001600020600201819055508373ffffffffffffffffffffffffffffffffffffffff166108fc829081150290604051600060405180830381858888f193505050501580156108ea573d6000803e3d6000fd5b505050505050565b60008054906101000a900473ffffffffffffffffffffffffffffffffffffffff1673ffffffffffffffffffffffffffffffffffffffff163373ffffffffffffffffffffffffffffffffffffffff1614610980576040517f08c379a000000000000000000000000000000000000000000000000000000000815260040161097790610f8f565b60405180910390fd5b83600160008773ffffffffffffffffffffffffffffffffffffffff1673ffffffffffffffffffffffffffffffffffffffff1681526020019081526020016000206000018190555082600160008773ffffffffffffffffffffffffffffffffffffffff1673ffffffffffffffffffffffffffffffffffffffff1681526020019081526020016000206001019080519060200190610a1d929190610b47565b5081600160008773ffffffffffffffffffffffffffffffffffffffff1673ffffffffffffffffffffffffffffffffffffffff1681526020019081526020016000206002018190555080600160008773ffffffffffffffffffffffffffffffffffffffff1673ffffffffffffffffffffffffffffffffffffffff168152602001908152602001600020600301819055505050505050565b8073ffffffffffffffffffffffffffffffffffffffff166108fc60029081150290604051600060405180830381858888f19350505050158015610afa573d6000803e3d6000fd5b5050565b6040518060800160405280600081526020016060815260200160008152602001600081525090565b60405180606001604052806000815260200160608152602001600081525090565b828054610b5390611114565b90600052602060002090601f016020900481019282610b755760008555610bbc565b82601f10610b8e57805160ff1916838001178555610bbc565b82800160010185558215610bbc579182015b82811115610bbb578251825591602001919060010190610ba0565b5b509050610bc99190610bcd565b5090565b5b80821115610be6576000816000905550600101610bce565b5090565b6000610bfd610bf884611038565b611013565b905082815260208101848484011115610c1957610c186111da565b5b610c248482856110d2565b509392505050565b600081359050610c3b8161124c565b92915050565b600082601f830112610c5657610c556111d5565b5b8135610c66848260208601610bea565b91505092915050565b600081359050610c7e81611263565b92915050565b600060208284031215610c9a57610c996111e4565b5b6000610ca884828501610c2c565b91505092915050565b600080600080600060a08688031215610ccd57610ccc6111e4565b5b6000610cdb88828901610c2c565b9550506020610cec88828901610c2c565b9450506040610cfd88828901610c6f565b935050606086013567ffffffffffffffff811115610d1e57610d1d6111df565b5b610d2a88828901610c41565b9250506080610d3b88828901610c6f565b9150509295509295909350565b600080600060608486031215610d6157610d606111e4565b5b6000610d6f86828701610c2c565b935050602084013567ffffffffffffffff811115610d9057610d8f6111df565b5b610d9c86828701610c41565b9250506040610dad86828701610c6f565b9150509250925092565b600080600080600060a08688031215610dd357610dd26111e4565b5b6000610de188828901610c2c565b9550506020610df288828901610c6f565b945050604086013567ffffffffffffffff811115610e1357610e126111df565b5b610e1f88828901610c41565b9350506060610e3088828901610c6f565b9250506080610e4188828901610c6f565b9150509295509295909350565b6000610e5982611069565b610e638185611074565b9350610e738185602086016110e1565b610e7c816111e9565b840191505092915050565b6000610e94601d83611085565b9150610e9f826111fa565b602082019050919050565b6000610eb7601d83611085565b9150610ec282611223565b602082019050919050565b6000606083016000830151610ee56000860182610f80565b5060208301518482036020860152610efd8282610e4e565b9150506040830151610f126040860182610f80565b508091505092915050565b6000608083016000830151610f356000860182610f80565b5060208301518482036020860152610f4d8282610e4e565b9150506040830151610f626040860182610f80565b506060830151610f756060860182610f80565b508091505092915050565b610f89816110c8565b82525050565b60006020820190508181036000830152610fa881610e87565b9050919050565b60006020820190508181036000830152610fc881610eaa565b9050919050565b60006020820190508181036000830152610fe98184610ecd565b905092915050565b6000602082019050818103600083015261100b8184610f1d565b905092915050565b600061101d61102e565b90506110298282611146565b919050565b6000604051905090565b600067ffffffffffffffff821115611053576110526111a6565b5b61105c826111e9565b9050602081019050919050565b600081519050919050565b600082825260208201905092915050565b600082825260208201905092915050565b60006110a1826110a8565b9050919050565b600073ffffffffffffffffffffffffffffffffffffffff82169050919050565b6000819050919050565b82818337600083830152505050565b60005b838110156110ff5780820151818401526020810190506110e4565b8381111561110e576000848401525b50505050565b6000600282049050600182168061112c57607f821691505b602082108114156111405761113f611177565b5b50919050565b61114f826111e9565b810181811067ffffffffffffffff8211171561116e5761116d6111a6565b5b80604052505050565b7f4e487b7100000000000000000000000000000000000000000000000000000000600052602260045260246000fd5b7f4e487b7100000000000000000000000000000000000000000000000000000000600052604160045260246000fd5b600080fd5b600080fd5b600080fd5b600080fd5b6000601f19601f8301169050919050565b7f596f7520617265206e6f74206c616e646f66666963652073746166662e000000600082015250565b7f496e73756666696369656e742066756e6420666f722072656465656d2e000000600082015250565b61125581611096565b811461126057600080fd5b50565b61126c816110c8565b811461127757600080fd5b5056fea264697066735822122057125e5c04e646edc7f0051567e51a82e9b5cdbcc34c1f63fc07eb8721454e8b64736f6c63430008070033",
					"opcodes": "PUSH1 0x80 PUSH1 0x40 MSTORE CALLVALUE DUP1 ISZERO PUSH2 0x10 JUMPI PUSH1 0x0 DUP1 REVERT JUMPDEST POP CALLER PUSH1 0x0 DUP1 PUSH2 0x100 EXP DUP2 SLOAD DUP2 PUSH20 0xFFFFFFFFFFFFFFFFFFFFFFFFFFFFFFFFFFFFFFFF MUL NOT AND SWAP1 DUP4 PUSH20 0xFFFFFFFFFFFFFFFFFFFFFFFFFFFFFFFFFFFFFFFF AND MUL OR SWAP1 SSTORE POP PUSH2 0x12B0 DUP1 PUSH2 0x60 PUSH1 0x0 CODECOPY PUSH1 0x0 RETURN INVALID PUSH1 0x80 PUSH1 0x40 MSTORE PUSH1 0x4 CALLDATASIZE LT PUSH2 0x55 JUMPI PUSH1 0x0 CALLDATALOAD PUSH1 0xE0 SHR DUP1 PUSH4 0x198E86C6 EQ PUSH2 0x5A JUMPI DUP1 PUSH4 0x215271CB EQ PUSH2 0x97 JUMPI DUP1 PUSH4 0x868571EF EQ PUSH2 0xD4 JUMPI DUP1 PUSH4 0x8F1E4AFA EQ PUSH2 0xFD JUMPI DUP1 PUSH4 0x935656C2 EQ PUSH2 0x119 JUMPI DUP1 PUSH4 0xF340FA01 EQ PUSH2 0x135 JUMPI JUMPDEST PUSH1 0x0 DUP1 REVERT JUMPDEST CALLVALUE DUP1 ISZERO PUSH2 0x66 JUMPI PUSH1 0x0 DUP1 REVERT JUMPDEST POP PUSH2 0x81 PUSH1 0x4 DUP1 CALLDATASIZE SUB DUP2 ADD SWAP1 PUSH2 0x7C SWAP2 SWAP1 PUSH2 0xC84 JUMP JUMPDEST PUSH2 0x151 JUMP JUMPDEST PUSH1 0x40 MLOAD PUSH2 0x8E SWAP2 SWAP1 PUSH2 0xFF1 JUMP JUMPDEST PUSH1 0x40 MLOAD DUP1 SWAP2 SUB SWAP1 RETURN JUMPDEST CALLVALUE DUP1 ISZERO PUSH2 0xA3 JUMPI PUSH1 0x0 DUP1 REVERT JUMPDEST POP PUSH2 0xBE PUSH1 0x4 DUP1 CALLDATASIZE SUB DUP2 ADD SWAP1 PUSH2 0xB9 SWAP2 SWAP1 PUSH2 0xC84 JUMP JUMPDEST PUSH2 0x2E8 JUMP JUMPDEST PUSH1 0x40 MLOAD PUSH2 0xCB SWAP2 SWAP1 PUSH2 0xFCF JUMP JUMPDEST PUSH1 0x40 MLOAD DUP1 SWAP2 SUB SWAP1 RETURN JUMPDEST CALLVALUE DUP1 ISZERO PUSH2 0xE0 JUMPI PUSH1 0x0 DUP1 REVERT JUMPDEST POP PUSH2 0xFB PUSH1 0x4 DUP1 CALLDATASIZE SUB DUP2 ADD SWAP1 PUSH2 0xF6 SWAP2 SWAP1 PUSH2 0xD48 JUMP JUMPDEST PUSH2 0x475 JUMP JUMPDEST STOP JUMPDEST PUSH2 0x117 PUSH1 0x4 DUP1 CALLDATASIZE SUB DUP2 ADD SWAP1 PUSH2 0x112 SWAP2 SWAP1 PUSH2 0xCB1 JUMP JUMPDEST PUSH2 0x6DA JUMP JUMPDEST STOP JUMPDEST PUSH2 0x133 PUSH1 0x4 DUP1 CALLDATASIZE SUB DUP2 ADD SWAP1 PUSH2 0x12E SWAP2 SWAP1 PUSH2 0xDB7 JUMP JUMPDEST PUSH2 0x8F2 JUMP JUMPDEST STOP JUMPDEST PUSH2 0x14F PUSH1 0x4 DUP1 CALLDATASIZE SUB DUP2 ADD SWAP1 PUSH2 0x14A SWAP2 SWAP1 PUSH2 0xC84 JUMP JUMPDEST PUSH2 0xAB3 JUMP JUMPDEST STOP JUMPDEST PUSH2 0x159 PUSH2 0xAFE JUMP JUMPDEST PUSH1 0x0 DUP1 SLOAD SWAP1 PUSH2 0x100 EXP SWAP1 DIV PUSH20 0xFFFFFFFFFFFFFFFFFFFFFFFFFFFFFFFFFFFFFFFF AND PUSH20 0xFFFFFFFFFFFFFFFFFFFFFFFFFFFFFFFFFFFFFFFF AND CALLER PUSH20 0xFFFFFFFFFFFFFFFFFFFFFFFFFFFFFFFFFFFFFFFF AND EQ PUSH2 0x1E7 JUMPI PUSH1 0x40 MLOAD PUSH32 0x8C379A000000000000000000000000000000000000000000000000000000000 DUP2 MSTORE PUSH1 0x4 ADD PUSH2 0x1DE SWAP1 PUSH2 0xF8F JUMP JUMPDEST PUSH1 0x40 MLOAD DUP1 SWAP2 SUB SWAP1 REVERT JUMPDEST PUSH1 0x1 PUSH1 0x0 DUP4 PUSH20 0xFFFFFFFFFFFFFFFFFFFFFFFFFFFFFFFFFFFFFFFF AND PUSH20 0xFFFFFFFFFFFFFFFFFFFFFFFFFFFFFFFFFFFFFFFF AND DUP2 MSTORE PUSH1 0x20 ADD SWAP1 DUP2 MSTORE PUSH1 0x20 ADD PUSH1 0x0 KECCAK256 PUSH1 0x40 MLOAD DUP1 PUSH1 0x80 ADD PUSH1 0x40 MSTORE SWAP1 DUP2 PUSH1 0x0 DUP3 ADD SLOAD DUP2 MSTORE PUSH1 0x20 ADD PUSH1 0x1 DUP3 ADD DUP1 SLOAD PUSH2 0x24B SWAP1 PUSH2 0x1114 JUMP JUMPDEST DUP1 PUSH1 0x1F ADD PUSH1 0x20 DUP1 SWAP2 DIV MUL PUSH1 0x20 ADD PUSH1 0x40 MLOAD SWAP1 DUP2 ADD PUSH1 0x40 MSTORE DUP1 SWAP3 SWAP2 SWAP1 DUP2 DUP2 MSTORE PUSH1 0x20 ADD DUP3 DUP1 SLOAD PUSH2 0x277 SWAP1 PUSH2 0x1114 JUMP JUMPDEST DUP1 ISZERO PUSH2 0x2C4 JUMPI DUP1 PUSH1 0x1F LT PUSH2 0x299 JUMPI PUSH2 0x100 DUP1 DUP4 SLOAD DIV MUL DUP4 MSTORE SWAP2 PUSH1 0x20 ADD SWAP2 PUSH2 0x2C4 JUMP JUMPDEST DUP3 ADD SWAP2 SWAP1 PUSH1 0x0 MSTORE PUSH1 0x20 PUSH1 0x0 KECCAK256 SWAP1 JUMPDEST DUP2 SLOAD DUP2 MSTORE SWAP1 PUSH1 0x1 ADD SWAP1 PUSH1 0x20 ADD DUP1 DUP4 GT PUSH2 0x2A7 JUMPI DUP3 SWAP1 SUB PUSH1 0x1F AND DUP3 ADD SWAP2 JUMPDEST POP POP POP POP POP DUP2 MSTORE PUSH1 0x20 ADD PUSH1 0x2 DUP3 ADD SLOAD DUP2 MSTORE PUSH1 0x20 ADD PUSH1 0x3 DUP3 ADD SLOAD DUP2 MSTORE POP POP SWAP1 POP SWAP2 SWAP1 POP JUMP JUMPDEST PUSH2 0x2F0 PUSH2 0xB26 JUMP JUMPDEST PUSH1 0x0 DUP1 SLOAD SWAP1 PUSH2 0x100 EXP SWAP1 DIV PUSH20 0xFFFFFFFFFFFFFFFFFFFFFFFFFFFFFFFFFFFFFFFF AND PUSH20 0xFFFFFFFFFFFFFFFFFFFFFFFFFFFFFFFFFFFFFFFF AND CALLER PUSH20 0xFFFFFFFFFFFFFFFFFFFFFFFFFFFFFFFFFFFFFFFF AND EQ PUSH2 0x37E JUMPI PUSH1 0x40 MLOAD PUSH32 0x8C379A000000000000000000000000000000000000000000000000000000000 DUP2 MSTORE PUSH1 0x4 ADD PUSH2 0x375 SWAP1 PUSH2 0xF8F JUMP JUMPDEST PUSH1 0x40 MLOAD DUP1 SWAP2 SUB SWAP1 REVERT JUMPDEST PUSH1 0x2 PUSH1 0x0 DUP4 PUSH20 0xFFFFFFFFFFFFFFFFFFFFFFFFFFFFFFFFFFFFFFFF AND PUSH20 0xFFFFFFFFFFFFFFFFFFFFFFFFFFFFFFFFFFFFFFFF AND DUP2 MSTORE PUSH1 0x20 ADD SWAP1 DUP2 MSTORE PUSH1 0x20 ADD PUSH1 0x0 KECCAK256 PUSH1 0x40 MLOAD DUP1 PUSH1 0x60 ADD PUSH1 0x40 MSTORE SWAP1 DUP2 PUSH1 0x0 DUP3 ADD SLOAD DUP2 MSTORE PUSH1 0x20 ADD PUSH1 0x1 DUP3 ADD DUP1 SLOAD PUSH2 0x3E2 SWAP1 PUSH2 0x1114 JUMP JUMPDEST DUP1 PUSH1 0x1F ADD PUSH1 0x20 DUP1 SWAP2 DIV MUL PUSH1 0x20 ADD PUSH1 0x40 MLOAD SWAP1 DUP2 ADD PUSH1 0x40 MSTORE DUP1 SWAP3 SWAP2 SWAP1 DUP2 DUP2 MSTORE PUSH1 0x20 ADD DUP3 DUP1 SLOAD PUSH2 0x40E SWAP1 PUSH2 0x1114 JUMP JUMPDEST DUP1 ISZERO PUSH2 0x45B JUMPI DUP1 PUSH1 0x1F LT PUSH2 0x430 JUMPI PUSH2 0x100 DUP1 DUP4 SLOAD DIV MUL DUP4 MSTORE SWAP2 PUSH1 0x20 ADD SWAP2 PUSH2 0x45B JUMP JUMPDEST DUP3 ADD SWAP2 SWAP1 PUSH1 0x0 MSTORE PUSH1 0x20 PUSH1 0x0 KECCAK256 SWAP1 JUMPDEST DUP2 SLOAD DUP2 MSTORE SWAP1 PUSH1 0x1 ADD SWAP1 PUSH1 0x20 ADD DUP1 DUP4 GT PUSH2 0x43E JUMPI DUP3 SWAP1 SUB PUSH1 0x1F AND DUP3 ADD SWAP2 JUMPDEST POP POP POP POP POP DUP2 MSTORE PUSH1 0x20 ADD PUSH1 0x2 DUP3 ADD SLOAD DUP2 MSTORE POP POP SWAP1 POP SWAP2 SWAP1 POP JUMP JUMPDEST PUSH1 0x0 DUP1 SLOAD SWAP1 PUSH2 0x100 EXP SWAP1 DIV PUSH20 0xFFFFFFFFFFFFFFFFFFFFFFFFFFFFFFFFFFFFFFFF AND PUSH20 0xFFFFFFFFFFFFFFFFFFFFFFFFFFFFFFFFFFFFFFFF AND CALLER PUSH20 0xFFFFFFFFFFFFFFFFFFFFFFFFFFFFFFFFFFFFFFFF AND EQ PUSH2 0x503 JUMPI PUSH1 0x40 MLOAD PUSH32 0x8C379A000000000000000000000000000000000000000000000000000000000 DUP2 MSTORE PUSH1 0x4 ADD PUSH2 0x4FA SWAP1 PUSH2 0xF8F JUMP JUMPDEST PUSH1 0x40 MLOAD DUP1 SWAP2 SUB SWAP1 REVERT JUMPDEST DUP1 PUSH1 0x2 PUSH1 0x0 DUP6 PUSH20 0xFFFFFFFFFFFFFFFFFFFFFFFFFFFFFFFFFFFFFFFF AND PUSH20 0xFFFFFFFFFFFFFFFFFFFFFFFFFFFFFFFFFFFFFFFF AND DUP2 MSTORE PUSH1 0x20 ADD SWAP1 DUP2 MSTORE PUSH1 0x20 ADD PUSH1 0x0 KECCAK256 PUSH1 0x2 ADD SLOAD LT ISZERO PUSH2 0x588 JUMPI PUSH1 0x40 MLOAD PUSH32 0x8C379A000000000000000000000000000000000000000000000000000000000 DUP2 MSTORE PUSH1 0x4 ADD PUSH2 0x57F SWAP1 PUSH2 0xFAF JUMP JUMPDEST PUSH1 0x40 MLOAD DUP1 SWAP2 SUB SWAP1 REVERT JUMPDEST DUP2 PUSH1 0x1 PUSH1 0x0 DUP6 PUSH20 0xFFFFFFFFFFFFFFFFFFFFFFFFFFFFFFFFFFFFFFFF AND PUSH20 0xFFFFFFFFFFFFFFFFFFFFFFFFFFFFFFFFFFFFFFFF AND DUP2 MSTORE PUSH1 0x20 ADD SWAP1 DUP2 MSTORE PUSH1 0x20 ADD PUSH1 0x0 KECCAK256 PUSH1 0x1 ADD SWAP1 DUP1 MLOAD SWAP1 PUSH1 0x20 ADD SWAP1 PUSH2 0x5DE SWAP3 SWAP2 SWAP1 PUSH2 0xB47 JUMP JUMPDEST POP PUSH1 0x0 PUSH1 0x2 PUSH1 0x0 DUP6 PUSH20 0xFFFFFFFFFFFFFFFFFFFFFFFFFFFFFFFFFFFFFFFF AND PUSH20 0xFFFFFFFFFFFFFFFFFFFFFFFFFFFFFFFFFFFFFFFF AND DUP2 MSTORE PUSH1 0x20 ADD SWAP1 DUP2 MSTORE PUSH1 0x20 ADD PUSH1 0x0 KECCAK256 PUSH1 0x0 ADD DUP2 SWAP1 SSTORE POP PUSH1 0x40 MLOAD DUP1 PUSH1 0x20 ADD PUSH1 0x40 MSTORE DUP1 PUSH1 0x0 DUP2 MSTORE POP PUSH1 0x2 PUSH1 0x0 DUP6 PUSH20 0xFFFFFFFFFFFFFFFFFFFFFFFFFFFFFFFFFFFFFFFF AND PUSH20 0xFFFFFFFFFFFFFFFFFFFFFFFFFFFFFFFFFFFFFFFF AND DUP2 MSTORE PUSH1 0x20 ADD SWAP1 DUP2 MSTORE PUSH1 0x20 ADD PUSH1 0x0 KECCAK256 PUSH1 0x1 ADD SWAP1 DUP1 MLOAD SWAP1 PUSH1 0x20 ADD SWAP1 PUSH2 0x68C SWAP3 SWAP2 SWAP1 PUSH2 0xB47 JUMP JUMPDEST POP PUSH1 0x0 PUSH1 0x2 PUSH1 0x0 DUP6 PUSH20 0xFFFFFFFFFFFFFFFFFFFFFFFFFFFFFFFFFFFFFFFF AND PUSH20 0xFFFFFFFFFFFFFFFFFFFFFFFFFFFFFFFFFFFFFFFF AND DUP2 MSTORE PUSH1 0x20 ADD SWAP1 DUP2 MSTORE PUSH1 0x20 ADD PUSH1 0x0 KECCAK256 PUSH1 0x2 ADD DUP2 SWAP1 SSTORE POP POP POP POP JUMP JUMPDEST PUSH1 0x0 DUP1 SLOAD SWAP1 PUSH2 0x100 EXP SWAP1 DIV PUSH20 0xFFFFFFFFFFFFFFFFFFFFFFFFFFFFFFFFFFFFFFFF AND PUSH20 0xFFFFFFFFFFFFFFFFFFFFFFFFFFFFFFFFFFFFFFFF AND CALLER PUSH20 0xFFFFFFFFFFFFFFFFFFFFFFFFFFFFFFFFFFFFFFFF AND EQ PUSH2 0x768 JUMPI PUSH1 0x40 MLOAD PUSH32 0x8C379A000000000000000000000000000000000000000000000000000000000 DUP2 MSTORE PUSH1 0x4 ADD PUSH2 0x75F SWAP1 PUSH2 0xF8F JUMP JUMPDEST PUSH1 0x40 MLOAD DUP1 SWAP2 SUB SWAP1 REVERT JUMPDEST DUP2 PUSH1 0x1 PUSH1 0x0 DUP8 PUSH20 0xFFFFFFFFFFFFFFFFFFFFFFFFFFFFFFFFFFFFFFFF AND PUSH20 0xFFFFFFFFFFFFFFFFFFFFFFFFFFFFFFFFFFFFFFFF AND DUP2 MSTORE PUSH1 0x20 ADD SWAP1 DUP2 MSTORE PUSH1 0x20 ADD PUSH1 0x0 KECCAK256 PUSH1 0x1 ADD SWAP1 DUP1 MLOAD SWAP1 PUSH1 0x20 ADD SWAP1 PUSH2 0x7BE SWAP3 SWAP2 SWAP1 PUSH2 0xB47 JUMP JUMPDEST POP DUP3 PUSH1 0x2 PUSH1 0x0 DUP8 PUSH20 0xFFFFFFFFFFFFFFFFFFFFFFFFFFFFFFFFFFFFFFFF AND PUSH20 0xFFFFFFFFFFFFFFFFFFFFFFFFFFFFFFFFFFFFFFFF AND DUP2 MSTORE PUSH1 0x20 ADD SWAP1 DUP2 MSTORE PUSH1 0x20 ADD PUSH1 0x0 KECCAK256 PUSH1 0x0 ADD DUP2 SWAP1 SSTORE POP DUP2 PUSH1 0x2 PUSH1 0x0 DUP8 PUSH20 0xFFFFFFFFFFFFFFFFFFFFFFFFFFFFFFFFFFFFFFFF AND PUSH20 0xFFFFFFFFFFFFFFFFFFFFFFFFFFFFFFFFFFFFFFFF AND DUP2 MSTORE PUSH1 0x20 ADD SWAP1 DUP2 MSTORE PUSH1 0x20 ADD PUSH1 0x0 KECCAK256 PUSH1 0x1 ADD SWAP1 DUP1 MLOAD SWAP1 PUSH1 0x20 ADD SWAP1 PUSH2 0x85C SWAP3 SWAP2 SWAP1 PUSH2 0xB47 JUMP JUMPDEST POP DUP1 PUSH1 0x2 PUSH1 0x0 DUP8 PUSH20 0xFFFFFFFFFFFFFFFFFFFFFFFFFFFFFFFFFFFFFFFF AND PUSH20 0xFFFFFFFFFFFFFFFFFFFFFFFFFFFFFFFFFFFFFFFF AND DUP2 MSTORE PUSH1 0x20 ADD SWAP1 DUP2 MSTORE PUSH1 0x20 ADD PUSH1 0x0 KECCAK256 PUSH1 0x2 ADD DUP2 SWAP1 SSTORE POP DUP4 PUSH20 0xFFFFFFFFFFFFFFFFFFFFFFFFFFFFFFFFFFFFFFFF AND PUSH2 0x8FC DUP3 SWAP1 DUP2 ISZERO MUL SWAP1 PUSH1 0x40 MLOAD PUSH1 0x0 PUSH1 0x40 MLOAD DUP1 DUP4 SUB DUP2 DUP6 DUP9 DUP9 CALL SWAP4 POP POP POP POP ISZERO DUP1 ISZERO PUSH2 0x8EA JUMPI RETURNDATASIZE PUSH1 0x0 DUP1 RETURNDATACOPY RETURNDATASIZE PUSH1 0x0 REVERT JUMPDEST POP POP POP POP POP POP JUMP JUMPDEST PUSH1 0x0 DUP1 SLOAD SWAP1 PUSH2 0x100 EXP SWAP1 DIV PUSH20 0xFFFFFFFFFFFFFFFFFFFFFFFFFFFFFFFFFFFFFFFF AND PUSH20 0xFFFFFFFFFFFFFFFFFFFFFFFFFFFFFFFFFFFFFFFF AND CALLER PUSH20 0xFFFFFFFFFFFFFFFFFFFFFFFFFFFFFFFFFFFFFFFF AND EQ PUSH2 0x980 JUMPI PUSH1 0x40 MLOAD PUSH32 0x8C379A000000000000000000000000000000000000000000000000000000000 DUP2 MSTORE PUSH1 0x4 ADD PUSH2 0x977 SWAP1 PUSH2 0xF8F JUMP JUMPDEST PUSH1 0x40 MLOAD DUP1 SWAP2 SUB SWAP1 REVERT JUMPDEST DUP4 PUSH1 0x1 PUSH1 0x0 DUP8 PUSH20 0xFFFFFFFFFFFFFFFFFFFFFFFFFFFFFFFFFFFFFFFF AND PUSH20 0xFFFFFFFFFFFFFFFFFFFFFFFFFFFFFFFFFFFFFFFF AND DUP2 MSTORE PUSH1 0x20 ADD SWAP1 DUP2 MSTORE PUSH1 0x20 ADD PUSH1 0x0 KECCAK256 PUSH1 0x0 ADD DUP2 SWAP1 SSTORE POP DUP3 PUSH1 0x1 PUSH1 0x0 DUP8 PUSH20 0xFFFFFFFFFFFFFFFFFFFFFFFFFFFFFFFFFFFFFFFF AND PUSH20 0xFFFFFFFFFFFFFFFFFFFFFFFFFFFFFFFFFFFFFFFF AND DUP2 MSTORE PUSH1 0x20 ADD SWAP1 DUP2 MSTORE PUSH1 0x20 ADD PUSH1 0x0 KECCAK256 PUSH1 0x1 ADD SWAP1 DUP1 MLOAD SWAP1 PUSH1 0x20 ADD SWAP1 PUSH2 0xA1D SWAP3 SWAP2 SWAP1 PUSH2 0xB47 JUMP JUMPDEST POP DUP2 PUSH1 0x1 PUSH1 0x0 DUP8 PUSH20 0xFFFFFFFFFFFFFFFFFFFFFFFFFFFFFFFFFFFFFFFF AND PUSH20 0xFFFFFFFFFFFFFFFFFFFFFFFFFFFFFFFFFFFFFFFF AND DUP2 MSTORE PUSH1 0x20 ADD SWAP1 DUP2 MSTORE PUSH1 0x20 ADD PUSH1 0x0 KECCAK256 PUSH1 0x2 ADD DUP2 SWAP1 SSTORE POP DUP1 PUSH1 0x1 PUSH1 0x0 DUP8 PUSH20 0xFFFFFFFFFFFFFFFFFFFFFFFFFFFFFFFFFFFFFFFF AND PUSH20 0xFFFFFFFFFFFFFFFFFFFFFFFFFFFFFFFFFFFFFFFF AND DUP2 MSTORE PUSH1 0x20 ADD SWAP1 DUP2 MSTORE PUSH1 0x20 ADD PUSH1 0x0 KECCAK256 PUSH1 0x3 ADD DUP2 SWAP1 SSTORE POP POP POP POP POP POP JUMP JUMPDEST DUP1 PUSH20 0xFFFFFFFFFFFFFFFFFFFFFFFFFFFFFFFFFFFFFFFF AND PUSH2 0x8FC PUSH1 0x2 SWAP1 DUP2 ISZERO MUL SWAP1 PUSH1 0x40 MLOAD PUSH1 0x0 PUSH1 0x40 MLOAD DUP1 DUP4 SUB DUP2 DUP6 DUP9 DUP9 CALL SWAP4 POP POP POP POP ISZERO DUP1 ISZERO PUSH2 0xAFA JUMPI RETURNDATASIZE PUSH1 0x0 DUP1 RETURNDATACOPY RETURNDATASIZE PUSH1 0x0 REVERT JUMPDEST POP POP JUMP JUMPDEST PUSH1 0x40 MLOAD DUP1 PUSH1 0x80 ADD PUSH1 0x40 MSTORE DUP1 PUSH1 0x0 DUP2 MSTORE PUSH1 0x20 ADD PUSH1 0x60 DUP2 MSTORE PUSH1 0x20 ADD PUSH1 0x0 DUP2 MSTORE PUSH1 0x20 ADD PUSH1 0x0 DUP2 MSTORE POP SWAP1 JUMP JUMPDEST PUSH1 0x40 MLOAD DUP1 PUSH1 0x60 ADD PUSH1 0x40 MSTORE DUP1 PUSH1 0x0 DUP2 MSTORE PUSH1 0x20 ADD PUSH1 0x60 DUP2 MSTORE PUSH1 0x20 ADD PUSH1 0x0 DUP2 MSTORE POP SWAP1 JUMP JUMPDEST DUP3 DUP1 SLOAD PUSH2 0xB53 SWAP1 PUSH2 0x1114 JUMP JUMPDEST SWAP1 PUSH1 0x0 MSTORE PUSH1 0x20 PUSH1 0x0 KECCAK256 SWAP1 PUSH1 0x1F ADD PUSH1 0x20 SWAP1 DIV DUP2 ADD SWAP3 DUP3 PUSH2 0xB75 JUMPI PUSH1 0x0 DUP6 SSTORE PUSH2 0xBBC JUMP JUMPDEST DUP3 PUSH1 0x1F LT PUSH2 0xB8E JUMPI DUP1 MLOAD PUSH1 0xFF NOT AND DUP4 DUP1 ADD OR DUP6 SSTORE PUSH2 0xBBC JUMP JUMPDEST DUP3 DUP1 ADD PUSH1 0x1 ADD DUP6 SSTORE DUP3 ISZERO PUSH2 0xBBC JUMPI SWAP2 DUP3 ADD JUMPDEST DUP3 DUP2 GT ISZERO PUSH2 0xBBB JUMPI DUP3 MLOAD DUP3 SSTORE SWAP2 PUSH1 0x20 ADD SWAP2 SWAP1 PUSH1 0x1 ADD SWAP1 PUSH2 0xBA0 JUMP JUMPDEST JUMPDEST POP SWAP1 POP PUSH2 0xBC9 SWAP2 SWAP1 PUSH2 0xBCD JUMP JUMPDEST POP SWAP1 JUMP JUMPDEST JUMPDEST DUP1 DUP3 GT ISZERO PUSH2 0xBE6 JUMPI PUSH1 0x0 DUP2 PUSH1 0x0 SWAP1 SSTORE POP PUSH1 0x1 ADD PUSH2 0xBCE JUMP JUMPDEST POP SWAP1 JUMP JUMPDEST PUSH1 0x0 PUSH2 0xBFD PUSH2 0xBF8 DUP5 PUSH2 0x1038 JUMP JUMPDEST PUSH2 0x1013 JUMP JUMPDEST SWAP1 POP DUP3 DUP2 MSTORE PUSH1 0x20 DUP2 ADD DUP5 DUP5 DUP5 ADD GT ISZERO PUSH2 0xC19 JUMPI PUSH2 0xC18 PUSH2 0x11DA JUMP JUMPDEST JUMPDEST PUSH2 0xC24 DUP5 DUP3 DUP6 PUSH2 0x10D2 JUMP JUMPDEST POP SWAP4 SWAP3 POP POP POP JUMP JUMPDEST PUSH1 0x0 DUP2 CALLDATALOAD SWAP1 POP PUSH2 0xC3B DUP2 PUSH2 0x124C JUMP JUMPDEST SWAP3 SWAP2 POP POP JUMP JUMPDEST PUSH1 0x0 DUP3 PUSH1 0x1F DUP4 ADD SLT PUSH2 0xC56 JUMPI PUSH2 0xC55 PUSH2 0x11D5 JUMP JUMPDEST JUMPDEST DUP2 CALLDATALOAD PUSH2 0xC66 DUP5 DUP3 PUSH1 0x20 DUP7 ADD PUSH2 0xBEA JUMP JUMPDEST SWAP2 POP POP SWAP3 SWAP2 POP POP JUMP JUMPDEST PUSH1 0x0 DUP2 CALLDATALOAD SWAP1 POP PUSH2 0xC7E DUP2 PUSH2 0x1263 JUMP JUMPDEST SWAP3 SWAP2 POP POP JUMP JUMPDEST PUSH1 0x0 PUSH1 0x20 DUP3 DUP5 SUB SLT ISZERO PUSH2 0xC9A JUMPI PUSH2 0xC99 PUSH2 0x11E4 JUMP JUMPDEST JUMPDEST PUSH1 0x0 PUSH2 0xCA8 DUP5 DUP3 DUP6 ADD PUSH2 0xC2C JUMP JUMPDEST SWAP2 POP POP SWAP3 SWAP2 POP POP JUMP JUMPDEST PUSH1 0x0 DUP1 PUSH1 0x0 DUP1 PUSH1 0x0 PUSH1 0xA0 DUP7 DUP9 SUB SLT ISZERO PUSH2 0xCCD JUMPI PUSH2 0xCCC PUSH2 0x11E4 JUMP JUMPDEST JUMPDEST PUSH1 0x0 PUSH2 0xCDB DUP9 DUP3 DUP10 ADD PUSH2 0xC2C JUMP JUMPDEST SWAP6 POP POP PUSH1 0x20 PUSH2 0xCEC DUP9 DUP3 DUP10 ADD PUSH2 0xC2C JUMP JUMPDEST SWAP5 POP POP PUSH1 0x40 PUSH2 0xCFD DUP9 DUP3 DUP10 ADD PUSH2 0xC6F JUMP JUMPDEST SWAP4 POP POP PUSH1 0x60 DUP7 ADD CALLDATALOAD PUSH8 0xFFFFFFFFFFFFFFFF DUP2 GT ISZERO PUSH2 0xD1E JUMPI PUSH2 0xD1D PUSH2 0x11DF JUMP JUMPDEST JUMPDEST PUSH2 0xD2A DUP9 DUP3 DUP10 ADD PUSH2 0xC41 JUMP JUMPDEST SWAP3 POP POP PUSH1 0x80 PUSH2 0xD3B DUP9 DUP3 DUP10 ADD PUSH2 0xC6F JUMP JUMPDEST SWAP2 POP POP SWAP3 SWAP6 POP SWAP3 SWAP6 SWAP1 SWAP4 POP JUMP JUMPDEST PUSH1 0x0 DUP1 PUSH1 0x0 PUSH1 0x60 DUP5 DUP7 SUB SLT ISZERO PUSH2 0xD61 JUMPI PUSH2 0xD60 PUSH2 0x11E4 JUMP JUMPDEST JUMPDEST PUSH1 0x0 PUSH2 0xD6F DUP7 DUP3 DUP8 ADD PUSH2 0xC2C JUMP JUMPDEST SWAP4 POP POP PUSH1 0x20 DUP5 ADD CALLDATALOAD PUSH8 0xFFFFFFFFFFFFFFFF DUP2 GT ISZERO PUSH2 0xD90 JUMPI PUSH2 0xD8F PUSH2 0x11DF JUMP JUMPDEST JUMPDEST PUSH2 0xD9C DUP7 DUP3 DUP8 ADD PUSH2 0xC41 JUMP JUMPDEST SWAP3 POP POP PUSH1 0x40 PUSH2 0xDAD DUP7 DUP3 DUP8 ADD PUSH2 0xC6F JUMP JUMPDEST SWAP2 POP POP SWAP3 POP SWAP3 POP SWAP3 JUMP JUMPDEST PUSH1 0x0 DUP1 PUSH1 0x0 DUP1 PUSH1 0x0 PUSH1 0xA0 DUP7 DUP9 SUB SLT ISZERO PUSH2 0xDD3 JUMPI PUSH2 0xDD2 PUSH2 0x11E4 JUMP JUMPDEST JUMPDEST PUSH1 0x0 PUSH2 0xDE1 DUP9 DUP3 DUP10 ADD PUSH2 0xC2C JUMP JUMPDEST SWAP6 POP POP PUSH1 0x20 PUSH2 0xDF2 DUP9 DUP3 DUP10 ADD PUSH2 0xC6F JUMP JUMPDEST SWAP5 POP POP PUSH1 0x40 DUP7 ADD CALLDATALOAD PUSH8 0xFFFFFFFFFFFFFFFF DUP2 GT ISZERO PUSH2 0xE13 JUMPI PUSH2 0xE12 PUSH2 0x11DF JUMP JUMPDEST JUMPDEST PUSH2 0xE1F DUP9 DUP3 DUP10 ADD PUSH2 0xC41 JUMP JUMPDEST SWAP4 POP POP PUSH1 0x60 PUSH2 0xE30 DUP9 DUP3 DUP10 ADD PUSH2 0xC6F JUMP JUMPDEST SWAP3 POP POP PUSH1 0x80 PUSH2 0xE41 DUP9 DUP3 DUP10 ADD PUSH2 0xC6F JUMP JUMPDEST SWAP2 POP POP SWAP3 SWAP6 POP SWAP3 SWAP6 SWAP1 SWAP4 POP JUMP JUMPDEST PUSH1 0x0 PUSH2 0xE59 DUP3 PUSH2 0x1069 JUMP JUMPDEST PUSH2 0xE63 DUP2 DUP6 PUSH2 0x1074 JUMP JUMPDEST SWAP4 POP PUSH2 0xE73 DUP2 DUP6 PUSH1 0x20 DUP7 ADD PUSH2 0x10E1 JUMP JUMPDEST PUSH2 0xE7C DUP2 PUSH2 0x11E9 JUMP JUMPDEST DUP5 ADD SWAP2 POP POP SWAP3 SWAP2 POP POP JUMP JUMPDEST PUSH1 0x0 PUSH2 0xE94 PUSH1 0x1D DUP4 PUSH2 0x1085 JUMP JUMPDEST SWAP2 POP PUSH2 0xE9F DUP3 PUSH2 0x11FA JUMP JUMPDEST PUSH1 0x20 DUP3 ADD SWAP1 POP SWAP2 SWAP1 POP JUMP JUMPDEST PUSH1 0x0 PUSH2 0xEB7 PUSH1 0x1D DUP4 PUSH2 0x1085 JUMP JUMPDEST SWAP2 POP PUSH2 0xEC2 DUP3 PUSH2 0x1223 JUMP JUMPDEST PUSH1 0x20 DUP3 ADD SWAP1 POP SWAP2 SWAP1 POP JUMP JUMPDEST PUSH1 0x0 PUSH1 0x60 DUP4 ADD PUSH1 0x0 DUP4 ADD MLOAD PUSH2 0xEE5 PUSH1 0x0 DUP7 ADD DUP3 PUSH2 0xF80 JUMP JUMPDEST POP PUSH1 0x20 DUP4 ADD MLOAD DUP5 DUP3 SUB PUSH1 0x20 DUP7 ADD MSTORE PUSH2 0xEFD DUP3 DUP3 PUSH2 0xE4E JUMP JUMPDEST SWAP2 POP POP PUSH1 0x40 DUP4 ADD MLOAD PUSH2 0xF12 PUSH1 0x40 DUP7 ADD DUP3 PUSH2 0xF80 JUMP JUMPDEST POP DUP1 SWAP2 POP POP SWAP3 SWAP2 POP POP JUMP JUMPDEST PUSH1 0x0 PUSH1 0x80 DUP4 ADD PUSH1 0x0 DUP4 ADD MLOAD PUSH2 0xF35 PUSH1 0x0 DUP7 ADD DUP3 PUSH2 0xF80 JUMP JUMPDEST POP PUSH1 0x20 DUP4 ADD MLOAD DUP5 DUP3 SUB PUSH1 0x20 DUP7 ADD MSTORE PUSH2 0xF4D DUP3 DUP3 PUSH2 0xE4E JUMP JUMPDEST SWAP2 POP POP PUSH1 0x40 DUP4 ADD MLOAD PUSH2 0xF62 PUSH1 0x40 DUP7 ADD DUP3 PUSH2 0xF80 JUMP JUMPDEST POP PUSH1 0x60 DUP4 ADD MLOAD PUSH2 0xF75 PUSH1 0x60 DUP7 ADD DUP3 PUSH2 0xF80 JUMP JUMPDEST POP DUP1 SWAP2 POP POP SWAP3 SWAP2 POP POP JUMP JUMPDEST PUSH2 0xF89 DUP2 PUSH2 0x10C8 JUMP JUMPDEST DUP3 MSTORE POP POP JUMP JUMPDEST PUSH1 0x0 PUSH1 0x20 DUP3 ADD SWAP1 POP DUP2 DUP2 SUB PUSH1 0x0 DUP4 ADD MSTORE PUSH2 0xFA8 DUP2 PUSH2 0xE87 JUMP JUMPDEST SWAP1 POP SWAP2 SWAP1 POP JUMP JUMPDEST PUSH1 0x0 PUSH1 0x20 DUP3 ADD SWAP1 POP DUP2 DUP2 SUB PUSH1 0x0 DUP4 ADD MSTORE PUSH2 0xFC8 DUP2 PUSH2 0xEAA JUMP JUMPDEST SWAP1 POP SWAP2 SWAP1 POP JUMP JUMPDEST PUSH1 0x0 PUSH1 0x20 DUP3 ADD SWAP1 POP DUP2 DUP2 SUB PUSH1 0x0 DUP4 ADD MSTORE PUSH2 0xFE9 DUP2 DUP5 PUSH2 0xECD JUMP JUMPDEST SWAP1 POP SWAP3 SWAP2 POP POP JUMP JUMPDEST PUSH1 0x0 PUSH1 0x20 DUP3 ADD SWAP1 POP DUP2 DUP2 SUB PUSH1 0x0 DUP4 ADD MSTORE PUSH2 0x100B DUP2 DUP5 PUSH2 0xF1D JUMP JUMPDEST SWAP1 POP SWAP3 SWAP2 POP POP JUMP JUMPDEST PUSH1 0x0 PUSH2 0x101D PUSH2 0x102E JUMP JUMPDEST SWAP1 POP PUSH2 0x1029 DUP3 DUP3 PUSH2 0x1146 JUMP JUMPDEST SWAP2 SWAP1 POP JUMP JUMPDEST PUSH1 0x0 PUSH1 0x40 MLOAD SWAP1 POP SWAP1 JUMP JUMPDEST PUSH1 0x0 PUSH8 0xFFFFFFFFFFFFFFFF DUP3 GT ISZERO PUSH2 0x1053 JUMPI PUSH2 0x1052 PUSH2 0x11A6 JUMP JUMPDEST JUMPDEST PUSH2 0x105C DUP3 PUSH2 0x11E9 JUMP JUMPDEST SWAP1 POP PUSH1 0x20 DUP2 ADD SWAP1 POP SWAP2 SWAP1 POP JUMP JUMPDEST PUSH1 0x0 DUP2 MLOAD SWAP1 POP SWAP2 SWAP1 POP JUMP JUMPDEST PUSH1 0x0 DUP3 DUP3 MSTORE PUSH1 0x20 DUP3 ADD SWAP1 POP SWAP3 SWAP2 POP POP JUMP JUMPDEST PUSH1 0x0 DUP3 DUP3 MSTORE PUSH1 0x20 DUP3 ADD SWAP1 POP SWAP3 SWAP2 POP POP JUMP JUMPDEST PUSH1 0x0 PUSH2 0x10A1 DUP3 PUSH2 0x10A8 JUMP JUMPDEST SWAP1 POP SWAP2 SWAP1 POP JUMP JUMPDEST PUSH1 0x0 PUSH20 0xFFFFFFFFFFFFFFFFFFFFFFFFFFFFFFFFFFFFFFFF DUP3 AND SWAP1 POP SWAP2 SWAP1 POP JUMP JUMPDEST PUSH1 0x0 DUP2 SWAP1 POP SWAP2 SWAP1 POP JUMP JUMPDEST DUP3 DUP2 DUP4 CALLDATACOPY PUSH1 0x0 DUP4 DUP4 ADD MSTORE POP POP POP JUMP JUMPDEST PUSH1 0x0 JUMPDEST DUP4 DUP2 LT ISZERO PUSH2 0x10FF JUMPI DUP1 DUP3 ADD MLOAD DUP2 DUP5 ADD MSTORE PUSH1 0x20 DUP2 ADD SWAP1 POP PUSH2 0x10E4 JUMP JUMPDEST DUP4 DUP2 GT ISZERO PUSH2 0x110E JUMPI PUSH1 0x0 DUP5 DUP5 ADD MSTORE JUMPDEST POP POP POP POP JUMP JUMPDEST PUSH1 0x0 PUSH1 0x2 DUP3 DIV SWAP1 POP PUSH1 0x1 DUP3 AND DUP1 PUSH2 0x112C JUMPI PUSH1 0x7F DUP3 AND SWAP2 POP JUMPDEST PUSH1 0x20 DUP3 LT DUP2 EQ ISZERO PUSH2 0x1140 JUMPI PUSH2 0x113F PUSH2 0x1177 JUMP JUMPDEST JUMPDEST POP SWAP2 SWAP1 POP JUMP JUMPDEST PUSH2 0x114F DUP3 PUSH2 0x11E9 JUMP JUMPDEST DUP2 ADD DUP2 DUP2 LT PUSH8 0xFFFFFFFFFFFFFFFF DUP3 GT OR ISZERO PUSH2 0x116E JUMPI PUSH2 0x116D PUSH2 0x11A6 JUMP JUMPDEST JUMPDEST DUP1 PUSH1 0x40 MSTORE POP POP POP JUMP JUMPDEST PUSH32 0x4E487B7100000000000000000000000000000000000000000000000000000000 PUSH1 0x0 MSTORE PUSH1 0x22 PUSH1 0x4 MSTORE PUSH1 0x24 PUSH1 0x0 REVERT JUMPDEST PUSH32 0x4E487B7100000000000000000000000000000000000000000000000000000000 PUSH1 0x0 MSTORE PUSH1 0x41 PUSH1 0x4 MSTORE PUSH1 0x24 PUSH1 0x0 REVERT JUMPDEST PUSH1 0x0 DUP1 REVERT JUMPDEST PUSH1 0x0 DUP1 REVERT JUMPDEST PUSH1 0x0 DUP1 REVERT JUMPDEST PUSH1 0x0 DUP1 REVERT JUMPDEST PUSH1 0x0 PUSH1 0x1F NOT PUSH1 0x1F DUP4 ADD AND SWAP1 POP SWAP2 SWAP1 POP JUMP JUMPDEST PUSH32 0x596F7520617265206E6F74206C616E646F66666963652073746166662E000000 PUSH1 0x0 DUP3 ADD MSTORE POP JUMP JUMPDEST PUSH32 0x496E73756666696369656E742066756E6420666F722072656465656D2E000000 PUSH1 0x0 DUP3 ADD MSTORE POP JUMP JUMPDEST PUSH2 0x1255 DUP2 PUSH2 0x1096 JUMP JUMPDEST DUP2 EQ PUSH2 0x1260 JUMPI PUSH1 0x0 DUP1 REVERT JUMPDEST POP JUMP JUMPDEST PUSH2 0x126C DUP2 PUSH2 0x10C8 JUMP JUMPDEST DUP2 EQ PUSH2 0x1277 JUMPI PUSH1 0x0 DUP1 REVERT JUMPDEST POP JUMP INVALID LOG2 PUSH5 0x6970667358 0x22 SLT KECCAK256 JUMPI SLT 0x5E 0x5C DIV 0xE6 CHAINID 0xED 0xC7 CREATE SDIV ISZERO PUSH8 0xE51A82E9B5CDBCC3 0x4C 0x1F PUSH4 0xFC07EB87 0x21 GASLIMIT 0x4E DUP12 PUSH5 0x736F6C6343 STOP ADDMOD SMOD STOP CALLER "
				},
				"gasEstimates": {
					"creation": {
						"codeDepositCost": "956800",
						"executionCost": "25260",
						"totalCost": "982060"
					},
					"external": {
						"createParcel(address,uint256,string,uint256,uint256)": "infinite",
						"deposit(address)": "infinite",
						"getOlgt(address)": "infinite",
						"getParcel(address)": "infinite",
						"mortgage(address,address,uint256,string,uint256)": "infinite",
						"redeem(address,string,uint256)": "infinite"
					}
				},
				"methodIdentifiers": {
					"createParcel(address,uint256,string,uint256,uint256)": "935656c2",
					"deposit(address)": "f340fa01",
					"getOlgt(address)": "215271cb",
					"getParcel(address)": "198e86c6",
					"mortgage(address,address,uint256,string,uint256)": "8f1e4afa",
					"redeem(address,string,uint256)": "868571ef"
				}
			},
			"storageLayout": {
				"storage": [
					{
						"astId": 19,
						"contract": "contracts/Parcel.sol:Parcel",
						"label": "staff",
						"offset": 0,
						"slot": "0",
						"type": "t_address"
					},
					{
						"astId": 24,
						"contract": "contracts/Parcel.sol:Parcel",
						"label": "_parcel_land",
						"offset": 0,
						"slot": "1",
						"type": "t_mapping(t_address,t_struct(Parcel_land)10_storage)"
					},
					{
						"astId": 29,
						"contract": "contracts/Parcel.sol:Parcel",
						"label": "_olgt_bank",
						"offset": 0,
						"slot": "2",
						"type": "t_mapping(t_address,t_struct(OlgtBank)17_storage)"
					}
				],
				"types": {
					"t_address": {
						"encoding": "inplace",
						"label": "address",
						"numberOfBytes": "20"
					},
					"t_mapping(t_address,t_struct(OlgtBank)17_storage)": {
						"encoding": "mapping",
						"key": "t_address",
						"label": "mapping(address => struct OlgtBank)",
						"numberOfBytes": "32",
						"value": "t_struct(OlgtBank)17_storage"
					},
					"t_mapping(t_address,t_struct(Parcel_land)10_storage)": {
						"encoding": "mapping",
						"key": "t_address",
						"label": "mapping(address => struct Parcel_land)",
						"numberOfBytes": "32",
						"value": "t_struct(Parcel_land)10_storage"
					},
					"t_string_storage": {
						"encoding": "bytes",
						"label": "string",
						"numberOfBytes": "32"
					},
					"t_struct(OlgtBank)17_storage": {
						"encoding": "inplace",
						"label": "struct OlgtBank",
						"members": [
							{
								"astId": 12,
								"contract": "contracts/Parcel.sol:Parcel",
								"label": "parcel_no",
								"offset": 0,
								"slot": "0",
								"type": "t_uint256"
							},
							{
								"astId": 14,
								"contract": "contracts/Parcel.sol:Parcel",
								"label": "olgt_name",
								"offset": 0,
								"slot": "1",
								"type": "t_string_storage"
							},
							{
								"astId": 16,
								"contract": "contracts/Parcel.sol:Parcel",
								"label": "olgt_price",
								"offset": 0,
								"slot": "2",
								"type": "t_uint256"
							}
						],
						"numberOfBytes": "96"
					},
					"t_struct(Parcel_land)10_storage": {
						"encoding": "inplace",
						"label": "struct Parcel_land",
						"members": [
							{
								"astId": 3,
								"contract": "contracts/Parcel.sol:Parcel",
								"label": "parcel_no",
								"offset": 0,
								"slot": "0",
								"type": "t_uint256"
							},
							{
								"astId": 5,
								"contract": "contracts/Parcel.sol:Parcel",
								"label": "owner_name",
								"offset": 0,
								"slot": "1",
								"type": "t_string_storage"
							},
							{
								"astId": 7,
								"contract": "contracts/Parcel.sol:Parcel",
								"label": "price",
								"offset": 0,
								"slot": "2",
								"type": "t_uint256"
							},
							{
								"astId": 9,
								"contract": "contracts/Parcel.sol:Parcel",
								"label": "area",
								"offset": 0,
								"slot": "3",
								"type": "t_uint256"
							}
						],
						"numberOfBytes": "128"
					},
					"t_uint256": {
						"encoding": "inplace",
						"label": "uint256",
						"numberOfBytes": "32"
					}
				}
			},
			"userdoc": {
				"kind": "user",
				"methods": {},
				"version": 1
			}
		}
	}
}