{
	"contracts/Parcel.sol": {
		"Parcel": {
			"abi": [
				{
					"inputs": [],
					"stateMutability": "nonpayable",
					"type": "constructor"
				},
				{
					"inputs": [
						{
							"internalType": "uint256",
							"name": "parcel_no",
							"type": "uint256"
						},
						{
							"internalType": "string",
							"name": "owner_name",
							"type": "string"
						},
						{
							"internalType": "uint256",
							"name": "price",
							"type": "uint256"
						},
						{
							"internalType": "uint256",
							"name": "area",
							"type": "uint256"
						}
					],
					"name": "createParcel",
					"outputs": [],
					"stateMutability": "payable",
					"type": "function"
				},
				{
					"inputs": [],
					"name": "getOlgt",
					"outputs": [
						{
							"components": [
								{
									"internalType": "string",
									"name": "olgt_name",
									"type": "string"
								},
								{
									"internalType": "uint256",
									"name": "olgt_price",
									"type": "uint256"
								}
							],
							"internalType": "struct Olgt",
							"name": "olgt",
							"type": "tuple"
						}
					],
					"stateMutability": "view",
					"type": "function"
				},
				{
					"inputs": [],
					"name": "getParcel",
					"outputs": [
						{
							"components": [
								{
									"internalType": "uint256",
									"name": "parcel_no",
									"type": "uint256"
								},
								{
									"internalType": "string",
									"name": "owner_name",
									"type": "string"
								},
								{
									"internalType": "uint256",
									"name": "price",
									"type": "uint256"
								},
								{
									"internalType": "uint256",
									"name": "area",
									"type": "uint256"
								}
							],
							"internalType": "struct Parcel_land",
							"name": "parcel_land",
							"type": "tuple"
						}
					],
					"stateMutability": "view",
					"type": "function"
				},
				{
					"inputs": [
						{
							"internalType": "string",
							"name": "owner_name",
							"type": "string"
						},
						{
							"internalType": "uint256",
							"name": "price",
							"type": "uint256"
						}
					],
					"name": "mortgage",
					"outputs": [],
					"stateMutability": "nonpayable",
					"type": "function"
				}
			],
			"devdoc": {
				"kind": "dev",
				"methods": {},
				"version": 1
			},
			"evm": {
				"assembly": "    /* \"contracts/Parcel.sol\":265:2018  contract Parcel {\r... */\n  mstore(0x40, 0x80)\n    /* \"contracts/Parcel.sol\":394:445  constructor() {\r... */\n  callvalue\n  dup1\n  iszero\n  tag_1\n  jumpi\n  0x00\n  dup1\n  revert\ntag_1:\n  pop\n    /* \"contracts/Parcel.sol\":427:437  msg.sender */\n  caller\n    /* \"contracts/Parcel.sol\":419:424  owner */\n  0x00\n  dup1\n    /* \"contracts/Parcel.sol\":419:437  owner = msg.sender */\n  0x0100\n  exp\n  dup2\n  sload\n  dup2\n  0xffffffffffffffffffffffffffffffffffffffff\n  mul\n  not\n  and\n  swap1\n  dup4\n  0xffffffffffffffffffffffffffffffffffffffff\n  and\n  mul\n  or\n  swap1\n  sstore\n  pop\n    /* \"contracts/Parcel.sol\":265:2018  contract Parcel {\r... */\n  dataSize(sub_0)\n  dup1\n  dataOffset(sub_0)\n  0x00\n  codecopy\n  0x00\n  return\nstop\n\nsub_0: assembly {\n        /* \"contracts/Parcel.sol\":265:2018  contract Parcel {\r... */\n      mstore(0x40, 0x80)\n      jumpi(tag_1, lt(calldatasize, 0x04))\n      shr(0xe0, calldataload(0x00))\n      dup1\n      0x466911e6\n      eq\n      tag_2\n      jumpi\n      dup1\n      0x4854e056\n      eq\n      tag_3\n      jumpi\n      dup1\n      0xbfd6843d\n      eq\n      tag_4\n      jumpi\n      dup1\n      0xf4fe8b10\n      eq\n      tag_5\n      jumpi\n    tag_1:\n      0x00\n      dup1\n      revert\n        /* \"contracts/Parcel.sol\":954:1073  function getParcel() public view returns (Parcel_land memory parcel_land) {\r... */\n    tag_2:\n      callvalue\n      dup1\n      iszero\n      tag_6\n      jumpi\n      0x00\n      dup1\n      revert\n    tag_6:\n      pop\n      tag_7\n      tag_8\n      jump\t// in\n    tag_7:\n      mload(0x40)\n      tag_9\n      swap2\n      swap1\n      tag_10\n      jump\t// in\n    tag_9:\n      mload(0x40)\n      dup1\n      swap2\n      sub\n      swap1\n      return\n        /* \"contracts/Parcel.sol\":648:946  function createParcel(uint parcel_no, string memory owner_name, uint price, uint area) public payable {\r... */\n    tag_3:\n      tag_11\n      0x04\n      dup1\n      calldatasize\n      sub\n      dup2\n      add\n      swap1\n      tag_12\n      swap2\n      swap1\n      tag_13\n      jump\t// in\n    tag_12:\n      tag_14\n      jump\t// in\n    tag_11:\n      stop\n        /* \"contracts/Parcel.sol\":1310:1532  function mortgage(string memory owner_name, uint price) isOwner public  {\r... */\n    tag_4:\n      callvalue\n      dup1\n      iszero\n      tag_15\n      jumpi\n      0x00\n      dup1\n      revert\n    tag_15:\n      pop\n      tag_16\n      0x04\n      dup1\n      calldatasize\n      sub\n      dup2\n      add\n      swap1\n      tag_17\n      swap2\n      swap1\n      tag_18\n      jump\t// in\n    tag_17:\n      tag_19\n      jump\t// in\n    tag_16:\n      stop\n        /* \"contracts/Parcel.sol\":1081:1177  function getOlgt() public view returns (Olgt memory olgt) {\r... */\n    tag_5:\n      callvalue\n      dup1\n      iszero\n      tag_20\n      jumpi\n      0x00\n      dup1\n      revert\n    tag_20:\n      pop\n      tag_21\n      tag_22\n      jump\t// in\n    tag_21:\n      mload(0x40)\n      tag_23\n      swap2\n      swap1\n      tag_24\n      jump\t// in\n    tag_23:\n      mload(0x40)\n      dup1\n      swap2\n      sub\n      swap1\n      return\n        /* \"contracts/Parcel.sol\":954:1073  function getParcel() public view returns (Parcel_land memory parcel_land) {\r... */\n    tag_8:\n        /* \"contracts/Parcel.sol\":996:1026  Parcel_land memory parcel_land */\n      tag_25\n      tag_26\n      jump\t// in\n    tag_25:\n        /* \"contracts/Parcel.sol\":1046:1058  _parcel_land */\n      0x01\n        /* \"contracts/Parcel.sol\":1046:1065  _parcel_land[owner] */\n      0x00\n        /* \"contracts/Parcel.sol\":1059:1064  owner */\n      dup1\n      0x00\n      swap1\n      sload\n      swap1\n      0x0100\n      exp\n      swap1\n      div\n      0xffffffffffffffffffffffffffffffffffffffff\n      and\n        /* \"contracts/Parcel.sol\":1046:1065  _parcel_land[owner] */\n      0xffffffffffffffffffffffffffffffffffffffff\n      and\n      0xffffffffffffffffffffffffffffffffffffffff\n      and\n      dup2\n      mstore\n      0x20\n      add\n      swap1\n      dup2\n      mstore\n      0x20\n      add\n      0x00\n      keccak256\n        /* \"contracts/Parcel.sol\":1039:1065  return _parcel_land[owner] */\n      mload(0x40)\n      dup1\n      0x80\n      add\n      0x40\n      mstore\n      swap1\n      dup2\n      0x00\n      dup3\n      add\n      sload\n      dup2\n      mstore\n      0x20\n      add\n      0x01\n      dup3\n      add\n      dup1\n      sload\n      tag_28\n      swap1\n      tag_29\n      jump\t// in\n    tag_28:\n      dup1\n      0x1f\n      add\n      0x20\n      dup1\n      swap2\n      div\n      mul\n      0x20\n      add\n      mload(0x40)\n      swap1\n      dup2\n      add\n      0x40\n      mstore\n      dup1\n      swap3\n      swap2\n      swap1\n      dup2\n      dup2\n      mstore\n      0x20\n      add\n      dup3\n      dup1\n      sload\n      tag_30\n      swap1\n      tag_29\n      jump\t// in\n    tag_30:\n      dup1\n      iszero\n      tag_31\n      jumpi\n      dup1\n      0x1f\n      lt\n      tag_32\n      jumpi\n      0x0100\n      dup1\n      dup4\n      sload\n      div\n      mul\n      dup4\n      mstore\n      swap2\n      0x20\n      add\n      swap2\n      jump(tag_31)\n    tag_32:\n      dup3\n      add\n      swap2\n      swap1\n      0x00\n      mstore\n      keccak256(0x00, 0x20)\n      swap1\n    tag_33:\n      dup2\n      sload\n      dup2\n      mstore\n      swap1\n      0x01\n      add\n      swap1\n      0x20\n      add\n      dup1\n      dup4\n      gt\n      tag_33\n      jumpi\n      dup3\n      swap1\n      sub\n      0x1f\n      and\n      dup3\n      add\n      swap2\n    tag_31:\n      pop\n      pop\n      pop\n      pop\n      pop\n      dup2\n      mstore\n      0x20\n      add\n      0x02\n      dup3\n      add\n      sload\n      dup2\n      mstore\n      0x20\n      add\n      0x03\n      dup3\n      add\n      sload\n      dup2\n      mstore\n      pop\n      pop\n      swap1\n      pop\n        /* \"contracts/Parcel.sol\":954:1073  function getParcel() public view returns (Parcel_land memory parcel_land) {\r... */\n      swap1\n      jump\t// out\n        /* \"contracts/Parcel.sol\":648:946  function createParcel(uint parcel_no, string memory owner_name, uint price, uint area) public payable {\r... */\n    tag_14:\n        /* \"contracts/Parcel.sol\":792:801  parcel_no */\n      dup4\n        /* \"contracts/Parcel.sol\":760:772  _parcel_land */\n      0x01\n        /* \"contracts/Parcel.sol\":760:779  _parcel_land[owner] */\n      0x00\n        /* \"contracts/Parcel.sol\":773:778  owner */\n      dup1\n      0x00\n      swap1\n      sload\n      swap1\n      0x0100\n      exp\n      swap1\n      div\n      0xffffffffffffffffffffffffffffffffffffffff\n      and\n        /* \"contracts/Parcel.sol\":760:779  _parcel_land[owner] */\n      0xffffffffffffffffffffffffffffffffffffffff\n      and\n      0xffffffffffffffffffffffffffffffffffffffff\n      and\n      dup2\n      mstore\n      0x20\n      add\n      swap1\n      dup2\n      mstore\n      0x20\n      add\n      0x00\n      keccak256\n        /* \"contracts/Parcel.sol\":760:789  _parcel_land[owner].parcel_no */\n      0x00\n      add\n        /* \"contracts/Parcel.sol\":760:801  _parcel_land[owner].parcel_no = parcel_no */\n      dup2\n      swap1\n      sstore\n      pop\n        /* \"contracts/Parcel.sol\":844:854  owner_name */\n      dup3\n        /* \"contracts/Parcel.sol\":811:823  _parcel_land */\n      0x01\n        /* \"contracts/Parcel.sol\":811:830  _parcel_land[owner] */\n      0x00\n        /* \"contracts/Parcel.sol\":824:829  owner */\n      dup1\n      0x00\n      swap1\n      sload\n      swap1\n      0x0100\n      exp\n      swap1\n      div\n      0xffffffffffffffffffffffffffffffffffffffff\n      and\n        /* \"contracts/Parcel.sol\":811:830  _parcel_land[owner] */\n      0xffffffffffffffffffffffffffffffffffffffff\n      and\n      0xffffffffffffffffffffffffffffffffffffffff\n      and\n      dup2\n      mstore\n      0x20\n      add\n      swap1\n      dup2\n      mstore\n      0x20\n      add\n      0x00\n      keccak256\n        /* \"contracts/Parcel.sol\":811:841  _parcel_land[owner].owner_name */\n      0x01\n      add\n        /* \"contracts/Parcel.sol\":811:854  _parcel_land[owner].owner_name = owner_name */\n      swap1\n      dup1\n      mload\n      swap1\n      0x20\n      add\n      swap1\n      tag_35\n      swap3\n      swap2\n      swap1\n      tag_36\n      jump\t// in\n    tag_35:\n      pop\n        /* \"contracts/Parcel.sol\":892:897  price */\n      dup2\n        /* \"contracts/Parcel.sol\":864:876  _parcel_land */\n      0x01\n        /* \"contracts/Parcel.sol\":864:883  _parcel_land[owner] */\n      0x00\n        /* \"contracts/Parcel.sol\":877:882  owner */\n      dup1\n      0x00\n      swap1\n      sload\n      swap1\n      0x0100\n      exp\n      swap1\n      div\n      0xffffffffffffffffffffffffffffffffffffffff\n      and\n        /* \"contracts/Parcel.sol\":864:883  _parcel_land[owner] */\n      0xffffffffffffffffffffffffffffffffffffffff\n      and\n      0xffffffffffffffffffffffffffffffffffffffff\n      and\n      dup2\n      mstore\n      0x20\n      add\n      swap1\n      dup2\n      mstore\n      0x20\n      add\n      0x00\n      keccak256\n        /* \"contracts/Parcel.sol\":864:889  _parcel_land[owner].price */\n      0x02\n      add\n        /* \"contracts/Parcel.sol\":864:897  _parcel_land[owner].price = price */\n      dup2\n      swap1\n      sstore\n      pop\n        /* \"contracts/Parcel.sol\":934:938  area */\n      dup1\n        /* \"contracts/Parcel.sol\":907:919  _parcel_land */\n      0x01\n        /* \"contracts/Parcel.sol\":907:926  _parcel_land[owner] */\n      0x00\n        /* \"contracts/Parcel.sol\":920:925  owner */\n      dup1\n      0x00\n      swap1\n      sload\n      swap1\n      0x0100\n      exp\n      swap1\n      div\n      0xffffffffffffffffffffffffffffffffffffffff\n      and\n        /* \"contracts/Parcel.sol\":907:926  _parcel_land[owner] */\n      0xffffffffffffffffffffffffffffffffffffffff\n      and\n      0xffffffffffffffffffffffffffffffffffffffff\n      and\n      dup2\n      mstore\n      0x20\n      add\n      swap1\n      dup2\n      mstore\n      0x20\n      add\n      0x00\n      keccak256\n        /* \"contracts/Parcel.sol\":907:931  _parcel_land[owner].area */\n      0x03\n      add\n        /* \"contracts/Parcel.sol\":907:938  _parcel_land[owner].area = area */\n      dup2\n      swap1\n      sstore\n      pop\n        /* \"contracts/Parcel.sol\":648:946  function createParcel(uint parcel_no, string memory owner_name, uint price, uint area) public payable {\r... */\n      pop\n      pop\n      pop\n      pop\n      jump\t// out\n        /* \"contracts/Parcel.sol\":1310:1532  function mortgage(string memory owner_name, uint price) isOwner public  {\r... */\n    tag_19:\n        /* \"contracts/Parcel.sol\":503:508  owner */\n      0x00\n      dup1\n      sload\n      swap1\n      0x0100\n      exp\n      swap1\n      div\n      0xffffffffffffffffffffffffffffffffffffffff\n      and\n        /* \"contracts/Parcel.sol\":489:508  msg.sender == owner */\n      0xffffffffffffffffffffffffffffffffffffffff\n      and\n        /* \"contracts/Parcel.sol\":489:499  msg.sender */\n      caller\n        /* \"contracts/Parcel.sol\":489:508  msg.sender == owner */\n      0xffffffffffffffffffffffffffffffffffffffff\n      and\n      eq\n        /* \"contracts/Parcel.sol\":481:538  require(msg.sender == owner, \"You are not parcel owner.\") */\n      tag_38\n      jumpi\n      mload(0x40)\n      0x08c379a000000000000000000000000000000000000000000000000000000000\n      dup2\n      mstore\n      0x04\n      add\n      tag_39\n      swap1\n      tag_40\n      jump\t// in\n    tag_39:\n      mload(0x40)\n      dup1\n      swap2\n      sub\n      swap1\n      revert\n    tag_38:\n        /* \"contracts/Parcel.sol\":1426:1436  owner_name */\n      dup2\n        /* \"contracts/Parcel.sol\":1393:1405  _parcel_land */\n      0x01\n        /* \"contracts/Parcel.sol\":1393:1412  _parcel_land[owner] */\n      0x00\n        /* \"contracts/Parcel.sol\":1406:1411  owner */\n      dup1\n      0x00\n      swap1\n      sload\n      swap1\n      0x0100\n      exp\n      swap1\n      div\n      0xffffffffffffffffffffffffffffffffffffffff\n      and\n        /* \"contracts/Parcel.sol\":1393:1412  _parcel_land[owner] */\n      0xffffffffffffffffffffffffffffffffffffffff\n      and\n      0xffffffffffffffffffffffffffffffffffffffff\n      and\n      dup2\n      mstore\n      0x20\n      add\n      swap1\n      dup2\n      mstore\n      0x20\n      add\n      0x00\n      keccak256\n        /* \"contracts/Parcel.sol\":1393:1423  _parcel_land[owner].owner_name */\n      0x01\n      add\n        /* \"contracts/Parcel.sol\":1393:1436  _parcel_land[owner].owner_name = owner_name */\n      swap1\n      dup1\n      mload\n      swap1\n      0x20\n      add\n      swap1\n      tag_42\n      swap3\n      swap2\n      swap1\n      tag_36\n      jump\t// in\n    tag_42:\n      pop\n        /* \"contracts/Parcel.sol\":1472:1482  owner_name */\n      dup2\n        /* \"contracts/Parcel.sol\":1447:1452  _olgt */\n      0x02\n        /* \"contracts/Parcel.sol\":1447:1459  _olgt[owner] */\n      0x00\n        /* \"contracts/Parcel.sol\":1453:1458  owner */\n      dup1\n      0x00\n      swap1\n      sload\n      swap1\n      0x0100\n      exp\n      swap1\n      div\n      0xffffffffffffffffffffffffffffffffffffffff\n      and\n        /* \"contracts/Parcel.sol\":1447:1459  _olgt[owner] */\n      0xffffffffffffffffffffffffffffffffffffffff\n      and\n      0xffffffffffffffffffffffffffffffffffffffff\n      and\n      dup2\n      mstore\n      0x20\n      add\n      swap1\n      dup2\n      mstore\n      0x20\n      add\n      0x00\n      keccak256\n        /* \"contracts/Parcel.sol\":1447:1469  _olgt[owner].olgt_name */\n      0x00\n      add\n        /* \"contracts/Parcel.sol\":1447:1482  _olgt[owner].olgt_name = owner_name */\n      swap1\n      dup1\n      mload\n      swap1\n      0x20\n      add\n      swap1\n      tag_43\n      swap3\n      swap2\n      swap1\n      tag_36\n      jump\t// in\n    tag_43:\n      pop\n        /* \"contracts/Parcel.sol\":1519:1524  price */\n      dup1\n        /* \"contracts/Parcel.sol\":1493:1498  _olgt */\n      0x02\n        /* \"contracts/Parcel.sol\":1493:1505  _olgt[owner] */\n      0x00\n        /* \"contracts/Parcel.sol\":1499:1504  owner */\n      dup1\n      0x00\n      swap1\n      sload\n      swap1\n      0x0100\n      exp\n      swap1\n      div\n      0xffffffffffffffffffffffffffffffffffffffff\n      and\n        /* \"contracts/Parcel.sol\":1493:1505  _olgt[owner] */\n      0xffffffffffffffffffffffffffffffffffffffff\n      and\n      0xffffffffffffffffffffffffffffffffffffffff\n      and\n      dup2\n      mstore\n      0x20\n      add\n      swap1\n      dup2\n      mstore\n      0x20\n      add\n      0x00\n      keccak256\n        /* \"contracts/Parcel.sol\":1493:1516  _olgt[owner].olgt_price */\n      0x01\n      add\n        /* \"contracts/Parcel.sol\":1493:1524  _olgt[owner].olgt_price = price */\n      dup2\n      swap1\n      sstore\n      pop\n        /* \"contracts/Parcel.sol\":1310:1532  function mortgage(string memory owner_name, uint price) isOwner public  {\r... */\n      pop\n      pop\n      jump\t// out\n        /* \"contracts/Parcel.sol\":1081:1177  function getOlgt() public view returns (Olgt memory olgt) {\r... */\n    tag_22:\n        /* \"contracts/Parcel.sol\":1121:1137  Olgt memory olgt */\n      tag_44\n      tag_45\n      jump\t// in\n    tag_44:\n        /* \"contracts/Parcel.sol\":1157:1162  _olgt */\n      0x02\n        /* \"contracts/Parcel.sol\":1157:1169  _olgt[owner] */\n      0x00\n        /* \"contracts/Parcel.sol\":1163:1168  owner */\n      dup1\n      0x00\n      swap1\n      sload\n      swap1\n      0x0100\n      exp\n      swap1\n      div\n      0xffffffffffffffffffffffffffffffffffffffff\n      and\n        /* \"contracts/Parcel.sol\":1157:1169  _olgt[owner] */\n      0xffffffffffffffffffffffffffffffffffffffff\n      and\n      0xffffffffffffffffffffffffffffffffffffffff\n      and\n      dup2\n      mstore\n      0x20\n      add\n      swap1\n      dup2\n      mstore\n      0x20\n      add\n      0x00\n      keccak256\n        /* \"contracts/Parcel.sol\":1150:1169  return _olgt[owner] */\n      mload(0x40)\n      dup1\n      0x40\n      add\n      0x40\n      mstore\n      swap1\n      dup2\n      0x00\n      dup3\n      add\n      dup1\n      sload\n      tag_47\n      swap1\n      tag_29\n      jump\t// in\n    tag_47:\n      dup1\n      0x1f\n      add\n      0x20\n      dup1\n      swap2\n      div\n      mul\n      0x20\n      add\n      mload(0x40)\n      swap1\n      dup2\n      add\n      0x40\n      mstore\n      dup1\n      swap3\n      swap2\n      swap1\n      dup2\n      dup2\n      mstore\n      0x20\n      add\n      dup3\n      dup1\n      sload\n      tag_48\n      swap1\n      tag_29\n      jump\t// in\n    tag_48:\n      dup1\n      iszero\n      tag_49\n      jumpi\n      dup1\n      0x1f\n      lt\n      tag_50\n      jumpi\n      0x0100\n      dup1\n      dup4\n      sload\n      div\n      mul\n      dup4\n      mstore\n      swap2\n      0x20\n      add\n      swap2\n      jump(tag_49)\n    tag_50:\n      dup3\n      add\n      swap2\n      swap1\n      0x00\n      mstore\n      keccak256(0x00, 0x20)\n      swap1\n    tag_51:\n      dup2\n      sload\n      dup2\n      mstore\n      swap1\n      0x01\n      add\n      swap1\n      0x20\n      add\n      dup1\n      dup4\n      gt\n      tag_51\n      jumpi\n      dup3\n      swap1\n      sub\n      0x1f\n      and\n      dup3\n      add\n      swap2\n    tag_49:\n      pop\n      pop\n      pop\n      pop\n      pop\n      dup2\n      mstore\n      0x20\n      add\n      0x01\n      dup3\n      add\n      sload\n      dup2\n      mstore\n      pop\n      pop\n      swap1\n      pop\n        /* \"contracts/Parcel.sol\":1081:1177  function getOlgt() public view returns (Olgt memory olgt) {\r... */\n      swap1\n      jump\t// out\n    tag_26:\n      mload(0x40)\n      dup1\n      0x80\n      add\n      0x40\n      mstore\n      dup1\n      0x00\n      dup2\n      mstore\n      0x20\n      add\n      0x60\n      dup2\n      mstore\n      0x20\n      add\n      0x00\n      dup2\n      mstore\n      0x20\n      add\n      0x00\n      dup2\n      mstore\n      pop\n      swap1\n      jump\t// out\n    tag_36:\n      dup3\n      dup1\n      sload\n      tag_52\n      swap1\n      tag_29\n      jump\t// in\n    tag_52:\n      swap1\n      0x00\n      mstore\n      keccak256(0x00, 0x20)\n      swap1\n      0x1f\n      add\n      0x20\n      swap1\n      div\n      dup2\n      add\n      swap3\n      dup3\n      tag_54\n      jumpi\n      0x00\n      dup6\n      sstore\n      jump(tag_53)\n    tag_54:\n      dup3\n      0x1f\n      lt\n      tag_55\n      jumpi\n      dup1\n      mload\n      not(0xff)\n      and\n      dup4\n      dup1\n      add\n      or\n      dup6\n      sstore\n      jump(tag_53)\n    tag_55:\n      dup3\n      dup1\n      add\n      0x01\n      add\n      dup6\n      sstore\n      dup3\n      iszero\n      tag_53\n      jumpi\n      swap2\n      dup3\n      add\n    tag_56:\n      dup3\n      dup2\n      gt\n      iszero\n      tag_57\n      jumpi\n      dup3\n      mload\n      dup3\n      sstore\n      swap2\n      0x20\n      add\n      swap2\n      swap1\n      0x01\n      add\n      swap1\n      jump(tag_56)\n    tag_57:\n    tag_53:\n      pop\n      swap1\n      pop\n      tag_58\n      swap2\n      swap1\n      tag_59\n      jump\t// in\n    tag_58:\n      pop\n      swap1\n      jump\t// out\n    tag_45:\n      mload(0x40)\n      dup1\n      0x40\n      add\n      0x40\n      mstore\n      dup1\n      0x60\n      dup2\n      mstore\n      0x20\n      add\n      0x00\n      dup2\n      mstore\n      pop\n      swap1\n      jump\t// out\n    tag_59:\n    tag_60:\n      dup1\n      dup3\n      gt\n      iszero\n      tag_61\n      jumpi\n      0x00\n      dup2\n      0x00\n      swap1\n      sstore\n      pop\n      0x01\n      add\n      jump(tag_60)\n    tag_61:\n      pop\n      swap1\n      jump\t// out\n        /* \"#utility.yul\":7:419   */\n    tag_63:\n        /* \"#utility.yul\":85:90   */\n      0x00\n        /* \"#utility.yul\":110:176   */\n      tag_65\n        /* \"#utility.yul\":126:175   */\n      tag_66\n        /* \"#utility.yul\":168:174   */\n      dup5\n        /* \"#utility.yul\":126:175   */\n      tag_67\n      jump\t// in\n    tag_66:\n        /* \"#utility.yul\":110:176   */\n      tag_68\n      jump\t// in\n    tag_65:\n        /* \"#utility.yul\":101:176   */\n      swap1\n      pop\n        /* \"#utility.yul\":199:205   */\n      dup3\n        /* \"#utility.yul\":192:197   */\n      dup2\n        /* \"#utility.yul\":185:206   */\n      mstore\n        /* \"#utility.yul\":237:241   */\n      0x20\n        /* \"#utility.yul\":230:235   */\n      dup2\n        /* \"#utility.yul\":226:242   */\n      add\n        /* \"#utility.yul\":275:278   */\n      dup5\n        /* \"#utility.yul\":266:272   */\n      dup5\n        /* \"#utility.yul\":261:264   */\n      dup5\n        /* \"#utility.yul\":257:273   */\n      add\n        /* \"#utility.yul\":254:279   */\n      gt\n        /* \"#utility.yul\":251:363   */\n      iszero\n      tag_69\n      jumpi\n        /* \"#utility.yul\":282:361   */\n      tag_70\n      tag_71\n      jump\t// in\n    tag_70:\n        /* \"#utility.yul\":251:363   */\n    tag_69:\n        /* \"#utility.yul\":372:413   */\n      tag_72\n        /* \"#utility.yul\":406:412   */\n      dup5\n        /* \"#utility.yul\":401:404   */\n      dup3\n        /* \"#utility.yul\":396:399   */\n      dup6\n        /* \"#utility.yul\":372:413   */\n      tag_73\n      jump\t// in\n    tag_72:\n        /* \"#utility.yul\":91:419   */\n      pop\n        /* \"#utility.yul\":7:419   */\n      swap4\n      swap3\n      pop\n      pop\n      pop\n      jump\t// out\n        /* \"#utility.yul\":439:779   */\n    tag_74:\n        /* \"#utility.yul\":495:500   */\n      0x00\n        /* \"#utility.yul\":544:547   */\n      dup3\n        /* \"#utility.yul\":537:541   */\n      0x1f\n        /* \"#utility.yul\":529:535   */\n      dup4\n        /* \"#utility.yul\":525:542   */\n      add\n        /* \"#utility.yul\":521:548   */\n      slt\n        /* \"#utility.yul\":511:633   */\n      tag_76\n      jumpi\n        /* \"#utility.yul\":552:631   */\n      tag_77\n      tag_78\n      jump\t// in\n    tag_77:\n        /* \"#utility.yul\":511:633   */\n    tag_76:\n        /* \"#utility.yul\":669:675   */\n      dup2\n        /* \"#utility.yul\":656:676   */\n      calldataload\n        /* \"#utility.yul\":694:773   */\n      tag_79\n        /* \"#utility.yul\":769:772   */\n      dup5\n        /* \"#utility.yul\":761:767   */\n      dup3\n        /* \"#utility.yul\":754:758   */\n      0x20\n        /* \"#utility.yul\":746:752   */\n      dup7\n        /* \"#utility.yul\":742:759   */\n      add\n        /* \"#utility.yul\":694:773   */\n      tag_63\n      jump\t// in\n    tag_79:\n        /* \"#utility.yul\":685:773   */\n      swap2\n      pop\n        /* \"#utility.yul\":501:779   */\n      pop\n        /* \"#utility.yul\":439:779   */\n      swap3\n      swap2\n      pop\n      pop\n      jump\t// out\n        /* \"#utility.yul\":785:924   */\n    tag_80:\n        /* \"#utility.yul\":831:836   */\n      0x00\n        /* \"#utility.yul\":869:875   */\n      dup2\n        /* \"#utility.yul\":856:876   */\n      calldataload\n        /* \"#utility.yul\":847:876   */\n      swap1\n      pop\n        /* \"#utility.yul\":885:918   */\n      tag_82\n        /* \"#utility.yul\":912:917   */\n      dup2\n        /* \"#utility.yul\":885:918   */\n      tag_83\n      jump\t// in\n    tag_82:\n        /* \"#utility.yul\":785:924   */\n      swap3\n      swap2\n      pop\n      pop\n      jump\t// out\n        /* \"#utility.yul\":930:1584   */\n    tag_18:\n        /* \"#utility.yul\":1008:1014   */\n      0x00\n        /* \"#utility.yul\":1016:1022   */\n      dup1\n        /* \"#utility.yul\":1065:1067   */\n      0x40\n        /* \"#utility.yul\":1053:1062   */\n      dup4\n        /* \"#utility.yul\":1044:1051   */\n      dup6\n        /* \"#utility.yul\":1040:1063   */\n      sub\n        /* \"#utility.yul\":1036:1068   */\n      slt\n        /* \"#utility.yul\":1033:1152   */\n      iszero\n      tag_85\n      jumpi\n        /* \"#utility.yul\":1071:1150   */\n      tag_86\n      tag_87\n      jump\t// in\n    tag_86:\n        /* \"#utility.yul\":1033:1152   */\n    tag_85:\n        /* \"#utility.yul\":1219:1220   */\n      0x00\n        /* \"#utility.yul\":1208:1217   */\n      dup4\n        /* \"#utility.yul\":1204:1221   */\n      add\n        /* \"#utility.yul\":1191:1222   */\n      calldataload\n        /* \"#utility.yul\":1249:1267   */\n      0xffffffffffffffff\n        /* \"#utility.yul\":1241:1247   */\n      dup2\n        /* \"#utility.yul\":1238:1268   */\n      gt\n        /* \"#utility.yul\":1235:1352   */\n      iszero\n      tag_88\n      jumpi\n        /* \"#utility.yul\":1271:1350   */\n      tag_89\n      tag_90\n      jump\t// in\n    tag_89:\n        /* \"#utility.yul\":1235:1352   */\n    tag_88:\n        /* \"#utility.yul\":1376:1439   */\n      tag_91\n        /* \"#utility.yul\":1431:1438   */\n      dup6\n        /* \"#utility.yul\":1422:1428   */\n      dup3\n        /* \"#utility.yul\":1411:1420   */\n      dup7\n        /* \"#utility.yul\":1407:1429   */\n      add\n        /* \"#utility.yul\":1376:1439   */\n      tag_74\n      jump\t// in\n    tag_91:\n        /* \"#utility.yul\":1366:1439   */\n      swap3\n      pop\n        /* \"#utility.yul\":1162:1449   */\n      pop\n        /* \"#utility.yul\":1488:1490   */\n      0x20\n        /* \"#utility.yul\":1514:1567   */\n      tag_92\n        /* \"#utility.yul\":1559:1566   */\n      dup6\n        /* \"#utility.yul\":1550:1556   */\n      dup3\n        /* \"#utility.yul\":1539:1548   */\n      dup7\n        /* \"#utility.yul\":1535:1557   */\n      add\n        /* \"#utility.yul\":1514:1567   */\n      tag_80\n      jump\t// in\n    tag_92:\n        /* \"#utility.yul\":1504:1567   */\n      swap2\n      pop\n        /* \"#utility.yul\":1459:1577   */\n      pop\n        /* \"#utility.yul\":930:1584   */\n      swap3\n      pop\n      swap3\n      swap1\n      pop\n      jump\t// out\n        /* \"#utility.yul\":1590:2535   */\n    tag_13:\n        /* \"#utility.yul\":1686:1692   */\n      0x00\n        /* \"#utility.yul\":1694:1700   */\n      dup1\n        /* \"#utility.yul\":1702:1708   */\n      0x00\n        /* \"#utility.yul\":1710:1716   */\n      dup1\n        /* \"#utility.yul\":1759:1762   */\n      0x80\n        /* \"#utility.yul\":1747:1756   */\n      dup6\n        /* \"#utility.yul\":1738:1745   */\n      dup8\n        /* \"#utility.yul\":1734:1757   */\n      sub\n        /* \"#utility.yul\":1730:1763   */\n      slt\n        /* \"#utility.yul\":1727:1847   */\n      iszero\n      tag_94\n      jumpi\n        /* \"#utility.yul\":1766:1845   */\n      tag_95\n      tag_87\n      jump\t// in\n    tag_95:\n        /* \"#utility.yul\":1727:1847   */\n    tag_94:\n        /* \"#utility.yul\":1886:1887   */\n      0x00\n        /* \"#utility.yul\":1911:1964   */\n      tag_96\n        /* \"#utility.yul\":1956:1963   */\n      dup8\n        /* \"#utility.yul\":1947:1953   */\n      dup3\n        /* \"#utility.yul\":1936:1945   */\n      dup9\n        /* \"#utility.yul\":1932:1954   */\n      add\n        /* \"#utility.yul\":1911:1964   */\n      tag_80\n      jump\t// in\n    tag_96:\n        /* \"#utility.yul\":1901:1964   */\n      swap5\n      pop\n        /* \"#utility.yul\":1857:1974   */\n      pop\n        /* \"#utility.yul\":2041:2043   */\n      0x20\n        /* \"#utility.yul\":2030:2039   */\n      dup6\n        /* \"#utility.yul\":2026:2044   */\n      add\n        /* \"#utility.yul\":2013:2045   */\n      calldataload\n        /* \"#utility.yul\":2072:2090   */\n      0xffffffffffffffff\n        /* \"#utility.yul\":2064:2070   */\n      dup2\n        /* \"#utility.yul\":2061:2091   */\n      gt\n        /* \"#utility.yul\":2058:2175   */\n      iszero\n      tag_97\n      jumpi\n        /* \"#utility.yul\":2094:2173   */\n      tag_98\n      tag_90\n      jump\t// in\n    tag_98:\n        /* \"#utility.yul\":2058:2175   */\n    tag_97:\n        /* \"#utility.yul\":2199:2262   */\n      tag_99\n        /* \"#utility.yul\":2254:2261   */\n      dup8\n        /* \"#utility.yul\":2245:2251   */\n      dup3\n        /* \"#utility.yul\":2234:2243   */\n      dup9\n        /* \"#utility.yul\":2230:2252   */\n      add\n        /* \"#utility.yul\":2199:2262   */\n      tag_74\n      jump\t// in\n    tag_99:\n        /* \"#utility.yul\":2189:2262   */\n      swap4\n      pop\n        /* \"#utility.yul\":1984:2272   */\n      pop\n        /* \"#utility.yul\":2311:2313   */\n      0x40\n        /* \"#utility.yul\":2337:2390   */\n      tag_100\n        /* \"#utility.yul\":2382:2389   */\n      dup8\n        /* \"#utility.yul\":2373:2379   */\n      dup3\n        /* \"#utility.yul\":2362:2371   */\n      dup9\n        /* \"#utility.yul\":2358:2380   */\n      add\n        /* \"#utility.yul\":2337:2390   */\n      tag_80\n      jump\t// in\n    tag_100:\n        /* \"#utility.yul\":2327:2390   */\n      swap3\n      pop\n        /* \"#utility.yul\":2282:2400   */\n      pop\n        /* \"#utility.yul\":2439:2441   */\n      0x60\n        /* \"#utility.yul\":2465:2518   */\n      tag_101\n        /* \"#utility.yul\":2510:2517   */\n      dup8\n        /* \"#utility.yul\":2501:2507   */\n      dup3\n        /* \"#utility.yul\":2490:2499   */\n      dup9\n        /* \"#utility.yul\":2486:2508   */\n      add\n        /* \"#utility.yul\":2465:2518   */\n      tag_80\n      jump\t// in\n    tag_101:\n        /* \"#utility.yul\":2455:2518   */\n      swap2\n      pop\n        /* \"#utility.yul\":2410:2528   */\n      pop\n        /* \"#utility.yul\":1590:2535   */\n      swap3\n      swap6\n      swap2\n      swap5\n      pop\n      swap3\n      pop\n      jump\t// out\n        /* \"#utility.yul\":2541:2885   */\n    tag_102:\n        /* \"#utility.yul\":2619:2622   */\n      0x00\n        /* \"#utility.yul\":2647:2686   */\n      tag_104\n        /* \"#utility.yul\":2680:2685   */\n      dup3\n        /* \"#utility.yul\":2647:2686   */\n      tag_105\n      jump\t// in\n    tag_104:\n        /* \"#utility.yul\":2702:2763   */\n      tag_106\n        /* \"#utility.yul\":2756:2762   */\n      dup2\n        /* \"#utility.yul\":2751:2754   */\n      dup6\n        /* \"#utility.yul\":2702:2763   */\n      tag_107\n      jump\t// in\n    tag_106:\n        /* \"#utility.yul\":2695:2763   */\n      swap4\n      pop\n        /* \"#utility.yul\":2772:2824   */\n      tag_108\n        /* \"#utility.yul\":2817:2823   */\n      dup2\n        /* \"#utility.yul\":2812:2815   */\n      dup6\n        /* \"#utility.yul\":2805:2809   */\n      0x20\n        /* \"#utility.yul\":2798:2803   */\n      dup7\n        /* \"#utility.yul\":2794:2810   */\n      add\n        /* \"#utility.yul\":2772:2824   */\n      tag_109\n      jump\t// in\n    tag_108:\n        /* \"#utility.yul\":2849:2878   */\n      tag_110\n        /* \"#utility.yul\":2871:2877   */\n      dup2\n        /* \"#utility.yul\":2849:2878   */\n      tag_111\n      jump\t// in\n    tag_110:\n        /* \"#utility.yul\":2844:2847   */\n      dup5\n        /* \"#utility.yul\":2840:2879   */\n      add\n        /* \"#utility.yul\":2833:2879   */\n      swap2\n      pop\n        /* \"#utility.yul\":2623:2885   */\n      pop\n        /* \"#utility.yul\":2541:2885   */\n      swap3\n      swap2\n      pop\n      pop\n      jump\t// out\n        /* \"#utility.yul\":2891:3257   */\n    tag_112:\n        /* \"#utility.yul\":3033:3036   */\n      0x00\n        /* \"#utility.yul\":3054:3121   */\n      tag_114\n        /* \"#utility.yul\":3118:3120   */\n      0x19\n        /* \"#utility.yul\":3113:3116   */\n      dup4\n        /* \"#utility.yul\":3054:3121   */\n      tag_115\n      jump\t// in\n    tag_114:\n        /* \"#utility.yul\":3047:3121   */\n      swap2\n      pop\n        /* \"#utility.yul\":3130:3223   */\n      tag_116\n        /* \"#utility.yul\":3219:3222   */\n      dup3\n        /* \"#utility.yul\":3130:3223   */\n      tag_117\n      jump\t// in\n    tag_116:\n        /* \"#utility.yul\":3248:3250   */\n      0x20\n        /* \"#utility.yul\":3243:3246   */\n      dup3\n        /* \"#utility.yul\":3239:3251   */\n      add\n        /* \"#utility.yul\":3232:3251   */\n      swap1\n      pop\n        /* \"#utility.yul\":2891:3257   */\n      swap2\n      swap1\n      pop\n      jump\t// out\n        /* \"#utility.yul\":3297:3904   */\n    tag_118:\n        /* \"#utility.yul\":3406:3409   */\n      0x00\n        /* \"#utility.yul\":3442:3446   */\n      0x40\n        /* \"#utility.yul\":3437:3440   */\n      dup4\n        /* \"#utility.yul\":3433:3447   */\n      add\n        /* \"#utility.yul\":3534:3538   */\n      0x00\n        /* \"#utility.yul\":3527:3532   */\n      dup4\n        /* \"#utility.yul\":3523:3539   */\n      add\n        /* \"#utility.yul\":3517:3540   */\n      mload\n        /* \"#utility.yul\":3587:3590   */\n      dup5\n        /* \"#utility.yul\":3581:3585   */\n      dup3\n        /* \"#utility.yul\":3577:3591   */\n      sub\n        /* \"#utility.yul\":3570:3574   */\n      0x00\n        /* \"#utility.yul\":3565:3568   */\n      dup7\n        /* \"#utility.yul\":3561:3575   */\n      add\n        /* \"#utility.yul\":3554:3592   */\n      mstore\n        /* \"#utility.yul\":3613:3686   */\n      tag_120\n        /* \"#utility.yul\":3681:3685   */\n      dup3\n        /* \"#utility.yul\":3667:3679   */\n      dup3\n        /* \"#utility.yul\":3613:3686   */\n      tag_102\n      jump\t// in\n    tag_120:\n        /* \"#utility.yul\":3605:3686   */\n      swap2\n      pop\n        /* \"#utility.yul\":3457:3697   */\n      pop\n        /* \"#utility.yul\":3785:3789   */\n      0x20\n        /* \"#utility.yul\":3778:3783   */\n      dup4\n        /* \"#utility.yul\":3774:3790   */\n      add\n        /* \"#utility.yul\":3768:3791   */\n      mload\n        /* \"#utility.yul\":3804:3867   */\n      tag_121\n        /* \"#utility.yul\":3861:3865   */\n      0x20\n        /* \"#utility.yul\":3856:3859   */\n      dup7\n        /* \"#utility.yul\":3852:3866   */\n      add\n        /* \"#utility.yul\":3838:3850   */\n      dup3\n        /* \"#utility.yul\":3804:3867   */\n      tag_122\n      jump\t// in\n    tag_121:\n        /* \"#utility.yul\":3707:3877   */\n      pop\n        /* \"#utility.yul\":3894:3898   */\n      dup1\n        /* \"#utility.yul\":3887:3898   */\n      swap2\n      pop\n        /* \"#utility.yul\":3411:3904   */\n      pop\n        /* \"#utility.yul\":3297:3904   */\n      swap3\n      swap2\n      pop\n      pop\n      jump\t// out\n        /* \"#utility.yul\":3958:4928   */\n    tag_123:\n        /* \"#utility.yul\":4081:4084   */\n      0x00\n        /* \"#utility.yul\":4117:4121   */\n      0x80\n        /* \"#utility.yul\":4112:4115   */\n      dup4\n        /* \"#utility.yul\":4108:4122   */\n      add\n        /* \"#utility.yul\":4209:4213   */\n      0x00\n        /* \"#utility.yul\":4202:4207   */\n      dup4\n        /* \"#utility.yul\":4198:4214   */\n      add\n        /* \"#utility.yul\":4192:4215   */\n      mload\n        /* \"#utility.yul\":4228:4291   */\n      tag_125\n        /* \"#utility.yul\":4285:4289   */\n      0x00\n        /* \"#utility.yul\":4280:4283   */\n      dup7\n        /* \"#utility.yul\":4276:4290   */\n      add\n        /* \"#utility.yul\":4262:4274   */\n      dup3\n        /* \"#utility.yul\":4228:4291   */\n      tag_122\n      jump\t// in\n    tag_125:\n        /* \"#utility.yul\":4132:4301   */\n      pop\n        /* \"#utility.yul\":4389:4393   */\n      0x20\n        /* \"#utility.yul\":4382:4387   */\n      dup4\n        /* \"#utility.yul\":4378:4394   */\n      add\n        /* \"#utility.yul\":4372:4395   */\n      mload\n        /* \"#utility.yul\":4442:4445   */\n      dup5\n        /* \"#utility.yul\":4436:4440   */\n      dup3\n        /* \"#utility.yul\":4432:4446   */\n      sub\n        /* \"#utility.yul\":4425:4429   */\n      0x20\n        /* \"#utility.yul\":4420:4423   */\n      dup7\n        /* \"#utility.yul\":4416:4430   */\n      add\n        /* \"#utility.yul\":4409:4447   */\n      mstore\n        /* \"#utility.yul\":4468:4541   */\n      tag_126\n        /* \"#utility.yul\":4536:4540   */\n      dup3\n        /* \"#utility.yul\":4522:4534   */\n      dup3\n        /* \"#utility.yul\":4468:4541   */\n      tag_102\n      jump\t// in\n    tag_126:\n        /* \"#utility.yul\":4460:4541   */\n      swap2\n      pop\n        /* \"#utility.yul\":4311:4552   */\n      pop\n        /* \"#utility.yul\":4635:4639   */\n      0x40\n        /* \"#utility.yul\":4628:4633   */\n      dup4\n        /* \"#utility.yul\":4624:4640   */\n      add\n        /* \"#utility.yul\":4618:4641   */\n      mload\n        /* \"#utility.yul\":4654:4717   */\n      tag_127\n        /* \"#utility.yul\":4711:4715   */\n      0x40\n        /* \"#utility.yul\":4706:4709   */\n      dup7\n        /* \"#utility.yul\":4702:4716   */\n      add\n        /* \"#utility.yul\":4688:4700   */\n      dup3\n        /* \"#utility.yul\":4654:4717   */\n      tag_122\n      jump\t// in\n    tag_127:\n        /* \"#utility.yul\":4562:4727   */\n      pop\n        /* \"#utility.yul\":4809:4813   */\n      0x60\n        /* \"#utility.yul\":4802:4807   */\n      dup4\n        /* \"#utility.yul\":4798:4814   */\n      add\n        /* \"#utility.yul\":4792:4815   */\n      mload\n        /* \"#utility.yul\":4828:4891   */\n      tag_128\n        /* \"#utility.yul\":4885:4889   */\n      0x60\n        /* \"#utility.yul\":4880:4883   */\n      dup7\n        /* \"#utility.yul\":4876:4890   */\n      add\n        /* \"#utility.yul\":4862:4874   */\n      dup3\n        /* \"#utility.yul\":4828:4891   */\n      tag_122\n      jump\t// in\n    tag_128:\n        /* \"#utility.yul\":4737:4901   */\n      pop\n        /* \"#utility.yul\":4918:4922   */\n      dup1\n        /* \"#utility.yul\":4911:4922   */\n      swap2\n      pop\n        /* \"#utility.yul\":4086:4928   */\n      pop\n        /* \"#utility.yul\":3958:4928   */\n      swap3\n      swap2\n      pop\n      pop\n      jump\t// out\n        /* \"#utility.yul\":4934:5042   */\n    tag_122:\n        /* \"#utility.yul\":5011:5035   */\n      tag_130\n        /* \"#utility.yul\":5029:5034   */\n      dup2\n        /* \"#utility.yul\":5011:5035   */\n      tag_131\n      jump\t// in\n    tag_130:\n        /* \"#utility.yul\":5006:5009   */\n      dup3\n        /* \"#utility.yul\":4999:5036   */\n      mstore\n        /* \"#utility.yul\":4934:5042   */\n      pop\n      pop\n      jump\t// out\n        /* \"#utility.yul\":5048:5467   */\n    tag_40:\n        /* \"#utility.yul\":5214:5218   */\n      0x00\n        /* \"#utility.yul\":5252:5254   */\n      0x20\n        /* \"#utility.yul\":5241:5250   */\n      dup3\n        /* \"#utility.yul\":5237:5255   */\n      add\n        /* \"#utility.yul\":5229:5255   */\n      swap1\n      pop\n        /* \"#utility.yul\":5301:5310   */\n      dup2\n        /* \"#utility.yul\":5295:5299   */\n      dup2\n        /* \"#utility.yul\":5291:5311   */\n      sub\n        /* \"#utility.yul\":5287:5288   */\n      0x00\n        /* \"#utility.yul\":5276:5285   */\n      dup4\n        /* \"#utility.yul\":5272:5289   */\n      add\n        /* \"#utility.yul\":5265:5312   */\n      mstore\n        /* \"#utility.yul\":5329:5460   */\n      tag_133\n        /* \"#utility.yul\":5455:5459   */\n      dup2\n        /* \"#utility.yul\":5329:5460   */\n      tag_112\n      jump\t// in\n    tag_133:\n        /* \"#utility.yul\":5321:5460   */\n      swap1\n      pop\n        /* \"#utility.yul\":5048:5467   */\n      swap2\n      swap1\n      pop\n      jump\t// out\n        /* \"#utility.yul\":5473:5826   */\n    tag_24:\n        /* \"#utility.yul\":5606:5610   */\n      0x00\n        /* \"#utility.yul\":5644:5646   */\n      0x20\n        /* \"#utility.yul\":5633:5642   */\n      dup3\n        /* \"#utility.yul\":5629:5647   */\n      add\n        /* \"#utility.yul\":5621:5647   */\n      swap1\n      pop\n        /* \"#utility.yul\":5693:5702   */\n      dup2\n        /* \"#utility.yul\":5687:5691   */\n      dup2\n        /* \"#utility.yul\":5683:5703   */\n      sub\n        /* \"#utility.yul\":5679:5680   */\n      0x00\n        /* \"#utility.yul\":5668:5677   */\n      dup4\n        /* \"#utility.yul\":5664:5681   */\n      add\n        /* \"#utility.yul\":5657:5704   */\n      mstore\n        /* \"#utility.yul\":5721:5819   */\n      tag_135\n        /* \"#utility.yul\":5814:5818   */\n      dup2\n        /* \"#utility.yul\":5805:5811   */\n      dup5\n        /* \"#utility.yul\":5721:5819   */\n      tag_118\n      jump\t// in\n    tag_135:\n        /* \"#utility.yul\":5713:5819   */\n      swap1\n      pop\n        /* \"#utility.yul\":5473:5826   */\n      swap3\n      swap2\n      pop\n      pop\n      jump\t// out\n        /* \"#utility.yul\":5832:6213   */\n    tag_10:\n        /* \"#utility.yul\":5979:5983   */\n      0x00\n        /* \"#utility.yul\":6017:6019   */\n      0x20\n        /* \"#utility.yul\":6006:6015   */\n      dup3\n        /* \"#utility.yul\":6002:6020   */\n      add\n        /* \"#utility.yul\":5994:6020   */\n      swap1\n      pop\n        /* \"#utility.yul\":6066:6075   */\n      dup2\n        /* \"#utility.yul\":6060:6064   */\n      dup2\n        /* \"#utility.yul\":6056:6076   */\n      sub\n        /* \"#utility.yul\":6052:6053   */\n      0x00\n        /* \"#utility.yul\":6041:6050   */\n      dup4\n        /* \"#utility.yul\":6037:6054   */\n      add\n        /* \"#utility.yul\":6030:6077   */\n      mstore\n        /* \"#utility.yul\":6094:6206   */\n      tag_137\n        /* \"#utility.yul\":6201:6205   */\n      dup2\n        /* \"#utility.yul\":6192:6198   */\n      dup5\n        /* \"#utility.yul\":6094:6206   */\n      tag_123\n      jump\t// in\n    tag_137:\n        /* \"#utility.yul\":6086:6206   */\n      swap1\n      pop\n        /* \"#utility.yul\":5832:6213   */\n      swap3\n      swap2\n      pop\n      pop\n      jump\t// out\n        /* \"#utility.yul\":6219:6348   */\n    tag_68:\n        /* \"#utility.yul\":6253:6259   */\n      0x00\n        /* \"#utility.yul\":6280:6300   */\n      tag_139\n      tag_140\n      jump\t// in\n    tag_139:\n        /* \"#utility.yul\":6270:6300   */\n      swap1\n      pop\n        /* \"#utility.yul\":6309:6342   */\n      tag_141\n        /* \"#utility.yul\":6337:6341   */\n      dup3\n        /* \"#utility.yul\":6329:6335   */\n      dup3\n        /* \"#utility.yul\":6309:6342   */\n      tag_142\n      jump\t// in\n    tag_141:\n        /* \"#utility.yul\":6219:6348   */\n      swap2\n      swap1\n      pop\n      jump\t// out\n        /* \"#utility.yul\":6354:6429   */\n    tag_140:\n        /* \"#utility.yul\":6387:6393   */\n      0x00\n        /* \"#utility.yul\":6420:6422   */\n      0x40\n        /* \"#utility.yul\":6414:6423   */\n      mload\n        /* \"#utility.yul\":6404:6423   */\n      swap1\n      pop\n        /* \"#utility.yul\":6354:6429   */\n      swap1\n      jump\t// out\n        /* \"#utility.yul\":6435:6743   */\n    tag_67:\n        /* \"#utility.yul\":6497:6501   */\n      0x00\n        /* \"#utility.yul\":6587:6605   */\n      0xffffffffffffffff\n        /* \"#utility.yul\":6579:6585   */\n      dup3\n        /* \"#utility.yul\":6576:6606   */\n      gt\n        /* \"#utility.yul\":6573:6629   */\n      iszero\n      tag_145\n      jumpi\n        /* \"#utility.yul\":6609:6627   */\n      tag_146\n      tag_147\n      jump\t// in\n    tag_146:\n        /* \"#utility.yul\":6573:6629   */\n    tag_145:\n        /* \"#utility.yul\":6647:6676   */\n      tag_148\n        /* \"#utility.yul\":6669:6675   */\n      dup3\n        /* \"#utility.yul\":6647:6676   */\n      tag_111\n      jump\t// in\n    tag_148:\n        /* \"#utility.yul\":6639:6676   */\n      swap1\n      pop\n        /* \"#utility.yul\":6731:6735   */\n      0x20\n        /* \"#utility.yul\":6725:6729   */\n      dup2\n        /* \"#utility.yul\":6721:6736   */\n      add\n        /* \"#utility.yul\":6713:6736   */\n      swap1\n      pop\n        /* \"#utility.yul\":6435:6743   */\n      swap2\n      swap1\n      pop\n      jump\t// out\n        /* \"#utility.yul\":6749:6848   */\n    tag_105:\n        /* \"#utility.yul\":6801:6807   */\n      0x00\n        /* \"#utility.yul\":6835:6840   */\n      dup2\n        /* \"#utility.yul\":6829:6841   */\n      mload\n        /* \"#utility.yul\":6819:6841   */\n      swap1\n      pop\n        /* \"#utility.yul\":6749:6848   */\n      swap2\n      swap1\n      pop\n      jump\t// out\n        /* \"#utility.yul\":6854:7013   */\n    tag_107:\n        /* \"#utility.yul\":6928:6939   */\n      0x00\n        /* \"#utility.yul\":6962:6968   */\n      dup3\n        /* \"#utility.yul\":6957:6960   */\n      dup3\n        /* \"#utility.yul\":6950:6969   */\n      mstore\n        /* \"#utility.yul\":7002:7006   */\n      0x20\n        /* \"#utility.yul\":6997:7000   */\n      dup3\n        /* \"#utility.yul\":6993:7007   */\n      add\n        /* \"#utility.yul\":6978:7007   */\n      swap1\n      pop\n        /* \"#utility.yul\":6854:7013   */\n      swap3\n      swap2\n      pop\n      pop\n      jump\t// out\n        /* \"#utility.yul\":7019:7188   */\n    tag_115:\n        /* \"#utility.yul\":7103:7114   */\n      0x00\n        /* \"#utility.yul\":7137:7143   */\n      dup3\n        /* \"#utility.yul\":7132:7135   */\n      dup3\n        /* \"#utility.yul\":7125:7144   */\n      mstore\n        /* \"#utility.yul\":7177:7181   */\n      0x20\n        /* \"#utility.yul\":7172:7175   */\n      dup3\n        /* \"#utility.yul\":7168:7182   */\n      add\n        /* \"#utility.yul\":7153:7182   */\n      swap1\n      pop\n        /* \"#utility.yul\":7019:7188   */\n      swap3\n      swap2\n      pop\n      pop\n      jump\t// out\n        /* \"#utility.yul\":7194:7271   */\n    tag_131:\n        /* \"#utility.yul\":7231:7238   */\n      0x00\n        /* \"#utility.yul\":7260:7265   */\n      dup2\n        /* \"#utility.yul\":7249:7265   */\n      swap1\n      pop\n        /* \"#utility.yul\":7194:7271   */\n      swap2\n      swap1\n      pop\n      jump\t// out\n        /* \"#utility.yul\":7277:7431   */\n    tag_73:\n        /* \"#utility.yul\":7361:7367   */\n      dup3\n        /* \"#utility.yul\":7356:7359   */\n      dup2\n        /* \"#utility.yul\":7351:7354   */\n      dup4\n        /* \"#utility.yul\":7338:7368   */\n      calldatacopy\n        /* \"#utility.yul\":7423:7424   */\n      0x00\n        /* \"#utility.yul\":7414:7420   */\n      dup4\n        /* \"#utility.yul\":7409:7412   */\n      dup4\n        /* \"#utility.yul\":7405:7421   */\n      add\n        /* \"#utility.yul\":7398:7425   */\n      mstore\n        /* \"#utility.yul\":7277:7431   */\n      pop\n      pop\n      pop\n      jump\t// out\n        /* \"#utility.yul\":7437:7744   */\n    tag_109:\n        /* \"#utility.yul\":7505:7506   */\n      0x00\n        /* \"#utility.yul\":7515:7628   */\n    tag_155:\n        /* \"#utility.yul\":7529:7535   */\n      dup4\n        /* \"#utility.yul\":7526:7527   */\n      dup2\n        /* \"#utility.yul\":7523:7536   */\n      lt\n        /* \"#utility.yul\":7515:7628   */\n      iszero\n      tag_157\n      jumpi\n        /* \"#utility.yul\":7614:7615   */\n      dup1\n        /* \"#utility.yul\":7609:7612   */\n      dup3\n        /* \"#utility.yul\":7605:7616   */\n      add\n        /* \"#utility.yul\":7599:7617   */\n      mload\n        /* \"#utility.yul\":7595:7596   */\n      dup2\n        /* \"#utility.yul\":7590:7593   */\n      dup5\n        /* \"#utility.yul\":7586:7597   */\n      add\n        /* \"#utility.yul\":7579:7618   */\n      mstore\n        /* \"#utility.yul\":7551:7553   */\n      0x20\n        /* \"#utility.yul\":7548:7549   */\n      dup2\n        /* \"#utility.yul\":7544:7554   */\n      add\n        /* \"#utility.yul\":7539:7554   */\n      swap1\n      pop\n        /* \"#utility.yul\":7515:7628   */\n      jump(tag_155)\n    tag_157:\n        /* \"#utility.yul\":7646:7652   */\n      dup4\n        /* \"#utility.yul\":7643:7644   */\n      dup2\n        /* \"#utility.yul\":7640:7653   */\n      gt\n        /* \"#utility.yul\":7637:7738   */\n      iszero\n      tag_158\n      jumpi\n        /* \"#utility.yul\":7726:7727   */\n      0x00\n        /* \"#utility.yul\":7717:7723   */\n      dup5\n        /* \"#utility.yul\":7712:7715   */\n      dup5\n        /* \"#utility.yul\":7708:7724   */\n      add\n        /* \"#utility.yul\":7701:7728   */\n      mstore\n        /* \"#utility.yul\":7637:7738   */\n    tag_158:\n        /* \"#utility.yul\":7486:7744   */\n      pop\n        /* \"#utility.yul\":7437:7744   */\n      pop\n      pop\n      pop\n      jump\t// out\n        /* \"#utility.yul\":7750:8070   */\n    tag_29:\n        /* \"#utility.yul\":7794:7800   */\n      0x00\n        /* \"#utility.yul\":7831:7832   */\n      0x02\n        /* \"#utility.yul\":7825:7829   */\n      dup3\n        /* \"#utility.yul\":7821:7833   */\n      div\n        /* \"#utility.yul\":7811:7833   */\n      swap1\n      pop\n        /* \"#utility.yul\":7878:7879   */\n      0x01\n        /* \"#utility.yul\":7872:7876   */\n      dup3\n        /* \"#utility.yul\":7868:7880   */\n      and\n        /* \"#utility.yul\":7899:7917   */\n      dup1\n        /* \"#utility.yul\":7889:7970   */\n      tag_160\n      jumpi\n        /* \"#utility.yul\":7955:7959   */\n      0x7f\n        /* \"#utility.yul\":7947:7953   */\n      dup3\n        /* \"#utility.yul\":7943:7960   */\n      and\n        /* \"#utility.yul\":7933:7960   */\n      swap2\n      pop\n        /* \"#utility.yul\":7889:7970   */\n    tag_160:\n        /* \"#utility.yul\":8017:8019   */\n      0x20\n        /* \"#utility.yul\":8009:8015   */\n      dup3\n        /* \"#utility.yul\":8006:8020   */\n      lt\n        /* \"#utility.yul\":7986:8004   */\n      dup2\n        /* \"#utility.yul\":7983:8021   */\n      eq\n        /* \"#utility.yul\":7980:8064   */\n      iszero\n      tag_161\n      jumpi\n        /* \"#utility.yul\":8036:8054   */\n      tag_162\n      tag_163\n      jump\t// in\n    tag_162:\n        /* \"#utility.yul\":7980:8064   */\n    tag_161:\n        /* \"#utility.yul\":7801:8070   */\n      pop\n        /* \"#utility.yul\":7750:8070   */\n      swap2\n      swap1\n      pop\n      jump\t// out\n        /* \"#utility.yul\":8076:8357   */\n    tag_142:\n        /* \"#utility.yul\":8159:8186   */\n      tag_165\n        /* \"#utility.yul\":8181:8185   */\n      dup3\n        /* \"#utility.yul\":8159:8186   */\n      tag_111\n      jump\t// in\n    tag_165:\n        /* \"#utility.yul\":8151:8157   */\n      dup2\n        /* \"#utility.yul\":8147:8187   */\n      add\n        /* \"#utility.yul\":8289:8295   */\n      dup2\n        /* \"#utility.yul\":8277:8287   */\n      dup2\n        /* \"#utility.yul\":8274:8296   */\n      lt\n        /* \"#utility.yul\":8253:8271   */\n      0xffffffffffffffff\n        /* \"#utility.yul\":8241:8251   */\n      dup3\n        /* \"#utility.yul\":8238:8272   */\n      gt\n        /* \"#utility.yul\":8235:8297   */\n      or\n        /* \"#utility.yul\":8232:8320   */\n      iszero\n      tag_166\n      jumpi\n        /* \"#utility.yul\":8300:8318   */\n      tag_167\n      tag_147\n      jump\t// in\n    tag_167:\n        /* \"#utility.yul\":8232:8320   */\n    tag_166:\n        /* \"#utility.yul\":8340:8350   */\n      dup1\n        /* \"#utility.yul\":8336:8338   */\n      0x40\n        /* \"#utility.yul\":8329:8351   */\n      mstore\n        /* \"#utility.yul\":8119:8357   */\n      pop\n        /* \"#utility.yul\":8076:8357   */\n      pop\n      pop\n      jump\t// out\n        /* \"#utility.yul\":8363:8543   */\n    tag_163:\n        /* \"#utility.yul\":8411:8488   */\n      0x4e487b7100000000000000000000000000000000000000000000000000000000\n        /* \"#utility.yul\":8408:8409   */\n      0x00\n        /* \"#utility.yul\":8401:8489   */\n      mstore\n        /* \"#utility.yul\":8508:8512   */\n      0x22\n        /* \"#utility.yul\":8505:8506   */\n      0x04\n        /* \"#utility.yul\":8498:8513   */\n      mstore\n        /* \"#utility.yul\":8532:8536   */\n      0x24\n        /* \"#utility.yul\":8529:8530   */\n      0x00\n        /* \"#utility.yul\":8522:8537   */\n      revert\n        /* \"#utility.yul\":8549:8729   */\n    tag_147:\n        /* \"#utility.yul\":8597:8674   */\n      0x4e487b7100000000000000000000000000000000000000000000000000000000\n        /* \"#utility.yul\":8594:8595   */\n      0x00\n        /* \"#utility.yul\":8587:8675   */\n      mstore\n        /* \"#utility.yul\":8694:8698   */\n      0x41\n        /* \"#utility.yul\":8691:8692   */\n      0x04\n        /* \"#utility.yul\":8684:8699   */\n      mstore\n        /* \"#utility.yul\":8718:8722   */\n      0x24\n        /* \"#utility.yul\":8715:8716   */\n      0x00\n        /* \"#utility.yul\":8708:8723   */\n      revert\n        /* \"#utility.yul\":8735:8852   */\n    tag_78:\n        /* \"#utility.yul\":8844:8845   */\n      0x00\n        /* \"#utility.yul\":8841:8842   */\n      dup1\n        /* \"#utility.yul\":8834:8846   */\n      revert\n        /* \"#utility.yul\":8858:8975   */\n    tag_71:\n        /* \"#utility.yul\":8967:8968   */\n      0x00\n        /* \"#utility.yul\":8964:8965   */\n      dup1\n        /* \"#utility.yul\":8957:8969   */\n      revert\n        /* \"#utility.yul\":8981:9098   */\n    tag_90:\n        /* \"#utility.yul\":9090:9091   */\n      0x00\n        /* \"#utility.yul\":9087:9088   */\n      dup1\n        /* \"#utility.yul\":9080:9092   */\n      revert\n        /* \"#utility.yul\":9104:9221   */\n    tag_87:\n        /* \"#utility.yul\":9213:9214   */\n      0x00\n        /* \"#utility.yul\":9210:9211   */\n      dup1\n        /* \"#utility.yul\":9203:9215   */\n      revert\n        /* \"#utility.yul\":9227:9329   */\n    tag_111:\n        /* \"#utility.yul\":9268:9274   */\n      0x00\n        /* \"#utility.yul\":9319:9321   */\n      0x1f\n        /* \"#utility.yul\":9315:9322   */\n      not\n        /* \"#utility.yul\":9310:9312   */\n      0x1f\n        /* \"#utility.yul\":9303:9308   */\n      dup4\n        /* \"#utility.yul\":9299:9313   */\n      add\n        /* \"#utility.yul\":9295:9323   */\n      and\n        /* \"#utility.yul\":9285:9323   */\n      swap1\n      pop\n        /* \"#utility.yul\":9227:9329   */\n      swap2\n      swap1\n      pop\n      jump\t// out\n        /* \"#utility.yul\":9335:9510   */\n    tag_117:\n        /* \"#utility.yul\":9475:9502   */\n      0x596f7520617265206e6f742070617263656c206f776e65722e00000000000000\n        /* \"#utility.yul\":9471:9472   */\n      0x00\n        /* \"#utility.yul\":9463:9469   */\n      dup3\n        /* \"#utility.yul\":9459:9473   */\n      add\n        /* \"#utility.yul\":9452:9503   */\n      mstore\n        /* \"#utility.yul\":9335:9510   */\n      pop\n      jump\t// out\n        /* \"#utility.yul\":9516:9638   */\n    tag_83:\n        /* \"#utility.yul\":9589:9613   */\n      tag_177\n        /* \"#utility.yul\":9607:9612   */\n      dup2\n        /* \"#utility.yul\":9589:9613   */\n      tag_131\n      jump\t// in\n    tag_177:\n        /* \"#utility.yul\":9582:9587   */\n      dup2\n        /* \"#utility.yul\":9579:9614   */\n      eq\n        /* \"#utility.yul\":9569:9632   */\n      tag_178\n      jumpi\n        /* \"#utility.yul\":9628:9629   */\n      0x00\n        /* \"#utility.yul\":9625:9626   */\n      dup1\n        /* \"#utility.yul\":9618:9630   */\n      revert\n        /* \"#utility.yul\":9569:9632   */\n    tag_178:\n        /* \"#utility.yul\":9516:9638   */\n      pop\n      jump\t// out\n\n    auxdata: 0xa2646970667358221220ad9ba7062c305ee390ba3bb2008324b72f72cfdb61c8ef8ff07634b5a14b505964736f6c63430008070033\n}\n",
				"bytecode": {
					"linkReferences": {},
					"object": "608060405234801561001057600080fd5b50336000806101000a81548173ffffffffffffffffffffffffffffffffffffffff021916908373ffffffffffffffffffffffffffffffffffffffff160217905550610c9e806100606000396000f3fe60806040526004361061003f5760003560e01c8063466911e6146100445780634854e0561461006f578063bfd6843d1461008b578063f4fe8b10146100b4575b600080fd5b34801561005057600080fd5b506100596100df565b6040516100669190610a51565b60405180910390f35b61008960048036038101906100849190610881565b610207565b005b34801561009757600080fd5b506100b260048036038101906100ad9190610825565b6103bd565b005b3480156100c057600080fd5b506100c96105a7565b6040516100d69190610a2f565b60405180910390f35b6100e76106bb565b600160008060009054906101000a900473ffffffffffffffffffffffffffffffffffffffff1673ffffffffffffffffffffffffffffffffffffffff1673ffffffffffffffffffffffffffffffffffffffff1681526020019081526020016000206040518060800160405290816000820154815260200160018201805461016c90610b42565b80601f016020809104026020016040519081016040528092919081815260200182805461019890610b42565b80156101e55780601f106101ba576101008083540402835291602001916101e5565b820191906000526020600020905b8154815290600101906020018083116101c857829003601f168201915b5050505050815260200160028201548152602001600382015481525050905090565b83600160008060009054906101000a900473ffffffffffffffffffffffffffffffffffffffff1673ffffffffffffffffffffffffffffffffffffffff1673ffffffffffffffffffffffffffffffffffffffff1681526020019081526020016000206000018190555082600160008060009054906101000a900473ffffffffffffffffffffffffffffffffffffffff1673ffffffffffffffffffffffffffffffffffffffff1673ffffffffffffffffffffffffffffffffffffffff16815260200190815260200160002060010190805190602001906102e69291906106e3565b5081600160008060009054906101000a900473ffffffffffffffffffffffffffffffffffffffff1673ffffffffffffffffffffffffffffffffffffffff1673ffffffffffffffffffffffffffffffffffffffff1681526020019081526020016000206002018190555080600160008060009054906101000a900473ffffffffffffffffffffffffffffffffffffffff1673ffffffffffffffffffffffffffffffffffffffff1673ffffffffffffffffffffffffffffffffffffffff1681526020019081526020016000206003018190555050505050565b60008054906101000a900473ffffffffffffffffffffffffffffffffffffffff1673ffffffffffffffffffffffffffffffffffffffff163373ffffffffffffffffffffffffffffffffffffffff161461044b576040517f08c379a000000000000000000000000000000000000000000000000000000000815260040161044290610a0f565b60405180910390fd5b81600160008060009054906101000a900473ffffffffffffffffffffffffffffffffffffffff1673ffffffffffffffffffffffffffffffffffffffff1673ffffffffffffffffffffffffffffffffffffffff16815260200190815260200160002060010190805190602001906104c29291906106e3565b5081600260008060009054906101000a900473ffffffffffffffffffffffffffffffffffffffff1673ffffffffffffffffffffffffffffffffffffffff1673ffffffffffffffffffffffffffffffffffffffff168152602001908152602001600020600001908051906020019061053a9291906106e3565b5080600260008060009054906101000a900473ffffffffffffffffffffffffffffffffffffffff1673ffffffffffffffffffffffffffffffffffffffff1673ffffffffffffffffffffffffffffffffffffffff168152602001908152602001600020600101819055505050565b6105af610769565b600260008060009054906101000a900473ffffffffffffffffffffffffffffffffffffffff1673ffffffffffffffffffffffffffffffffffffffff1673ffffffffffffffffffffffffffffffffffffffff16815260200190815260200160002060405180604001604052908160008201805461062a90610b42565b80601f016020809104026020016040519081016040528092919081815260200182805461065690610b42565b80156106a35780601f10610678576101008083540402835291602001916106a3565b820191906000526020600020905b81548152906001019060200180831161068657829003601f168201915b50505050508152602001600182015481525050905090565b6040518060800160405280600081526020016060815260200160008152602001600081525090565b8280546106ef90610b42565b90600052602060002090601f0160209004810192826107115760008555610758565b82601f1061072a57805160ff1916838001178555610758565b82800160010185558215610758579182015b8281111561075757825182559160200191906001019061073c565b5b5090506107659190610783565b5090565b604051806040016040528060608152602001600081525090565b5b8082111561079c576000816000905550600101610784565b5090565b60006107b36107ae84610a98565b610a73565b9050828152602081018484840111156107cf576107ce610c08565b5b6107da848285610b00565b509392505050565b600082601f8301126107f7576107f6610c03565b5b81356108078482602086016107a0565b91505092915050565b60008135905061081f81610c51565b92915050565b6000806040838503121561083c5761083b610c12565b5b600083013567ffffffffffffffff81111561085a57610859610c0d565b5b610866858286016107e2565b925050602061087785828601610810565b9150509250929050565b6000806000806080858703121561089b5761089a610c12565b5b60006108a987828801610810565b945050602085013567ffffffffffffffff8111156108ca576108c9610c0d565b5b6108d6878288016107e2565b93505060406108e787828801610810565b92505060606108f887828801610810565b91505092959194509250565b600061090f82610ac9565b6109198185610ad4565b9350610929818560208601610b0f565b61093281610c17565b840191505092915050565b600061094a601983610ae5565b915061095582610c28565b602082019050919050565b6000604083016000830151848203600086015261097d8282610904565b91505060208301516109926020860182610a00565b508091505092915050565b60006080830160008301516109b56000860182610a00565b50602083015184820360208601526109cd8282610904565b91505060408301516109e26040860182610a00565b5060608301516109f56060860182610a00565b508091505092915050565b610a0981610af6565b82525050565b60006020820190508181036000830152610a288161093d565b9050919050565b60006020820190508181036000830152610a498184610960565b905092915050565b60006020820190508181036000830152610a6b818461099d565b905092915050565b6000610a7d610a8e565b9050610a898282610b74565b919050565b6000604051905090565b600067ffffffffffffffff821115610ab357610ab2610bd4565b5b610abc82610c17565b9050602081019050919050565b600081519050919050565b600082825260208201905092915050565b600082825260208201905092915050565b6000819050919050565b82818337600083830152505050565b60005b83811015610b2d578082015181840152602081019050610b12565b83811115610b3c576000848401525b50505050565b60006002820490506001821680610b5a57607f821691505b60208210811415610b6e57610b6d610ba5565b5b50919050565b610b7d82610c17565b810181811067ffffffffffffffff82111715610b9c57610b9b610bd4565b5b80604052505050565b7f4e487b7100000000000000000000000000000000000000000000000000000000600052602260045260246000fd5b7f4e487b7100000000000000000000000000000000000000000000000000000000600052604160045260246000fd5b600080fd5b600080fd5b600080fd5b600080fd5b6000601f19601f8301169050919050565b7f596f7520617265206e6f742070617263656c206f776e65722e00000000000000600082015250565b610c5a81610af6565b8114610c6557600080fd5b5056fea2646970667358221220ad9ba7062c305ee390ba3bb2008324b72f72cfdb61c8ef8ff07634b5a14b505964736f6c63430008070033",
					"opcodes": "PUSH1 0x80 PUSH1 0x40 MSTORE CALLVALUE DUP1 ISZERO PUSH2 0x10 JUMPI PUSH1 0x0 DUP1 REVERT JUMPDEST POP CALLER PUSH1 0x0 DUP1 PUSH2 0x100 EXP DUP2 SLOAD DUP2 PUSH20 0xFFFFFFFFFFFFFFFFFFFFFFFFFFFFFFFFFFFFFFFF MUL NOT AND SWAP1 DUP4 PUSH20 0xFFFFFFFFFFFFFFFFFFFFFFFFFFFFFFFFFFFFFFFF AND MUL OR SWAP1 SSTORE POP PUSH2 0xC9E DUP1 PUSH2 0x60 PUSH1 0x0 CODECOPY PUSH1 0x0 RETURN INVALID PUSH1 0x80 PUSH1 0x40 MSTORE PUSH1 0x4 CALLDATASIZE LT PUSH2 0x3F JUMPI PUSH1 0x0 CALLDATALOAD PUSH1 0xE0 SHR DUP1 PUSH4 0x466911E6 EQ PUSH2 0x44 JUMPI DUP1 PUSH4 0x4854E056 EQ PUSH2 0x6F JUMPI DUP1 PUSH4 0xBFD6843D EQ PUSH2 0x8B JUMPI DUP1 PUSH4 0xF4FE8B10 EQ PUSH2 0xB4 JUMPI JUMPDEST PUSH1 0x0 DUP1 REVERT JUMPDEST CALLVALUE DUP1 ISZERO PUSH2 0x50 JUMPI PUSH1 0x0 DUP1 REVERT JUMPDEST POP PUSH2 0x59 PUSH2 0xDF JUMP JUMPDEST PUSH1 0x40 MLOAD PUSH2 0x66 SWAP2 SWAP1 PUSH2 0xA51 JUMP JUMPDEST PUSH1 0x40 MLOAD DUP1 SWAP2 SUB SWAP1 RETURN JUMPDEST PUSH2 0x89 PUSH1 0x4 DUP1 CALLDATASIZE SUB DUP2 ADD SWAP1 PUSH2 0x84 SWAP2 SWAP1 PUSH2 0x881 JUMP JUMPDEST PUSH2 0x207 JUMP JUMPDEST STOP JUMPDEST CALLVALUE DUP1 ISZERO PUSH2 0x97 JUMPI PUSH1 0x0 DUP1 REVERT JUMPDEST POP PUSH2 0xB2 PUSH1 0x4 DUP1 CALLDATASIZE SUB DUP2 ADD SWAP1 PUSH2 0xAD SWAP2 SWAP1 PUSH2 0x825 JUMP JUMPDEST PUSH2 0x3BD JUMP JUMPDEST STOP JUMPDEST CALLVALUE DUP1 ISZERO PUSH2 0xC0 JUMPI PUSH1 0x0 DUP1 REVERT JUMPDEST POP PUSH2 0xC9 PUSH2 0x5A7 JUMP JUMPDEST PUSH1 0x40 MLOAD PUSH2 0xD6 SWAP2 SWAP1 PUSH2 0xA2F JUMP JUMPDEST PUSH1 0x40 MLOAD DUP1 SWAP2 SUB SWAP1 RETURN JUMPDEST PUSH2 0xE7 PUSH2 0x6BB JUMP JUMPDEST PUSH1 0x1 PUSH1 0x0 DUP1 PUSH1 0x0 SWAP1 SLOAD SWAP1 PUSH2 0x100 EXP SWAP1 DIV PUSH20 0xFFFFFFFFFFFFFFFFFFFFFFFFFFFFFFFFFFFFFFFF AND PUSH20 0xFFFFFFFFFFFFFFFFFFFFFFFFFFFFFFFFFFFFFFFF AND PUSH20 0xFFFFFFFFFFFFFFFFFFFFFFFFFFFFFFFFFFFFFFFF AND DUP2 MSTORE PUSH1 0x20 ADD SWAP1 DUP2 MSTORE PUSH1 0x20 ADD PUSH1 0x0 KECCAK256 PUSH1 0x40 MLOAD DUP1 PUSH1 0x80 ADD PUSH1 0x40 MSTORE SWAP1 DUP2 PUSH1 0x0 DUP3 ADD SLOAD DUP2 MSTORE PUSH1 0x20 ADD PUSH1 0x1 DUP3 ADD DUP1 SLOAD PUSH2 0x16C SWAP1 PUSH2 0xB42 JUMP JUMPDEST DUP1 PUSH1 0x1F ADD PUSH1 0x20 DUP1 SWAP2 DIV MUL PUSH1 0x20 ADD PUSH1 0x40 MLOAD SWAP1 DUP2 ADD PUSH1 0x40 MSTORE DUP1 SWAP3 SWAP2 SWAP1 DUP2 DUP2 MSTORE PUSH1 0x20 ADD DUP3 DUP1 SLOAD PUSH2 0x198 SWAP1 PUSH2 0xB42 JUMP JUMPDEST DUP1 ISZERO PUSH2 0x1E5 JUMPI DUP1 PUSH1 0x1F LT PUSH2 0x1BA JUMPI PUSH2 0x100 DUP1 DUP4 SLOAD DIV MUL DUP4 MSTORE SWAP2 PUSH1 0x20 ADD SWAP2 PUSH2 0x1E5 JUMP JUMPDEST DUP3 ADD SWAP2 SWAP1 PUSH1 0x0 MSTORE PUSH1 0x20 PUSH1 0x0 KECCAK256 SWAP1 JUMPDEST DUP2 SLOAD DUP2 MSTORE SWAP1 PUSH1 0x1 ADD SWAP1 PUSH1 0x20 ADD DUP1 DUP4 GT PUSH2 0x1C8 JUMPI DUP3 SWAP1 SUB PUSH1 0x1F AND DUP3 ADD SWAP2 JUMPDEST POP POP POP POP POP DUP2 MSTORE PUSH1 0x20 ADD PUSH1 0x2 DUP3 ADD SLOAD DUP2 MSTORE PUSH1 0x20 ADD PUSH1 0x3 DUP3 ADD SLOAD DUP2 MSTORE POP POP SWAP1 POP SWAP1 JUMP JUMPDEST DUP4 PUSH1 0x1 PUSH1 0x0 DUP1 PUSH1 0x0 SWAP1 SLOAD SWAP1 PUSH2 0x100 EXP SWAP1 DIV PUSH20 0xFFFFFFFFFFFFFFFFFFFFFFFFFFFFFFFFFFFFFFFF AND PUSH20 0xFFFFFFFFFFFFFFFFFFFFFFFFFFFFFFFFFFFFFFFF AND PUSH20 0xFFFFFFFFFFFFFFFFFFFFFFFFFFFFFFFFFFFFFFFF AND DUP2 MSTORE PUSH1 0x20 ADD SWAP1 DUP2 MSTORE PUSH1 0x20 ADD PUSH1 0x0 KECCAK256 PUSH1 0x0 ADD DUP2 SWAP1 SSTORE POP DUP3 PUSH1 0x1 PUSH1 0x0 DUP1 PUSH1 0x0 SWAP1 SLOAD SWAP1 PUSH2 0x100 EXP SWAP1 DIV PUSH20 0xFFFFFFFFFFFFFFFFFFFFFFFFFFFFFFFFFFFFFFFF AND PUSH20 0xFFFFFFFFFFFFFFFFFFFFFFFFFFFFFFFFFFFFFFFF AND PUSH20 0xFFFFFFFFFFFFFFFFFFFFFFFFFFFFFFFFFFFFFFFF AND DUP2 MSTORE PUSH1 0x20 ADD SWAP1 DUP2 MSTORE PUSH1 0x20 ADD PUSH1 0x0 KECCAK256 PUSH1 0x1 ADD SWAP1 DUP1 MLOAD SWAP1 PUSH1 0x20 ADD SWAP1 PUSH2 0x2E6 SWAP3 SWAP2 SWAP1 PUSH2 0x6E3 JUMP JUMPDEST POP DUP2 PUSH1 0x1 PUSH1 0x0 DUP1 PUSH1 0x0 SWAP1 SLOAD SWAP1 PUSH2 0x100 EXP SWAP1 DIV PUSH20 0xFFFFFFFFFFFFFFFFFFFFFFFFFFFFFFFFFFFFFFFF AND PUSH20 0xFFFFFFFFFFFFFFFFFFFFFFFFFFFFFFFFFFFFFFFF AND PUSH20 0xFFFFFFFFFFFFFFFFFFFFFFFFFFFFFFFFFFFFFFFF AND DUP2 MSTORE PUSH1 0x20 ADD SWAP1 DUP2 MSTORE PUSH1 0x20 ADD PUSH1 0x0 KECCAK256 PUSH1 0x2 ADD DUP2 SWAP1 SSTORE POP DUP1 PUSH1 0x1 PUSH1 0x0 DUP1 PUSH1 0x0 SWAP1 SLOAD SWAP1 PUSH2 0x100 EXP SWAP1 DIV PUSH20 0xFFFFFFFFFFFFFFFFFFFFFFFFFFFFFFFFFFFFFFFF AND PUSH20 0xFFFFFFFFFFFFFFFFFFFFFFFFFFFFFFFFFFFFFFFF AND PUSH20 0xFFFFFFFFFFFFFFFFFFFFFFFFFFFFFFFFFFFFFFFF AND DUP2 MSTORE PUSH1 0x20 ADD SWAP1 DUP2 MSTORE PUSH1 0x20 ADD PUSH1 0x0 KECCAK256 PUSH1 0x3 ADD DUP2 SWAP1 SSTORE POP POP POP POP POP JUMP JUMPDEST PUSH1 0x0 DUP1 SLOAD SWAP1 PUSH2 0x100 EXP SWAP1 DIV PUSH20 0xFFFFFFFFFFFFFFFFFFFFFFFFFFFFFFFFFFFFFFFF AND PUSH20 0xFFFFFFFFFFFFFFFFFFFFFFFFFFFFFFFFFFFFFFFF AND CALLER PUSH20 0xFFFFFFFFFFFFFFFFFFFFFFFFFFFFFFFFFFFFFFFF AND EQ PUSH2 0x44B JUMPI PUSH1 0x40 MLOAD PUSH32 0x8C379A000000000000000000000000000000000000000000000000000000000 DUP2 MSTORE PUSH1 0x4 ADD PUSH2 0x442 SWAP1 PUSH2 0xA0F JUMP JUMPDEST PUSH1 0x40 MLOAD DUP1 SWAP2 SUB SWAP1 REVERT JUMPDEST DUP2 PUSH1 0x1 PUSH1 0x0 DUP1 PUSH1 0x0 SWAP1 SLOAD SWAP1 PUSH2 0x100 EXP SWAP1 DIV PUSH20 0xFFFFFFFFFFFFFFFFFFFFFFFFFFFFFFFFFFFFFFFF AND PUSH20 0xFFFFFFFFFFFFFFFFFFFFFFFFFFFFFFFFFFFFFFFF AND PUSH20 0xFFFFFFFFFFFFFFFFFFFFFFFFFFFFFFFFFFFFFFFF AND DUP2 MSTORE PUSH1 0x20 ADD SWAP1 DUP2 MSTORE PUSH1 0x20 ADD PUSH1 0x0 KECCAK256 PUSH1 0x1 ADD SWAP1 DUP1 MLOAD SWAP1 PUSH1 0x20 ADD SWAP1 PUSH2 0x4C2 SWAP3 SWAP2 SWAP1 PUSH2 0x6E3 JUMP JUMPDEST POP DUP2 PUSH1 0x2 PUSH1 0x0 DUP1 PUSH1 0x0 SWAP1 SLOAD SWAP1 PUSH2 0x100 EXP SWAP1 DIV PUSH20 0xFFFFFFFFFFFFFFFFFFFFFFFFFFFFFFFFFFFFFFFF AND PUSH20 0xFFFFFFFFFFFFFFFFFFFFFFFFFFFFFFFFFFFFFFFF AND PUSH20 0xFFFFFFFFFFFFFFFFFFFFFFFFFFFFFFFFFFFFFFFF AND DUP2 MSTORE PUSH1 0x20 ADD SWAP1 DUP2 MSTORE PUSH1 0x20 ADD PUSH1 0x0 KECCAK256 PUSH1 0x0 ADD SWAP1 DUP1 MLOAD SWAP1 PUSH1 0x20 ADD SWAP1 PUSH2 0x53A SWAP3 SWAP2 SWAP1 PUSH2 0x6E3 JUMP JUMPDEST POP DUP1 PUSH1 0x2 PUSH1 0x0 DUP1 PUSH1 0x0 SWAP1 SLOAD SWAP1 PUSH2 0x100 EXP SWAP1 DIV PUSH20 0xFFFFFFFFFFFFFFFFFFFFFFFFFFFFFFFFFFFFFFFF AND PUSH20 0xFFFFFFFFFFFFFFFFFFFFFFFFFFFFFFFFFFFFFFFF AND PUSH20 0xFFFFFFFFFFFFFFFFFFFFFFFFFFFFFFFFFFFFFFFF AND DUP2 MSTORE PUSH1 0x20 ADD SWAP1 DUP2 MSTORE PUSH1 0x20 ADD PUSH1 0x0 KECCAK256 PUSH1 0x1 ADD DUP2 SWAP1 SSTORE POP POP POP JUMP JUMPDEST PUSH2 0x5AF PUSH2 0x769 JUMP JUMPDEST PUSH1 0x2 PUSH1 0x0 DUP1 PUSH1 0x0 SWAP1 SLOAD SWAP1 PUSH2 0x100 EXP SWAP1 DIV PUSH20 0xFFFFFFFFFFFFFFFFFFFFFFFFFFFFFFFFFFFFFFFF AND PUSH20 0xFFFFFFFFFFFFFFFFFFFFFFFFFFFFFFFFFFFFFFFF AND PUSH20 0xFFFFFFFFFFFFFFFFFFFFFFFFFFFFFFFFFFFFFFFF AND DUP2 MSTORE PUSH1 0x20 ADD SWAP1 DUP2 MSTORE PUSH1 0x20 ADD PUSH1 0x0 KECCAK256 PUSH1 0x40 MLOAD DUP1 PUSH1 0x40 ADD PUSH1 0x40 MSTORE SWAP1 DUP2 PUSH1 0x0 DUP3 ADD DUP1 SLOAD PUSH2 0x62A SWAP1 PUSH2 0xB42 JUMP JUMPDEST DUP1 PUSH1 0x1F ADD PUSH1 0x20 DUP1 SWAP2 DIV MUL PUSH1 0x20 ADD PUSH1 0x40 MLOAD SWAP1 DUP2 ADD PUSH1 0x40 MSTORE DUP1 SWAP3 SWAP2 SWAP1 DUP2 DUP2 MSTORE PUSH1 0x20 ADD DUP3 DUP1 SLOAD PUSH2 0x656 SWAP1 PUSH2 0xB42 JUMP JUMPDEST DUP1 ISZERO PUSH2 0x6A3 JUMPI DUP1 PUSH1 0x1F LT PUSH2 0x678 JUMPI PUSH2 0x100 DUP1 DUP4 SLOAD DIV MUL DUP4 MSTORE SWAP2 PUSH1 0x20 ADD SWAP2 PUSH2 0x6A3 JUMP JUMPDEST DUP3 ADD SWAP2 SWAP1 PUSH1 0x0 MSTORE PUSH1 0x20 PUSH1 0x0 KECCAK256 SWAP1 JUMPDEST DUP2 SLOAD DUP2 MSTORE SWAP1 PUSH1 0x1 ADD SWAP1 PUSH1 0x20 ADD DUP1 DUP4 GT PUSH2 0x686 JUMPI DUP3 SWAP1 SUB PUSH1 0x1F AND DUP3 ADD SWAP2 JUMPDEST POP POP POP POP POP DUP2 MSTORE PUSH1 0x20 ADD PUSH1 0x1 DUP3 ADD SLOAD DUP2 MSTORE POP POP SWAP1 POP SWAP1 JUMP JUMPDEST PUSH1 0x40 MLOAD DUP1 PUSH1 0x80 ADD PUSH1 0x40 MSTORE DUP1 PUSH1 0x0 DUP2 MSTORE PUSH1 0x20 ADD PUSH1 0x60 DUP2 MSTORE PUSH1 0x20 ADD PUSH1 0x0 DUP2 MSTORE PUSH1 0x20 ADD PUSH1 0x0 DUP2 MSTORE POP SWAP1 JUMP JUMPDEST DUP3 DUP1 SLOAD PUSH2 0x6EF SWAP1 PUSH2 0xB42 JUMP JUMPDEST SWAP1 PUSH1 0x0 MSTORE PUSH1 0x20 PUSH1 0x0 KECCAK256 SWAP1 PUSH1 0x1F ADD PUSH1 0x20 SWAP1 DIV DUP2 ADD SWAP3 DUP3 PUSH2 0x711 JUMPI PUSH1 0x0 DUP6 SSTORE PUSH2 0x758 JUMP JUMPDEST DUP3 PUSH1 0x1F LT PUSH2 0x72A JUMPI DUP1 MLOAD PUSH1 0xFF NOT AND DUP4 DUP1 ADD OR DUP6 SSTORE PUSH2 0x758 JUMP JUMPDEST DUP3 DUP1 ADD PUSH1 0x1 ADD DUP6 SSTORE DUP3 ISZERO PUSH2 0x758 JUMPI SWAP2 DUP3 ADD JUMPDEST DUP3 DUP2 GT ISZERO PUSH2 0x757 JUMPI DUP3 MLOAD DUP3 SSTORE SWAP2 PUSH1 0x20 ADD SWAP2 SWAP1 PUSH1 0x1 ADD SWAP1 PUSH2 0x73C JUMP JUMPDEST JUMPDEST POP SWAP1 POP PUSH2 0x765 SWAP2 SWAP1 PUSH2 0x783 JUMP JUMPDEST POP SWAP1 JUMP JUMPDEST PUSH1 0x40 MLOAD DUP1 PUSH1 0x40 ADD PUSH1 0x40 MSTORE DUP1 PUSH1 0x60 DUP2 MSTORE PUSH1 0x20 ADD PUSH1 0x0 DUP2 MSTORE POP SWAP1 JUMP JUMPDEST JUMPDEST DUP1 DUP3 GT ISZERO PUSH2 0x79C JUMPI PUSH1 0x0 DUP2 PUSH1 0x0 SWAP1 SSTORE POP PUSH1 0x1 ADD PUSH2 0x784 JUMP JUMPDEST POP SWAP1 JUMP JUMPDEST PUSH1 0x0 PUSH2 0x7B3 PUSH2 0x7AE DUP5 PUSH2 0xA98 JUMP JUMPDEST PUSH2 0xA73 JUMP JUMPDEST SWAP1 POP DUP3 DUP2 MSTORE PUSH1 0x20 DUP2 ADD DUP5 DUP5 DUP5 ADD GT ISZERO PUSH2 0x7CF JUMPI PUSH2 0x7CE PUSH2 0xC08 JUMP JUMPDEST JUMPDEST PUSH2 0x7DA DUP5 DUP3 DUP6 PUSH2 0xB00 JUMP JUMPDEST POP SWAP4 SWAP3 POP POP POP JUMP JUMPDEST PUSH1 0x0 DUP3 PUSH1 0x1F DUP4 ADD SLT PUSH2 0x7F7 JUMPI PUSH2 0x7F6 PUSH2 0xC03 JUMP JUMPDEST JUMPDEST DUP2 CALLDATALOAD PUSH2 0x807 DUP5 DUP3 PUSH1 0x20 DUP7 ADD PUSH2 0x7A0 JUMP JUMPDEST SWAP2 POP POP SWAP3 SWAP2 POP POP JUMP JUMPDEST PUSH1 0x0 DUP2 CALLDATALOAD SWAP1 POP PUSH2 0x81F DUP2 PUSH2 0xC51 JUMP JUMPDEST SWAP3 SWAP2 POP POP JUMP JUMPDEST PUSH1 0x0 DUP1 PUSH1 0x40 DUP4 DUP6 SUB SLT ISZERO PUSH2 0x83C JUMPI PUSH2 0x83B PUSH2 0xC12 JUMP JUMPDEST JUMPDEST PUSH1 0x0 DUP4 ADD CALLDATALOAD PUSH8 0xFFFFFFFFFFFFFFFF DUP2 GT ISZERO PUSH2 0x85A JUMPI PUSH2 0x859 PUSH2 0xC0D JUMP JUMPDEST JUMPDEST PUSH2 0x866 DUP6 DUP3 DUP7 ADD PUSH2 0x7E2 JUMP JUMPDEST SWAP3 POP POP PUSH1 0x20 PUSH2 0x877 DUP6 DUP3 DUP7 ADD PUSH2 0x810 JUMP JUMPDEST SWAP2 POP POP SWAP3 POP SWAP3 SWAP1 POP JUMP JUMPDEST PUSH1 0x0 DUP1 PUSH1 0x0 DUP1 PUSH1 0x80 DUP6 DUP8 SUB SLT ISZERO PUSH2 0x89B JUMPI PUSH2 0x89A PUSH2 0xC12 JUMP JUMPDEST JUMPDEST PUSH1 0x0 PUSH2 0x8A9 DUP8 DUP3 DUP9 ADD PUSH2 0x810 JUMP JUMPDEST SWAP5 POP POP PUSH1 0x20 DUP6 ADD CALLDATALOAD PUSH8 0xFFFFFFFFFFFFFFFF DUP2 GT ISZERO PUSH2 0x8CA JUMPI PUSH2 0x8C9 PUSH2 0xC0D JUMP JUMPDEST JUMPDEST PUSH2 0x8D6 DUP8 DUP3 DUP9 ADD PUSH2 0x7E2 JUMP JUMPDEST SWAP4 POP POP PUSH1 0x40 PUSH2 0x8E7 DUP8 DUP3 DUP9 ADD PUSH2 0x810 JUMP JUMPDEST SWAP3 POP POP PUSH1 0x60 PUSH2 0x8F8 DUP8 DUP3 DUP9 ADD PUSH2 0x810 JUMP JUMPDEST SWAP2 POP POP SWAP3 SWAP6 SWAP2 SWAP5 POP SWAP3 POP JUMP JUMPDEST PUSH1 0x0 PUSH2 0x90F DUP3 PUSH2 0xAC9 JUMP JUMPDEST PUSH2 0x919 DUP2 DUP6 PUSH2 0xAD4 JUMP JUMPDEST SWAP4 POP PUSH2 0x929 DUP2 DUP6 PUSH1 0x20 DUP7 ADD PUSH2 0xB0F JUMP JUMPDEST PUSH2 0x932 DUP2 PUSH2 0xC17 JUMP JUMPDEST DUP5 ADD SWAP2 POP POP SWAP3 SWAP2 POP POP JUMP JUMPDEST PUSH1 0x0 PUSH2 0x94A PUSH1 0x19 DUP4 PUSH2 0xAE5 JUMP JUMPDEST SWAP2 POP PUSH2 0x955 DUP3 PUSH2 0xC28 JUMP JUMPDEST PUSH1 0x20 DUP3 ADD SWAP1 POP SWAP2 SWAP1 POP JUMP JUMPDEST PUSH1 0x0 PUSH1 0x40 DUP4 ADD PUSH1 0x0 DUP4 ADD MLOAD DUP5 DUP3 SUB PUSH1 0x0 DUP7 ADD MSTORE PUSH2 0x97D DUP3 DUP3 PUSH2 0x904 JUMP JUMPDEST SWAP2 POP POP PUSH1 0x20 DUP4 ADD MLOAD PUSH2 0x992 PUSH1 0x20 DUP7 ADD DUP3 PUSH2 0xA00 JUMP JUMPDEST POP DUP1 SWAP2 POP POP SWAP3 SWAP2 POP POP JUMP JUMPDEST PUSH1 0x0 PUSH1 0x80 DUP4 ADD PUSH1 0x0 DUP4 ADD MLOAD PUSH2 0x9B5 PUSH1 0x0 DUP7 ADD DUP3 PUSH2 0xA00 JUMP JUMPDEST POP PUSH1 0x20 DUP4 ADD MLOAD DUP5 DUP3 SUB PUSH1 0x20 DUP7 ADD MSTORE PUSH2 0x9CD DUP3 DUP3 PUSH2 0x904 JUMP JUMPDEST SWAP2 POP POP PUSH1 0x40 DUP4 ADD MLOAD PUSH2 0x9E2 PUSH1 0x40 DUP7 ADD DUP3 PUSH2 0xA00 JUMP JUMPDEST POP PUSH1 0x60 DUP4 ADD MLOAD PUSH2 0x9F5 PUSH1 0x60 DUP7 ADD DUP3 PUSH2 0xA00 JUMP JUMPDEST POP DUP1 SWAP2 POP POP SWAP3 SWAP2 POP POP JUMP JUMPDEST PUSH2 0xA09 DUP2 PUSH2 0xAF6 JUMP JUMPDEST DUP3 MSTORE POP POP JUMP JUMPDEST PUSH1 0x0 PUSH1 0x20 DUP3 ADD SWAP1 POP DUP2 DUP2 SUB PUSH1 0x0 DUP4 ADD MSTORE PUSH2 0xA28 DUP2 PUSH2 0x93D JUMP JUMPDEST SWAP1 POP SWAP2 SWAP1 POP JUMP JUMPDEST PUSH1 0x0 PUSH1 0x20 DUP3 ADD SWAP1 POP DUP2 DUP2 SUB PUSH1 0x0 DUP4 ADD MSTORE PUSH2 0xA49 DUP2 DUP5 PUSH2 0x960 JUMP JUMPDEST SWAP1 POP SWAP3 SWAP2 POP POP JUMP JUMPDEST PUSH1 0x0 PUSH1 0x20 DUP3 ADD SWAP1 POP DUP2 DUP2 SUB PUSH1 0x0 DUP4 ADD MSTORE PUSH2 0xA6B DUP2 DUP5 PUSH2 0x99D JUMP JUMPDEST SWAP1 POP SWAP3 SWAP2 POP POP JUMP JUMPDEST PUSH1 0x0 PUSH2 0xA7D PUSH2 0xA8E JUMP JUMPDEST SWAP1 POP PUSH2 0xA89 DUP3 DUP3 PUSH2 0xB74 JUMP JUMPDEST SWAP2 SWAP1 POP JUMP JUMPDEST PUSH1 0x0 PUSH1 0x40 MLOAD SWAP1 POP SWAP1 JUMP JUMPDEST PUSH1 0x0 PUSH8 0xFFFFFFFFFFFFFFFF DUP3 GT ISZERO PUSH2 0xAB3 JUMPI PUSH2 0xAB2 PUSH2 0xBD4 JUMP JUMPDEST JUMPDEST PUSH2 0xABC DUP3 PUSH2 0xC17 JUMP JUMPDEST SWAP1 POP PUSH1 0x20 DUP2 ADD SWAP1 POP SWAP2 SWAP1 POP JUMP JUMPDEST PUSH1 0x0 DUP2 MLOAD SWAP1 POP SWAP2 SWAP1 POP JUMP JUMPDEST PUSH1 0x0 DUP3 DUP3 MSTORE PUSH1 0x20 DUP3 ADD SWAP1 POP SWAP3 SWAP2 POP POP JUMP JUMPDEST PUSH1 0x0 DUP3 DUP3 MSTORE PUSH1 0x20 DUP3 ADD SWAP1 POP SWAP3 SWAP2 POP POP JUMP JUMPDEST PUSH1 0x0 DUP2 SWAP1 POP SWAP2 SWAP1 POP JUMP JUMPDEST DUP3 DUP2 DUP4 CALLDATACOPY PUSH1 0x0 DUP4 DUP4 ADD MSTORE POP POP POP JUMP JUMPDEST PUSH1 0x0 JUMPDEST DUP4 DUP2 LT ISZERO PUSH2 0xB2D JUMPI DUP1 DUP3 ADD MLOAD DUP2 DUP5 ADD MSTORE PUSH1 0x20 DUP2 ADD SWAP1 POP PUSH2 0xB12 JUMP JUMPDEST DUP4 DUP2 GT ISZERO PUSH2 0xB3C JUMPI PUSH1 0x0 DUP5 DUP5 ADD MSTORE JUMPDEST POP POP POP POP JUMP JUMPDEST PUSH1 0x0 PUSH1 0x2 DUP3 DIV SWAP1 POP PUSH1 0x1 DUP3 AND DUP1 PUSH2 0xB5A JUMPI PUSH1 0x7F DUP3 AND SWAP2 POP JUMPDEST PUSH1 0x20 DUP3 LT DUP2 EQ ISZERO PUSH2 0xB6E JUMPI PUSH2 0xB6D PUSH2 0xBA5 JUMP JUMPDEST JUMPDEST POP SWAP2 SWAP1 POP JUMP JUMPDEST PUSH2 0xB7D DUP3 PUSH2 0xC17 JUMP JUMPDEST DUP2 ADD DUP2 DUP2 LT PUSH8 0xFFFFFFFFFFFFFFFF DUP3 GT OR ISZERO PUSH2 0xB9C JUMPI PUSH2 0xB9B PUSH2 0xBD4 JUMP JUMPDEST JUMPDEST DUP1 PUSH1 0x40 MSTORE POP POP POP JUMP JUMPDEST PUSH32 0x4E487B7100000000000000000000000000000000000000000000000000000000 PUSH1 0x0 MSTORE PUSH1 0x22 PUSH1 0x4 MSTORE PUSH1 0x24 PUSH1 0x0 REVERT JUMPDEST PUSH32 0x4E487B7100000000000000000000000000000000000000000000000000000000 PUSH1 0x0 MSTORE PUSH1 0x41 PUSH1 0x4 MSTORE PUSH1 0x24 PUSH1 0x0 REVERT JUMPDEST PUSH1 0x0 DUP1 REVERT JUMPDEST PUSH1 0x0 DUP1 REVERT JUMPDEST PUSH1 0x0 DUP1 REVERT JUMPDEST PUSH1 0x0 DUP1 REVERT JUMPDEST PUSH1 0x0 PUSH1 0x1F NOT PUSH1 0x1F DUP4 ADD AND SWAP1 POP SWAP2 SWAP1 POP JUMP JUMPDEST PUSH32 0x596F7520617265206E6F742070617263656C206F776E65722E00000000000000 PUSH1 0x0 DUP3 ADD MSTORE POP JUMP JUMPDEST PUSH2 0xC5A DUP2 PUSH2 0xAF6 JUMP JUMPDEST DUP2 EQ PUSH2 0xC65 JUMPI PUSH1 0x0 DUP1 REVERT JUMPDEST POP JUMP INVALID LOG2 PUSH5 0x6970667358 0x22 SLT KECCAK256 0xAD SWAP12 0xA7 MOD 0x2C ADDRESS 0x5E 0xE3 SWAP1 0xBA EXTCODESIZE 0xB2 STOP DUP4 0x24 0xB7 0x2F PUSH19 0xCFDB61C8EF8FF07634B5A14B505964736F6C63 NUMBER STOP ADDMOD SMOD STOP CALLER "
				},
				"gasEstimates": {
					"creation": {
						"codeDepositCost": "646000",
						"executionCost": "24942",
						"totalCost": "670942"
					},
					"external": {
						"createParcel(uint256,string,uint256,uint256)": "infinite",
						"getOlgt()": "infinite",
						"getParcel()": "infinite",
						"mortgage(string,uint256)": "infinite"
					}
				},
				"methodIdentifiers": {
					"createParcel(uint256,string,uint256,uint256)": "4854e056",
					"getOlgt()": "f4fe8b10",
					"getParcel()": "466911e6",
					"mortgage(string,uint256)": "bfd6843d"
				}
			},
			"storageLayout": {
				"storage": [
					{
						"astId": 17,
						"contract": "contracts/Parcel.sol:Parcel",
						"label": "owner",
						"offset": 0,
						"slot": "0",
						"type": "t_address"
					},
					{
						"astId": 22,
						"contract": "contracts/Parcel.sol:Parcel",
						"label": "_parcel_land",
						"offset": 0,
						"slot": "1",
						"type": "t_mapping(t_address,t_struct(Parcel_land)10_storage)"
					},
					{
						"astId": 27,
						"contract": "contracts/Parcel.sol:Parcel",
						"label": "_olgt",
						"offset": 0,
						"slot": "2",
						"type": "t_mapping(t_address,t_struct(Olgt)15_storage)"
					}
				],
				"types": {
					"t_address": {
						"encoding": "inplace",
						"label": "address",
						"numberOfBytes": "20"
					},
					"t_mapping(t_address,t_struct(Olgt)15_storage)": {
						"encoding": "mapping",
						"key": "t_address",
						"label": "mapping(address => struct Olgt)",
						"numberOfBytes": "32",
						"value": "t_struct(Olgt)15_storage"
					},
					"t_mapping(t_address,t_struct(Parcel_land)10_storage)": {
						"encoding": "mapping",
						"key": "t_address",
						"label": "mapping(address => struct Parcel_land)",
						"numberOfBytes": "32",
						"value": "t_struct(Parcel_land)10_storage"
					},
					"t_string_storage": {
						"encoding": "bytes",
						"label": "string",
						"numberOfBytes": "32"
					},
					"t_struct(Olgt)15_storage": {
						"encoding": "inplace",
						"label": "struct Olgt",
						"members": [
							{
								"astId": 12,
								"contract": "contracts/Parcel.sol:Parcel",
								"label": "olgt_name",
								"offset": 0,
								"slot": "0",
								"type": "t_string_storage"
							},
							{
								"astId": 14,
								"contract": "contracts/Parcel.sol:Parcel",
								"label": "olgt_price",
								"offset": 0,
								"slot": "1",
								"type": "t_uint256"
							}
						],
						"numberOfBytes": "64"
					},
					"t_struct(Parcel_land)10_storage": {
						"encoding": "inplace",
						"label": "struct Parcel_land",
						"members": [
							{
								"astId": 3,
								"contract": "contracts/Parcel.sol:Parcel",
								"label": "parcel_no",
								"offset": 0,
								"slot": "0",
								"type": "t_uint256"
							},
							{
								"astId": 5,
								"contract": "contracts/Parcel.sol:Parcel",
								"label": "owner_name",
								"offset": 0,
								"slot": "1",
								"type": "t_string_storage"
							},
							{
								"astId": 7,
								"contract": "contracts/Parcel.sol:Parcel",
								"label": "price",
								"offset": 0,
								"slot": "2",
								"type": "t_uint256"
							},
							{
								"astId": 9,
								"contract": "contracts/Parcel.sol:Parcel",
								"label": "area",
								"offset": 0,
								"slot": "3",
								"type": "t_uint256"
							}
						],
						"numberOfBytes": "128"
					},
					"t_uint256": {
						"encoding": "inplace",
						"label": "uint256",
						"numberOfBytes": "32"
					}
				}
			},
			"userdoc": {
				"kind": "user",
				"methods": {},
				"version": 1
			}
		}
	}
}