{
	"contracts/Parcel.sol": {
		"Parcel": {
			"abi": [
				{
					"inputs": [],
					"stateMutability": "nonpayable",
					"type": "constructor"
				},
				{
					"inputs": [
						{
							"internalType": "address",
							"name": "owner",
							"type": "address"
						},
						{
							"internalType": "uint256",
							"name": "parcel_no",
							"type": "uint256"
						},
						{
							"internalType": "string",
							"name": "owner_name",
							"type": "string"
						},
						{
							"internalType": "uint256",
							"name": "price",
							"type": "uint256"
						},
						{
							"internalType": "uint256",
							"name": "area",
							"type": "uint256"
						}
					],
					"name": "createParcel",
					"outputs": [],
					"stateMutability": "payable",
					"type": "function"
				},
				{
					"inputs": [
						{
							"internalType": "address",
							"name": "owner",
							"type": "address"
						}
					],
					"name": "getOlgt",
					"outputs": [
						{
							"components": [
								{
									"internalType": "uint256",
									"name": "parcel_no",
									"type": "uint256"
								},
								{
									"internalType": "string",
									"name": "olgt_name",
									"type": "string"
								},
								{
									"internalType": "uint256",
									"name": "olgt_price",
									"type": "uint256"
								}
							],
							"internalType": "struct Olgt",
							"name": "olgt",
							"type": "tuple"
						}
					],
					"stateMutability": "view",
					"type": "function"
				},
				{
					"inputs": [
						{
							"internalType": "address",
							"name": "owner",
							"type": "address"
						}
					],
					"name": "getParcel",
					"outputs": [
						{
							"components": [
								{
									"internalType": "uint256",
									"name": "parcel_no",
									"type": "uint256"
								},
								{
									"internalType": "string",
									"name": "owner_name",
									"type": "string"
								},
								{
									"internalType": "uint256",
									"name": "price",
									"type": "uint256"
								},
								{
									"internalType": "uint256",
									"name": "area",
									"type": "uint256"
								}
							],
							"internalType": "struct Parcel_land",
							"name": "parcel_land",
							"type": "tuple"
						}
					],
					"stateMutability": "view",
					"type": "function"
				},
				{
					"inputs": [
						{
							"internalType": "address",
							"name": "owner",
							"type": "address"
						},
						{
							"internalType": "uint256",
							"name": "parcel_no",
							"type": "uint256"
						},
						{
							"internalType": "string",
							"name": "owner_name",
							"type": "string"
						},
						{
							"internalType": "uint256",
							"name": "price",
							"type": "uint256"
						}
					],
					"name": "mortgage",
					"outputs": [],
					"stateMutability": "nonpayable",
					"type": "function"
				},
				{
					"inputs": [
						{
							"internalType": "address",
							"name": "owner",
							"type": "address"
						},
						{
							"internalType": "string",
							"name": "owner_name",
							"type": "string"
						},
						{
							"internalType": "uint256",
							"name": "price",
							"type": "uint256"
						}
					],
					"name": "redeem",
					"outputs": [],
					"stateMutability": "payable",
					"type": "function"
				}
			],
			"devdoc": {
				"kind": "dev",
				"methods": {},
				"version": 1
			},
			"evm": {
				"assembly": "    /* \"contracts/Parcel.sol\":286:2262  contract Parcel {\r... */\n  mstore(0x40, 0x80)\n    /* \"contracts/Parcel.sol\":493:544  constructor() {\r... */\n  callvalue\n  dup1\n  iszero\n  tag_1\n  jumpi\n  0x00\n  dup1\n  revert\ntag_1:\n  pop\n    /* \"contracts/Parcel.sol\":526:536  msg.sender */\n  caller\n    /* \"contracts/Parcel.sol\":518:523  staff */\n  0x00\n  dup1\n    /* \"contracts/Parcel.sol\":518:536  staff = msg.sender */\n  0x0100\n  exp\n  dup2\n  sload\n  dup2\n  0xffffffffffffffffffffffffffffffffffffffff\n  mul\n  not\n  and\n  swap1\n  dup4\n  0xffffffffffffffffffffffffffffffffffffffff\n  and\n  mul\n  or\n  swap1\n  sstore\n  pop\n    /* \"contracts/Parcel.sol\":286:2262  contract Parcel {\r... */\n  dataSize(sub_0)\n  dup1\n  dataOffset(sub_0)\n  0x00\n  codecopy\n  0x00\n  return\nstop\n\nsub_0: assembly {\n        /* \"contracts/Parcel.sol\":286:2262  contract Parcel {\r... */\n      mstore(0x40, 0x80)\n      jumpi(tag_1, lt(calldatasize, 0x04))\n      shr(0xe0, calldataload(0x00))\n      dup1\n      0x198e86c6\n      eq\n      tag_2\n      jumpi\n      dup1\n      0x215271cb\n      eq\n      tag_3\n      jumpi\n      dup1\n      0x5f62bf42\n      eq\n      tag_4\n      jumpi\n      dup1\n      0x868571ef\n      eq\n      tag_5\n      jumpi\n      dup1\n      0x935656c2\n      eq\n      tag_6\n      jumpi\n    tag_1:\n      0x00\n      dup1\n      revert\n        /* \"contracts/Parcel.sol\":1080:1220  function getParcel(address owner) isStaff public view returns (Parcel_land memory parcel_land) {\r... */\n    tag_2:\n      callvalue\n      dup1\n      iszero\n      tag_7\n      jumpi\n      0x00\n      dup1\n      revert\n    tag_7:\n      pop\n      tag_8\n      0x04\n      dup1\n      calldatasize\n      sub\n      dup2\n      add\n      swap1\n      tag_9\n      swap2\n      swap1\n      tag_10\n      jump\t// in\n    tag_9:\n      tag_11\n      jump\t// in\n    tag_8:\n      mload(0x40)\n      tag_12\n      swap2\n      swap1\n      tag_13\n      jump\t// in\n    tag_12:\n      mload(0x40)\n      dup1\n      swap2\n      sub\n      swap1\n      return\n        /* \"contracts/Parcel.sol\":1228:1345  function getOlgt(address owner) isStaff public view returns (Olgt memory olgt) {\r... */\n    tag_3:\n      callvalue\n      dup1\n      iszero\n      tag_14\n      jumpi\n      0x00\n      dup1\n      revert\n    tag_14:\n      pop\n      tag_15\n      0x04\n      dup1\n      calldatasize\n      sub\n      dup2\n      add\n      swap1\n      tag_16\n      swap2\n      swap1\n      tag_10\n      jump\t// in\n    tag_16:\n      tag_17\n      jump\t// in\n    tag_15:\n      mload(0x40)\n      tag_18\n      swap2\n      swap1\n      tag_19\n      jump\t// in\n    tag_18:\n      mload(0x40)\n      dup1\n      swap2\n      sub\n      swap1\n      return\n        /* \"contracts/Parcel.sol\":1478:1776  function mortgage(address owner, uint parcel_no, string memory owner_name, uint price) isStaff public  {\r... */\n    tag_4:\n      callvalue\n      dup1\n      iszero\n      tag_20\n      jumpi\n      0x00\n      dup1\n      revert\n    tag_20:\n      pop\n      tag_21\n      0x04\n      dup1\n      calldatasize\n      sub\n      dup2\n      add\n      swap1\n      tag_22\n      swap2\n      swap1\n      tag_23\n      jump\t// in\n    tag_22:\n      tag_24\n      jump\t// in\n    tag_21:\n      stop\n        /* \"contracts/Parcel.sol\":1942:2257  function redeem(address owner, string memory owner_name, uint price) isStaff public payable {\r... */\n    tag_5:\n      tag_25\n      0x04\n      dup1\n      calldatasize\n      sub\n      dup2\n      add\n      swap1\n      tag_26\n      swap2\n      swap1\n      tag_27\n      jump\t// in\n    tag_26:\n      tag_28\n      jump\t// in\n    tag_25:\n      stop\n        /* \"contracts/Parcel.sol\":751:1072  function createParcel(address owner, uint parcel_no, string memory owner_name, uint price, uint area) isStaff public payable {\r... */\n    tag_6:\n      tag_29\n      0x04\n      dup1\n      calldatasize\n      sub\n      dup2\n      add\n      swap1\n      tag_30\n      swap2\n      swap1\n      tag_31\n      jump\t// in\n    tag_30:\n      tag_32\n      jump\t// in\n    tag_29:\n      stop\n        /* \"contracts/Parcel.sol\":1080:1220  function getParcel(address owner) isStaff public view returns (Parcel_land memory parcel_land) {\r... */\n    tag_11:\n        /* \"contracts/Parcel.sol\":1143:1173  Parcel_land memory parcel_land */\n      tag_33\n      tag_34\n      jump\t// in\n    tag_33:\n        /* \"contracts/Parcel.sol\":602:607  staff */\n      0x00\n      dup1\n      sload\n      swap1\n      0x0100\n      exp\n      swap1\n      div\n      0xffffffffffffffffffffffffffffffffffffffff\n      and\n        /* \"contracts/Parcel.sol\":588:607  msg.sender == staff */\n      0xffffffffffffffffffffffffffffffffffffffff\n      and\n        /* \"contracts/Parcel.sol\":588:598  msg.sender */\n      caller\n        /* \"contracts/Parcel.sol\":588:607  msg.sender == staff */\n      0xffffffffffffffffffffffffffffffffffffffff\n      and\n      eq\n        /* \"contracts/Parcel.sol\":580:641  require(msg.sender == staff, \"You are not landoffice staff.\") */\n      tag_36\n      jumpi\n      mload(0x40)\n      0x08c379a000000000000000000000000000000000000000000000000000000000\n      dup2\n      mstore\n      0x04\n      add\n      tag_37\n      swap1\n      tag_38\n      jump\t// in\n    tag_37:\n      mload(0x40)\n      dup1\n      swap2\n      sub\n      swap1\n      revert\n    tag_36:\n        /* \"contracts/Parcel.sol\":1193:1205  _parcel_land */\n      0x01\n        /* \"contracts/Parcel.sol\":1193:1212  _parcel_land[owner] */\n      0x00\n        /* \"contracts/Parcel.sol\":1206:1211  owner */\n      dup4\n        /* \"contracts/Parcel.sol\":1193:1212  _parcel_land[owner] */\n      0xffffffffffffffffffffffffffffffffffffffff\n      and\n      0xffffffffffffffffffffffffffffffffffffffff\n      and\n      dup2\n      mstore\n      0x20\n      add\n      swap1\n      dup2\n      mstore\n      0x20\n      add\n      0x00\n      keccak256\n        /* \"contracts/Parcel.sol\":1186:1212  return _parcel_land[owner] */\n      mload(0x40)\n      dup1\n      0x80\n      add\n      0x40\n      mstore\n      swap1\n      dup2\n      0x00\n      dup3\n      add\n      sload\n      dup2\n      mstore\n      0x20\n      add\n      0x01\n      dup3\n      add\n      dup1\n      sload\n      tag_40\n      swap1\n      tag_41\n      jump\t// in\n    tag_40:\n      dup1\n      0x1f\n      add\n      0x20\n      dup1\n      swap2\n      div\n      mul\n      0x20\n      add\n      mload(0x40)\n      swap1\n      dup2\n      add\n      0x40\n      mstore\n      dup1\n      swap3\n      swap2\n      swap1\n      dup2\n      dup2\n      mstore\n      0x20\n      add\n      dup3\n      dup1\n      sload\n      tag_42\n      swap1\n      tag_41\n      jump\t// in\n    tag_42:\n      dup1\n      iszero\n      tag_43\n      jumpi\n      dup1\n      0x1f\n      lt\n      tag_44\n      jumpi\n      0x0100\n      dup1\n      dup4\n      sload\n      div\n      mul\n      dup4\n      mstore\n      swap2\n      0x20\n      add\n      swap2\n      jump(tag_43)\n    tag_44:\n      dup3\n      add\n      swap2\n      swap1\n      0x00\n      mstore\n      keccak256(0x00, 0x20)\n      swap1\n    tag_45:\n      dup2\n      sload\n      dup2\n      mstore\n      swap1\n      0x01\n      add\n      swap1\n      0x20\n      add\n      dup1\n      dup4\n      gt\n      tag_45\n      jumpi\n      dup3\n      swap1\n      sub\n      0x1f\n      and\n      dup3\n      add\n      swap2\n    tag_43:\n      pop\n      pop\n      pop\n      pop\n      pop\n      dup2\n      mstore\n      0x20\n      add\n      0x02\n      dup3\n      add\n      sload\n      dup2\n      mstore\n      0x20\n      add\n      0x03\n      dup3\n      add\n      sload\n      dup2\n      mstore\n      pop\n      pop\n      swap1\n      pop\n        /* \"contracts/Parcel.sol\":1080:1220  function getParcel(address owner) isStaff public view returns (Parcel_land memory parcel_land) {\r... */\n      swap2\n      swap1\n      pop\n      jump\t// out\n        /* \"contracts/Parcel.sol\":1228:1345  function getOlgt(address owner) isStaff public view returns (Olgt memory olgt) {\r... */\n    tag_17:\n        /* \"contracts/Parcel.sol\":1289:1305  Olgt memory olgt */\n      tag_46\n      tag_47\n      jump\t// in\n    tag_46:\n        /* \"contracts/Parcel.sol\":602:607  staff */\n      0x00\n      dup1\n      sload\n      swap1\n      0x0100\n      exp\n      swap1\n      div\n      0xffffffffffffffffffffffffffffffffffffffff\n      and\n        /* \"contracts/Parcel.sol\":588:607  msg.sender == staff */\n      0xffffffffffffffffffffffffffffffffffffffff\n      and\n        /* \"contracts/Parcel.sol\":588:598  msg.sender */\n      caller\n        /* \"contracts/Parcel.sol\":588:607  msg.sender == staff */\n      0xffffffffffffffffffffffffffffffffffffffff\n      and\n      eq\n        /* \"contracts/Parcel.sol\":580:641  require(msg.sender == staff, \"You are not landoffice staff.\") */\n      tag_49\n      jumpi\n      mload(0x40)\n      0x08c379a000000000000000000000000000000000000000000000000000000000\n      dup2\n      mstore\n      0x04\n      add\n      tag_50\n      swap1\n      tag_38\n      jump\t// in\n    tag_50:\n      mload(0x40)\n      dup1\n      swap2\n      sub\n      swap1\n      revert\n    tag_49:\n        /* \"contracts/Parcel.sol\":1325:1330  _olgt */\n      0x02\n        /* \"contracts/Parcel.sol\":1325:1337  _olgt[owner] */\n      0x00\n        /* \"contracts/Parcel.sol\":1331:1336  owner */\n      dup4\n        /* \"contracts/Parcel.sol\":1325:1337  _olgt[owner] */\n      0xffffffffffffffffffffffffffffffffffffffff\n      and\n      0xffffffffffffffffffffffffffffffffffffffff\n      and\n      dup2\n      mstore\n      0x20\n      add\n      swap1\n      dup2\n      mstore\n      0x20\n      add\n      0x00\n      keccak256\n        /* \"contracts/Parcel.sol\":1318:1337  return _olgt[owner] */\n      mload(0x40)\n      dup1\n      0x60\n      add\n      0x40\n      mstore\n      swap1\n      dup2\n      0x00\n      dup3\n      add\n      sload\n      dup2\n      mstore\n      0x20\n      add\n      0x01\n      dup3\n      add\n      dup1\n      sload\n      tag_52\n      swap1\n      tag_41\n      jump\t// in\n    tag_52:\n      dup1\n      0x1f\n      add\n      0x20\n      dup1\n      swap2\n      div\n      mul\n      0x20\n      add\n      mload(0x40)\n      swap1\n      dup2\n      add\n      0x40\n      mstore\n      dup1\n      swap3\n      swap2\n      swap1\n      dup2\n      dup2\n      mstore\n      0x20\n      add\n      dup3\n      dup1\n      sload\n      tag_53\n      swap1\n      tag_41\n      jump\t// in\n    tag_53:\n      dup1\n      iszero\n      tag_54\n      jumpi\n      dup1\n      0x1f\n      lt\n      tag_55\n      jumpi\n      0x0100\n      dup1\n      dup4\n      sload\n      div\n      mul\n      dup4\n      mstore\n      swap2\n      0x20\n      add\n      swap2\n      jump(tag_54)\n    tag_55:\n      dup3\n      add\n      swap2\n      swap1\n      0x00\n      mstore\n      keccak256(0x00, 0x20)\n      swap1\n    tag_56:\n      dup2\n      sload\n      dup2\n      mstore\n      swap1\n      0x01\n      add\n      swap1\n      0x20\n      add\n      dup1\n      dup4\n      gt\n      tag_56\n      jumpi\n      dup3\n      swap1\n      sub\n      0x1f\n      and\n      dup3\n      add\n      swap2\n    tag_54:\n      pop\n      pop\n      pop\n      pop\n      pop\n      dup2\n      mstore\n      0x20\n      add\n      0x02\n      dup3\n      add\n      sload\n      dup2\n      mstore\n      pop\n      pop\n      swap1\n      pop\n        /* \"contracts/Parcel.sol\":1228:1345  function getOlgt(address owner) isStaff public view returns (Olgt memory olgt) {\r... */\n      swap2\n      swap1\n      pop\n      jump\t// out\n        /* \"contracts/Parcel.sol\":1478:1776  function mortgage(address owner, uint parcel_no, string memory owner_name, uint price) isStaff public  {\r... */\n    tag_24:\n        /* \"contracts/Parcel.sol\":602:607  staff */\n      0x00\n      dup1\n      sload\n      swap1\n      0x0100\n      exp\n      swap1\n      div\n      0xffffffffffffffffffffffffffffffffffffffff\n      and\n        /* \"contracts/Parcel.sol\":588:607  msg.sender == staff */\n      0xffffffffffffffffffffffffffffffffffffffff\n      and\n        /* \"contracts/Parcel.sol\":588:598  msg.sender */\n      caller\n        /* \"contracts/Parcel.sol\":588:607  msg.sender == staff */\n      0xffffffffffffffffffffffffffffffffffffffff\n      and\n      eq\n        /* \"contracts/Parcel.sol\":580:641  require(msg.sender == staff, \"You are not landoffice staff.\") */\n      tag_58\n      jumpi\n      mload(0x40)\n      0x08c379a000000000000000000000000000000000000000000000000000000000\n      dup2\n      mstore\n      0x04\n      add\n      tag_59\n      swap1\n      tag_38\n      jump\t// in\n    tag_59:\n      mload(0x40)\n      dup1\n      swap2\n      sub\n      swap1\n      revert\n    tag_58:\n        /* \"contracts/Parcel.sol\":1625:1635  owner_name */\n      dup2\n        /* \"contracts/Parcel.sol\":1592:1604  _parcel_land */\n      0x01\n        /* \"contracts/Parcel.sol\":1592:1611  _parcel_land[owner] */\n      0x00\n        /* \"contracts/Parcel.sol\":1605:1610  owner */\n      dup7\n        /* \"contracts/Parcel.sol\":1592:1611  _parcel_land[owner] */\n      0xffffffffffffffffffffffffffffffffffffffff\n      and\n      0xffffffffffffffffffffffffffffffffffffffff\n      and\n      dup2\n      mstore\n      0x20\n      add\n      swap1\n      dup2\n      mstore\n      0x20\n      add\n      0x00\n      keccak256\n        /* \"contracts/Parcel.sol\":1592:1622  _parcel_land[owner].owner_name */\n      0x01\n      add\n        /* \"contracts/Parcel.sol\":1592:1635  _parcel_land[owner].owner_name = owner_name */\n      swap1\n      dup1\n      mload\n      swap1\n      0x20\n      add\n      swap1\n      tag_61\n      swap3\n      swap2\n      swap1\n      tag_62\n      jump\t// in\n    tag_61:\n      pop\n        /* \"contracts/Parcel.sol\":1671:1680  parcel_no */\n      dup3\n        /* \"contracts/Parcel.sol\":1646:1651  _olgt */\n      0x02\n        /* \"contracts/Parcel.sol\":1646:1658  _olgt[owner] */\n      0x00\n        /* \"contracts/Parcel.sol\":1652:1657  owner */\n      dup7\n        /* \"contracts/Parcel.sol\":1646:1658  _olgt[owner] */\n      0xffffffffffffffffffffffffffffffffffffffff\n      and\n      0xffffffffffffffffffffffffffffffffffffffff\n      and\n      dup2\n      mstore\n      0x20\n      add\n      swap1\n      dup2\n      mstore\n      0x20\n      add\n      0x00\n      keccak256\n        /* \"contracts/Parcel.sol\":1646:1668  _olgt[owner].parcel_no */\n      0x00\n      add\n        /* \"contracts/Parcel.sol\":1646:1680  _olgt[owner].parcel_no = parcel_no */\n      dup2\n      swap1\n      sstore\n      pop\n        /* \"contracts/Parcel.sol\":1716:1726  owner_name */\n      dup2\n        /* \"contracts/Parcel.sol\":1691:1696  _olgt */\n      0x02\n        /* \"contracts/Parcel.sol\":1691:1703  _olgt[owner] */\n      0x00\n        /* \"contracts/Parcel.sol\":1697:1702  owner */\n      dup7\n        /* \"contracts/Parcel.sol\":1691:1703  _olgt[owner] */\n      0xffffffffffffffffffffffffffffffffffffffff\n      and\n      0xffffffffffffffffffffffffffffffffffffffff\n      and\n      dup2\n      mstore\n      0x20\n      add\n      swap1\n      dup2\n      mstore\n      0x20\n      add\n      0x00\n      keccak256\n        /* \"contracts/Parcel.sol\":1691:1713  _olgt[owner].olgt_name */\n      0x01\n      add\n        /* \"contracts/Parcel.sol\":1691:1726  _olgt[owner].olgt_name = owner_name */\n      swap1\n      dup1\n      mload\n      swap1\n      0x20\n      add\n      swap1\n      tag_63\n      swap3\n      swap2\n      swap1\n      tag_62\n      jump\t// in\n    tag_63:\n      pop\n        /* \"contracts/Parcel.sol\":1763:1768  price */\n      dup1\n        /* \"contracts/Parcel.sol\":1737:1742  _olgt */\n      0x02\n        /* \"contracts/Parcel.sol\":1737:1749  _olgt[owner] */\n      0x00\n        /* \"contracts/Parcel.sol\":1743:1748  owner */\n      dup7\n        /* \"contracts/Parcel.sol\":1737:1749  _olgt[owner] */\n      0xffffffffffffffffffffffffffffffffffffffff\n      and\n      0xffffffffffffffffffffffffffffffffffffffff\n      and\n      dup2\n      mstore\n      0x20\n      add\n      swap1\n      dup2\n      mstore\n      0x20\n      add\n      0x00\n      keccak256\n        /* \"contracts/Parcel.sol\":1737:1760  _olgt[owner].olgt_price */\n      0x02\n      add\n        /* \"contracts/Parcel.sol\":1737:1768  _olgt[owner].olgt_price = price */\n      dup2\n      swap1\n      sstore\n      pop\n        /* \"contracts/Parcel.sol\":1478:1776  function mortgage(address owner, uint parcel_no, string memory owner_name, uint price) isStaff public  {\r... */\n      pop\n      pop\n      pop\n      pop\n      jump\t// out\n        /* \"contracts/Parcel.sol\":1942:2257  function redeem(address owner, string memory owner_name, uint price) isStaff public payable {\r... */\n    tag_28:\n        /* \"contracts/Parcel.sol\":602:607  staff */\n      0x00\n      dup1\n      sload\n      swap1\n      0x0100\n      exp\n      swap1\n      div\n      0xffffffffffffffffffffffffffffffffffffffff\n      and\n        /* \"contracts/Parcel.sol\":588:607  msg.sender == staff */\n      0xffffffffffffffffffffffffffffffffffffffff\n      and\n        /* \"contracts/Parcel.sol\":588:598  msg.sender */\n      caller\n        /* \"contracts/Parcel.sol\":588:607  msg.sender == staff */\n      0xffffffffffffffffffffffffffffffffffffffff\n      and\n      eq\n        /* \"contracts/Parcel.sol\":580:641  require(msg.sender == staff, \"You are not landoffice staff.\") */\n      tag_65\n      jumpi\n      mload(0x40)\n      0x08c379a000000000000000000000000000000000000000000000000000000000\n      dup2\n      mstore\n      0x04\n      add\n      tag_66\n      swap1\n      tag_38\n      jump\t// in\n    tag_66:\n      mload(0x40)\n      dup1\n      swap2\n      sub\n      swap1\n      revert\n    tag_65:\n        /* \"contracts/Parcel.sol\":2080:2085  price */\n      dup1\n        /* \"contracts/Parcel.sol\":2053:2058  _olgt */\n      0x02\n        /* \"contracts/Parcel.sol\":2053:2065  _olgt[owner] */\n      0x00\n        /* \"contracts/Parcel.sol\":2059:2064  owner */\n      dup6\n        /* \"contracts/Parcel.sol\":2053:2065  _olgt[owner] */\n      0xffffffffffffffffffffffffffffffffffffffff\n      and\n      0xffffffffffffffffffffffffffffffffffffffff\n      and\n      dup2\n      mstore\n      0x20\n      add\n      swap1\n      dup2\n      mstore\n      0x20\n      add\n      0x00\n      keccak256\n        /* \"contracts/Parcel.sol\":2053:2076  _olgt[owner].olgt_price */\n      0x02\n      add\n      sload\n        /* \"contracts/Parcel.sol\":2053:2085  _olgt[owner].olgt_price >= price */\n      lt\n      iszero\n        /* \"contracts/Parcel.sol\":2045:2119  require(_olgt[owner].olgt_price >= price, \"Insufficient fund for redeem.\") */\n      tag_68\n      jumpi\n      mload(0x40)\n      0x08c379a000000000000000000000000000000000000000000000000000000000\n      dup2\n      mstore\n      0x04\n      add\n      tag_69\n      swap1\n      tag_70\n      jump\t// in\n    tag_69:\n      mload(0x40)\n      dup1\n      swap2\n      sub\n      swap1\n      revert\n    tag_68:\n        /* \"contracts/Parcel.sol\":2163:2173  owner_name */\n      dup2\n        /* \"contracts/Parcel.sol\":2130:2142  _parcel_land */\n      0x01\n        /* \"contracts/Parcel.sol\":2130:2149  _parcel_land[owner] */\n      0x00\n        /* \"contracts/Parcel.sol\":2143:2148  owner */\n      dup6\n        /* \"contracts/Parcel.sol\":2130:2149  _parcel_land[owner] */\n      0xffffffffffffffffffffffffffffffffffffffff\n      and\n      0xffffffffffffffffffffffffffffffffffffffff\n      and\n      dup2\n      mstore\n      0x20\n      add\n      swap1\n      dup2\n      mstore\n      0x20\n      add\n      0x00\n      keccak256\n        /* \"contracts/Parcel.sol\":2130:2160  _parcel_land[owner].owner_name */\n      0x01\n      add\n        /* \"contracts/Parcel.sol\":2130:2173  _parcel_land[owner].owner_name = owner_name */\n      swap1\n      dup1\n      mload\n      swap1\n      0x20\n      add\n      swap1\n      tag_71\n      swap3\n      swap2\n      swap1\n      tag_62\n      jump\t// in\n    tag_71:\n      pop\n        /* \"contracts/Parcel.sol\":2184:2211  _olgt[owner].olgt_name = \"\" */\n      mload(0x40)\n      dup1\n      0x20\n      add\n      0x40\n      mstore\n      dup1\n      0x00\n      dup2\n      mstore\n      pop\n        /* \"contracts/Parcel.sol\":2184:2189  _olgt */\n      0x02\n        /* \"contracts/Parcel.sol\":2184:2196  _olgt[owner] */\n      0x00\n        /* \"contracts/Parcel.sol\":2190:2195  owner */\n      dup6\n        /* \"contracts/Parcel.sol\":2184:2196  _olgt[owner] */\n      0xffffffffffffffffffffffffffffffffffffffff\n      and\n      0xffffffffffffffffffffffffffffffffffffffff\n      and\n      dup2\n      mstore\n      0x20\n      add\n      swap1\n      dup2\n      mstore\n      0x20\n      add\n      0x00\n      keccak256\n        /* \"contracts/Parcel.sol\":2184:2206  _olgt[owner].olgt_name */\n      0x01\n      add\n        /* \"contracts/Parcel.sol\":2184:2211  _olgt[owner].olgt_name = \"\" */\n      swap1\n      dup1\n      mload\n      swap1\n      0x20\n      add\n      swap1\n      tag_72\n      swap3\n      swap2\n      swap1\n      tag_62\n      jump\t// in\n    tag_72:\n      pop\n        /* \"contracts/Parcel.sol\":2248:2249  0 */\n      0x00\n        /* \"contracts/Parcel.sol\":2222:2227  _olgt */\n      0x02\n        /* \"contracts/Parcel.sol\":2222:2234  _olgt[owner] */\n      0x00\n        /* \"contracts/Parcel.sol\":2228:2233  owner */\n      dup6\n        /* \"contracts/Parcel.sol\":2222:2234  _olgt[owner] */\n      0xffffffffffffffffffffffffffffffffffffffff\n      and\n      0xffffffffffffffffffffffffffffffffffffffff\n      and\n      dup2\n      mstore\n      0x20\n      add\n      swap1\n      dup2\n      mstore\n      0x20\n      add\n      0x00\n      keccak256\n        /* \"contracts/Parcel.sol\":2222:2245  _olgt[owner].olgt_price */\n      0x02\n      add\n        /* \"contracts/Parcel.sol\":2222:2249  _olgt[owner].olgt_price = 0 */\n      dup2\n      swap1\n      sstore\n      pop\n        /* \"contracts/Parcel.sol\":1942:2257  function redeem(address owner, string memory owner_name, uint price) isStaff public payable {\r... */\n      pop\n      pop\n      pop\n      jump\t// out\n        /* \"contracts/Parcel.sol\":751:1072  function createParcel(address owner, uint parcel_no, string memory owner_name, uint price, uint area) isStaff public payable {\r... */\n    tag_32:\n        /* \"contracts/Parcel.sol\":602:607  staff */\n      0x00\n      dup1\n      sload\n      swap1\n      0x0100\n      exp\n      swap1\n      div\n      0xffffffffffffffffffffffffffffffffffffffff\n      and\n        /* \"contracts/Parcel.sol\":588:607  msg.sender == staff */\n      0xffffffffffffffffffffffffffffffffffffffff\n      and\n        /* \"contracts/Parcel.sol\":588:598  msg.sender */\n      caller\n        /* \"contracts/Parcel.sol\":588:607  msg.sender == staff */\n      0xffffffffffffffffffffffffffffffffffffffff\n      and\n      eq\n        /* \"contracts/Parcel.sol\":580:641  require(msg.sender == staff, \"You are not landoffice staff.\") */\n      tag_74\n      jumpi\n      mload(0x40)\n      0x08c379a000000000000000000000000000000000000000000000000000000000\n      dup2\n      mstore\n      0x04\n      add\n      tag_75\n      swap1\n      tag_38\n      jump\t// in\n    tag_75:\n      mload(0x40)\n      dup1\n      swap2\n      sub\n      swap1\n      revert\n    tag_74:\n        /* \"contracts/Parcel.sol\":918:927  parcel_no */\n      dup4\n        /* \"contracts/Parcel.sol\":886:898  _parcel_land */\n      0x01\n        /* \"contracts/Parcel.sol\":886:905  _parcel_land[owner] */\n      0x00\n        /* \"contracts/Parcel.sol\":899:904  owner */\n      dup8\n        /* \"contracts/Parcel.sol\":886:905  _parcel_land[owner] */\n      0xffffffffffffffffffffffffffffffffffffffff\n      and\n      0xffffffffffffffffffffffffffffffffffffffff\n      and\n      dup2\n      mstore\n      0x20\n      add\n      swap1\n      dup2\n      mstore\n      0x20\n      add\n      0x00\n      keccak256\n        /* \"contracts/Parcel.sol\":886:915  _parcel_land[owner].parcel_no */\n      0x00\n      add\n        /* \"contracts/Parcel.sol\":886:927  _parcel_land[owner].parcel_no = parcel_no */\n      dup2\n      swap1\n      sstore\n      pop\n        /* \"contracts/Parcel.sol\":970:980  owner_name */\n      dup3\n        /* \"contracts/Parcel.sol\":937:949  _parcel_land */\n      0x01\n        /* \"contracts/Parcel.sol\":937:956  _parcel_land[owner] */\n      0x00\n        /* \"contracts/Parcel.sol\":950:955  owner */\n      dup8\n        /* \"contracts/Parcel.sol\":937:956  _parcel_land[owner] */\n      0xffffffffffffffffffffffffffffffffffffffff\n      and\n      0xffffffffffffffffffffffffffffffffffffffff\n      and\n      dup2\n      mstore\n      0x20\n      add\n      swap1\n      dup2\n      mstore\n      0x20\n      add\n      0x00\n      keccak256\n        /* \"contracts/Parcel.sol\":937:967  _parcel_land[owner].owner_name */\n      0x01\n      add\n        /* \"contracts/Parcel.sol\":937:980  _parcel_land[owner].owner_name = owner_name */\n      swap1\n      dup1\n      mload\n      swap1\n      0x20\n      add\n      swap1\n      tag_77\n      swap3\n      swap2\n      swap1\n      tag_62\n      jump\t// in\n    tag_77:\n      pop\n        /* \"contracts/Parcel.sol\":1018:1023  price */\n      dup2\n        /* \"contracts/Parcel.sol\":990:1002  _parcel_land */\n      0x01\n        /* \"contracts/Parcel.sol\":990:1009  _parcel_land[owner] */\n      0x00\n        /* \"contracts/Parcel.sol\":1003:1008  owner */\n      dup8\n        /* \"contracts/Parcel.sol\":990:1009  _parcel_land[owner] */\n      0xffffffffffffffffffffffffffffffffffffffff\n      and\n      0xffffffffffffffffffffffffffffffffffffffff\n      and\n      dup2\n      mstore\n      0x20\n      add\n      swap1\n      dup2\n      mstore\n      0x20\n      add\n      0x00\n      keccak256\n        /* \"contracts/Parcel.sol\":990:1015  _parcel_land[owner].price */\n      0x02\n      add\n        /* \"contracts/Parcel.sol\":990:1023  _parcel_land[owner].price = price */\n      dup2\n      swap1\n      sstore\n      pop\n        /* \"contracts/Parcel.sol\":1060:1064  area */\n      dup1\n        /* \"contracts/Parcel.sol\":1033:1045  _parcel_land */\n      0x01\n        /* \"contracts/Parcel.sol\":1033:1052  _parcel_land[owner] */\n      0x00\n        /* \"contracts/Parcel.sol\":1046:1051  owner */\n      dup8\n        /* \"contracts/Parcel.sol\":1033:1052  _parcel_land[owner] */\n      0xffffffffffffffffffffffffffffffffffffffff\n      and\n      0xffffffffffffffffffffffffffffffffffffffff\n      and\n      dup2\n      mstore\n      0x20\n      add\n      swap1\n      dup2\n      mstore\n      0x20\n      add\n      0x00\n      keccak256\n        /* \"contracts/Parcel.sol\":1033:1057  _parcel_land[owner].area */\n      0x03\n      add\n        /* \"contracts/Parcel.sol\":1033:1064  _parcel_land[owner].area = area */\n      dup2\n      swap1\n      sstore\n      pop\n        /* \"contracts/Parcel.sol\":751:1072  function createParcel(address owner, uint parcel_no, string memory owner_name, uint price, uint area) isStaff public payable {\r... */\n      pop\n      pop\n      pop\n      pop\n      pop\n      jump\t// out\n    tag_34:\n      mload(0x40)\n      dup1\n      0x80\n      add\n      0x40\n      mstore\n      dup1\n      0x00\n      dup2\n      mstore\n      0x20\n      add\n      0x60\n      dup2\n      mstore\n      0x20\n      add\n      0x00\n      dup2\n      mstore\n      0x20\n      add\n      0x00\n      dup2\n      mstore\n      pop\n      swap1\n      jump\t// out\n    tag_47:\n      mload(0x40)\n      dup1\n      0x60\n      add\n      0x40\n      mstore\n      dup1\n      0x00\n      dup2\n      mstore\n      0x20\n      add\n      0x60\n      dup2\n      mstore\n      0x20\n      add\n      0x00\n      dup2\n      mstore\n      pop\n      swap1\n      jump\t// out\n    tag_62:\n      dup3\n      dup1\n      sload\n      tag_78\n      swap1\n      tag_41\n      jump\t// in\n    tag_78:\n      swap1\n      0x00\n      mstore\n      keccak256(0x00, 0x20)\n      swap1\n      0x1f\n      add\n      0x20\n      swap1\n      div\n      dup2\n      add\n      swap3\n      dup3\n      tag_80\n      jumpi\n      0x00\n      dup6\n      sstore\n      jump(tag_79)\n    tag_80:\n      dup3\n      0x1f\n      lt\n      tag_81\n      jumpi\n      dup1\n      mload\n      not(0xff)\n      and\n      dup4\n      dup1\n      add\n      or\n      dup6\n      sstore\n      jump(tag_79)\n    tag_81:\n      dup3\n      dup1\n      add\n      0x01\n      add\n      dup6\n      sstore\n      dup3\n      iszero\n      tag_79\n      jumpi\n      swap2\n      dup3\n      add\n    tag_82:\n      dup3\n      dup2\n      gt\n      iszero\n      tag_83\n      jumpi\n      dup3\n      mload\n      dup3\n      sstore\n      swap2\n      0x20\n      add\n      swap2\n      swap1\n      0x01\n      add\n      swap1\n      jump(tag_82)\n    tag_83:\n    tag_79:\n      pop\n      swap1\n      pop\n      tag_84\n      swap2\n      swap1\n      tag_85\n      jump\t// in\n    tag_84:\n      pop\n      swap1\n      jump\t// out\n    tag_85:\n    tag_86:\n      dup1\n      dup3\n      gt\n      iszero\n      tag_87\n      jumpi\n      0x00\n      dup2\n      0x00\n      swap1\n      sstore\n      pop\n      0x01\n      add\n      jump(tag_86)\n    tag_87:\n      pop\n      swap1\n      jump\t// out\n        /* \"#utility.yul\":7:419   */\n    tag_89:\n        /* \"#utility.yul\":85:90   */\n      0x00\n        /* \"#utility.yul\":110:176   */\n      tag_91\n        /* \"#utility.yul\":126:175   */\n      tag_92\n        /* \"#utility.yul\":168:174   */\n      dup5\n        /* \"#utility.yul\":126:175   */\n      tag_93\n      jump\t// in\n    tag_92:\n        /* \"#utility.yul\":110:176   */\n      tag_94\n      jump\t// in\n    tag_91:\n        /* \"#utility.yul\":101:176   */\n      swap1\n      pop\n        /* \"#utility.yul\":199:205   */\n      dup3\n        /* \"#utility.yul\":192:197   */\n      dup2\n        /* \"#utility.yul\":185:206   */\n      mstore\n        /* \"#utility.yul\":237:241   */\n      0x20\n        /* \"#utility.yul\":230:235   */\n      dup2\n        /* \"#utility.yul\":226:242   */\n      add\n        /* \"#utility.yul\":275:278   */\n      dup5\n        /* \"#utility.yul\":266:272   */\n      dup5\n        /* \"#utility.yul\":261:264   */\n      dup5\n        /* \"#utility.yul\":257:273   */\n      add\n        /* \"#utility.yul\":254:279   */\n      gt\n        /* \"#utility.yul\":251:363   */\n      iszero\n      tag_95\n      jumpi\n        /* \"#utility.yul\":282:361   */\n      tag_96\n      tag_97\n      jump\t// in\n    tag_96:\n        /* \"#utility.yul\":251:363   */\n    tag_95:\n        /* \"#utility.yul\":372:413   */\n      tag_98\n        /* \"#utility.yul\":406:412   */\n      dup5\n        /* \"#utility.yul\":401:404   */\n      dup3\n        /* \"#utility.yul\":396:399   */\n      dup6\n        /* \"#utility.yul\":372:413   */\n      tag_99\n      jump\t// in\n    tag_98:\n        /* \"#utility.yul\":91:419   */\n      pop\n        /* \"#utility.yul\":7:419   */\n      swap4\n      swap3\n      pop\n      pop\n      pop\n      jump\t// out\n        /* \"#utility.yul\":425:564   */\n    tag_100:\n        /* \"#utility.yul\":471:476   */\n      0x00\n        /* \"#utility.yul\":509:515   */\n      dup2\n        /* \"#utility.yul\":496:516   */\n      calldataload\n        /* \"#utility.yul\":487:516   */\n      swap1\n      pop\n        /* \"#utility.yul\":525:558   */\n      tag_102\n        /* \"#utility.yul\":552:557   */\n      dup2\n        /* \"#utility.yul\":525:558   */\n      tag_103\n      jump\t// in\n    tag_102:\n        /* \"#utility.yul\":425:564   */\n      swap3\n      swap2\n      pop\n      pop\n      jump\t// out\n        /* \"#utility.yul\":584:924   */\n    tag_104:\n        /* \"#utility.yul\":640:645   */\n      0x00\n        /* \"#utility.yul\":689:692   */\n      dup3\n        /* \"#utility.yul\":682:686   */\n      0x1f\n        /* \"#utility.yul\":674:680   */\n      dup4\n        /* \"#utility.yul\":670:687   */\n      add\n        /* \"#utility.yul\":666:693   */\n      slt\n        /* \"#utility.yul\":656:778   */\n      tag_106\n      jumpi\n        /* \"#utility.yul\":697:776   */\n      tag_107\n      tag_108\n      jump\t// in\n    tag_107:\n        /* \"#utility.yul\":656:778   */\n    tag_106:\n        /* \"#utility.yul\":814:820   */\n      dup2\n        /* \"#utility.yul\":801:821   */\n      calldataload\n        /* \"#utility.yul\":839:918   */\n      tag_109\n        /* \"#utility.yul\":914:917   */\n      dup5\n        /* \"#utility.yul\":906:912   */\n      dup3\n        /* \"#utility.yul\":899:903   */\n      0x20\n        /* \"#utility.yul\":891:897   */\n      dup7\n        /* \"#utility.yul\":887:904   */\n      add\n        /* \"#utility.yul\":839:918   */\n      tag_89\n      jump\t// in\n    tag_109:\n        /* \"#utility.yul\":830:918   */\n      swap2\n      pop\n        /* \"#utility.yul\":646:924   */\n      pop\n        /* \"#utility.yul\":584:924   */\n      swap3\n      swap2\n      pop\n      pop\n      jump\t// out\n        /* \"#utility.yul\":930:1069   */\n    tag_110:\n        /* \"#utility.yul\":976:981   */\n      0x00\n        /* \"#utility.yul\":1014:1020   */\n      dup2\n        /* \"#utility.yul\":1001:1021   */\n      calldataload\n        /* \"#utility.yul\":992:1021   */\n      swap1\n      pop\n        /* \"#utility.yul\":1030:1063   */\n      tag_112\n        /* \"#utility.yul\":1057:1062   */\n      dup2\n        /* \"#utility.yul\":1030:1063   */\n      tag_113\n      jump\t// in\n    tag_112:\n        /* \"#utility.yul\":930:1069   */\n      swap3\n      swap2\n      pop\n      pop\n      jump\t// out\n        /* \"#utility.yul\":1075:1404   */\n    tag_10:\n        /* \"#utility.yul\":1134:1140   */\n      0x00\n        /* \"#utility.yul\":1183:1185   */\n      0x20\n        /* \"#utility.yul\":1171:1180   */\n      dup3\n        /* \"#utility.yul\":1162:1169   */\n      dup5\n        /* \"#utility.yul\":1158:1181   */\n      sub\n        /* \"#utility.yul\":1154:1186   */\n      slt\n        /* \"#utility.yul\":1151:1270   */\n      iszero\n      tag_115\n      jumpi\n        /* \"#utility.yul\":1189:1268   */\n      tag_116\n      tag_117\n      jump\t// in\n    tag_116:\n        /* \"#utility.yul\":1151:1270   */\n    tag_115:\n        /* \"#utility.yul\":1309:1310   */\n      0x00\n        /* \"#utility.yul\":1334:1387   */\n      tag_118\n        /* \"#utility.yul\":1379:1386   */\n      dup5\n        /* \"#utility.yul\":1370:1376   */\n      dup3\n        /* \"#utility.yul\":1359:1368   */\n      dup6\n        /* \"#utility.yul\":1355:1377   */\n      add\n        /* \"#utility.yul\":1334:1387   */\n      tag_100\n      jump\t// in\n    tag_118:\n        /* \"#utility.yul\":1324:1387   */\n      swap2\n      pop\n        /* \"#utility.yul\":1280:1397   */\n      pop\n        /* \"#utility.yul\":1075:1404   */\n      swap3\n      swap2\n      pop\n      pop\n      jump\t// out\n        /* \"#utility.yul\":1410:2209   */\n    tag_27:\n        /* \"#utility.yul\":1497:1503   */\n      0x00\n        /* \"#utility.yul\":1505:1511   */\n      dup1\n        /* \"#utility.yul\":1513:1519   */\n      0x00\n        /* \"#utility.yul\":1562:1564   */\n      0x60\n        /* \"#utility.yul\":1550:1559   */\n      dup5\n        /* \"#utility.yul\":1541:1548   */\n      dup7\n        /* \"#utility.yul\":1537:1560   */\n      sub\n        /* \"#utility.yul\":1533:1565   */\n      slt\n        /* \"#utility.yul\":1530:1649   */\n      iszero\n      tag_120\n      jumpi\n        /* \"#utility.yul\":1568:1647   */\n      tag_121\n      tag_117\n      jump\t// in\n    tag_121:\n        /* \"#utility.yul\":1530:1649   */\n    tag_120:\n        /* \"#utility.yul\":1688:1689   */\n      0x00\n        /* \"#utility.yul\":1713:1766   */\n      tag_122\n        /* \"#utility.yul\":1758:1765   */\n      dup7\n        /* \"#utility.yul\":1749:1755   */\n      dup3\n        /* \"#utility.yul\":1738:1747   */\n      dup8\n        /* \"#utility.yul\":1734:1756   */\n      add\n        /* \"#utility.yul\":1713:1766   */\n      tag_100\n      jump\t// in\n    tag_122:\n        /* \"#utility.yul\":1703:1766   */\n      swap4\n      pop\n        /* \"#utility.yul\":1659:1776   */\n      pop\n        /* \"#utility.yul\":1843:1845   */\n      0x20\n        /* \"#utility.yul\":1832:1841   */\n      dup5\n        /* \"#utility.yul\":1828:1846   */\n      add\n        /* \"#utility.yul\":1815:1847   */\n      calldataload\n        /* \"#utility.yul\":1874:1892   */\n      0xffffffffffffffff\n        /* \"#utility.yul\":1866:1872   */\n      dup2\n        /* \"#utility.yul\":1863:1893   */\n      gt\n        /* \"#utility.yul\":1860:1977   */\n      iszero\n      tag_123\n      jumpi\n        /* \"#utility.yul\":1896:1975   */\n      tag_124\n      tag_125\n      jump\t// in\n    tag_124:\n        /* \"#utility.yul\":1860:1977   */\n    tag_123:\n        /* \"#utility.yul\":2001:2064   */\n      tag_126\n        /* \"#utility.yul\":2056:2063   */\n      dup7\n        /* \"#utility.yul\":2047:2053   */\n      dup3\n        /* \"#utility.yul\":2036:2045   */\n      dup8\n        /* \"#utility.yul\":2032:2054   */\n      add\n        /* \"#utility.yul\":2001:2064   */\n      tag_104\n      jump\t// in\n    tag_126:\n        /* \"#utility.yul\":1991:2064   */\n      swap3\n      pop\n        /* \"#utility.yul\":1786:2074   */\n      pop\n        /* \"#utility.yul\":2113:2115   */\n      0x40\n        /* \"#utility.yul\":2139:2192   */\n      tag_127\n        /* \"#utility.yul\":2184:2191   */\n      dup7\n        /* \"#utility.yul\":2175:2181   */\n      dup3\n        /* \"#utility.yul\":2164:2173   */\n      dup8\n        /* \"#utility.yul\":2160:2182   */\n      add\n        /* \"#utility.yul\":2139:2192   */\n      tag_110\n      jump\t// in\n    tag_127:\n        /* \"#utility.yul\":2129:2192   */\n      swap2\n      pop\n        /* \"#utility.yul\":2084:2202   */\n      pop\n        /* \"#utility.yul\":1410:2209   */\n      swap3\n      pop\n      swap3\n      pop\n      swap3\n      jump\t// out\n        /* \"#utility.yul\":2215:3160   */\n    tag_23:\n        /* \"#utility.yul\":2311:2317   */\n      0x00\n        /* \"#utility.yul\":2319:2325   */\n      dup1\n        /* \"#utility.yul\":2327:2333   */\n      0x00\n        /* \"#utility.yul\":2335:2341   */\n      dup1\n        /* \"#utility.yul\":2384:2387   */\n      0x80\n        /* \"#utility.yul\":2372:2381   */\n      dup6\n        /* \"#utility.yul\":2363:2370   */\n      dup8\n        /* \"#utility.yul\":2359:2382   */\n      sub\n        /* \"#utility.yul\":2355:2388   */\n      slt\n        /* \"#utility.yul\":2352:2472   */\n      iszero\n      tag_129\n      jumpi\n        /* \"#utility.yul\":2391:2470   */\n      tag_130\n      tag_117\n      jump\t// in\n    tag_130:\n        /* \"#utility.yul\":2352:2472   */\n    tag_129:\n        /* \"#utility.yul\":2511:2512   */\n      0x00\n        /* \"#utility.yul\":2536:2589   */\n      tag_131\n        /* \"#utility.yul\":2581:2588   */\n      dup8\n        /* \"#utility.yul\":2572:2578   */\n      dup3\n        /* \"#utility.yul\":2561:2570   */\n      dup9\n        /* \"#utility.yul\":2557:2579   */\n      add\n        /* \"#utility.yul\":2536:2589   */\n      tag_100\n      jump\t// in\n    tag_131:\n        /* \"#utility.yul\":2526:2589   */\n      swap5\n      pop\n        /* \"#utility.yul\":2482:2599   */\n      pop\n        /* \"#utility.yul\":2638:2640   */\n      0x20\n        /* \"#utility.yul\":2664:2717   */\n      tag_132\n        /* \"#utility.yul\":2709:2716   */\n      dup8\n        /* \"#utility.yul\":2700:2706   */\n      dup3\n        /* \"#utility.yul\":2689:2698   */\n      dup9\n        /* \"#utility.yul\":2685:2707   */\n      add\n        /* \"#utility.yul\":2664:2717   */\n      tag_110\n      jump\t// in\n    tag_132:\n        /* \"#utility.yul\":2654:2717   */\n      swap4\n      pop\n        /* \"#utility.yul\":2609:2727   */\n      pop\n        /* \"#utility.yul\":2794:2796   */\n      0x40\n        /* \"#utility.yul\":2783:2792   */\n      dup6\n        /* \"#utility.yul\":2779:2797   */\n      add\n        /* \"#utility.yul\":2766:2798   */\n      calldataload\n        /* \"#utility.yul\":2825:2843   */\n      0xffffffffffffffff\n        /* \"#utility.yul\":2817:2823   */\n      dup2\n        /* \"#utility.yul\":2814:2844   */\n      gt\n        /* \"#utility.yul\":2811:2928   */\n      iszero\n      tag_133\n      jumpi\n        /* \"#utility.yul\":2847:2926   */\n      tag_134\n      tag_125\n      jump\t// in\n    tag_134:\n        /* \"#utility.yul\":2811:2928   */\n    tag_133:\n        /* \"#utility.yul\":2952:3015   */\n      tag_135\n        /* \"#utility.yul\":3007:3014   */\n      dup8\n        /* \"#utility.yul\":2998:3004   */\n      dup3\n        /* \"#utility.yul\":2987:2996   */\n      dup9\n        /* \"#utility.yul\":2983:3005   */\n      add\n        /* \"#utility.yul\":2952:3015   */\n      tag_104\n      jump\t// in\n    tag_135:\n        /* \"#utility.yul\":2942:3015   */\n      swap3\n      pop\n        /* \"#utility.yul\":2737:3025   */\n      pop\n        /* \"#utility.yul\":3064:3066   */\n      0x60\n        /* \"#utility.yul\":3090:3143   */\n      tag_136\n        /* \"#utility.yul\":3135:3142   */\n      dup8\n        /* \"#utility.yul\":3126:3132   */\n      dup3\n        /* \"#utility.yul\":3115:3124   */\n      dup9\n        /* \"#utility.yul\":3111:3133   */\n      add\n        /* \"#utility.yul\":3090:3143   */\n      tag_110\n      jump\t// in\n    tag_136:\n        /* \"#utility.yul\":3080:3143   */\n      swap2\n      pop\n        /* \"#utility.yul\":3035:3153   */\n      pop\n        /* \"#utility.yul\":2215:3160   */\n      swap3\n      swap6\n      swap2\n      swap5\n      pop\n      swap3\n      pop\n      jump\t// out\n        /* \"#utility.yul\":3166:4257   */\n    tag_31:\n        /* \"#utility.yul\":3271:3277   */\n      0x00\n        /* \"#utility.yul\":3279:3285   */\n      dup1\n        /* \"#utility.yul\":3287:3293   */\n      0x00\n        /* \"#utility.yul\":3295:3301   */\n      dup1\n        /* \"#utility.yul\":3303:3309   */\n      0x00\n        /* \"#utility.yul\":3352:3355   */\n      0xa0\n        /* \"#utility.yul\":3340:3349   */\n      dup7\n        /* \"#utility.yul\":3331:3338   */\n      dup9\n        /* \"#utility.yul\":3327:3350   */\n      sub\n        /* \"#utility.yul\":3323:3356   */\n      slt\n        /* \"#utility.yul\":3320:3440   */\n      iszero\n      tag_138\n      jumpi\n        /* \"#utility.yul\":3359:3438   */\n      tag_139\n      tag_117\n      jump\t// in\n    tag_139:\n        /* \"#utility.yul\":3320:3440   */\n    tag_138:\n        /* \"#utility.yul\":3479:3480   */\n      0x00\n        /* \"#utility.yul\":3504:3557   */\n      tag_140\n        /* \"#utility.yul\":3549:3556   */\n      dup9\n        /* \"#utility.yul\":3540:3546   */\n      dup3\n        /* \"#utility.yul\":3529:3538   */\n      dup10\n        /* \"#utility.yul\":3525:3547   */\n      add\n        /* \"#utility.yul\":3504:3557   */\n      tag_100\n      jump\t// in\n    tag_140:\n        /* \"#utility.yul\":3494:3557   */\n      swap6\n      pop\n        /* \"#utility.yul\":3450:3567   */\n      pop\n        /* \"#utility.yul\":3606:3608   */\n      0x20\n        /* \"#utility.yul\":3632:3685   */\n      tag_141\n        /* \"#utility.yul\":3677:3684   */\n      dup9\n        /* \"#utility.yul\":3668:3674   */\n      dup3\n        /* \"#utility.yul\":3657:3666   */\n      dup10\n        /* \"#utility.yul\":3653:3675   */\n      add\n        /* \"#utility.yul\":3632:3685   */\n      tag_110\n      jump\t// in\n    tag_141:\n        /* \"#utility.yul\":3622:3685   */\n      swap5\n      pop\n        /* \"#utility.yul\":3577:3695   */\n      pop\n        /* \"#utility.yul\":3762:3764   */\n      0x40\n        /* \"#utility.yul\":3751:3760   */\n      dup7\n        /* \"#utility.yul\":3747:3765   */\n      add\n        /* \"#utility.yul\":3734:3766   */\n      calldataload\n        /* \"#utility.yul\":3793:3811   */\n      0xffffffffffffffff\n        /* \"#utility.yul\":3785:3791   */\n      dup2\n        /* \"#utility.yul\":3782:3812   */\n      gt\n        /* \"#utility.yul\":3779:3896   */\n      iszero\n      tag_142\n      jumpi\n        /* \"#utility.yul\":3815:3894   */\n      tag_143\n      tag_125\n      jump\t// in\n    tag_143:\n        /* \"#utility.yul\":3779:3896   */\n    tag_142:\n        /* \"#utility.yul\":3920:3983   */\n      tag_144\n        /* \"#utility.yul\":3975:3982   */\n      dup9\n        /* \"#utility.yul\":3966:3972   */\n      dup3\n        /* \"#utility.yul\":3955:3964   */\n      dup10\n        /* \"#utility.yul\":3951:3973   */\n      add\n        /* \"#utility.yul\":3920:3983   */\n      tag_104\n      jump\t// in\n    tag_144:\n        /* \"#utility.yul\":3910:3983   */\n      swap4\n      pop\n        /* \"#utility.yul\":3705:3993   */\n      pop\n        /* \"#utility.yul\":4032:4034   */\n      0x60\n        /* \"#utility.yul\":4058:4111   */\n      tag_145\n        /* \"#utility.yul\":4103:4110   */\n      dup9\n        /* \"#utility.yul\":4094:4100   */\n      dup3\n        /* \"#utility.yul\":4083:4092   */\n      dup10\n        /* \"#utility.yul\":4079:4101   */\n      add\n        /* \"#utility.yul\":4058:4111   */\n      tag_110\n      jump\t// in\n    tag_145:\n        /* \"#utility.yul\":4048:4111   */\n      swap3\n      pop\n        /* \"#utility.yul\":4003:4121   */\n      pop\n        /* \"#utility.yul\":4160:4163   */\n      0x80\n        /* \"#utility.yul\":4187:4240   */\n      tag_146\n        /* \"#utility.yul\":4232:4239   */\n      dup9\n        /* \"#utility.yul\":4223:4229   */\n      dup3\n        /* \"#utility.yul\":4212:4221   */\n      dup10\n        /* \"#utility.yul\":4208:4230   */\n      add\n        /* \"#utility.yul\":4187:4240   */\n      tag_110\n      jump\t// in\n    tag_146:\n        /* \"#utility.yul\":4177:4240   */\n      swap2\n      pop\n        /* \"#utility.yul\":4131:4250   */\n      pop\n        /* \"#utility.yul\":3166:4257   */\n      swap3\n      swap6\n      pop\n      swap3\n      swap6\n      swap1\n      swap4\n      pop\n      jump\t// out\n        /* \"#utility.yul\":4263:4607   */\n    tag_147:\n        /* \"#utility.yul\":4341:4344   */\n      0x00\n        /* \"#utility.yul\":4369:4408   */\n      tag_149\n        /* \"#utility.yul\":4402:4407   */\n      dup3\n        /* \"#utility.yul\":4369:4408   */\n      tag_150\n      jump\t// in\n    tag_149:\n        /* \"#utility.yul\":4424:4485   */\n      tag_151\n        /* \"#utility.yul\":4478:4484   */\n      dup2\n        /* \"#utility.yul\":4473:4476   */\n      dup6\n        /* \"#utility.yul\":4424:4485   */\n      tag_152\n      jump\t// in\n    tag_151:\n        /* \"#utility.yul\":4417:4485   */\n      swap4\n      pop\n        /* \"#utility.yul\":4494:4546   */\n      tag_153\n        /* \"#utility.yul\":4539:4545   */\n      dup2\n        /* \"#utility.yul\":4534:4537   */\n      dup6\n        /* \"#utility.yul\":4527:4531   */\n      0x20\n        /* \"#utility.yul\":4520:4525   */\n      dup7\n        /* \"#utility.yul\":4516:4532   */\n      add\n        /* \"#utility.yul\":4494:4546   */\n      tag_154\n      jump\t// in\n    tag_153:\n        /* \"#utility.yul\":4571:4600   */\n      tag_155\n        /* \"#utility.yul\":4593:4599   */\n      dup2\n        /* \"#utility.yul\":4571:4600   */\n      tag_156\n      jump\t// in\n    tag_155:\n        /* \"#utility.yul\":4566:4569   */\n      dup5\n        /* \"#utility.yul\":4562:4601   */\n      add\n        /* \"#utility.yul\":4555:4601   */\n      swap2\n      pop\n        /* \"#utility.yul\":4345:4607   */\n      pop\n        /* \"#utility.yul\":4263:4607   */\n      swap3\n      swap2\n      pop\n      pop\n      jump\t// out\n        /* \"#utility.yul\":4613:4979   */\n    tag_157:\n        /* \"#utility.yul\":4755:4758   */\n      0x00\n        /* \"#utility.yul\":4776:4843   */\n      tag_159\n        /* \"#utility.yul\":4840:4842   */\n      0x1d\n        /* \"#utility.yul\":4835:4838   */\n      dup4\n        /* \"#utility.yul\":4776:4843   */\n      tag_160\n      jump\t// in\n    tag_159:\n        /* \"#utility.yul\":4769:4843   */\n      swap2\n      pop\n        /* \"#utility.yul\":4852:4945   */\n      tag_161\n        /* \"#utility.yul\":4941:4944   */\n      dup3\n        /* \"#utility.yul\":4852:4945   */\n      tag_162\n      jump\t// in\n    tag_161:\n        /* \"#utility.yul\":4970:4972   */\n      0x20\n        /* \"#utility.yul\":4965:4968   */\n      dup3\n        /* \"#utility.yul\":4961:4973   */\n      add\n        /* \"#utility.yul\":4954:4973   */\n      swap1\n      pop\n        /* \"#utility.yul\":4613:4979   */\n      swap2\n      swap1\n      pop\n      jump\t// out\n        /* \"#utility.yul\":4985:5351   */\n    tag_163:\n        /* \"#utility.yul\":5127:5130   */\n      0x00\n        /* \"#utility.yul\":5148:5215   */\n      tag_165\n        /* \"#utility.yul\":5212:5214   */\n      0x1d\n        /* \"#utility.yul\":5207:5210   */\n      dup4\n        /* \"#utility.yul\":5148:5215   */\n      tag_160\n      jump\t// in\n    tag_165:\n        /* \"#utility.yul\":5141:5215   */\n      swap2\n      pop\n        /* \"#utility.yul\":5224:5317   */\n      tag_166\n        /* \"#utility.yul\":5313:5316   */\n      dup3\n        /* \"#utility.yul\":5224:5317   */\n      tag_167\n      jump\t// in\n    tag_166:\n        /* \"#utility.yul\":5342:5344   */\n      0x20\n        /* \"#utility.yul\":5337:5340   */\n      dup3\n        /* \"#utility.yul\":5333:5345   */\n      add\n        /* \"#utility.yul\":5326:5345   */\n      swap1\n      pop\n        /* \"#utility.yul\":4985:5351   */\n      swap2\n      swap1\n      pop\n      jump\t// out\n        /* \"#utility.yul\":5391:6177   */\n    tag_168:\n        /* \"#utility.yul\":5500:5503   */\n      0x00\n        /* \"#utility.yul\":5536:5540   */\n      0x60\n        /* \"#utility.yul\":5531:5534   */\n      dup4\n        /* \"#utility.yul\":5527:5541   */\n      add\n        /* \"#utility.yul\":5628:5632   */\n      0x00\n        /* \"#utility.yul\":5621:5626   */\n      dup4\n        /* \"#utility.yul\":5617:5633   */\n      add\n        /* \"#utility.yul\":5611:5634   */\n      mload\n        /* \"#utility.yul\":5647:5710   */\n      tag_170\n        /* \"#utility.yul\":5704:5708   */\n      0x00\n        /* \"#utility.yul\":5699:5702   */\n      dup7\n        /* \"#utility.yul\":5695:5709   */\n      add\n        /* \"#utility.yul\":5681:5693   */\n      dup3\n        /* \"#utility.yul\":5647:5710   */\n      tag_171\n      jump\t// in\n    tag_170:\n        /* \"#utility.yul\":5551:5720   */\n      pop\n        /* \"#utility.yul\":5807:5811   */\n      0x20\n        /* \"#utility.yul\":5800:5805   */\n      dup4\n        /* \"#utility.yul\":5796:5812   */\n      add\n        /* \"#utility.yul\":5790:5813   */\n      mload\n        /* \"#utility.yul\":5860:5863   */\n      dup5\n        /* \"#utility.yul\":5854:5858   */\n      dup3\n        /* \"#utility.yul\":5850:5864   */\n      sub\n        /* \"#utility.yul\":5843:5847   */\n      0x20\n        /* \"#utility.yul\":5838:5841   */\n      dup7\n        /* \"#utility.yul\":5834:5848   */\n      add\n        /* \"#utility.yul\":5827:5865   */\n      mstore\n        /* \"#utility.yul\":5886:5959   */\n      tag_172\n        /* \"#utility.yul\":5954:5958   */\n      dup3\n        /* \"#utility.yul\":5940:5952   */\n      dup3\n        /* \"#utility.yul\":5886:5959   */\n      tag_147\n      jump\t// in\n    tag_172:\n        /* \"#utility.yul\":5878:5959   */\n      swap2\n      pop\n        /* \"#utility.yul\":5730:5970   */\n      pop\n        /* \"#utility.yul\":6058:6062   */\n      0x40\n        /* \"#utility.yul\":6051:6056   */\n      dup4\n        /* \"#utility.yul\":6047:6063   */\n      add\n        /* \"#utility.yul\":6041:6064   */\n      mload\n        /* \"#utility.yul\":6077:6140   */\n      tag_173\n        /* \"#utility.yul\":6134:6138   */\n      0x40\n        /* \"#utility.yul\":6129:6132   */\n      dup7\n        /* \"#utility.yul\":6125:6139   */\n      add\n        /* \"#utility.yul\":6111:6123   */\n      dup3\n        /* \"#utility.yul\":6077:6140   */\n      tag_171\n      jump\t// in\n    tag_173:\n        /* \"#utility.yul\":5980:6150   */\n      pop\n        /* \"#utility.yul\":6167:6171   */\n      dup1\n        /* \"#utility.yul\":6160:6171   */\n      swap2\n      pop\n        /* \"#utility.yul\":5505:6177   */\n      pop\n        /* \"#utility.yul\":5391:6177   */\n      swap3\n      swap2\n      pop\n      pop\n      jump\t// out\n        /* \"#utility.yul\":6231:7201   */\n    tag_174:\n        /* \"#utility.yul\":6354:6357   */\n      0x00\n        /* \"#utility.yul\":6390:6394   */\n      0x80\n        /* \"#utility.yul\":6385:6388   */\n      dup4\n        /* \"#utility.yul\":6381:6395   */\n      add\n        /* \"#utility.yul\":6482:6486   */\n      0x00\n        /* \"#utility.yul\":6475:6480   */\n      dup4\n        /* \"#utility.yul\":6471:6487   */\n      add\n        /* \"#utility.yul\":6465:6488   */\n      mload\n        /* \"#utility.yul\":6501:6564   */\n      tag_176\n        /* \"#utility.yul\":6558:6562   */\n      0x00\n        /* \"#utility.yul\":6553:6556   */\n      dup7\n        /* \"#utility.yul\":6549:6563   */\n      add\n        /* \"#utility.yul\":6535:6547   */\n      dup3\n        /* \"#utility.yul\":6501:6564   */\n      tag_171\n      jump\t// in\n    tag_176:\n        /* \"#utility.yul\":6405:6574   */\n      pop\n        /* \"#utility.yul\":6662:6666   */\n      0x20\n        /* \"#utility.yul\":6655:6660   */\n      dup4\n        /* \"#utility.yul\":6651:6667   */\n      add\n        /* \"#utility.yul\":6645:6668   */\n      mload\n        /* \"#utility.yul\":6715:6718   */\n      dup5\n        /* \"#utility.yul\":6709:6713   */\n      dup3\n        /* \"#utility.yul\":6705:6719   */\n      sub\n        /* \"#utility.yul\":6698:6702   */\n      0x20\n        /* \"#utility.yul\":6693:6696   */\n      dup7\n        /* \"#utility.yul\":6689:6703   */\n      add\n        /* \"#utility.yul\":6682:6720   */\n      mstore\n        /* \"#utility.yul\":6741:6814   */\n      tag_177\n        /* \"#utility.yul\":6809:6813   */\n      dup3\n        /* \"#utility.yul\":6795:6807   */\n      dup3\n        /* \"#utility.yul\":6741:6814   */\n      tag_147\n      jump\t// in\n    tag_177:\n        /* \"#utility.yul\":6733:6814   */\n      swap2\n      pop\n        /* \"#utility.yul\":6584:6825   */\n      pop\n        /* \"#utility.yul\":6908:6912   */\n      0x40\n        /* \"#utility.yul\":6901:6906   */\n      dup4\n        /* \"#utility.yul\":6897:6913   */\n      add\n        /* \"#utility.yul\":6891:6914   */\n      mload\n        /* \"#utility.yul\":6927:6990   */\n      tag_178\n        /* \"#utility.yul\":6984:6988   */\n      0x40\n        /* \"#utility.yul\":6979:6982   */\n      dup7\n        /* \"#utility.yul\":6975:6989   */\n      add\n        /* \"#utility.yul\":6961:6973   */\n      dup3\n        /* \"#utility.yul\":6927:6990   */\n      tag_171\n      jump\t// in\n    tag_178:\n        /* \"#utility.yul\":6835:7000   */\n      pop\n        /* \"#utility.yul\":7082:7086   */\n      0x60\n        /* \"#utility.yul\":7075:7080   */\n      dup4\n        /* \"#utility.yul\":7071:7087   */\n      add\n        /* \"#utility.yul\":7065:7088   */\n      mload\n        /* \"#utility.yul\":7101:7164   */\n      tag_179\n        /* \"#utility.yul\":7158:7162   */\n      0x60\n        /* \"#utility.yul\":7153:7156   */\n      dup7\n        /* \"#utility.yul\":7149:7163   */\n      add\n        /* \"#utility.yul\":7135:7147   */\n      dup3\n        /* \"#utility.yul\":7101:7164   */\n      tag_171\n      jump\t// in\n    tag_179:\n        /* \"#utility.yul\":7010:7174   */\n      pop\n        /* \"#utility.yul\":7191:7195   */\n      dup1\n        /* \"#utility.yul\":7184:7195   */\n      swap2\n      pop\n        /* \"#utility.yul\":6359:7201   */\n      pop\n        /* \"#utility.yul\":6231:7201   */\n      swap3\n      swap2\n      pop\n      pop\n      jump\t// out\n        /* \"#utility.yul\":7207:7315   */\n    tag_171:\n        /* \"#utility.yul\":7284:7308   */\n      tag_181\n        /* \"#utility.yul\":7302:7307   */\n      dup2\n        /* \"#utility.yul\":7284:7308   */\n      tag_182\n      jump\t// in\n    tag_181:\n        /* \"#utility.yul\":7279:7282   */\n      dup3\n        /* \"#utility.yul\":7272:7309   */\n      mstore\n        /* \"#utility.yul\":7207:7315   */\n      pop\n      pop\n      jump\t// out\n        /* \"#utility.yul\":7321:7740   */\n    tag_38:\n        /* \"#utility.yul\":7487:7491   */\n      0x00\n        /* \"#utility.yul\":7525:7527   */\n      0x20\n        /* \"#utility.yul\":7514:7523   */\n      dup3\n        /* \"#utility.yul\":7510:7528   */\n      add\n        /* \"#utility.yul\":7502:7528   */\n      swap1\n      pop\n        /* \"#utility.yul\":7574:7583   */\n      dup2\n        /* \"#utility.yul\":7568:7572   */\n      dup2\n        /* \"#utility.yul\":7564:7584   */\n      sub\n        /* \"#utility.yul\":7560:7561   */\n      0x00\n        /* \"#utility.yul\":7549:7558   */\n      dup4\n        /* \"#utility.yul\":7545:7562   */\n      add\n        /* \"#utility.yul\":7538:7585   */\n      mstore\n        /* \"#utility.yul\":7602:7733   */\n      tag_184\n        /* \"#utility.yul\":7728:7732   */\n      dup2\n        /* \"#utility.yul\":7602:7733   */\n      tag_157\n      jump\t// in\n    tag_184:\n        /* \"#utility.yul\":7594:7733   */\n      swap1\n      pop\n        /* \"#utility.yul\":7321:7740   */\n      swap2\n      swap1\n      pop\n      jump\t// out\n        /* \"#utility.yul\":7746:8165   */\n    tag_70:\n        /* \"#utility.yul\":7912:7916   */\n      0x00\n        /* \"#utility.yul\":7950:7952   */\n      0x20\n        /* \"#utility.yul\":7939:7948   */\n      dup3\n        /* \"#utility.yul\":7935:7953   */\n      add\n        /* \"#utility.yul\":7927:7953   */\n      swap1\n      pop\n        /* \"#utility.yul\":7999:8008   */\n      dup2\n        /* \"#utility.yul\":7993:7997   */\n      dup2\n        /* \"#utility.yul\":7989:8009   */\n      sub\n        /* \"#utility.yul\":7985:7986   */\n      0x00\n        /* \"#utility.yul\":7974:7983   */\n      dup4\n        /* \"#utility.yul\":7970:7987   */\n      add\n        /* \"#utility.yul\":7963:8010   */\n      mstore\n        /* \"#utility.yul\":8027:8158   */\n      tag_186\n        /* \"#utility.yul\":8153:8157   */\n      dup2\n        /* \"#utility.yul\":8027:8158   */\n      tag_163\n      jump\t// in\n    tag_186:\n        /* \"#utility.yul\":8019:8158   */\n      swap1\n      pop\n        /* \"#utility.yul\":7746:8165   */\n      swap2\n      swap1\n      pop\n      jump\t// out\n        /* \"#utility.yul\":8171:8524   */\n    tag_19:\n        /* \"#utility.yul\":8304:8308   */\n      0x00\n        /* \"#utility.yul\":8342:8344   */\n      0x20\n        /* \"#utility.yul\":8331:8340   */\n      dup3\n        /* \"#utility.yul\":8327:8345   */\n      add\n        /* \"#utility.yul\":8319:8345   */\n      swap1\n      pop\n        /* \"#utility.yul\":8391:8400   */\n      dup2\n        /* \"#utility.yul\":8385:8389   */\n      dup2\n        /* \"#utility.yul\":8381:8401   */\n      sub\n        /* \"#utility.yul\":8377:8378   */\n      0x00\n        /* \"#utility.yul\":8366:8375   */\n      dup4\n        /* \"#utility.yul\":8362:8379   */\n      add\n        /* \"#utility.yul\":8355:8402   */\n      mstore\n        /* \"#utility.yul\":8419:8517   */\n      tag_188\n        /* \"#utility.yul\":8512:8516   */\n      dup2\n        /* \"#utility.yul\":8503:8509   */\n      dup5\n        /* \"#utility.yul\":8419:8517   */\n      tag_168\n      jump\t// in\n    tag_188:\n        /* \"#utility.yul\":8411:8517   */\n      swap1\n      pop\n        /* \"#utility.yul\":8171:8524   */\n      swap3\n      swap2\n      pop\n      pop\n      jump\t// out\n        /* \"#utility.yul\":8530:8911   */\n    tag_13:\n        /* \"#utility.yul\":8677:8681   */\n      0x00\n        /* \"#utility.yul\":8715:8717   */\n      0x20\n        /* \"#utility.yul\":8704:8713   */\n      dup3\n        /* \"#utility.yul\":8700:8718   */\n      add\n        /* \"#utility.yul\":8692:8718   */\n      swap1\n      pop\n        /* \"#utility.yul\":8764:8773   */\n      dup2\n        /* \"#utility.yul\":8758:8762   */\n      dup2\n        /* \"#utility.yul\":8754:8774   */\n      sub\n        /* \"#utility.yul\":8750:8751   */\n      0x00\n        /* \"#utility.yul\":8739:8748   */\n      dup4\n        /* \"#utility.yul\":8735:8752   */\n      add\n        /* \"#utility.yul\":8728:8775   */\n      mstore\n        /* \"#utility.yul\":8792:8904   */\n      tag_190\n        /* \"#utility.yul\":8899:8903   */\n      dup2\n        /* \"#utility.yul\":8890:8896   */\n      dup5\n        /* \"#utility.yul\":8792:8904   */\n      tag_174\n      jump\t// in\n    tag_190:\n        /* \"#utility.yul\":8784:8904   */\n      swap1\n      pop\n        /* \"#utility.yul\":8530:8911   */\n      swap3\n      swap2\n      pop\n      pop\n      jump\t// out\n        /* \"#utility.yul\":8917:9046   */\n    tag_94:\n        /* \"#utility.yul\":8951:8957   */\n      0x00\n        /* \"#utility.yul\":8978:8998   */\n      tag_192\n      tag_193\n      jump\t// in\n    tag_192:\n        /* \"#utility.yul\":8968:8998   */\n      swap1\n      pop\n        /* \"#utility.yul\":9007:9040   */\n      tag_194\n        /* \"#utility.yul\":9035:9039   */\n      dup3\n        /* \"#utility.yul\":9027:9033   */\n      dup3\n        /* \"#utility.yul\":9007:9040   */\n      tag_195\n      jump\t// in\n    tag_194:\n        /* \"#utility.yul\":8917:9046   */\n      swap2\n      swap1\n      pop\n      jump\t// out\n        /* \"#utility.yul\":9052:9127   */\n    tag_193:\n        /* \"#utility.yul\":9085:9091   */\n      0x00\n        /* \"#utility.yul\":9118:9120   */\n      0x40\n        /* \"#utility.yul\":9112:9121   */\n      mload\n        /* \"#utility.yul\":9102:9121   */\n      swap1\n      pop\n        /* \"#utility.yul\":9052:9127   */\n      swap1\n      jump\t// out\n        /* \"#utility.yul\":9133:9441   */\n    tag_93:\n        /* \"#utility.yul\":9195:9199   */\n      0x00\n        /* \"#utility.yul\":9285:9303   */\n      0xffffffffffffffff\n        /* \"#utility.yul\":9277:9283   */\n      dup3\n        /* \"#utility.yul\":9274:9304   */\n      gt\n        /* \"#utility.yul\":9271:9327   */\n      iszero\n      tag_198\n      jumpi\n        /* \"#utility.yul\":9307:9325   */\n      tag_199\n      tag_200\n      jump\t// in\n    tag_199:\n        /* \"#utility.yul\":9271:9327   */\n    tag_198:\n        /* \"#utility.yul\":9345:9374   */\n      tag_201\n        /* \"#utility.yul\":9367:9373   */\n      dup3\n        /* \"#utility.yul\":9345:9374   */\n      tag_156\n      jump\t// in\n    tag_201:\n        /* \"#utility.yul\":9337:9374   */\n      swap1\n      pop\n        /* \"#utility.yul\":9429:9433   */\n      0x20\n        /* \"#utility.yul\":9423:9427   */\n      dup2\n        /* \"#utility.yul\":9419:9434   */\n      add\n        /* \"#utility.yul\":9411:9434   */\n      swap1\n      pop\n        /* \"#utility.yul\":9133:9441   */\n      swap2\n      swap1\n      pop\n      jump\t// out\n        /* \"#utility.yul\":9447:9546   */\n    tag_150:\n        /* \"#utility.yul\":9499:9505   */\n      0x00\n        /* \"#utility.yul\":9533:9538   */\n      dup2\n        /* \"#utility.yul\":9527:9539   */\n      mload\n        /* \"#utility.yul\":9517:9539   */\n      swap1\n      pop\n        /* \"#utility.yul\":9447:9546   */\n      swap2\n      swap1\n      pop\n      jump\t// out\n        /* \"#utility.yul\":9552:9711   */\n    tag_152:\n        /* \"#utility.yul\":9626:9637   */\n      0x00\n        /* \"#utility.yul\":9660:9666   */\n      dup3\n        /* \"#utility.yul\":9655:9658   */\n      dup3\n        /* \"#utility.yul\":9648:9667   */\n      mstore\n        /* \"#utility.yul\":9700:9704   */\n      0x20\n        /* \"#utility.yul\":9695:9698   */\n      dup3\n        /* \"#utility.yul\":9691:9705   */\n      add\n        /* \"#utility.yul\":9676:9705   */\n      swap1\n      pop\n        /* \"#utility.yul\":9552:9711   */\n      swap3\n      swap2\n      pop\n      pop\n      jump\t// out\n        /* \"#utility.yul\":9717:9886   */\n    tag_160:\n        /* \"#utility.yul\":9801:9812   */\n      0x00\n        /* \"#utility.yul\":9835:9841   */\n      dup3\n        /* \"#utility.yul\":9830:9833   */\n      dup3\n        /* \"#utility.yul\":9823:9842   */\n      mstore\n        /* \"#utility.yul\":9875:9879   */\n      0x20\n        /* \"#utility.yul\":9870:9873   */\n      dup3\n        /* \"#utility.yul\":9866:9880   */\n      add\n        /* \"#utility.yul\":9851:9880   */\n      swap1\n      pop\n        /* \"#utility.yul\":9717:9886   */\n      swap3\n      swap2\n      pop\n      pop\n      jump\t// out\n        /* \"#utility.yul\":9892:9988   */\n    tag_205:\n        /* \"#utility.yul\":9929:9936   */\n      0x00\n        /* \"#utility.yul\":9958:9982   */\n      tag_207\n        /* \"#utility.yul\":9976:9981   */\n      dup3\n        /* \"#utility.yul\":9958:9982   */\n      tag_208\n      jump\t// in\n    tag_207:\n        /* \"#utility.yul\":9947:9982   */\n      swap1\n      pop\n        /* \"#utility.yul\":9892:9988   */\n      swap2\n      swap1\n      pop\n      jump\t// out\n        /* \"#utility.yul\":9994:10120   */\n    tag_208:\n        /* \"#utility.yul\":10031:10038   */\n      0x00\n        /* \"#utility.yul\":10071:10113   */\n      0xffffffffffffffffffffffffffffffffffffffff\n        /* \"#utility.yul\":10064:10069   */\n      dup3\n        /* \"#utility.yul\":10060:10114   */\n      and\n        /* \"#utility.yul\":10049:10114   */\n      swap1\n      pop\n        /* \"#utility.yul\":9994:10120   */\n      swap2\n      swap1\n      pop\n      jump\t// out\n        /* \"#utility.yul\":10126:10203   */\n    tag_182:\n        /* \"#utility.yul\":10163:10170   */\n      0x00\n        /* \"#utility.yul\":10192:10197   */\n      dup2\n        /* \"#utility.yul\":10181:10197   */\n      swap1\n      pop\n        /* \"#utility.yul\":10126:10203   */\n      swap2\n      swap1\n      pop\n      jump\t// out\n        /* \"#utility.yul\":10209:10363   */\n    tag_99:\n        /* \"#utility.yul\":10293:10299   */\n      dup3\n        /* \"#utility.yul\":10288:10291   */\n      dup2\n        /* \"#utility.yul\":10283:10286   */\n      dup4\n        /* \"#utility.yul\":10270:10300   */\n      calldatacopy\n        /* \"#utility.yul\":10355:10356   */\n      0x00\n        /* \"#utility.yul\":10346:10352   */\n      dup4\n        /* \"#utility.yul\":10341:10344   */\n      dup4\n        /* \"#utility.yul\":10337:10353   */\n      add\n        /* \"#utility.yul\":10330:10357   */\n      mstore\n        /* \"#utility.yul\":10209:10363   */\n      pop\n      pop\n      pop\n      jump\t// out\n        /* \"#utility.yul\":10369:10676   */\n    tag_154:\n        /* \"#utility.yul\":10437:10438   */\n      0x00\n        /* \"#utility.yul\":10447:10560   */\n    tag_213:\n        /* \"#utility.yul\":10461:10467   */\n      dup4\n        /* \"#utility.yul\":10458:10459   */\n      dup2\n        /* \"#utility.yul\":10455:10468   */\n      lt\n        /* \"#utility.yul\":10447:10560   */\n      iszero\n      tag_215\n      jumpi\n        /* \"#utility.yul\":10546:10547   */\n      dup1\n        /* \"#utility.yul\":10541:10544   */\n      dup3\n        /* \"#utility.yul\":10537:10548   */\n      add\n        /* \"#utility.yul\":10531:10549   */\n      mload\n        /* \"#utility.yul\":10527:10528   */\n      dup2\n        /* \"#utility.yul\":10522:10525   */\n      dup5\n        /* \"#utility.yul\":10518:10529   */\n      add\n        /* \"#utility.yul\":10511:10550   */\n      mstore\n        /* \"#utility.yul\":10483:10485   */\n      0x20\n        /* \"#utility.yul\":10480:10481   */\n      dup2\n        /* \"#utility.yul\":10476:10486   */\n      add\n        /* \"#utility.yul\":10471:10486   */\n      swap1\n      pop\n        /* \"#utility.yul\":10447:10560   */\n      jump(tag_213)\n    tag_215:\n        /* \"#utility.yul\":10578:10584   */\n      dup4\n        /* \"#utility.yul\":10575:10576   */\n      dup2\n        /* \"#utility.yul\":10572:10585   */\n      gt\n        /* \"#utility.yul\":10569:10670   */\n      iszero\n      tag_216\n      jumpi\n        /* \"#utility.yul\":10658:10659   */\n      0x00\n        /* \"#utility.yul\":10649:10655   */\n      dup5\n        /* \"#utility.yul\":10644:10647   */\n      dup5\n        /* \"#utility.yul\":10640:10656   */\n      add\n        /* \"#utility.yul\":10633:10660   */\n      mstore\n        /* \"#utility.yul\":10569:10670   */\n    tag_216:\n        /* \"#utility.yul\":10418:10676   */\n      pop\n        /* \"#utility.yul\":10369:10676   */\n      pop\n      pop\n      pop\n      jump\t// out\n        /* \"#utility.yul\":10682:11002   */\n    tag_41:\n        /* \"#utility.yul\":10726:10732   */\n      0x00\n        /* \"#utility.yul\":10763:10764   */\n      0x02\n        /* \"#utility.yul\":10757:10761   */\n      dup3\n        /* \"#utility.yul\":10753:10765   */\n      div\n        /* \"#utility.yul\":10743:10765   */\n      swap1\n      pop\n        /* \"#utility.yul\":10810:10811   */\n      0x01\n        /* \"#utility.yul\":10804:10808   */\n      dup3\n        /* \"#utility.yul\":10800:10812   */\n      and\n        /* \"#utility.yul\":10831:10849   */\n      dup1\n        /* \"#utility.yul\":10821:10902   */\n      tag_218\n      jumpi\n        /* \"#utility.yul\":10887:10891   */\n      0x7f\n        /* \"#utility.yul\":10879:10885   */\n      dup3\n        /* \"#utility.yul\":10875:10892   */\n      and\n        /* \"#utility.yul\":10865:10892   */\n      swap2\n      pop\n        /* \"#utility.yul\":10821:10902   */\n    tag_218:\n        /* \"#utility.yul\":10949:10951   */\n      0x20\n        /* \"#utility.yul\":10941:10947   */\n      dup3\n        /* \"#utility.yul\":10938:10952   */\n      lt\n        /* \"#utility.yul\":10918:10936   */\n      dup2\n        /* \"#utility.yul\":10915:10953   */\n      eq\n        /* \"#utility.yul\":10912:10996   */\n      iszero\n      tag_219\n      jumpi\n        /* \"#utility.yul\":10968:10986   */\n      tag_220\n      tag_221\n      jump\t// in\n    tag_220:\n        /* \"#utility.yul\":10912:10996   */\n    tag_219:\n        /* \"#utility.yul\":10733:11002   */\n      pop\n        /* \"#utility.yul\":10682:11002   */\n      swap2\n      swap1\n      pop\n      jump\t// out\n        /* \"#utility.yul\":11008:11289   */\n    tag_195:\n        /* \"#utility.yul\":11091:11118   */\n      tag_223\n        /* \"#utility.yul\":11113:11117   */\n      dup3\n        /* \"#utility.yul\":11091:11118   */\n      tag_156\n      jump\t// in\n    tag_223:\n        /* \"#utility.yul\":11083:11089   */\n      dup2\n        /* \"#utility.yul\":11079:11119   */\n      add\n        /* \"#utility.yul\":11221:11227   */\n      dup2\n        /* \"#utility.yul\":11209:11219   */\n      dup2\n        /* \"#utility.yul\":11206:11228   */\n      lt\n        /* \"#utility.yul\":11185:11203   */\n      0xffffffffffffffff\n        /* \"#utility.yul\":11173:11183   */\n      dup3\n        /* \"#utility.yul\":11170:11204   */\n      gt\n        /* \"#utility.yul\":11167:11229   */\n      or\n        /* \"#utility.yul\":11164:11252   */\n      iszero\n      tag_224\n      jumpi\n        /* \"#utility.yul\":11232:11250   */\n      tag_225\n      tag_200\n      jump\t// in\n    tag_225:\n        /* \"#utility.yul\":11164:11252   */\n    tag_224:\n        /* \"#utility.yul\":11272:11282   */\n      dup1\n        /* \"#utility.yul\":11268:11270   */\n      0x40\n        /* \"#utility.yul\":11261:11283   */\n      mstore\n        /* \"#utility.yul\":11051:11289   */\n      pop\n        /* \"#utility.yul\":11008:11289   */\n      pop\n      pop\n      jump\t// out\n        /* \"#utility.yul\":11295:11475   */\n    tag_221:\n        /* \"#utility.yul\":11343:11420   */\n      0x4e487b7100000000000000000000000000000000000000000000000000000000\n        /* \"#utility.yul\":11340:11341   */\n      0x00\n        /* \"#utility.yul\":11333:11421   */\n      mstore\n        /* \"#utility.yul\":11440:11444   */\n      0x22\n        /* \"#utility.yul\":11437:11438   */\n      0x04\n        /* \"#utility.yul\":11430:11445   */\n      mstore\n        /* \"#utility.yul\":11464:11468   */\n      0x24\n        /* \"#utility.yul\":11461:11462   */\n      0x00\n        /* \"#utility.yul\":11454:11469   */\n      revert\n        /* \"#utility.yul\":11481:11661   */\n    tag_200:\n        /* \"#utility.yul\":11529:11606   */\n      0x4e487b7100000000000000000000000000000000000000000000000000000000\n        /* \"#utility.yul\":11526:11527   */\n      0x00\n        /* \"#utility.yul\":11519:11607   */\n      mstore\n        /* \"#utility.yul\":11626:11630   */\n      0x41\n        /* \"#utility.yul\":11623:11624   */\n      0x04\n        /* \"#utility.yul\":11616:11631   */\n      mstore\n        /* \"#utility.yul\":11650:11654   */\n      0x24\n        /* \"#utility.yul\":11647:11648   */\n      0x00\n        /* \"#utility.yul\":11640:11655   */\n      revert\n        /* \"#utility.yul\":11667:11784   */\n    tag_108:\n        /* \"#utility.yul\":11776:11777   */\n      0x00\n        /* \"#utility.yul\":11773:11774   */\n      dup1\n        /* \"#utility.yul\":11766:11778   */\n      revert\n        /* \"#utility.yul\":11790:11907   */\n    tag_97:\n        /* \"#utility.yul\":11899:11900   */\n      0x00\n        /* \"#utility.yul\":11896:11897   */\n      dup1\n        /* \"#utility.yul\":11889:11901   */\n      revert\n        /* \"#utility.yul\":11913:12030   */\n    tag_125:\n        /* \"#utility.yul\":12022:12023   */\n      0x00\n        /* \"#utility.yul\":12019:12020   */\n      dup1\n        /* \"#utility.yul\":12012:12024   */\n      revert\n        /* \"#utility.yul\":12036:12153   */\n    tag_117:\n        /* \"#utility.yul\":12145:12146   */\n      0x00\n        /* \"#utility.yul\":12142:12143   */\n      dup1\n        /* \"#utility.yul\":12135:12147   */\n      revert\n        /* \"#utility.yul\":12159:12261   */\n    tag_156:\n        /* \"#utility.yul\":12200:12206   */\n      0x00\n        /* \"#utility.yul\":12251:12253   */\n      0x1f\n        /* \"#utility.yul\":12247:12254   */\n      not\n        /* \"#utility.yul\":12242:12244   */\n      0x1f\n        /* \"#utility.yul\":12235:12240   */\n      dup4\n        /* \"#utility.yul\":12231:12245   */\n      add\n        /* \"#utility.yul\":12227:12255   */\n      and\n        /* \"#utility.yul\":12217:12255   */\n      swap1\n      pop\n        /* \"#utility.yul\":12159:12261   */\n      swap2\n      swap1\n      pop\n      jump\t// out\n        /* \"#utility.yul\":12267:12446   */\n    tag_162:\n        /* \"#utility.yul\":12407:12438   */\n      0x596f7520617265206e6f74206c616e646f66666963652073746166662e000000\n        /* \"#utility.yul\":12403:12404   */\n      0x00\n        /* \"#utility.yul\":12395:12401   */\n      dup3\n        /* \"#utility.yul\":12391:12405   */\n      add\n        /* \"#utility.yul\":12384:12439   */\n      mstore\n        /* \"#utility.yul\":12267:12446   */\n      pop\n      jump\t// out\n        /* \"#utility.yul\":12452:12631   */\n    tag_167:\n        /* \"#utility.yul\":12592:12623   */\n      0x496e73756666696369656e742066756e6420666f722072656465656d2e000000\n        /* \"#utility.yul\":12588:12589   */\n      0x00\n        /* \"#utility.yul\":12580:12586   */\n      dup3\n        /* \"#utility.yul\":12576:12590   */\n      add\n        /* \"#utility.yul\":12569:12624   */\n      mstore\n        /* \"#utility.yul\":12452:12631   */\n      pop\n      jump\t// out\n        /* \"#utility.yul\":12637:12759   */\n    tag_103:\n        /* \"#utility.yul\":12710:12734   */\n      tag_236\n        /* \"#utility.yul\":12728:12733   */\n      dup2\n        /* \"#utility.yul\":12710:12734   */\n      tag_205\n      jump\t// in\n    tag_236:\n        /* \"#utility.yul\":12703:12708   */\n      dup2\n        /* \"#utility.yul\":12700:12735   */\n      eq\n        /* \"#utility.yul\":12690:12753   */\n      tag_237\n      jumpi\n        /* \"#utility.yul\":12749:12750   */\n      0x00\n        /* \"#utility.yul\":12746:12747   */\n      dup1\n        /* \"#utility.yul\":12739:12751   */\n      revert\n        /* \"#utility.yul\":12690:12753   */\n    tag_237:\n        /* \"#utility.yul\":12637:12759   */\n      pop\n      jump\t// out\n        /* \"#utility.yul\":12765:12887   */\n    tag_113:\n        /* \"#utility.yul\":12838:12862   */\n      tag_239\n        /* \"#utility.yul\":12856:12861   */\n      dup2\n        /* \"#utility.yul\":12838:12862   */\n      tag_182\n      jump\t// in\n    tag_239:\n        /* \"#utility.yul\":12831:12836   */\n      dup2\n        /* \"#utility.yul\":12828:12863   */\n      eq\n        /* \"#utility.yul\":12818:12881   */\n      tag_240\n      jumpi\n        /* \"#utility.yul\":12877:12878   */\n      0x00\n        /* \"#utility.yul\":12874:12875   */\n      dup1\n        /* \"#utility.yul\":12867:12879   */\n      revert\n        /* \"#utility.yul\":12818:12881   */\n    tag_240:\n        /* \"#utility.yul\":12765:12887   */\n      pop\n      jump\t// out\n\n    auxdata: 0xa2646970667358221220569b0a1a8dca74e1800be5c86f24398fc981709804d436c34550a8cf22b9316c64736f6c63430008070033\n}\n",
				"bytecode": {
					"linkReferences": {},
					"object": "608060405234801561001057600080fd5b50336000806101000a81548173ffffffffffffffffffffffffffffffffffffffff021916908373ffffffffffffffffffffffffffffffffffffffff16021790555061119a806100606000396000f3fe60806040526004361061004a5760003560e01c8063198e86c61461004f578063215271cb1461008c5780635f62bf42146100c9578063868571ef146100f2578063935656c21461010e575b600080fd5b34801561005b57600080fd5b5061007660048036038101906100719190610b82565b61012a565b6040516100839190610edb565b60405180910390f35b34801561009857600080fd5b506100b360048036038101906100ae9190610b82565b6102c1565b6040516100c09190610eb9565b60405180910390f35b3480156100d557600080fd5b506100f060048036038101906100eb9190610c1e565b61044e565b005b61010c60048036038101906101079190610baf565b61061e565b005b61012860048036038101906101239190610ca1565b61083b565b005b6101326109fc565b60008054906101000a900473ffffffffffffffffffffffffffffffffffffffff1673ffffffffffffffffffffffffffffffffffffffff163373ffffffffffffffffffffffffffffffffffffffff16146101c0576040517f08c379a00000000000000000000000000000000000000000000000000000000081526004016101b790610e79565b60405180910390fd5b600160008373ffffffffffffffffffffffffffffffffffffffff1673ffffffffffffffffffffffffffffffffffffffff1681526020019081526020016000206040518060800160405290816000820154815260200160018201805461022490610ffe565b80601f016020809104026020016040519081016040528092919081815260200182805461025090610ffe565b801561029d5780601f106102725761010080835404028352916020019161029d565b820191906000526020600020905b81548152906001019060200180831161028057829003601f168201915b50505050508152602001600282015481526020016003820154815250509050919050565b6102c9610a24565b60008054906101000a900473ffffffffffffffffffffffffffffffffffffffff1673ffffffffffffffffffffffffffffffffffffffff163373ffffffffffffffffffffffffffffffffffffffff1614610357576040517f08c379a000000000000000000000000000000000000000000000000000000000815260040161034e90610e79565b60405180910390fd5b600260008373ffffffffffffffffffffffffffffffffffffffff1673ffffffffffffffffffffffffffffffffffffffff168152602001908152602001600020604051806060016040529081600082015481526020016001820180546103bb90610ffe565b80601f01602080910402602001604051908101604052809291908181526020018280546103e790610ffe565b80156104345780601f1061040957610100808354040283529160200191610434565b820191906000526020600020905b81548152906001019060200180831161041757829003601f168201915b505050505081526020016002820154815250509050919050565b60008054906101000a900473ffffffffffffffffffffffffffffffffffffffff1673ffffffffffffffffffffffffffffffffffffffff163373ffffffffffffffffffffffffffffffffffffffff16146104dc576040517f08c379a00000000000000000000000000000000000000000000000000000000081526004016104d390610e79565b60405180910390fd5b81600160008673ffffffffffffffffffffffffffffffffffffffff1673ffffffffffffffffffffffffffffffffffffffff1681526020019081526020016000206001019080519060200190610532929190610a45565b5082600260008673ffffffffffffffffffffffffffffffffffffffff1673ffffffffffffffffffffffffffffffffffffffff1681526020019081526020016000206000018190555081600260008673ffffffffffffffffffffffffffffffffffffffff1673ffffffffffffffffffffffffffffffffffffffff16815260200190815260200160002060010190805190602001906105d0929190610a45565b5080600260008673ffffffffffffffffffffffffffffffffffffffff1673ffffffffffffffffffffffffffffffffffffffff1681526020019081526020016000206002018190555050505050565b60008054906101000a900473ffffffffffffffffffffffffffffffffffffffff1673ffffffffffffffffffffffffffffffffffffffff163373ffffffffffffffffffffffffffffffffffffffff16146106ac576040517f08c379a00000000000000000000000000000000000000000000000000000000081526004016106a390610e79565b60405180910390fd5b80600260008573ffffffffffffffffffffffffffffffffffffffff1673ffffffffffffffffffffffffffffffffffffffff168152602001908152602001600020600201541015610731576040517f08c379a000000000000000000000000000000000000000000000000000000000815260040161072890610e99565b60405180910390fd5b81600160008573ffffffffffffffffffffffffffffffffffffffff1673ffffffffffffffffffffffffffffffffffffffff1681526020019081526020016000206001019080519060200190610787929190610a45565b5060405180602001604052806000815250600260008573ffffffffffffffffffffffffffffffffffffffff1673ffffffffffffffffffffffffffffffffffffffff16815260200190815260200160002060010190805190602001906107ed929190610a45565b506000600260008573ffffffffffffffffffffffffffffffffffffffff1673ffffffffffffffffffffffffffffffffffffffff16815260200190815260200160002060020181905550505050565b60008054906101000a900473ffffffffffffffffffffffffffffffffffffffff1673ffffffffffffffffffffffffffffffffffffffff163373ffffffffffffffffffffffffffffffffffffffff16146108c9576040517f08c379a00000000000000000000000000000000000000000000000000000000081526004016108c090610e79565b60405180910390fd5b83600160008773ffffffffffffffffffffffffffffffffffffffff1673ffffffffffffffffffffffffffffffffffffffff1681526020019081526020016000206000018190555082600160008773ffffffffffffffffffffffffffffffffffffffff1673ffffffffffffffffffffffffffffffffffffffff1681526020019081526020016000206001019080519060200190610966929190610a45565b5081600160008773ffffffffffffffffffffffffffffffffffffffff1673ffffffffffffffffffffffffffffffffffffffff1681526020019081526020016000206002018190555080600160008773ffffffffffffffffffffffffffffffffffffffff1673ffffffffffffffffffffffffffffffffffffffff168152602001908152602001600020600301819055505050505050565b6040518060800160405280600081526020016060815260200160008152602001600081525090565b60405180606001604052806000815260200160608152602001600081525090565b828054610a5190610ffe565b90600052602060002090601f016020900481019282610a735760008555610aba565b82601f10610a8c57805160ff1916838001178555610aba565b82800160010185558215610aba579182015b82811115610ab9578251825591602001919060010190610a9e565b5b509050610ac79190610acb565b5090565b5b80821115610ae4576000816000905550600101610acc565b5090565b6000610afb610af684610f22565b610efd565b905082815260208101848484011115610b1757610b166110c4565b5b610b22848285610fbc565b509392505050565b600081359050610b3981611136565b92915050565b600082601f830112610b5457610b536110bf565b5b8135610b64848260208601610ae8565b91505092915050565b600081359050610b7c8161114d565b92915050565b600060208284031215610b9857610b976110ce565b5b6000610ba684828501610b2a565b91505092915050565b600080600060608486031215610bc857610bc76110ce565b5b6000610bd686828701610b2a565b935050602084013567ffffffffffffffff811115610bf757610bf66110c9565b5b610c0386828701610b3f565b9250506040610c1486828701610b6d565b9150509250925092565b60008060008060808587031215610c3857610c376110ce565b5b6000610c4687828801610b2a565b9450506020610c5787828801610b6d565b935050604085013567ffffffffffffffff811115610c7857610c776110c9565b5b610c8487828801610b3f565b9250506060610c9587828801610b6d565b91505092959194509250565b600080600080600060a08688031215610cbd57610cbc6110ce565b5b6000610ccb88828901610b2a565b9550506020610cdc88828901610b6d565b945050604086013567ffffffffffffffff811115610cfd57610cfc6110c9565b5b610d0988828901610b3f565b9350506060610d1a88828901610b6d565b9250506080610d2b88828901610b6d565b9150509295509295909350565b6000610d4382610f53565b610d4d8185610f5e565b9350610d5d818560208601610fcb565b610d66816110d3565b840191505092915050565b6000610d7e601d83610f6f565b9150610d89826110e4565b602082019050919050565b6000610da1601d83610f6f565b9150610dac8261110d565b602082019050919050565b6000606083016000830151610dcf6000860182610e6a565b5060208301518482036020860152610de78282610d38565b9150506040830151610dfc6040860182610e6a565b508091505092915050565b6000608083016000830151610e1f6000860182610e6a565b5060208301518482036020860152610e378282610d38565b9150506040830151610e4c6040860182610e6a565b506060830151610e5f6060860182610e6a565b508091505092915050565b610e7381610fb2565b82525050565b60006020820190508181036000830152610e9281610d71565b9050919050565b60006020820190508181036000830152610eb281610d94565b9050919050565b60006020820190508181036000830152610ed38184610db7565b905092915050565b60006020820190508181036000830152610ef58184610e07565b905092915050565b6000610f07610f18565b9050610f138282611030565b919050565b6000604051905090565b600067ffffffffffffffff821115610f3d57610f3c611090565b5b610f46826110d3565b9050602081019050919050565b600081519050919050565b600082825260208201905092915050565b600082825260208201905092915050565b6000610f8b82610f92565b9050919050565b600073ffffffffffffffffffffffffffffffffffffffff82169050919050565b6000819050919050565b82818337600083830152505050565b60005b83811015610fe9578082015181840152602081019050610fce565b83811115610ff8576000848401525b50505050565b6000600282049050600182168061101657607f821691505b6020821081141561102a57611029611061565b5b50919050565b611039826110d3565b810181811067ffffffffffffffff8211171561105857611057611090565b5b80604052505050565b7f4e487b7100000000000000000000000000000000000000000000000000000000600052602260045260246000fd5b7f4e487b7100000000000000000000000000000000000000000000000000000000600052604160045260246000fd5b600080fd5b600080fd5b600080fd5b600080fd5b6000601f19601f8301169050919050565b7f596f7520617265206e6f74206c616e646f66666963652073746166662e000000600082015250565b7f496e73756666696369656e742066756e6420666f722072656465656d2e000000600082015250565b61113f81610f80565b811461114a57600080fd5b50565b61115681610fb2565b811461116157600080fd5b5056fea2646970667358221220569b0a1a8dca74e1800be5c86f24398fc981709804d436c34550a8cf22b9316c64736f6c63430008070033",
					"opcodes": "PUSH1 0x80 PUSH1 0x40 MSTORE CALLVALUE DUP1 ISZERO PUSH2 0x10 JUMPI PUSH1 0x0 DUP1 REVERT JUMPDEST POP CALLER PUSH1 0x0 DUP1 PUSH2 0x100 EXP DUP2 SLOAD DUP2 PUSH20 0xFFFFFFFFFFFFFFFFFFFFFFFFFFFFFFFFFFFFFFFF MUL NOT AND SWAP1 DUP4 PUSH20 0xFFFFFFFFFFFFFFFFFFFFFFFFFFFFFFFFFFFFFFFF AND MUL OR SWAP1 SSTORE POP PUSH2 0x119A DUP1 PUSH2 0x60 PUSH1 0x0 CODECOPY PUSH1 0x0 RETURN INVALID PUSH1 0x80 PUSH1 0x40 MSTORE PUSH1 0x4 CALLDATASIZE LT PUSH2 0x4A JUMPI PUSH1 0x0 CALLDATALOAD PUSH1 0xE0 SHR DUP1 PUSH4 0x198E86C6 EQ PUSH2 0x4F JUMPI DUP1 PUSH4 0x215271CB EQ PUSH2 0x8C JUMPI DUP1 PUSH4 0x5F62BF42 EQ PUSH2 0xC9 JUMPI DUP1 PUSH4 0x868571EF EQ PUSH2 0xF2 JUMPI DUP1 PUSH4 0x935656C2 EQ PUSH2 0x10E JUMPI JUMPDEST PUSH1 0x0 DUP1 REVERT JUMPDEST CALLVALUE DUP1 ISZERO PUSH2 0x5B JUMPI PUSH1 0x0 DUP1 REVERT JUMPDEST POP PUSH2 0x76 PUSH1 0x4 DUP1 CALLDATASIZE SUB DUP2 ADD SWAP1 PUSH2 0x71 SWAP2 SWAP1 PUSH2 0xB82 JUMP JUMPDEST PUSH2 0x12A JUMP JUMPDEST PUSH1 0x40 MLOAD PUSH2 0x83 SWAP2 SWAP1 PUSH2 0xEDB JUMP JUMPDEST PUSH1 0x40 MLOAD DUP1 SWAP2 SUB SWAP1 RETURN JUMPDEST CALLVALUE DUP1 ISZERO PUSH2 0x98 JUMPI PUSH1 0x0 DUP1 REVERT JUMPDEST POP PUSH2 0xB3 PUSH1 0x4 DUP1 CALLDATASIZE SUB DUP2 ADD SWAP1 PUSH2 0xAE SWAP2 SWAP1 PUSH2 0xB82 JUMP JUMPDEST PUSH2 0x2C1 JUMP JUMPDEST PUSH1 0x40 MLOAD PUSH2 0xC0 SWAP2 SWAP1 PUSH2 0xEB9 JUMP JUMPDEST PUSH1 0x40 MLOAD DUP1 SWAP2 SUB SWAP1 RETURN JUMPDEST CALLVALUE DUP1 ISZERO PUSH2 0xD5 JUMPI PUSH1 0x0 DUP1 REVERT JUMPDEST POP PUSH2 0xF0 PUSH1 0x4 DUP1 CALLDATASIZE SUB DUP2 ADD SWAP1 PUSH2 0xEB SWAP2 SWAP1 PUSH2 0xC1E JUMP JUMPDEST PUSH2 0x44E JUMP JUMPDEST STOP JUMPDEST PUSH2 0x10C PUSH1 0x4 DUP1 CALLDATASIZE SUB DUP2 ADD SWAP1 PUSH2 0x107 SWAP2 SWAP1 PUSH2 0xBAF JUMP JUMPDEST PUSH2 0x61E JUMP JUMPDEST STOP JUMPDEST PUSH2 0x128 PUSH1 0x4 DUP1 CALLDATASIZE SUB DUP2 ADD SWAP1 PUSH2 0x123 SWAP2 SWAP1 PUSH2 0xCA1 JUMP JUMPDEST PUSH2 0x83B JUMP JUMPDEST STOP JUMPDEST PUSH2 0x132 PUSH2 0x9FC JUMP JUMPDEST PUSH1 0x0 DUP1 SLOAD SWAP1 PUSH2 0x100 EXP SWAP1 DIV PUSH20 0xFFFFFFFFFFFFFFFFFFFFFFFFFFFFFFFFFFFFFFFF AND PUSH20 0xFFFFFFFFFFFFFFFFFFFFFFFFFFFFFFFFFFFFFFFF AND CALLER PUSH20 0xFFFFFFFFFFFFFFFFFFFFFFFFFFFFFFFFFFFFFFFF AND EQ PUSH2 0x1C0 JUMPI PUSH1 0x40 MLOAD PUSH32 0x8C379A000000000000000000000000000000000000000000000000000000000 DUP2 MSTORE PUSH1 0x4 ADD PUSH2 0x1B7 SWAP1 PUSH2 0xE79 JUMP JUMPDEST PUSH1 0x40 MLOAD DUP1 SWAP2 SUB SWAP1 REVERT JUMPDEST PUSH1 0x1 PUSH1 0x0 DUP4 PUSH20 0xFFFFFFFFFFFFFFFFFFFFFFFFFFFFFFFFFFFFFFFF AND PUSH20 0xFFFFFFFFFFFFFFFFFFFFFFFFFFFFFFFFFFFFFFFF AND DUP2 MSTORE PUSH1 0x20 ADD SWAP1 DUP2 MSTORE PUSH1 0x20 ADD PUSH1 0x0 KECCAK256 PUSH1 0x40 MLOAD DUP1 PUSH1 0x80 ADD PUSH1 0x40 MSTORE SWAP1 DUP2 PUSH1 0x0 DUP3 ADD SLOAD DUP2 MSTORE PUSH1 0x20 ADD PUSH1 0x1 DUP3 ADD DUP1 SLOAD PUSH2 0x224 SWAP1 PUSH2 0xFFE JUMP JUMPDEST DUP1 PUSH1 0x1F ADD PUSH1 0x20 DUP1 SWAP2 DIV MUL PUSH1 0x20 ADD PUSH1 0x40 MLOAD SWAP1 DUP2 ADD PUSH1 0x40 MSTORE DUP1 SWAP3 SWAP2 SWAP1 DUP2 DUP2 MSTORE PUSH1 0x20 ADD DUP3 DUP1 SLOAD PUSH2 0x250 SWAP1 PUSH2 0xFFE JUMP JUMPDEST DUP1 ISZERO PUSH2 0x29D JUMPI DUP1 PUSH1 0x1F LT PUSH2 0x272 JUMPI PUSH2 0x100 DUP1 DUP4 SLOAD DIV MUL DUP4 MSTORE SWAP2 PUSH1 0x20 ADD SWAP2 PUSH2 0x29D JUMP JUMPDEST DUP3 ADD SWAP2 SWAP1 PUSH1 0x0 MSTORE PUSH1 0x20 PUSH1 0x0 KECCAK256 SWAP1 JUMPDEST DUP2 SLOAD DUP2 MSTORE SWAP1 PUSH1 0x1 ADD SWAP1 PUSH1 0x20 ADD DUP1 DUP4 GT PUSH2 0x280 JUMPI DUP3 SWAP1 SUB PUSH1 0x1F AND DUP3 ADD SWAP2 JUMPDEST POP POP POP POP POP DUP2 MSTORE PUSH1 0x20 ADD PUSH1 0x2 DUP3 ADD SLOAD DUP2 MSTORE PUSH1 0x20 ADD PUSH1 0x3 DUP3 ADD SLOAD DUP2 MSTORE POP POP SWAP1 POP SWAP2 SWAP1 POP JUMP JUMPDEST PUSH2 0x2C9 PUSH2 0xA24 JUMP JUMPDEST PUSH1 0x0 DUP1 SLOAD SWAP1 PUSH2 0x100 EXP SWAP1 DIV PUSH20 0xFFFFFFFFFFFFFFFFFFFFFFFFFFFFFFFFFFFFFFFF AND PUSH20 0xFFFFFFFFFFFFFFFFFFFFFFFFFFFFFFFFFFFFFFFF AND CALLER PUSH20 0xFFFFFFFFFFFFFFFFFFFFFFFFFFFFFFFFFFFFFFFF AND EQ PUSH2 0x357 JUMPI PUSH1 0x40 MLOAD PUSH32 0x8C379A000000000000000000000000000000000000000000000000000000000 DUP2 MSTORE PUSH1 0x4 ADD PUSH2 0x34E SWAP1 PUSH2 0xE79 JUMP JUMPDEST PUSH1 0x40 MLOAD DUP1 SWAP2 SUB SWAP1 REVERT JUMPDEST PUSH1 0x2 PUSH1 0x0 DUP4 PUSH20 0xFFFFFFFFFFFFFFFFFFFFFFFFFFFFFFFFFFFFFFFF AND PUSH20 0xFFFFFFFFFFFFFFFFFFFFFFFFFFFFFFFFFFFFFFFF AND DUP2 MSTORE PUSH1 0x20 ADD SWAP1 DUP2 MSTORE PUSH1 0x20 ADD PUSH1 0x0 KECCAK256 PUSH1 0x40 MLOAD DUP1 PUSH1 0x60 ADD PUSH1 0x40 MSTORE SWAP1 DUP2 PUSH1 0x0 DUP3 ADD SLOAD DUP2 MSTORE PUSH1 0x20 ADD PUSH1 0x1 DUP3 ADD DUP1 SLOAD PUSH2 0x3BB SWAP1 PUSH2 0xFFE JUMP JUMPDEST DUP1 PUSH1 0x1F ADD PUSH1 0x20 DUP1 SWAP2 DIV MUL PUSH1 0x20 ADD PUSH1 0x40 MLOAD SWAP1 DUP2 ADD PUSH1 0x40 MSTORE DUP1 SWAP3 SWAP2 SWAP1 DUP2 DUP2 MSTORE PUSH1 0x20 ADD DUP3 DUP1 SLOAD PUSH2 0x3E7 SWAP1 PUSH2 0xFFE JUMP JUMPDEST DUP1 ISZERO PUSH2 0x434 JUMPI DUP1 PUSH1 0x1F LT PUSH2 0x409 JUMPI PUSH2 0x100 DUP1 DUP4 SLOAD DIV MUL DUP4 MSTORE SWAP2 PUSH1 0x20 ADD SWAP2 PUSH2 0x434 JUMP JUMPDEST DUP3 ADD SWAP2 SWAP1 PUSH1 0x0 MSTORE PUSH1 0x20 PUSH1 0x0 KECCAK256 SWAP1 JUMPDEST DUP2 SLOAD DUP2 MSTORE SWAP1 PUSH1 0x1 ADD SWAP1 PUSH1 0x20 ADD DUP1 DUP4 GT PUSH2 0x417 JUMPI DUP3 SWAP1 SUB PUSH1 0x1F AND DUP3 ADD SWAP2 JUMPDEST POP POP POP POP POP DUP2 MSTORE PUSH1 0x20 ADD PUSH1 0x2 DUP3 ADD SLOAD DUP2 MSTORE POP POP SWAP1 POP SWAP2 SWAP1 POP JUMP JUMPDEST PUSH1 0x0 DUP1 SLOAD SWAP1 PUSH2 0x100 EXP SWAP1 DIV PUSH20 0xFFFFFFFFFFFFFFFFFFFFFFFFFFFFFFFFFFFFFFFF AND PUSH20 0xFFFFFFFFFFFFFFFFFFFFFFFFFFFFFFFFFFFFFFFF AND CALLER PUSH20 0xFFFFFFFFFFFFFFFFFFFFFFFFFFFFFFFFFFFFFFFF AND EQ PUSH2 0x4DC JUMPI PUSH1 0x40 MLOAD PUSH32 0x8C379A000000000000000000000000000000000000000000000000000000000 DUP2 MSTORE PUSH1 0x4 ADD PUSH2 0x4D3 SWAP1 PUSH2 0xE79 JUMP JUMPDEST PUSH1 0x40 MLOAD DUP1 SWAP2 SUB SWAP1 REVERT JUMPDEST DUP2 PUSH1 0x1 PUSH1 0x0 DUP7 PUSH20 0xFFFFFFFFFFFFFFFFFFFFFFFFFFFFFFFFFFFFFFFF AND PUSH20 0xFFFFFFFFFFFFFFFFFFFFFFFFFFFFFFFFFFFFFFFF AND DUP2 MSTORE PUSH1 0x20 ADD SWAP1 DUP2 MSTORE PUSH1 0x20 ADD PUSH1 0x0 KECCAK256 PUSH1 0x1 ADD SWAP1 DUP1 MLOAD SWAP1 PUSH1 0x20 ADD SWAP1 PUSH2 0x532 SWAP3 SWAP2 SWAP1 PUSH2 0xA45 JUMP JUMPDEST POP DUP3 PUSH1 0x2 PUSH1 0x0 DUP7 PUSH20 0xFFFFFFFFFFFFFFFFFFFFFFFFFFFFFFFFFFFFFFFF AND PUSH20 0xFFFFFFFFFFFFFFFFFFFFFFFFFFFFFFFFFFFFFFFF AND DUP2 MSTORE PUSH1 0x20 ADD SWAP1 DUP2 MSTORE PUSH1 0x20 ADD PUSH1 0x0 KECCAK256 PUSH1 0x0 ADD DUP2 SWAP1 SSTORE POP DUP2 PUSH1 0x2 PUSH1 0x0 DUP7 PUSH20 0xFFFFFFFFFFFFFFFFFFFFFFFFFFFFFFFFFFFFFFFF AND PUSH20 0xFFFFFFFFFFFFFFFFFFFFFFFFFFFFFFFFFFFFFFFF AND DUP2 MSTORE PUSH1 0x20 ADD SWAP1 DUP2 MSTORE PUSH1 0x20 ADD PUSH1 0x0 KECCAK256 PUSH1 0x1 ADD SWAP1 DUP1 MLOAD SWAP1 PUSH1 0x20 ADD SWAP1 PUSH2 0x5D0 SWAP3 SWAP2 SWAP1 PUSH2 0xA45 JUMP JUMPDEST POP DUP1 PUSH1 0x2 PUSH1 0x0 DUP7 PUSH20 0xFFFFFFFFFFFFFFFFFFFFFFFFFFFFFFFFFFFFFFFF AND PUSH20 0xFFFFFFFFFFFFFFFFFFFFFFFFFFFFFFFFFFFFFFFF AND DUP2 MSTORE PUSH1 0x20 ADD SWAP1 DUP2 MSTORE PUSH1 0x20 ADD PUSH1 0x0 KECCAK256 PUSH1 0x2 ADD DUP2 SWAP1 SSTORE POP POP POP POP POP JUMP JUMPDEST PUSH1 0x0 DUP1 SLOAD SWAP1 PUSH2 0x100 EXP SWAP1 DIV PUSH20 0xFFFFFFFFFFFFFFFFFFFFFFFFFFFFFFFFFFFFFFFF AND PUSH20 0xFFFFFFFFFFFFFFFFFFFFFFFFFFFFFFFFFFFFFFFF AND CALLER PUSH20 0xFFFFFFFFFFFFFFFFFFFFFFFFFFFFFFFFFFFFFFFF AND EQ PUSH2 0x6AC JUMPI PUSH1 0x40 MLOAD PUSH32 0x8C379A000000000000000000000000000000000000000000000000000000000 DUP2 MSTORE PUSH1 0x4 ADD PUSH2 0x6A3 SWAP1 PUSH2 0xE79 JUMP JUMPDEST PUSH1 0x40 MLOAD DUP1 SWAP2 SUB SWAP1 REVERT JUMPDEST DUP1 PUSH1 0x2 PUSH1 0x0 DUP6 PUSH20 0xFFFFFFFFFFFFFFFFFFFFFFFFFFFFFFFFFFFFFFFF AND PUSH20 0xFFFFFFFFFFFFFFFFFFFFFFFFFFFFFFFFFFFFFFFF AND DUP2 MSTORE PUSH1 0x20 ADD SWAP1 DUP2 MSTORE PUSH1 0x20 ADD PUSH1 0x0 KECCAK256 PUSH1 0x2 ADD SLOAD LT ISZERO PUSH2 0x731 JUMPI PUSH1 0x40 MLOAD PUSH32 0x8C379A000000000000000000000000000000000000000000000000000000000 DUP2 MSTORE PUSH1 0x4 ADD PUSH2 0x728 SWAP1 PUSH2 0xE99 JUMP JUMPDEST PUSH1 0x40 MLOAD DUP1 SWAP2 SUB SWAP1 REVERT JUMPDEST DUP2 PUSH1 0x1 PUSH1 0x0 DUP6 PUSH20 0xFFFFFFFFFFFFFFFFFFFFFFFFFFFFFFFFFFFFFFFF AND PUSH20 0xFFFFFFFFFFFFFFFFFFFFFFFFFFFFFFFFFFFFFFFF AND DUP2 MSTORE PUSH1 0x20 ADD SWAP1 DUP2 MSTORE PUSH1 0x20 ADD PUSH1 0x0 KECCAK256 PUSH1 0x1 ADD SWAP1 DUP1 MLOAD SWAP1 PUSH1 0x20 ADD SWAP1 PUSH2 0x787 SWAP3 SWAP2 SWAP1 PUSH2 0xA45 JUMP JUMPDEST POP PUSH1 0x40 MLOAD DUP1 PUSH1 0x20 ADD PUSH1 0x40 MSTORE DUP1 PUSH1 0x0 DUP2 MSTORE POP PUSH1 0x2 PUSH1 0x0 DUP6 PUSH20 0xFFFFFFFFFFFFFFFFFFFFFFFFFFFFFFFFFFFFFFFF AND PUSH20 0xFFFFFFFFFFFFFFFFFFFFFFFFFFFFFFFFFFFFFFFF AND DUP2 MSTORE PUSH1 0x20 ADD SWAP1 DUP2 MSTORE PUSH1 0x20 ADD PUSH1 0x0 KECCAK256 PUSH1 0x1 ADD SWAP1 DUP1 MLOAD SWAP1 PUSH1 0x20 ADD SWAP1 PUSH2 0x7ED SWAP3 SWAP2 SWAP1 PUSH2 0xA45 JUMP JUMPDEST POP PUSH1 0x0 PUSH1 0x2 PUSH1 0x0 DUP6 PUSH20 0xFFFFFFFFFFFFFFFFFFFFFFFFFFFFFFFFFFFFFFFF AND PUSH20 0xFFFFFFFFFFFFFFFFFFFFFFFFFFFFFFFFFFFFFFFF AND DUP2 MSTORE PUSH1 0x20 ADD SWAP1 DUP2 MSTORE PUSH1 0x20 ADD PUSH1 0x0 KECCAK256 PUSH1 0x2 ADD DUP2 SWAP1 SSTORE POP POP POP POP JUMP JUMPDEST PUSH1 0x0 DUP1 SLOAD SWAP1 PUSH2 0x100 EXP SWAP1 DIV PUSH20 0xFFFFFFFFFFFFFFFFFFFFFFFFFFFFFFFFFFFFFFFF AND PUSH20 0xFFFFFFFFFFFFFFFFFFFFFFFFFFFFFFFFFFFFFFFF AND CALLER PUSH20 0xFFFFFFFFFFFFFFFFFFFFFFFFFFFFFFFFFFFFFFFF AND EQ PUSH2 0x8C9 JUMPI PUSH1 0x40 MLOAD PUSH32 0x8C379A000000000000000000000000000000000000000000000000000000000 DUP2 MSTORE PUSH1 0x4 ADD PUSH2 0x8C0 SWAP1 PUSH2 0xE79 JUMP JUMPDEST PUSH1 0x40 MLOAD DUP1 SWAP2 SUB SWAP1 REVERT JUMPDEST DUP4 PUSH1 0x1 PUSH1 0x0 DUP8 PUSH20 0xFFFFFFFFFFFFFFFFFFFFFFFFFFFFFFFFFFFFFFFF AND PUSH20 0xFFFFFFFFFFFFFFFFFFFFFFFFFFFFFFFFFFFFFFFF AND DUP2 MSTORE PUSH1 0x20 ADD SWAP1 DUP2 MSTORE PUSH1 0x20 ADD PUSH1 0x0 KECCAK256 PUSH1 0x0 ADD DUP2 SWAP1 SSTORE POP DUP3 PUSH1 0x1 PUSH1 0x0 DUP8 PUSH20 0xFFFFFFFFFFFFFFFFFFFFFFFFFFFFFFFFFFFFFFFF AND PUSH20 0xFFFFFFFFFFFFFFFFFFFFFFFFFFFFFFFFFFFFFFFF AND DUP2 MSTORE PUSH1 0x20 ADD SWAP1 DUP2 MSTORE PUSH1 0x20 ADD PUSH1 0x0 KECCAK256 PUSH1 0x1 ADD SWAP1 DUP1 MLOAD SWAP1 PUSH1 0x20 ADD SWAP1 PUSH2 0x966 SWAP3 SWAP2 SWAP1 PUSH2 0xA45 JUMP JUMPDEST POP DUP2 PUSH1 0x1 PUSH1 0x0 DUP8 PUSH20 0xFFFFFFFFFFFFFFFFFFFFFFFFFFFFFFFFFFFFFFFF AND PUSH20 0xFFFFFFFFFFFFFFFFFFFFFFFFFFFFFFFFFFFFFFFF AND DUP2 MSTORE PUSH1 0x20 ADD SWAP1 DUP2 MSTORE PUSH1 0x20 ADD PUSH1 0x0 KECCAK256 PUSH1 0x2 ADD DUP2 SWAP1 SSTORE POP DUP1 PUSH1 0x1 PUSH1 0x0 DUP8 PUSH20 0xFFFFFFFFFFFFFFFFFFFFFFFFFFFFFFFFFFFFFFFF AND PUSH20 0xFFFFFFFFFFFFFFFFFFFFFFFFFFFFFFFFFFFFFFFF AND DUP2 MSTORE PUSH1 0x20 ADD SWAP1 DUP2 MSTORE PUSH1 0x20 ADD PUSH1 0x0 KECCAK256 PUSH1 0x3 ADD DUP2 SWAP1 SSTORE POP POP POP POP POP POP JUMP JUMPDEST PUSH1 0x40 MLOAD DUP1 PUSH1 0x80 ADD PUSH1 0x40 MSTORE DUP1 PUSH1 0x0 DUP2 MSTORE PUSH1 0x20 ADD PUSH1 0x60 DUP2 MSTORE PUSH1 0x20 ADD PUSH1 0x0 DUP2 MSTORE PUSH1 0x20 ADD PUSH1 0x0 DUP2 MSTORE POP SWAP1 JUMP JUMPDEST PUSH1 0x40 MLOAD DUP1 PUSH1 0x60 ADD PUSH1 0x40 MSTORE DUP1 PUSH1 0x0 DUP2 MSTORE PUSH1 0x20 ADD PUSH1 0x60 DUP2 MSTORE PUSH1 0x20 ADD PUSH1 0x0 DUP2 MSTORE POP SWAP1 JUMP JUMPDEST DUP3 DUP1 SLOAD PUSH2 0xA51 SWAP1 PUSH2 0xFFE JUMP JUMPDEST SWAP1 PUSH1 0x0 MSTORE PUSH1 0x20 PUSH1 0x0 KECCAK256 SWAP1 PUSH1 0x1F ADD PUSH1 0x20 SWAP1 DIV DUP2 ADD SWAP3 DUP3 PUSH2 0xA73 JUMPI PUSH1 0x0 DUP6 SSTORE PUSH2 0xABA JUMP JUMPDEST DUP3 PUSH1 0x1F LT PUSH2 0xA8C JUMPI DUP1 MLOAD PUSH1 0xFF NOT AND DUP4 DUP1 ADD OR DUP6 SSTORE PUSH2 0xABA JUMP JUMPDEST DUP3 DUP1 ADD PUSH1 0x1 ADD DUP6 SSTORE DUP3 ISZERO PUSH2 0xABA JUMPI SWAP2 DUP3 ADD JUMPDEST DUP3 DUP2 GT ISZERO PUSH2 0xAB9 JUMPI DUP3 MLOAD DUP3 SSTORE SWAP2 PUSH1 0x20 ADD SWAP2 SWAP1 PUSH1 0x1 ADD SWAP1 PUSH2 0xA9E JUMP JUMPDEST JUMPDEST POP SWAP1 POP PUSH2 0xAC7 SWAP2 SWAP1 PUSH2 0xACB JUMP JUMPDEST POP SWAP1 JUMP JUMPDEST JUMPDEST DUP1 DUP3 GT ISZERO PUSH2 0xAE4 JUMPI PUSH1 0x0 DUP2 PUSH1 0x0 SWAP1 SSTORE POP PUSH1 0x1 ADD PUSH2 0xACC JUMP JUMPDEST POP SWAP1 JUMP JUMPDEST PUSH1 0x0 PUSH2 0xAFB PUSH2 0xAF6 DUP5 PUSH2 0xF22 JUMP JUMPDEST PUSH2 0xEFD JUMP JUMPDEST SWAP1 POP DUP3 DUP2 MSTORE PUSH1 0x20 DUP2 ADD DUP5 DUP5 DUP5 ADD GT ISZERO PUSH2 0xB17 JUMPI PUSH2 0xB16 PUSH2 0x10C4 JUMP JUMPDEST JUMPDEST PUSH2 0xB22 DUP5 DUP3 DUP6 PUSH2 0xFBC JUMP JUMPDEST POP SWAP4 SWAP3 POP POP POP JUMP JUMPDEST PUSH1 0x0 DUP2 CALLDATALOAD SWAP1 POP PUSH2 0xB39 DUP2 PUSH2 0x1136 JUMP JUMPDEST SWAP3 SWAP2 POP POP JUMP JUMPDEST PUSH1 0x0 DUP3 PUSH1 0x1F DUP4 ADD SLT PUSH2 0xB54 JUMPI PUSH2 0xB53 PUSH2 0x10BF JUMP JUMPDEST JUMPDEST DUP2 CALLDATALOAD PUSH2 0xB64 DUP5 DUP3 PUSH1 0x20 DUP7 ADD PUSH2 0xAE8 JUMP JUMPDEST SWAP2 POP POP SWAP3 SWAP2 POP POP JUMP JUMPDEST PUSH1 0x0 DUP2 CALLDATALOAD SWAP1 POP PUSH2 0xB7C DUP2 PUSH2 0x114D JUMP JUMPDEST SWAP3 SWAP2 POP POP JUMP JUMPDEST PUSH1 0x0 PUSH1 0x20 DUP3 DUP5 SUB SLT ISZERO PUSH2 0xB98 JUMPI PUSH2 0xB97 PUSH2 0x10CE JUMP JUMPDEST JUMPDEST PUSH1 0x0 PUSH2 0xBA6 DUP5 DUP3 DUP6 ADD PUSH2 0xB2A JUMP JUMPDEST SWAP2 POP POP SWAP3 SWAP2 POP POP JUMP JUMPDEST PUSH1 0x0 DUP1 PUSH1 0x0 PUSH1 0x60 DUP5 DUP7 SUB SLT ISZERO PUSH2 0xBC8 JUMPI PUSH2 0xBC7 PUSH2 0x10CE JUMP JUMPDEST JUMPDEST PUSH1 0x0 PUSH2 0xBD6 DUP7 DUP3 DUP8 ADD PUSH2 0xB2A JUMP JUMPDEST SWAP4 POP POP PUSH1 0x20 DUP5 ADD CALLDATALOAD PUSH8 0xFFFFFFFFFFFFFFFF DUP2 GT ISZERO PUSH2 0xBF7 JUMPI PUSH2 0xBF6 PUSH2 0x10C9 JUMP JUMPDEST JUMPDEST PUSH2 0xC03 DUP7 DUP3 DUP8 ADD PUSH2 0xB3F JUMP JUMPDEST SWAP3 POP POP PUSH1 0x40 PUSH2 0xC14 DUP7 DUP3 DUP8 ADD PUSH2 0xB6D JUMP JUMPDEST SWAP2 POP POP SWAP3 POP SWAP3 POP SWAP3 JUMP JUMPDEST PUSH1 0x0 DUP1 PUSH1 0x0 DUP1 PUSH1 0x80 DUP6 DUP8 SUB SLT ISZERO PUSH2 0xC38 JUMPI PUSH2 0xC37 PUSH2 0x10CE JUMP JUMPDEST JUMPDEST PUSH1 0x0 PUSH2 0xC46 DUP8 DUP3 DUP9 ADD PUSH2 0xB2A JUMP JUMPDEST SWAP5 POP POP PUSH1 0x20 PUSH2 0xC57 DUP8 DUP3 DUP9 ADD PUSH2 0xB6D JUMP JUMPDEST SWAP4 POP POP PUSH1 0x40 DUP6 ADD CALLDATALOAD PUSH8 0xFFFFFFFFFFFFFFFF DUP2 GT ISZERO PUSH2 0xC78 JUMPI PUSH2 0xC77 PUSH2 0x10C9 JUMP JUMPDEST JUMPDEST PUSH2 0xC84 DUP8 DUP3 DUP9 ADD PUSH2 0xB3F JUMP JUMPDEST SWAP3 POP POP PUSH1 0x60 PUSH2 0xC95 DUP8 DUP3 DUP9 ADD PUSH2 0xB6D JUMP JUMPDEST SWAP2 POP POP SWAP3 SWAP6 SWAP2 SWAP5 POP SWAP3 POP JUMP JUMPDEST PUSH1 0x0 DUP1 PUSH1 0x0 DUP1 PUSH1 0x0 PUSH1 0xA0 DUP7 DUP9 SUB SLT ISZERO PUSH2 0xCBD JUMPI PUSH2 0xCBC PUSH2 0x10CE JUMP JUMPDEST JUMPDEST PUSH1 0x0 PUSH2 0xCCB DUP9 DUP3 DUP10 ADD PUSH2 0xB2A JUMP JUMPDEST SWAP6 POP POP PUSH1 0x20 PUSH2 0xCDC DUP9 DUP3 DUP10 ADD PUSH2 0xB6D JUMP JUMPDEST SWAP5 POP POP PUSH1 0x40 DUP7 ADD CALLDATALOAD PUSH8 0xFFFFFFFFFFFFFFFF DUP2 GT ISZERO PUSH2 0xCFD JUMPI PUSH2 0xCFC PUSH2 0x10C9 JUMP JUMPDEST JUMPDEST PUSH2 0xD09 DUP9 DUP3 DUP10 ADD PUSH2 0xB3F JUMP JUMPDEST SWAP4 POP POP PUSH1 0x60 PUSH2 0xD1A DUP9 DUP3 DUP10 ADD PUSH2 0xB6D JUMP JUMPDEST SWAP3 POP POP PUSH1 0x80 PUSH2 0xD2B DUP9 DUP3 DUP10 ADD PUSH2 0xB6D JUMP JUMPDEST SWAP2 POP POP SWAP3 SWAP6 POP SWAP3 SWAP6 SWAP1 SWAP4 POP JUMP JUMPDEST PUSH1 0x0 PUSH2 0xD43 DUP3 PUSH2 0xF53 JUMP JUMPDEST PUSH2 0xD4D DUP2 DUP6 PUSH2 0xF5E JUMP JUMPDEST SWAP4 POP PUSH2 0xD5D DUP2 DUP6 PUSH1 0x20 DUP7 ADD PUSH2 0xFCB JUMP JUMPDEST PUSH2 0xD66 DUP2 PUSH2 0x10D3 JUMP JUMPDEST DUP5 ADD SWAP2 POP POP SWAP3 SWAP2 POP POP JUMP JUMPDEST PUSH1 0x0 PUSH2 0xD7E PUSH1 0x1D DUP4 PUSH2 0xF6F JUMP JUMPDEST SWAP2 POP PUSH2 0xD89 DUP3 PUSH2 0x10E4 JUMP JUMPDEST PUSH1 0x20 DUP3 ADD SWAP1 POP SWAP2 SWAP1 POP JUMP JUMPDEST PUSH1 0x0 PUSH2 0xDA1 PUSH1 0x1D DUP4 PUSH2 0xF6F JUMP JUMPDEST SWAP2 POP PUSH2 0xDAC DUP3 PUSH2 0x110D JUMP JUMPDEST PUSH1 0x20 DUP3 ADD SWAP1 POP SWAP2 SWAP1 POP JUMP JUMPDEST PUSH1 0x0 PUSH1 0x60 DUP4 ADD PUSH1 0x0 DUP4 ADD MLOAD PUSH2 0xDCF PUSH1 0x0 DUP7 ADD DUP3 PUSH2 0xE6A JUMP JUMPDEST POP PUSH1 0x20 DUP4 ADD MLOAD DUP5 DUP3 SUB PUSH1 0x20 DUP7 ADD MSTORE PUSH2 0xDE7 DUP3 DUP3 PUSH2 0xD38 JUMP JUMPDEST SWAP2 POP POP PUSH1 0x40 DUP4 ADD MLOAD PUSH2 0xDFC PUSH1 0x40 DUP7 ADD DUP3 PUSH2 0xE6A JUMP JUMPDEST POP DUP1 SWAP2 POP POP SWAP3 SWAP2 POP POP JUMP JUMPDEST PUSH1 0x0 PUSH1 0x80 DUP4 ADD PUSH1 0x0 DUP4 ADD MLOAD PUSH2 0xE1F PUSH1 0x0 DUP7 ADD DUP3 PUSH2 0xE6A JUMP JUMPDEST POP PUSH1 0x20 DUP4 ADD MLOAD DUP5 DUP3 SUB PUSH1 0x20 DUP7 ADD MSTORE PUSH2 0xE37 DUP3 DUP3 PUSH2 0xD38 JUMP JUMPDEST SWAP2 POP POP PUSH1 0x40 DUP4 ADD MLOAD PUSH2 0xE4C PUSH1 0x40 DUP7 ADD DUP3 PUSH2 0xE6A JUMP JUMPDEST POP PUSH1 0x60 DUP4 ADD MLOAD PUSH2 0xE5F PUSH1 0x60 DUP7 ADD DUP3 PUSH2 0xE6A JUMP JUMPDEST POP DUP1 SWAP2 POP POP SWAP3 SWAP2 POP POP JUMP JUMPDEST PUSH2 0xE73 DUP2 PUSH2 0xFB2 JUMP JUMPDEST DUP3 MSTORE POP POP JUMP JUMPDEST PUSH1 0x0 PUSH1 0x20 DUP3 ADD SWAP1 POP DUP2 DUP2 SUB PUSH1 0x0 DUP4 ADD MSTORE PUSH2 0xE92 DUP2 PUSH2 0xD71 JUMP JUMPDEST SWAP1 POP SWAP2 SWAP1 POP JUMP JUMPDEST PUSH1 0x0 PUSH1 0x20 DUP3 ADD SWAP1 POP DUP2 DUP2 SUB PUSH1 0x0 DUP4 ADD MSTORE PUSH2 0xEB2 DUP2 PUSH2 0xD94 JUMP JUMPDEST SWAP1 POP SWAP2 SWAP1 POP JUMP JUMPDEST PUSH1 0x0 PUSH1 0x20 DUP3 ADD SWAP1 POP DUP2 DUP2 SUB PUSH1 0x0 DUP4 ADD MSTORE PUSH2 0xED3 DUP2 DUP5 PUSH2 0xDB7 JUMP JUMPDEST SWAP1 POP SWAP3 SWAP2 POP POP JUMP JUMPDEST PUSH1 0x0 PUSH1 0x20 DUP3 ADD SWAP1 POP DUP2 DUP2 SUB PUSH1 0x0 DUP4 ADD MSTORE PUSH2 0xEF5 DUP2 DUP5 PUSH2 0xE07 JUMP JUMPDEST SWAP1 POP SWAP3 SWAP2 POP POP JUMP JUMPDEST PUSH1 0x0 PUSH2 0xF07 PUSH2 0xF18 JUMP JUMPDEST SWAP1 POP PUSH2 0xF13 DUP3 DUP3 PUSH2 0x1030 JUMP JUMPDEST SWAP2 SWAP1 POP JUMP JUMPDEST PUSH1 0x0 PUSH1 0x40 MLOAD SWAP1 POP SWAP1 JUMP JUMPDEST PUSH1 0x0 PUSH8 0xFFFFFFFFFFFFFFFF DUP3 GT ISZERO PUSH2 0xF3D JUMPI PUSH2 0xF3C PUSH2 0x1090 JUMP JUMPDEST JUMPDEST PUSH2 0xF46 DUP3 PUSH2 0x10D3 JUMP JUMPDEST SWAP1 POP PUSH1 0x20 DUP2 ADD SWAP1 POP SWAP2 SWAP1 POP JUMP JUMPDEST PUSH1 0x0 DUP2 MLOAD SWAP1 POP SWAP2 SWAP1 POP JUMP JUMPDEST PUSH1 0x0 DUP3 DUP3 MSTORE PUSH1 0x20 DUP3 ADD SWAP1 POP SWAP3 SWAP2 POP POP JUMP JUMPDEST PUSH1 0x0 DUP3 DUP3 MSTORE PUSH1 0x20 DUP3 ADD SWAP1 POP SWAP3 SWAP2 POP POP JUMP JUMPDEST PUSH1 0x0 PUSH2 0xF8B DUP3 PUSH2 0xF92 JUMP JUMPDEST SWAP1 POP SWAP2 SWAP1 POP JUMP JUMPDEST PUSH1 0x0 PUSH20 0xFFFFFFFFFFFFFFFFFFFFFFFFFFFFFFFFFFFFFFFF DUP3 AND SWAP1 POP SWAP2 SWAP1 POP JUMP JUMPDEST PUSH1 0x0 DUP2 SWAP1 POP SWAP2 SWAP1 POP JUMP JUMPDEST DUP3 DUP2 DUP4 CALLDATACOPY PUSH1 0x0 DUP4 DUP4 ADD MSTORE POP POP POP JUMP JUMPDEST PUSH1 0x0 JUMPDEST DUP4 DUP2 LT ISZERO PUSH2 0xFE9 JUMPI DUP1 DUP3 ADD MLOAD DUP2 DUP5 ADD MSTORE PUSH1 0x20 DUP2 ADD SWAP1 POP PUSH2 0xFCE JUMP JUMPDEST DUP4 DUP2 GT ISZERO PUSH2 0xFF8 JUMPI PUSH1 0x0 DUP5 DUP5 ADD MSTORE JUMPDEST POP POP POP POP JUMP JUMPDEST PUSH1 0x0 PUSH1 0x2 DUP3 DIV SWAP1 POP PUSH1 0x1 DUP3 AND DUP1 PUSH2 0x1016 JUMPI PUSH1 0x7F DUP3 AND SWAP2 POP JUMPDEST PUSH1 0x20 DUP3 LT DUP2 EQ ISZERO PUSH2 0x102A JUMPI PUSH2 0x1029 PUSH2 0x1061 JUMP JUMPDEST JUMPDEST POP SWAP2 SWAP1 POP JUMP JUMPDEST PUSH2 0x1039 DUP3 PUSH2 0x10D3 JUMP JUMPDEST DUP2 ADD DUP2 DUP2 LT PUSH8 0xFFFFFFFFFFFFFFFF DUP3 GT OR ISZERO PUSH2 0x1058 JUMPI PUSH2 0x1057 PUSH2 0x1090 JUMP JUMPDEST JUMPDEST DUP1 PUSH1 0x40 MSTORE POP POP POP JUMP JUMPDEST PUSH32 0x4E487B7100000000000000000000000000000000000000000000000000000000 PUSH1 0x0 MSTORE PUSH1 0x22 PUSH1 0x4 MSTORE PUSH1 0x24 PUSH1 0x0 REVERT JUMPDEST PUSH32 0x4E487B7100000000000000000000000000000000000000000000000000000000 PUSH1 0x0 MSTORE PUSH1 0x41 PUSH1 0x4 MSTORE PUSH1 0x24 PUSH1 0x0 REVERT JUMPDEST PUSH1 0x0 DUP1 REVERT JUMPDEST PUSH1 0x0 DUP1 REVERT JUMPDEST PUSH1 0x0 DUP1 REVERT JUMPDEST PUSH1 0x0 DUP1 REVERT JUMPDEST PUSH1 0x0 PUSH1 0x1F NOT PUSH1 0x1F DUP4 ADD AND SWAP1 POP SWAP2 SWAP1 POP JUMP JUMPDEST PUSH32 0x596F7520617265206E6F74206C616E646F66666963652073746166662E000000 PUSH1 0x0 DUP3 ADD MSTORE POP JUMP JUMPDEST PUSH32 0x496E73756666696369656E742066756E6420666F722072656465656D2E000000 PUSH1 0x0 DUP3 ADD MSTORE POP JUMP JUMPDEST PUSH2 0x113F DUP2 PUSH2 0xF80 JUMP JUMPDEST DUP2 EQ PUSH2 0x114A JUMPI PUSH1 0x0 DUP1 REVERT JUMPDEST POP JUMP JUMPDEST PUSH2 0x1156 DUP2 PUSH2 0xFB2 JUMP JUMPDEST DUP2 EQ PUSH2 0x1161 JUMPI PUSH1 0x0 DUP1 REVERT JUMPDEST POP JUMP INVALID LOG2 PUSH5 0x6970667358 0x22 SLT KECCAK256 JUMP SWAP12 EXP BYTE DUP14 0xCA PUSH21 0xE1800BE5C86F24398FC981709804D436C34550A8CF 0x22 0xB9 BALANCE PUSH13 0x64736F6C634300080700330000 "
				},
				"gasEstimates": {
					"creation": {
						"codeDepositCost": "901200",
						"executionCost": "25201",
						"totalCost": "926401"
					},
					"external": {
						"createParcel(address,uint256,string,uint256,uint256)": "infinite",
						"getOlgt(address)": "infinite",
						"getParcel(address)": "infinite",
						"mortgage(address,uint256,string,uint256)": "infinite",
						"redeem(address,string,uint256)": "infinite"
					}
				},
				"methodIdentifiers": {
					"createParcel(address,uint256,string,uint256,uint256)": "935656c2",
					"getOlgt(address)": "215271cb",
					"getParcel(address)": "198e86c6",
					"mortgage(address,uint256,string,uint256)": "5f62bf42",
					"redeem(address,string,uint256)": "868571ef"
				}
			},
			"storageLayout": {
				"storage": [
					{
						"astId": 19,
						"contract": "contracts/Parcel.sol:Parcel",
						"label": "staff",
						"offset": 0,
						"slot": "0",
						"type": "t_address"
					},
					{
						"astId": 24,
						"contract": "contracts/Parcel.sol:Parcel",
						"label": "_parcel_land",
						"offset": 0,
						"slot": "1",
						"type": "t_mapping(t_address,t_struct(Parcel_land)10_storage)"
					},
					{
						"astId": 29,
						"contract": "contracts/Parcel.sol:Parcel",
						"label": "_olgt",
						"offset": 0,
						"slot": "2",
						"type": "t_mapping(t_address,t_struct(Olgt)17_storage)"
					}
				],
				"types": {
					"t_address": {
						"encoding": "inplace",
						"label": "address",
						"numberOfBytes": "20"
					},
					"t_mapping(t_address,t_struct(Olgt)17_storage)": {
						"encoding": "mapping",
						"key": "t_address",
						"label": "mapping(address => struct Olgt)",
						"numberOfBytes": "32",
						"value": "t_struct(Olgt)17_storage"
					},
					"t_mapping(t_address,t_struct(Parcel_land)10_storage)": {
						"encoding": "mapping",
						"key": "t_address",
						"label": "mapping(address => struct Parcel_land)",
						"numberOfBytes": "32",
						"value": "t_struct(Parcel_land)10_storage"
					},
					"t_string_storage": {
						"encoding": "bytes",
						"label": "string",
						"numberOfBytes": "32"
					},
					"t_struct(Olgt)17_storage": {
						"encoding": "inplace",
						"label": "struct Olgt",
						"members": [
							{
								"astId": 12,
								"contract": "contracts/Parcel.sol:Parcel",
								"label": "parcel_no",
								"offset": 0,
								"slot": "0",
								"type": "t_uint256"
							},
							{
								"astId": 14,
								"contract": "contracts/Parcel.sol:Parcel",
								"label": "olgt_name",
								"offset": 0,
								"slot": "1",
								"type": "t_string_storage"
							},
							{
								"astId": 16,
								"contract": "contracts/Parcel.sol:Parcel",
								"label": "olgt_price",
								"offset": 0,
								"slot": "2",
								"type": "t_uint256"
							}
						],
						"numberOfBytes": "96"
					},
					"t_struct(Parcel_land)10_storage": {
						"encoding": "inplace",
						"label": "struct Parcel_land",
						"members": [
							{
								"astId": 3,
								"contract": "contracts/Parcel.sol:Parcel",
								"label": "parcel_no",
								"offset": 0,
								"slot": "0",
								"type": "t_uint256"
							},
							{
								"astId": 5,
								"contract": "contracts/Parcel.sol:Parcel",
								"label": "owner_name",
								"offset": 0,
								"slot": "1",
								"type": "t_string_storage"
							},
							{
								"astId": 7,
								"contract": "contracts/Parcel.sol:Parcel",
								"label": "price",
								"offset": 0,
								"slot": "2",
								"type": "t_uint256"
							},
							{
								"astId": 9,
								"contract": "contracts/Parcel.sol:Parcel",
								"label": "area",
								"offset": 0,
								"slot": "3",
								"type": "t_uint256"
							}
						],
						"numberOfBytes": "128"
					},
					"t_uint256": {
						"encoding": "inplace",
						"label": "uint256",
						"numberOfBytes": "32"
					}
				}
			},
			"userdoc": {
				"kind": "user",
				"methods": {},
				"version": 1
			}
		}
	}
}