{
	"contracts/Parcel.sol": {
		"Parcel": {
			"abi": [
				{
					"inputs": [],
					"stateMutability": "nonpayable",
					"type": "constructor"
				},
				{
					"inputs": [
						{
							"internalType": "address",
							"name": "owner",
							"type": "address"
						},
						{
							"internalType": "uint256",
							"name": "parcel_no",
							"type": "uint256"
						},
						{
							"internalType": "string",
							"name": "owner_name",
							"type": "string"
						},
						{
							"internalType": "uint256",
							"name": "price",
							"type": "uint256"
						},
						{
							"internalType": "uint256",
							"name": "area",
							"type": "uint256"
						}
					],
					"name": "createParcel",
					"outputs": [],
					"stateMutability": "nonpayable",
					"type": "function"
				},
				{
					"inputs": [
						{
							"internalType": "address",
							"name": "owner",
							"type": "address"
						}
					],
					"name": "getOlgt",
					"outputs": [
						{
							"components": [
								{
									"internalType": "uint256",
									"name": "parcel_no",
									"type": "uint256"
								},
								{
									"internalType": "string",
									"name": "olgt_name",
									"type": "string"
								},
								{
									"internalType": "uint256",
									"name": "olgt_price",
									"type": "uint256"
								}
							],
							"internalType": "struct OlgtBank",
							"name": "olgt",
							"type": "tuple"
						}
					],
					"stateMutability": "view",
					"type": "function"
				},
				{
					"inputs": [
						{
							"internalType": "address",
							"name": "owner",
							"type": "address"
						}
					],
					"name": "getParcel",
					"outputs": [
						{
							"components": [
								{
									"internalType": "uint256",
									"name": "parcel_no",
									"type": "uint256"
								},
								{
									"internalType": "string",
									"name": "owner_name",
									"type": "string"
								},
								{
									"internalType": "uint256",
									"name": "price",
									"type": "uint256"
								},
								{
									"internalType": "uint256",
									"name": "area",
									"type": "uint256"
								}
							],
							"internalType": "struct Parcel_land",
							"name": "parcel_land",
							"type": "tuple"
						}
					],
					"stateMutability": "view",
					"type": "function"
				},
				{
					"inputs": [
						{
							"internalType": "address",
							"name": "owner",
							"type": "address"
						},
						{
							"internalType": "address",
							"name": "bank",
							"type": "address"
						},
						{
							"internalType": "uint256",
							"name": "parcel_no",
							"type": "uint256"
						},
						{
							"internalType": "string",
							"name": "owner_name",
							"type": "string"
						}
					],
					"name": "mortgage",
					"outputs": [],
					"stateMutability": "payable",
					"type": "function"
				},
				{
					"inputs": [
						{
							"internalType": "address",
							"name": "owner",
							"type": "address"
						},
						{
							"internalType": "string",
							"name": "owner_name",
							"type": "string"
						},
						{
							"internalType": "uint256",
							"name": "price",
							"type": "uint256"
						}
					],
					"name": "redeem",
					"outputs": [],
					"stateMutability": "nonpayable",
					"type": "function"
				}
			],
			"devdoc": {
				"kind": "dev",
				"methods": {},
				"version": 1
			},
			"evm": {
				"assembly": "    /* \"contracts/Parcel.sol\":317:2524  contract Parcel {\r... */\n  mstore(0x40, 0x80)\n    /* \"contracts/Parcel.sol\":533:584  constructor() {\r... */\n  callvalue\n  dup1\n  iszero\n  tag_1\n  jumpi\n  0x00\n  dup1\n  revert\ntag_1:\n  pop\n    /* \"contracts/Parcel.sol\":566:576  msg.sender */\n  caller\n    /* \"contracts/Parcel.sol\":558:563  staff */\n  0x00\n  dup1\n    /* \"contracts/Parcel.sol\":558:576  staff = msg.sender */\n  0x0100\n  exp\n  dup2\n  sload\n  dup2\n  0xffffffffffffffffffffffffffffffffffffffff\n  mul\n  not\n  and\n  swap1\n  dup4\n  0xffffffffffffffffffffffffffffffffffffffff\n  and\n  mul\n  or\n  swap1\n  sstore\n  pop\n    /* \"contracts/Parcel.sol\":317:2524  contract Parcel {\r... */\n  dataSize(sub_0)\n  dup1\n  dataOffset(sub_0)\n  0x00\n  codecopy\n  0x00\n  return\nstop\n\nsub_0: assembly {\n        /* \"contracts/Parcel.sol\":317:2524  contract Parcel {\r... */\n      mstore(0x40, 0x80)\n      jumpi(tag_1, lt(calldatasize, 0x04))\n      shr(0xe0, calldataload(0x00))\n      dup1\n      0x198e86c6\n      eq\n      tag_2\n      jumpi\n      dup1\n      0x215271cb\n      eq\n      tag_3\n      jumpi\n      dup1\n      0x491394c2\n      eq\n      tag_4\n      jumpi\n      dup1\n      0x868571ef\n      eq\n      tag_5\n      jumpi\n      dup1\n      0x935656c2\n      eq\n      tag_6\n      jumpi\n    tag_1:\n      0x00\n      dup1\n      revert\n        /* \"contracts/Parcel.sol\":1111:1243  function getParcel(address owner) public view returns (Parcel_land memory parcel_land) {\r... */\n    tag_2:\n      callvalue\n      dup1\n      iszero\n      tag_7\n      jumpi\n      0x00\n      dup1\n      revert\n    tag_7:\n      pop\n      tag_8\n      0x04\n      dup1\n      calldatasize\n      sub\n      dup2\n      add\n      swap1\n      tag_9\n      swap2\n      swap1\n      tag_10\n      jump\t// in\n    tag_9:\n      tag_11\n      jump\t// in\n    tag_8:\n      mload(0x40)\n      tag_12\n      swap2\n      swap1\n      tag_13\n      jump\t// in\n    tag_12:\n      mload(0x40)\n      dup1\n      swap2\n      sub\n      swap1\n      return\n        /* \"contracts/Parcel.sol\":1251:1369  function getOlgt(address owner) public view returns (OlgtBank memory olgt) {\r... */\n    tag_3:\n      callvalue\n      dup1\n      iszero\n      tag_14\n      jumpi\n      0x00\n      dup1\n      revert\n    tag_14:\n      pop\n      tag_15\n      0x04\n      dup1\n      calldatasize\n      sub\n      dup2\n      add\n      swap1\n      tag_16\n      swap2\n      swap1\n      tag_10\n      jump\t// in\n    tag_16:\n      tag_17\n      jump\t// in\n    tag_15:\n      mload(0x40)\n      tag_18\n      swap2\n      swap1\n      tag_19\n      jump\t// in\n    tag_18:\n      mload(0x40)\n      dup1\n      swap2\n      sub\n      swap1\n      return\n        /* \"contracts/Parcel.sol\":1503:1986  function mortgage(address owner, address bank, uint parcel_no, string memory owner_name) isStaff public payable  {\r... */\n    tag_4:\n      tag_20\n      0x04\n      dup1\n      calldatasize\n      sub\n      dup2\n      add\n      swap1\n      tag_21\n      swap2\n      swap1\n      tag_22\n      jump\t// in\n    tag_21:\n      tag_23\n      jump\t// in\n    tag_20:\n      stop\n        /* \"contracts/Parcel.sol\":2153:2519  function redeem(address owner, string memory owner_name, uint price) isStaff public  {\r... */\n    tag_5:\n      callvalue\n      dup1\n      iszero\n      tag_24\n      jumpi\n      0x00\n      dup1\n      revert\n    tag_24:\n      pop\n      tag_25\n      0x04\n      dup1\n      calldatasize\n      sub\n      dup2\n      add\n      swap1\n      tag_26\n      swap2\n      swap1\n      tag_27\n      jump\t// in\n    tag_26:\n      tag_28\n      jump\t// in\n    tag_25:\n      stop\n        /* \"contracts/Parcel.sol\":790:1103  function createParcel(address owner, uint parcel_no, string memory owner_name, uint price, uint area) isStaff public {\r... */\n    tag_6:\n      callvalue\n      dup1\n      iszero\n      tag_29\n      jumpi\n      0x00\n      dup1\n      revert\n    tag_29:\n      pop\n      tag_30\n      0x04\n      dup1\n      calldatasize\n      sub\n      dup2\n      add\n      swap1\n      tag_31\n      swap2\n      swap1\n      tag_32\n      jump\t// in\n    tag_31:\n      tag_33\n      jump\t// in\n    tag_30:\n      stop\n        /* \"contracts/Parcel.sol\":1111:1243  function getParcel(address owner) public view returns (Parcel_land memory parcel_land) {\r... */\n    tag_11:\n        /* \"contracts/Parcel.sol\":1166:1196  Parcel_land memory parcel_land */\n      tag_34\n      tag_35\n      jump\t// in\n    tag_34:\n        /* \"contracts/Parcel.sol\":1216:1228  _parcel_land */\n      0x01\n        /* \"contracts/Parcel.sol\":1216:1235  _parcel_land[owner] */\n      0x00\n        /* \"contracts/Parcel.sol\":1229:1234  owner */\n      dup4\n        /* \"contracts/Parcel.sol\":1216:1235  _parcel_land[owner] */\n      0xffffffffffffffffffffffffffffffffffffffff\n      and\n      0xffffffffffffffffffffffffffffffffffffffff\n      and\n      dup2\n      mstore\n      0x20\n      add\n      swap1\n      dup2\n      mstore\n      0x20\n      add\n      0x00\n      keccak256\n        /* \"contracts/Parcel.sol\":1209:1235  return _parcel_land[owner] */\n      mload(0x40)\n      dup1\n      0x80\n      add\n      0x40\n      mstore\n      swap1\n      dup2\n      0x00\n      dup3\n      add\n      sload\n      dup2\n      mstore\n      0x20\n      add\n      0x01\n      dup3\n      add\n      dup1\n      sload\n      tag_37\n      swap1\n      tag_38\n      jump\t// in\n    tag_37:\n      dup1\n      0x1f\n      add\n      0x20\n      dup1\n      swap2\n      div\n      mul\n      0x20\n      add\n      mload(0x40)\n      swap1\n      dup2\n      add\n      0x40\n      mstore\n      dup1\n      swap3\n      swap2\n      swap1\n      dup2\n      dup2\n      mstore\n      0x20\n      add\n      dup3\n      dup1\n      sload\n      tag_39\n      swap1\n      tag_38\n      jump\t// in\n    tag_39:\n      dup1\n      iszero\n      tag_40\n      jumpi\n      dup1\n      0x1f\n      lt\n      tag_41\n      jumpi\n      0x0100\n      dup1\n      dup4\n      sload\n      div\n      mul\n      dup4\n      mstore\n      swap2\n      0x20\n      add\n      swap2\n      jump(tag_40)\n    tag_41:\n      dup3\n      add\n      swap2\n      swap1\n      0x00\n      mstore\n      keccak256(0x00, 0x20)\n      swap1\n    tag_42:\n      dup2\n      sload\n      dup2\n      mstore\n      swap1\n      0x01\n      add\n      swap1\n      0x20\n      add\n      dup1\n      dup4\n      gt\n      tag_42\n      jumpi\n      dup3\n      swap1\n      sub\n      0x1f\n      and\n      dup3\n      add\n      swap2\n    tag_40:\n      pop\n      pop\n      pop\n      pop\n      pop\n      dup2\n      mstore\n      0x20\n      add\n      0x02\n      dup3\n      add\n      sload\n      dup2\n      mstore\n      0x20\n      add\n      0x03\n      dup3\n      add\n      sload\n      dup2\n      mstore\n      pop\n      pop\n      swap1\n      pop\n        /* \"contracts/Parcel.sol\":1111:1243  function getParcel(address owner) public view returns (Parcel_land memory parcel_land) {\r... */\n      swap2\n      swap1\n      pop\n      jump\t// out\n        /* \"contracts/Parcel.sol\":1251:1369  function getOlgt(address owner) public view returns (OlgtBank memory olgt) {\r... */\n    tag_17:\n        /* \"contracts/Parcel.sol\":1304:1324  OlgtBank memory olgt */\n      tag_43\n      tag_44\n      jump\t// in\n    tag_43:\n        /* \"contracts/Parcel.sol\":1344:1354  _olgt_bank */\n      0x02\n        /* \"contracts/Parcel.sol\":1344:1361  _olgt_bank[owner] */\n      0x00\n        /* \"contracts/Parcel.sol\":1355:1360  owner */\n      dup4\n        /* \"contracts/Parcel.sol\":1344:1361  _olgt_bank[owner] */\n      0xffffffffffffffffffffffffffffffffffffffff\n      and\n      0xffffffffffffffffffffffffffffffffffffffff\n      and\n      dup2\n      mstore\n      0x20\n      add\n      swap1\n      dup2\n      mstore\n      0x20\n      add\n      0x00\n      keccak256\n        /* \"contracts/Parcel.sol\":1337:1361  return _olgt_bank[owner] */\n      mload(0x40)\n      dup1\n      0x60\n      add\n      0x40\n      mstore\n      swap1\n      dup2\n      0x00\n      dup3\n      add\n      sload\n      dup2\n      mstore\n      0x20\n      add\n      0x01\n      dup3\n      add\n      dup1\n      sload\n      tag_46\n      swap1\n      tag_38\n      jump\t// in\n    tag_46:\n      dup1\n      0x1f\n      add\n      0x20\n      dup1\n      swap2\n      div\n      mul\n      0x20\n      add\n      mload(0x40)\n      swap1\n      dup2\n      add\n      0x40\n      mstore\n      dup1\n      swap3\n      swap2\n      swap1\n      dup2\n      dup2\n      mstore\n      0x20\n      add\n      dup3\n      dup1\n      sload\n      tag_47\n      swap1\n      tag_38\n      jump\t// in\n    tag_47:\n      dup1\n      iszero\n      tag_48\n      jumpi\n      dup1\n      0x1f\n      lt\n      tag_49\n      jumpi\n      0x0100\n      dup1\n      dup4\n      sload\n      div\n      mul\n      dup4\n      mstore\n      swap2\n      0x20\n      add\n      swap2\n      jump(tag_48)\n    tag_49:\n      dup3\n      add\n      swap2\n      swap1\n      0x00\n      mstore\n      keccak256(0x00, 0x20)\n      swap1\n    tag_50:\n      dup2\n      sload\n      dup2\n      mstore\n      swap1\n      0x01\n      add\n      swap1\n      0x20\n      add\n      dup1\n      dup4\n      gt\n      tag_50\n      jumpi\n      dup3\n      swap1\n      sub\n      0x1f\n      and\n      dup3\n      add\n      swap2\n    tag_48:\n      pop\n      pop\n      pop\n      pop\n      pop\n      dup2\n      mstore\n      0x20\n      add\n      0x02\n      dup3\n      add\n      sload\n      dup2\n      mstore\n      pop\n      pop\n      swap1\n      pop\n        /* \"contracts/Parcel.sol\":1251:1369  function getOlgt(address owner) public view returns (OlgtBank memory olgt) {\r... */\n      swap2\n      swap1\n      pop\n      jump\t// out\n        /* \"contracts/Parcel.sol\":1503:1986  function mortgage(address owner, address bank, uint parcel_no, string memory owner_name) isStaff public payable  {\r... */\n    tag_23:\n        /* \"contracts/Parcel.sol\":642:647  staff */\n      0x00\n      dup1\n      sload\n      swap1\n      0x0100\n      exp\n      swap1\n      div\n      0xffffffffffffffffffffffffffffffffffffffff\n      and\n        /* \"contracts/Parcel.sol\":628:647  msg.sender == staff */\n      0xffffffffffffffffffffffffffffffffffffffff\n      and\n        /* \"contracts/Parcel.sol\":628:638  msg.sender */\n      caller\n        /* \"contracts/Parcel.sol\":628:647  msg.sender == staff */\n      0xffffffffffffffffffffffffffffffffffffffff\n      and\n      eq\n        /* \"contracts/Parcel.sol\":620:681  require(msg.sender == staff, \"You are not landoffice staff.\") */\n      tag_52\n      jumpi\n      mload(0x40)\n      0x08c379a000000000000000000000000000000000000000000000000000000000\n      dup2\n      mstore\n      0x04\n      add\n      tag_53\n      swap1\n      tag_54\n      jump\t// in\n    tag_53:\n      mload(0x40)\n      dup1\n      swap2\n      sub\n      swap1\n      revert\n    tag_52:\n        /* \"contracts/Parcel.sol\":1660:1670  owner_name */\n      dup1\n        /* \"contracts/Parcel.sol\":1627:1639  _parcel_land */\n      0x01\n        /* \"contracts/Parcel.sol\":1627:1646  _parcel_land[owner] */\n      0x00\n        /* \"contracts/Parcel.sol\":1640:1645  owner */\n      dup7\n        /* \"contracts/Parcel.sol\":1627:1646  _parcel_land[owner] */\n      0xffffffffffffffffffffffffffffffffffffffff\n      and\n      0xffffffffffffffffffffffffffffffffffffffff\n      and\n      dup2\n      mstore\n      0x20\n      add\n      swap1\n      dup2\n      mstore\n      0x20\n      add\n      0x00\n      keccak256\n        /* \"contracts/Parcel.sol\":1627:1657  _parcel_land[owner].owner_name */\n      0x01\n      add\n        /* \"contracts/Parcel.sol\":1627:1670  _parcel_land[owner].owner_name = owner_name */\n      swap1\n      dup1\n      mload\n      swap1\n      0x20\n      add\n      swap1\n      tag_56\n      swap3\n      swap2\n      swap1\n      tag_57\n      jump\t// in\n    tag_56:\n      pop\n        /* \"contracts/Parcel.sol\":1711:1720  parcel_no */\n      dup2\n        /* \"contracts/Parcel.sol\":1681:1691  _olgt_bank */\n      0x02\n        /* \"contracts/Parcel.sol\":1681:1698  _olgt_bank[owner] */\n      0x00\n        /* \"contracts/Parcel.sol\":1692:1697  owner */\n      dup7\n        /* \"contracts/Parcel.sol\":1681:1698  _olgt_bank[owner] */\n      0xffffffffffffffffffffffffffffffffffffffff\n      and\n      0xffffffffffffffffffffffffffffffffffffffff\n      and\n      dup2\n      mstore\n      0x20\n      add\n      swap1\n      dup2\n      mstore\n      0x20\n      add\n      0x00\n      keccak256\n        /* \"contracts/Parcel.sol\":1681:1708  _olgt_bank[owner].parcel_no */\n      0x00\n      add\n        /* \"contracts/Parcel.sol\":1681:1720  _olgt_bank[owner].parcel_no = parcel_no */\n      dup2\n      swap1\n      sstore\n      pop\n        /* \"contracts/Parcel.sol\":1761:1771  owner_name */\n      dup1\n        /* \"contracts/Parcel.sol\":1731:1741  _olgt_bank */\n      0x02\n        /* \"contracts/Parcel.sol\":1731:1748  _olgt_bank[owner] */\n      0x00\n        /* \"contracts/Parcel.sol\":1742:1747  owner */\n      dup7\n        /* \"contracts/Parcel.sol\":1731:1748  _olgt_bank[owner] */\n      0xffffffffffffffffffffffffffffffffffffffff\n      and\n      0xffffffffffffffffffffffffffffffffffffffff\n      and\n      dup2\n      mstore\n      0x20\n      add\n      swap1\n      dup2\n      mstore\n      0x20\n      add\n      0x00\n      keccak256\n        /* \"contracts/Parcel.sol\":1731:1758  _olgt_bank[owner].olgt_name */\n      0x01\n      add\n        /* \"contracts/Parcel.sol\":1731:1771  _olgt_bank[owner].olgt_name = owner_name */\n      swap1\n      dup1\n      mload\n      swap1\n      0x20\n      add\n      swap1\n      tag_58\n      swap3\n      swap2\n      swap1\n      tag_57\n      jump\t// in\n    tag_58:\n      pop\n        /* \"contracts/Parcel.sol\":1813:1822  msg.value */\n      callvalue\n        /* \"contracts/Parcel.sol\":1782:1792  _olgt_bank */\n      0x02\n        /* \"contracts/Parcel.sol\":1782:1799  _olgt_bank[owner] */\n      0x00\n        /* \"contracts/Parcel.sol\":1793:1798  owner */\n      dup7\n        /* \"contracts/Parcel.sol\":1782:1799  _olgt_bank[owner] */\n      0xffffffffffffffffffffffffffffffffffffffff\n      and\n      0xffffffffffffffffffffffffffffffffffffffff\n      and\n      dup2\n      mstore\n      0x20\n      add\n      swap1\n      dup2\n      mstore\n      0x20\n      add\n      0x00\n      keccak256\n        /* \"contracts/Parcel.sol\":1782:1810  _olgt_bank[owner].olgt_price */\n      0x02\n      add\n        /* \"contracts/Parcel.sol\":1782:1822  _olgt_bank[owner].olgt_price = msg.value */\n      dup2\n      swap1\n      sstore\n      pop\n        /* \"contracts/Parcel.sol\":1953:1957  bank */\n      dup3\n        /* \"contracts/Parcel.sol\":1945:1967  payable(bank).transfer */\n      0xffffffffffffffffffffffffffffffffffffffff\n      and\n        /* \"contracts/Parcel.sol\":1945:1978  payable(bank).transfer(msg.value) */\n      0x08fc\n        /* \"contracts/Parcel.sol\":1968:1977  msg.value */\n      callvalue\n        /* \"contracts/Parcel.sol\":1945:1978  payable(bank).transfer(msg.value) */\n      swap1\n      dup2\n      iszero\n      mul\n      swap1\n      mload(0x40)\n      0x00\n      mload(0x40)\n      dup1\n      dup4\n      sub\n      dup2\n      dup6\n      dup9\n      dup9\n      call\n      swap4\n      pop\n      pop\n      pop\n      pop\n      iszero\n      dup1\n      iszero\n      tag_60\n      jumpi\n      returndatasize\n      0x00\n      dup1\n      returndatacopy\n      revert(0x00, returndatasize)\n    tag_60:\n      pop\n        /* \"contracts/Parcel.sol\":1503:1986  function mortgage(address owner, address bank, uint parcel_no, string memory owner_name) isStaff public payable  {\r... */\n      pop\n      pop\n      pop\n      pop\n      jump\t// out\n        /* \"contracts/Parcel.sol\":2153:2519  function redeem(address owner, string memory owner_name, uint price) isStaff public  {\r... */\n    tag_28:\n        /* \"contracts/Parcel.sol\":642:647  staff */\n      0x00\n      dup1\n      sload\n      swap1\n      0x0100\n      exp\n      swap1\n      div\n      0xffffffffffffffffffffffffffffffffffffffff\n      and\n        /* \"contracts/Parcel.sol\":628:647  msg.sender == staff */\n      0xffffffffffffffffffffffffffffffffffffffff\n      and\n        /* \"contracts/Parcel.sol\":628:638  msg.sender */\n      caller\n        /* \"contracts/Parcel.sol\":628:647  msg.sender == staff */\n      0xffffffffffffffffffffffffffffffffffffffff\n      and\n      eq\n        /* \"contracts/Parcel.sol\":620:681  require(msg.sender == staff, \"You are not landoffice staff.\") */\n      tag_62\n      jumpi\n      mload(0x40)\n      0x08c379a000000000000000000000000000000000000000000000000000000000\n      dup2\n      mstore\n      0x04\n      add\n      tag_63\n      swap1\n      tag_54\n      jump\t// in\n    tag_63:\n      mload(0x40)\n      dup1\n      swap2\n      sub\n      swap1\n      revert\n    tag_62:\n        /* \"contracts/Parcel.sol\":2289:2294  price */\n      dup1\n        /* \"contracts/Parcel.sol\":2257:2267  _olgt_bank */\n      0x02\n        /* \"contracts/Parcel.sol\":2257:2274  _olgt_bank[owner] */\n      0x00\n        /* \"contracts/Parcel.sol\":2268:2273  owner */\n      dup6\n        /* \"contracts/Parcel.sol\":2257:2274  _olgt_bank[owner] */\n      0xffffffffffffffffffffffffffffffffffffffff\n      and\n      0xffffffffffffffffffffffffffffffffffffffff\n      and\n      dup2\n      mstore\n      0x20\n      add\n      swap1\n      dup2\n      mstore\n      0x20\n      add\n      0x00\n      keccak256\n        /* \"contracts/Parcel.sol\":2257:2285  _olgt_bank[owner].olgt_price */\n      0x02\n      add\n      sload\n        /* \"contracts/Parcel.sol\":2257:2294  _olgt_bank[owner].olgt_price <= price */\n      gt\n      iszero\n        /* \"contracts/Parcel.sol\":2249:2329  require(_olgt_bank[owner].olgt_price <= price , \"Insufficient fund for redeem.\") */\n      tag_65\n      jumpi\n      mload(0x40)\n      0x08c379a000000000000000000000000000000000000000000000000000000000\n      dup2\n      mstore\n      0x04\n      add\n      tag_66\n      swap1\n      tag_67\n      jump\t// in\n    tag_66:\n      mload(0x40)\n      dup1\n      swap2\n      sub\n      swap1\n      revert\n    tag_65:\n        /* \"contracts/Parcel.sol\":2373:2383  owner_name */\n      dup2\n        /* \"contracts/Parcel.sol\":2340:2352  _parcel_land */\n      0x01\n        /* \"contracts/Parcel.sol\":2340:2359  _parcel_land[owner] */\n      0x00\n        /* \"contracts/Parcel.sol\":2353:2358  owner */\n      dup6\n        /* \"contracts/Parcel.sol\":2340:2359  _parcel_land[owner] */\n      0xffffffffffffffffffffffffffffffffffffffff\n      and\n      0xffffffffffffffffffffffffffffffffffffffff\n      and\n      dup2\n      mstore\n      0x20\n      add\n      swap1\n      dup2\n      mstore\n      0x20\n      add\n      0x00\n      keccak256\n        /* \"contracts/Parcel.sol\":2340:2370  _parcel_land[owner].owner_name */\n      0x01\n      add\n        /* \"contracts/Parcel.sol\":2340:2383  _parcel_land[owner].owner_name = owner_name */\n      swap1\n      dup1\n      mload\n      swap1\n      0x20\n      add\n      swap1\n      tag_68\n      swap3\n      swap2\n      swap1\n      tag_57\n      jump\t// in\n    tag_68:\n      pop\n        /* \"contracts/Parcel.sol\":2424:2425  0 */\n      0x00\n        /* \"contracts/Parcel.sol\":2394:2404  _olgt_bank */\n      0x02\n        /* \"contracts/Parcel.sol\":2394:2411  _olgt_bank[owner] */\n      0x00\n        /* \"contracts/Parcel.sol\":2405:2410  owner */\n      dup6\n        /* \"contracts/Parcel.sol\":2394:2411  _olgt_bank[owner] */\n      0xffffffffffffffffffffffffffffffffffffffff\n      and\n      0xffffffffffffffffffffffffffffffffffffffff\n      and\n      dup2\n      mstore\n      0x20\n      add\n      swap1\n      dup2\n      mstore\n      0x20\n      add\n      0x00\n      keccak256\n        /* \"contracts/Parcel.sol\":2394:2421  _olgt_bank[owner].parcel_no */\n      0x00\n      add\n        /* \"contracts/Parcel.sol\":2394:2425  _olgt_bank[owner].parcel_no = 0 */\n      dup2\n      swap1\n      sstore\n      pop\n        /* \"contracts/Parcel.sol\":2436:2468  _olgt_bank[owner].olgt_name = \"\" */\n      mload(0x40)\n      dup1\n      0x20\n      add\n      0x40\n      mstore\n      dup1\n      0x00\n      dup2\n      mstore\n      pop\n        /* \"contracts/Parcel.sol\":2436:2446  _olgt_bank */\n      0x02\n        /* \"contracts/Parcel.sol\":2436:2453  _olgt_bank[owner] */\n      0x00\n        /* \"contracts/Parcel.sol\":2447:2452  owner */\n      dup6\n        /* \"contracts/Parcel.sol\":2436:2453  _olgt_bank[owner] */\n      0xffffffffffffffffffffffffffffffffffffffff\n      and\n      0xffffffffffffffffffffffffffffffffffffffff\n      and\n      dup2\n      mstore\n      0x20\n      add\n      swap1\n      dup2\n      mstore\n      0x20\n      add\n      0x00\n      keccak256\n        /* \"contracts/Parcel.sol\":2436:2463  _olgt_bank[owner].olgt_name */\n      0x01\n      add\n        /* \"contracts/Parcel.sol\":2436:2468  _olgt_bank[owner].olgt_name = \"\" */\n      swap1\n      dup1\n      mload\n      swap1\n      0x20\n      add\n      swap1\n      tag_69\n      swap3\n      swap2\n      swap1\n      tag_57\n      jump\t// in\n    tag_69:\n      pop\n        /* \"contracts/Parcel.sol\":2510:2511  0 */\n      0x00\n        /* \"contracts/Parcel.sol\":2479:2489  _olgt_bank */\n      0x02\n        /* \"contracts/Parcel.sol\":2479:2496  _olgt_bank[owner] */\n      0x00\n        /* \"contracts/Parcel.sol\":2490:2495  owner */\n      dup6\n        /* \"contracts/Parcel.sol\":2479:2496  _olgt_bank[owner] */\n      0xffffffffffffffffffffffffffffffffffffffff\n      and\n      0xffffffffffffffffffffffffffffffffffffffff\n      and\n      dup2\n      mstore\n      0x20\n      add\n      swap1\n      dup2\n      mstore\n      0x20\n      add\n      0x00\n      keccak256\n        /* \"contracts/Parcel.sol\":2479:2507  _olgt_bank[owner].olgt_price */\n      0x02\n      add\n        /* \"contracts/Parcel.sol\":2479:2511  _olgt_bank[owner].olgt_price = 0 */\n      dup2\n      swap1\n      sstore\n      pop\n        /* \"contracts/Parcel.sol\":2153:2519  function redeem(address owner, string memory owner_name, uint price) isStaff public  {\r... */\n      pop\n      pop\n      pop\n      jump\t// out\n        /* \"contracts/Parcel.sol\":790:1103  function createParcel(address owner, uint parcel_no, string memory owner_name, uint price, uint area) isStaff public {\r... */\n    tag_33:\n        /* \"contracts/Parcel.sol\":642:647  staff */\n      0x00\n      dup1\n      sload\n      swap1\n      0x0100\n      exp\n      swap1\n      div\n      0xffffffffffffffffffffffffffffffffffffffff\n      and\n        /* \"contracts/Parcel.sol\":628:647  msg.sender == staff */\n      0xffffffffffffffffffffffffffffffffffffffff\n      and\n        /* \"contracts/Parcel.sol\":628:638  msg.sender */\n      caller\n        /* \"contracts/Parcel.sol\":628:647  msg.sender == staff */\n      0xffffffffffffffffffffffffffffffffffffffff\n      and\n      eq\n        /* \"contracts/Parcel.sol\":620:681  require(msg.sender == staff, \"You are not landoffice staff.\") */\n      tag_71\n      jumpi\n      mload(0x40)\n      0x08c379a000000000000000000000000000000000000000000000000000000000\n      dup2\n      mstore\n      0x04\n      add\n      tag_72\n      swap1\n      tag_54\n      jump\t// in\n    tag_72:\n      mload(0x40)\n      dup1\n      swap2\n      sub\n      swap1\n      revert\n    tag_71:\n        /* \"contracts/Parcel.sol\":949:958  parcel_no */\n      dup4\n        /* \"contracts/Parcel.sol\":917:929  _parcel_land */\n      0x01\n        /* \"contracts/Parcel.sol\":917:936  _parcel_land[owner] */\n      0x00\n        /* \"contracts/Parcel.sol\":930:935  owner */\n      dup8\n        /* \"contracts/Parcel.sol\":917:936  _parcel_land[owner] */\n      0xffffffffffffffffffffffffffffffffffffffff\n      and\n      0xffffffffffffffffffffffffffffffffffffffff\n      and\n      dup2\n      mstore\n      0x20\n      add\n      swap1\n      dup2\n      mstore\n      0x20\n      add\n      0x00\n      keccak256\n        /* \"contracts/Parcel.sol\":917:946  _parcel_land[owner].parcel_no */\n      0x00\n      add\n        /* \"contracts/Parcel.sol\":917:958  _parcel_land[owner].parcel_no = parcel_no */\n      dup2\n      swap1\n      sstore\n      pop\n        /* \"contracts/Parcel.sol\":1001:1011  owner_name */\n      dup3\n        /* \"contracts/Parcel.sol\":968:980  _parcel_land */\n      0x01\n        /* \"contracts/Parcel.sol\":968:987  _parcel_land[owner] */\n      0x00\n        /* \"contracts/Parcel.sol\":981:986  owner */\n      dup8\n        /* \"contracts/Parcel.sol\":968:987  _parcel_land[owner] */\n      0xffffffffffffffffffffffffffffffffffffffff\n      and\n      0xffffffffffffffffffffffffffffffffffffffff\n      and\n      dup2\n      mstore\n      0x20\n      add\n      swap1\n      dup2\n      mstore\n      0x20\n      add\n      0x00\n      keccak256\n        /* \"contracts/Parcel.sol\":968:998  _parcel_land[owner].owner_name */\n      0x01\n      add\n        /* \"contracts/Parcel.sol\":968:1011  _parcel_land[owner].owner_name = owner_name */\n      swap1\n      dup1\n      mload\n      swap1\n      0x20\n      add\n      swap1\n      tag_74\n      swap3\n      swap2\n      swap1\n      tag_57\n      jump\t// in\n    tag_74:\n      pop\n        /* \"contracts/Parcel.sol\":1049:1054  price */\n      dup2\n        /* \"contracts/Parcel.sol\":1021:1033  _parcel_land */\n      0x01\n        /* \"contracts/Parcel.sol\":1021:1040  _parcel_land[owner] */\n      0x00\n        /* \"contracts/Parcel.sol\":1034:1039  owner */\n      dup8\n        /* \"contracts/Parcel.sol\":1021:1040  _parcel_land[owner] */\n      0xffffffffffffffffffffffffffffffffffffffff\n      and\n      0xffffffffffffffffffffffffffffffffffffffff\n      and\n      dup2\n      mstore\n      0x20\n      add\n      swap1\n      dup2\n      mstore\n      0x20\n      add\n      0x00\n      keccak256\n        /* \"contracts/Parcel.sol\":1021:1046  _parcel_land[owner].price */\n      0x02\n      add\n        /* \"contracts/Parcel.sol\":1021:1054  _parcel_land[owner].price = price */\n      dup2\n      swap1\n      sstore\n      pop\n        /* \"contracts/Parcel.sol\":1091:1095  area */\n      dup1\n        /* \"contracts/Parcel.sol\":1064:1076  _parcel_land */\n      0x01\n        /* \"contracts/Parcel.sol\":1064:1083  _parcel_land[owner] */\n      0x00\n        /* \"contracts/Parcel.sol\":1077:1082  owner */\n      dup8\n        /* \"contracts/Parcel.sol\":1064:1083  _parcel_land[owner] */\n      0xffffffffffffffffffffffffffffffffffffffff\n      and\n      0xffffffffffffffffffffffffffffffffffffffff\n      and\n      dup2\n      mstore\n      0x20\n      add\n      swap1\n      dup2\n      mstore\n      0x20\n      add\n      0x00\n      keccak256\n        /* \"contracts/Parcel.sol\":1064:1088  _parcel_land[owner].area */\n      0x03\n      add\n        /* \"contracts/Parcel.sol\":1064:1095  _parcel_land[owner].area = area */\n      dup2\n      swap1\n      sstore\n      pop\n        /* \"contracts/Parcel.sol\":790:1103  function createParcel(address owner, uint parcel_no, string memory owner_name, uint price, uint area) isStaff public {\r... */\n      pop\n      pop\n      pop\n      pop\n      pop\n      jump\t// out\n    tag_35:\n      mload(0x40)\n      dup1\n      0x80\n      add\n      0x40\n      mstore\n      dup1\n      0x00\n      dup2\n      mstore\n      0x20\n      add\n      0x60\n      dup2\n      mstore\n      0x20\n      add\n      0x00\n      dup2\n      mstore\n      0x20\n      add\n      0x00\n      dup2\n      mstore\n      pop\n      swap1\n      jump\t// out\n    tag_44:\n      mload(0x40)\n      dup1\n      0x60\n      add\n      0x40\n      mstore\n      dup1\n      0x00\n      dup2\n      mstore\n      0x20\n      add\n      0x60\n      dup2\n      mstore\n      0x20\n      add\n      0x00\n      dup2\n      mstore\n      pop\n      swap1\n      jump\t// out\n    tag_57:\n      dup3\n      dup1\n      sload\n      tag_75\n      swap1\n      tag_38\n      jump\t// in\n    tag_75:\n      swap1\n      0x00\n      mstore\n      keccak256(0x00, 0x20)\n      swap1\n      0x1f\n      add\n      0x20\n      swap1\n      div\n      dup2\n      add\n      swap3\n      dup3\n      tag_77\n      jumpi\n      0x00\n      dup6\n      sstore\n      jump(tag_76)\n    tag_77:\n      dup3\n      0x1f\n      lt\n      tag_78\n      jumpi\n      dup1\n      mload\n      not(0xff)\n      and\n      dup4\n      dup1\n      add\n      or\n      dup6\n      sstore\n      jump(tag_76)\n    tag_78:\n      dup3\n      dup1\n      add\n      0x01\n      add\n      dup6\n      sstore\n      dup3\n      iszero\n      tag_76\n      jumpi\n      swap2\n      dup3\n      add\n    tag_79:\n      dup3\n      dup2\n      gt\n      iszero\n      tag_80\n      jumpi\n      dup3\n      mload\n      dup3\n      sstore\n      swap2\n      0x20\n      add\n      swap2\n      swap1\n      0x01\n      add\n      swap1\n      jump(tag_79)\n    tag_80:\n    tag_76:\n      pop\n      swap1\n      pop\n      tag_81\n      swap2\n      swap1\n      tag_82\n      jump\t// in\n    tag_81:\n      pop\n      swap1\n      jump\t// out\n    tag_82:\n    tag_83:\n      dup1\n      dup3\n      gt\n      iszero\n      tag_84\n      jumpi\n      0x00\n      dup2\n      0x00\n      swap1\n      sstore\n      pop\n      0x01\n      add\n      jump(tag_83)\n    tag_84:\n      pop\n      swap1\n      jump\t// out\n        /* \"#utility.yul\":7:419   */\n    tag_86:\n        /* \"#utility.yul\":85:90   */\n      0x00\n        /* \"#utility.yul\":110:176   */\n      tag_88\n        /* \"#utility.yul\":126:175   */\n      tag_89\n        /* \"#utility.yul\":168:174   */\n      dup5\n        /* \"#utility.yul\":126:175   */\n      tag_90\n      jump\t// in\n    tag_89:\n        /* \"#utility.yul\":110:176   */\n      tag_91\n      jump\t// in\n    tag_88:\n        /* \"#utility.yul\":101:176   */\n      swap1\n      pop\n        /* \"#utility.yul\":199:205   */\n      dup3\n        /* \"#utility.yul\":192:197   */\n      dup2\n        /* \"#utility.yul\":185:206   */\n      mstore\n        /* \"#utility.yul\":237:241   */\n      0x20\n        /* \"#utility.yul\":230:235   */\n      dup2\n        /* \"#utility.yul\":226:242   */\n      add\n        /* \"#utility.yul\":275:278   */\n      dup5\n        /* \"#utility.yul\":266:272   */\n      dup5\n        /* \"#utility.yul\":261:264   */\n      dup5\n        /* \"#utility.yul\":257:273   */\n      add\n        /* \"#utility.yul\":254:279   */\n      gt\n        /* \"#utility.yul\":251:363   */\n      iszero\n      tag_92\n      jumpi\n        /* \"#utility.yul\":282:361   */\n      tag_93\n      tag_94\n      jump\t// in\n    tag_93:\n        /* \"#utility.yul\":251:363   */\n    tag_92:\n        /* \"#utility.yul\":372:413   */\n      tag_95\n        /* \"#utility.yul\":406:412   */\n      dup5\n        /* \"#utility.yul\":401:404   */\n      dup3\n        /* \"#utility.yul\":396:399   */\n      dup6\n        /* \"#utility.yul\":372:413   */\n      tag_96\n      jump\t// in\n    tag_95:\n        /* \"#utility.yul\":91:419   */\n      pop\n        /* \"#utility.yul\":7:419   */\n      swap4\n      swap3\n      pop\n      pop\n      pop\n      jump\t// out\n        /* \"#utility.yul\":425:564   */\n    tag_97:\n        /* \"#utility.yul\":471:476   */\n      0x00\n        /* \"#utility.yul\":509:515   */\n      dup2\n        /* \"#utility.yul\":496:516   */\n      calldataload\n        /* \"#utility.yul\":487:516   */\n      swap1\n      pop\n        /* \"#utility.yul\":525:558   */\n      tag_99\n        /* \"#utility.yul\":552:557   */\n      dup2\n        /* \"#utility.yul\":525:558   */\n      tag_100\n      jump\t// in\n    tag_99:\n        /* \"#utility.yul\":425:564   */\n      swap3\n      swap2\n      pop\n      pop\n      jump\t// out\n        /* \"#utility.yul\":584:924   */\n    tag_101:\n        /* \"#utility.yul\":640:645   */\n      0x00\n        /* \"#utility.yul\":689:692   */\n      dup3\n        /* \"#utility.yul\":682:686   */\n      0x1f\n        /* \"#utility.yul\":674:680   */\n      dup4\n        /* \"#utility.yul\":670:687   */\n      add\n        /* \"#utility.yul\":666:693   */\n      slt\n        /* \"#utility.yul\":656:778   */\n      tag_103\n      jumpi\n        /* \"#utility.yul\":697:776   */\n      tag_104\n      tag_105\n      jump\t// in\n    tag_104:\n        /* \"#utility.yul\":656:778   */\n    tag_103:\n        /* \"#utility.yul\":814:820   */\n      dup2\n        /* \"#utility.yul\":801:821   */\n      calldataload\n        /* \"#utility.yul\":839:918   */\n      tag_106\n        /* \"#utility.yul\":914:917   */\n      dup5\n        /* \"#utility.yul\":906:912   */\n      dup3\n        /* \"#utility.yul\":899:903   */\n      0x20\n        /* \"#utility.yul\":891:897   */\n      dup7\n        /* \"#utility.yul\":887:904   */\n      add\n        /* \"#utility.yul\":839:918   */\n      tag_86\n      jump\t// in\n    tag_106:\n        /* \"#utility.yul\":830:918   */\n      swap2\n      pop\n        /* \"#utility.yul\":646:924   */\n      pop\n        /* \"#utility.yul\":584:924   */\n      swap3\n      swap2\n      pop\n      pop\n      jump\t// out\n        /* \"#utility.yul\":930:1069   */\n    tag_107:\n        /* \"#utility.yul\":976:981   */\n      0x00\n        /* \"#utility.yul\":1014:1020   */\n      dup2\n        /* \"#utility.yul\":1001:1021   */\n      calldataload\n        /* \"#utility.yul\":992:1021   */\n      swap1\n      pop\n        /* \"#utility.yul\":1030:1063   */\n      tag_109\n        /* \"#utility.yul\":1057:1062   */\n      dup2\n        /* \"#utility.yul\":1030:1063   */\n      tag_110\n      jump\t// in\n    tag_109:\n        /* \"#utility.yul\":930:1069   */\n      swap3\n      swap2\n      pop\n      pop\n      jump\t// out\n        /* \"#utility.yul\":1075:1404   */\n    tag_10:\n        /* \"#utility.yul\":1134:1140   */\n      0x00\n        /* \"#utility.yul\":1183:1185   */\n      0x20\n        /* \"#utility.yul\":1171:1180   */\n      dup3\n        /* \"#utility.yul\":1162:1169   */\n      dup5\n        /* \"#utility.yul\":1158:1181   */\n      sub\n        /* \"#utility.yul\":1154:1186   */\n      slt\n        /* \"#utility.yul\":1151:1270   */\n      iszero\n      tag_112\n      jumpi\n        /* \"#utility.yul\":1189:1268   */\n      tag_113\n      tag_114\n      jump\t// in\n    tag_113:\n        /* \"#utility.yul\":1151:1270   */\n    tag_112:\n        /* \"#utility.yul\":1309:1310   */\n      0x00\n        /* \"#utility.yul\":1334:1387   */\n      tag_115\n        /* \"#utility.yul\":1379:1386   */\n      dup5\n        /* \"#utility.yul\":1370:1376   */\n      dup3\n        /* \"#utility.yul\":1359:1368   */\n      dup6\n        /* \"#utility.yul\":1355:1377   */\n      add\n        /* \"#utility.yul\":1334:1387   */\n      tag_97\n      jump\t// in\n    tag_115:\n        /* \"#utility.yul\":1324:1387   */\n      swap2\n      pop\n        /* \"#utility.yul\":1280:1397   */\n      pop\n        /* \"#utility.yul\":1075:1404   */\n      swap3\n      swap2\n      pop\n      pop\n      jump\t// out\n        /* \"#utility.yul\":1410:2355   */\n    tag_22:\n        /* \"#utility.yul\":1506:1512   */\n      0x00\n        /* \"#utility.yul\":1514:1520   */\n      dup1\n        /* \"#utility.yul\":1522:1528   */\n      0x00\n        /* \"#utility.yul\":1530:1536   */\n      dup1\n        /* \"#utility.yul\":1579:1582   */\n      0x80\n        /* \"#utility.yul\":1567:1576   */\n      dup6\n        /* \"#utility.yul\":1558:1565   */\n      dup8\n        /* \"#utility.yul\":1554:1577   */\n      sub\n        /* \"#utility.yul\":1550:1583   */\n      slt\n        /* \"#utility.yul\":1547:1667   */\n      iszero\n      tag_117\n      jumpi\n        /* \"#utility.yul\":1586:1665   */\n      tag_118\n      tag_114\n      jump\t// in\n    tag_118:\n        /* \"#utility.yul\":1547:1667   */\n    tag_117:\n        /* \"#utility.yul\":1706:1707   */\n      0x00\n        /* \"#utility.yul\":1731:1784   */\n      tag_119\n        /* \"#utility.yul\":1776:1783   */\n      dup8\n        /* \"#utility.yul\":1767:1773   */\n      dup3\n        /* \"#utility.yul\":1756:1765   */\n      dup9\n        /* \"#utility.yul\":1752:1774   */\n      add\n        /* \"#utility.yul\":1731:1784   */\n      tag_97\n      jump\t// in\n    tag_119:\n        /* \"#utility.yul\":1721:1784   */\n      swap5\n      pop\n        /* \"#utility.yul\":1677:1794   */\n      pop\n        /* \"#utility.yul\":1833:1835   */\n      0x20\n        /* \"#utility.yul\":1859:1912   */\n      tag_120\n        /* \"#utility.yul\":1904:1911   */\n      dup8\n        /* \"#utility.yul\":1895:1901   */\n      dup3\n        /* \"#utility.yul\":1884:1893   */\n      dup9\n        /* \"#utility.yul\":1880:1902   */\n      add\n        /* \"#utility.yul\":1859:1912   */\n      tag_97\n      jump\t// in\n    tag_120:\n        /* \"#utility.yul\":1849:1912   */\n      swap4\n      pop\n        /* \"#utility.yul\":1804:1922   */\n      pop\n        /* \"#utility.yul\":1961:1963   */\n      0x40\n        /* \"#utility.yul\":1987:2040   */\n      tag_121\n        /* \"#utility.yul\":2032:2039   */\n      dup8\n        /* \"#utility.yul\":2023:2029   */\n      dup3\n        /* \"#utility.yul\":2012:2021   */\n      dup9\n        /* \"#utility.yul\":2008:2030   */\n      add\n        /* \"#utility.yul\":1987:2040   */\n      tag_107\n      jump\t// in\n    tag_121:\n        /* \"#utility.yul\":1977:2040   */\n      swap3\n      pop\n        /* \"#utility.yul\":1932:2050   */\n      pop\n        /* \"#utility.yul\":2117:2119   */\n      0x60\n        /* \"#utility.yul\":2106:2115   */\n      dup6\n        /* \"#utility.yul\":2102:2120   */\n      add\n        /* \"#utility.yul\":2089:2121   */\n      calldataload\n        /* \"#utility.yul\":2148:2166   */\n      0xffffffffffffffff\n        /* \"#utility.yul\":2140:2146   */\n      dup2\n        /* \"#utility.yul\":2137:2167   */\n      gt\n        /* \"#utility.yul\":2134:2251   */\n      iszero\n      tag_122\n      jumpi\n        /* \"#utility.yul\":2170:2249   */\n      tag_123\n      tag_124\n      jump\t// in\n    tag_123:\n        /* \"#utility.yul\":2134:2251   */\n    tag_122:\n        /* \"#utility.yul\":2275:2338   */\n      tag_125\n        /* \"#utility.yul\":2330:2337   */\n      dup8\n        /* \"#utility.yul\":2321:2327   */\n      dup3\n        /* \"#utility.yul\":2310:2319   */\n      dup9\n        /* \"#utility.yul\":2306:2328   */\n      add\n        /* \"#utility.yul\":2275:2338   */\n      tag_101\n      jump\t// in\n    tag_125:\n        /* \"#utility.yul\":2265:2338   */\n      swap2\n      pop\n        /* \"#utility.yul\":2060:2348   */\n      pop\n        /* \"#utility.yul\":1410:2355   */\n      swap3\n      swap6\n      swap2\n      swap5\n      pop\n      swap3\n      pop\n      jump\t// out\n        /* \"#utility.yul\":2361:3160   */\n    tag_27:\n        /* \"#utility.yul\":2448:2454   */\n      0x00\n        /* \"#utility.yul\":2456:2462   */\n      dup1\n        /* \"#utility.yul\":2464:2470   */\n      0x00\n        /* \"#utility.yul\":2513:2515   */\n      0x60\n        /* \"#utility.yul\":2501:2510   */\n      dup5\n        /* \"#utility.yul\":2492:2499   */\n      dup7\n        /* \"#utility.yul\":2488:2511   */\n      sub\n        /* \"#utility.yul\":2484:2516   */\n      slt\n        /* \"#utility.yul\":2481:2600   */\n      iszero\n      tag_127\n      jumpi\n        /* \"#utility.yul\":2519:2598   */\n      tag_128\n      tag_114\n      jump\t// in\n    tag_128:\n        /* \"#utility.yul\":2481:2600   */\n    tag_127:\n        /* \"#utility.yul\":2639:2640   */\n      0x00\n        /* \"#utility.yul\":2664:2717   */\n      tag_129\n        /* \"#utility.yul\":2709:2716   */\n      dup7\n        /* \"#utility.yul\":2700:2706   */\n      dup3\n        /* \"#utility.yul\":2689:2698   */\n      dup8\n        /* \"#utility.yul\":2685:2707   */\n      add\n        /* \"#utility.yul\":2664:2717   */\n      tag_97\n      jump\t// in\n    tag_129:\n        /* \"#utility.yul\":2654:2717   */\n      swap4\n      pop\n        /* \"#utility.yul\":2610:2727   */\n      pop\n        /* \"#utility.yul\":2794:2796   */\n      0x20\n        /* \"#utility.yul\":2783:2792   */\n      dup5\n        /* \"#utility.yul\":2779:2797   */\n      add\n        /* \"#utility.yul\":2766:2798   */\n      calldataload\n        /* \"#utility.yul\":2825:2843   */\n      0xffffffffffffffff\n        /* \"#utility.yul\":2817:2823   */\n      dup2\n        /* \"#utility.yul\":2814:2844   */\n      gt\n        /* \"#utility.yul\":2811:2928   */\n      iszero\n      tag_130\n      jumpi\n        /* \"#utility.yul\":2847:2926   */\n      tag_131\n      tag_124\n      jump\t// in\n    tag_131:\n        /* \"#utility.yul\":2811:2928   */\n    tag_130:\n        /* \"#utility.yul\":2952:3015   */\n      tag_132\n        /* \"#utility.yul\":3007:3014   */\n      dup7\n        /* \"#utility.yul\":2998:3004   */\n      dup3\n        /* \"#utility.yul\":2987:2996   */\n      dup8\n        /* \"#utility.yul\":2983:3005   */\n      add\n        /* \"#utility.yul\":2952:3015   */\n      tag_101\n      jump\t// in\n    tag_132:\n        /* \"#utility.yul\":2942:3015   */\n      swap3\n      pop\n        /* \"#utility.yul\":2737:3025   */\n      pop\n        /* \"#utility.yul\":3064:3066   */\n      0x40\n        /* \"#utility.yul\":3090:3143   */\n      tag_133\n        /* \"#utility.yul\":3135:3142   */\n      dup7\n        /* \"#utility.yul\":3126:3132   */\n      dup3\n        /* \"#utility.yul\":3115:3124   */\n      dup8\n        /* \"#utility.yul\":3111:3133   */\n      add\n        /* \"#utility.yul\":3090:3143   */\n      tag_107\n      jump\t// in\n    tag_133:\n        /* \"#utility.yul\":3080:3143   */\n      swap2\n      pop\n        /* \"#utility.yul\":3035:3153   */\n      pop\n        /* \"#utility.yul\":2361:3160   */\n      swap3\n      pop\n      swap3\n      pop\n      swap3\n      jump\t// out\n        /* \"#utility.yul\":3166:4257   */\n    tag_32:\n        /* \"#utility.yul\":3271:3277   */\n      0x00\n        /* \"#utility.yul\":3279:3285   */\n      dup1\n        /* \"#utility.yul\":3287:3293   */\n      0x00\n        /* \"#utility.yul\":3295:3301   */\n      dup1\n        /* \"#utility.yul\":3303:3309   */\n      0x00\n        /* \"#utility.yul\":3352:3355   */\n      0xa0\n        /* \"#utility.yul\":3340:3349   */\n      dup7\n        /* \"#utility.yul\":3331:3338   */\n      dup9\n        /* \"#utility.yul\":3327:3350   */\n      sub\n        /* \"#utility.yul\":3323:3356   */\n      slt\n        /* \"#utility.yul\":3320:3440   */\n      iszero\n      tag_135\n      jumpi\n        /* \"#utility.yul\":3359:3438   */\n      tag_136\n      tag_114\n      jump\t// in\n    tag_136:\n        /* \"#utility.yul\":3320:3440   */\n    tag_135:\n        /* \"#utility.yul\":3479:3480   */\n      0x00\n        /* \"#utility.yul\":3504:3557   */\n      tag_137\n        /* \"#utility.yul\":3549:3556   */\n      dup9\n        /* \"#utility.yul\":3540:3546   */\n      dup3\n        /* \"#utility.yul\":3529:3538   */\n      dup10\n        /* \"#utility.yul\":3525:3547   */\n      add\n        /* \"#utility.yul\":3504:3557   */\n      tag_97\n      jump\t// in\n    tag_137:\n        /* \"#utility.yul\":3494:3557   */\n      swap6\n      pop\n        /* \"#utility.yul\":3450:3567   */\n      pop\n        /* \"#utility.yul\":3606:3608   */\n      0x20\n        /* \"#utility.yul\":3632:3685   */\n      tag_138\n        /* \"#utility.yul\":3677:3684   */\n      dup9\n        /* \"#utility.yul\":3668:3674   */\n      dup3\n        /* \"#utility.yul\":3657:3666   */\n      dup10\n        /* \"#utility.yul\":3653:3675   */\n      add\n        /* \"#utility.yul\":3632:3685   */\n      tag_107\n      jump\t// in\n    tag_138:\n        /* \"#utility.yul\":3622:3685   */\n      swap5\n      pop\n        /* \"#utility.yul\":3577:3695   */\n      pop\n        /* \"#utility.yul\":3762:3764   */\n      0x40\n        /* \"#utility.yul\":3751:3760   */\n      dup7\n        /* \"#utility.yul\":3747:3765   */\n      add\n        /* \"#utility.yul\":3734:3766   */\n      calldataload\n        /* \"#utility.yul\":3793:3811   */\n      0xffffffffffffffff\n        /* \"#utility.yul\":3785:3791   */\n      dup2\n        /* \"#utility.yul\":3782:3812   */\n      gt\n        /* \"#utility.yul\":3779:3896   */\n      iszero\n      tag_139\n      jumpi\n        /* \"#utility.yul\":3815:3894   */\n      tag_140\n      tag_124\n      jump\t// in\n    tag_140:\n        /* \"#utility.yul\":3779:3896   */\n    tag_139:\n        /* \"#utility.yul\":3920:3983   */\n      tag_141\n        /* \"#utility.yul\":3975:3982   */\n      dup9\n        /* \"#utility.yul\":3966:3972   */\n      dup3\n        /* \"#utility.yul\":3955:3964   */\n      dup10\n        /* \"#utility.yul\":3951:3973   */\n      add\n        /* \"#utility.yul\":3920:3983   */\n      tag_101\n      jump\t// in\n    tag_141:\n        /* \"#utility.yul\":3910:3983   */\n      swap4\n      pop\n        /* \"#utility.yul\":3705:3993   */\n      pop\n        /* \"#utility.yul\":4032:4034   */\n      0x60\n        /* \"#utility.yul\":4058:4111   */\n      tag_142\n        /* \"#utility.yul\":4103:4110   */\n      dup9\n        /* \"#utility.yul\":4094:4100   */\n      dup3\n        /* \"#utility.yul\":4083:4092   */\n      dup10\n        /* \"#utility.yul\":4079:4101   */\n      add\n        /* \"#utility.yul\":4058:4111   */\n      tag_107\n      jump\t// in\n    tag_142:\n        /* \"#utility.yul\":4048:4111   */\n      swap3\n      pop\n        /* \"#utility.yul\":4003:4121   */\n      pop\n        /* \"#utility.yul\":4160:4163   */\n      0x80\n        /* \"#utility.yul\":4187:4240   */\n      tag_143\n        /* \"#utility.yul\":4232:4239   */\n      dup9\n        /* \"#utility.yul\":4223:4229   */\n      dup3\n        /* \"#utility.yul\":4212:4221   */\n      dup10\n        /* \"#utility.yul\":4208:4230   */\n      add\n        /* \"#utility.yul\":4187:4240   */\n      tag_107\n      jump\t// in\n    tag_143:\n        /* \"#utility.yul\":4177:4240   */\n      swap2\n      pop\n        /* \"#utility.yul\":4131:4250   */\n      pop\n        /* \"#utility.yul\":3166:4257   */\n      swap3\n      swap6\n      pop\n      swap3\n      swap6\n      swap1\n      swap4\n      pop\n      jump\t// out\n        /* \"#utility.yul\":4263:4607   */\n    tag_144:\n        /* \"#utility.yul\":4341:4344   */\n      0x00\n        /* \"#utility.yul\":4369:4408   */\n      tag_146\n        /* \"#utility.yul\":4402:4407   */\n      dup3\n        /* \"#utility.yul\":4369:4408   */\n      tag_147\n      jump\t// in\n    tag_146:\n        /* \"#utility.yul\":4424:4485   */\n      tag_148\n        /* \"#utility.yul\":4478:4484   */\n      dup2\n        /* \"#utility.yul\":4473:4476   */\n      dup6\n        /* \"#utility.yul\":4424:4485   */\n      tag_149\n      jump\t// in\n    tag_148:\n        /* \"#utility.yul\":4417:4485   */\n      swap4\n      pop\n        /* \"#utility.yul\":4494:4546   */\n      tag_150\n        /* \"#utility.yul\":4539:4545   */\n      dup2\n        /* \"#utility.yul\":4534:4537   */\n      dup6\n        /* \"#utility.yul\":4527:4531   */\n      0x20\n        /* \"#utility.yul\":4520:4525   */\n      dup7\n        /* \"#utility.yul\":4516:4532   */\n      add\n        /* \"#utility.yul\":4494:4546   */\n      tag_151\n      jump\t// in\n    tag_150:\n        /* \"#utility.yul\":4571:4600   */\n      tag_152\n        /* \"#utility.yul\":4593:4599   */\n      dup2\n        /* \"#utility.yul\":4571:4600   */\n      tag_153\n      jump\t// in\n    tag_152:\n        /* \"#utility.yul\":4566:4569   */\n      dup5\n        /* \"#utility.yul\":4562:4601   */\n      add\n        /* \"#utility.yul\":4555:4601   */\n      swap2\n      pop\n        /* \"#utility.yul\":4345:4607   */\n      pop\n        /* \"#utility.yul\":4263:4607   */\n      swap3\n      swap2\n      pop\n      pop\n      jump\t// out\n        /* \"#utility.yul\":4613:4979   */\n    tag_154:\n        /* \"#utility.yul\":4755:4758   */\n      0x00\n        /* \"#utility.yul\":4776:4843   */\n      tag_156\n        /* \"#utility.yul\":4840:4842   */\n      0x1d\n        /* \"#utility.yul\":4835:4838   */\n      dup4\n        /* \"#utility.yul\":4776:4843   */\n      tag_157\n      jump\t// in\n    tag_156:\n        /* \"#utility.yul\":4769:4843   */\n      swap2\n      pop\n        /* \"#utility.yul\":4852:4945   */\n      tag_158\n        /* \"#utility.yul\":4941:4944   */\n      dup3\n        /* \"#utility.yul\":4852:4945   */\n      tag_159\n      jump\t// in\n    tag_158:\n        /* \"#utility.yul\":4970:4972   */\n      0x20\n        /* \"#utility.yul\":4965:4968   */\n      dup3\n        /* \"#utility.yul\":4961:4973   */\n      add\n        /* \"#utility.yul\":4954:4973   */\n      swap1\n      pop\n        /* \"#utility.yul\":4613:4979   */\n      swap2\n      swap1\n      pop\n      jump\t// out\n        /* \"#utility.yul\":4985:5351   */\n    tag_160:\n        /* \"#utility.yul\":5127:5130   */\n      0x00\n        /* \"#utility.yul\":5148:5215   */\n      tag_162\n        /* \"#utility.yul\":5212:5214   */\n      0x1d\n        /* \"#utility.yul\":5207:5210   */\n      dup4\n        /* \"#utility.yul\":5148:5215   */\n      tag_157\n      jump\t// in\n    tag_162:\n        /* \"#utility.yul\":5141:5215   */\n      swap2\n      pop\n        /* \"#utility.yul\":5224:5317   */\n      tag_163\n        /* \"#utility.yul\":5313:5316   */\n      dup3\n        /* \"#utility.yul\":5224:5317   */\n      tag_164\n      jump\t// in\n    tag_163:\n        /* \"#utility.yul\":5342:5344   */\n      0x20\n        /* \"#utility.yul\":5337:5340   */\n      dup3\n        /* \"#utility.yul\":5333:5345   */\n      add\n        /* \"#utility.yul\":5326:5345   */\n      swap1\n      pop\n        /* \"#utility.yul\":4985:5351   */\n      swap2\n      swap1\n      pop\n      jump\t// out\n        /* \"#utility.yul\":5399:6193   */\n    tag_165:\n        /* \"#utility.yul\":5516:5519   */\n      0x00\n        /* \"#utility.yul\":5552:5556   */\n      0x60\n        /* \"#utility.yul\":5547:5550   */\n      dup4\n        /* \"#utility.yul\":5543:5557   */\n      add\n        /* \"#utility.yul\":5644:5648   */\n      0x00\n        /* \"#utility.yul\":5637:5642   */\n      dup4\n        /* \"#utility.yul\":5633:5649   */\n      add\n        /* \"#utility.yul\":5627:5650   */\n      mload\n        /* \"#utility.yul\":5663:5726   */\n      tag_167\n        /* \"#utility.yul\":5720:5724   */\n      0x00\n        /* \"#utility.yul\":5715:5718   */\n      dup7\n        /* \"#utility.yul\":5711:5725   */\n      add\n        /* \"#utility.yul\":5697:5709   */\n      dup3\n        /* \"#utility.yul\":5663:5726   */\n      tag_168\n      jump\t// in\n    tag_167:\n        /* \"#utility.yul\":5567:5736   */\n      pop\n        /* \"#utility.yul\":5823:5827   */\n      0x20\n        /* \"#utility.yul\":5816:5821   */\n      dup4\n        /* \"#utility.yul\":5812:5828   */\n      add\n        /* \"#utility.yul\":5806:5829   */\n      mload\n        /* \"#utility.yul\":5876:5879   */\n      dup5\n        /* \"#utility.yul\":5870:5874   */\n      dup3\n        /* \"#utility.yul\":5866:5880   */\n      sub\n        /* \"#utility.yul\":5859:5863   */\n      0x20\n        /* \"#utility.yul\":5854:5857   */\n      dup7\n        /* \"#utility.yul\":5850:5864   */\n      add\n        /* \"#utility.yul\":5843:5881   */\n      mstore\n        /* \"#utility.yul\":5902:5975   */\n      tag_169\n        /* \"#utility.yul\":5970:5974   */\n      dup3\n        /* \"#utility.yul\":5956:5968   */\n      dup3\n        /* \"#utility.yul\":5902:5975   */\n      tag_144\n      jump\t// in\n    tag_169:\n        /* \"#utility.yul\":5894:5975   */\n      swap2\n      pop\n        /* \"#utility.yul\":5746:5986   */\n      pop\n        /* \"#utility.yul\":6074:6078   */\n      0x40\n        /* \"#utility.yul\":6067:6072   */\n      dup4\n        /* \"#utility.yul\":6063:6079   */\n      add\n        /* \"#utility.yul\":6057:6080   */\n      mload\n        /* \"#utility.yul\":6093:6156   */\n      tag_170\n        /* \"#utility.yul\":6150:6154   */\n      0x40\n        /* \"#utility.yul\":6145:6148   */\n      dup7\n        /* \"#utility.yul\":6141:6155   */\n      add\n        /* \"#utility.yul\":6127:6139   */\n      dup3\n        /* \"#utility.yul\":6093:6156   */\n      tag_168\n      jump\t// in\n    tag_170:\n        /* \"#utility.yul\":5996:6166   */\n      pop\n        /* \"#utility.yul\":6183:6187   */\n      dup1\n        /* \"#utility.yul\":6176:6187   */\n      swap2\n      pop\n        /* \"#utility.yul\":5521:6193   */\n      pop\n        /* \"#utility.yul\":5399:6193   */\n      swap3\n      swap2\n      pop\n      pop\n      jump\t// out\n        /* \"#utility.yul\":6247:7217   */\n    tag_171:\n        /* \"#utility.yul\":6370:6373   */\n      0x00\n        /* \"#utility.yul\":6406:6410   */\n      0x80\n        /* \"#utility.yul\":6401:6404   */\n      dup4\n        /* \"#utility.yul\":6397:6411   */\n      add\n        /* \"#utility.yul\":6498:6502   */\n      0x00\n        /* \"#utility.yul\":6491:6496   */\n      dup4\n        /* \"#utility.yul\":6487:6503   */\n      add\n        /* \"#utility.yul\":6481:6504   */\n      mload\n        /* \"#utility.yul\":6517:6580   */\n      tag_173\n        /* \"#utility.yul\":6574:6578   */\n      0x00\n        /* \"#utility.yul\":6569:6572   */\n      dup7\n        /* \"#utility.yul\":6565:6579   */\n      add\n        /* \"#utility.yul\":6551:6563   */\n      dup3\n        /* \"#utility.yul\":6517:6580   */\n      tag_168\n      jump\t// in\n    tag_173:\n        /* \"#utility.yul\":6421:6590   */\n      pop\n        /* \"#utility.yul\":6678:6682   */\n      0x20\n        /* \"#utility.yul\":6671:6676   */\n      dup4\n        /* \"#utility.yul\":6667:6683   */\n      add\n        /* \"#utility.yul\":6661:6684   */\n      mload\n        /* \"#utility.yul\":6731:6734   */\n      dup5\n        /* \"#utility.yul\":6725:6729   */\n      dup3\n        /* \"#utility.yul\":6721:6735   */\n      sub\n        /* \"#utility.yul\":6714:6718   */\n      0x20\n        /* \"#utility.yul\":6709:6712   */\n      dup7\n        /* \"#utility.yul\":6705:6719   */\n      add\n        /* \"#utility.yul\":6698:6736   */\n      mstore\n        /* \"#utility.yul\":6757:6830   */\n      tag_174\n        /* \"#utility.yul\":6825:6829   */\n      dup3\n        /* \"#utility.yul\":6811:6823   */\n      dup3\n        /* \"#utility.yul\":6757:6830   */\n      tag_144\n      jump\t// in\n    tag_174:\n        /* \"#utility.yul\":6749:6830   */\n      swap2\n      pop\n        /* \"#utility.yul\":6600:6841   */\n      pop\n        /* \"#utility.yul\":6924:6928   */\n      0x40\n        /* \"#utility.yul\":6917:6922   */\n      dup4\n        /* \"#utility.yul\":6913:6929   */\n      add\n        /* \"#utility.yul\":6907:6930   */\n      mload\n        /* \"#utility.yul\":6943:7006   */\n      tag_175\n        /* \"#utility.yul\":7000:7004   */\n      0x40\n        /* \"#utility.yul\":6995:6998   */\n      dup7\n        /* \"#utility.yul\":6991:7005   */\n      add\n        /* \"#utility.yul\":6977:6989   */\n      dup3\n        /* \"#utility.yul\":6943:7006   */\n      tag_168\n      jump\t// in\n    tag_175:\n        /* \"#utility.yul\":6851:7016   */\n      pop\n        /* \"#utility.yul\":7098:7102   */\n      0x60\n        /* \"#utility.yul\":7091:7096   */\n      dup4\n        /* \"#utility.yul\":7087:7103   */\n      add\n        /* \"#utility.yul\":7081:7104   */\n      mload\n        /* \"#utility.yul\":7117:7180   */\n      tag_176\n        /* \"#utility.yul\":7174:7178   */\n      0x60\n        /* \"#utility.yul\":7169:7172   */\n      dup7\n        /* \"#utility.yul\":7165:7179   */\n      add\n        /* \"#utility.yul\":7151:7163   */\n      dup3\n        /* \"#utility.yul\":7117:7180   */\n      tag_168\n      jump\t// in\n    tag_176:\n        /* \"#utility.yul\":7026:7190   */\n      pop\n        /* \"#utility.yul\":7207:7211   */\n      dup1\n        /* \"#utility.yul\":7200:7211   */\n      swap2\n      pop\n        /* \"#utility.yul\":6375:7217   */\n      pop\n        /* \"#utility.yul\":6247:7217   */\n      swap3\n      swap2\n      pop\n      pop\n      jump\t// out\n        /* \"#utility.yul\":7223:7331   */\n    tag_168:\n        /* \"#utility.yul\":7300:7324   */\n      tag_178\n        /* \"#utility.yul\":7318:7323   */\n      dup2\n        /* \"#utility.yul\":7300:7324   */\n      tag_179\n      jump\t// in\n    tag_178:\n        /* \"#utility.yul\":7295:7298   */\n      dup3\n        /* \"#utility.yul\":7288:7325   */\n      mstore\n        /* \"#utility.yul\":7223:7331   */\n      pop\n      pop\n      jump\t// out\n        /* \"#utility.yul\":7337:7756   */\n    tag_54:\n        /* \"#utility.yul\":7503:7507   */\n      0x00\n        /* \"#utility.yul\":7541:7543   */\n      0x20\n        /* \"#utility.yul\":7530:7539   */\n      dup3\n        /* \"#utility.yul\":7526:7544   */\n      add\n        /* \"#utility.yul\":7518:7544   */\n      swap1\n      pop\n        /* \"#utility.yul\":7590:7599   */\n      dup2\n        /* \"#utility.yul\":7584:7588   */\n      dup2\n        /* \"#utility.yul\":7580:7600   */\n      sub\n        /* \"#utility.yul\":7576:7577   */\n      0x00\n        /* \"#utility.yul\":7565:7574   */\n      dup4\n        /* \"#utility.yul\":7561:7578   */\n      add\n        /* \"#utility.yul\":7554:7601   */\n      mstore\n        /* \"#utility.yul\":7618:7749   */\n      tag_181\n        /* \"#utility.yul\":7744:7748   */\n      dup2\n        /* \"#utility.yul\":7618:7749   */\n      tag_154\n      jump\t// in\n    tag_181:\n        /* \"#utility.yul\":7610:7749   */\n      swap1\n      pop\n        /* \"#utility.yul\":7337:7756   */\n      swap2\n      swap1\n      pop\n      jump\t// out\n        /* \"#utility.yul\":7762:8181   */\n    tag_67:\n        /* \"#utility.yul\":7928:7932   */\n      0x00\n        /* \"#utility.yul\":7966:7968   */\n      0x20\n        /* \"#utility.yul\":7955:7964   */\n      dup3\n        /* \"#utility.yul\":7951:7969   */\n      add\n        /* \"#utility.yul\":7943:7969   */\n      swap1\n      pop\n        /* \"#utility.yul\":8015:8024   */\n      dup2\n        /* \"#utility.yul\":8009:8013   */\n      dup2\n        /* \"#utility.yul\":8005:8025   */\n      sub\n        /* \"#utility.yul\":8001:8002   */\n      0x00\n        /* \"#utility.yul\":7990:7999   */\n      dup4\n        /* \"#utility.yul\":7986:8003   */\n      add\n        /* \"#utility.yul\":7979:8026   */\n      mstore\n        /* \"#utility.yul\":8043:8174   */\n      tag_183\n        /* \"#utility.yul\":8169:8173   */\n      dup2\n        /* \"#utility.yul\":8043:8174   */\n      tag_160\n      jump\t// in\n    tag_183:\n        /* \"#utility.yul\":8035:8174   */\n      swap1\n      pop\n        /* \"#utility.yul\":7762:8181   */\n      swap2\n      swap1\n      pop\n      jump\t// out\n        /* \"#utility.yul\":8187:8556   */\n    tag_19:\n        /* \"#utility.yul\":8328:8332   */\n      0x00\n        /* \"#utility.yul\":8366:8368   */\n      0x20\n        /* \"#utility.yul\":8355:8364   */\n      dup3\n        /* \"#utility.yul\":8351:8369   */\n      add\n        /* \"#utility.yul\":8343:8369   */\n      swap1\n      pop\n        /* \"#utility.yul\":8415:8424   */\n      dup2\n        /* \"#utility.yul\":8409:8413   */\n      dup2\n        /* \"#utility.yul\":8405:8425   */\n      sub\n        /* \"#utility.yul\":8401:8402   */\n      0x00\n        /* \"#utility.yul\":8390:8399   */\n      dup4\n        /* \"#utility.yul\":8386:8403   */\n      add\n        /* \"#utility.yul\":8379:8426   */\n      mstore\n        /* \"#utility.yul\":8443:8549   */\n      tag_185\n        /* \"#utility.yul\":8544:8548   */\n      dup2\n        /* \"#utility.yul\":8535:8541   */\n      dup5\n        /* \"#utility.yul\":8443:8549   */\n      tag_165\n      jump\t// in\n    tag_185:\n        /* \"#utility.yul\":8435:8549   */\n      swap1\n      pop\n        /* \"#utility.yul\":8187:8556   */\n      swap3\n      swap2\n      pop\n      pop\n      jump\t// out\n        /* \"#utility.yul\":8562:8943   */\n    tag_13:\n        /* \"#utility.yul\":8709:8713   */\n      0x00\n        /* \"#utility.yul\":8747:8749   */\n      0x20\n        /* \"#utility.yul\":8736:8745   */\n      dup3\n        /* \"#utility.yul\":8732:8750   */\n      add\n        /* \"#utility.yul\":8724:8750   */\n      swap1\n      pop\n        /* \"#utility.yul\":8796:8805   */\n      dup2\n        /* \"#utility.yul\":8790:8794   */\n      dup2\n        /* \"#utility.yul\":8786:8806   */\n      sub\n        /* \"#utility.yul\":8782:8783   */\n      0x00\n        /* \"#utility.yul\":8771:8780   */\n      dup4\n        /* \"#utility.yul\":8767:8784   */\n      add\n        /* \"#utility.yul\":8760:8807   */\n      mstore\n        /* \"#utility.yul\":8824:8936   */\n      tag_187\n        /* \"#utility.yul\":8931:8935   */\n      dup2\n        /* \"#utility.yul\":8922:8928   */\n      dup5\n        /* \"#utility.yul\":8824:8936   */\n      tag_171\n      jump\t// in\n    tag_187:\n        /* \"#utility.yul\":8816:8936   */\n      swap1\n      pop\n        /* \"#utility.yul\":8562:8943   */\n      swap3\n      swap2\n      pop\n      pop\n      jump\t// out\n        /* \"#utility.yul\":8949:9078   */\n    tag_91:\n        /* \"#utility.yul\":8983:8989   */\n      0x00\n        /* \"#utility.yul\":9010:9030   */\n      tag_189\n      tag_190\n      jump\t// in\n    tag_189:\n        /* \"#utility.yul\":9000:9030   */\n      swap1\n      pop\n        /* \"#utility.yul\":9039:9072   */\n      tag_191\n        /* \"#utility.yul\":9067:9071   */\n      dup3\n        /* \"#utility.yul\":9059:9065   */\n      dup3\n        /* \"#utility.yul\":9039:9072   */\n      tag_192\n      jump\t// in\n    tag_191:\n        /* \"#utility.yul\":8949:9078   */\n      swap2\n      swap1\n      pop\n      jump\t// out\n        /* \"#utility.yul\":9084:9159   */\n    tag_190:\n        /* \"#utility.yul\":9117:9123   */\n      0x00\n        /* \"#utility.yul\":9150:9152   */\n      0x40\n        /* \"#utility.yul\":9144:9153   */\n      mload\n        /* \"#utility.yul\":9134:9153   */\n      swap1\n      pop\n        /* \"#utility.yul\":9084:9159   */\n      swap1\n      jump\t// out\n        /* \"#utility.yul\":9165:9473   */\n    tag_90:\n        /* \"#utility.yul\":9227:9231   */\n      0x00\n        /* \"#utility.yul\":9317:9335   */\n      0xffffffffffffffff\n        /* \"#utility.yul\":9309:9315   */\n      dup3\n        /* \"#utility.yul\":9306:9336   */\n      gt\n        /* \"#utility.yul\":9303:9359   */\n      iszero\n      tag_195\n      jumpi\n        /* \"#utility.yul\":9339:9357   */\n      tag_196\n      tag_197\n      jump\t// in\n    tag_196:\n        /* \"#utility.yul\":9303:9359   */\n    tag_195:\n        /* \"#utility.yul\":9377:9406   */\n      tag_198\n        /* \"#utility.yul\":9399:9405   */\n      dup3\n        /* \"#utility.yul\":9377:9406   */\n      tag_153\n      jump\t// in\n    tag_198:\n        /* \"#utility.yul\":9369:9406   */\n      swap1\n      pop\n        /* \"#utility.yul\":9461:9465   */\n      0x20\n        /* \"#utility.yul\":9455:9459   */\n      dup2\n        /* \"#utility.yul\":9451:9466   */\n      add\n        /* \"#utility.yul\":9443:9466   */\n      swap1\n      pop\n        /* \"#utility.yul\":9165:9473   */\n      swap2\n      swap1\n      pop\n      jump\t// out\n        /* \"#utility.yul\":9479:9578   */\n    tag_147:\n        /* \"#utility.yul\":9531:9537   */\n      0x00\n        /* \"#utility.yul\":9565:9570   */\n      dup2\n        /* \"#utility.yul\":9559:9571   */\n      mload\n        /* \"#utility.yul\":9549:9571   */\n      swap1\n      pop\n        /* \"#utility.yul\":9479:9578   */\n      swap2\n      swap1\n      pop\n      jump\t// out\n        /* \"#utility.yul\":9584:9743   */\n    tag_149:\n        /* \"#utility.yul\":9658:9669   */\n      0x00\n        /* \"#utility.yul\":9692:9698   */\n      dup3\n        /* \"#utility.yul\":9687:9690   */\n      dup3\n        /* \"#utility.yul\":9680:9699   */\n      mstore\n        /* \"#utility.yul\":9732:9736   */\n      0x20\n        /* \"#utility.yul\":9727:9730   */\n      dup3\n        /* \"#utility.yul\":9723:9737   */\n      add\n        /* \"#utility.yul\":9708:9737   */\n      swap1\n      pop\n        /* \"#utility.yul\":9584:9743   */\n      swap3\n      swap2\n      pop\n      pop\n      jump\t// out\n        /* \"#utility.yul\":9749:9918   */\n    tag_157:\n        /* \"#utility.yul\":9833:9844   */\n      0x00\n        /* \"#utility.yul\":9867:9873   */\n      dup3\n        /* \"#utility.yul\":9862:9865   */\n      dup3\n        /* \"#utility.yul\":9855:9874   */\n      mstore\n        /* \"#utility.yul\":9907:9911   */\n      0x20\n        /* \"#utility.yul\":9902:9905   */\n      dup3\n        /* \"#utility.yul\":9898:9912   */\n      add\n        /* \"#utility.yul\":9883:9912   */\n      swap1\n      pop\n        /* \"#utility.yul\":9749:9918   */\n      swap3\n      swap2\n      pop\n      pop\n      jump\t// out\n        /* \"#utility.yul\":9924:10020   */\n    tag_202:\n        /* \"#utility.yul\":9961:9968   */\n      0x00\n        /* \"#utility.yul\":9990:10014   */\n      tag_204\n        /* \"#utility.yul\":10008:10013   */\n      dup3\n        /* \"#utility.yul\":9990:10014   */\n      tag_205\n      jump\t// in\n    tag_204:\n        /* \"#utility.yul\":9979:10014   */\n      swap1\n      pop\n        /* \"#utility.yul\":9924:10020   */\n      swap2\n      swap1\n      pop\n      jump\t// out\n        /* \"#utility.yul\":10026:10152   */\n    tag_205:\n        /* \"#utility.yul\":10063:10070   */\n      0x00\n        /* \"#utility.yul\":10103:10145   */\n      0xffffffffffffffffffffffffffffffffffffffff\n        /* \"#utility.yul\":10096:10101   */\n      dup3\n        /* \"#utility.yul\":10092:10146   */\n      and\n        /* \"#utility.yul\":10081:10146   */\n      swap1\n      pop\n        /* \"#utility.yul\":10026:10152   */\n      swap2\n      swap1\n      pop\n      jump\t// out\n        /* \"#utility.yul\":10158:10235   */\n    tag_179:\n        /* \"#utility.yul\":10195:10202   */\n      0x00\n        /* \"#utility.yul\":10224:10229   */\n      dup2\n        /* \"#utility.yul\":10213:10229   */\n      swap1\n      pop\n        /* \"#utility.yul\":10158:10235   */\n      swap2\n      swap1\n      pop\n      jump\t// out\n        /* \"#utility.yul\":10241:10395   */\n    tag_96:\n        /* \"#utility.yul\":10325:10331   */\n      dup3\n        /* \"#utility.yul\":10320:10323   */\n      dup2\n        /* \"#utility.yul\":10315:10318   */\n      dup4\n        /* \"#utility.yul\":10302:10332   */\n      calldatacopy\n        /* \"#utility.yul\":10387:10388   */\n      0x00\n        /* \"#utility.yul\":10378:10384   */\n      dup4\n        /* \"#utility.yul\":10373:10376   */\n      dup4\n        /* \"#utility.yul\":10369:10385   */\n      add\n        /* \"#utility.yul\":10362:10389   */\n      mstore\n        /* \"#utility.yul\":10241:10395   */\n      pop\n      pop\n      pop\n      jump\t// out\n        /* \"#utility.yul\":10401:10708   */\n    tag_151:\n        /* \"#utility.yul\":10469:10470   */\n      0x00\n        /* \"#utility.yul\":10479:10592   */\n    tag_210:\n        /* \"#utility.yul\":10493:10499   */\n      dup4\n        /* \"#utility.yul\":10490:10491   */\n      dup2\n        /* \"#utility.yul\":10487:10500   */\n      lt\n        /* \"#utility.yul\":10479:10592   */\n      iszero\n      tag_212\n      jumpi\n        /* \"#utility.yul\":10578:10579   */\n      dup1\n        /* \"#utility.yul\":10573:10576   */\n      dup3\n        /* \"#utility.yul\":10569:10580   */\n      add\n        /* \"#utility.yul\":10563:10581   */\n      mload\n        /* \"#utility.yul\":10559:10560   */\n      dup2\n        /* \"#utility.yul\":10554:10557   */\n      dup5\n        /* \"#utility.yul\":10550:10561   */\n      add\n        /* \"#utility.yul\":10543:10582   */\n      mstore\n        /* \"#utility.yul\":10515:10517   */\n      0x20\n        /* \"#utility.yul\":10512:10513   */\n      dup2\n        /* \"#utility.yul\":10508:10518   */\n      add\n        /* \"#utility.yul\":10503:10518   */\n      swap1\n      pop\n        /* \"#utility.yul\":10479:10592   */\n      jump(tag_210)\n    tag_212:\n        /* \"#utility.yul\":10610:10616   */\n      dup4\n        /* \"#utility.yul\":10607:10608   */\n      dup2\n        /* \"#utility.yul\":10604:10617   */\n      gt\n        /* \"#utility.yul\":10601:10702   */\n      iszero\n      tag_213\n      jumpi\n        /* \"#utility.yul\":10690:10691   */\n      0x00\n        /* \"#utility.yul\":10681:10687   */\n      dup5\n        /* \"#utility.yul\":10676:10679   */\n      dup5\n        /* \"#utility.yul\":10672:10688   */\n      add\n        /* \"#utility.yul\":10665:10692   */\n      mstore\n        /* \"#utility.yul\":10601:10702   */\n    tag_213:\n        /* \"#utility.yul\":10450:10708   */\n      pop\n        /* \"#utility.yul\":10401:10708   */\n      pop\n      pop\n      pop\n      jump\t// out\n        /* \"#utility.yul\":10714:11034   */\n    tag_38:\n        /* \"#utility.yul\":10758:10764   */\n      0x00\n        /* \"#utility.yul\":10795:10796   */\n      0x02\n        /* \"#utility.yul\":10789:10793   */\n      dup3\n        /* \"#utility.yul\":10785:10797   */\n      div\n        /* \"#utility.yul\":10775:10797   */\n      swap1\n      pop\n        /* \"#utility.yul\":10842:10843   */\n      0x01\n        /* \"#utility.yul\":10836:10840   */\n      dup3\n        /* \"#utility.yul\":10832:10844   */\n      and\n        /* \"#utility.yul\":10863:10881   */\n      dup1\n        /* \"#utility.yul\":10853:10934   */\n      tag_215\n      jumpi\n        /* \"#utility.yul\":10919:10923   */\n      0x7f\n        /* \"#utility.yul\":10911:10917   */\n      dup3\n        /* \"#utility.yul\":10907:10924   */\n      and\n        /* \"#utility.yul\":10897:10924   */\n      swap2\n      pop\n        /* \"#utility.yul\":10853:10934   */\n    tag_215:\n        /* \"#utility.yul\":10981:10983   */\n      0x20\n        /* \"#utility.yul\":10973:10979   */\n      dup3\n        /* \"#utility.yul\":10970:10984   */\n      lt\n        /* \"#utility.yul\":10950:10968   */\n      dup2\n        /* \"#utility.yul\":10947:10985   */\n      eq\n        /* \"#utility.yul\":10944:11028   */\n      iszero\n      tag_216\n      jumpi\n        /* \"#utility.yul\":11000:11018   */\n      tag_217\n      tag_218\n      jump\t// in\n    tag_217:\n        /* \"#utility.yul\":10944:11028   */\n    tag_216:\n        /* \"#utility.yul\":10765:11034   */\n      pop\n        /* \"#utility.yul\":10714:11034   */\n      swap2\n      swap1\n      pop\n      jump\t// out\n        /* \"#utility.yul\":11040:11321   */\n    tag_192:\n        /* \"#utility.yul\":11123:11150   */\n      tag_220\n        /* \"#utility.yul\":11145:11149   */\n      dup3\n        /* \"#utility.yul\":11123:11150   */\n      tag_153\n      jump\t// in\n    tag_220:\n        /* \"#utility.yul\":11115:11121   */\n      dup2\n        /* \"#utility.yul\":11111:11151   */\n      add\n        /* \"#utility.yul\":11253:11259   */\n      dup2\n        /* \"#utility.yul\":11241:11251   */\n      dup2\n        /* \"#utility.yul\":11238:11260   */\n      lt\n        /* \"#utility.yul\":11217:11235   */\n      0xffffffffffffffff\n        /* \"#utility.yul\":11205:11215   */\n      dup3\n        /* \"#utility.yul\":11202:11236   */\n      gt\n        /* \"#utility.yul\":11199:11261   */\n      or\n        /* \"#utility.yul\":11196:11284   */\n      iszero\n      tag_221\n      jumpi\n        /* \"#utility.yul\":11264:11282   */\n      tag_222\n      tag_197\n      jump\t// in\n    tag_222:\n        /* \"#utility.yul\":11196:11284   */\n    tag_221:\n        /* \"#utility.yul\":11304:11314   */\n      dup1\n        /* \"#utility.yul\":11300:11302   */\n      0x40\n        /* \"#utility.yul\":11293:11315   */\n      mstore\n        /* \"#utility.yul\":11083:11321   */\n      pop\n        /* \"#utility.yul\":11040:11321   */\n      pop\n      pop\n      jump\t// out\n        /* \"#utility.yul\":11327:11507   */\n    tag_218:\n        /* \"#utility.yul\":11375:11452   */\n      0x4e487b7100000000000000000000000000000000000000000000000000000000\n        /* \"#utility.yul\":11372:11373   */\n      0x00\n        /* \"#utility.yul\":11365:11453   */\n      mstore\n        /* \"#utility.yul\":11472:11476   */\n      0x22\n        /* \"#utility.yul\":11469:11470   */\n      0x04\n        /* \"#utility.yul\":11462:11477   */\n      mstore\n        /* \"#utility.yul\":11496:11500   */\n      0x24\n        /* \"#utility.yul\":11493:11494   */\n      0x00\n        /* \"#utility.yul\":11486:11501   */\n      revert\n        /* \"#utility.yul\":11513:11693   */\n    tag_197:\n        /* \"#utility.yul\":11561:11638   */\n      0x4e487b7100000000000000000000000000000000000000000000000000000000\n        /* \"#utility.yul\":11558:11559   */\n      0x00\n        /* \"#utility.yul\":11551:11639   */\n      mstore\n        /* \"#utility.yul\":11658:11662   */\n      0x41\n        /* \"#utility.yul\":11655:11656   */\n      0x04\n        /* \"#utility.yul\":11648:11663   */\n      mstore\n        /* \"#utility.yul\":11682:11686   */\n      0x24\n        /* \"#utility.yul\":11679:11680   */\n      0x00\n        /* \"#utility.yul\":11672:11687   */\n      revert\n        /* \"#utility.yul\":11699:11816   */\n    tag_105:\n        /* \"#utility.yul\":11808:11809   */\n      0x00\n        /* \"#utility.yul\":11805:11806   */\n      dup1\n        /* \"#utility.yul\":11798:11810   */\n      revert\n        /* \"#utility.yul\":11822:11939   */\n    tag_94:\n        /* \"#utility.yul\":11931:11932   */\n      0x00\n        /* \"#utility.yul\":11928:11929   */\n      dup1\n        /* \"#utility.yul\":11921:11933   */\n      revert\n        /* \"#utility.yul\":11945:12062   */\n    tag_124:\n        /* \"#utility.yul\":12054:12055   */\n      0x00\n        /* \"#utility.yul\":12051:12052   */\n      dup1\n        /* \"#utility.yul\":12044:12056   */\n      revert\n        /* \"#utility.yul\":12068:12185   */\n    tag_114:\n        /* \"#utility.yul\":12177:12178   */\n      0x00\n        /* \"#utility.yul\":12174:12175   */\n      dup1\n        /* \"#utility.yul\":12167:12179   */\n      revert\n        /* \"#utility.yul\":12191:12293   */\n    tag_153:\n        /* \"#utility.yul\":12232:12238   */\n      0x00\n        /* \"#utility.yul\":12283:12285   */\n      0x1f\n        /* \"#utility.yul\":12279:12286   */\n      not\n        /* \"#utility.yul\":12274:12276   */\n      0x1f\n        /* \"#utility.yul\":12267:12272   */\n      dup4\n        /* \"#utility.yul\":12263:12277   */\n      add\n        /* \"#utility.yul\":12259:12287   */\n      and\n        /* \"#utility.yul\":12249:12287   */\n      swap1\n      pop\n        /* \"#utility.yul\":12191:12293   */\n      swap2\n      swap1\n      pop\n      jump\t// out\n        /* \"#utility.yul\":12299:12478   */\n    tag_159:\n        /* \"#utility.yul\":12439:12470   */\n      0x596f7520617265206e6f74206c616e646f66666963652073746166662e000000\n        /* \"#utility.yul\":12435:12436   */\n      0x00\n        /* \"#utility.yul\":12427:12433   */\n      dup3\n        /* \"#utility.yul\":12423:12437   */\n      add\n        /* \"#utility.yul\":12416:12471   */\n      mstore\n        /* \"#utility.yul\":12299:12478   */\n      pop\n      jump\t// out\n        /* \"#utility.yul\":12484:12663   */\n    tag_164:\n        /* \"#utility.yul\":12624:12655   */\n      0x496e73756666696369656e742066756e6420666f722072656465656d2e000000\n        /* \"#utility.yul\":12620:12621   */\n      0x00\n        /* \"#utility.yul\":12612:12618   */\n      dup3\n        /* \"#utility.yul\":12608:12622   */\n      add\n        /* \"#utility.yul\":12601:12656   */\n      mstore\n        /* \"#utility.yul\":12484:12663   */\n      pop\n      jump\t// out\n        /* \"#utility.yul\":12669:12791   */\n    tag_100:\n        /* \"#utility.yul\":12742:12766   */\n      tag_233\n        /* \"#utility.yul\":12760:12765   */\n      dup2\n        /* \"#utility.yul\":12742:12766   */\n      tag_202\n      jump\t// in\n    tag_233:\n        /* \"#utility.yul\":12735:12740   */\n      dup2\n        /* \"#utility.yul\":12732:12767   */\n      eq\n        /* \"#utility.yul\":12722:12785   */\n      tag_234\n      jumpi\n        /* \"#utility.yul\":12781:12782   */\n      0x00\n        /* \"#utility.yul\":12778:12779   */\n      dup1\n        /* \"#utility.yul\":12771:12783   */\n      revert\n        /* \"#utility.yul\":12722:12785   */\n    tag_234:\n        /* \"#utility.yul\":12669:12791   */\n      pop\n      jump\t// out\n        /* \"#utility.yul\":12797:12919   */\n    tag_110:\n        /* \"#utility.yul\":12870:12894   */\n      tag_236\n        /* \"#utility.yul\":12888:12893   */\n      dup2\n        /* \"#utility.yul\":12870:12894   */\n      tag_179\n      jump\t// in\n    tag_236:\n        /* \"#utility.yul\":12863:12868   */\n      dup2\n        /* \"#utility.yul\":12860:12895   */\n      eq\n        /* \"#utility.yul\":12850:12913   */\n      tag_237\n      jumpi\n        /* \"#utility.yul\":12909:12910   */\n      0x00\n        /* \"#utility.yul\":12906:12907   */\n      dup1\n        /* \"#utility.yul\":12899:12911   */\n      revert\n        /* \"#utility.yul\":12850:12913   */\n    tag_237:\n        /* \"#utility.yul\":12797:12919   */\n      pop\n      jump\t// out\n\n    auxdata: 0xa2646970667358221220f2b9b75675b7ff1fb75b9ff19de2be20d7b567c2f21a5b01aa97c5883646940a64736f6c63430008070033\n}\n",
				"bytecode": {
					"linkReferences": {},
					"object": "608060405234801561001057600080fd5b50336000806101000a81548173ffffffffffffffffffffffffffffffffffffffff021916908373ffffffffffffffffffffffffffffffffffffffff16021790555061111a806100606000396000f3fe60806040526004361061004a5760003560e01c8063198e86c61461004f578063215271cb1461008c578063491394c2146100c9578063868571ef146100e5578063935656c21461010e575b600080fd5b34801561005b57600080fd5b5061007660048036038101906100719190610b02565b610137565b6040516100839190610e5b565b60405180910390f35b34801561009857600080fd5b506100b360048036038101906100ae9190610b02565b610240565b6040516100c09190610e39565b60405180910390f35b6100e360048036038101906100de9190610b2f565b61033f565b005b3480156100f157600080fd5b5061010c60048036038101906101079190610bb2565b610556565b005b34801561011a57600080fd5b5061013560048036038101906101309190610c21565b6107bb565b005b61013f61097c565b600160008373ffffffffffffffffffffffffffffffffffffffff1673ffffffffffffffffffffffffffffffffffffffff168152602001908152602001600020604051806080016040529081600082015481526020016001820180546101a390610f7e565b80601f01602080910402602001604051908101604052809291908181526020018280546101cf90610f7e565b801561021c5780601f106101f15761010080835404028352916020019161021c565b820191906000526020600020905b8154815290600101906020018083116101ff57829003601f168201915b50505050508152602001600282015481526020016003820154815250509050919050565b6102486109a4565b600260008373ffffffffffffffffffffffffffffffffffffffff1673ffffffffffffffffffffffffffffffffffffffff168152602001908152602001600020604051806060016040529081600082015481526020016001820180546102ac90610f7e565b80601f01602080910402602001604051908101604052809291908181526020018280546102d890610f7e565b80156103255780601f106102fa57610100808354040283529160200191610325565b820191906000526020600020905b81548152906001019060200180831161030857829003601f168201915b505050505081526020016002820154815250509050919050565b60008054906101000a900473ffffffffffffffffffffffffffffffffffffffff1673ffffffffffffffffffffffffffffffffffffffff163373ffffffffffffffffffffffffffffffffffffffff16146103cd576040517f08c379a00000000000000000000000000000000000000000000000000000000081526004016103c490610df9565b60405180910390fd5b80600160008673ffffffffffffffffffffffffffffffffffffffff1673ffffffffffffffffffffffffffffffffffffffff16815260200190815260200160002060010190805190602001906104239291906109c5565b5081600260008673ffffffffffffffffffffffffffffffffffffffff1673ffffffffffffffffffffffffffffffffffffffff1681526020019081526020016000206000018190555080600260008673ffffffffffffffffffffffffffffffffffffffff1673ffffffffffffffffffffffffffffffffffffffff16815260200190815260200160002060010190805190602001906104c19291906109c5565b5034600260008673ffffffffffffffffffffffffffffffffffffffff1673ffffffffffffffffffffffffffffffffffffffff168152602001908152602001600020600201819055508273ffffffffffffffffffffffffffffffffffffffff166108fc349081150290604051600060405180830381858888f1935050505015801561054f573d6000803e3d6000fd5b5050505050565b60008054906101000a900473ffffffffffffffffffffffffffffffffffffffff1673ffffffffffffffffffffffffffffffffffffffff163373ffffffffffffffffffffffffffffffffffffffff16146105e4576040517f08c379a00000000000000000000000000000000000000000000000000000000081526004016105db90610df9565b60405180910390fd5b80600260008573ffffffffffffffffffffffffffffffffffffffff1673ffffffffffffffffffffffffffffffffffffffff168152602001908152602001600020600201541115610669576040517f08c379a000000000000000000000000000000000000000000000000000000000815260040161066090610e19565b60405180910390fd5b81600160008573ffffffffffffffffffffffffffffffffffffffff1673ffffffffffffffffffffffffffffffffffffffff16815260200190815260200160002060010190805190602001906106bf9291906109c5565b506000600260008573ffffffffffffffffffffffffffffffffffffffff1673ffffffffffffffffffffffffffffffffffffffff1681526020019081526020016000206000018190555060405180602001604052806000815250600260008573ffffffffffffffffffffffffffffffffffffffff1673ffffffffffffffffffffffffffffffffffffffff168152602001908152602001600020600101908051906020019061076d9291906109c5565b506000600260008573ffffffffffffffffffffffffffffffffffffffff1673ffffffffffffffffffffffffffffffffffffffff16815260200190815260200160002060020181905550505050565b60008054906101000a900473ffffffffffffffffffffffffffffffffffffffff1673ffffffffffffffffffffffffffffffffffffffff163373ffffffffffffffffffffffffffffffffffffffff1614610849576040517f08c379a000000000000000000000000000000000000000000000000000000000815260040161084090610df9565b60405180910390fd5b83600160008773ffffffffffffffffffffffffffffffffffffffff1673ffffffffffffffffffffffffffffffffffffffff1681526020019081526020016000206000018190555082600160008773ffffffffffffffffffffffffffffffffffffffff1673ffffffffffffffffffffffffffffffffffffffff16815260200190815260200160002060010190805190602001906108e69291906109c5565b5081600160008773ffffffffffffffffffffffffffffffffffffffff1673ffffffffffffffffffffffffffffffffffffffff1681526020019081526020016000206002018190555080600160008773ffffffffffffffffffffffffffffffffffffffff1673ffffffffffffffffffffffffffffffffffffffff168152602001908152602001600020600301819055505050505050565b6040518060800160405280600081526020016060815260200160008152602001600081525090565b60405180606001604052806000815260200160608152602001600081525090565b8280546109d190610f7e565b90600052602060002090601f0160209004810192826109f35760008555610a3a565b82601f10610a0c57805160ff1916838001178555610a3a565b82800160010185558215610a3a579182015b82811115610a39578251825591602001919060010190610a1e565b5b509050610a479190610a4b565b5090565b5b80821115610a64576000816000905550600101610a4c565b5090565b6000610a7b610a7684610ea2565b610e7d565b905082815260208101848484011115610a9757610a96611044565b5b610aa2848285610f3c565b509392505050565b600081359050610ab9816110b6565b92915050565b600082601f830112610ad457610ad361103f565b5b8135610ae4848260208601610a68565b91505092915050565b600081359050610afc816110cd565b92915050565b600060208284031215610b1857610b1761104e565b5b6000610b2684828501610aaa565b91505092915050565b60008060008060808587031215610b4957610b4861104e565b5b6000610b5787828801610aaa565b9450506020610b6887828801610aaa565b9350506040610b7987828801610aed565b925050606085013567ffffffffffffffff811115610b9a57610b99611049565b5b610ba687828801610abf565b91505092959194509250565b600080600060608486031215610bcb57610bca61104e565b5b6000610bd986828701610aaa565b935050602084013567ffffffffffffffff811115610bfa57610bf9611049565b5b610c0686828701610abf565b9250506040610c1786828701610aed565b9150509250925092565b600080600080600060a08688031215610c3d57610c3c61104e565b5b6000610c4b88828901610aaa565b9550506020610c5c88828901610aed565b945050604086013567ffffffffffffffff811115610c7d57610c7c611049565b5b610c8988828901610abf565b9350506060610c9a88828901610aed565b9250506080610cab88828901610aed565b9150509295509295909350565b6000610cc382610ed3565b610ccd8185610ede565b9350610cdd818560208601610f4b565b610ce681611053565b840191505092915050565b6000610cfe601d83610eef565b9150610d0982611064565b602082019050919050565b6000610d21601d83610eef565b9150610d2c8261108d565b602082019050919050565b6000606083016000830151610d4f6000860182610dea565b5060208301518482036020860152610d678282610cb8565b9150506040830151610d7c6040860182610dea565b508091505092915050565b6000608083016000830151610d9f6000860182610dea565b5060208301518482036020860152610db78282610cb8565b9150506040830151610dcc6040860182610dea565b506060830151610ddf6060860182610dea565b508091505092915050565b610df381610f32565b82525050565b60006020820190508181036000830152610e1281610cf1565b9050919050565b60006020820190508181036000830152610e3281610d14565b9050919050565b60006020820190508181036000830152610e538184610d37565b905092915050565b60006020820190508181036000830152610e758184610d87565b905092915050565b6000610e87610e98565b9050610e938282610fb0565b919050565b6000604051905090565b600067ffffffffffffffff821115610ebd57610ebc611010565b5b610ec682611053565b9050602081019050919050565b600081519050919050565b600082825260208201905092915050565b600082825260208201905092915050565b6000610f0b82610f12565b9050919050565b600073ffffffffffffffffffffffffffffffffffffffff82169050919050565b6000819050919050565b82818337600083830152505050565b60005b83811015610f69578082015181840152602081019050610f4e565b83811115610f78576000848401525b50505050565b60006002820490506001821680610f9657607f821691505b60208210811415610faa57610fa9610fe1565b5b50919050565b610fb982611053565b810181811067ffffffffffffffff82111715610fd857610fd7611010565b5b80604052505050565b7f4e487b7100000000000000000000000000000000000000000000000000000000600052602260045260246000fd5b7f4e487b7100000000000000000000000000000000000000000000000000000000600052604160045260246000fd5b600080fd5b600080fd5b600080fd5b600080fd5b6000601f19601f8301169050919050565b7f596f7520617265206e6f74206c616e646f66666963652073746166662e000000600082015250565b7f496e73756666696369656e742066756e6420666f722072656465656d2e000000600082015250565b6110bf81610f00565b81146110ca57600080fd5b50565b6110d681610f32565b81146110e157600080fd5b5056fea2646970667358221220f2b9b75675b7ff1fb75b9ff19de2be20d7b567c2f21a5b01aa97c5883646940a64736f6c63430008070033",
					"opcodes": "PUSH1 0x80 PUSH1 0x40 MSTORE CALLVALUE DUP1 ISZERO PUSH2 0x10 JUMPI PUSH1 0x0 DUP1 REVERT JUMPDEST POP CALLER PUSH1 0x0 DUP1 PUSH2 0x100 EXP DUP2 SLOAD DUP2 PUSH20 0xFFFFFFFFFFFFFFFFFFFFFFFFFFFFFFFFFFFFFFFF MUL NOT AND SWAP1 DUP4 PUSH20 0xFFFFFFFFFFFFFFFFFFFFFFFFFFFFFFFFFFFFFFFF AND MUL OR SWAP1 SSTORE POP PUSH2 0x111A DUP1 PUSH2 0x60 PUSH1 0x0 CODECOPY PUSH1 0x0 RETURN INVALID PUSH1 0x80 PUSH1 0x40 MSTORE PUSH1 0x4 CALLDATASIZE LT PUSH2 0x4A JUMPI PUSH1 0x0 CALLDATALOAD PUSH1 0xE0 SHR DUP1 PUSH4 0x198E86C6 EQ PUSH2 0x4F JUMPI DUP1 PUSH4 0x215271CB EQ PUSH2 0x8C JUMPI DUP1 PUSH4 0x491394C2 EQ PUSH2 0xC9 JUMPI DUP1 PUSH4 0x868571EF EQ PUSH2 0xE5 JUMPI DUP1 PUSH4 0x935656C2 EQ PUSH2 0x10E JUMPI JUMPDEST PUSH1 0x0 DUP1 REVERT JUMPDEST CALLVALUE DUP1 ISZERO PUSH2 0x5B JUMPI PUSH1 0x0 DUP1 REVERT JUMPDEST POP PUSH2 0x76 PUSH1 0x4 DUP1 CALLDATASIZE SUB DUP2 ADD SWAP1 PUSH2 0x71 SWAP2 SWAP1 PUSH2 0xB02 JUMP JUMPDEST PUSH2 0x137 JUMP JUMPDEST PUSH1 0x40 MLOAD PUSH2 0x83 SWAP2 SWAP1 PUSH2 0xE5B JUMP JUMPDEST PUSH1 0x40 MLOAD DUP1 SWAP2 SUB SWAP1 RETURN JUMPDEST CALLVALUE DUP1 ISZERO PUSH2 0x98 JUMPI PUSH1 0x0 DUP1 REVERT JUMPDEST POP PUSH2 0xB3 PUSH1 0x4 DUP1 CALLDATASIZE SUB DUP2 ADD SWAP1 PUSH2 0xAE SWAP2 SWAP1 PUSH2 0xB02 JUMP JUMPDEST PUSH2 0x240 JUMP JUMPDEST PUSH1 0x40 MLOAD PUSH2 0xC0 SWAP2 SWAP1 PUSH2 0xE39 JUMP JUMPDEST PUSH1 0x40 MLOAD DUP1 SWAP2 SUB SWAP1 RETURN JUMPDEST PUSH2 0xE3 PUSH1 0x4 DUP1 CALLDATASIZE SUB DUP2 ADD SWAP1 PUSH2 0xDE SWAP2 SWAP1 PUSH2 0xB2F JUMP JUMPDEST PUSH2 0x33F JUMP JUMPDEST STOP JUMPDEST CALLVALUE DUP1 ISZERO PUSH2 0xF1 JUMPI PUSH1 0x0 DUP1 REVERT JUMPDEST POP PUSH2 0x10C PUSH1 0x4 DUP1 CALLDATASIZE SUB DUP2 ADD SWAP1 PUSH2 0x107 SWAP2 SWAP1 PUSH2 0xBB2 JUMP JUMPDEST PUSH2 0x556 JUMP JUMPDEST STOP JUMPDEST CALLVALUE DUP1 ISZERO PUSH2 0x11A JUMPI PUSH1 0x0 DUP1 REVERT JUMPDEST POP PUSH2 0x135 PUSH1 0x4 DUP1 CALLDATASIZE SUB DUP2 ADD SWAP1 PUSH2 0x130 SWAP2 SWAP1 PUSH2 0xC21 JUMP JUMPDEST PUSH2 0x7BB JUMP JUMPDEST STOP JUMPDEST PUSH2 0x13F PUSH2 0x97C JUMP JUMPDEST PUSH1 0x1 PUSH1 0x0 DUP4 PUSH20 0xFFFFFFFFFFFFFFFFFFFFFFFFFFFFFFFFFFFFFFFF AND PUSH20 0xFFFFFFFFFFFFFFFFFFFFFFFFFFFFFFFFFFFFFFFF AND DUP2 MSTORE PUSH1 0x20 ADD SWAP1 DUP2 MSTORE PUSH1 0x20 ADD PUSH1 0x0 KECCAK256 PUSH1 0x40 MLOAD DUP1 PUSH1 0x80 ADD PUSH1 0x40 MSTORE SWAP1 DUP2 PUSH1 0x0 DUP3 ADD SLOAD DUP2 MSTORE PUSH1 0x20 ADD PUSH1 0x1 DUP3 ADD DUP1 SLOAD PUSH2 0x1A3 SWAP1 PUSH2 0xF7E JUMP JUMPDEST DUP1 PUSH1 0x1F ADD PUSH1 0x20 DUP1 SWAP2 DIV MUL PUSH1 0x20 ADD PUSH1 0x40 MLOAD SWAP1 DUP2 ADD PUSH1 0x40 MSTORE DUP1 SWAP3 SWAP2 SWAP1 DUP2 DUP2 MSTORE PUSH1 0x20 ADD DUP3 DUP1 SLOAD PUSH2 0x1CF SWAP1 PUSH2 0xF7E JUMP JUMPDEST DUP1 ISZERO PUSH2 0x21C JUMPI DUP1 PUSH1 0x1F LT PUSH2 0x1F1 JUMPI PUSH2 0x100 DUP1 DUP4 SLOAD DIV MUL DUP4 MSTORE SWAP2 PUSH1 0x20 ADD SWAP2 PUSH2 0x21C JUMP JUMPDEST DUP3 ADD SWAP2 SWAP1 PUSH1 0x0 MSTORE PUSH1 0x20 PUSH1 0x0 KECCAK256 SWAP1 JUMPDEST DUP2 SLOAD DUP2 MSTORE SWAP1 PUSH1 0x1 ADD SWAP1 PUSH1 0x20 ADD DUP1 DUP4 GT PUSH2 0x1FF JUMPI DUP3 SWAP1 SUB PUSH1 0x1F AND DUP3 ADD SWAP2 JUMPDEST POP POP POP POP POP DUP2 MSTORE PUSH1 0x20 ADD PUSH1 0x2 DUP3 ADD SLOAD DUP2 MSTORE PUSH1 0x20 ADD PUSH1 0x3 DUP3 ADD SLOAD DUP2 MSTORE POP POP SWAP1 POP SWAP2 SWAP1 POP JUMP JUMPDEST PUSH2 0x248 PUSH2 0x9A4 JUMP JUMPDEST PUSH1 0x2 PUSH1 0x0 DUP4 PUSH20 0xFFFFFFFFFFFFFFFFFFFFFFFFFFFFFFFFFFFFFFFF AND PUSH20 0xFFFFFFFFFFFFFFFFFFFFFFFFFFFFFFFFFFFFFFFF AND DUP2 MSTORE PUSH1 0x20 ADD SWAP1 DUP2 MSTORE PUSH1 0x20 ADD PUSH1 0x0 KECCAK256 PUSH1 0x40 MLOAD DUP1 PUSH1 0x60 ADD PUSH1 0x40 MSTORE SWAP1 DUP2 PUSH1 0x0 DUP3 ADD SLOAD DUP2 MSTORE PUSH1 0x20 ADD PUSH1 0x1 DUP3 ADD DUP1 SLOAD PUSH2 0x2AC SWAP1 PUSH2 0xF7E JUMP JUMPDEST DUP1 PUSH1 0x1F ADD PUSH1 0x20 DUP1 SWAP2 DIV MUL PUSH1 0x20 ADD PUSH1 0x40 MLOAD SWAP1 DUP2 ADD PUSH1 0x40 MSTORE DUP1 SWAP3 SWAP2 SWAP1 DUP2 DUP2 MSTORE PUSH1 0x20 ADD DUP3 DUP1 SLOAD PUSH2 0x2D8 SWAP1 PUSH2 0xF7E JUMP JUMPDEST DUP1 ISZERO PUSH2 0x325 JUMPI DUP1 PUSH1 0x1F LT PUSH2 0x2FA JUMPI PUSH2 0x100 DUP1 DUP4 SLOAD DIV MUL DUP4 MSTORE SWAP2 PUSH1 0x20 ADD SWAP2 PUSH2 0x325 JUMP JUMPDEST DUP3 ADD SWAP2 SWAP1 PUSH1 0x0 MSTORE PUSH1 0x20 PUSH1 0x0 KECCAK256 SWAP1 JUMPDEST DUP2 SLOAD DUP2 MSTORE SWAP1 PUSH1 0x1 ADD SWAP1 PUSH1 0x20 ADD DUP1 DUP4 GT PUSH2 0x308 JUMPI DUP3 SWAP1 SUB PUSH1 0x1F AND DUP3 ADD SWAP2 JUMPDEST POP POP POP POP POP DUP2 MSTORE PUSH1 0x20 ADD PUSH1 0x2 DUP3 ADD SLOAD DUP2 MSTORE POP POP SWAP1 POP SWAP2 SWAP1 POP JUMP JUMPDEST PUSH1 0x0 DUP1 SLOAD SWAP1 PUSH2 0x100 EXP SWAP1 DIV PUSH20 0xFFFFFFFFFFFFFFFFFFFFFFFFFFFFFFFFFFFFFFFF AND PUSH20 0xFFFFFFFFFFFFFFFFFFFFFFFFFFFFFFFFFFFFFFFF AND CALLER PUSH20 0xFFFFFFFFFFFFFFFFFFFFFFFFFFFFFFFFFFFFFFFF AND EQ PUSH2 0x3CD JUMPI PUSH1 0x40 MLOAD PUSH32 0x8C379A000000000000000000000000000000000000000000000000000000000 DUP2 MSTORE PUSH1 0x4 ADD PUSH2 0x3C4 SWAP1 PUSH2 0xDF9 JUMP JUMPDEST PUSH1 0x40 MLOAD DUP1 SWAP2 SUB SWAP1 REVERT JUMPDEST DUP1 PUSH1 0x1 PUSH1 0x0 DUP7 PUSH20 0xFFFFFFFFFFFFFFFFFFFFFFFFFFFFFFFFFFFFFFFF AND PUSH20 0xFFFFFFFFFFFFFFFFFFFFFFFFFFFFFFFFFFFFFFFF AND DUP2 MSTORE PUSH1 0x20 ADD SWAP1 DUP2 MSTORE PUSH1 0x20 ADD PUSH1 0x0 KECCAK256 PUSH1 0x1 ADD SWAP1 DUP1 MLOAD SWAP1 PUSH1 0x20 ADD SWAP1 PUSH2 0x423 SWAP3 SWAP2 SWAP1 PUSH2 0x9C5 JUMP JUMPDEST POP DUP2 PUSH1 0x2 PUSH1 0x0 DUP7 PUSH20 0xFFFFFFFFFFFFFFFFFFFFFFFFFFFFFFFFFFFFFFFF AND PUSH20 0xFFFFFFFFFFFFFFFFFFFFFFFFFFFFFFFFFFFFFFFF AND DUP2 MSTORE PUSH1 0x20 ADD SWAP1 DUP2 MSTORE PUSH1 0x20 ADD PUSH1 0x0 KECCAK256 PUSH1 0x0 ADD DUP2 SWAP1 SSTORE POP DUP1 PUSH1 0x2 PUSH1 0x0 DUP7 PUSH20 0xFFFFFFFFFFFFFFFFFFFFFFFFFFFFFFFFFFFFFFFF AND PUSH20 0xFFFFFFFFFFFFFFFFFFFFFFFFFFFFFFFFFFFFFFFF AND DUP2 MSTORE PUSH1 0x20 ADD SWAP1 DUP2 MSTORE PUSH1 0x20 ADD PUSH1 0x0 KECCAK256 PUSH1 0x1 ADD SWAP1 DUP1 MLOAD SWAP1 PUSH1 0x20 ADD SWAP1 PUSH2 0x4C1 SWAP3 SWAP2 SWAP1 PUSH2 0x9C5 JUMP JUMPDEST POP CALLVALUE PUSH1 0x2 PUSH1 0x0 DUP7 PUSH20 0xFFFFFFFFFFFFFFFFFFFFFFFFFFFFFFFFFFFFFFFF AND PUSH20 0xFFFFFFFFFFFFFFFFFFFFFFFFFFFFFFFFFFFFFFFF AND DUP2 MSTORE PUSH1 0x20 ADD SWAP1 DUP2 MSTORE PUSH1 0x20 ADD PUSH1 0x0 KECCAK256 PUSH1 0x2 ADD DUP2 SWAP1 SSTORE POP DUP3 PUSH20 0xFFFFFFFFFFFFFFFFFFFFFFFFFFFFFFFFFFFFFFFF AND PUSH2 0x8FC CALLVALUE SWAP1 DUP2 ISZERO MUL SWAP1 PUSH1 0x40 MLOAD PUSH1 0x0 PUSH1 0x40 MLOAD DUP1 DUP4 SUB DUP2 DUP6 DUP9 DUP9 CALL SWAP4 POP POP POP POP ISZERO DUP1 ISZERO PUSH2 0x54F JUMPI RETURNDATASIZE PUSH1 0x0 DUP1 RETURNDATACOPY RETURNDATASIZE PUSH1 0x0 REVERT JUMPDEST POP POP POP POP POP JUMP JUMPDEST PUSH1 0x0 DUP1 SLOAD SWAP1 PUSH2 0x100 EXP SWAP1 DIV PUSH20 0xFFFFFFFFFFFFFFFFFFFFFFFFFFFFFFFFFFFFFFFF AND PUSH20 0xFFFFFFFFFFFFFFFFFFFFFFFFFFFFFFFFFFFFFFFF AND CALLER PUSH20 0xFFFFFFFFFFFFFFFFFFFFFFFFFFFFFFFFFFFFFFFF AND EQ PUSH2 0x5E4 JUMPI PUSH1 0x40 MLOAD PUSH32 0x8C379A000000000000000000000000000000000000000000000000000000000 DUP2 MSTORE PUSH1 0x4 ADD PUSH2 0x5DB SWAP1 PUSH2 0xDF9 JUMP JUMPDEST PUSH1 0x40 MLOAD DUP1 SWAP2 SUB SWAP1 REVERT JUMPDEST DUP1 PUSH1 0x2 PUSH1 0x0 DUP6 PUSH20 0xFFFFFFFFFFFFFFFFFFFFFFFFFFFFFFFFFFFFFFFF AND PUSH20 0xFFFFFFFFFFFFFFFFFFFFFFFFFFFFFFFFFFFFFFFF AND DUP2 MSTORE PUSH1 0x20 ADD SWAP1 DUP2 MSTORE PUSH1 0x20 ADD PUSH1 0x0 KECCAK256 PUSH1 0x2 ADD SLOAD GT ISZERO PUSH2 0x669 JUMPI PUSH1 0x40 MLOAD PUSH32 0x8C379A000000000000000000000000000000000000000000000000000000000 DUP2 MSTORE PUSH1 0x4 ADD PUSH2 0x660 SWAP1 PUSH2 0xE19 JUMP JUMPDEST PUSH1 0x40 MLOAD DUP1 SWAP2 SUB SWAP1 REVERT JUMPDEST DUP2 PUSH1 0x1 PUSH1 0x0 DUP6 PUSH20 0xFFFFFFFFFFFFFFFFFFFFFFFFFFFFFFFFFFFFFFFF AND PUSH20 0xFFFFFFFFFFFFFFFFFFFFFFFFFFFFFFFFFFFFFFFF AND DUP2 MSTORE PUSH1 0x20 ADD SWAP1 DUP2 MSTORE PUSH1 0x20 ADD PUSH1 0x0 KECCAK256 PUSH1 0x1 ADD SWAP1 DUP1 MLOAD SWAP1 PUSH1 0x20 ADD SWAP1 PUSH2 0x6BF SWAP3 SWAP2 SWAP1 PUSH2 0x9C5 JUMP JUMPDEST POP PUSH1 0x0 PUSH1 0x2 PUSH1 0x0 DUP6 PUSH20 0xFFFFFFFFFFFFFFFFFFFFFFFFFFFFFFFFFFFFFFFF AND PUSH20 0xFFFFFFFFFFFFFFFFFFFFFFFFFFFFFFFFFFFFFFFF AND DUP2 MSTORE PUSH1 0x20 ADD SWAP1 DUP2 MSTORE PUSH1 0x20 ADD PUSH1 0x0 KECCAK256 PUSH1 0x0 ADD DUP2 SWAP1 SSTORE POP PUSH1 0x40 MLOAD DUP1 PUSH1 0x20 ADD PUSH1 0x40 MSTORE DUP1 PUSH1 0x0 DUP2 MSTORE POP PUSH1 0x2 PUSH1 0x0 DUP6 PUSH20 0xFFFFFFFFFFFFFFFFFFFFFFFFFFFFFFFFFFFFFFFF AND PUSH20 0xFFFFFFFFFFFFFFFFFFFFFFFFFFFFFFFFFFFFFFFF AND DUP2 MSTORE PUSH1 0x20 ADD SWAP1 DUP2 MSTORE PUSH1 0x20 ADD PUSH1 0x0 KECCAK256 PUSH1 0x1 ADD SWAP1 DUP1 MLOAD SWAP1 PUSH1 0x20 ADD SWAP1 PUSH2 0x76D SWAP3 SWAP2 SWAP1 PUSH2 0x9C5 JUMP JUMPDEST POP PUSH1 0x0 PUSH1 0x2 PUSH1 0x0 DUP6 PUSH20 0xFFFFFFFFFFFFFFFFFFFFFFFFFFFFFFFFFFFFFFFF AND PUSH20 0xFFFFFFFFFFFFFFFFFFFFFFFFFFFFFFFFFFFFFFFF AND DUP2 MSTORE PUSH1 0x20 ADD SWAP1 DUP2 MSTORE PUSH1 0x20 ADD PUSH1 0x0 KECCAK256 PUSH1 0x2 ADD DUP2 SWAP1 SSTORE POP POP POP POP JUMP JUMPDEST PUSH1 0x0 DUP1 SLOAD SWAP1 PUSH2 0x100 EXP SWAP1 DIV PUSH20 0xFFFFFFFFFFFFFFFFFFFFFFFFFFFFFFFFFFFFFFFF AND PUSH20 0xFFFFFFFFFFFFFFFFFFFFFFFFFFFFFFFFFFFFFFFF AND CALLER PUSH20 0xFFFFFFFFFFFFFFFFFFFFFFFFFFFFFFFFFFFFFFFF AND EQ PUSH2 0x849 JUMPI PUSH1 0x40 MLOAD PUSH32 0x8C379A000000000000000000000000000000000000000000000000000000000 DUP2 MSTORE PUSH1 0x4 ADD PUSH2 0x840 SWAP1 PUSH2 0xDF9 JUMP JUMPDEST PUSH1 0x40 MLOAD DUP1 SWAP2 SUB SWAP1 REVERT JUMPDEST DUP4 PUSH1 0x1 PUSH1 0x0 DUP8 PUSH20 0xFFFFFFFFFFFFFFFFFFFFFFFFFFFFFFFFFFFFFFFF AND PUSH20 0xFFFFFFFFFFFFFFFFFFFFFFFFFFFFFFFFFFFFFFFF AND DUP2 MSTORE PUSH1 0x20 ADD SWAP1 DUP2 MSTORE PUSH1 0x20 ADD PUSH1 0x0 KECCAK256 PUSH1 0x0 ADD DUP2 SWAP1 SSTORE POP DUP3 PUSH1 0x1 PUSH1 0x0 DUP8 PUSH20 0xFFFFFFFFFFFFFFFFFFFFFFFFFFFFFFFFFFFFFFFF AND PUSH20 0xFFFFFFFFFFFFFFFFFFFFFFFFFFFFFFFFFFFFFFFF AND DUP2 MSTORE PUSH1 0x20 ADD SWAP1 DUP2 MSTORE PUSH1 0x20 ADD PUSH1 0x0 KECCAK256 PUSH1 0x1 ADD SWAP1 DUP1 MLOAD SWAP1 PUSH1 0x20 ADD SWAP1 PUSH2 0x8E6 SWAP3 SWAP2 SWAP1 PUSH2 0x9C5 JUMP JUMPDEST POP DUP2 PUSH1 0x1 PUSH1 0x0 DUP8 PUSH20 0xFFFFFFFFFFFFFFFFFFFFFFFFFFFFFFFFFFFFFFFF AND PUSH20 0xFFFFFFFFFFFFFFFFFFFFFFFFFFFFFFFFFFFFFFFF AND DUP2 MSTORE PUSH1 0x20 ADD SWAP1 DUP2 MSTORE PUSH1 0x20 ADD PUSH1 0x0 KECCAK256 PUSH1 0x2 ADD DUP2 SWAP1 SSTORE POP DUP1 PUSH1 0x1 PUSH1 0x0 DUP8 PUSH20 0xFFFFFFFFFFFFFFFFFFFFFFFFFFFFFFFFFFFFFFFF AND PUSH20 0xFFFFFFFFFFFFFFFFFFFFFFFFFFFFFFFFFFFFFFFF AND DUP2 MSTORE PUSH1 0x20 ADD SWAP1 DUP2 MSTORE PUSH1 0x20 ADD PUSH1 0x0 KECCAK256 PUSH1 0x3 ADD DUP2 SWAP1 SSTORE POP POP POP POP POP POP JUMP JUMPDEST PUSH1 0x40 MLOAD DUP1 PUSH1 0x80 ADD PUSH1 0x40 MSTORE DUP1 PUSH1 0x0 DUP2 MSTORE PUSH1 0x20 ADD PUSH1 0x60 DUP2 MSTORE PUSH1 0x20 ADD PUSH1 0x0 DUP2 MSTORE PUSH1 0x20 ADD PUSH1 0x0 DUP2 MSTORE POP SWAP1 JUMP JUMPDEST PUSH1 0x40 MLOAD DUP1 PUSH1 0x60 ADD PUSH1 0x40 MSTORE DUP1 PUSH1 0x0 DUP2 MSTORE PUSH1 0x20 ADD PUSH1 0x60 DUP2 MSTORE PUSH1 0x20 ADD PUSH1 0x0 DUP2 MSTORE POP SWAP1 JUMP JUMPDEST DUP3 DUP1 SLOAD PUSH2 0x9D1 SWAP1 PUSH2 0xF7E JUMP JUMPDEST SWAP1 PUSH1 0x0 MSTORE PUSH1 0x20 PUSH1 0x0 KECCAK256 SWAP1 PUSH1 0x1F ADD PUSH1 0x20 SWAP1 DIV DUP2 ADD SWAP3 DUP3 PUSH2 0x9F3 JUMPI PUSH1 0x0 DUP6 SSTORE PUSH2 0xA3A JUMP JUMPDEST DUP3 PUSH1 0x1F LT PUSH2 0xA0C JUMPI DUP1 MLOAD PUSH1 0xFF NOT AND DUP4 DUP1 ADD OR DUP6 SSTORE PUSH2 0xA3A JUMP JUMPDEST DUP3 DUP1 ADD PUSH1 0x1 ADD DUP6 SSTORE DUP3 ISZERO PUSH2 0xA3A JUMPI SWAP2 DUP3 ADD JUMPDEST DUP3 DUP2 GT ISZERO PUSH2 0xA39 JUMPI DUP3 MLOAD DUP3 SSTORE SWAP2 PUSH1 0x20 ADD SWAP2 SWAP1 PUSH1 0x1 ADD SWAP1 PUSH2 0xA1E JUMP JUMPDEST JUMPDEST POP SWAP1 POP PUSH2 0xA47 SWAP2 SWAP1 PUSH2 0xA4B JUMP JUMPDEST POP SWAP1 JUMP JUMPDEST JUMPDEST DUP1 DUP3 GT ISZERO PUSH2 0xA64 JUMPI PUSH1 0x0 DUP2 PUSH1 0x0 SWAP1 SSTORE POP PUSH1 0x1 ADD PUSH2 0xA4C JUMP JUMPDEST POP SWAP1 JUMP JUMPDEST PUSH1 0x0 PUSH2 0xA7B PUSH2 0xA76 DUP5 PUSH2 0xEA2 JUMP JUMPDEST PUSH2 0xE7D JUMP JUMPDEST SWAP1 POP DUP3 DUP2 MSTORE PUSH1 0x20 DUP2 ADD DUP5 DUP5 DUP5 ADD GT ISZERO PUSH2 0xA97 JUMPI PUSH2 0xA96 PUSH2 0x1044 JUMP JUMPDEST JUMPDEST PUSH2 0xAA2 DUP5 DUP3 DUP6 PUSH2 0xF3C JUMP JUMPDEST POP SWAP4 SWAP3 POP POP POP JUMP JUMPDEST PUSH1 0x0 DUP2 CALLDATALOAD SWAP1 POP PUSH2 0xAB9 DUP2 PUSH2 0x10B6 JUMP JUMPDEST SWAP3 SWAP2 POP POP JUMP JUMPDEST PUSH1 0x0 DUP3 PUSH1 0x1F DUP4 ADD SLT PUSH2 0xAD4 JUMPI PUSH2 0xAD3 PUSH2 0x103F JUMP JUMPDEST JUMPDEST DUP2 CALLDATALOAD PUSH2 0xAE4 DUP5 DUP3 PUSH1 0x20 DUP7 ADD PUSH2 0xA68 JUMP JUMPDEST SWAP2 POP POP SWAP3 SWAP2 POP POP JUMP JUMPDEST PUSH1 0x0 DUP2 CALLDATALOAD SWAP1 POP PUSH2 0xAFC DUP2 PUSH2 0x10CD JUMP JUMPDEST SWAP3 SWAP2 POP POP JUMP JUMPDEST PUSH1 0x0 PUSH1 0x20 DUP3 DUP5 SUB SLT ISZERO PUSH2 0xB18 JUMPI PUSH2 0xB17 PUSH2 0x104E JUMP JUMPDEST JUMPDEST PUSH1 0x0 PUSH2 0xB26 DUP5 DUP3 DUP6 ADD PUSH2 0xAAA JUMP JUMPDEST SWAP2 POP POP SWAP3 SWAP2 POP POP JUMP JUMPDEST PUSH1 0x0 DUP1 PUSH1 0x0 DUP1 PUSH1 0x80 DUP6 DUP8 SUB SLT ISZERO PUSH2 0xB49 JUMPI PUSH2 0xB48 PUSH2 0x104E JUMP JUMPDEST JUMPDEST PUSH1 0x0 PUSH2 0xB57 DUP8 DUP3 DUP9 ADD PUSH2 0xAAA JUMP JUMPDEST SWAP5 POP POP PUSH1 0x20 PUSH2 0xB68 DUP8 DUP3 DUP9 ADD PUSH2 0xAAA JUMP JUMPDEST SWAP4 POP POP PUSH1 0x40 PUSH2 0xB79 DUP8 DUP3 DUP9 ADD PUSH2 0xAED JUMP JUMPDEST SWAP3 POP POP PUSH1 0x60 DUP6 ADD CALLDATALOAD PUSH8 0xFFFFFFFFFFFFFFFF DUP2 GT ISZERO PUSH2 0xB9A JUMPI PUSH2 0xB99 PUSH2 0x1049 JUMP JUMPDEST JUMPDEST PUSH2 0xBA6 DUP8 DUP3 DUP9 ADD PUSH2 0xABF JUMP JUMPDEST SWAP2 POP POP SWAP3 SWAP6 SWAP2 SWAP5 POP SWAP3 POP JUMP JUMPDEST PUSH1 0x0 DUP1 PUSH1 0x0 PUSH1 0x60 DUP5 DUP7 SUB SLT ISZERO PUSH2 0xBCB JUMPI PUSH2 0xBCA PUSH2 0x104E JUMP JUMPDEST JUMPDEST PUSH1 0x0 PUSH2 0xBD9 DUP7 DUP3 DUP8 ADD PUSH2 0xAAA JUMP JUMPDEST SWAP4 POP POP PUSH1 0x20 DUP5 ADD CALLDATALOAD PUSH8 0xFFFFFFFFFFFFFFFF DUP2 GT ISZERO PUSH2 0xBFA JUMPI PUSH2 0xBF9 PUSH2 0x1049 JUMP JUMPDEST JUMPDEST PUSH2 0xC06 DUP7 DUP3 DUP8 ADD PUSH2 0xABF JUMP JUMPDEST SWAP3 POP POP PUSH1 0x40 PUSH2 0xC17 DUP7 DUP3 DUP8 ADD PUSH2 0xAED JUMP JUMPDEST SWAP2 POP POP SWAP3 POP SWAP3 POP SWAP3 JUMP JUMPDEST PUSH1 0x0 DUP1 PUSH1 0x0 DUP1 PUSH1 0x0 PUSH1 0xA0 DUP7 DUP9 SUB SLT ISZERO PUSH2 0xC3D JUMPI PUSH2 0xC3C PUSH2 0x104E JUMP JUMPDEST JUMPDEST PUSH1 0x0 PUSH2 0xC4B DUP9 DUP3 DUP10 ADD PUSH2 0xAAA JUMP JUMPDEST SWAP6 POP POP PUSH1 0x20 PUSH2 0xC5C DUP9 DUP3 DUP10 ADD PUSH2 0xAED JUMP JUMPDEST SWAP5 POP POP PUSH1 0x40 DUP7 ADD CALLDATALOAD PUSH8 0xFFFFFFFFFFFFFFFF DUP2 GT ISZERO PUSH2 0xC7D JUMPI PUSH2 0xC7C PUSH2 0x1049 JUMP JUMPDEST JUMPDEST PUSH2 0xC89 DUP9 DUP3 DUP10 ADD PUSH2 0xABF JUMP JUMPDEST SWAP4 POP POP PUSH1 0x60 PUSH2 0xC9A DUP9 DUP3 DUP10 ADD PUSH2 0xAED JUMP JUMPDEST SWAP3 POP POP PUSH1 0x80 PUSH2 0xCAB DUP9 DUP3 DUP10 ADD PUSH2 0xAED JUMP JUMPDEST SWAP2 POP POP SWAP3 SWAP6 POP SWAP3 SWAP6 SWAP1 SWAP4 POP JUMP JUMPDEST PUSH1 0x0 PUSH2 0xCC3 DUP3 PUSH2 0xED3 JUMP JUMPDEST PUSH2 0xCCD DUP2 DUP6 PUSH2 0xEDE JUMP JUMPDEST SWAP4 POP PUSH2 0xCDD DUP2 DUP6 PUSH1 0x20 DUP7 ADD PUSH2 0xF4B JUMP JUMPDEST PUSH2 0xCE6 DUP2 PUSH2 0x1053 JUMP JUMPDEST DUP5 ADD SWAP2 POP POP SWAP3 SWAP2 POP POP JUMP JUMPDEST PUSH1 0x0 PUSH2 0xCFE PUSH1 0x1D DUP4 PUSH2 0xEEF JUMP JUMPDEST SWAP2 POP PUSH2 0xD09 DUP3 PUSH2 0x1064 JUMP JUMPDEST PUSH1 0x20 DUP3 ADD SWAP1 POP SWAP2 SWAP1 POP JUMP JUMPDEST PUSH1 0x0 PUSH2 0xD21 PUSH1 0x1D DUP4 PUSH2 0xEEF JUMP JUMPDEST SWAP2 POP PUSH2 0xD2C DUP3 PUSH2 0x108D JUMP JUMPDEST PUSH1 0x20 DUP3 ADD SWAP1 POP SWAP2 SWAP1 POP JUMP JUMPDEST PUSH1 0x0 PUSH1 0x60 DUP4 ADD PUSH1 0x0 DUP4 ADD MLOAD PUSH2 0xD4F PUSH1 0x0 DUP7 ADD DUP3 PUSH2 0xDEA JUMP JUMPDEST POP PUSH1 0x20 DUP4 ADD MLOAD DUP5 DUP3 SUB PUSH1 0x20 DUP7 ADD MSTORE PUSH2 0xD67 DUP3 DUP3 PUSH2 0xCB8 JUMP JUMPDEST SWAP2 POP POP PUSH1 0x40 DUP4 ADD MLOAD PUSH2 0xD7C PUSH1 0x40 DUP7 ADD DUP3 PUSH2 0xDEA JUMP JUMPDEST POP DUP1 SWAP2 POP POP SWAP3 SWAP2 POP POP JUMP JUMPDEST PUSH1 0x0 PUSH1 0x80 DUP4 ADD PUSH1 0x0 DUP4 ADD MLOAD PUSH2 0xD9F PUSH1 0x0 DUP7 ADD DUP3 PUSH2 0xDEA JUMP JUMPDEST POP PUSH1 0x20 DUP4 ADD MLOAD DUP5 DUP3 SUB PUSH1 0x20 DUP7 ADD MSTORE PUSH2 0xDB7 DUP3 DUP3 PUSH2 0xCB8 JUMP JUMPDEST SWAP2 POP POP PUSH1 0x40 DUP4 ADD MLOAD PUSH2 0xDCC PUSH1 0x40 DUP7 ADD DUP3 PUSH2 0xDEA JUMP JUMPDEST POP PUSH1 0x60 DUP4 ADD MLOAD PUSH2 0xDDF PUSH1 0x60 DUP7 ADD DUP3 PUSH2 0xDEA JUMP JUMPDEST POP DUP1 SWAP2 POP POP SWAP3 SWAP2 POP POP JUMP JUMPDEST PUSH2 0xDF3 DUP2 PUSH2 0xF32 JUMP JUMPDEST DUP3 MSTORE POP POP JUMP JUMPDEST PUSH1 0x0 PUSH1 0x20 DUP3 ADD SWAP1 POP DUP2 DUP2 SUB PUSH1 0x0 DUP4 ADD MSTORE PUSH2 0xE12 DUP2 PUSH2 0xCF1 JUMP JUMPDEST SWAP1 POP SWAP2 SWAP1 POP JUMP JUMPDEST PUSH1 0x0 PUSH1 0x20 DUP3 ADD SWAP1 POP DUP2 DUP2 SUB PUSH1 0x0 DUP4 ADD MSTORE PUSH2 0xE32 DUP2 PUSH2 0xD14 JUMP JUMPDEST SWAP1 POP SWAP2 SWAP1 POP JUMP JUMPDEST PUSH1 0x0 PUSH1 0x20 DUP3 ADD SWAP1 POP DUP2 DUP2 SUB PUSH1 0x0 DUP4 ADD MSTORE PUSH2 0xE53 DUP2 DUP5 PUSH2 0xD37 JUMP JUMPDEST SWAP1 POP SWAP3 SWAP2 POP POP JUMP JUMPDEST PUSH1 0x0 PUSH1 0x20 DUP3 ADD SWAP1 POP DUP2 DUP2 SUB PUSH1 0x0 DUP4 ADD MSTORE PUSH2 0xE75 DUP2 DUP5 PUSH2 0xD87 JUMP JUMPDEST SWAP1 POP SWAP3 SWAP2 POP POP JUMP JUMPDEST PUSH1 0x0 PUSH2 0xE87 PUSH2 0xE98 JUMP JUMPDEST SWAP1 POP PUSH2 0xE93 DUP3 DUP3 PUSH2 0xFB0 JUMP JUMPDEST SWAP2 SWAP1 POP JUMP JUMPDEST PUSH1 0x0 PUSH1 0x40 MLOAD SWAP1 POP SWAP1 JUMP JUMPDEST PUSH1 0x0 PUSH8 0xFFFFFFFFFFFFFFFF DUP3 GT ISZERO PUSH2 0xEBD JUMPI PUSH2 0xEBC PUSH2 0x1010 JUMP JUMPDEST JUMPDEST PUSH2 0xEC6 DUP3 PUSH2 0x1053 JUMP JUMPDEST SWAP1 POP PUSH1 0x20 DUP2 ADD SWAP1 POP SWAP2 SWAP1 POP JUMP JUMPDEST PUSH1 0x0 DUP2 MLOAD SWAP1 POP SWAP2 SWAP1 POP JUMP JUMPDEST PUSH1 0x0 DUP3 DUP3 MSTORE PUSH1 0x20 DUP3 ADD SWAP1 POP SWAP3 SWAP2 POP POP JUMP JUMPDEST PUSH1 0x0 DUP3 DUP3 MSTORE PUSH1 0x20 DUP3 ADD SWAP1 POP SWAP3 SWAP2 POP POP JUMP JUMPDEST PUSH1 0x0 PUSH2 0xF0B DUP3 PUSH2 0xF12 JUMP JUMPDEST SWAP1 POP SWAP2 SWAP1 POP JUMP JUMPDEST PUSH1 0x0 PUSH20 0xFFFFFFFFFFFFFFFFFFFFFFFFFFFFFFFFFFFFFFFF DUP3 AND SWAP1 POP SWAP2 SWAP1 POP JUMP JUMPDEST PUSH1 0x0 DUP2 SWAP1 POP SWAP2 SWAP1 POP JUMP JUMPDEST DUP3 DUP2 DUP4 CALLDATACOPY PUSH1 0x0 DUP4 DUP4 ADD MSTORE POP POP POP JUMP JUMPDEST PUSH1 0x0 JUMPDEST DUP4 DUP2 LT ISZERO PUSH2 0xF69 JUMPI DUP1 DUP3 ADD MLOAD DUP2 DUP5 ADD MSTORE PUSH1 0x20 DUP2 ADD SWAP1 POP PUSH2 0xF4E JUMP JUMPDEST DUP4 DUP2 GT ISZERO PUSH2 0xF78 JUMPI PUSH1 0x0 DUP5 DUP5 ADD MSTORE JUMPDEST POP POP POP POP JUMP JUMPDEST PUSH1 0x0 PUSH1 0x2 DUP3 DIV SWAP1 POP PUSH1 0x1 DUP3 AND DUP1 PUSH2 0xF96 JUMPI PUSH1 0x7F DUP3 AND SWAP2 POP JUMPDEST PUSH1 0x20 DUP3 LT DUP2 EQ ISZERO PUSH2 0xFAA JUMPI PUSH2 0xFA9 PUSH2 0xFE1 JUMP JUMPDEST JUMPDEST POP SWAP2 SWAP1 POP JUMP JUMPDEST PUSH2 0xFB9 DUP3 PUSH2 0x1053 JUMP JUMPDEST DUP2 ADD DUP2 DUP2 LT PUSH8 0xFFFFFFFFFFFFFFFF DUP3 GT OR ISZERO PUSH2 0xFD8 JUMPI PUSH2 0xFD7 PUSH2 0x1010 JUMP JUMPDEST JUMPDEST DUP1 PUSH1 0x40 MSTORE POP POP POP JUMP JUMPDEST PUSH32 0x4E487B7100000000000000000000000000000000000000000000000000000000 PUSH1 0x0 MSTORE PUSH1 0x22 PUSH1 0x4 MSTORE PUSH1 0x24 PUSH1 0x0 REVERT JUMPDEST PUSH32 0x4E487B7100000000000000000000000000000000000000000000000000000000 PUSH1 0x0 MSTORE PUSH1 0x41 PUSH1 0x4 MSTORE PUSH1 0x24 PUSH1 0x0 REVERT JUMPDEST PUSH1 0x0 DUP1 REVERT JUMPDEST PUSH1 0x0 DUP1 REVERT JUMPDEST PUSH1 0x0 DUP1 REVERT JUMPDEST PUSH1 0x0 DUP1 REVERT JUMPDEST PUSH1 0x0 PUSH1 0x1F NOT PUSH1 0x1F DUP4 ADD AND SWAP1 POP SWAP2 SWAP1 POP JUMP JUMPDEST PUSH32 0x596F7520617265206E6F74206C616E646F66666963652073746166662E000000 PUSH1 0x0 DUP3 ADD MSTORE POP JUMP JUMPDEST PUSH32 0x496E73756666696369656E742066756E6420666F722072656465656D2E000000 PUSH1 0x0 DUP3 ADD MSTORE POP JUMP JUMPDEST PUSH2 0x10BF DUP2 PUSH2 0xF00 JUMP JUMPDEST DUP2 EQ PUSH2 0x10CA JUMPI PUSH1 0x0 DUP1 REVERT JUMPDEST POP JUMP JUMPDEST PUSH2 0x10D6 DUP2 PUSH2 0xF32 JUMP JUMPDEST DUP2 EQ PUSH2 0x10E1 JUMPI PUSH1 0x0 DUP1 REVERT JUMPDEST POP JUMP INVALID LOG2 PUSH5 0x6970667358 0x22 SLT KECCAK256 CALLCODE 0xB9 0xB7 JUMP PUSH22 0xB7FF1FB75B9FF19DE2BE20D7B567C2F21A5B01AA97C5 DUP9 CALLDATASIZE CHAINID SWAP5 EXP PUSH5 0x736F6C6343 STOP ADDMOD SMOD STOP CALLER "
				},
				"gasEstimates": {
					"creation": {
						"codeDepositCost": "875600",
						"executionCost": "25175",
						"totalCost": "900775"
					},
					"external": {
						"createParcel(address,uint256,string,uint256,uint256)": "infinite",
						"getOlgt(address)": "infinite",
						"getParcel(address)": "infinite",
						"mortgage(address,address,uint256,string)": "infinite",
						"redeem(address,string,uint256)": "infinite"
					}
				},
				"methodIdentifiers": {
					"createParcel(address,uint256,string,uint256,uint256)": "935656c2",
					"getOlgt(address)": "215271cb",
					"getParcel(address)": "198e86c6",
					"mortgage(address,address,uint256,string)": "491394c2",
					"redeem(address,string,uint256)": "868571ef"
				}
			},
			"storageLayout": {
				"storage": [
					{
						"astId": 19,
						"contract": "contracts/Parcel.sol:Parcel",
						"label": "staff",
						"offset": 0,
						"slot": "0",
						"type": "t_address"
					},
					{
						"astId": 24,
						"contract": "contracts/Parcel.sol:Parcel",
						"label": "_parcel_land",
						"offset": 0,
						"slot": "1",
						"type": "t_mapping(t_address,t_struct(Parcel_land)10_storage)"
					},
					{
						"astId": 29,
						"contract": "contracts/Parcel.sol:Parcel",
						"label": "_olgt_bank",
						"offset": 0,
						"slot": "2",
						"type": "t_mapping(t_address,t_struct(OlgtBank)17_storage)"
					}
				],
				"types": {
					"t_address": {
						"encoding": "inplace",
						"label": "address",
						"numberOfBytes": "20"
					},
					"t_mapping(t_address,t_struct(OlgtBank)17_storage)": {
						"encoding": "mapping",
						"key": "t_address",
						"label": "mapping(address => struct OlgtBank)",
						"numberOfBytes": "32",
						"value": "t_struct(OlgtBank)17_storage"
					},
					"t_mapping(t_address,t_struct(Parcel_land)10_storage)": {
						"encoding": "mapping",
						"key": "t_address",
						"label": "mapping(address => struct Parcel_land)",
						"numberOfBytes": "32",
						"value": "t_struct(Parcel_land)10_storage"
					},
					"t_string_storage": {
						"encoding": "bytes",
						"label": "string",
						"numberOfBytes": "32"
					},
					"t_struct(OlgtBank)17_storage": {
						"encoding": "inplace",
						"label": "struct OlgtBank",
						"members": [
							{
								"astId": 12,
								"contract": "contracts/Parcel.sol:Parcel",
								"label": "parcel_no",
								"offset": 0,
								"slot": "0",
								"type": "t_uint256"
							},
							{
								"astId": 14,
								"contract": "contracts/Parcel.sol:Parcel",
								"label": "olgt_name",
								"offset": 0,
								"slot": "1",
								"type": "t_string_storage"
							},
							{
								"astId": 16,
								"contract": "contracts/Parcel.sol:Parcel",
								"label": "olgt_price",
								"offset": 0,
								"slot": "2",
								"type": "t_uint256"
							}
						],
						"numberOfBytes": "96"
					},
					"t_struct(Parcel_land)10_storage": {
						"encoding": "inplace",
						"label": "struct Parcel_land",
						"members": [
							{
								"astId": 3,
								"contract": "contracts/Parcel.sol:Parcel",
								"label": "parcel_no",
								"offset": 0,
								"slot": "0",
								"type": "t_uint256"
							},
							{
								"astId": 5,
								"contract": "contracts/Parcel.sol:Parcel",
								"label": "owner_name",
								"offset": 0,
								"slot": "1",
								"type": "t_string_storage"
							},
							{
								"astId": 7,
								"contract": "contracts/Parcel.sol:Parcel",
								"label": "price",
								"offset": 0,
								"slot": "2",
								"type": "t_uint256"
							},
							{
								"astId": 9,
								"contract": "contracts/Parcel.sol:Parcel",
								"label": "area",
								"offset": 0,
								"slot": "3",
								"type": "t_uint256"
							}
						],
						"numberOfBytes": "128"
					},
					"t_uint256": {
						"encoding": "inplace",
						"label": "uint256",
						"numberOfBytes": "32"
					}
				}
			},
			"userdoc": {
				"kind": "user",
				"methods": {},
				"version": 1
			}
		}
	}
}