{
	"contracts/Parcel.sol": {
		"Parcel": {
			"abi": [
				{
					"inputs": [],
					"stateMutability": "nonpayable",
					"type": "constructor"
				},
				{
					"inputs": [
						{
							"internalType": "string",
							"name": "owner_name",
							"type": "string"
						},
						{
							"internalType": "uint256",
							"name": "price",
							"type": "uint256"
						},
						{
							"internalType": "uint256",
							"name": "area",
							"type": "uint256"
						}
					],
					"name": "createParcel",
					"outputs": [],
					"stateMutability": "payable",
					"type": "function"
				},
				{
					"inputs": [
						{
							"internalType": "string",
							"name": "owner_name",
							"type": "string"
						},
						{
							"internalType": "uint256",
							"name": "price",
							"type": "uint256"
						}
					],
					"name": "mortgage",
					"outputs": [],
					"stateMutability": "payable",
					"type": "function"
				}
			],
			"devdoc": {
				"kind": "dev",
				"methods": {},
				"version": 1
			},
			"evm": {
				"assembly": "    /* \"contracts/Parcel.sol\":228:985  contract Parcel {\r... */\n  mstore(0x40, 0x80)\n    /* \"contracts/Parcel.sol\":387:438  constructor() {\r... */\n  callvalue\n  dup1\n  iszero\n  tag_1\n  jumpi\n  0x00\n  dup1\n  revert\ntag_1:\n  pop\n    /* \"contracts/Parcel.sol\":420:430  msg.sender */\n  caller\n    /* \"contracts/Parcel.sol\":412:417  owner */\n  0x00\n  dup1\n    /* \"contracts/Parcel.sol\":412:430  owner = msg.sender */\n  0x0100\n  exp\n  dup2\n  sload\n  dup2\n  0xffffffffffffffffffffffffffffffffffffffff\n  mul\n  not\n  and\n  swap1\n  dup4\n  0xffffffffffffffffffffffffffffffffffffffff\n  and\n  mul\n  or\n  swap1\n  sstore\n  pop\n    /* \"contracts/Parcel.sol\":228:985  contract Parcel {\r... */\n  dataSize(sub_0)\n  dup1\n  dataOffset(sub_0)\n  0x00\n  codecopy\n  0x00\n  return\nstop\n\nsub_0: assembly {\n        /* \"contracts/Parcel.sol\":228:985  contract Parcel {\r... */\n      mstore(0x40, 0x80)\n      jumpi(tag_1, lt(calldatasize, 0x04))\n      shr(0xe0, calldataload(0x00))\n      dup1\n      0x9cc6cd89\n      eq\n      tag_2\n      jumpi\n      dup1\n      0xbfd6843d\n      eq\n      tag_3\n      jumpi\n    tag_1:\n      0x00\n      dup1\n      revert\n        /* \"contracts/Parcel.sol\":561:792  function createParcel(string memory owner_name, uint price, uint area) public payable {\r... */\n    tag_2:\n      tag_4\n      0x04\n      dup1\n      calldatasize\n      sub\n      dup2\n      add\n      swap1\n      tag_5\n      swap2\n      swap1\n      tag_6\n      jump\t// in\n    tag_5:\n      tag_7\n      jump\t// in\n    tag_4:\n      stop\n        /* \"contracts/Parcel.sol\":800:982  function mortgage(string memory owner_name, uint price) public payable {\r... */\n    tag_3:\n      tag_8\n      0x04\n      dup1\n      calldatasize\n      sub\n      dup2\n      add\n      swap1\n      tag_9\n      swap2\n      swap1\n      tag_10\n      jump\t// in\n    tag_9:\n      tag_11\n      jump\t// in\n    tag_8:\n      stop\n        /* \"contracts/Parcel.sol\":561:792  function createParcel(string memory owner_name, uint price, uint area) public payable {\r... */\n    tag_7:\n        /* \"contracts/Parcel.sol\":690:700  owner_name */\n      dup3\n        /* \"contracts/Parcel.sol\":657:669  _parcel_land */\n      0x05\n        /* \"contracts/Parcel.sol\":657:676  _parcel_land[owner] */\n      0x00\n        /* \"contracts/Parcel.sol\":670:675  owner */\n      dup1\n      0x00\n      swap1\n      sload\n      swap1\n      0x0100\n      exp\n      swap1\n      div\n      0xffffffffffffffffffffffffffffffffffffffff\n      and\n        /* \"contracts/Parcel.sol\":657:676  _parcel_land[owner] */\n      0xffffffffffffffffffffffffffffffffffffffff\n      and\n      0xffffffffffffffffffffffffffffffffffffffff\n      and\n      dup2\n      mstore\n      0x20\n      add\n      swap1\n      dup2\n      mstore\n      0x20\n      add\n      0x00\n      keccak256\n        /* \"contracts/Parcel.sol\":657:687  _parcel_land[owner].owner_name */\n      0x01\n      add\n        /* \"contracts/Parcel.sol\":657:700  _parcel_land[owner].owner_name = owner_name */\n      swap1\n      dup1\n      mload\n      swap1\n      0x20\n      add\n      swap1\n      tag_13\n      swap3\n      swap2\n      swap1\n      tag_14\n      jump\t// in\n    tag_13:\n      pop\n        /* \"contracts/Parcel.sol\":738:743  price */\n      dup2\n        /* \"contracts/Parcel.sol\":710:722  _parcel_land */\n      0x05\n        /* \"contracts/Parcel.sol\":710:729  _parcel_land[owner] */\n      0x00\n        /* \"contracts/Parcel.sol\":723:728  owner */\n      dup1\n      0x00\n      swap1\n      sload\n      swap1\n      0x0100\n      exp\n      swap1\n      div\n      0xffffffffffffffffffffffffffffffffffffffff\n      and\n        /* \"contracts/Parcel.sol\":710:729  _parcel_land[owner] */\n      0xffffffffffffffffffffffffffffffffffffffff\n      and\n      0xffffffffffffffffffffffffffffffffffffffff\n      and\n      dup2\n      mstore\n      0x20\n      add\n      swap1\n      dup2\n      mstore\n      0x20\n      add\n      0x00\n      keccak256\n        /* \"contracts/Parcel.sol\":710:735  _parcel_land[owner].price */\n      0x02\n      add\n        /* \"contracts/Parcel.sol\":710:743  _parcel_land[owner].price = price */\n      dup2\n      swap1\n      sstore\n      pop\n        /* \"contracts/Parcel.sol\":780:784  area */\n      dup1\n        /* \"contracts/Parcel.sol\":753:765  _parcel_land */\n      0x05\n        /* \"contracts/Parcel.sol\":753:772  _parcel_land[owner] */\n      0x00\n        /* \"contracts/Parcel.sol\":766:771  owner */\n      dup1\n      0x00\n      swap1\n      sload\n      swap1\n      0x0100\n      exp\n      swap1\n      div\n      0xffffffffffffffffffffffffffffffffffffffff\n      and\n        /* \"contracts/Parcel.sol\":753:772  _parcel_land[owner] */\n      0xffffffffffffffffffffffffffffffffffffffff\n      and\n      0xffffffffffffffffffffffffffffffffffffffff\n      and\n      dup2\n      mstore\n      0x20\n      add\n      swap1\n      dup2\n      mstore\n      0x20\n      add\n      0x00\n      keccak256\n        /* \"contracts/Parcel.sol\":753:777  _parcel_land[owner].area */\n      0x03\n      add\n        /* \"contracts/Parcel.sol\":753:784  _parcel_land[owner].area = area */\n      dup2\n      swap1\n      sstore\n      pop\n        /* \"contracts/Parcel.sol\":561:792  function createParcel(string memory owner_name, uint price, uint area) public payable {\r... */\n      pop\n      pop\n      pop\n      jump\t// out\n        /* \"contracts/Parcel.sol\":800:982  function mortgage(string memory owner_name, uint price) public payable {\r... */\n    tag_11:\n        /* \"contracts/Parcel.sol\":916:926  owner_name */\n      dup2\n        /* \"contracts/Parcel.sol\":882:894  _parcel_land */\n      0x05\n        /* \"contracts/Parcel.sol\":882:901  _parcel_land[owner] */\n      0x00\n        /* \"contracts/Parcel.sol\":895:900  owner */\n      dup1\n      0x00\n      swap1\n      sload\n      swap1\n      0x0100\n      exp\n      swap1\n      div\n      0xffffffffffffffffffffffffffffffffffffffff\n      and\n        /* \"contracts/Parcel.sol\":882:901  _parcel_land[owner] */\n      0xffffffffffffffffffffffffffffffffffffffff\n      and\n      0xffffffffffffffffffffffffffffffffffffffff\n      and\n      dup2\n      mstore\n      0x20\n      add\n      swap1\n      dup2\n      mstore\n      0x20\n      add\n      0x00\n      keccak256\n        /* \"contracts/Parcel.sol\":882:913  _parcel_land[owner] .owner_name */\n      0x01\n      add\n        /* \"contracts/Parcel.sol\":882:926  _parcel_land[owner] .owner_name = owner_name */\n      swap1\n      dup1\n      mload\n      swap1\n      0x20\n      add\n      swap1\n      tag_16\n      swap3\n      swap2\n      swap1\n      tag_14\n      jump\t// in\n    tag_16:\n      pop\n        /* \"contracts/Parcel.sol\":962:972  owner_name */\n      dup2\n        /* \"contracts/Parcel.sol\":937:942  _olgt */\n      0x06\n        /* \"contracts/Parcel.sol\":937:949  _olgt[owner] */\n      0x00\n        /* \"contracts/Parcel.sol\":943:948  owner */\n      dup1\n      0x00\n      swap1\n      sload\n      swap1\n      0x0100\n      exp\n      swap1\n      div\n      0xffffffffffffffffffffffffffffffffffffffff\n      and\n        /* \"contracts/Parcel.sol\":937:949  _olgt[owner] */\n      0xffffffffffffffffffffffffffffffffffffffff\n      and\n      0xffffffffffffffffffffffffffffffffffffffff\n      and\n      dup2\n      mstore\n      0x20\n      add\n      swap1\n      dup2\n      mstore\n      0x20\n      add\n      0x00\n      keccak256\n        /* \"contracts/Parcel.sol\":937:959  _olgt[owner].olgt_name */\n      0x00\n      add\n        /* \"contracts/Parcel.sol\":937:972  _olgt[owner].olgt_name = owner_name */\n      swap1\n      dup1\n      mload\n      swap1\n      0x20\n      add\n      swap1\n      tag_17\n      swap3\n      swap2\n      swap1\n      tag_14\n      jump\t// in\n    tag_17:\n      pop\n        /* \"contracts/Parcel.sol\":800:982  function mortgage(string memory owner_name, uint price) public payable {\r... */\n      pop\n      pop\n      jump\t// out\n    tag_14:\n      dup3\n      dup1\n      sload\n      tag_18\n      swap1\n      tag_19\n      jump\t// in\n    tag_18:\n      swap1\n      0x00\n      mstore\n      keccak256(0x00, 0x20)\n      swap1\n      0x1f\n      add\n      0x20\n      swap1\n      div\n      dup2\n      add\n      swap3\n      dup3\n      tag_21\n      jumpi\n      0x00\n      dup6\n      sstore\n      jump(tag_20)\n    tag_21:\n      dup3\n      0x1f\n      lt\n      tag_22\n      jumpi\n      dup1\n      mload\n      not(0xff)\n      and\n      dup4\n      dup1\n      add\n      or\n      dup6\n      sstore\n      jump(tag_20)\n    tag_22:\n      dup3\n      dup1\n      add\n      0x01\n      add\n      dup6\n      sstore\n      dup3\n      iszero\n      tag_20\n      jumpi\n      swap2\n      dup3\n      add\n    tag_23:\n      dup3\n      dup2\n      gt\n      iszero\n      tag_24\n      jumpi\n      dup3\n      mload\n      dup3\n      sstore\n      swap2\n      0x20\n      add\n      swap2\n      swap1\n      0x01\n      add\n      swap1\n      jump(tag_23)\n    tag_24:\n    tag_20:\n      pop\n      swap1\n      pop\n      tag_25\n      swap2\n      swap1\n      tag_26\n      jump\t// in\n    tag_25:\n      pop\n      swap1\n      jump\t// out\n    tag_26:\n    tag_27:\n      dup1\n      dup3\n      gt\n      iszero\n      tag_28\n      jumpi\n      0x00\n      dup2\n      0x00\n      swap1\n      sstore\n      pop\n      0x01\n      add\n      jump(tag_27)\n    tag_28:\n      pop\n      swap1\n      jump\t// out\n        /* \"#utility.yul\":7:419   */\n    tag_30:\n        /* \"#utility.yul\":85:90   */\n      0x00\n        /* \"#utility.yul\":110:176   */\n      tag_32\n        /* \"#utility.yul\":126:175   */\n      tag_33\n        /* \"#utility.yul\":168:174   */\n      dup5\n        /* \"#utility.yul\":126:175   */\n      tag_34\n      jump\t// in\n    tag_33:\n        /* \"#utility.yul\":110:176   */\n      tag_35\n      jump\t// in\n    tag_32:\n        /* \"#utility.yul\":101:176   */\n      swap1\n      pop\n        /* \"#utility.yul\":199:205   */\n      dup3\n        /* \"#utility.yul\":192:197   */\n      dup2\n        /* \"#utility.yul\":185:206   */\n      mstore\n        /* \"#utility.yul\":237:241   */\n      0x20\n        /* \"#utility.yul\":230:235   */\n      dup2\n        /* \"#utility.yul\":226:242   */\n      add\n        /* \"#utility.yul\":275:278   */\n      dup5\n        /* \"#utility.yul\":266:272   */\n      dup5\n        /* \"#utility.yul\":261:264   */\n      dup5\n        /* \"#utility.yul\":257:273   */\n      add\n        /* \"#utility.yul\":254:279   */\n      gt\n        /* \"#utility.yul\":251:363   */\n      iszero\n      tag_36\n      jumpi\n        /* \"#utility.yul\":282:361   */\n      tag_37\n      tag_38\n      jump\t// in\n    tag_37:\n        /* \"#utility.yul\":251:363   */\n    tag_36:\n        /* \"#utility.yul\":372:413   */\n      tag_39\n        /* \"#utility.yul\":406:412   */\n      dup5\n        /* \"#utility.yul\":401:404   */\n      dup3\n        /* \"#utility.yul\":396:399   */\n      dup6\n        /* \"#utility.yul\":372:413   */\n      tag_40\n      jump\t// in\n    tag_39:\n        /* \"#utility.yul\":91:419   */\n      pop\n        /* \"#utility.yul\":7:419   */\n      swap4\n      swap3\n      pop\n      pop\n      pop\n      jump\t// out\n        /* \"#utility.yul\":439:779   */\n    tag_41:\n        /* \"#utility.yul\":495:500   */\n      0x00\n        /* \"#utility.yul\":544:547   */\n      dup3\n        /* \"#utility.yul\":537:541   */\n      0x1f\n        /* \"#utility.yul\":529:535   */\n      dup4\n        /* \"#utility.yul\":525:542   */\n      add\n        /* \"#utility.yul\":521:548   */\n      slt\n        /* \"#utility.yul\":511:633   */\n      tag_43\n      jumpi\n        /* \"#utility.yul\":552:631   */\n      tag_44\n      tag_45\n      jump\t// in\n    tag_44:\n        /* \"#utility.yul\":511:633   */\n    tag_43:\n        /* \"#utility.yul\":669:675   */\n      dup2\n        /* \"#utility.yul\":656:676   */\n      calldataload\n        /* \"#utility.yul\":694:773   */\n      tag_46\n        /* \"#utility.yul\":769:772   */\n      dup5\n        /* \"#utility.yul\":761:767   */\n      dup3\n        /* \"#utility.yul\":754:758   */\n      0x20\n        /* \"#utility.yul\":746:752   */\n      dup7\n        /* \"#utility.yul\":742:759   */\n      add\n        /* \"#utility.yul\":694:773   */\n      tag_30\n      jump\t// in\n    tag_46:\n        /* \"#utility.yul\":685:773   */\n      swap2\n      pop\n        /* \"#utility.yul\":501:779   */\n      pop\n        /* \"#utility.yul\":439:779   */\n      swap3\n      swap2\n      pop\n      pop\n      jump\t// out\n        /* \"#utility.yul\":785:924   */\n    tag_47:\n        /* \"#utility.yul\":831:836   */\n      0x00\n        /* \"#utility.yul\":869:875   */\n      dup2\n        /* \"#utility.yul\":856:876   */\n      calldataload\n        /* \"#utility.yul\":847:876   */\n      swap1\n      pop\n        /* \"#utility.yul\":885:918   */\n      tag_49\n        /* \"#utility.yul\":912:917   */\n      dup2\n        /* \"#utility.yul\":885:918   */\n      tag_50\n      jump\t// in\n    tag_49:\n        /* \"#utility.yul\":785:924   */\n      swap3\n      swap2\n      pop\n      pop\n      jump\t// out\n        /* \"#utility.yul\":930:1584   */\n    tag_10:\n        /* \"#utility.yul\":1008:1014   */\n      0x00\n        /* \"#utility.yul\":1016:1022   */\n      dup1\n        /* \"#utility.yul\":1065:1067   */\n      0x40\n        /* \"#utility.yul\":1053:1062   */\n      dup4\n        /* \"#utility.yul\":1044:1051   */\n      dup6\n        /* \"#utility.yul\":1040:1063   */\n      sub\n        /* \"#utility.yul\":1036:1068   */\n      slt\n        /* \"#utility.yul\":1033:1152   */\n      iszero\n      tag_52\n      jumpi\n        /* \"#utility.yul\":1071:1150   */\n      tag_53\n      tag_54\n      jump\t// in\n    tag_53:\n        /* \"#utility.yul\":1033:1152   */\n    tag_52:\n        /* \"#utility.yul\":1219:1220   */\n      0x00\n        /* \"#utility.yul\":1208:1217   */\n      dup4\n        /* \"#utility.yul\":1204:1221   */\n      add\n        /* \"#utility.yul\":1191:1222   */\n      calldataload\n        /* \"#utility.yul\":1249:1267   */\n      0xffffffffffffffff\n        /* \"#utility.yul\":1241:1247   */\n      dup2\n        /* \"#utility.yul\":1238:1268   */\n      gt\n        /* \"#utility.yul\":1235:1352   */\n      iszero\n      tag_55\n      jumpi\n        /* \"#utility.yul\":1271:1350   */\n      tag_56\n      tag_57\n      jump\t// in\n    tag_56:\n        /* \"#utility.yul\":1235:1352   */\n    tag_55:\n        /* \"#utility.yul\":1376:1439   */\n      tag_58\n        /* \"#utility.yul\":1431:1438   */\n      dup6\n        /* \"#utility.yul\":1422:1428   */\n      dup3\n        /* \"#utility.yul\":1411:1420   */\n      dup7\n        /* \"#utility.yul\":1407:1429   */\n      add\n        /* \"#utility.yul\":1376:1439   */\n      tag_41\n      jump\t// in\n    tag_58:\n        /* \"#utility.yul\":1366:1439   */\n      swap3\n      pop\n        /* \"#utility.yul\":1162:1449   */\n      pop\n        /* \"#utility.yul\":1488:1490   */\n      0x20\n        /* \"#utility.yul\":1514:1567   */\n      tag_59\n        /* \"#utility.yul\":1559:1566   */\n      dup6\n        /* \"#utility.yul\":1550:1556   */\n      dup3\n        /* \"#utility.yul\":1539:1548   */\n      dup7\n        /* \"#utility.yul\":1535:1557   */\n      add\n        /* \"#utility.yul\":1514:1567   */\n      tag_47\n      jump\t// in\n    tag_59:\n        /* \"#utility.yul\":1504:1567   */\n      swap2\n      pop\n        /* \"#utility.yul\":1459:1577   */\n      pop\n        /* \"#utility.yul\":930:1584   */\n      swap3\n      pop\n      swap3\n      swap1\n      pop\n      jump\t// out\n        /* \"#utility.yul\":1590:2389   */\n    tag_6:\n        /* \"#utility.yul\":1677:1683   */\n      0x00\n        /* \"#utility.yul\":1685:1691   */\n      dup1\n        /* \"#utility.yul\":1693:1699   */\n      0x00\n        /* \"#utility.yul\":1742:1744   */\n      0x60\n        /* \"#utility.yul\":1730:1739   */\n      dup5\n        /* \"#utility.yul\":1721:1728   */\n      dup7\n        /* \"#utility.yul\":1717:1740   */\n      sub\n        /* \"#utility.yul\":1713:1745   */\n      slt\n        /* \"#utility.yul\":1710:1829   */\n      iszero\n      tag_61\n      jumpi\n        /* \"#utility.yul\":1748:1827   */\n      tag_62\n      tag_54\n      jump\t// in\n    tag_62:\n        /* \"#utility.yul\":1710:1829   */\n    tag_61:\n        /* \"#utility.yul\":1896:1897   */\n      0x00\n        /* \"#utility.yul\":1885:1894   */\n      dup5\n        /* \"#utility.yul\":1881:1898   */\n      add\n        /* \"#utility.yul\":1868:1899   */\n      calldataload\n        /* \"#utility.yul\":1926:1944   */\n      0xffffffffffffffff\n        /* \"#utility.yul\":1918:1924   */\n      dup2\n        /* \"#utility.yul\":1915:1945   */\n      gt\n        /* \"#utility.yul\":1912:2029   */\n      iszero\n      tag_63\n      jumpi\n        /* \"#utility.yul\":1948:2027   */\n      tag_64\n      tag_57\n      jump\t// in\n    tag_64:\n        /* \"#utility.yul\":1912:2029   */\n    tag_63:\n        /* \"#utility.yul\":2053:2116   */\n      tag_65\n        /* \"#utility.yul\":2108:2115   */\n      dup7\n        /* \"#utility.yul\":2099:2105   */\n      dup3\n        /* \"#utility.yul\":2088:2097   */\n      dup8\n        /* \"#utility.yul\":2084:2106   */\n      add\n        /* \"#utility.yul\":2053:2116   */\n      tag_41\n      jump\t// in\n    tag_65:\n        /* \"#utility.yul\":2043:2116   */\n      swap4\n      pop\n        /* \"#utility.yul\":1839:2126   */\n      pop\n        /* \"#utility.yul\":2165:2167   */\n      0x20\n        /* \"#utility.yul\":2191:2244   */\n      tag_66\n        /* \"#utility.yul\":2236:2243   */\n      dup7\n        /* \"#utility.yul\":2227:2233   */\n      dup3\n        /* \"#utility.yul\":2216:2225   */\n      dup8\n        /* \"#utility.yul\":2212:2234   */\n      add\n        /* \"#utility.yul\":2191:2244   */\n      tag_47\n      jump\t// in\n    tag_66:\n        /* \"#utility.yul\":2181:2244   */\n      swap3\n      pop\n        /* \"#utility.yul\":2136:2254   */\n      pop\n        /* \"#utility.yul\":2293:2295   */\n      0x40\n        /* \"#utility.yul\":2319:2372   */\n      tag_67\n        /* \"#utility.yul\":2364:2371   */\n      dup7\n        /* \"#utility.yul\":2355:2361   */\n      dup3\n        /* \"#utility.yul\":2344:2353   */\n      dup8\n        /* \"#utility.yul\":2340:2362   */\n      add\n        /* \"#utility.yul\":2319:2372   */\n      tag_47\n      jump\t// in\n    tag_67:\n        /* \"#utility.yul\":2309:2372   */\n      swap2\n      pop\n        /* \"#utility.yul\":2264:2382   */\n      pop\n        /* \"#utility.yul\":1590:2389   */\n      swap3\n      pop\n      swap3\n      pop\n      swap3\n      jump\t// out\n        /* \"#utility.yul\":2395:2524   */\n    tag_35:\n        /* \"#utility.yul\":2429:2435   */\n      0x00\n        /* \"#utility.yul\":2456:2476   */\n      tag_69\n      tag_70\n      jump\t// in\n    tag_69:\n        /* \"#utility.yul\":2446:2476   */\n      swap1\n      pop\n        /* \"#utility.yul\":2485:2518   */\n      tag_71\n        /* \"#utility.yul\":2513:2517   */\n      dup3\n        /* \"#utility.yul\":2505:2511   */\n      dup3\n        /* \"#utility.yul\":2485:2518   */\n      tag_72\n      jump\t// in\n    tag_71:\n        /* \"#utility.yul\":2395:2524   */\n      swap2\n      swap1\n      pop\n      jump\t// out\n        /* \"#utility.yul\":2530:2605   */\n    tag_70:\n        /* \"#utility.yul\":2563:2569   */\n      0x00\n        /* \"#utility.yul\":2596:2598   */\n      0x40\n        /* \"#utility.yul\":2590:2599   */\n      mload\n        /* \"#utility.yul\":2580:2599   */\n      swap1\n      pop\n        /* \"#utility.yul\":2530:2605   */\n      swap1\n      jump\t// out\n        /* \"#utility.yul\":2611:2919   */\n    tag_34:\n        /* \"#utility.yul\":2673:2677   */\n      0x00\n        /* \"#utility.yul\":2763:2781   */\n      0xffffffffffffffff\n        /* \"#utility.yul\":2755:2761   */\n      dup3\n        /* \"#utility.yul\":2752:2782   */\n      gt\n        /* \"#utility.yul\":2749:2805   */\n      iszero\n      tag_75\n      jumpi\n        /* \"#utility.yul\":2785:2803   */\n      tag_76\n      tag_77\n      jump\t// in\n    tag_76:\n        /* \"#utility.yul\":2749:2805   */\n    tag_75:\n        /* \"#utility.yul\":2823:2852   */\n      tag_78\n        /* \"#utility.yul\":2845:2851   */\n      dup3\n        /* \"#utility.yul\":2823:2852   */\n      tag_79\n      jump\t// in\n    tag_78:\n        /* \"#utility.yul\":2815:2852   */\n      swap1\n      pop\n        /* \"#utility.yul\":2907:2911   */\n      0x20\n        /* \"#utility.yul\":2901:2905   */\n      dup2\n        /* \"#utility.yul\":2897:2912   */\n      add\n        /* \"#utility.yul\":2889:2912   */\n      swap1\n      pop\n        /* \"#utility.yul\":2611:2919   */\n      swap2\n      swap1\n      pop\n      jump\t// out\n        /* \"#utility.yul\":2925:3002   */\n    tag_80:\n        /* \"#utility.yul\":2962:2969   */\n      0x00\n        /* \"#utility.yul\":2991:2996   */\n      dup2\n        /* \"#utility.yul\":2980:2996   */\n      swap1\n      pop\n        /* \"#utility.yul\":2925:3002   */\n      swap2\n      swap1\n      pop\n      jump\t// out\n        /* \"#utility.yul\":3008:3162   */\n    tag_40:\n        /* \"#utility.yul\":3092:3098   */\n      dup3\n        /* \"#utility.yul\":3087:3090   */\n      dup2\n        /* \"#utility.yul\":3082:3085   */\n      dup4\n        /* \"#utility.yul\":3069:3099   */\n      calldatacopy\n        /* \"#utility.yul\":3154:3155   */\n      0x00\n        /* \"#utility.yul\":3145:3151   */\n      dup4\n        /* \"#utility.yul\":3140:3143   */\n      dup4\n        /* \"#utility.yul\":3136:3152   */\n      add\n        /* \"#utility.yul\":3129:3156   */\n      mstore\n        /* \"#utility.yul\":3008:3162   */\n      pop\n      pop\n      pop\n      jump\t// out\n        /* \"#utility.yul\":3168:3488   */\n    tag_19:\n        /* \"#utility.yul\":3212:3218   */\n      0x00\n        /* \"#utility.yul\":3249:3250   */\n      0x02\n        /* \"#utility.yul\":3243:3247   */\n      dup3\n        /* \"#utility.yul\":3239:3251   */\n      div\n        /* \"#utility.yul\":3229:3251   */\n      swap1\n      pop\n        /* \"#utility.yul\":3296:3297   */\n      0x01\n        /* \"#utility.yul\":3290:3294   */\n      dup3\n        /* \"#utility.yul\":3286:3298   */\n      and\n        /* \"#utility.yul\":3317:3335   */\n      dup1\n        /* \"#utility.yul\":3307:3388   */\n      tag_84\n      jumpi\n        /* \"#utility.yul\":3373:3377   */\n      0x7f\n        /* \"#utility.yul\":3365:3371   */\n      dup3\n        /* \"#utility.yul\":3361:3378   */\n      and\n        /* \"#utility.yul\":3351:3378   */\n      swap2\n      pop\n        /* \"#utility.yul\":3307:3388   */\n    tag_84:\n        /* \"#utility.yul\":3435:3437   */\n      0x20\n        /* \"#utility.yul\":3427:3433   */\n      dup3\n        /* \"#utility.yul\":3424:3438   */\n      lt\n        /* \"#utility.yul\":3404:3422   */\n      dup2\n        /* \"#utility.yul\":3401:3439   */\n      eq\n        /* \"#utility.yul\":3398:3482   */\n      iszero\n      tag_85\n      jumpi\n        /* \"#utility.yul\":3454:3472   */\n      tag_86\n      tag_87\n      jump\t// in\n    tag_86:\n        /* \"#utility.yul\":3398:3482   */\n    tag_85:\n        /* \"#utility.yul\":3219:3488   */\n      pop\n        /* \"#utility.yul\":3168:3488   */\n      swap2\n      swap1\n      pop\n      jump\t// out\n        /* \"#utility.yul\":3494:3775   */\n    tag_72:\n        /* \"#utility.yul\":3577:3604   */\n      tag_89\n        /* \"#utility.yul\":3599:3603   */\n      dup3\n        /* \"#utility.yul\":3577:3604   */\n      tag_79\n      jump\t// in\n    tag_89:\n        /* \"#utility.yul\":3569:3575   */\n      dup2\n        /* \"#utility.yul\":3565:3605   */\n      add\n        /* \"#utility.yul\":3707:3713   */\n      dup2\n        /* \"#utility.yul\":3695:3705   */\n      dup2\n        /* \"#utility.yul\":3692:3714   */\n      lt\n        /* \"#utility.yul\":3671:3689   */\n      0xffffffffffffffff\n        /* \"#utility.yul\":3659:3669   */\n      dup3\n        /* \"#utility.yul\":3656:3690   */\n      gt\n        /* \"#utility.yul\":3653:3715   */\n      or\n        /* \"#utility.yul\":3650:3738   */\n      iszero\n      tag_90\n      jumpi\n        /* \"#utility.yul\":3718:3736   */\n      tag_91\n      tag_77\n      jump\t// in\n    tag_91:\n        /* \"#utility.yul\":3650:3738   */\n    tag_90:\n        /* \"#utility.yul\":3758:3768   */\n      dup1\n        /* \"#utility.yul\":3754:3756   */\n      0x40\n        /* \"#utility.yul\":3747:3769   */\n      mstore\n        /* \"#utility.yul\":3537:3775   */\n      pop\n        /* \"#utility.yul\":3494:3775   */\n      pop\n      pop\n      jump\t// out\n        /* \"#utility.yul\":3781:3961   */\n    tag_87:\n        /* \"#utility.yul\":3829:3906   */\n      0x4e487b7100000000000000000000000000000000000000000000000000000000\n        /* \"#utility.yul\":3826:3827   */\n      0x00\n        /* \"#utility.yul\":3819:3907   */\n      mstore\n        /* \"#utility.yul\":3926:3930   */\n      0x22\n        /* \"#utility.yul\":3923:3924   */\n      0x04\n        /* \"#utility.yul\":3916:3931   */\n      mstore\n        /* \"#utility.yul\":3950:3954   */\n      0x24\n        /* \"#utility.yul\":3947:3948   */\n      0x00\n        /* \"#utility.yul\":3940:3955   */\n      revert\n        /* \"#utility.yul\":3967:4147   */\n    tag_77:\n        /* \"#utility.yul\":4015:4092   */\n      0x4e487b7100000000000000000000000000000000000000000000000000000000\n        /* \"#utility.yul\":4012:4013   */\n      0x00\n        /* \"#utility.yul\":4005:4093   */\n      mstore\n        /* \"#utility.yul\":4112:4116   */\n      0x41\n        /* \"#utility.yul\":4109:4110   */\n      0x04\n        /* \"#utility.yul\":4102:4117   */\n      mstore\n        /* \"#utility.yul\":4136:4140   */\n      0x24\n        /* \"#utility.yul\":4133:4134   */\n      0x00\n        /* \"#utility.yul\":4126:4141   */\n      revert\n        /* \"#utility.yul\":4153:4270   */\n    tag_45:\n        /* \"#utility.yul\":4262:4263   */\n      0x00\n        /* \"#utility.yul\":4259:4260   */\n      dup1\n        /* \"#utility.yul\":4252:4264   */\n      revert\n        /* \"#utility.yul\":4276:4393   */\n    tag_38:\n        /* \"#utility.yul\":4385:4386   */\n      0x00\n        /* \"#utility.yul\":4382:4383   */\n      dup1\n        /* \"#utility.yul\":4375:4387   */\n      revert\n        /* \"#utility.yul\":4399:4516   */\n    tag_57:\n        /* \"#utility.yul\":4508:4509   */\n      0x00\n        /* \"#utility.yul\":4505:4506   */\n      dup1\n        /* \"#utility.yul\":4498:4510   */\n      revert\n        /* \"#utility.yul\":4522:4639   */\n    tag_54:\n        /* \"#utility.yul\":4631:4632   */\n      0x00\n        /* \"#utility.yul\":4628:4629   */\n      dup1\n        /* \"#utility.yul\":4621:4633   */\n      revert\n        /* \"#utility.yul\":4645:4747   */\n    tag_79:\n        /* \"#utility.yul\":4686:4692   */\n      0x00\n        /* \"#utility.yul\":4737:4739   */\n      0x1f\n        /* \"#utility.yul\":4733:4740   */\n      not\n        /* \"#utility.yul\":4728:4730   */\n      0x1f\n        /* \"#utility.yul\":4721:4726   */\n      dup4\n        /* \"#utility.yul\":4717:4731   */\n      add\n        /* \"#utility.yul\":4713:4741   */\n      and\n        /* \"#utility.yul\":4703:4741   */\n      swap1\n      pop\n        /* \"#utility.yul\":4645:4747   */\n      swap2\n      swap1\n      pop\n      jump\t// out\n        /* \"#utility.yul\":4753:4875   */\n    tag_50:\n        /* \"#utility.yul\":4826:4850   */\n      tag_100\n        /* \"#utility.yul\":4844:4849   */\n      dup2\n        /* \"#utility.yul\":4826:4850   */\n      tag_80\n      jump\t// in\n    tag_100:\n        /* \"#utility.yul\":4819:4824   */\n      dup2\n        /* \"#utility.yul\":4816:4851   */\n      eq\n        /* \"#utility.yul\":4806:4869   */\n      tag_101\n      jumpi\n        /* \"#utility.yul\":4865:4866   */\n      0x00\n        /* \"#utility.yul\":4862:4863   */\n      dup1\n        /* \"#utility.yul\":4855:4867   */\n      revert\n        /* \"#utility.yul\":4806:4869   */\n    tag_101:\n        /* \"#utility.yul\":4753:4875   */\n      pop\n      jump\t// out\n\n    auxdata: 0xa2646970667358221220f623d8a9194a036f0ef948323484b73823eccffceab97e78236bbfb2c68d01d364736f6c63430008070033\n}\n",
				"bytecode": {
					"linkReferences": {},
					"object": "608060405234801561001057600080fd5b50336000806101000a81548173ffffffffffffffffffffffffffffffffffffffff021916908373ffffffffffffffffffffffffffffffffffffffff16021790555061063c806100606000396000f3fe6080604052600436106100295760003560e01c80639cc6cd891461002e578063bfd6843d1461004a575b600080fd5b6100486004803603810190610043919061042b565b610066565b005b610064600480360381019061005f91906103cf565b6101b3565b005b82600560008060009054906101000a900473ffffffffffffffffffffffffffffffffffffffff1673ffffffffffffffffffffffffffffffffffffffff1673ffffffffffffffffffffffffffffffffffffffff16815260200190815260200160002060010190805190602001906100dd9291906102a7565b5081600560008060009054906101000a900473ffffffffffffffffffffffffffffffffffffffff1673ffffffffffffffffffffffffffffffffffffffff1673ffffffffffffffffffffffffffffffffffffffff1681526020019081526020016000206002018190555080600560008060009054906101000a900473ffffffffffffffffffffffffffffffffffffffff1673ffffffffffffffffffffffffffffffffffffffff1673ffffffffffffffffffffffffffffffffffffffff16815260200190815260200160002060030181905550505050565b81600560008060009054906101000a900473ffffffffffffffffffffffffffffffffffffffff1673ffffffffffffffffffffffffffffffffffffffff1673ffffffffffffffffffffffffffffffffffffffff168152602001908152602001600020600101908051906020019061022a9291906102a7565b5081600660008060009054906101000a900473ffffffffffffffffffffffffffffffffffffffff1673ffffffffffffffffffffffffffffffffffffffff1673ffffffffffffffffffffffffffffffffffffffff16815260200190815260200160002060000190805190602001906102a29291906102a7565b505050565b8280546102b390610509565b90600052602060002090601f0160209004810192826102d5576000855561031c565b82601f106102ee57805160ff191683800117855561031c565b8280016001018555821561031c579182015b8281111561031b578251825591602001919060010190610300565b5b509050610329919061032d565b5090565b5b8082111561034657600081600090555060010161032e565b5090565b600061035d610358846104bf565b61049a565b905082815260208101848484011115610379576103786105cf565b5b6103848482856104fa565b509392505050565b600082601f8301126103a1576103a06105ca565b5b81356103b184826020860161034a565b91505092915050565b6000813590506103c9816105ef565b92915050565b600080604083850312156103e6576103e56105d9565b5b600083013567ffffffffffffffff811115610404576104036105d4565b5b6104108582860161038c565b9250506020610421858286016103ba565b9150509250929050565b600080600060608486031215610444576104436105d9565b5b600084013567ffffffffffffffff811115610462576104616105d4565b5b61046e8682870161038c565b935050602061047f868287016103ba565b9250506040610490868287016103ba565b9150509250925092565b60006104a46104b5565b90506104b0828261053b565b919050565b6000604051905090565b600067ffffffffffffffff8211156104da576104d961059b565b5b6104e3826105de565b9050602081019050919050565b6000819050919050565b82818337600083830152505050565b6000600282049050600182168061052157607f821691505b602082108114156105355761053461056c565b5b50919050565b610544826105de565b810181811067ffffffffffffffff821117156105635761056261059b565b5b80604052505050565b7f4e487b7100000000000000000000000000000000000000000000000000000000600052602260045260246000fd5b7f4e487b7100000000000000000000000000000000000000000000000000000000600052604160045260246000fd5b600080fd5b600080fd5b600080fd5b600080fd5b6000601f19601f8301169050919050565b6105f8816104f0565b811461060357600080fd5b5056fea2646970667358221220f623d8a9194a036f0ef948323484b73823eccffceab97e78236bbfb2c68d01d364736f6c63430008070033",
					"opcodes": "PUSH1 0x80 PUSH1 0x40 MSTORE CALLVALUE DUP1 ISZERO PUSH2 0x10 JUMPI PUSH1 0x0 DUP1 REVERT JUMPDEST POP CALLER PUSH1 0x0 DUP1 PUSH2 0x100 EXP DUP2 SLOAD DUP2 PUSH20 0xFFFFFFFFFFFFFFFFFFFFFFFFFFFFFFFFFFFFFFFF MUL NOT AND SWAP1 DUP4 PUSH20 0xFFFFFFFFFFFFFFFFFFFFFFFFFFFFFFFFFFFFFFFF AND MUL OR SWAP1 SSTORE POP PUSH2 0x63C DUP1 PUSH2 0x60 PUSH1 0x0 CODECOPY PUSH1 0x0 RETURN INVALID PUSH1 0x80 PUSH1 0x40 MSTORE PUSH1 0x4 CALLDATASIZE LT PUSH2 0x29 JUMPI PUSH1 0x0 CALLDATALOAD PUSH1 0xE0 SHR DUP1 PUSH4 0x9CC6CD89 EQ PUSH2 0x2E JUMPI DUP1 PUSH4 0xBFD6843D EQ PUSH2 0x4A JUMPI JUMPDEST PUSH1 0x0 DUP1 REVERT JUMPDEST PUSH2 0x48 PUSH1 0x4 DUP1 CALLDATASIZE SUB DUP2 ADD SWAP1 PUSH2 0x43 SWAP2 SWAP1 PUSH2 0x42B JUMP JUMPDEST PUSH2 0x66 JUMP JUMPDEST STOP JUMPDEST PUSH2 0x64 PUSH1 0x4 DUP1 CALLDATASIZE SUB DUP2 ADD SWAP1 PUSH2 0x5F SWAP2 SWAP1 PUSH2 0x3CF JUMP JUMPDEST PUSH2 0x1B3 JUMP JUMPDEST STOP JUMPDEST DUP3 PUSH1 0x5 PUSH1 0x0 DUP1 PUSH1 0x0 SWAP1 SLOAD SWAP1 PUSH2 0x100 EXP SWAP1 DIV PUSH20 0xFFFFFFFFFFFFFFFFFFFFFFFFFFFFFFFFFFFFFFFF AND PUSH20 0xFFFFFFFFFFFFFFFFFFFFFFFFFFFFFFFFFFFFFFFF AND PUSH20 0xFFFFFFFFFFFFFFFFFFFFFFFFFFFFFFFFFFFFFFFF AND DUP2 MSTORE PUSH1 0x20 ADD SWAP1 DUP2 MSTORE PUSH1 0x20 ADD PUSH1 0x0 KECCAK256 PUSH1 0x1 ADD SWAP1 DUP1 MLOAD SWAP1 PUSH1 0x20 ADD SWAP1 PUSH2 0xDD SWAP3 SWAP2 SWAP1 PUSH2 0x2A7 JUMP JUMPDEST POP DUP2 PUSH1 0x5 PUSH1 0x0 DUP1 PUSH1 0x0 SWAP1 SLOAD SWAP1 PUSH2 0x100 EXP SWAP1 DIV PUSH20 0xFFFFFFFFFFFFFFFFFFFFFFFFFFFFFFFFFFFFFFFF AND PUSH20 0xFFFFFFFFFFFFFFFFFFFFFFFFFFFFFFFFFFFFFFFF AND PUSH20 0xFFFFFFFFFFFFFFFFFFFFFFFFFFFFFFFFFFFFFFFF AND DUP2 MSTORE PUSH1 0x20 ADD SWAP1 DUP2 MSTORE PUSH1 0x20 ADD PUSH1 0x0 KECCAK256 PUSH1 0x2 ADD DUP2 SWAP1 SSTORE POP DUP1 PUSH1 0x5 PUSH1 0x0 DUP1 PUSH1 0x0 SWAP1 SLOAD SWAP1 PUSH2 0x100 EXP SWAP1 DIV PUSH20 0xFFFFFFFFFFFFFFFFFFFFFFFFFFFFFFFFFFFFFFFF AND PUSH20 0xFFFFFFFFFFFFFFFFFFFFFFFFFFFFFFFFFFFFFFFF AND PUSH20 0xFFFFFFFFFFFFFFFFFFFFFFFFFFFFFFFFFFFFFFFF AND DUP2 MSTORE PUSH1 0x20 ADD SWAP1 DUP2 MSTORE PUSH1 0x20 ADD PUSH1 0x0 KECCAK256 PUSH1 0x3 ADD DUP2 SWAP1 SSTORE POP POP POP POP JUMP JUMPDEST DUP2 PUSH1 0x5 PUSH1 0x0 DUP1 PUSH1 0x0 SWAP1 SLOAD SWAP1 PUSH2 0x100 EXP SWAP1 DIV PUSH20 0xFFFFFFFFFFFFFFFFFFFFFFFFFFFFFFFFFFFFFFFF AND PUSH20 0xFFFFFFFFFFFFFFFFFFFFFFFFFFFFFFFFFFFFFFFF AND PUSH20 0xFFFFFFFFFFFFFFFFFFFFFFFFFFFFFFFFFFFFFFFF AND DUP2 MSTORE PUSH1 0x20 ADD SWAP1 DUP2 MSTORE PUSH1 0x20 ADD PUSH1 0x0 KECCAK256 PUSH1 0x1 ADD SWAP1 DUP1 MLOAD SWAP1 PUSH1 0x20 ADD SWAP1 PUSH2 0x22A SWAP3 SWAP2 SWAP1 PUSH2 0x2A7 JUMP JUMPDEST POP DUP2 PUSH1 0x6 PUSH1 0x0 DUP1 PUSH1 0x0 SWAP1 SLOAD SWAP1 PUSH2 0x100 EXP SWAP1 DIV PUSH20 0xFFFFFFFFFFFFFFFFFFFFFFFFFFFFFFFFFFFFFFFF AND PUSH20 0xFFFFFFFFFFFFFFFFFFFFFFFFFFFFFFFFFFFFFFFF AND PUSH20 0xFFFFFFFFFFFFFFFFFFFFFFFFFFFFFFFFFFFFFFFF AND DUP2 MSTORE PUSH1 0x20 ADD SWAP1 DUP2 MSTORE PUSH1 0x20 ADD PUSH1 0x0 KECCAK256 PUSH1 0x0 ADD SWAP1 DUP1 MLOAD SWAP1 PUSH1 0x20 ADD SWAP1 PUSH2 0x2A2 SWAP3 SWAP2 SWAP1 PUSH2 0x2A7 JUMP JUMPDEST POP POP POP JUMP JUMPDEST DUP3 DUP1 SLOAD PUSH2 0x2B3 SWAP1 PUSH2 0x509 JUMP JUMPDEST SWAP1 PUSH1 0x0 MSTORE PUSH1 0x20 PUSH1 0x0 KECCAK256 SWAP1 PUSH1 0x1F ADD PUSH1 0x20 SWAP1 DIV DUP2 ADD SWAP3 DUP3 PUSH2 0x2D5 JUMPI PUSH1 0x0 DUP6 SSTORE PUSH2 0x31C JUMP JUMPDEST DUP3 PUSH1 0x1F LT PUSH2 0x2EE JUMPI DUP1 MLOAD PUSH1 0xFF NOT AND DUP4 DUP1 ADD OR DUP6 SSTORE PUSH2 0x31C JUMP JUMPDEST DUP3 DUP1 ADD PUSH1 0x1 ADD DUP6 SSTORE DUP3 ISZERO PUSH2 0x31C JUMPI SWAP2 DUP3 ADD JUMPDEST DUP3 DUP2 GT ISZERO PUSH2 0x31B JUMPI DUP3 MLOAD DUP3 SSTORE SWAP2 PUSH1 0x20 ADD SWAP2 SWAP1 PUSH1 0x1 ADD SWAP1 PUSH2 0x300 JUMP JUMPDEST JUMPDEST POP SWAP1 POP PUSH2 0x329 SWAP2 SWAP1 PUSH2 0x32D JUMP JUMPDEST POP SWAP1 JUMP JUMPDEST JUMPDEST DUP1 DUP3 GT ISZERO PUSH2 0x346 JUMPI PUSH1 0x0 DUP2 PUSH1 0x0 SWAP1 SSTORE POP PUSH1 0x1 ADD PUSH2 0x32E JUMP JUMPDEST POP SWAP1 JUMP JUMPDEST PUSH1 0x0 PUSH2 0x35D PUSH2 0x358 DUP5 PUSH2 0x4BF JUMP JUMPDEST PUSH2 0x49A JUMP JUMPDEST SWAP1 POP DUP3 DUP2 MSTORE PUSH1 0x20 DUP2 ADD DUP5 DUP5 DUP5 ADD GT ISZERO PUSH2 0x379 JUMPI PUSH2 0x378 PUSH2 0x5CF JUMP JUMPDEST JUMPDEST PUSH2 0x384 DUP5 DUP3 DUP6 PUSH2 0x4FA JUMP JUMPDEST POP SWAP4 SWAP3 POP POP POP JUMP JUMPDEST PUSH1 0x0 DUP3 PUSH1 0x1F DUP4 ADD SLT PUSH2 0x3A1 JUMPI PUSH2 0x3A0 PUSH2 0x5CA JUMP JUMPDEST JUMPDEST DUP2 CALLDATALOAD PUSH2 0x3B1 DUP5 DUP3 PUSH1 0x20 DUP7 ADD PUSH2 0x34A JUMP JUMPDEST SWAP2 POP POP SWAP3 SWAP2 POP POP JUMP JUMPDEST PUSH1 0x0 DUP2 CALLDATALOAD SWAP1 POP PUSH2 0x3C9 DUP2 PUSH2 0x5EF JUMP JUMPDEST SWAP3 SWAP2 POP POP JUMP JUMPDEST PUSH1 0x0 DUP1 PUSH1 0x40 DUP4 DUP6 SUB SLT ISZERO PUSH2 0x3E6 JUMPI PUSH2 0x3E5 PUSH2 0x5D9 JUMP JUMPDEST JUMPDEST PUSH1 0x0 DUP4 ADD CALLDATALOAD PUSH8 0xFFFFFFFFFFFFFFFF DUP2 GT ISZERO PUSH2 0x404 JUMPI PUSH2 0x403 PUSH2 0x5D4 JUMP JUMPDEST JUMPDEST PUSH2 0x410 DUP6 DUP3 DUP7 ADD PUSH2 0x38C JUMP JUMPDEST SWAP3 POP POP PUSH1 0x20 PUSH2 0x421 DUP6 DUP3 DUP7 ADD PUSH2 0x3BA JUMP JUMPDEST SWAP2 POP POP SWAP3 POP SWAP3 SWAP1 POP JUMP JUMPDEST PUSH1 0x0 DUP1 PUSH1 0x0 PUSH1 0x60 DUP5 DUP7 SUB SLT ISZERO PUSH2 0x444 JUMPI PUSH2 0x443 PUSH2 0x5D9 JUMP JUMPDEST JUMPDEST PUSH1 0x0 DUP5 ADD CALLDATALOAD PUSH8 0xFFFFFFFFFFFFFFFF DUP2 GT ISZERO PUSH2 0x462 JUMPI PUSH2 0x461 PUSH2 0x5D4 JUMP JUMPDEST JUMPDEST PUSH2 0x46E DUP7 DUP3 DUP8 ADD PUSH2 0x38C JUMP JUMPDEST SWAP4 POP POP PUSH1 0x20 PUSH2 0x47F DUP7 DUP3 DUP8 ADD PUSH2 0x3BA JUMP JUMPDEST SWAP3 POP POP PUSH1 0x40 PUSH2 0x490 DUP7 DUP3 DUP8 ADD PUSH2 0x3BA JUMP JUMPDEST SWAP2 POP POP SWAP3 POP SWAP3 POP SWAP3 JUMP JUMPDEST PUSH1 0x0 PUSH2 0x4A4 PUSH2 0x4B5 JUMP JUMPDEST SWAP1 POP PUSH2 0x4B0 DUP3 DUP3 PUSH2 0x53B JUMP JUMPDEST SWAP2 SWAP1 POP JUMP JUMPDEST PUSH1 0x0 PUSH1 0x40 MLOAD SWAP1 POP SWAP1 JUMP JUMPDEST PUSH1 0x0 PUSH8 0xFFFFFFFFFFFFFFFF DUP3 GT ISZERO PUSH2 0x4DA JUMPI PUSH2 0x4D9 PUSH2 0x59B JUMP JUMPDEST JUMPDEST PUSH2 0x4E3 DUP3 PUSH2 0x5DE JUMP JUMPDEST SWAP1 POP PUSH1 0x20 DUP2 ADD SWAP1 POP SWAP2 SWAP1 POP JUMP JUMPDEST PUSH1 0x0 DUP2 SWAP1 POP SWAP2 SWAP1 POP JUMP JUMPDEST DUP3 DUP2 DUP4 CALLDATACOPY PUSH1 0x0 DUP4 DUP4 ADD MSTORE POP POP POP JUMP JUMPDEST PUSH1 0x0 PUSH1 0x2 DUP3 DIV SWAP1 POP PUSH1 0x1 DUP3 AND DUP1 PUSH2 0x521 JUMPI PUSH1 0x7F DUP3 AND SWAP2 POP JUMPDEST PUSH1 0x20 DUP3 LT DUP2 EQ ISZERO PUSH2 0x535 JUMPI PUSH2 0x534 PUSH2 0x56C JUMP JUMPDEST JUMPDEST POP SWAP2 SWAP1 POP JUMP JUMPDEST PUSH2 0x544 DUP3 PUSH2 0x5DE JUMP JUMPDEST DUP2 ADD DUP2 DUP2 LT PUSH8 0xFFFFFFFFFFFFFFFF DUP3 GT OR ISZERO PUSH2 0x563 JUMPI PUSH2 0x562 PUSH2 0x59B JUMP JUMPDEST JUMPDEST DUP1 PUSH1 0x40 MSTORE POP POP POP JUMP JUMPDEST PUSH32 0x4E487B7100000000000000000000000000000000000000000000000000000000 PUSH1 0x0 MSTORE PUSH1 0x22 PUSH1 0x4 MSTORE PUSH1 0x24 PUSH1 0x0 REVERT JUMPDEST PUSH32 0x4E487B7100000000000000000000000000000000000000000000000000000000 PUSH1 0x0 MSTORE PUSH1 0x41 PUSH1 0x4 MSTORE PUSH1 0x24 PUSH1 0x0 REVERT JUMPDEST PUSH1 0x0 DUP1 REVERT JUMPDEST PUSH1 0x0 DUP1 REVERT JUMPDEST PUSH1 0x0 DUP1 REVERT JUMPDEST PUSH1 0x0 DUP1 REVERT JUMPDEST PUSH1 0x0 PUSH1 0x1F NOT PUSH1 0x1F DUP4 ADD AND SWAP1 POP SWAP2 SWAP1 POP JUMP JUMPDEST PUSH2 0x5F8 DUP2 PUSH2 0x4F0 JUMP JUMPDEST DUP2 EQ PUSH2 0x603 JUMPI PUSH1 0x0 DUP1 REVERT JUMPDEST POP JUMP INVALID LOG2 PUSH5 0x6970667358 0x22 SLT KECCAK256 0xF6 0x23 0xD8 0xA9 NOT 0x4A SUB PUSH16 0xEF948323484B73823ECCFFCEAB97E78 0x23 PUSH12 0xBFB2C68D01D364736F6C6343 STOP ADDMOD SMOD STOP CALLER "
				},
				"gasEstimates": {
					"creation": {
						"codeDepositCost": "319200",
						"executionCost": "24621",
						"totalCost": "343821"
					},
					"external": {
						"createParcel(string,uint256,uint256)": "infinite",
						"mortgage(string,uint256)": "infinite"
					}
				},
				"methodIdentifiers": {
					"createParcel(string,uint256,uint256)": "9cc6cd89",
					"mortgage(string,uint256)": "bfd6843d"
				}
			},
			"storageLayout": {
				"storage": [
					{
						"astId": 17,
						"contract": "contracts/Parcel.sol:Parcel",
						"label": "owner",
						"offset": 0,
						"slot": "0",
						"type": "t_address"
					},
					{
						"astId": 20,
						"contract": "contracts/Parcel.sol:Parcel",
						"label": "parcel_land",
						"offset": 0,
						"slot": "1",
						"type": "t_struct(Parcel_land)10_storage"
					},
					{
						"astId": 25,
						"contract": "contracts/Parcel.sol:Parcel",
						"label": "_parcel_land",
						"offset": 0,
						"slot": "5",
						"type": "t_mapping(t_address,t_struct(Parcel_land)10_storage)"
					},
					{
						"astId": 30,
						"contract": "contracts/Parcel.sol:Parcel",
						"label": "_olgt",
						"offset": 0,
						"slot": "6",
						"type": "t_mapping(t_address,t_struct(Olgt)15_storage)"
					}
				],
				"types": {
					"t_address": {
						"encoding": "inplace",
						"label": "address",
						"numberOfBytes": "20"
					},
					"t_mapping(t_address,t_struct(Olgt)15_storage)": {
						"encoding": "mapping",
						"key": "t_address",
						"label": "mapping(address => struct Olgt)",
						"numberOfBytes": "32",
						"value": "t_struct(Olgt)15_storage"
					},
					"t_mapping(t_address,t_struct(Parcel_land)10_storage)": {
						"encoding": "mapping",
						"key": "t_address",
						"label": "mapping(address => struct Parcel_land)",
						"numberOfBytes": "32",
						"value": "t_struct(Parcel_land)10_storage"
					},
					"t_string_storage": {
						"encoding": "bytes",
						"label": "string",
						"numberOfBytes": "32"
					},
					"t_struct(Olgt)15_storage": {
						"encoding": "inplace",
						"label": "struct Olgt",
						"members": [
							{
								"astId": 12,
								"contract": "contracts/Parcel.sol:Parcel",
								"label": "olgt_name",
								"offset": 0,
								"slot": "0",
								"type": "t_string_storage"
							},
							{
								"astId": 14,
								"contract": "contracts/Parcel.sol:Parcel",
								"label": "olgt_price",
								"offset": 0,
								"slot": "1",
								"type": "t_uint256"
							}
						],
						"numberOfBytes": "64"
					},
					"t_struct(Parcel_land)10_storage": {
						"encoding": "inplace",
						"label": "struct Parcel_land",
						"members": [
							{
								"astId": 3,
								"contract": "contracts/Parcel.sol:Parcel",
								"label": "parcel_no",
								"offset": 0,
								"slot": "0",
								"type": "t_uint256"
							},
							{
								"astId": 5,
								"contract": "contracts/Parcel.sol:Parcel",
								"label": "owner_name",
								"offset": 0,
								"slot": "1",
								"type": "t_string_storage"
							},
							{
								"astId": 7,
								"contract": "contracts/Parcel.sol:Parcel",
								"label": "price",
								"offset": 0,
								"slot": "2",
								"type": "t_uint256"
							},
							{
								"astId": 9,
								"contract": "contracts/Parcel.sol:Parcel",
								"label": "area",
								"offset": 0,
								"slot": "3",
								"type": "t_uint256"
							}
						],
						"numberOfBytes": "128"
					},
					"t_uint256": {
						"encoding": "inplace",
						"label": "uint256",
						"numberOfBytes": "32"
					}
				}
			},
			"userdoc": {
				"kind": "user",
				"methods": {},
				"version": 1
			}
		}
	}
}