{
	"contracts/Parcel.sol": {
		"Parcel": {
			"abi": [
				{
					"inputs": [],
					"stateMutability": "nonpayable",
					"type": "constructor"
				},
				{
					"inputs": [
						{
							"internalType": "address",
							"name": "owner",
							"type": "address"
						},
						{
							"internalType": "uint256",
							"name": "parcel_no",
							"type": "uint256"
						},
						{
							"internalType": "string",
							"name": "owner_name",
							"type": "string"
						},
						{
							"internalType": "uint256",
							"name": "price",
							"type": "uint256"
						},
						{
							"internalType": "uint256",
							"name": "area",
							"type": "uint256"
						}
					],
					"name": "createParcel",
					"outputs": [],
					"stateMutability": "payable",
					"type": "function"
				},
				{
					"inputs": [
						{
							"internalType": "address payable",
							"name": "bank",
							"type": "address"
						}
					],
					"name": "deposit",
					"outputs": [],
					"stateMutability": "payable",
					"type": "function"
				},
				{
					"inputs": [
						{
							"internalType": "address",
							"name": "owner",
							"type": "address"
						}
					],
					"name": "getOlgt",
					"outputs": [
						{
							"components": [
								{
									"internalType": "uint256",
									"name": "parcel_no",
									"type": "uint256"
								},
								{
									"internalType": "string",
									"name": "olgt_name",
									"type": "string"
								},
								{
									"internalType": "uint256",
									"name": "olgt_price",
									"type": "uint256"
								}
							],
							"internalType": "struct OlgtBank",
							"name": "olgt",
							"type": "tuple"
						}
					],
					"stateMutability": "view",
					"type": "function"
				},
				{
					"inputs": [
						{
							"internalType": "address",
							"name": "owner",
							"type": "address"
						}
					],
					"name": "getParcel",
					"outputs": [
						{
							"components": [
								{
									"internalType": "uint256",
									"name": "parcel_no",
									"type": "uint256"
								},
								{
									"internalType": "string",
									"name": "owner_name",
									"type": "string"
								},
								{
									"internalType": "uint256",
									"name": "price",
									"type": "uint256"
								},
								{
									"internalType": "uint256",
									"name": "area",
									"type": "uint256"
								}
							],
							"internalType": "struct Parcel_land",
							"name": "parcel_land",
							"type": "tuple"
						}
					],
					"stateMutability": "view",
					"type": "function"
				},
				{
					"inputs": [
						{
							"internalType": "address",
							"name": "owner",
							"type": "address"
						},
						{
							"internalType": "address",
							"name": "bank",
							"type": "address"
						},
						{
							"internalType": "uint256",
							"name": "parcel_no",
							"type": "uint256"
						},
						{
							"internalType": "string",
							"name": "owner_name",
							"type": "string"
						},
						{
							"internalType": "uint256",
							"name": "price",
							"type": "uint256"
						}
					],
					"name": "mortgage",
					"outputs": [],
					"stateMutability": "payable",
					"type": "function"
				},
				{
					"inputs": [
						{
							"internalType": "address",
							"name": "owner",
							"type": "address"
						},
						{
							"internalType": "string",
							"name": "owner_name",
							"type": "string"
						},
						{
							"internalType": "uint256",
							"name": "price",
							"type": "uint256"
						}
					],
					"name": "redeem",
					"outputs": [],
					"stateMutability": "nonpayable",
					"type": "function"
				}
			],
			"devdoc": {
				"kind": "dev",
				"methods": {},
				"version": 1
			},
			"evm": {
				"assembly": "    /* \"contracts/Parcel.sol\":317:2779  contract Parcel {\r... */\n  mstore(0x40, 0x80)\n    /* \"contracts/Parcel.sol\":533:584  constructor() {\r... */\n  callvalue\n  dup1\n  iszero\n  tag_1\n  jumpi\n  0x00\n  dup1\n  revert\ntag_1:\n  pop\n    /* \"contracts/Parcel.sol\":566:576  msg.sender */\n  caller\n    /* \"contracts/Parcel.sol\":558:563  staff */\n  0x00\n  dup1\n    /* \"contracts/Parcel.sol\":558:576  staff = msg.sender */\n  0x0100\n  exp\n  dup2\n  sload\n  dup2\n  0xffffffffffffffffffffffffffffffffffffffff\n  mul\n  not\n  and\n  swap1\n  dup4\n  0xffffffffffffffffffffffffffffffffffffffff\n  and\n  mul\n  or\n  swap1\n  sstore\n  pop\n    /* \"contracts/Parcel.sol\":317:2779  contract Parcel {\r... */\n  dataSize(sub_0)\n  dup1\n  dataOffset(sub_0)\n  0x00\n  codecopy\n  0x00\n  return\nstop\n\nsub_0: assembly {\n        /* \"contracts/Parcel.sol\":317:2779  contract Parcel {\r... */\n      mstore(0x40, 0x80)\n      jumpi(tag_1, lt(calldatasize, 0x04))\n      shr(0xe0, calldataload(0x00))\n      dup1\n      0x198e86c6\n      eq\n      tag_2\n      jumpi\n      dup1\n      0x215271cb\n      eq\n      tag_3\n      jumpi\n      dup1\n      0x868571ef\n      eq\n      tag_4\n      jumpi\n      dup1\n      0x8f1e4afa\n      eq\n      tag_5\n      jumpi\n      dup1\n      0x935656c2\n      eq\n      tag_6\n      jumpi\n      dup1\n      0xf340fa01\n      eq\n      tag_7\n      jumpi\n    tag_1:\n      0x00\n      dup1\n      revert\n        /* \"contracts/Parcel.sol\":1120:1260  function getParcel(address owner) isStaff public view returns (Parcel_land memory parcel_land) {\r... */\n    tag_2:\n      callvalue\n      dup1\n      iszero\n      tag_8\n      jumpi\n      0x00\n      dup1\n      revert\n    tag_8:\n      pop\n      tag_9\n      0x04\n      dup1\n      calldatasize\n      sub\n      dup2\n      add\n      swap1\n      tag_10\n      swap2\n      swap1\n      tag_11\n      jump\t// in\n    tag_10:\n      tag_12\n      jump\t// in\n    tag_9:\n      mload(0x40)\n      tag_13\n      swap2\n      swap1\n      tag_14\n      jump\t// in\n    tag_13:\n      mload(0x40)\n      dup1\n      swap2\n      sub\n      swap1\n      return\n        /* \"contracts/Parcel.sol\":1268:1394  function getOlgt(address owner) isStaff public view returns (OlgtBank memory olgt) {\r... */\n    tag_3:\n      callvalue\n      dup1\n      iszero\n      tag_15\n      jumpi\n      0x00\n      dup1\n      revert\n    tag_15:\n      pop\n      tag_16\n      0x04\n      dup1\n      calldatasize\n      sub\n      dup2\n      add\n      swap1\n      tag_17\n      swap2\n      swap1\n      tag_11\n      jump\t// in\n    tag_17:\n      tag_18\n      jump\t// in\n    tag_16:\n      mload(0x40)\n      tag_19\n      swap2\n      swap1\n      tag_20\n      jump\t// in\n    tag_19:\n      mload(0x40)\n      dup1\n      swap2\n      sub\n      swap1\n      return\n        /* \"contracts/Parcel.sol\":2409:2774  function redeem(address owner, string memory owner_name, uint price) isStaff public  {\r... */\n    tag_4:\n      callvalue\n      dup1\n      iszero\n      tag_21\n      jumpi\n      0x00\n      dup1\n      revert\n    tag_21:\n      pop\n      tag_22\n      0x04\n      dup1\n      calldatasize\n      sub\n      dup2\n      add\n      swap1\n      tag_23\n      swap2\n      swap1\n      tag_24\n      jump\t// in\n    tag_23:\n      tag_25\n      jump\t// in\n    tag_22:\n      stop\n        /* \"contracts/Parcel.sol\":1818:2243  function mortgage(address owner, address bank, uint parcel_no, string memory owner_name, uint price) isStaff public payable  {\r... */\n    tag_5:\n      tag_26\n      0x04\n      dup1\n      calldatasize\n      sub\n      dup2\n      add\n      swap1\n      tag_27\n      swap2\n      swap1\n      tag_28\n      jump\t// in\n    tag_27:\n      tag_29\n      jump\t// in\n    tag_26:\n      stop\n        /* \"contracts/Parcel.sol\":791:1112  function createParcel(address owner, uint parcel_no, string memory owner_name, uint price, uint area) isStaff public payable {\r... */\n    tag_6:\n      tag_30\n      0x04\n      dup1\n      calldatasize\n      sub\n      dup2\n      add\n      swap1\n      tag_31\n      swap2\n      swap1\n      tag_32\n      jump\t// in\n    tag_31:\n      tag_33\n      jump\t// in\n    tag_30:\n      stop\n        /* \"contracts/Parcel.sol\":1528:1685  function deposit(address payable bank)  public payable  {\r... */\n    tag_7:\n      tag_34\n      0x04\n      dup1\n      calldatasize\n      sub\n      dup2\n      add\n      swap1\n      tag_35\n      swap2\n      swap1\n      tag_36\n      jump\t// in\n    tag_35:\n      tag_37\n      jump\t// in\n    tag_34:\n      stop\n        /* \"contracts/Parcel.sol\":1120:1260  function getParcel(address owner) isStaff public view returns (Parcel_land memory parcel_land) {\r... */\n    tag_12:\n        /* \"contracts/Parcel.sol\":1183:1213  Parcel_land memory parcel_land */\n      tag_38\n      tag_39\n      jump\t// in\n    tag_38:\n        /* \"contracts/Parcel.sol\":642:647  staff */\n      0x00\n      dup1\n      sload\n      swap1\n      0x0100\n      exp\n      swap1\n      div\n      0xffffffffffffffffffffffffffffffffffffffff\n      and\n        /* \"contracts/Parcel.sol\":628:647  msg.sender == staff */\n      0xffffffffffffffffffffffffffffffffffffffff\n      and\n        /* \"contracts/Parcel.sol\":628:638  msg.sender */\n      caller\n        /* \"contracts/Parcel.sol\":628:647  msg.sender == staff */\n      0xffffffffffffffffffffffffffffffffffffffff\n      and\n      eq\n        /* \"contracts/Parcel.sol\":620:681  require(msg.sender == staff, \"You are not landoffice staff.\") */\n      tag_41\n      jumpi\n      mload(0x40)\n      0x08c379a000000000000000000000000000000000000000000000000000000000\n      dup2\n      mstore\n      0x04\n      add\n      tag_42\n      swap1\n      tag_43\n      jump\t// in\n    tag_42:\n      mload(0x40)\n      dup1\n      swap2\n      sub\n      swap1\n      revert\n    tag_41:\n        /* \"contracts/Parcel.sol\":1233:1245  _parcel_land */\n      0x01\n        /* \"contracts/Parcel.sol\":1233:1252  _parcel_land[owner] */\n      0x00\n        /* \"contracts/Parcel.sol\":1246:1251  owner */\n      dup4\n        /* \"contracts/Parcel.sol\":1233:1252  _parcel_land[owner] */\n      0xffffffffffffffffffffffffffffffffffffffff\n      and\n      0xffffffffffffffffffffffffffffffffffffffff\n      and\n      dup2\n      mstore\n      0x20\n      add\n      swap1\n      dup2\n      mstore\n      0x20\n      add\n      0x00\n      keccak256\n        /* \"contracts/Parcel.sol\":1226:1252  return _parcel_land[owner] */\n      mload(0x40)\n      dup1\n      0x80\n      add\n      0x40\n      mstore\n      swap1\n      dup2\n      0x00\n      dup3\n      add\n      sload\n      dup2\n      mstore\n      0x20\n      add\n      0x01\n      dup3\n      add\n      dup1\n      sload\n      tag_45\n      swap1\n      tag_46\n      jump\t// in\n    tag_45:\n      dup1\n      0x1f\n      add\n      0x20\n      dup1\n      swap2\n      div\n      mul\n      0x20\n      add\n      mload(0x40)\n      swap1\n      dup2\n      add\n      0x40\n      mstore\n      dup1\n      swap3\n      swap2\n      swap1\n      dup2\n      dup2\n      mstore\n      0x20\n      add\n      dup3\n      dup1\n      sload\n      tag_47\n      swap1\n      tag_46\n      jump\t// in\n    tag_47:\n      dup1\n      iszero\n      tag_48\n      jumpi\n      dup1\n      0x1f\n      lt\n      tag_49\n      jumpi\n      0x0100\n      dup1\n      dup4\n      sload\n      div\n      mul\n      dup4\n      mstore\n      swap2\n      0x20\n      add\n      swap2\n      jump(tag_48)\n    tag_49:\n      dup3\n      add\n      swap2\n      swap1\n      0x00\n      mstore\n      keccak256(0x00, 0x20)\n      swap1\n    tag_50:\n      dup2\n      sload\n      dup2\n      mstore\n      swap1\n      0x01\n      add\n      swap1\n      0x20\n      add\n      dup1\n      dup4\n      gt\n      tag_50\n      jumpi\n      dup3\n      swap1\n      sub\n      0x1f\n      and\n      dup3\n      add\n      swap2\n    tag_48:\n      pop\n      pop\n      pop\n      pop\n      pop\n      dup2\n      mstore\n      0x20\n      add\n      0x02\n      dup3\n      add\n      sload\n      dup2\n      mstore\n      0x20\n      add\n      0x03\n      dup3\n      add\n      sload\n      dup2\n      mstore\n      pop\n      pop\n      swap1\n      pop\n        /* \"contracts/Parcel.sol\":1120:1260  function getParcel(address owner) isStaff public view returns (Parcel_land memory parcel_land) {\r... */\n      swap2\n      swap1\n      pop\n      jump\t// out\n        /* \"contracts/Parcel.sol\":1268:1394  function getOlgt(address owner) isStaff public view returns (OlgtBank memory olgt) {\r... */\n    tag_18:\n        /* \"contracts/Parcel.sol\":1329:1349  OlgtBank memory olgt */\n      tag_51\n      tag_52\n      jump\t// in\n    tag_51:\n        /* \"contracts/Parcel.sol\":642:647  staff */\n      0x00\n      dup1\n      sload\n      swap1\n      0x0100\n      exp\n      swap1\n      div\n      0xffffffffffffffffffffffffffffffffffffffff\n      and\n        /* \"contracts/Parcel.sol\":628:647  msg.sender == staff */\n      0xffffffffffffffffffffffffffffffffffffffff\n      and\n        /* \"contracts/Parcel.sol\":628:638  msg.sender */\n      caller\n        /* \"contracts/Parcel.sol\":628:647  msg.sender == staff */\n      0xffffffffffffffffffffffffffffffffffffffff\n      and\n      eq\n        /* \"contracts/Parcel.sol\":620:681  require(msg.sender == staff, \"You are not landoffice staff.\") */\n      tag_54\n      jumpi\n      mload(0x40)\n      0x08c379a000000000000000000000000000000000000000000000000000000000\n      dup2\n      mstore\n      0x04\n      add\n      tag_55\n      swap1\n      tag_43\n      jump\t// in\n    tag_55:\n      mload(0x40)\n      dup1\n      swap2\n      sub\n      swap1\n      revert\n    tag_54:\n        /* \"contracts/Parcel.sol\":1369:1379  _olgt_bank */\n      0x02\n        /* \"contracts/Parcel.sol\":1369:1386  _olgt_bank[owner] */\n      0x00\n        /* \"contracts/Parcel.sol\":1380:1385  owner */\n      dup4\n        /* \"contracts/Parcel.sol\":1369:1386  _olgt_bank[owner] */\n      0xffffffffffffffffffffffffffffffffffffffff\n      and\n      0xffffffffffffffffffffffffffffffffffffffff\n      and\n      dup2\n      mstore\n      0x20\n      add\n      swap1\n      dup2\n      mstore\n      0x20\n      add\n      0x00\n      keccak256\n        /* \"contracts/Parcel.sol\":1362:1386  return _olgt_bank[owner] */\n      mload(0x40)\n      dup1\n      0x60\n      add\n      0x40\n      mstore\n      swap1\n      dup2\n      0x00\n      dup3\n      add\n      sload\n      dup2\n      mstore\n      0x20\n      add\n      0x01\n      dup3\n      add\n      dup1\n      sload\n      tag_57\n      swap1\n      tag_46\n      jump\t// in\n    tag_57:\n      dup1\n      0x1f\n      add\n      0x20\n      dup1\n      swap2\n      div\n      mul\n      0x20\n      add\n      mload(0x40)\n      swap1\n      dup2\n      add\n      0x40\n      mstore\n      dup1\n      swap3\n      swap2\n      swap1\n      dup2\n      dup2\n      mstore\n      0x20\n      add\n      dup3\n      dup1\n      sload\n      tag_58\n      swap1\n      tag_46\n      jump\t// in\n    tag_58:\n      dup1\n      iszero\n      tag_59\n      jumpi\n      dup1\n      0x1f\n      lt\n      tag_60\n      jumpi\n      0x0100\n      dup1\n      dup4\n      sload\n      div\n      mul\n      dup4\n      mstore\n      swap2\n      0x20\n      add\n      swap2\n      jump(tag_59)\n    tag_60:\n      dup3\n      add\n      swap2\n      swap1\n      0x00\n      mstore\n      keccak256(0x00, 0x20)\n      swap1\n    tag_61:\n      dup2\n      sload\n      dup2\n      mstore\n      swap1\n      0x01\n      add\n      swap1\n      0x20\n      add\n      dup1\n      dup4\n      gt\n      tag_61\n      jumpi\n      dup3\n      swap1\n      sub\n      0x1f\n      and\n      dup3\n      add\n      swap2\n    tag_59:\n      pop\n      pop\n      pop\n      pop\n      pop\n      dup2\n      mstore\n      0x20\n      add\n      0x02\n      dup3\n      add\n      sload\n      dup2\n      mstore\n      pop\n      pop\n      swap1\n      pop\n        /* \"contracts/Parcel.sol\":1268:1394  function getOlgt(address owner) isStaff public view returns (OlgtBank memory olgt) {\r... */\n      swap2\n      swap1\n      pop\n      jump\t// out\n        /* \"contracts/Parcel.sol\":2409:2774  function redeem(address owner, string memory owner_name, uint price) isStaff public  {\r... */\n    tag_25:\n        /* \"contracts/Parcel.sol\":642:647  staff */\n      0x00\n      dup1\n      sload\n      swap1\n      0x0100\n      exp\n      swap1\n      div\n      0xffffffffffffffffffffffffffffffffffffffff\n      and\n        /* \"contracts/Parcel.sol\":628:647  msg.sender == staff */\n      0xffffffffffffffffffffffffffffffffffffffff\n      and\n        /* \"contracts/Parcel.sol\":628:638  msg.sender */\n      caller\n        /* \"contracts/Parcel.sol\":628:647  msg.sender == staff */\n      0xffffffffffffffffffffffffffffffffffffffff\n      and\n      eq\n        /* \"contracts/Parcel.sol\":620:681  require(msg.sender == staff, \"You are not landoffice staff.\") */\n      tag_63\n      jumpi\n      mload(0x40)\n      0x08c379a000000000000000000000000000000000000000000000000000000000\n      dup2\n      mstore\n      0x04\n      add\n      tag_64\n      swap1\n      tag_43\n      jump\t// in\n    tag_64:\n      mload(0x40)\n      dup1\n      swap2\n      sub\n      swap1\n      revert\n    tag_63:\n        /* \"contracts/Parcel.sol\":2545:2550  price */\n      dup1\n        /* \"contracts/Parcel.sol\":2513:2523  _olgt_bank */\n      0x02\n        /* \"contracts/Parcel.sol\":2513:2530  _olgt_bank[owner] */\n      0x00\n        /* \"contracts/Parcel.sol\":2524:2529  owner */\n      dup6\n        /* \"contracts/Parcel.sol\":2513:2530  _olgt_bank[owner] */\n      0xffffffffffffffffffffffffffffffffffffffff\n      and\n      0xffffffffffffffffffffffffffffffffffffffff\n      and\n      dup2\n      mstore\n      0x20\n      add\n      swap1\n      dup2\n      mstore\n      0x20\n      add\n      0x00\n      keccak256\n        /* \"contracts/Parcel.sol\":2513:2541  _olgt_bank[owner].olgt_price */\n      0x02\n      add\n      sload\n        /* \"contracts/Parcel.sol\":2513:2550  _olgt_bank[owner].olgt_price >= price */\n      lt\n      iszero\n        /* \"contracts/Parcel.sol\":2505:2584  require(_olgt_bank[owner].olgt_price >= price, \"Insufficient fund for redeem.\") */\n      tag_66\n      jumpi\n      mload(0x40)\n      0x08c379a000000000000000000000000000000000000000000000000000000000\n      dup2\n      mstore\n      0x04\n      add\n      tag_67\n      swap1\n      tag_68\n      jump\t// in\n    tag_67:\n      mload(0x40)\n      dup1\n      swap2\n      sub\n      swap1\n      revert\n    tag_66:\n        /* \"contracts/Parcel.sol\":2628:2638  owner_name */\n      dup2\n        /* \"contracts/Parcel.sol\":2595:2607  _parcel_land */\n      0x01\n        /* \"contracts/Parcel.sol\":2595:2614  _parcel_land[owner] */\n      0x00\n        /* \"contracts/Parcel.sol\":2608:2613  owner */\n      dup6\n        /* \"contracts/Parcel.sol\":2595:2614  _parcel_land[owner] */\n      0xffffffffffffffffffffffffffffffffffffffff\n      and\n      0xffffffffffffffffffffffffffffffffffffffff\n      and\n      dup2\n      mstore\n      0x20\n      add\n      swap1\n      dup2\n      mstore\n      0x20\n      add\n      0x00\n      keccak256\n        /* \"contracts/Parcel.sol\":2595:2625  _parcel_land[owner].owner_name */\n      0x01\n      add\n        /* \"contracts/Parcel.sol\":2595:2638  _parcel_land[owner].owner_name = owner_name */\n      swap1\n      dup1\n      mload\n      swap1\n      0x20\n      add\n      swap1\n      tag_69\n      swap3\n      swap2\n      swap1\n      tag_70\n      jump\t// in\n    tag_69:\n      pop\n        /* \"contracts/Parcel.sol\":2679:2680  0 */\n      0x00\n        /* \"contracts/Parcel.sol\":2649:2659  _olgt_bank */\n      0x02\n        /* \"contracts/Parcel.sol\":2649:2666  _olgt_bank[owner] */\n      0x00\n        /* \"contracts/Parcel.sol\":2660:2665  owner */\n      dup6\n        /* \"contracts/Parcel.sol\":2649:2666  _olgt_bank[owner] */\n      0xffffffffffffffffffffffffffffffffffffffff\n      and\n      0xffffffffffffffffffffffffffffffffffffffff\n      and\n      dup2\n      mstore\n      0x20\n      add\n      swap1\n      dup2\n      mstore\n      0x20\n      add\n      0x00\n      keccak256\n        /* \"contracts/Parcel.sol\":2649:2676  _olgt_bank[owner].parcel_no */\n      0x00\n      add\n        /* \"contracts/Parcel.sol\":2649:2680  _olgt_bank[owner].parcel_no = 0 */\n      dup2\n      swap1\n      sstore\n      pop\n        /* \"contracts/Parcel.sol\":2691:2723  _olgt_bank[owner].olgt_name = \"\" */\n      mload(0x40)\n      dup1\n      0x20\n      add\n      0x40\n      mstore\n      dup1\n      0x00\n      dup2\n      mstore\n      pop\n        /* \"contracts/Parcel.sol\":2691:2701  _olgt_bank */\n      0x02\n        /* \"contracts/Parcel.sol\":2691:2708  _olgt_bank[owner] */\n      0x00\n        /* \"contracts/Parcel.sol\":2702:2707  owner */\n      dup6\n        /* \"contracts/Parcel.sol\":2691:2708  _olgt_bank[owner] */\n      0xffffffffffffffffffffffffffffffffffffffff\n      and\n      0xffffffffffffffffffffffffffffffffffffffff\n      and\n      dup2\n      mstore\n      0x20\n      add\n      swap1\n      dup2\n      mstore\n      0x20\n      add\n      0x00\n      keccak256\n        /* \"contracts/Parcel.sol\":2691:2718  _olgt_bank[owner].olgt_name */\n      0x01\n      add\n        /* \"contracts/Parcel.sol\":2691:2723  _olgt_bank[owner].olgt_name = \"\" */\n      swap1\n      dup1\n      mload\n      swap1\n      0x20\n      add\n      swap1\n      tag_71\n      swap3\n      swap2\n      swap1\n      tag_70\n      jump\t// in\n    tag_71:\n      pop\n        /* \"contracts/Parcel.sol\":2765:2766  0 */\n      0x00\n        /* \"contracts/Parcel.sol\":2734:2744  _olgt_bank */\n      0x02\n        /* \"contracts/Parcel.sol\":2734:2751  _olgt_bank[owner] */\n      0x00\n        /* \"contracts/Parcel.sol\":2745:2750  owner */\n      dup6\n        /* \"contracts/Parcel.sol\":2734:2751  _olgt_bank[owner] */\n      0xffffffffffffffffffffffffffffffffffffffff\n      and\n      0xffffffffffffffffffffffffffffffffffffffff\n      and\n      dup2\n      mstore\n      0x20\n      add\n      swap1\n      dup2\n      mstore\n      0x20\n      add\n      0x00\n      keccak256\n        /* \"contracts/Parcel.sol\":2734:2762  _olgt_bank[owner].olgt_price */\n      0x02\n      add\n        /* \"contracts/Parcel.sol\":2734:2766  _olgt_bank[owner].olgt_price = 0 */\n      dup2\n      swap1\n      sstore\n      pop\n        /* \"contracts/Parcel.sol\":2409:2774  function redeem(address owner, string memory owner_name, uint price) isStaff public  {\r... */\n      pop\n      pop\n      pop\n      jump\t// out\n        /* \"contracts/Parcel.sol\":1818:2243  function mortgage(address owner, address bank, uint parcel_no, string memory owner_name, uint price) isStaff public payable  {\r... */\n    tag_29:\n        /* \"contracts/Parcel.sol\":642:647  staff */\n      0x00\n      dup1\n      sload\n      swap1\n      0x0100\n      exp\n      swap1\n      div\n      0xffffffffffffffffffffffffffffffffffffffff\n      and\n        /* \"contracts/Parcel.sol\":628:647  msg.sender == staff */\n      0xffffffffffffffffffffffffffffffffffffffff\n      and\n        /* \"contracts/Parcel.sol\":628:638  msg.sender */\n      caller\n        /* \"contracts/Parcel.sol\":628:647  msg.sender == staff */\n      0xffffffffffffffffffffffffffffffffffffffff\n      and\n      eq\n        /* \"contracts/Parcel.sol\":620:681  require(msg.sender == staff, \"You are not landoffice staff.\") */\n      tag_73\n      jumpi\n      mload(0x40)\n      0x08c379a000000000000000000000000000000000000000000000000000000000\n      dup2\n      mstore\n      0x04\n      add\n      tag_74\n      swap1\n      tag_43\n      jump\t// in\n    tag_74:\n      mload(0x40)\n      dup1\n      swap2\n      sub\n      swap1\n      revert\n    tag_73:\n        /* \"contracts/Parcel.sol\":1987:1997  owner_name */\n      dup2\n        /* \"contracts/Parcel.sol\":1954:1966  _parcel_land */\n      0x01\n        /* \"contracts/Parcel.sol\":1954:1973  _parcel_land[owner] */\n      0x00\n        /* \"contracts/Parcel.sol\":1967:1972  owner */\n      dup8\n        /* \"contracts/Parcel.sol\":1954:1973  _parcel_land[owner] */\n      0xffffffffffffffffffffffffffffffffffffffff\n      and\n      0xffffffffffffffffffffffffffffffffffffffff\n      and\n      dup2\n      mstore\n      0x20\n      add\n      swap1\n      dup2\n      mstore\n      0x20\n      add\n      0x00\n      keccak256\n        /* \"contracts/Parcel.sol\":1954:1984  _parcel_land[owner].owner_name */\n      0x01\n      add\n        /* \"contracts/Parcel.sol\":1954:1997  _parcel_land[owner].owner_name = owner_name */\n      swap1\n      dup1\n      mload\n      swap1\n      0x20\n      add\n      swap1\n      tag_76\n      swap3\n      swap2\n      swap1\n      tag_70\n      jump\t// in\n    tag_76:\n      pop\n        /* \"contracts/Parcel.sol\":2038:2047  parcel_no */\n      dup3\n        /* \"contracts/Parcel.sol\":2008:2018  _olgt_bank */\n      0x02\n        /* \"contracts/Parcel.sol\":2008:2025  _olgt_bank[owner] */\n      0x00\n        /* \"contracts/Parcel.sol\":2019:2024  owner */\n      dup8\n        /* \"contracts/Parcel.sol\":2008:2025  _olgt_bank[owner] */\n      0xffffffffffffffffffffffffffffffffffffffff\n      and\n      0xffffffffffffffffffffffffffffffffffffffff\n      and\n      dup2\n      mstore\n      0x20\n      add\n      swap1\n      dup2\n      mstore\n      0x20\n      add\n      0x00\n      keccak256\n        /* \"contracts/Parcel.sol\":2008:2035  _olgt_bank[owner].parcel_no */\n      0x00\n      add\n        /* \"contracts/Parcel.sol\":2008:2047  _olgt_bank[owner].parcel_no = parcel_no */\n      dup2\n      swap1\n      sstore\n      pop\n        /* \"contracts/Parcel.sol\":2088:2098  owner_name */\n      dup2\n        /* \"contracts/Parcel.sol\":2058:2068  _olgt_bank */\n      0x02\n        /* \"contracts/Parcel.sol\":2058:2075  _olgt_bank[owner] */\n      0x00\n        /* \"contracts/Parcel.sol\":2069:2074  owner */\n      dup8\n        /* \"contracts/Parcel.sol\":2058:2075  _olgt_bank[owner] */\n      0xffffffffffffffffffffffffffffffffffffffff\n      and\n      0xffffffffffffffffffffffffffffffffffffffff\n      and\n      dup2\n      mstore\n      0x20\n      add\n      swap1\n      dup2\n      mstore\n      0x20\n      add\n      0x00\n      keccak256\n        /* \"contracts/Parcel.sol\":2058:2085  _olgt_bank[owner].olgt_name */\n      0x01\n      add\n        /* \"contracts/Parcel.sol\":2058:2098  _olgt_bank[owner].olgt_name = owner_name */\n      swap1\n      dup1\n      mload\n      swap1\n      0x20\n      add\n      swap1\n      tag_77\n      swap3\n      swap2\n      swap1\n      tag_70\n      jump\t// in\n    tag_77:\n      pop\n        /* \"contracts/Parcel.sol\":2140:2145  price */\n      dup1\n        /* \"contracts/Parcel.sol\":2109:2119  _olgt_bank */\n      0x02\n        /* \"contracts/Parcel.sol\":2109:2126  _olgt_bank[owner] */\n      0x00\n        /* \"contracts/Parcel.sol\":2120:2125  owner */\n      dup8\n        /* \"contracts/Parcel.sol\":2109:2126  _olgt_bank[owner] */\n      0xffffffffffffffffffffffffffffffffffffffff\n      and\n      0xffffffffffffffffffffffffffffffffffffffff\n      and\n      dup2\n      mstore\n      0x20\n      add\n      swap1\n      dup2\n      mstore\n      0x20\n      add\n      0x00\n      keccak256\n        /* \"contracts/Parcel.sol\":2109:2137  _olgt_bank[owner].olgt_price */\n      0x02\n      add\n        /* \"contracts/Parcel.sol\":2109:2145  _olgt_bank[owner].olgt_price = price */\n      dup2\n      swap1\n      sstore\n      pop\n        /* \"contracts/Parcel.sol\":2214:2218  bank */\n      dup4\n        /* \"contracts/Parcel.sol\":2206:2228  payable(bank).transfer */\n      0xffffffffffffffffffffffffffffffffffffffff\n      and\n        /* \"contracts/Parcel.sol\":2206:2235  payable(bank).transfer(price) */\n      0x08fc\n        /* \"contracts/Parcel.sol\":2229:2234  price */\n      dup3\n        /* \"contracts/Parcel.sol\":2206:2235  payable(bank).transfer(price) */\n      swap1\n      dup2\n      iszero\n      mul\n      swap1\n      mload(0x40)\n      0x00\n      mload(0x40)\n      dup1\n      dup4\n      sub\n      dup2\n      dup6\n      dup9\n      dup9\n      call\n      swap4\n      pop\n      pop\n      pop\n      pop\n      iszero\n      dup1\n      iszero\n      tag_79\n      jumpi\n      returndatasize\n      0x00\n      dup1\n      returndatacopy\n      revert(0x00, returndatasize)\n    tag_79:\n      pop\n        /* \"contracts/Parcel.sol\":1818:2243  function mortgage(address owner, address bank, uint parcel_no, string memory owner_name, uint price) isStaff public payable  {\r... */\n      pop\n      pop\n      pop\n      pop\n      pop\n      jump\t// out\n        /* \"contracts/Parcel.sol\":791:1112  function createParcel(address owner, uint parcel_no, string memory owner_name, uint price, uint area) isStaff public payable {\r... */\n    tag_33:\n        /* \"contracts/Parcel.sol\":642:647  staff */\n      0x00\n      dup1\n      sload\n      swap1\n      0x0100\n      exp\n      swap1\n      div\n      0xffffffffffffffffffffffffffffffffffffffff\n      and\n        /* \"contracts/Parcel.sol\":628:647  msg.sender == staff */\n      0xffffffffffffffffffffffffffffffffffffffff\n      and\n        /* \"contracts/Parcel.sol\":628:638  msg.sender */\n      caller\n        /* \"contracts/Parcel.sol\":628:647  msg.sender == staff */\n      0xffffffffffffffffffffffffffffffffffffffff\n      and\n      eq\n        /* \"contracts/Parcel.sol\":620:681  require(msg.sender == staff, \"You are not landoffice staff.\") */\n      tag_81\n      jumpi\n      mload(0x40)\n      0x08c379a000000000000000000000000000000000000000000000000000000000\n      dup2\n      mstore\n      0x04\n      add\n      tag_82\n      swap1\n      tag_43\n      jump\t// in\n    tag_82:\n      mload(0x40)\n      dup1\n      swap2\n      sub\n      swap1\n      revert\n    tag_81:\n        /* \"contracts/Parcel.sol\":958:967  parcel_no */\n      dup4\n        /* \"contracts/Parcel.sol\":926:938  _parcel_land */\n      0x01\n        /* \"contracts/Parcel.sol\":926:945  _parcel_land[owner] */\n      0x00\n        /* \"contracts/Parcel.sol\":939:944  owner */\n      dup8\n        /* \"contracts/Parcel.sol\":926:945  _parcel_land[owner] */\n      0xffffffffffffffffffffffffffffffffffffffff\n      and\n      0xffffffffffffffffffffffffffffffffffffffff\n      and\n      dup2\n      mstore\n      0x20\n      add\n      swap1\n      dup2\n      mstore\n      0x20\n      add\n      0x00\n      keccak256\n        /* \"contracts/Parcel.sol\":926:955  _parcel_land[owner].parcel_no */\n      0x00\n      add\n        /* \"contracts/Parcel.sol\":926:967  _parcel_land[owner].parcel_no = parcel_no */\n      dup2\n      swap1\n      sstore\n      pop\n        /* \"contracts/Parcel.sol\":1010:1020  owner_name */\n      dup3\n        /* \"contracts/Parcel.sol\":977:989  _parcel_land */\n      0x01\n        /* \"contracts/Parcel.sol\":977:996  _parcel_land[owner] */\n      0x00\n        /* \"contracts/Parcel.sol\":990:995  owner */\n      dup8\n        /* \"contracts/Parcel.sol\":977:996  _parcel_land[owner] */\n      0xffffffffffffffffffffffffffffffffffffffff\n      and\n      0xffffffffffffffffffffffffffffffffffffffff\n      and\n      dup2\n      mstore\n      0x20\n      add\n      swap1\n      dup2\n      mstore\n      0x20\n      add\n      0x00\n      keccak256\n        /* \"contracts/Parcel.sol\":977:1007  _parcel_land[owner].owner_name */\n      0x01\n      add\n        /* \"contracts/Parcel.sol\":977:1020  _parcel_land[owner].owner_name = owner_name */\n      swap1\n      dup1\n      mload\n      swap1\n      0x20\n      add\n      swap1\n      tag_84\n      swap3\n      swap2\n      swap1\n      tag_70\n      jump\t// in\n    tag_84:\n      pop\n        /* \"contracts/Parcel.sol\":1058:1063  price */\n      dup2\n        /* \"contracts/Parcel.sol\":1030:1042  _parcel_land */\n      0x01\n        /* \"contracts/Parcel.sol\":1030:1049  _parcel_land[owner] */\n      0x00\n        /* \"contracts/Parcel.sol\":1043:1048  owner */\n      dup8\n        /* \"contracts/Parcel.sol\":1030:1049  _parcel_land[owner] */\n      0xffffffffffffffffffffffffffffffffffffffff\n      and\n      0xffffffffffffffffffffffffffffffffffffffff\n      and\n      dup2\n      mstore\n      0x20\n      add\n      swap1\n      dup2\n      mstore\n      0x20\n      add\n      0x00\n      keccak256\n        /* \"contracts/Parcel.sol\":1030:1055  _parcel_land[owner].price */\n      0x02\n      add\n        /* \"contracts/Parcel.sol\":1030:1063  _parcel_land[owner].price = price */\n      dup2\n      swap1\n      sstore\n      pop\n        /* \"contracts/Parcel.sol\":1100:1104  area */\n      dup1\n        /* \"contracts/Parcel.sol\":1073:1085  _parcel_land */\n      0x01\n        /* \"contracts/Parcel.sol\":1073:1092  _parcel_land[owner] */\n      0x00\n        /* \"contracts/Parcel.sol\":1086:1091  owner */\n      dup8\n        /* \"contracts/Parcel.sol\":1073:1092  _parcel_land[owner] */\n      0xffffffffffffffffffffffffffffffffffffffff\n      and\n      0xffffffffffffffffffffffffffffffffffffffff\n      and\n      dup2\n      mstore\n      0x20\n      add\n      swap1\n      dup2\n      mstore\n      0x20\n      add\n      0x00\n      keccak256\n        /* \"contracts/Parcel.sol\":1073:1097  _parcel_land[owner].area */\n      0x03\n      add\n        /* \"contracts/Parcel.sol\":1073:1104  _parcel_land[owner].area = area */\n      dup2\n      swap1\n      sstore\n      pop\n        /* \"contracts/Parcel.sol\":791:1112  function createParcel(address owner, uint parcel_no, string memory owner_name, uint price, uint area) isStaff public payable {\r... */\n      pop\n      pop\n      pop\n      pop\n      pop\n      jump\t// out\n        /* \"contracts/Parcel.sol\":1528:1685  function deposit(address payable bank)  public payable  {\r... */\n    tag_37:\n        /* \"contracts/Parcel.sol\":1653:1657  bank */\n      dup1\n        /* \"contracts/Parcel.sol\":1645:1667  payable(bank).transfer */\n      0xffffffffffffffffffffffffffffffffffffffff\n      and\n        /* \"contracts/Parcel.sol\":1645:1677  payable(bank).transfer(50 ether) */\n      0x08fc\n        /* \"contracts/Parcel.sol\":1668:1676  50 ether */\n      0x02b5e3af16b1880000\n        /* \"contracts/Parcel.sol\":1645:1677  payable(bank).transfer(50 ether) */\n      swap1\n      dup2\n      iszero\n      mul\n      swap1\n      mload(0x40)\n      0x00\n      mload(0x40)\n      dup1\n      dup4\n      sub\n      dup2\n      dup6\n      dup9\n      dup9\n      call\n      swap4\n      pop\n      pop\n      pop\n      pop\n      iszero\n      dup1\n      iszero\n      tag_87\n      jumpi\n      returndatasize\n      0x00\n      dup1\n      returndatacopy\n      revert(0x00, returndatasize)\n    tag_87:\n      pop\n        /* \"contracts/Parcel.sol\":1528:1685  function deposit(address payable bank)  public payable  {\r... */\n      pop\n      jump\t// out\n    tag_39:\n      mload(0x40)\n      dup1\n      0x80\n      add\n      0x40\n      mstore\n      dup1\n      0x00\n      dup2\n      mstore\n      0x20\n      add\n      0x60\n      dup2\n      mstore\n      0x20\n      add\n      0x00\n      dup2\n      mstore\n      0x20\n      add\n      0x00\n      dup2\n      mstore\n      pop\n      swap1\n      jump\t// out\n    tag_52:\n      mload(0x40)\n      dup1\n      0x60\n      add\n      0x40\n      mstore\n      dup1\n      0x00\n      dup2\n      mstore\n      0x20\n      add\n      0x60\n      dup2\n      mstore\n      0x20\n      add\n      0x00\n      dup2\n      mstore\n      pop\n      swap1\n      jump\t// out\n    tag_70:\n      dup3\n      dup1\n      sload\n      tag_88\n      swap1\n      tag_46\n      jump\t// in\n    tag_88:\n      swap1\n      0x00\n      mstore\n      keccak256(0x00, 0x20)\n      swap1\n      0x1f\n      add\n      0x20\n      swap1\n      div\n      dup2\n      add\n      swap3\n      dup3\n      tag_90\n      jumpi\n      0x00\n      dup6\n      sstore\n      jump(tag_89)\n    tag_90:\n      dup3\n      0x1f\n      lt\n      tag_91\n      jumpi\n      dup1\n      mload\n      not(0xff)\n      and\n      dup4\n      dup1\n      add\n      or\n      dup6\n      sstore\n      jump(tag_89)\n    tag_91:\n      dup3\n      dup1\n      add\n      0x01\n      add\n      dup6\n      sstore\n      dup3\n      iszero\n      tag_89\n      jumpi\n      swap2\n      dup3\n      add\n    tag_92:\n      dup3\n      dup2\n      gt\n      iszero\n      tag_93\n      jumpi\n      dup3\n      mload\n      dup3\n      sstore\n      swap2\n      0x20\n      add\n      swap2\n      swap1\n      0x01\n      add\n      swap1\n      jump(tag_92)\n    tag_93:\n    tag_89:\n      pop\n      swap1\n      pop\n      tag_94\n      swap2\n      swap1\n      tag_95\n      jump\t// in\n    tag_94:\n      pop\n      swap1\n      jump\t// out\n    tag_95:\n    tag_96:\n      dup1\n      dup3\n      gt\n      iszero\n      tag_97\n      jumpi\n      0x00\n      dup2\n      0x00\n      swap1\n      sstore\n      pop\n      0x01\n      add\n      jump(tag_96)\n    tag_97:\n      pop\n      swap1\n      jump\t// out\n        /* \"#utility.yul\":7:419   */\n    tag_99:\n        /* \"#utility.yul\":85:90   */\n      0x00\n        /* \"#utility.yul\":110:176   */\n      tag_101\n        /* \"#utility.yul\":126:175   */\n      tag_102\n        /* \"#utility.yul\":168:174   */\n      dup5\n        /* \"#utility.yul\":126:175   */\n      tag_103\n      jump\t// in\n    tag_102:\n        /* \"#utility.yul\":110:176   */\n      tag_104\n      jump\t// in\n    tag_101:\n        /* \"#utility.yul\":101:176   */\n      swap1\n      pop\n        /* \"#utility.yul\":199:205   */\n      dup3\n        /* \"#utility.yul\":192:197   */\n      dup2\n        /* \"#utility.yul\":185:206   */\n      mstore\n        /* \"#utility.yul\":237:241   */\n      0x20\n        /* \"#utility.yul\":230:235   */\n      dup2\n        /* \"#utility.yul\":226:242   */\n      add\n        /* \"#utility.yul\":275:278   */\n      dup5\n        /* \"#utility.yul\":266:272   */\n      dup5\n        /* \"#utility.yul\":261:264   */\n      dup5\n        /* \"#utility.yul\":257:273   */\n      add\n        /* \"#utility.yul\":254:279   */\n      gt\n        /* \"#utility.yul\":251:363   */\n      iszero\n      tag_105\n      jumpi\n        /* \"#utility.yul\":282:361   */\n      tag_106\n      tag_107\n      jump\t// in\n    tag_106:\n        /* \"#utility.yul\":251:363   */\n    tag_105:\n        /* \"#utility.yul\":372:413   */\n      tag_108\n        /* \"#utility.yul\":406:412   */\n      dup5\n        /* \"#utility.yul\":401:404   */\n      dup3\n        /* \"#utility.yul\":396:399   */\n      dup6\n        /* \"#utility.yul\":372:413   */\n      tag_109\n      jump\t// in\n    tag_108:\n        /* \"#utility.yul\":91:419   */\n      pop\n        /* \"#utility.yul\":7:419   */\n      swap4\n      swap3\n      pop\n      pop\n      pop\n      jump\t// out\n        /* \"#utility.yul\":425:564   */\n    tag_110:\n        /* \"#utility.yul\":471:476   */\n      0x00\n        /* \"#utility.yul\":509:515   */\n      dup2\n        /* \"#utility.yul\":496:516   */\n      calldataload\n        /* \"#utility.yul\":487:516   */\n      swap1\n      pop\n        /* \"#utility.yul\":525:558   */\n      tag_112\n        /* \"#utility.yul\":552:557   */\n      dup2\n        /* \"#utility.yul\":525:558   */\n      tag_113\n      jump\t// in\n    tag_112:\n        /* \"#utility.yul\":425:564   */\n      swap3\n      swap2\n      pop\n      pop\n      jump\t// out\n        /* \"#utility.yul\":570:725   */\n    tag_114:\n        /* \"#utility.yul\":624:629   */\n      0x00\n        /* \"#utility.yul\":662:668   */\n      dup2\n        /* \"#utility.yul\":649:669   */\n      calldataload\n        /* \"#utility.yul\":640:669   */\n      swap1\n      pop\n        /* \"#utility.yul\":678:719   */\n      tag_116\n        /* \"#utility.yul\":713:718   */\n      dup2\n        /* \"#utility.yul\":678:719   */\n      tag_117\n      jump\t// in\n    tag_116:\n        /* \"#utility.yul\":570:725   */\n      swap3\n      swap2\n      pop\n      pop\n      jump\t// out\n        /* \"#utility.yul\":745:1085   */\n    tag_118:\n        /* \"#utility.yul\":801:806   */\n      0x00\n        /* \"#utility.yul\":850:853   */\n      dup3\n        /* \"#utility.yul\":843:847   */\n      0x1f\n        /* \"#utility.yul\":835:841   */\n      dup4\n        /* \"#utility.yul\":831:848   */\n      add\n        /* \"#utility.yul\":827:854   */\n      slt\n        /* \"#utility.yul\":817:939   */\n      tag_120\n      jumpi\n        /* \"#utility.yul\":858:937   */\n      tag_121\n      tag_122\n      jump\t// in\n    tag_121:\n        /* \"#utility.yul\":817:939   */\n    tag_120:\n        /* \"#utility.yul\":975:981   */\n      dup2\n        /* \"#utility.yul\":962:982   */\n      calldataload\n        /* \"#utility.yul\":1000:1079   */\n      tag_123\n        /* \"#utility.yul\":1075:1078   */\n      dup5\n        /* \"#utility.yul\":1067:1073   */\n      dup3\n        /* \"#utility.yul\":1060:1064   */\n      0x20\n        /* \"#utility.yul\":1052:1058   */\n      dup7\n        /* \"#utility.yul\":1048:1065   */\n      add\n        /* \"#utility.yul\":1000:1079   */\n      tag_99\n      jump\t// in\n    tag_123:\n        /* \"#utility.yul\":991:1079   */\n      swap2\n      pop\n        /* \"#utility.yul\":807:1085   */\n      pop\n        /* \"#utility.yul\":745:1085   */\n      swap3\n      swap2\n      pop\n      pop\n      jump\t// out\n        /* \"#utility.yul\":1091:1230   */\n    tag_124:\n        /* \"#utility.yul\":1137:1142   */\n      0x00\n        /* \"#utility.yul\":1175:1181   */\n      dup2\n        /* \"#utility.yul\":1162:1182   */\n      calldataload\n        /* \"#utility.yul\":1153:1182   */\n      swap1\n      pop\n        /* \"#utility.yul\":1191:1224   */\n      tag_126\n        /* \"#utility.yul\":1218:1223   */\n      dup2\n        /* \"#utility.yul\":1191:1224   */\n      tag_127\n      jump\t// in\n    tag_126:\n        /* \"#utility.yul\":1091:1230   */\n      swap3\n      swap2\n      pop\n      pop\n      jump\t// out\n        /* \"#utility.yul\":1236:1565   */\n    tag_11:\n        /* \"#utility.yul\":1295:1301   */\n      0x00\n        /* \"#utility.yul\":1344:1346   */\n      0x20\n        /* \"#utility.yul\":1332:1341   */\n      dup3\n        /* \"#utility.yul\":1323:1330   */\n      dup5\n        /* \"#utility.yul\":1319:1342   */\n      sub\n        /* \"#utility.yul\":1315:1347   */\n      slt\n        /* \"#utility.yul\":1312:1431   */\n      iszero\n      tag_129\n      jumpi\n        /* \"#utility.yul\":1350:1429   */\n      tag_130\n      tag_131\n      jump\t// in\n    tag_130:\n        /* \"#utility.yul\":1312:1431   */\n    tag_129:\n        /* \"#utility.yul\":1470:1471   */\n      0x00\n        /* \"#utility.yul\":1495:1548   */\n      tag_132\n        /* \"#utility.yul\":1540:1547   */\n      dup5\n        /* \"#utility.yul\":1531:1537   */\n      dup3\n        /* \"#utility.yul\":1520:1529   */\n      dup6\n        /* \"#utility.yul\":1516:1538   */\n      add\n        /* \"#utility.yul\":1495:1548   */\n      tag_110\n      jump\t// in\n    tag_132:\n        /* \"#utility.yul\":1485:1548   */\n      swap2\n      pop\n        /* \"#utility.yul\":1441:1558   */\n      pop\n        /* \"#utility.yul\":1236:1565   */\n      swap3\n      swap2\n      pop\n      pop\n      jump\t// out\n        /* \"#utility.yul\":1571:1916   */\n    tag_36:\n        /* \"#utility.yul\":1638:1644   */\n      0x00\n        /* \"#utility.yul\":1687:1689   */\n      0x20\n        /* \"#utility.yul\":1675:1684   */\n      dup3\n        /* \"#utility.yul\":1666:1673   */\n      dup5\n        /* \"#utility.yul\":1662:1685   */\n      sub\n        /* \"#utility.yul\":1658:1690   */\n      slt\n        /* \"#utility.yul\":1655:1774   */\n      iszero\n      tag_134\n      jumpi\n        /* \"#utility.yul\":1693:1772   */\n      tag_135\n      tag_131\n      jump\t// in\n    tag_135:\n        /* \"#utility.yul\":1655:1774   */\n    tag_134:\n        /* \"#utility.yul\":1813:1814   */\n      0x00\n        /* \"#utility.yul\":1838:1899   */\n      tag_136\n        /* \"#utility.yul\":1891:1898   */\n      dup5\n        /* \"#utility.yul\":1882:1888   */\n      dup3\n        /* \"#utility.yul\":1871:1880   */\n      dup6\n        /* \"#utility.yul\":1867:1889   */\n      add\n        /* \"#utility.yul\":1838:1899   */\n      tag_114\n      jump\t// in\n    tag_136:\n        /* \"#utility.yul\":1828:1899   */\n      swap2\n      pop\n        /* \"#utility.yul\":1784:1909   */\n      pop\n        /* \"#utility.yul\":1571:1916   */\n      swap3\n      swap2\n      pop\n      pop\n      jump\t// out\n        /* \"#utility.yul\":1922:3013   */\n    tag_28:\n        /* \"#utility.yul\":2027:2033   */\n      0x00\n        /* \"#utility.yul\":2035:2041   */\n      dup1\n        /* \"#utility.yul\":2043:2049   */\n      0x00\n        /* \"#utility.yul\":2051:2057   */\n      dup1\n        /* \"#utility.yul\":2059:2065   */\n      0x00\n        /* \"#utility.yul\":2108:2111   */\n      0xa0\n        /* \"#utility.yul\":2096:2105   */\n      dup7\n        /* \"#utility.yul\":2087:2094   */\n      dup9\n        /* \"#utility.yul\":2083:2106   */\n      sub\n        /* \"#utility.yul\":2079:2112   */\n      slt\n        /* \"#utility.yul\":2076:2196   */\n      iszero\n      tag_138\n      jumpi\n        /* \"#utility.yul\":2115:2194   */\n      tag_139\n      tag_131\n      jump\t// in\n    tag_139:\n        /* \"#utility.yul\":2076:2196   */\n    tag_138:\n        /* \"#utility.yul\":2235:2236   */\n      0x00\n        /* \"#utility.yul\":2260:2313   */\n      tag_140\n        /* \"#utility.yul\":2305:2312   */\n      dup9\n        /* \"#utility.yul\":2296:2302   */\n      dup3\n        /* \"#utility.yul\":2285:2294   */\n      dup10\n        /* \"#utility.yul\":2281:2303   */\n      add\n        /* \"#utility.yul\":2260:2313   */\n      tag_110\n      jump\t// in\n    tag_140:\n        /* \"#utility.yul\":2250:2313   */\n      swap6\n      pop\n        /* \"#utility.yul\":2206:2323   */\n      pop\n        /* \"#utility.yul\":2362:2364   */\n      0x20\n        /* \"#utility.yul\":2388:2441   */\n      tag_141\n        /* \"#utility.yul\":2433:2440   */\n      dup9\n        /* \"#utility.yul\":2424:2430   */\n      dup3\n        /* \"#utility.yul\":2413:2422   */\n      dup10\n        /* \"#utility.yul\":2409:2431   */\n      add\n        /* \"#utility.yul\":2388:2441   */\n      tag_110\n      jump\t// in\n    tag_141:\n        /* \"#utility.yul\":2378:2441   */\n      swap5\n      pop\n        /* \"#utility.yul\":2333:2451   */\n      pop\n        /* \"#utility.yul\":2490:2492   */\n      0x40\n        /* \"#utility.yul\":2516:2569   */\n      tag_142\n        /* \"#utility.yul\":2561:2568   */\n      dup9\n        /* \"#utility.yul\":2552:2558   */\n      dup3\n        /* \"#utility.yul\":2541:2550   */\n      dup10\n        /* \"#utility.yul\":2537:2559   */\n      add\n        /* \"#utility.yul\":2516:2569   */\n      tag_124\n      jump\t// in\n    tag_142:\n        /* \"#utility.yul\":2506:2569   */\n      swap4\n      pop\n        /* \"#utility.yul\":2461:2579   */\n      pop\n        /* \"#utility.yul\":2646:2648   */\n      0x60\n        /* \"#utility.yul\":2635:2644   */\n      dup7\n        /* \"#utility.yul\":2631:2649   */\n      add\n        /* \"#utility.yul\":2618:2650   */\n      calldataload\n        /* \"#utility.yul\":2677:2695   */\n      0xffffffffffffffff\n        /* \"#utility.yul\":2669:2675   */\n      dup2\n        /* \"#utility.yul\":2666:2696   */\n      gt\n        /* \"#utility.yul\":2663:2780   */\n      iszero\n      tag_143\n      jumpi\n        /* \"#utility.yul\":2699:2778   */\n      tag_144\n      tag_145\n      jump\t// in\n    tag_144:\n        /* \"#utility.yul\":2663:2780   */\n    tag_143:\n        /* \"#utility.yul\":2804:2867   */\n      tag_146\n        /* \"#utility.yul\":2859:2866   */\n      dup9\n        /* \"#utility.yul\":2850:2856   */\n      dup3\n        /* \"#utility.yul\":2839:2848   */\n      dup10\n        /* \"#utility.yul\":2835:2857   */\n      add\n        /* \"#utility.yul\":2804:2867   */\n      tag_118\n      jump\t// in\n    tag_146:\n        /* \"#utility.yul\":2794:2867   */\n      swap3\n      pop\n        /* \"#utility.yul\":2589:2877   */\n      pop\n        /* \"#utility.yul\":2916:2919   */\n      0x80\n        /* \"#utility.yul\":2943:2996   */\n      tag_147\n        /* \"#utility.yul\":2988:2995   */\n      dup9\n        /* \"#utility.yul\":2979:2985   */\n      dup3\n        /* \"#utility.yul\":2968:2977   */\n      dup10\n        /* \"#utility.yul\":2964:2986   */\n      add\n        /* \"#utility.yul\":2943:2996   */\n      tag_124\n      jump\t// in\n    tag_147:\n        /* \"#utility.yul\":2933:2996   */\n      swap2\n      pop\n        /* \"#utility.yul\":2887:3006   */\n      pop\n        /* \"#utility.yul\":1922:3013   */\n      swap3\n      swap6\n      pop\n      swap3\n      swap6\n      swap1\n      swap4\n      pop\n      jump\t// out\n        /* \"#utility.yul\":3019:3818   */\n    tag_24:\n        /* \"#utility.yul\":3106:3112   */\n      0x00\n        /* \"#utility.yul\":3114:3120   */\n      dup1\n        /* \"#utility.yul\":3122:3128   */\n      0x00\n        /* \"#utility.yul\":3171:3173   */\n      0x60\n        /* \"#utility.yul\":3159:3168   */\n      dup5\n        /* \"#utility.yul\":3150:3157   */\n      dup7\n        /* \"#utility.yul\":3146:3169   */\n      sub\n        /* \"#utility.yul\":3142:3174   */\n      slt\n        /* \"#utility.yul\":3139:3258   */\n      iszero\n      tag_149\n      jumpi\n        /* \"#utility.yul\":3177:3256   */\n      tag_150\n      tag_131\n      jump\t// in\n    tag_150:\n        /* \"#utility.yul\":3139:3258   */\n    tag_149:\n        /* \"#utility.yul\":3297:3298   */\n      0x00\n        /* \"#utility.yul\":3322:3375   */\n      tag_151\n        /* \"#utility.yul\":3367:3374   */\n      dup7\n        /* \"#utility.yul\":3358:3364   */\n      dup3\n        /* \"#utility.yul\":3347:3356   */\n      dup8\n        /* \"#utility.yul\":3343:3365   */\n      add\n        /* \"#utility.yul\":3322:3375   */\n      tag_110\n      jump\t// in\n    tag_151:\n        /* \"#utility.yul\":3312:3375   */\n      swap4\n      pop\n        /* \"#utility.yul\":3268:3385   */\n      pop\n        /* \"#utility.yul\":3452:3454   */\n      0x20\n        /* \"#utility.yul\":3441:3450   */\n      dup5\n        /* \"#utility.yul\":3437:3455   */\n      add\n        /* \"#utility.yul\":3424:3456   */\n      calldataload\n        /* \"#utility.yul\":3483:3501   */\n      0xffffffffffffffff\n        /* \"#utility.yul\":3475:3481   */\n      dup2\n        /* \"#utility.yul\":3472:3502   */\n      gt\n        /* \"#utility.yul\":3469:3586   */\n      iszero\n      tag_152\n      jumpi\n        /* \"#utility.yul\":3505:3584   */\n      tag_153\n      tag_145\n      jump\t// in\n    tag_153:\n        /* \"#utility.yul\":3469:3586   */\n    tag_152:\n        /* \"#utility.yul\":3610:3673   */\n      tag_154\n        /* \"#utility.yul\":3665:3672   */\n      dup7\n        /* \"#utility.yul\":3656:3662   */\n      dup3\n        /* \"#utility.yul\":3645:3654   */\n      dup8\n        /* \"#utility.yul\":3641:3663   */\n      add\n        /* \"#utility.yul\":3610:3673   */\n      tag_118\n      jump\t// in\n    tag_154:\n        /* \"#utility.yul\":3600:3673   */\n      swap3\n      pop\n        /* \"#utility.yul\":3395:3683   */\n      pop\n        /* \"#utility.yul\":3722:3724   */\n      0x40\n        /* \"#utility.yul\":3748:3801   */\n      tag_155\n        /* \"#utility.yul\":3793:3800   */\n      dup7\n        /* \"#utility.yul\":3784:3790   */\n      dup3\n        /* \"#utility.yul\":3773:3782   */\n      dup8\n        /* \"#utility.yul\":3769:3791   */\n      add\n        /* \"#utility.yul\":3748:3801   */\n      tag_124\n      jump\t// in\n    tag_155:\n        /* \"#utility.yul\":3738:3801   */\n      swap2\n      pop\n        /* \"#utility.yul\":3693:3811   */\n      pop\n        /* \"#utility.yul\":3019:3818   */\n      swap3\n      pop\n      swap3\n      pop\n      swap3\n      jump\t// out\n        /* \"#utility.yul\":3824:4915   */\n    tag_32:\n        /* \"#utility.yul\":3929:3935   */\n      0x00\n        /* \"#utility.yul\":3937:3943   */\n      dup1\n        /* \"#utility.yul\":3945:3951   */\n      0x00\n        /* \"#utility.yul\":3953:3959   */\n      dup1\n        /* \"#utility.yul\":3961:3967   */\n      0x00\n        /* \"#utility.yul\":4010:4013   */\n      0xa0\n        /* \"#utility.yul\":3998:4007   */\n      dup7\n        /* \"#utility.yul\":3989:3996   */\n      dup9\n        /* \"#utility.yul\":3985:4008   */\n      sub\n        /* \"#utility.yul\":3981:4014   */\n      slt\n        /* \"#utility.yul\":3978:4098   */\n      iszero\n      tag_157\n      jumpi\n        /* \"#utility.yul\":4017:4096   */\n      tag_158\n      tag_131\n      jump\t// in\n    tag_158:\n        /* \"#utility.yul\":3978:4098   */\n    tag_157:\n        /* \"#utility.yul\":4137:4138   */\n      0x00\n        /* \"#utility.yul\":4162:4215   */\n      tag_159\n        /* \"#utility.yul\":4207:4214   */\n      dup9\n        /* \"#utility.yul\":4198:4204   */\n      dup3\n        /* \"#utility.yul\":4187:4196   */\n      dup10\n        /* \"#utility.yul\":4183:4205   */\n      add\n        /* \"#utility.yul\":4162:4215   */\n      tag_110\n      jump\t// in\n    tag_159:\n        /* \"#utility.yul\":4152:4215   */\n      swap6\n      pop\n        /* \"#utility.yul\":4108:4225   */\n      pop\n        /* \"#utility.yul\":4264:4266   */\n      0x20\n        /* \"#utility.yul\":4290:4343   */\n      tag_160\n        /* \"#utility.yul\":4335:4342   */\n      dup9\n        /* \"#utility.yul\":4326:4332   */\n      dup3\n        /* \"#utility.yul\":4315:4324   */\n      dup10\n        /* \"#utility.yul\":4311:4333   */\n      add\n        /* \"#utility.yul\":4290:4343   */\n      tag_124\n      jump\t// in\n    tag_160:\n        /* \"#utility.yul\":4280:4343   */\n      swap5\n      pop\n        /* \"#utility.yul\":4235:4353   */\n      pop\n        /* \"#utility.yul\":4420:4422   */\n      0x40\n        /* \"#utility.yul\":4409:4418   */\n      dup7\n        /* \"#utility.yul\":4405:4423   */\n      add\n        /* \"#utility.yul\":4392:4424   */\n      calldataload\n        /* \"#utility.yul\":4451:4469   */\n      0xffffffffffffffff\n        /* \"#utility.yul\":4443:4449   */\n      dup2\n        /* \"#utility.yul\":4440:4470   */\n      gt\n        /* \"#utility.yul\":4437:4554   */\n      iszero\n      tag_161\n      jumpi\n        /* \"#utility.yul\":4473:4552   */\n      tag_162\n      tag_145\n      jump\t// in\n    tag_162:\n        /* \"#utility.yul\":4437:4554   */\n    tag_161:\n        /* \"#utility.yul\":4578:4641   */\n      tag_163\n        /* \"#utility.yul\":4633:4640   */\n      dup9\n        /* \"#utility.yul\":4624:4630   */\n      dup3\n        /* \"#utility.yul\":4613:4622   */\n      dup10\n        /* \"#utility.yul\":4609:4631   */\n      add\n        /* \"#utility.yul\":4578:4641   */\n      tag_118\n      jump\t// in\n    tag_163:\n        /* \"#utility.yul\":4568:4641   */\n      swap4\n      pop\n        /* \"#utility.yul\":4363:4651   */\n      pop\n        /* \"#utility.yul\":4690:4692   */\n      0x60\n        /* \"#utility.yul\":4716:4769   */\n      tag_164\n        /* \"#utility.yul\":4761:4768   */\n      dup9\n        /* \"#utility.yul\":4752:4758   */\n      dup3\n        /* \"#utility.yul\":4741:4750   */\n      dup10\n        /* \"#utility.yul\":4737:4759   */\n      add\n        /* \"#utility.yul\":4716:4769   */\n      tag_124\n      jump\t// in\n    tag_164:\n        /* \"#utility.yul\":4706:4769   */\n      swap3\n      pop\n        /* \"#utility.yul\":4661:4779   */\n      pop\n        /* \"#utility.yul\":4818:4821   */\n      0x80\n        /* \"#utility.yul\":4845:4898   */\n      tag_165\n        /* \"#utility.yul\":4890:4897   */\n      dup9\n        /* \"#utility.yul\":4881:4887   */\n      dup3\n        /* \"#utility.yul\":4870:4879   */\n      dup10\n        /* \"#utility.yul\":4866:4888   */\n      add\n        /* \"#utility.yul\":4845:4898   */\n      tag_124\n      jump\t// in\n    tag_165:\n        /* \"#utility.yul\":4835:4898   */\n      swap2\n      pop\n        /* \"#utility.yul\":4789:4908   */\n      pop\n        /* \"#utility.yul\":3824:4915   */\n      swap3\n      swap6\n      pop\n      swap3\n      swap6\n      swap1\n      swap4\n      pop\n      jump\t// out\n        /* \"#utility.yul\":4921:5265   */\n    tag_166:\n        /* \"#utility.yul\":4999:5002   */\n      0x00\n        /* \"#utility.yul\":5027:5066   */\n      tag_168\n        /* \"#utility.yul\":5060:5065   */\n      dup3\n        /* \"#utility.yul\":5027:5066   */\n      tag_169\n      jump\t// in\n    tag_168:\n        /* \"#utility.yul\":5082:5143   */\n      tag_170\n        /* \"#utility.yul\":5136:5142   */\n      dup2\n        /* \"#utility.yul\":5131:5134   */\n      dup6\n        /* \"#utility.yul\":5082:5143   */\n      tag_171\n      jump\t// in\n    tag_170:\n        /* \"#utility.yul\":5075:5143   */\n      swap4\n      pop\n        /* \"#utility.yul\":5152:5204   */\n      tag_172\n        /* \"#utility.yul\":5197:5203   */\n      dup2\n        /* \"#utility.yul\":5192:5195   */\n      dup6\n        /* \"#utility.yul\":5185:5189   */\n      0x20\n        /* \"#utility.yul\":5178:5183   */\n      dup7\n        /* \"#utility.yul\":5174:5190   */\n      add\n        /* \"#utility.yul\":5152:5204   */\n      tag_173\n      jump\t// in\n    tag_172:\n        /* \"#utility.yul\":5229:5258   */\n      tag_174\n        /* \"#utility.yul\":5251:5257   */\n      dup2\n        /* \"#utility.yul\":5229:5258   */\n      tag_175\n      jump\t// in\n    tag_174:\n        /* \"#utility.yul\":5224:5227   */\n      dup5\n        /* \"#utility.yul\":5220:5259   */\n      add\n        /* \"#utility.yul\":5213:5259   */\n      swap2\n      pop\n        /* \"#utility.yul\":5003:5265   */\n      pop\n        /* \"#utility.yul\":4921:5265   */\n      swap3\n      swap2\n      pop\n      pop\n      jump\t// out\n        /* \"#utility.yul\":5271:5637   */\n    tag_176:\n        /* \"#utility.yul\":5413:5416   */\n      0x00\n        /* \"#utility.yul\":5434:5501   */\n      tag_178\n        /* \"#utility.yul\":5498:5500   */\n      0x1d\n        /* \"#utility.yul\":5493:5496   */\n      dup4\n        /* \"#utility.yul\":5434:5501   */\n      tag_179\n      jump\t// in\n    tag_178:\n        /* \"#utility.yul\":5427:5501   */\n      swap2\n      pop\n        /* \"#utility.yul\":5510:5603   */\n      tag_180\n        /* \"#utility.yul\":5599:5602   */\n      dup3\n        /* \"#utility.yul\":5510:5603   */\n      tag_181\n      jump\t// in\n    tag_180:\n        /* \"#utility.yul\":5628:5630   */\n      0x20\n        /* \"#utility.yul\":5623:5626   */\n      dup3\n        /* \"#utility.yul\":5619:5631   */\n      add\n        /* \"#utility.yul\":5612:5631   */\n      swap1\n      pop\n        /* \"#utility.yul\":5271:5637   */\n      swap2\n      swap1\n      pop\n      jump\t// out\n        /* \"#utility.yul\":5643:6009   */\n    tag_182:\n        /* \"#utility.yul\":5785:5788   */\n      0x00\n        /* \"#utility.yul\":5806:5873   */\n      tag_184\n        /* \"#utility.yul\":5870:5872   */\n      0x1d\n        /* \"#utility.yul\":5865:5868   */\n      dup4\n        /* \"#utility.yul\":5806:5873   */\n      tag_179\n      jump\t// in\n    tag_184:\n        /* \"#utility.yul\":5799:5873   */\n      swap2\n      pop\n        /* \"#utility.yul\":5882:5975   */\n      tag_185\n        /* \"#utility.yul\":5971:5974   */\n      dup3\n        /* \"#utility.yul\":5882:5975   */\n      tag_186\n      jump\t// in\n    tag_185:\n        /* \"#utility.yul\":6000:6002   */\n      0x20\n        /* \"#utility.yul\":5995:5998   */\n      dup3\n        /* \"#utility.yul\":5991:6003   */\n      add\n        /* \"#utility.yul\":5984:6003   */\n      swap1\n      pop\n        /* \"#utility.yul\":5643:6009   */\n      swap2\n      swap1\n      pop\n      jump\t// out\n        /* \"#utility.yul\":6057:6851   */\n    tag_187:\n        /* \"#utility.yul\":6174:6177   */\n      0x00\n        /* \"#utility.yul\":6210:6214   */\n      0x60\n        /* \"#utility.yul\":6205:6208   */\n      dup4\n        /* \"#utility.yul\":6201:6215   */\n      add\n        /* \"#utility.yul\":6302:6306   */\n      0x00\n        /* \"#utility.yul\":6295:6300   */\n      dup4\n        /* \"#utility.yul\":6291:6307   */\n      add\n        /* \"#utility.yul\":6285:6308   */\n      mload\n        /* \"#utility.yul\":6321:6384   */\n      tag_189\n        /* \"#utility.yul\":6378:6382   */\n      0x00\n        /* \"#utility.yul\":6373:6376   */\n      dup7\n        /* \"#utility.yul\":6369:6383   */\n      add\n        /* \"#utility.yul\":6355:6367   */\n      dup3\n        /* \"#utility.yul\":6321:6384   */\n      tag_190\n      jump\t// in\n    tag_189:\n        /* \"#utility.yul\":6225:6394   */\n      pop\n        /* \"#utility.yul\":6481:6485   */\n      0x20\n        /* \"#utility.yul\":6474:6479   */\n      dup4\n        /* \"#utility.yul\":6470:6486   */\n      add\n        /* \"#utility.yul\":6464:6487   */\n      mload\n        /* \"#utility.yul\":6534:6537   */\n      dup5\n        /* \"#utility.yul\":6528:6532   */\n      dup3\n        /* \"#utility.yul\":6524:6538   */\n      sub\n        /* \"#utility.yul\":6517:6521   */\n      0x20\n        /* \"#utility.yul\":6512:6515   */\n      dup7\n        /* \"#utility.yul\":6508:6522   */\n      add\n        /* \"#utility.yul\":6501:6539   */\n      mstore\n        /* \"#utility.yul\":6560:6633   */\n      tag_191\n        /* \"#utility.yul\":6628:6632   */\n      dup3\n        /* \"#utility.yul\":6614:6626   */\n      dup3\n        /* \"#utility.yul\":6560:6633   */\n      tag_166\n      jump\t// in\n    tag_191:\n        /* \"#utility.yul\":6552:6633   */\n      swap2\n      pop\n        /* \"#utility.yul\":6404:6644   */\n      pop\n        /* \"#utility.yul\":6732:6736   */\n      0x40\n        /* \"#utility.yul\":6725:6730   */\n      dup4\n        /* \"#utility.yul\":6721:6737   */\n      add\n        /* \"#utility.yul\":6715:6738   */\n      mload\n        /* \"#utility.yul\":6751:6814   */\n      tag_192\n        /* \"#utility.yul\":6808:6812   */\n      0x40\n        /* \"#utility.yul\":6803:6806   */\n      dup7\n        /* \"#utility.yul\":6799:6813   */\n      add\n        /* \"#utility.yul\":6785:6797   */\n      dup3\n        /* \"#utility.yul\":6751:6814   */\n      tag_190\n      jump\t// in\n    tag_192:\n        /* \"#utility.yul\":6654:6824   */\n      pop\n        /* \"#utility.yul\":6841:6845   */\n      dup1\n        /* \"#utility.yul\":6834:6845   */\n      swap2\n      pop\n        /* \"#utility.yul\":6179:6851   */\n      pop\n        /* \"#utility.yul\":6057:6851   */\n      swap3\n      swap2\n      pop\n      pop\n      jump\t// out\n        /* \"#utility.yul\":6905:7875   */\n    tag_193:\n        /* \"#utility.yul\":7028:7031   */\n      0x00\n        /* \"#utility.yul\":7064:7068   */\n      0x80\n        /* \"#utility.yul\":7059:7062   */\n      dup4\n        /* \"#utility.yul\":7055:7069   */\n      add\n        /* \"#utility.yul\":7156:7160   */\n      0x00\n        /* \"#utility.yul\":7149:7154   */\n      dup4\n        /* \"#utility.yul\":7145:7161   */\n      add\n        /* \"#utility.yul\":7139:7162   */\n      mload\n        /* \"#utility.yul\":7175:7238   */\n      tag_195\n        /* \"#utility.yul\":7232:7236   */\n      0x00\n        /* \"#utility.yul\":7227:7230   */\n      dup7\n        /* \"#utility.yul\":7223:7237   */\n      add\n        /* \"#utility.yul\":7209:7221   */\n      dup3\n        /* \"#utility.yul\":7175:7238   */\n      tag_190\n      jump\t// in\n    tag_195:\n        /* \"#utility.yul\":7079:7248   */\n      pop\n        /* \"#utility.yul\":7336:7340   */\n      0x20\n        /* \"#utility.yul\":7329:7334   */\n      dup4\n        /* \"#utility.yul\":7325:7341   */\n      add\n        /* \"#utility.yul\":7319:7342   */\n      mload\n        /* \"#utility.yul\":7389:7392   */\n      dup5\n        /* \"#utility.yul\":7383:7387   */\n      dup3\n        /* \"#utility.yul\":7379:7393   */\n      sub\n        /* \"#utility.yul\":7372:7376   */\n      0x20\n        /* \"#utility.yul\":7367:7370   */\n      dup7\n        /* \"#utility.yul\":7363:7377   */\n      add\n        /* \"#utility.yul\":7356:7394   */\n      mstore\n        /* \"#utility.yul\":7415:7488   */\n      tag_196\n        /* \"#utility.yul\":7483:7487   */\n      dup3\n        /* \"#utility.yul\":7469:7481   */\n      dup3\n        /* \"#utility.yul\":7415:7488   */\n      tag_166\n      jump\t// in\n    tag_196:\n        /* \"#utility.yul\":7407:7488   */\n      swap2\n      pop\n        /* \"#utility.yul\":7258:7499   */\n      pop\n        /* \"#utility.yul\":7582:7586   */\n      0x40\n        /* \"#utility.yul\":7575:7580   */\n      dup4\n        /* \"#utility.yul\":7571:7587   */\n      add\n        /* \"#utility.yul\":7565:7588   */\n      mload\n        /* \"#utility.yul\":7601:7664   */\n      tag_197\n        /* \"#utility.yul\":7658:7662   */\n      0x40\n        /* \"#utility.yul\":7653:7656   */\n      dup7\n        /* \"#utility.yul\":7649:7663   */\n      add\n        /* \"#utility.yul\":7635:7647   */\n      dup3\n        /* \"#utility.yul\":7601:7664   */\n      tag_190\n      jump\t// in\n    tag_197:\n        /* \"#utility.yul\":7509:7674   */\n      pop\n        /* \"#utility.yul\":7756:7760   */\n      0x60\n        /* \"#utility.yul\":7749:7754   */\n      dup4\n        /* \"#utility.yul\":7745:7761   */\n      add\n        /* \"#utility.yul\":7739:7762   */\n      mload\n        /* \"#utility.yul\":7775:7838   */\n      tag_198\n        /* \"#utility.yul\":7832:7836   */\n      0x60\n        /* \"#utility.yul\":7827:7830   */\n      dup7\n        /* \"#utility.yul\":7823:7837   */\n      add\n        /* \"#utility.yul\":7809:7821   */\n      dup3\n        /* \"#utility.yul\":7775:7838   */\n      tag_190\n      jump\t// in\n    tag_198:\n        /* \"#utility.yul\":7684:7848   */\n      pop\n        /* \"#utility.yul\":7865:7869   */\n      dup1\n        /* \"#utility.yul\":7858:7869   */\n      swap2\n      pop\n        /* \"#utility.yul\":7033:7875   */\n      pop\n        /* \"#utility.yul\":6905:7875   */\n      swap3\n      swap2\n      pop\n      pop\n      jump\t// out\n        /* \"#utility.yul\":7881:7989   */\n    tag_190:\n        /* \"#utility.yul\":7958:7982   */\n      tag_200\n        /* \"#utility.yul\":7976:7981   */\n      dup2\n        /* \"#utility.yul\":7958:7982   */\n      tag_201\n      jump\t// in\n    tag_200:\n        /* \"#utility.yul\":7953:7956   */\n      dup3\n        /* \"#utility.yul\":7946:7983   */\n      mstore\n        /* \"#utility.yul\":7881:7989   */\n      pop\n      pop\n      jump\t// out\n        /* \"#utility.yul\":7995:8414   */\n    tag_43:\n        /* \"#utility.yul\":8161:8165   */\n      0x00\n        /* \"#utility.yul\":8199:8201   */\n      0x20\n        /* \"#utility.yul\":8188:8197   */\n      dup3\n        /* \"#utility.yul\":8184:8202   */\n      add\n        /* \"#utility.yul\":8176:8202   */\n      swap1\n      pop\n        /* \"#utility.yul\":8248:8257   */\n      dup2\n        /* \"#utility.yul\":8242:8246   */\n      dup2\n        /* \"#utility.yul\":8238:8258   */\n      sub\n        /* \"#utility.yul\":8234:8235   */\n      0x00\n        /* \"#utility.yul\":8223:8232   */\n      dup4\n        /* \"#utility.yul\":8219:8236   */\n      add\n        /* \"#utility.yul\":8212:8259   */\n      mstore\n        /* \"#utility.yul\":8276:8407   */\n      tag_203\n        /* \"#utility.yul\":8402:8406   */\n      dup2\n        /* \"#utility.yul\":8276:8407   */\n      tag_176\n      jump\t// in\n    tag_203:\n        /* \"#utility.yul\":8268:8407   */\n      swap1\n      pop\n        /* \"#utility.yul\":7995:8414   */\n      swap2\n      swap1\n      pop\n      jump\t// out\n        /* \"#utility.yul\":8420:8839   */\n    tag_68:\n        /* \"#utility.yul\":8586:8590   */\n      0x00\n        /* \"#utility.yul\":8624:8626   */\n      0x20\n        /* \"#utility.yul\":8613:8622   */\n      dup3\n        /* \"#utility.yul\":8609:8627   */\n      add\n        /* \"#utility.yul\":8601:8627   */\n      swap1\n      pop\n        /* \"#utility.yul\":8673:8682   */\n      dup2\n        /* \"#utility.yul\":8667:8671   */\n      dup2\n        /* \"#utility.yul\":8663:8683   */\n      sub\n        /* \"#utility.yul\":8659:8660   */\n      0x00\n        /* \"#utility.yul\":8648:8657   */\n      dup4\n        /* \"#utility.yul\":8644:8661   */\n      add\n        /* \"#utility.yul\":8637:8684   */\n      mstore\n        /* \"#utility.yul\":8701:8832   */\n      tag_205\n        /* \"#utility.yul\":8827:8831   */\n      dup2\n        /* \"#utility.yul\":8701:8832   */\n      tag_182\n      jump\t// in\n    tag_205:\n        /* \"#utility.yul\":8693:8832   */\n      swap1\n      pop\n        /* \"#utility.yul\":8420:8839   */\n      swap2\n      swap1\n      pop\n      jump\t// out\n        /* \"#utility.yul\":8845:9214   */\n    tag_20:\n        /* \"#utility.yul\":8986:8990   */\n      0x00\n        /* \"#utility.yul\":9024:9026   */\n      0x20\n        /* \"#utility.yul\":9013:9022   */\n      dup3\n        /* \"#utility.yul\":9009:9027   */\n      add\n        /* \"#utility.yul\":9001:9027   */\n      swap1\n      pop\n        /* \"#utility.yul\":9073:9082   */\n      dup2\n        /* \"#utility.yul\":9067:9071   */\n      dup2\n        /* \"#utility.yul\":9063:9083   */\n      sub\n        /* \"#utility.yul\":9059:9060   */\n      0x00\n        /* \"#utility.yul\":9048:9057   */\n      dup4\n        /* \"#utility.yul\":9044:9061   */\n      add\n        /* \"#utility.yul\":9037:9084   */\n      mstore\n        /* \"#utility.yul\":9101:9207   */\n      tag_207\n        /* \"#utility.yul\":9202:9206   */\n      dup2\n        /* \"#utility.yul\":9193:9199   */\n      dup5\n        /* \"#utility.yul\":9101:9207   */\n      tag_187\n      jump\t// in\n    tag_207:\n        /* \"#utility.yul\":9093:9207   */\n      swap1\n      pop\n        /* \"#utility.yul\":8845:9214   */\n      swap3\n      swap2\n      pop\n      pop\n      jump\t// out\n        /* \"#utility.yul\":9220:9601   */\n    tag_14:\n        /* \"#utility.yul\":9367:9371   */\n      0x00\n        /* \"#utility.yul\":9405:9407   */\n      0x20\n        /* \"#utility.yul\":9394:9403   */\n      dup3\n        /* \"#utility.yul\":9390:9408   */\n      add\n        /* \"#utility.yul\":9382:9408   */\n      swap1\n      pop\n        /* \"#utility.yul\":9454:9463   */\n      dup2\n        /* \"#utility.yul\":9448:9452   */\n      dup2\n        /* \"#utility.yul\":9444:9464   */\n      sub\n        /* \"#utility.yul\":9440:9441   */\n      0x00\n        /* \"#utility.yul\":9429:9438   */\n      dup4\n        /* \"#utility.yul\":9425:9442   */\n      add\n        /* \"#utility.yul\":9418:9465   */\n      mstore\n        /* \"#utility.yul\":9482:9594   */\n      tag_209\n        /* \"#utility.yul\":9589:9593   */\n      dup2\n        /* \"#utility.yul\":9580:9586   */\n      dup5\n        /* \"#utility.yul\":9482:9594   */\n      tag_193\n      jump\t// in\n    tag_209:\n        /* \"#utility.yul\":9474:9594   */\n      swap1\n      pop\n        /* \"#utility.yul\":9220:9601   */\n      swap3\n      swap2\n      pop\n      pop\n      jump\t// out\n        /* \"#utility.yul\":9607:9736   */\n    tag_104:\n        /* \"#utility.yul\":9641:9647   */\n      0x00\n        /* \"#utility.yul\":9668:9688   */\n      tag_211\n      tag_212\n      jump\t// in\n    tag_211:\n        /* \"#utility.yul\":9658:9688   */\n      swap1\n      pop\n        /* \"#utility.yul\":9697:9730   */\n      tag_213\n        /* \"#utility.yul\":9725:9729   */\n      dup3\n        /* \"#utility.yul\":9717:9723   */\n      dup3\n        /* \"#utility.yul\":9697:9730   */\n      tag_214\n      jump\t// in\n    tag_213:\n        /* \"#utility.yul\":9607:9736   */\n      swap2\n      swap1\n      pop\n      jump\t// out\n        /* \"#utility.yul\":9742:9817   */\n    tag_212:\n        /* \"#utility.yul\":9775:9781   */\n      0x00\n        /* \"#utility.yul\":9808:9810   */\n      0x40\n        /* \"#utility.yul\":9802:9811   */\n      mload\n        /* \"#utility.yul\":9792:9811   */\n      swap1\n      pop\n        /* \"#utility.yul\":9742:9817   */\n      swap1\n      jump\t// out\n        /* \"#utility.yul\":9823:10131   */\n    tag_103:\n        /* \"#utility.yul\":9885:9889   */\n      0x00\n        /* \"#utility.yul\":9975:9993   */\n      0xffffffffffffffff\n        /* \"#utility.yul\":9967:9973   */\n      dup3\n        /* \"#utility.yul\":9964:9994   */\n      gt\n        /* \"#utility.yul\":9961:10017   */\n      iszero\n      tag_217\n      jumpi\n        /* \"#utility.yul\":9997:10015   */\n      tag_218\n      tag_219\n      jump\t// in\n    tag_218:\n        /* \"#utility.yul\":9961:10017   */\n    tag_217:\n        /* \"#utility.yul\":10035:10064   */\n      tag_220\n        /* \"#utility.yul\":10057:10063   */\n      dup3\n        /* \"#utility.yul\":10035:10064   */\n      tag_175\n      jump\t// in\n    tag_220:\n        /* \"#utility.yul\":10027:10064   */\n      swap1\n      pop\n        /* \"#utility.yul\":10119:10123   */\n      0x20\n        /* \"#utility.yul\":10113:10117   */\n      dup2\n        /* \"#utility.yul\":10109:10124   */\n      add\n        /* \"#utility.yul\":10101:10124   */\n      swap1\n      pop\n        /* \"#utility.yul\":9823:10131   */\n      swap2\n      swap1\n      pop\n      jump\t// out\n        /* \"#utility.yul\":10137:10236   */\n    tag_169:\n        /* \"#utility.yul\":10189:10195   */\n      0x00\n        /* \"#utility.yul\":10223:10228   */\n      dup2\n        /* \"#utility.yul\":10217:10229   */\n      mload\n        /* \"#utility.yul\":10207:10229   */\n      swap1\n      pop\n        /* \"#utility.yul\":10137:10236   */\n      swap2\n      swap1\n      pop\n      jump\t// out\n        /* \"#utility.yul\":10242:10401   */\n    tag_171:\n        /* \"#utility.yul\":10316:10327   */\n      0x00\n        /* \"#utility.yul\":10350:10356   */\n      dup3\n        /* \"#utility.yul\":10345:10348   */\n      dup3\n        /* \"#utility.yul\":10338:10357   */\n      mstore\n        /* \"#utility.yul\":10390:10394   */\n      0x20\n        /* \"#utility.yul\":10385:10388   */\n      dup3\n        /* \"#utility.yul\":10381:10395   */\n      add\n        /* \"#utility.yul\":10366:10395   */\n      swap1\n      pop\n        /* \"#utility.yul\":10242:10401   */\n      swap3\n      swap2\n      pop\n      pop\n      jump\t// out\n        /* \"#utility.yul\":10407:10576   */\n    tag_179:\n        /* \"#utility.yul\":10491:10502   */\n      0x00\n        /* \"#utility.yul\":10525:10531   */\n      dup3\n        /* \"#utility.yul\":10520:10523   */\n      dup3\n        /* \"#utility.yul\":10513:10532   */\n      mstore\n        /* \"#utility.yul\":10565:10569   */\n      0x20\n        /* \"#utility.yul\":10560:10563   */\n      dup3\n        /* \"#utility.yul\":10556:10570   */\n      add\n        /* \"#utility.yul\":10541:10570   */\n      swap1\n      pop\n        /* \"#utility.yul\":10407:10576   */\n      swap3\n      swap2\n      pop\n      pop\n      jump\t// out\n        /* \"#utility.yul\":10582:10678   */\n    tag_224:\n        /* \"#utility.yul\":10619:10626   */\n      0x00\n        /* \"#utility.yul\":10648:10672   */\n      tag_226\n        /* \"#utility.yul\":10666:10671   */\n      dup3\n        /* \"#utility.yul\":10648:10672   */\n      tag_227\n      jump\t// in\n    tag_226:\n        /* \"#utility.yul\":10637:10672   */\n      swap1\n      pop\n        /* \"#utility.yul\":10582:10678   */\n      swap2\n      swap1\n      pop\n      jump\t// out\n        /* \"#utility.yul\":10684:10788   */\n    tag_228:\n        /* \"#utility.yul\":10729:10736   */\n      0x00\n        /* \"#utility.yul\":10758:10782   */\n      tag_230\n        /* \"#utility.yul\":10776:10781   */\n      dup3\n        /* \"#utility.yul\":10758:10782   */\n      tag_227\n      jump\t// in\n    tag_230:\n        /* \"#utility.yul\":10747:10782   */\n      swap1\n      pop\n        /* \"#utility.yul\":10684:10788   */\n      swap2\n      swap1\n      pop\n      jump\t// out\n        /* \"#utility.yul\":10794:10920   */\n    tag_227:\n        /* \"#utility.yul\":10831:10838   */\n      0x00\n        /* \"#utility.yul\":10871:10913   */\n      0xffffffffffffffffffffffffffffffffffffffff\n        /* \"#utility.yul\":10864:10869   */\n      dup3\n        /* \"#utility.yul\":10860:10914   */\n      and\n        /* \"#utility.yul\":10849:10914   */\n      swap1\n      pop\n        /* \"#utility.yul\":10794:10920   */\n      swap2\n      swap1\n      pop\n      jump\t// out\n        /* \"#utility.yul\":10926:11003   */\n    tag_201:\n        /* \"#utility.yul\":10963:10970   */\n      0x00\n        /* \"#utility.yul\":10992:10997   */\n      dup2\n        /* \"#utility.yul\":10981:10997   */\n      swap1\n      pop\n        /* \"#utility.yul\":10926:11003   */\n      swap2\n      swap1\n      pop\n      jump\t// out\n        /* \"#utility.yul\":11009:11163   */\n    tag_109:\n        /* \"#utility.yul\":11093:11099   */\n      dup3\n        /* \"#utility.yul\":11088:11091   */\n      dup2\n        /* \"#utility.yul\":11083:11086   */\n      dup4\n        /* \"#utility.yul\":11070:11100   */\n      calldatacopy\n        /* \"#utility.yul\":11155:11156   */\n      0x00\n        /* \"#utility.yul\":11146:11152   */\n      dup4\n        /* \"#utility.yul\":11141:11144   */\n      dup4\n        /* \"#utility.yul\":11137:11153   */\n      add\n        /* \"#utility.yul\":11130:11157   */\n      mstore\n        /* \"#utility.yul\":11009:11163   */\n      pop\n      pop\n      pop\n      jump\t// out\n        /* \"#utility.yul\":11169:11476   */\n    tag_173:\n        /* \"#utility.yul\":11237:11238   */\n      0x00\n        /* \"#utility.yul\":11247:11360   */\n    tag_235:\n        /* \"#utility.yul\":11261:11267   */\n      dup4\n        /* \"#utility.yul\":11258:11259   */\n      dup2\n        /* \"#utility.yul\":11255:11268   */\n      lt\n        /* \"#utility.yul\":11247:11360   */\n      iszero\n      tag_237\n      jumpi\n        /* \"#utility.yul\":11346:11347   */\n      dup1\n        /* \"#utility.yul\":11341:11344   */\n      dup3\n        /* \"#utility.yul\":11337:11348   */\n      add\n        /* \"#utility.yul\":11331:11349   */\n      mload\n        /* \"#utility.yul\":11327:11328   */\n      dup2\n        /* \"#utility.yul\":11322:11325   */\n      dup5\n        /* \"#utility.yul\":11318:11329   */\n      add\n        /* \"#utility.yul\":11311:11350   */\n      mstore\n        /* \"#utility.yul\":11283:11285   */\n      0x20\n        /* \"#utility.yul\":11280:11281   */\n      dup2\n        /* \"#utility.yul\":11276:11286   */\n      add\n        /* \"#utility.yul\":11271:11286   */\n      swap1\n      pop\n        /* \"#utility.yul\":11247:11360   */\n      jump(tag_235)\n    tag_237:\n        /* \"#utility.yul\":11378:11384   */\n      dup4\n        /* \"#utility.yul\":11375:11376   */\n      dup2\n        /* \"#utility.yul\":11372:11385   */\n      gt\n        /* \"#utility.yul\":11369:11470   */\n      iszero\n      tag_238\n      jumpi\n        /* \"#utility.yul\":11458:11459   */\n      0x00\n        /* \"#utility.yul\":11449:11455   */\n      dup5\n        /* \"#utility.yul\":11444:11447   */\n      dup5\n        /* \"#utility.yul\":11440:11456   */\n      add\n        /* \"#utility.yul\":11433:11460   */\n      mstore\n        /* \"#utility.yul\":11369:11470   */\n    tag_238:\n        /* \"#utility.yul\":11218:11476   */\n      pop\n        /* \"#utility.yul\":11169:11476   */\n      pop\n      pop\n      pop\n      jump\t// out\n        /* \"#utility.yul\":11482:11802   */\n    tag_46:\n        /* \"#utility.yul\":11526:11532   */\n      0x00\n        /* \"#utility.yul\":11563:11564   */\n      0x02\n        /* \"#utility.yul\":11557:11561   */\n      dup3\n        /* \"#utility.yul\":11553:11565   */\n      div\n        /* \"#utility.yul\":11543:11565   */\n      swap1\n      pop\n        /* \"#utility.yul\":11610:11611   */\n      0x01\n        /* \"#utility.yul\":11604:11608   */\n      dup3\n        /* \"#utility.yul\":11600:11612   */\n      and\n        /* \"#utility.yul\":11631:11649   */\n      dup1\n        /* \"#utility.yul\":11621:11702   */\n      tag_240\n      jumpi\n        /* \"#utility.yul\":11687:11691   */\n      0x7f\n        /* \"#utility.yul\":11679:11685   */\n      dup3\n        /* \"#utility.yul\":11675:11692   */\n      and\n        /* \"#utility.yul\":11665:11692   */\n      swap2\n      pop\n        /* \"#utility.yul\":11621:11702   */\n    tag_240:\n        /* \"#utility.yul\":11749:11751   */\n      0x20\n        /* \"#utility.yul\":11741:11747   */\n      dup3\n        /* \"#utility.yul\":11738:11752   */\n      lt\n        /* \"#utility.yul\":11718:11736   */\n      dup2\n        /* \"#utility.yul\":11715:11753   */\n      eq\n        /* \"#utility.yul\":11712:11796   */\n      iszero\n      tag_241\n      jumpi\n        /* \"#utility.yul\":11768:11786   */\n      tag_242\n      tag_243\n      jump\t// in\n    tag_242:\n        /* \"#utility.yul\":11712:11796   */\n    tag_241:\n        /* \"#utility.yul\":11533:11802   */\n      pop\n        /* \"#utility.yul\":11482:11802   */\n      swap2\n      swap1\n      pop\n      jump\t// out\n        /* \"#utility.yul\":11808:12089   */\n    tag_214:\n        /* \"#utility.yul\":11891:11918   */\n      tag_245\n        /* \"#utility.yul\":11913:11917   */\n      dup3\n        /* \"#utility.yul\":11891:11918   */\n      tag_175\n      jump\t// in\n    tag_245:\n        /* \"#utility.yul\":11883:11889   */\n      dup2\n        /* \"#utility.yul\":11879:11919   */\n      add\n        /* \"#utility.yul\":12021:12027   */\n      dup2\n        /* \"#utility.yul\":12009:12019   */\n      dup2\n        /* \"#utility.yul\":12006:12028   */\n      lt\n        /* \"#utility.yul\":11985:12003   */\n      0xffffffffffffffff\n        /* \"#utility.yul\":11973:11983   */\n      dup3\n        /* \"#utility.yul\":11970:12004   */\n      gt\n        /* \"#utility.yul\":11967:12029   */\n      or\n        /* \"#utility.yul\":11964:12052   */\n      iszero\n      tag_246\n      jumpi\n        /* \"#utility.yul\":12032:12050   */\n      tag_247\n      tag_219\n      jump\t// in\n    tag_247:\n        /* \"#utility.yul\":11964:12052   */\n    tag_246:\n        /* \"#utility.yul\":12072:12082   */\n      dup1\n        /* \"#utility.yul\":12068:12070   */\n      0x40\n        /* \"#utility.yul\":12061:12083   */\n      mstore\n        /* \"#utility.yul\":11851:12089   */\n      pop\n        /* \"#utility.yul\":11808:12089   */\n      pop\n      pop\n      jump\t// out\n        /* \"#utility.yul\":12095:12275   */\n    tag_243:\n        /* \"#utility.yul\":12143:12220   */\n      0x4e487b7100000000000000000000000000000000000000000000000000000000\n        /* \"#utility.yul\":12140:12141   */\n      0x00\n        /* \"#utility.yul\":12133:12221   */\n      mstore\n        /* \"#utility.yul\":12240:12244   */\n      0x22\n        /* \"#utility.yul\":12237:12238   */\n      0x04\n        /* \"#utility.yul\":12230:12245   */\n      mstore\n        /* \"#utility.yul\":12264:12268   */\n      0x24\n        /* \"#utility.yul\":12261:12262   */\n      0x00\n        /* \"#utility.yul\":12254:12269   */\n      revert\n        /* \"#utility.yul\":12281:12461   */\n    tag_219:\n        /* \"#utility.yul\":12329:12406   */\n      0x4e487b7100000000000000000000000000000000000000000000000000000000\n        /* \"#utility.yul\":12326:12327   */\n      0x00\n        /* \"#utility.yul\":12319:12407   */\n      mstore\n        /* \"#utility.yul\":12426:12430   */\n      0x41\n        /* \"#utility.yul\":12423:12424   */\n      0x04\n        /* \"#utility.yul\":12416:12431   */\n      mstore\n        /* \"#utility.yul\":12450:12454   */\n      0x24\n        /* \"#utility.yul\":12447:12448   */\n      0x00\n        /* \"#utility.yul\":12440:12455   */\n      revert\n        /* \"#utility.yul\":12467:12584   */\n    tag_122:\n        /* \"#utility.yul\":12576:12577   */\n      0x00\n        /* \"#utility.yul\":12573:12574   */\n      dup1\n        /* \"#utility.yul\":12566:12578   */\n      revert\n        /* \"#utility.yul\":12590:12707   */\n    tag_107:\n        /* \"#utility.yul\":12699:12700   */\n      0x00\n        /* \"#utility.yul\":12696:12697   */\n      dup1\n        /* \"#utility.yul\":12689:12701   */\n      revert\n        /* \"#utility.yul\":12713:12830   */\n    tag_145:\n        /* \"#utility.yul\":12822:12823   */\n      0x00\n        /* \"#utility.yul\":12819:12820   */\n      dup1\n        /* \"#utility.yul\":12812:12824   */\n      revert\n        /* \"#utility.yul\":12836:12953   */\n    tag_131:\n        /* \"#utility.yul\":12945:12946   */\n      0x00\n        /* \"#utility.yul\":12942:12943   */\n      dup1\n        /* \"#utility.yul\":12935:12947   */\n      revert\n        /* \"#utility.yul\":12959:13061   */\n    tag_175:\n        /* \"#utility.yul\":13000:13006   */\n      0x00\n        /* \"#utility.yul\":13051:13053   */\n      0x1f\n        /* \"#utility.yul\":13047:13054   */\n      not\n        /* \"#utility.yul\":13042:13044   */\n      0x1f\n        /* \"#utility.yul\":13035:13040   */\n      dup4\n        /* \"#utility.yul\":13031:13045   */\n      add\n        /* \"#utility.yul\":13027:13055   */\n      and\n        /* \"#utility.yul\":13017:13055   */\n      swap1\n      pop\n        /* \"#utility.yul\":12959:13061   */\n      swap2\n      swap1\n      pop\n      jump\t// out\n        /* \"#utility.yul\":13067:13246   */\n    tag_181:\n        /* \"#utility.yul\":13207:13238   */\n      0x596f7520617265206e6f74206c616e646f66666963652073746166662e000000\n        /* \"#utility.yul\":13203:13204   */\n      0x00\n        /* \"#utility.yul\":13195:13201   */\n      dup3\n        /* \"#utility.yul\":13191:13205   */\n      add\n        /* \"#utility.yul\":13184:13239   */\n      mstore\n        /* \"#utility.yul\":13067:13246   */\n      pop\n      jump\t// out\n        /* \"#utility.yul\":13252:13431   */\n    tag_186:\n        /* \"#utility.yul\":13392:13423   */\n      0x496e73756666696369656e742066756e6420666f722072656465656d2e000000\n        /* \"#utility.yul\":13388:13389   */\n      0x00\n        /* \"#utility.yul\":13380:13386   */\n      dup3\n        /* \"#utility.yul\":13376:13390   */\n      add\n        /* \"#utility.yul\":13369:13424   */\n      mstore\n        /* \"#utility.yul\":13252:13431   */\n      pop\n      jump\t// out\n        /* \"#utility.yul\":13437:13559   */\n    tag_113:\n        /* \"#utility.yul\":13510:13534   */\n      tag_258\n        /* \"#utility.yul\":13528:13533   */\n      dup2\n        /* \"#utility.yul\":13510:13534   */\n      tag_224\n      jump\t// in\n    tag_258:\n        /* \"#utility.yul\":13503:13508   */\n      dup2\n        /* \"#utility.yul\":13500:13535   */\n      eq\n        /* \"#utility.yul\":13490:13553   */\n      tag_259\n      jumpi\n        /* \"#utility.yul\":13549:13550   */\n      0x00\n        /* \"#utility.yul\":13546:13547   */\n      dup1\n        /* \"#utility.yul\":13539:13551   */\n      revert\n        /* \"#utility.yul\":13490:13553   */\n    tag_259:\n        /* \"#utility.yul\":13437:13559   */\n      pop\n      jump\t// out\n        /* \"#utility.yul\":13565:13703   */\n    tag_117:\n        /* \"#utility.yul\":13646:13678   */\n      tag_261\n        /* \"#utility.yul\":13672:13677   */\n      dup2\n        /* \"#utility.yul\":13646:13678   */\n      tag_228\n      jump\t// in\n    tag_261:\n        /* \"#utility.yul\":13639:13644   */\n      dup2\n        /* \"#utility.yul\":13636:13679   */\n      eq\n        /* \"#utility.yul\":13626:13697   */\n      tag_262\n      jumpi\n        /* \"#utility.yul\":13693:13694   */\n      0x00\n        /* \"#utility.yul\":13690:13691   */\n      dup1\n        /* \"#utility.yul\":13683:13695   */\n      revert\n        /* \"#utility.yul\":13626:13697   */\n    tag_262:\n        /* \"#utility.yul\":13565:13703   */\n      pop\n      jump\t// out\n        /* \"#utility.yul\":13709:13831   */\n    tag_127:\n        /* \"#utility.yul\":13782:13806   */\n      tag_264\n        /* \"#utility.yul\":13800:13805   */\n      dup2\n        /* \"#utility.yul\":13782:13806   */\n      tag_201\n      jump\t// in\n    tag_264:\n        /* \"#utility.yul\":13775:13780   */\n      dup2\n        /* \"#utility.yul\":13772:13807   */\n      eq\n        /* \"#utility.yul\":13762:13825   */\n      tag_265\n      jumpi\n        /* \"#utility.yul\":13821:13822   */\n      0x00\n        /* \"#utility.yul\":13818:13819   */\n      dup1\n        /* \"#utility.yul\":13811:13823   */\n      revert\n        /* \"#utility.yul\":13762:13825   */\n    tag_265:\n        /* \"#utility.yul\":13709:13831   */\n      pop\n      jump\t// out\n\n    auxdata: 0xa2646970667358221220f3489d419427efb29ed54df16636938eaa67a4afb7c3128a006983525c79225c64736f6c63430008070033\n}\n",
				"bytecode": {
					"linkReferences": {},
					"object": "608060405234801561001057600080fd5b50336000806101000a81548173ffffffffffffffffffffffffffffffffffffffff021916908373ffffffffffffffffffffffffffffffffffffffff160217905550611323806100606000396000f3fe6080604052600436106100555760003560e01c8063198e86c61461005a578063215271cb14610097578063868571ef146100d45780638f1e4afa146100fd578063935656c214610119578063f340fa0114610135575b600080fd5b34801561006657600080fd5b50610081600480360381019061007c9190610ca1565b610151565b60405161008e919061103b565b60405180910390f35b3480156100a357600080fd5b506100be60048036038101906100b99190610ca1565b6102e8565b6040516100cb9190611019565b60405180910390f35b3480156100e057600080fd5b506100fb60048036038101906100f69190610d92565b610475565b005b61011760048036038101906101129190610cfb565b6106da565b005b610133600480360381019061012e9190610e01565b6108f2565b005b61014f600480360381019061014a9190610cce565b610ab3565b005b610159610b06565b60008054906101000a900473ffffffffffffffffffffffffffffffffffffffff1673ffffffffffffffffffffffffffffffffffffffff163373ffffffffffffffffffffffffffffffffffffffff16146101e7576040517f08c379a00000000000000000000000000000000000000000000000000000000081526004016101de90610fd9565b60405180910390fd5b600160008373ffffffffffffffffffffffffffffffffffffffff1673ffffffffffffffffffffffffffffffffffffffff1681526020019081526020016000206040518060800160405290816000820154815260200160018201805461024b90611170565b80601f016020809104026020016040519081016040528092919081815260200182805461027790611170565b80156102c45780601f10610299576101008083540402835291602001916102c4565b820191906000526020600020905b8154815290600101906020018083116102a757829003601f168201915b50505050508152602001600282015481526020016003820154815250509050919050565b6102f0610b2e565b60008054906101000a900473ffffffffffffffffffffffffffffffffffffffff1673ffffffffffffffffffffffffffffffffffffffff163373ffffffffffffffffffffffffffffffffffffffff161461037e576040517f08c379a000000000000000000000000000000000000000000000000000000000815260040161037590610fd9565b60405180910390fd5b600260008373ffffffffffffffffffffffffffffffffffffffff1673ffffffffffffffffffffffffffffffffffffffff168152602001908152602001600020604051806060016040529081600082015481526020016001820180546103e290611170565b80601f016020809104026020016040519081016040528092919081815260200182805461040e90611170565b801561045b5780601f106104305761010080835404028352916020019161045b565b820191906000526020600020905b81548152906001019060200180831161043e57829003601f168201915b505050505081526020016002820154815250509050919050565b60008054906101000a900473ffffffffffffffffffffffffffffffffffffffff1673ffffffffffffffffffffffffffffffffffffffff163373ffffffffffffffffffffffffffffffffffffffff1614610503576040517f08c379a00000000000000000000000000000000000000000000000000000000081526004016104fa90610fd9565b60405180910390fd5b80600260008573ffffffffffffffffffffffffffffffffffffffff1673ffffffffffffffffffffffffffffffffffffffff168152602001908152602001600020600201541015610588576040517f08c379a000000000000000000000000000000000000000000000000000000000815260040161057f90610ff9565b60405180910390fd5b81600160008573ffffffffffffffffffffffffffffffffffffffff1673ffffffffffffffffffffffffffffffffffffffff16815260200190815260200160002060010190805190602001906105de929190610b4f565b506000600260008573ffffffffffffffffffffffffffffffffffffffff1673ffffffffffffffffffffffffffffffffffffffff1681526020019081526020016000206000018190555060405180602001604052806000815250600260008573ffffffffffffffffffffffffffffffffffffffff1673ffffffffffffffffffffffffffffffffffffffff168152602001908152602001600020600101908051906020019061068c929190610b4f565b506000600260008573ffffffffffffffffffffffffffffffffffffffff1673ffffffffffffffffffffffffffffffffffffffff16815260200190815260200160002060020181905550505050565b60008054906101000a900473ffffffffffffffffffffffffffffffffffffffff1673ffffffffffffffffffffffffffffffffffffffff163373ffffffffffffffffffffffffffffffffffffffff1614610768576040517f08c379a000000000000000000000000000000000000000000000000000000000815260040161075f90610fd9565b60405180910390fd5b81600160008773ffffffffffffffffffffffffffffffffffffffff1673ffffffffffffffffffffffffffffffffffffffff16815260200190815260200160002060010190805190602001906107be929190610b4f565b5082600260008773ffffffffffffffffffffffffffffffffffffffff1673ffffffffffffffffffffffffffffffffffffffff1681526020019081526020016000206000018190555081600260008773ffffffffffffffffffffffffffffffffffffffff1673ffffffffffffffffffffffffffffffffffffffff168152602001908152602001600020600101908051906020019061085c929190610b4f565b5080600260008773ffffffffffffffffffffffffffffffffffffffff1673ffffffffffffffffffffffffffffffffffffffff168152602001908152602001600020600201819055508373ffffffffffffffffffffffffffffffffffffffff166108fc829081150290604051600060405180830381858888f193505050501580156108ea573d6000803e3d6000fd5b505050505050565b60008054906101000a900473ffffffffffffffffffffffffffffffffffffffff1673ffffffffffffffffffffffffffffffffffffffff163373ffffffffffffffffffffffffffffffffffffffff1614610980576040517f08c379a000000000000000000000000000000000000000000000000000000000815260040161097790610fd9565b60405180910390fd5b83600160008773ffffffffffffffffffffffffffffffffffffffff1673ffffffffffffffffffffffffffffffffffffffff1681526020019081526020016000206000018190555082600160008773ffffffffffffffffffffffffffffffffffffffff1673ffffffffffffffffffffffffffffffffffffffff1681526020019081526020016000206001019080519060200190610a1d929190610b4f565b5081600160008773ffffffffffffffffffffffffffffffffffffffff1673ffffffffffffffffffffffffffffffffffffffff1681526020019081526020016000206002018190555080600160008773ffffffffffffffffffffffffffffffffffffffff1673ffffffffffffffffffffffffffffffffffffffff168152602001908152602001600020600301819055505050505050565b8073ffffffffffffffffffffffffffffffffffffffff166108fc6802b5e3af16b18800009081150290604051600060405180830381858888f19350505050158015610b02573d6000803e3d6000fd5b5050565b6040518060800160405280600081526020016060815260200160008152602001600081525090565b60405180606001604052806000815260200160608152602001600081525090565b828054610b5b90611170565b90600052602060002090601f016020900481019282610b7d5760008555610bc4565b82601f10610b9657805160ff1916838001178555610bc4565b82800160010185558215610bc4579182015b82811115610bc3578251825591602001919060010190610ba8565b5b509050610bd19190610bd5565b5090565b5b80821115610bee576000816000905550600101610bd6565b5090565b6000610c05610c0084611082565b61105d565b905082815260208101848484011115610c2157610c20611236565b5b610c2c84828561112e565b509392505050565b600081359050610c43816112a8565b92915050565b600081359050610c58816112bf565b92915050565b600082601f830112610c7357610c72611231565b5b8135610c83848260208601610bf2565b91505092915050565b600081359050610c9b816112d6565b92915050565b600060208284031215610cb757610cb6611240565b5b6000610cc584828501610c34565b91505092915050565b600060208284031215610ce457610ce3611240565b5b6000610cf284828501610c49565b91505092915050565b600080600080600060a08688031215610d1757610d16611240565b5b6000610d2588828901610c34565b9550506020610d3688828901610c34565b9450506040610d4788828901610c8c565b935050606086013567ffffffffffffffff811115610d6857610d6761123b565b5b610d7488828901610c5e565b9250506080610d8588828901610c8c565b9150509295509295909350565b600080600060608486031215610dab57610daa611240565b5b6000610db986828701610c34565b935050602084013567ffffffffffffffff811115610dda57610dd961123b565b5b610de686828701610c5e565b9250506040610df786828701610c8c565b9150509250925092565b600080600080600060a08688031215610e1d57610e1c611240565b5b6000610e2b88828901610c34565b9550506020610e3c88828901610c8c565b945050604086013567ffffffffffffffff811115610e5d57610e5c61123b565b5b610e6988828901610c5e565b9350506060610e7a88828901610c8c565b9250506080610e8b88828901610c8c565b9150509295509295909350565b6000610ea3826110b3565b610ead81856110be565b9350610ebd81856020860161113d565b610ec681611245565b840191505092915050565b6000610ede601d836110cf565b9150610ee982611256565b602082019050919050565b6000610f01601d836110cf565b9150610f0c8261127f565b602082019050919050565b6000606083016000830151610f2f6000860182610fca565b5060208301518482036020860152610f478282610e98565b9150506040830151610f5c6040860182610fca565b508091505092915050565b6000608083016000830151610f7f6000860182610fca565b5060208301518482036020860152610f978282610e98565b9150506040830151610fac6040860182610fca565b506060830151610fbf6060860182610fca565b508091505092915050565b610fd381611124565b82525050565b60006020820190508181036000830152610ff281610ed1565b9050919050565b6000602082019050818103600083015261101281610ef4565b9050919050565b600060208201905081810360008301526110338184610f17565b905092915050565b600060208201905081810360008301526110558184610f67565b905092915050565b6000611067611078565b905061107382826111a2565b919050565b6000604051905090565b600067ffffffffffffffff82111561109d5761109c611202565b5b6110a682611245565b9050602081019050919050565b600081519050919050565b600082825260208201905092915050565b600082825260208201905092915050565b60006110eb82611104565b9050919050565b60006110fd82611104565b9050919050565b600073ffffffffffffffffffffffffffffffffffffffff82169050919050565b6000819050919050565b82818337600083830152505050565b60005b8381101561115b578082015181840152602081019050611140565b8381111561116a576000848401525b50505050565b6000600282049050600182168061118857607f821691505b6020821081141561119c5761119b6111d3565b5b50919050565b6111ab82611245565b810181811067ffffffffffffffff821117156111ca576111c9611202565b5b80604052505050565b7f4e487b7100000000000000000000000000000000000000000000000000000000600052602260045260246000fd5b7f4e487b7100000000000000000000000000000000000000000000000000000000600052604160045260246000fd5b600080fd5b600080fd5b600080fd5b600080fd5b6000601f19601f8301169050919050565b7f596f7520617265206e6f74206c616e646f66666963652073746166662e000000600082015250565b7f496e73756666696369656e742066756e6420666f722072656465656d2e000000600082015250565b6112b1816110e0565b81146112bc57600080fd5b50565b6112c8816110f2565b81146112d357600080fd5b50565b6112df81611124565b81146112ea57600080fd5b5056fea2646970667358221220f3489d419427efb29ed54df16636938eaa67a4afb7c3128a006983525c79225c64736f6c63430008070033",
					"opcodes": "PUSH1 0x80 PUSH1 0x40 MSTORE CALLVALUE DUP1 ISZERO PUSH2 0x10 JUMPI PUSH1 0x0 DUP1 REVERT JUMPDEST POP CALLER PUSH1 0x0 DUP1 PUSH2 0x100 EXP DUP2 SLOAD DUP2 PUSH20 0xFFFFFFFFFFFFFFFFFFFFFFFFFFFFFFFFFFFFFFFF MUL NOT AND SWAP1 DUP4 PUSH20 0xFFFFFFFFFFFFFFFFFFFFFFFFFFFFFFFFFFFFFFFF AND MUL OR SWAP1 SSTORE POP PUSH2 0x1323 DUP1 PUSH2 0x60 PUSH1 0x0 CODECOPY PUSH1 0x0 RETURN INVALID PUSH1 0x80 PUSH1 0x40 MSTORE PUSH1 0x4 CALLDATASIZE LT PUSH2 0x55 JUMPI PUSH1 0x0 CALLDATALOAD PUSH1 0xE0 SHR DUP1 PUSH4 0x198E86C6 EQ PUSH2 0x5A JUMPI DUP1 PUSH4 0x215271CB EQ PUSH2 0x97 JUMPI DUP1 PUSH4 0x868571EF EQ PUSH2 0xD4 JUMPI DUP1 PUSH4 0x8F1E4AFA EQ PUSH2 0xFD JUMPI DUP1 PUSH4 0x935656C2 EQ PUSH2 0x119 JUMPI DUP1 PUSH4 0xF340FA01 EQ PUSH2 0x135 JUMPI JUMPDEST PUSH1 0x0 DUP1 REVERT JUMPDEST CALLVALUE DUP1 ISZERO PUSH2 0x66 JUMPI PUSH1 0x0 DUP1 REVERT JUMPDEST POP PUSH2 0x81 PUSH1 0x4 DUP1 CALLDATASIZE SUB DUP2 ADD SWAP1 PUSH2 0x7C SWAP2 SWAP1 PUSH2 0xCA1 JUMP JUMPDEST PUSH2 0x151 JUMP JUMPDEST PUSH1 0x40 MLOAD PUSH2 0x8E SWAP2 SWAP1 PUSH2 0x103B JUMP JUMPDEST PUSH1 0x40 MLOAD DUP1 SWAP2 SUB SWAP1 RETURN JUMPDEST CALLVALUE DUP1 ISZERO PUSH2 0xA3 JUMPI PUSH1 0x0 DUP1 REVERT JUMPDEST POP PUSH2 0xBE PUSH1 0x4 DUP1 CALLDATASIZE SUB DUP2 ADD SWAP1 PUSH2 0xB9 SWAP2 SWAP1 PUSH2 0xCA1 JUMP JUMPDEST PUSH2 0x2E8 JUMP JUMPDEST PUSH1 0x40 MLOAD PUSH2 0xCB SWAP2 SWAP1 PUSH2 0x1019 JUMP JUMPDEST PUSH1 0x40 MLOAD DUP1 SWAP2 SUB SWAP1 RETURN JUMPDEST CALLVALUE DUP1 ISZERO PUSH2 0xE0 JUMPI PUSH1 0x0 DUP1 REVERT JUMPDEST POP PUSH2 0xFB PUSH1 0x4 DUP1 CALLDATASIZE SUB DUP2 ADD SWAP1 PUSH2 0xF6 SWAP2 SWAP1 PUSH2 0xD92 JUMP JUMPDEST PUSH2 0x475 JUMP JUMPDEST STOP JUMPDEST PUSH2 0x117 PUSH1 0x4 DUP1 CALLDATASIZE SUB DUP2 ADD SWAP1 PUSH2 0x112 SWAP2 SWAP1 PUSH2 0xCFB JUMP JUMPDEST PUSH2 0x6DA JUMP JUMPDEST STOP JUMPDEST PUSH2 0x133 PUSH1 0x4 DUP1 CALLDATASIZE SUB DUP2 ADD SWAP1 PUSH2 0x12E SWAP2 SWAP1 PUSH2 0xE01 JUMP JUMPDEST PUSH2 0x8F2 JUMP JUMPDEST STOP JUMPDEST PUSH2 0x14F PUSH1 0x4 DUP1 CALLDATASIZE SUB DUP2 ADD SWAP1 PUSH2 0x14A SWAP2 SWAP1 PUSH2 0xCCE JUMP JUMPDEST PUSH2 0xAB3 JUMP JUMPDEST STOP JUMPDEST PUSH2 0x159 PUSH2 0xB06 JUMP JUMPDEST PUSH1 0x0 DUP1 SLOAD SWAP1 PUSH2 0x100 EXP SWAP1 DIV PUSH20 0xFFFFFFFFFFFFFFFFFFFFFFFFFFFFFFFFFFFFFFFF AND PUSH20 0xFFFFFFFFFFFFFFFFFFFFFFFFFFFFFFFFFFFFFFFF AND CALLER PUSH20 0xFFFFFFFFFFFFFFFFFFFFFFFFFFFFFFFFFFFFFFFF AND EQ PUSH2 0x1E7 JUMPI PUSH1 0x40 MLOAD PUSH32 0x8C379A000000000000000000000000000000000000000000000000000000000 DUP2 MSTORE PUSH1 0x4 ADD PUSH2 0x1DE SWAP1 PUSH2 0xFD9 JUMP JUMPDEST PUSH1 0x40 MLOAD DUP1 SWAP2 SUB SWAP1 REVERT JUMPDEST PUSH1 0x1 PUSH1 0x0 DUP4 PUSH20 0xFFFFFFFFFFFFFFFFFFFFFFFFFFFFFFFFFFFFFFFF AND PUSH20 0xFFFFFFFFFFFFFFFFFFFFFFFFFFFFFFFFFFFFFFFF AND DUP2 MSTORE PUSH1 0x20 ADD SWAP1 DUP2 MSTORE PUSH1 0x20 ADD PUSH1 0x0 KECCAK256 PUSH1 0x40 MLOAD DUP1 PUSH1 0x80 ADD PUSH1 0x40 MSTORE SWAP1 DUP2 PUSH1 0x0 DUP3 ADD SLOAD DUP2 MSTORE PUSH1 0x20 ADD PUSH1 0x1 DUP3 ADD DUP1 SLOAD PUSH2 0x24B SWAP1 PUSH2 0x1170 JUMP JUMPDEST DUP1 PUSH1 0x1F ADD PUSH1 0x20 DUP1 SWAP2 DIV MUL PUSH1 0x20 ADD PUSH1 0x40 MLOAD SWAP1 DUP2 ADD PUSH1 0x40 MSTORE DUP1 SWAP3 SWAP2 SWAP1 DUP2 DUP2 MSTORE PUSH1 0x20 ADD DUP3 DUP1 SLOAD PUSH2 0x277 SWAP1 PUSH2 0x1170 JUMP JUMPDEST DUP1 ISZERO PUSH2 0x2C4 JUMPI DUP1 PUSH1 0x1F LT PUSH2 0x299 JUMPI PUSH2 0x100 DUP1 DUP4 SLOAD DIV MUL DUP4 MSTORE SWAP2 PUSH1 0x20 ADD SWAP2 PUSH2 0x2C4 JUMP JUMPDEST DUP3 ADD SWAP2 SWAP1 PUSH1 0x0 MSTORE PUSH1 0x20 PUSH1 0x0 KECCAK256 SWAP1 JUMPDEST DUP2 SLOAD DUP2 MSTORE SWAP1 PUSH1 0x1 ADD SWAP1 PUSH1 0x20 ADD DUP1 DUP4 GT PUSH2 0x2A7 JUMPI DUP3 SWAP1 SUB PUSH1 0x1F AND DUP3 ADD SWAP2 JUMPDEST POP POP POP POP POP DUP2 MSTORE PUSH1 0x20 ADD PUSH1 0x2 DUP3 ADD SLOAD DUP2 MSTORE PUSH1 0x20 ADD PUSH1 0x3 DUP3 ADD SLOAD DUP2 MSTORE POP POP SWAP1 POP SWAP2 SWAP1 POP JUMP JUMPDEST PUSH2 0x2F0 PUSH2 0xB2E JUMP JUMPDEST PUSH1 0x0 DUP1 SLOAD SWAP1 PUSH2 0x100 EXP SWAP1 DIV PUSH20 0xFFFFFFFFFFFFFFFFFFFFFFFFFFFFFFFFFFFFFFFF AND PUSH20 0xFFFFFFFFFFFFFFFFFFFFFFFFFFFFFFFFFFFFFFFF AND CALLER PUSH20 0xFFFFFFFFFFFFFFFFFFFFFFFFFFFFFFFFFFFFFFFF AND EQ PUSH2 0x37E JUMPI PUSH1 0x40 MLOAD PUSH32 0x8C379A000000000000000000000000000000000000000000000000000000000 DUP2 MSTORE PUSH1 0x4 ADD PUSH2 0x375 SWAP1 PUSH2 0xFD9 JUMP JUMPDEST PUSH1 0x40 MLOAD DUP1 SWAP2 SUB SWAP1 REVERT JUMPDEST PUSH1 0x2 PUSH1 0x0 DUP4 PUSH20 0xFFFFFFFFFFFFFFFFFFFFFFFFFFFFFFFFFFFFFFFF AND PUSH20 0xFFFFFFFFFFFFFFFFFFFFFFFFFFFFFFFFFFFFFFFF AND DUP2 MSTORE PUSH1 0x20 ADD SWAP1 DUP2 MSTORE PUSH1 0x20 ADD PUSH1 0x0 KECCAK256 PUSH1 0x40 MLOAD DUP1 PUSH1 0x60 ADD PUSH1 0x40 MSTORE SWAP1 DUP2 PUSH1 0x0 DUP3 ADD SLOAD DUP2 MSTORE PUSH1 0x20 ADD PUSH1 0x1 DUP3 ADD DUP1 SLOAD PUSH2 0x3E2 SWAP1 PUSH2 0x1170 JUMP JUMPDEST DUP1 PUSH1 0x1F ADD PUSH1 0x20 DUP1 SWAP2 DIV MUL PUSH1 0x20 ADD PUSH1 0x40 MLOAD SWAP1 DUP2 ADD PUSH1 0x40 MSTORE DUP1 SWAP3 SWAP2 SWAP1 DUP2 DUP2 MSTORE PUSH1 0x20 ADD DUP3 DUP1 SLOAD PUSH2 0x40E SWAP1 PUSH2 0x1170 JUMP JUMPDEST DUP1 ISZERO PUSH2 0x45B JUMPI DUP1 PUSH1 0x1F LT PUSH2 0x430 JUMPI PUSH2 0x100 DUP1 DUP4 SLOAD DIV MUL DUP4 MSTORE SWAP2 PUSH1 0x20 ADD SWAP2 PUSH2 0x45B JUMP JUMPDEST DUP3 ADD SWAP2 SWAP1 PUSH1 0x0 MSTORE PUSH1 0x20 PUSH1 0x0 KECCAK256 SWAP1 JUMPDEST DUP2 SLOAD DUP2 MSTORE SWAP1 PUSH1 0x1 ADD SWAP1 PUSH1 0x20 ADD DUP1 DUP4 GT PUSH2 0x43E JUMPI DUP3 SWAP1 SUB PUSH1 0x1F AND DUP3 ADD SWAP2 JUMPDEST POP POP POP POP POP DUP2 MSTORE PUSH1 0x20 ADD PUSH1 0x2 DUP3 ADD SLOAD DUP2 MSTORE POP POP SWAP1 POP SWAP2 SWAP1 POP JUMP JUMPDEST PUSH1 0x0 DUP1 SLOAD SWAP1 PUSH2 0x100 EXP SWAP1 DIV PUSH20 0xFFFFFFFFFFFFFFFFFFFFFFFFFFFFFFFFFFFFFFFF AND PUSH20 0xFFFFFFFFFFFFFFFFFFFFFFFFFFFFFFFFFFFFFFFF AND CALLER PUSH20 0xFFFFFFFFFFFFFFFFFFFFFFFFFFFFFFFFFFFFFFFF AND EQ PUSH2 0x503 JUMPI PUSH1 0x40 MLOAD PUSH32 0x8C379A000000000000000000000000000000000000000000000000000000000 DUP2 MSTORE PUSH1 0x4 ADD PUSH2 0x4FA SWAP1 PUSH2 0xFD9 JUMP JUMPDEST PUSH1 0x40 MLOAD DUP1 SWAP2 SUB SWAP1 REVERT JUMPDEST DUP1 PUSH1 0x2 PUSH1 0x0 DUP6 PUSH20 0xFFFFFFFFFFFFFFFFFFFFFFFFFFFFFFFFFFFFFFFF AND PUSH20 0xFFFFFFFFFFFFFFFFFFFFFFFFFFFFFFFFFFFFFFFF AND DUP2 MSTORE PUSH1 0x20 ADD SWAP1 DUP2 MSTORE PUSH1 0x20 ADD PUSH1 0x0 KECCAK256 PUSH1 0x2 ADD SLOAD LT ISZERO PUSH2 0x588 JUMPI PUSH1 0x40 MLOAD PUSH32 0x8C379A000000000000000000000000000000000000000000000000000000000 DUP2 MSTORE PUSH1 0x4 ADD PUSH2 0x57F SWAP1 PUSH2 0xFF9 JUMP JUMPDEST PUSH1 0x40 MLOAD DUP1 SWAP2 SUB SWAP1 REVERT JUMPDEST DUP2 PUSH1 0x1 PUSH1 0x0 DUP6 PUSH20 0xFFFFFFFFFFFFFFFFFFFFFFFFFFFFFFFFFFFFFFFF AND PUSH20 0xFFFFFFFFFFFFFFFFFFFFFFFFFFFFFFFFFFFFFFFF AND DUP2 MSTORE PUSH1 0x20 ADD SWAP1 DUP2 MSTORE PUSH1 0x20 ADD PUSH1 0x0 KECCAK256 PUSH1 0x1 ADD SWAP1 DUP1 MLOAD SWAP1 PUSH1 0x20 ADD SWAP1 PUSH2 0x5DE SWAP3 SWAP2 SWAP1 PUSH2 0xB4F JUMP JUMPDEST POP PUSH1 0x0 PUSH1 0x2 PUSH1 0x0 DUP6 PUSH20 0xFFFFFFFFFFFFFFFFFFFFFFFFFFFFFFFFFFFFFFFF AND PUSH20 0xFFFFFFFFFFFFFFFFFFFFFFFFFFFFFFFFFFFFFFFF AND DUP2 MSTORE PUSH1 0x20 ADD SWAP1 DUP2 MSTORE PUSH1 0x20 ADD PUSH1 0x0 KECCAK256 PUSH1 0x0 ADD DUP2 SWAP1 SSTORE POP PUSH1 0x40 MLOAD DUP1 PUSH1 0x20 ADD PUSH1 0x40 MSTORE DUP1 PUSH1 0x0 DUP2 MSTORE POP PUSH1 0x2 PUSH1 0x0 DUP6 PUSH20 0xFFFFFFFFFFFFFFFFFFFFFFFFFFFFFFFFFFFFFFFF AND PUSH20 0xFFFFFFFFFFFFFFFFFFFFFFFFFFFFFFFFFFFFFFFF AND DUP2 MSTORE PUSH1 0x20 ADD SWAP1 DUP2 MSTORE PUSH1 0x20 ADD PUSH1 0x0 KECCAK256 PUSH1 0x1 ADD SWAP1 DUP1 MLOAD SWAP1 PUSH1 0x20 ADD SWAP1 PUSH2 0x68C SWAP3 SWAP2 SWAP1 PUSH2 0xB4F JUMP JUMPDEST POP PUSH1 0x0 PUSH1 0x2 PUSH1 0x0 DUP6 PUSH20 0xFFFFFFFFFFFFFFFFFFFFFFFFFFFFFFFFFFFFFFFF AND PUSH20 0xFFFFFFFFFFFFFFFFFFFFFFFFFFFFFFFFFFFFFFFF AND DUP2 MSTORE PUSH1 0x20 ADD SWAP1 DUP2 MSTORE PUSH1 0x20 ADD PUSH1 0x0 KECCAK256 PUSH1 0x2 ADD DUP2 SWAP1 SSTORE POP POP POP POP JUMP JUMPDEST PUSH1 0x0 DUP1 SLOAD SWAP1 PUSH2 0x100 EXP SWAP1 DIV PUSH20 0xFFFFFFFFFFFFFFFFFFFFFFFFFFFFFFFFFFFFFFFF AND PUSH20 0xFFFFFFFFFFFFFFFFFFFFFFFFFFFFFFFFFFFFFFFF AND CALLER PUSH20 0xFFFFFFFFFFFFFFFFFFFFFFFFFFFFFFFFFFFFFFFF AND EQ PUSH2 0x768 JUMPI PUSH1 0x40 MLOAD PUSH32 0x8C379A000000000000000000000000000000000000000000000000000000000 DUP2 MSTORE PUSH1 0x4 ADD PUSH2 0x75F SWAP1 PUSH2 0xFD9 JUMP JUMPDEST PUSH1 0x40 MLOAD DUP1 SWAP2 SUB SWAP1 REVERT JUMPDEST DUP2 PUSH1 0x1 PUSH1 0x0 DUP8 PUSH20 0xFFFFFFFFFFFFFFFFFFFFFFFFFFFFFFFFFFFFFFFF AND PUSH20 0xFFFFFFFFFFFFFFFFFFFFFFFFFFFFFFFFFFFFFFFF AND DUP2 MSTORE PUSH1 0x20 ADD SWAP1 DUP2 MSTORE PUSH1 0x20 ADD PUSH1 0x0 KECCAK256 PUSH1 0x1 ADD SWAP1 DUP1 MLOAD SWAP1 PUSH1 0x20 ADD SWAP1 PUSH2 0x7BE SWAP3 SWAP2 SWAP1 PUSH2 0xB4F JUMP JUMPDEST POP DUP3 PUSH1 0x2 PUSH1 0x0 DUP8 PUSH20 0xFFFFFFFFFFFFFFFFFFFFFFFFFFFFFFFFFFFFFFFF AND PUSH20 0xFFFFFFFFFFFFFFFFFFFFFFFFFFFFFFFFFFFFFFFF AND DUP2 MSTORE PUSH1 0x20 ADD SWAP1 DUP2 MSTORE PUSH1 0x20 ADD PUSH1 0x0 KECCAK256 PUSH1 0x0 ADD DUP2 SWAP1 SSTORE POP DUP2 PUSH1 0x2 PUSH1 0x0 DUP8 PUSH20 0xFFFFFFFFFFFFFFFFFFFFFFFFFFFFFFFFFFFFFFFF AND PUSH20 0xFFFFFFFFFFFFFFFFFFFFFFFFFFFFFFFFFFFFFFFF AND DUP2 MSTORE PUSH1 0x20 ADD SWAP1 DUP2 MSTORE PUSH1 0x20 ADD PUSH1 0x0 KECCAK256 PUSH1 0x1 ADD SWAP1 DUP1 MLOAD SWAP1 PUSH1 0x20 ADD SWAP1 PUSH2 0x85C SWAP3 SWAP2 SWAP1 PUSH2 0xB4F JUMP JUMPDEST POP DUP1 PUSH1 0x2 PUSH1 0x0 DUP8 PUSH20 0xFFFFFFFFFFFFFFFFFFFFFFFFFFFFFFFFFFFFFFFF AND PUSH20 0xFFFFFFFFFFFFFFFFFFFFFFFFFFFFFFFFFFFFFFFF AND DUP2 MSTORE PUSH1 0x20 ADD SWAP1 DUP2 MSTORE PUSH1 0x20 ADD PUSH1 0x0 KECCAK256 PUSH1 0x2 ADD DUP2 SWAP1 SSTORE POP DUP4 PUSH20 0xFFFFFFFFFFFFFFFFFFFFFFFFFFFFFFFFFFFFFFFF AND PUSH2 0x8FC DUP3 SWAP1 DUP2 ISZERO MUL SWAP1 PUSH1 0x40 MLOAD PUSH1 0x0 PUSH1 0x40 MLOAD DUP1 DUP4 SUB DUP2 DUP6 DUP9 DUP9 CALL SWAP4 POP POP POP POP ISZERO DUP1 ISZERO PUSH2 0x8EA JUMPI RETURNDATASIZE PUSH1 0x0 DUP1 RETURNDATACOPY RETURNDATASIZE PUSH1 0x0 REVERT JUMPDEST POP POP POP POP POP POP JUMP JUMPDEST PUSH1 0x0 DUP1 SLOAD SWAP1 PUSH2 0x100 EXP SWAP1 DIV PUSH20 0xFFFFFFFFFFFFFFFFFFFFFFFFFFFFFFFFFFFFFFFF AND PUSH20 0xFFFFFFFFFFFFFFFFFFFFFFFFFFFFFFFFFFFFFFFF AND CALLER PUSH20 0xFFFFFFFFFFFFFFFFFFFFFFFFFFFFFFFFFFFFFFFF AND EQ PUSH2 0x980 JUMPI PUSH1 0x40 MLOAD PUSH32 0x8C379A000000000000000000000000000000000000000000000000000000000 DUP2 MSTORE PUSH1 0x4 ADD PUSH2 0x977 SWAP1 PUSH2 0xFD9 JUMP JUMPDEST PUSH1 0x40 MLOAD DUP1 SWAP2 SUB SWAP1 REVERT JUMPDEST DUP4 PUSH1 0x1 PUSH1 0x0 DUP8 PUSH20 0xFFFFFFFFFFFFFFFFFFFFFFFFFFFFFFFFFFFFFFFF AND PUSH20 0xFFFFFFFFFFFFFFFFFFFFFFFFFFFFFFFFFFFFFFFF AND DUP2 MSTORE PUSH1 0x20 ADD SWAP1 DUP2 MSTORE PUSH1 0x20 ADD PUSH1 0x0 KECCAK256 PUSH1 0x0 ADD DUP2 SWAP1 SSTORE POP DUP3 PUSH1 0x1 PUSH1 0x0 DUP8 PUSH20 0xFFFFFFFFFFFFFFFFFFFFFFFFFFFFFFFFFFFFFFFF AND PUSH20 0xFFFFFFFFFFFFFFFFFFFFFFFFFFFFFFFFFFFFFFFF AND DUP2 MSTORE PUSH1 0x20 ADD SWAP1 DUP2 MSTORE PUSH1 0x20 ADD PUSH1 0x0 KECCAK256 PUSH1 0x1 ADD SWAP1 DUP1 MLOAD SWAP1 PUSH1 0x20 ADD SWAP1 PUSH2 0xA1D SWAP3 SWAP2 SWAP1 PUSH2 0xB4F JUMP JUMPDEST POP DUP2 PUSH1 0x1 PUSH1 0x0 DUP8 PUSH20 0xFFFFFFFFFFFFFFFFFFFFFFFFFFFFFFFFFFFFFFFF AND PUSH20 0xFFFFFFFFFFFFFFFFFFFFFFFFFFFFFFFFFFFFFFFF AND DUP2 MSTORE PUSH1 0x20 ADD SWAP1 DUP2 MSTORE PUSH1 0x20 ADD PUSH1 0x0 KECCAK256 PUSH1 0x2 ADD DUP2 SWAP1 SSTORE POP DUP1 PUSH1 0x1 PUSH1 0x0 DUP8 PUSH20 0xFFFFFFFFFFFFFFFFFFFFFFFFFFFFFFFFFFFFFFFF AND PUSH20 0xFFFFFFFFFFFFFFFFFFFFFFFFFFFFFFFFFFFFFFFF AND DUP2 MSTORE PUSH1 0x20 ADD SWAP1 DUP2 MSTORE PUSH1 0x20 ADD PUSH1 0x0 KECCAK256 PUSH1 0x3 ADD DUP2 SWAP1 SSTORE POP POP POP POP POP POP JUMP JUMPDEST DUP1 PUSH20 0xFFFFFFFFFFFFFFFFFFFFFFFFFFFFFFFFFFFFFFFF AND PUSH2 0x8FC PUSH9 0x2B5E3AF16B1880000 SWAP1 DUP2 ISZERO MUL SWAP1 PUSH1 0x40 MLOAD PUSH1 0x0 PUSH1 0x40 MLOAD DUP1 DUP4 SUB DUP2 DUP6 DUP9 DUP9 CALL SWAP4 POP POP POP POP ISZERO DUP1 ISZERO PUSH2 0xB02 JUMPI RETURNDATASIZE PUSH1 0x0 DUP1 RETURNDATACOPY RETURNDATASIZE PUSH1 0x0 REVERT JUMPDEST POP POP JUMP JUMPDEST PUSH1 0x40 MLOAD DUP1 PUSH1 0x80 ADD PUSH1 0x40 MSTORE DUP1 PUSH1 0x0 DUP2 MSTORE PUSH1 0x20 ADD PUSH1 0x60 DUP2 MSTORE PUSH1 0x20 ADD PUSH1 0x0 DUP2 MSTORE PUSH1 0x20 ADD PUSH1 0x0 DUP2 MSTORE POP SWAP1 JUMP JUMPDEST PUSH1 0x40 MLOAD DUP1 PUSH1 0x60 ADD PUSH1 0x40 MSTORE DUP1 PUSH1 0x0 DUP2 MSTORE PUSH1 0x20 ADD PUSH1 0x60 DUP2 MSTORE PUSH1 0x20 ADD PUSH1 0x0 DUP2 MSTORE POP SWAP1 JUMP JUMPDEST DUP3 DUP1 SLOAD PUSH2 0xB5B SWAP1 PUSH2 0x1170 JUMP JUMPDEST SWAP1 PUSH1 0x0 MSTORE PUSH1 0x20 PUSH1 0x0 KECCAK256 SWAP1 PUSH1 0x1F ADD PUSH1 0x20 SWAP1 DIV DUP2 ADD SWAP3 DUP3 PUSH2 0xB7D JUMPI PUSH1 0x0 DUP6 SSTORE PUSH2 0xBC4 JUMP JUMPDEST DUP3 PUSH1 0x1F LT PUSH2 0xB96 JUMPI DUP1 MLOAD PUSH1 0xFF NOT AND DUP4 DUP1 ADD OR DUP6 SSTORE PUSH2 0xBC4 JUMP JUMPDEST DUP3 DUP1 ADD PUSH1 0x1 ADD DUP6 SSTORE DUP3 ISZERO PUSH2 0xBC4 JUMPI SWAP2 DUP3 ADD JUMPDEST DUP3 DUP2 GT ISZERO PUSH2 0xBC3 JUMPI DUP3 MLOAD DUP3 SSTORE SWAP2 PUSH1 0x20 ADD SWAP2 SWAP1 PUSH1 0x1 ADD SWAP1 PUSH2 0xBA8 JUMP JUMPDEST JUMPDEST POP SWAP1 POP PUSH2 0xBD1 SWAP2 SWAP1 PUSH2 0xBD5 JUMP JUMPDEST POP SWAP1 JUMP JUMPDEST JUMPDEST DUP1 DUP3 GT ISZERO PUSH2 0xBEE JUMPI PUSH1 0x0 DUP2 PUSH1 0x0 SWAP1 SSTORE POP PUSH1 0x1 ADD PUSH2 0xBD6 JUMP JUMPDEST POP SWAP1 JUMP JUMPDEST PUSH1 0x0 PUSH2 0xC05 PUSH2 0xC00 DUP5 PUSH2 0x1082 JUMP JUMPDEST PUSH2 0x105D JUMP JUMPDEST SWAP1 POP DUP3 DUP2 MSTORE PUSH1 0x20 DUP2 ADD DUP5 DUP5 DUP5 ADD GT ISZERO PUSH2 0xC21 JUMPI PUSH2 0xC20 PUSH2 0x1236 JUMP JUMPDEST JUMPDEST PUSH2 0xC2C DUP5 DUP3 DUP6 PUSH2 0x112E JUMP JUMPDEST POP SWAP4 SWAP3 POP POP POP JUMP JUMPDEST PUSH1 0x0 DUP2 CALLDATALOAD SWAP1 POP PUSH2 0xC43 DUP2 PUSH2 0x12A8 JUMP JUMPDEST SWAP3 SWAP2 POP POP JUMP JUMPDEST PUSH1 0x0 DUP2 CALLDATALOAD SWAP1 POP PUSH2 0xC58 DUP2 PUSH2 0x12BF JUMP JUMPDEST SWAP3 SWAP2 POP POP JUMP JUMPDEST PUSH1 0x0 DUP3 PUSH1 0x1F DUP4 ADD SLT PUSH2 0xC73 JUMPI PUSH2 0xC72 PUSH2 0x1231 JUMP JUMPDEST JUMPDEST DUP2 CALLDATALOAD PUSH2 0xC83 DUP5 DUP3 PUSH1 0x20 DUP7 ADD PUSH2 0xBF2 JUMP JUMPDEST SWAP2 POP POP SWAP3 SWAP2 POP POP JUMP JUMPDEST PUSH1 0x0 DUP2 CALLDATALOAD SWAP1 POP PUSH2 0xC9B DUP2 PUSH2 0x12D6 JUMP JUMPDEST SWAP3 SWAP2 POP POP JUMP JUMPDEST PUSH1 0x0 PUSH1 0x20 DUP3 DUP5 SUB SLT ISZERO PUSH2 0xCB7 JUMPI PUSH2 0xCB6 PUSH2 0x1240 JUMP JUMPDEST JUMPDEST PUSH1 0x0 PUSH2 0xCC5 DUP5 DUP3 DUP6 ADD PUSH2 0xC34 JUMP JUMPDEST SWAP2 POP POP SWAP3 SWAP2 POP POP JUMP JUMPDEST PUSH1 0x0 PUSH1 0x20 DUP3 DUP5 SUB SLT ISZERO PUSH2 0xCE4 JUMPI PUSH2 0xCE3 PUSH2 0x1240 JUMP JUMPDEST JUMPDEST PUSH1 0x0 PUSH2 0xCF2 DUP5 DUP3 DUP6 ADD PUSH2 0xC49 JUMP JUMPDEST SWAP2 POP POP SWAP3 SWAP2 POP POP JUMP JUMPDEST PUSH1 0x0 DUP1 PUSH1 0x0 DUP1 PUSH1 0x0 PUSH1 0xA0 DUP7 DUP9 SUB SLT ISZERO PUSH2 0xD17 JUMPI PUSH2 0xD16 PUSH2 0x1240 JUMP JUMPDEST JUMPDEST PUSH1 0x0 PUSH2 0xD25 DUP9 DUP3 DUP10 ADD PUSH2 0xC34 JUMP JUMPDEST SWAP6 POP POP PUSH1 0x20 PUSH2 0xD36 DUP9 DUP3 DUP10 ADD PUSH2 0xC34 JUMP JUMPDEST SWAP5 POP POP PUSH1 0x40 PUSH2 0xD47 DUP9 DUP3 DUP10 ADD PUSH2 0xC8C JUMP JUMPDEST SWAP4 POP POP PUSH1 0x60 DUP7 ADD CALLDATALOAD PUSH8 0xFFFFFFFFFFFFFFFF DUP2 GT ISZERO PUSH2 0xD68 JUMPI PUSH2 0xD67 PUSH2 0x123B JUMP JUMPDEST JUMPDEST PUSH2 0xD74 DUP9 DUP3 DUP10 ADD PUSH2 0xC5E JUMP JUMPDEST SWAP3 POP POP PUSH1 0x80 PUSH2 0xD85 DUP9 DUP3 DUP10 ADD PUSH2 0xC8C JUMP JUMPDEST SWAP2 POP POP SWAP3 SWAP6 POP SWAP3 SWAP6 SWAP1 SWAP4 POP JUMP JUMPDEST PUSH1 0x0 DUP1 PUSH1 0x0 PUSH1 0x60 DUP5 DUP7 SUB SLT ISZERO PUSH2 0xDAB JUMPI PUSH2 0xDAA PUSH2 0x1240 JUMP JUMPDEST JUMPDEST PUSH1 0x0 PUSH2 0xDB9 DUP7 DUP3 DUP8 ADD PUSH2 0xC34 JUMP JUMPDEST SWAP4 POP POP PUSH1 0x20 DUP5 ADD CALLDATALOAD PUSH8 0xFFFFFFFFFFFFFFFF DUP2 GT ISZERO PUSH2 0xDDA JUMPI PUSH2 0xDD9 PUSH2 0x123B JUMP JUMPDEST JUMPDEST PUSH2 0xDE6 DUP7 DUP3 DUP8 ADD PUSH2 0xC5E JUMP JUMPDEST SWAP3 POP POP PUSH1 0x40 PUSH2 0xDF7 DUP7 DUP3 DUP8 ADD PUSH2 0xC8C JUMP JUMPDEST SWAP2 POP POP SWAP3 POP SWAP3 POP SWAP3 JUMP JUMPDEST PUSH1 0x0 DUP1 PUSH1 0x0 DUP1 PUSH1 0x0 PUSH1 0xA0 DUP7 DUP9 SUB SLT ISZERO PUSH2 0xE1D JUMPI PUSH2 0xE1C PUSH2 0x1240 JUMP JUMPDEST JUMPDEST PUSH1 0x0 PUSH2 0xE2B DUP9 DUP3 DUP10 ADD PUSH2 0xC34 JUMP JUMPDEST SWAP6 POP POP PUSH1 0x20 PUSH2 0xE3C DUP9 DUP3 DUP10 ADD PUSH2 0xC8C JUMP JUMPDEST SWAP5 POP POP PUSH1 0x40 DUP7 ADD CALLDATALOAD PUSH8 0xFFFFFFFFFFFFFFFF DUP2 GT ISZERO PUSH2 0xE5D JUMPI PUSH2 0xE5C PUSH2 0x123B JUMP JUMPDEST JUMPDEST PUSH2 0xE69 DUP9 DUP3 DUP10 ADD PUSH2 0xC5E JUMP JUMPDEST SWAP4 POP POP PUSH1 0x60 PUSH2 0xE7A DUP9 DUP3 DUP10 ADD PUSH2 0xC8C JUMP JUMPDEST SWAP3 POP POP PUSH1 0x80 PUSH2 0xE8B DUP9 DUP3 DUP10 ADD PUSH2 0xC8C JUMP JUMPDEST SWAP2 POP POP SWAP3 SWAP6 POP SWAP3 SWAP6 SWAP1 SWAP4 POP JUMP JUMPDEST PUSH1 0x0 PUSH2 0xEA3 DUP3 PUSH2 0x10B3 JUMP JUMPDEST PUSH2 0xEAD DUP2 DUP6 PUSH2 0x10BE JUMP JUMPDEST SWAP4 POP PUSH2 0xEBD DUP2 DUP6 PUSH1 0x20 DUP7 ADD PUSH2 0x113D JUMP JUMPDEST PUSH2 0xEC6 DUP2 PUSH2 0x1245 JUMP JUMPDEST DUP5 ADD SWAP2 POP POP SWAP3 SWAP2 POP POP JUMP JUMPDEST PUSH1 0x0 PUSH2 0xEDE PUSH1 0x1D DUP4 PUSH2 0x10CF JUMP JUMPDEST SWAP2 POP PUSH2 0xEE9 DUP3 PUSH2 0x1256 JUMP JUMPDEST PUSH1 0x20 DUP3 ADD SWAP1 POP SWAP2 SWAP1 POP JUMP JUMPDEST PUSH1 0x0 PUSH2 0xF01 PUSH1 0x1D DUP4 PUSH2 0x10CF JUMP JUMPDEST SWAP2 POP PUSH2 0xF0C DUP3 PUSH2 0x127F JUMP JUMPDEST PUSH1 0x20 DUP3 ADD SWAP1 POP SWAP2 SWAP1 POP JUMP JUMPDEST PUSH1 0x0 PUSH1 0x60 DUP4 ADD PUSH1 0x0 DUP4 ADD MLOAD PUSH2 0xF2F PUSH1 0x0 DUP7 ADD DUP3 PUSH2 0xFCA JUMP JUMPDEST POP PUSH1 0x20 DUP4 ADD MLOAD DUP5 DUP3 SUB PUSH1 0x20 DUP7 ADD MSTORE PUSH2 0xF47 DUP3 DUP3 PUSH2 0xE98 JUMP JUMPDEST SWAP2 POP POP PUSH1 0x40 DUP4 ADD MLOAD PUSH2 0xF5C PUSH1 0x40 DUP7 ADD DUP3 PUSH2 0xFCA JUMP JUMPDEST POP DUP1 SWAP2 POP POP SWAP3 SWAP2 POP POP JUMP JUMPDEST PUSH1 0x0 PUSH1 0x80 DUP4 ADD PUSH1 0x0 DUP4 ADD MLOAD PUSH2 0xF7F PUSH1 0x0 DUP7 ADD DUP3 PUSH2 0xFCA JUMP JUMPDEST POP PUSH1 0x20 DUP4 ADD MLOAD DUP5 DUP3 SUB PUSH1 0x20 DUP7 ADD MSTORE PUSH2 0xF97 DUP3 DUP3 PUSH2 0xE98 JUMP JUMPDEST SWAP2 POP POP PUSH1 0x40 DUP4 ADD MLOAD PUSH2 0xFAC PUSH1 0x40 DUP7 ADD DUP3 PUSH2 0xFCA JUMP JUMPDEST POP PUSH1 0x60 DUP4 ADD MLOAD PUSH2 0xFBF PUSH1 0x60 DUP7 ADD DUP3 PUSH2 0xFCA JUMP JUMPDEST POP DUP1 SWAP2 POP POP SWAP3 SWAP2 POP POP JUMP JUMPDEST PUSH2 0xFD3 DUP2 PUSH2 0x1124 JUMP JUMPDEST DUP3 MSTORE POP POP JUMP JUMPDEST PUSH1 0x0 PUSH1 0x20 DUP3 ADD SWAP1 POP DUP2 DUP2 SUB PUSH1 0x0 DUP4 ADD MSTORE PUSH2 0xFF2 DUP2 PUSH2 0xED1 JUMP JUMPDEST SWAP1 POP SWAP2 SWAP1 POP JUMP JUMPDEST PUSH1 0x0 PUSH1 0x20 DUP3 ADD SWAP1 POP DUP2 DUP2 SUB PUSH1 0x0 DUP4 ADD MSTORE PUSH2 0x1012 DUP2 PUSH2 0xEF4 JUMP JUMPDEST SWAP1 POP SWAP2 SWAP1 POP JUMP JUMPDEST PUSH1 0x0 PUSH1 0x20 DUP3 ADD SWAP1 POP DUP2 DUP2 SUB PUSH1 0x0 DUP4 ADD MSTORE PUSH2 0x1033 DUP2 DUP5 PUSH2 0xF17 JUMP JUMPDEST SWAP1 POP SWAP3 SWAP2 POP POP JUMP JUMPDEST PUSH1 0x0 PUSH1 0x20 DUP3 ADD SWAP1 POP DUP2 DUP2 SUB PUSH1 0x0 DUP4 ADD MSTORE PUSH2 0x1055 DUP2 DUP5 PUSH2 0xF67 JUMP JUMPDEST SWAP1 POP SWAP3 SWAP2 POP POP JUMP JUMPDEST PUSH1 0x0 PUSH2 0x1067 PUSH2 0x1078 JUMP JUMPDEST SWAP1 POP PUSH2 0x1073 DUP3 DUP3 PUSH2 0x11A2 JUMP JUMPDEST SWAP2 SWAP1 POP JUMP JUMPDEST PUSH1 0x0 PUSH1 0x40 MLOAD SWAP1 POP SWAP1 JUMP JUMPDEST PUSH1 0x0 PUSH8 0xFFFFFFFFFFFFFFFF DUP3 GT ISZERO PUSH2 0x109D JUMPI PUSH2 0x109C PUSH2 0x1202 JUMP JUMPDEST JUMPDEST PUSH2 0x10A6 DUP3 PUSH2 0x1245 JUMP JUMPDEST SWAP1 POP PUSH1 0x20 DUP2 ADD SWAP1 POP SWAP2 SWAP1 POP JUMP JUMPDEST PUSH1 0x0 DUP2 MLOAD SWAP1 POP SWAP2 SWAP1 POP JUMP JUMPDEST PUSH1 0x0 DUP3 DUP3 MSTORE PUSH1 0x20 DUP3 ADD SWAP1 POP SWAP3 SWAP2 POP POP JUMP JUMPDEST PUSH1 0x0 DUP3 DUP3 MSTORE PUSH1 0x20 DUP3 ADD SWAP1 POP SWAP3 SWAP2 POP POP JUMP JUMPDEST PUSH1 0x0 PUSH2 0x10EB DUP3 PUSH2 0x1104 JUMP JUMPDEST SWAP1 POP SWAP2 SWAP1 POP JUMP JUMPDEST PUSH1 0x0 PUSH2 0x10FD DUP3 PUSH2 0x1104 JUMP JUMPDEST SWAP1 POP SWAP2 SWAP1 POP JUMP JUMPDEST PUSH1 0x0 PUSH20 0xFFFFFFFFFFFFFFFFFFFFFFFFFFFFFFFFFFFFFFFF DUP3 AND SWAP1 POP SWAP2 SWAP1 POP JUMP JUMPDEST PUSH1 0x0 DUP2 SWAP1 POP SWAP2 SWAP1 POP JUMP JUMPDEST DUP3 DUP2 DUP4 CALLDATACOPY PUSH1 0x0 DUP4 DUP4 ADD MSTORE POP POP POP JUMP JUMPDEST PUSH1 0x0 JUMPDEST DUP4 DUP2 LT ISZERO PUSH2 0x115B JUMPI DUP1 DUP3 ADD MLOAD DUP2 DUP5 ADD MSTORE PUSH1 0x20 DUP2 ADD SWAP1 POP PUSH2 0x1140 JUMP JUMPDEST DUP4 DUP2 GT ISZERO PUSH2 0x116A JUMPI PUSH1 0x0 DUP5 DUP5 ADD MSTORE JUMPDEST POP POP POP POP JUMP JUMPDEST PUSH1 0x0 PUSH1 0x2 DUP3 DIV SWAP1 POP PUSH1 0x1 DUP3 AND DUP1 PUSH2 0x1188 JUMPI PUSH1 0x7F DUP3 AND SWAP2 POP JUMPDEST PUSH1 0x20 DUP3 LT DUP2 EQ ISZERO PUSH2 0x119C JUMPI PUSH2 0x119B PUSH2 0x11D3 JUMP JUMPDEST JUMPDEST POP SWAP2 SWAP1 POP JUMP JUMPDEST PUSH2 0x11AB DUP3 PUSH2 0x1245 JUMP JUMPDEST DUP2 ADD DUP2 DUP2 LT PUSH8 0xFFFFFFFFFFFFFFFF DUP3 GT OR ISZERO PUSH2 0x11CA JUMPI PUSH2 0x11C9 PUSH2 0x1202 JUMP JUMPDEST JUMPDEST DUP1 PUSH1 0x40 MSTORE POP POP POP JUMP JUMPDEST PUSH32 0x4E487B7100000000000000000000000000000000000000000000000000000000 PUSH1 0x0 MSTORE PUSH1 0x22 PUSH1 0x4 MSTORE PUSH1 0x24 PUSH1 0x0 REVERT JUMPDEST PUSH32 0x4E487B7100000000000000000000000000000000000000000000000000000000 PUSH1 0x0 MSTORE PUSH1 0x41 PUSH1 0x4 MSTORE PUSH1 0x24 PUSH1 0x0 REVERT JUMPDEST PUSH1 0x0 DUP1 REVERT JUMPDEST PUSH1 0x0 DUP1 REVERT JUMPDEST PUSH1 0x0 DUP1 REVERT JUMPDEST PUSH1 0x0 DUP1 REVERT JUMPDEST PUSH1 0x0 PUSH1 0x1F NOT PUSH1 0x1F DUP4 ADD AND SWAP1 POP SWAP2 SWAP1 POP JUMP JUMPDEST PUSH32 0x596F7520617265206E6F74206C616E646F66666963652073746166662E000000 PUSH1 0x0 DUP3 ADD MSTORE POP JUMP JUMPDEST PUSH32 0x496E73756666696369656E742066756E6420666F722072656465656D2E000000 PUSH1 0x0 DUP3 ADD MSTORE POP JUMP JUMPDEST PUSH2 0x12B1 DUP2 PUSH2 0x10E0 JUMP JUMPDEST DUP2 EQ PUSH2 0x12BC JUMPI PUSH1 0x0 DUP1 REVERT JUMPDEST POP JUMP JUMPDEST PUSH2 0x12C8 DUP2 PUSH2 0x10F2 JUMP JUMPDEST DUP2 EQ PUSH2 0x12D3 JUMPI PUSH1 0x0 DUP1 REVERT JUMPDEST POP JUMP JUMPDEST PUSH2 0x12DF DUP2 PUSH2 0x1124 JUMP JUMPDEST DUP2 EQ PUSH2 0x12EA JUMPI PUSH1 0x0 DUP1 REVERT JUMPDEST POP JUMP INVALID LOG2 PUSH5 0x6970667358 0x22 SLT KECCAK256 RETURN BASEFEE SWAP14 COINBASE SWAP5 0x27 0xEF 0xB2 SWAP15 0xD5 0x4D CALL PUSH7 0x36938EAA67A4AF 0xB7 0xC3 SLT DUP11 STOP PUSH10 0x83525C79225C64736F6C PUSH4 0x43000807 STOP CALLER "
				},
				"gasEstimates": {
					"creation": {
						"codeDepositCost": "979800",
						"executionCost": "25287",
						"totalCost": "1005087"
					},
					"external": {
						"createParcel(address,uint256,string,uint256,uint256)": "infinite",
						"deposit(address)": "infinite",
						"getOlgt(address)": "infinite",
						"getParcel(address)": "infinite",
						"mortgage(address,address,uint256,string,uint256)": "infinite",
						"redeem(address,string,uint256)": "infinite"
					}
				},
				"methodIdentifiers": {
					"createParcel(address,uint256,string,uint256,uint256)": "935656c2",
					"deposit(address)": "f340fa01",
					"getOlgt(address)": "215271cb",
					"getParcel(address)": "198e86c6",
					"mortgage(address,address,uint256,string,uint256)": "8f1e4afa",
					"redeem(address,string,uint256)": "868571ef"
				}
			},
			"storageLayout": {
				"storage": [
					{
						"astId": 19,
						"contract": "contracts/Parcel.sol:Parcel",
						"label": "staff",
						"offset": 0,
						"slot": "0",
						"type": "t_address"
					},
					{
						"astId": 24,
						"contract": "contracts/Parcel.sol:Parcel",
						"label": "_parcel_land",
						"offset": 0,
						"slot": "1",
						"type": "t_mapping(t_address,t_struct(Parcel_land)10_storage)"
					},
					{
						"astId": 29,
						"contract": "contracts/Parcel.sol:Parcel",
						"label": "_olgt_bank",
						"offset": 0,
						"slot": "2",
						"type": "t_mapping(t_address,t_struct(OlgtBank)17_storage)"
					}
				],
				"types": {
					"t_address": {
						"encoding": "inplace",
						"label": "address",
						"numberOfBytes": "20"
					},
					"t_mapping(t_address,t_struct(OlgtBank)17_storage)": {
						"encoding": "mapping",
						"key": "t_address",
						"label": "mapping(address => struct OlgtBank)",
						"numberOfBytes": "32",
						"value": "t_struct(OlgtBank)17_storage"
					},
					"t_mapping(t_address,t_struct(Parcel_land)10_storage)": {
						"encoding": "mapping",
						"key": "t_address",
						"label": "mapping(address => struct Parcel_land)",
						"numberOfBytes": "32",
						"value": "t_struct(Parcel_land)10_storage"
					},
					"t_string_storage": {
						"encoding": "bytes",
						"label": "string",
						"numberOfBytes": "32"
					},
					"t_struct(OlgtBank)17_storage": {
						"encoding": "inplace",
						"label": "struct OlgtBank",
						"members": [
							{
								"astId": 12,
								"contract": "contracts/Parcel.sol:Parcel",
								"label": "parcel_no",
								"offset": 0,
								"slot": "0",
								"type": "t_uint256"
							},
							{
								"astId": 14,
								"contract": "contracts/Parcel.sol:Parcel",
								"label": "olgt_name",
								"offset": 0,
								"slot": "1",
								"type": "t_string_storage"
							},
							{
								"astId": 16,
								"contract": "contracts/Parcel.sol:Parcel",
								"label": "olgt_price",
								"offset": 0,
								"slot": "2",
								"type": "t_uint256"
							}
						],
						"numberOfBytes": "96"
					},
					"t_struct(Parcel_land)10_storage": {
						"encoding": "inplace",
						"label": "struct Parcel_land",
						"members": [
							{
								"astId": 3,
								"contract": "contracts/Parcel.sol:Parcel",
								"label": "parcel_no",
								"offset": 0,
								"slot": "0",
								"type": "t_uint256"
							},
							{
								"astId": 5,
								"contract": "contracts/Parcel.sol:Parcel",
								"label": "owner_name",
								"offset": 0,
								"slot": "1",
								"type": "t_string_storage"
							},
							{
								"astId": 7,
								"contract": "contracts/Parcel.sol:Parcel",
								"label": "price",
								"offset": 0,
								"slot": "2",
								"type": "t_uint256"
							},
							{
								"astId": 9,
								"contract": "contracts/Parcel.sol:Parcel",
								"label": "area",
								"offset": 0,
								"slot": "3",
								"type": "t_uint256"
							}
						],
						"numberOfBytes": "128"
					},
					"t_uint256": {
						"encoding": "inplace",
						"label": "uint256",
						"numberOfBytes": "32"
					}
				}
			},
			"userdoc": {
				"kind": "user",
				"methods": {},
				"version": 1
			}
		}
	}
}