{
	"contracts/Parcel.sol": {
		"Parcel": {
			"abi": [
				{
					"inputs": [],
					"stateMutability": "nonpayable",
					"type": "constructor"
				},
				{
					"inputs": [
						{
							"internalType": "address",
							"name": "owner",
							"type": "address"
						},
						{
							"internalType": "uint256",
							"name": "parcel_no",
							"type": "uint256"
						},
						{
							"internalType": "string",
							"name": "owner_name",
							"type": "string"
						},
						{
							"internalType": "uint256",
							"name": "price",
							"type": "uint256"
						},
						{
							"internalType": "uint256",
							"name": "area",
							"type": "uint256"
						}
					],
					"name": "createParcel",
					"outputs": [],
					"stateMutability": "payable",
					"type": "function"
				},
				{
					"inputs": [
						{
							"internalType": "address",
							"name": "owner",
							"type": "address"
						}
					],
					"name": "getOlgt",
					"outputs": [
						{
							"components": [
								{
									"internalType": "string",
									"name": "olgt_name",
									"type": "string"
								},
								{
									"internalType": "uint256",
									"name": "olgt_price",
									"type": "uint256"
								}
							],
							"internalType": "struct Olgt",
							"name": "olgt",
							"type": "tuple"
						}
					],
					"stateMutability": "view",
					"type": "function"
				},
				{
					"inputs": [
						{
							"internalType": "address",
							"name": "owner",
							"type": "address"
						}
					],
					"name": "getParcel",
					"outputs": [
						{
							"components": [
								{
									"internalType": "uint256",
									"name": "parcel_no",
									"type": "uint256"
								},
								{
									"internalType": "string",
									"name": "owner_name",
									"type": "string"
								},
								{
									"internalType": "uint256",
									"name": "price",
									"type": "uint256"
								},
								{
									"internalType": "uint256",
									"name": "area",
									"type": "uint256"
								}
							],
							"internalType": "struct Parcel_land",
							"name": "parcel_land",
							"type": "tuple"
						}
					],
					"stateMutability": "view",
					"type": "function"
				},
				{
					"inputs": [
						{
							"internalType": "address",
							"name": "owner",
							"type": "address"
						},
						{
							"internalType": "string",
							"name": "owner_name",
							"type": "string"
						},
						{
							"internalType": "uint256",
							"name": "price",
							"type": "uint256"
						}
					],
					"name": "mortgage",
					"outputs": [],
					"stateMutability": "nonpayable",
					"type": "function"
				}
			],
			"devdoc": {
				"kind": "dev",
				"methods": {},
				"version": 1
			},
			"evm": {
				"assembly": "    /* \"contracts/Parcel.sol\":265:2180  contract Parcel {\r... */\n  mstore(0x40, 0x80)\n    /* \"contracts/Parcel.sol\":472:523  constructor() {\r... */\n  callvalue\n  dup1\n  iszero\n  tag_1\n  jumpi\n  0x00\n  dup1\n  revert\ntag_1:\n  pop\n    /* \"contracts/Parcel.sol\":505:515  msg.sender */\n  caller\n    /* \"contracts/Parcel.sol\":497:502  staff */\n  0x00\n  dup1\n    /* \"contracts/Parcel.sol\":497:515  staff = msg.sender */\n  0x0100\n  exp\n  dup2\n  sload\n  dup2\n  0xffffffffffffffffffffffffffffffffffffffff\n  mul\n  not\n  and\n  swap1\n  dup4\n  0xffffffffffffffffffffffffffffffffffffffff\n  and\n  mul\n  or\n  swap1\n  sstore\n  pop\n    /* \"contracts/Parcel.sol\":265:2180  contract Parcel {\r... */\n  dataSize(sub_0)\n  dup1\n  dataOffset(sub_0)\n  0x00\n  codecopy\n  0x00\n  return\nstop\n\nsub_0: assembly {\n        /* \"contracts/Parcel.sol\":265:2180  contract Parcel {\r... */\n      mstore(0x40, 0x80)\n      jumpi(tag_1, lt(calldatasize, 0x04))\n      shr(0xe0, calldataload(0x00))\n      dup1\n      0x198e86c6\n      eq\n      tag_2\n      jumpi\n      dup1\n      0x215271cb\n      eq\n      tag_3\n      jumpi\n      dup1\n      0x5b1dedc2\n      eq\n      tag_4\n      jumpi\n      dup1\n      0x935656c2\n      eq\n      tag_5\n      jumpi\n    tag_1:\n      0x00\n      dup1\n      revert\n        /* \"contracts/Parcel.sol\":1059:1199  function getParcel(address owner) isStaff public view returns (Parcel_land memory parcel_land) {\r... */\n    tag_2:\n      callvalue\n      dup1\n      iszero\n      tag_6\n      jumpi\n      0x00\n      dup1\n      revert\n    tag_6:\n      pop\n      tag_7\n      0x04\n      dup1\n      calldatasize\n      sub\n      dup2\n      add\n      swap1\n      tag_8\n      swap2\n      swap1\n      tag_9\n      jump\t// in\n    tag_8:\n      tag_10\n      jump\t// in\n    tag_7:\n      mload(0x40)\n      tag_11\n      swap2\n      swap1\n      tag_12\n      jump\t// in\n    tag_11:\n      mload(0x40)\n      dup1\n      swap2\n      sub\n      swap1\n      return\n        /* \"contracts/Parcel.sol\":1207:1324  function getOlgt(address owner) isStaff public view returns (Olgt memory olgt) {\r... */\n    tag_3:\n      callvalue\n      dup1\n      iszero\n      tag_13\n      jumpi\n      0x00\n      dup1\n      revert\n    tag_13:\n      pop\n      tag_14\n      0x04\n      dup1\n      calldatasize\n      sub\n      dup2\n      add\n      swap1\n      tag_15\n      swap2\n      swap1\n      tag_9\n      jump\t// in\n    tag_15:\n      tag_16\n      jump\t// in\n    tag_14:\n      mload(0x40)\n      tag_17\n      swap2\n      swap1\n      tag_18\n      jump\t// in\n    tag_17:\n      mload(0x40)\n      dup1\n      swap2\n      sub\n      swap1\n      return\n        /* \"contracts/Parcel.sol\":1457:1694  function mortgage(address owner, string memory owner_name, uint price) isStaff public  {\r... */\n    tag_4:\n      callvalue\n      dup1\n      iszero\n      tag_19\n      jumpi\n      0x00\n      dup1\n      revert\n    tag_19:\n      pop\n      tag_20\n      0x04\n      dup1\n      calldatasize\n      sub\n      dup2\n      add\n      swap1\n      tag_21\n      swap2\n      swap1\n      tag_22\n      jump\t// in\n    tag_21:\n      tag_23\n      jump\t// in\n    tag_20:\n      stop\n        /* \"contracts/Parcel.sol\":730:1051  function createParcel(address owner, uint parcel_no, string memory owner_name, uint price, uint area) isStaff public payable {\r... */\n    tag_5:\n      tag_24\n      0x04\n      dup1\n      calldatasize\n      sub\n      dup2\n      add\n      swap1\n      tag_25\n      swap2\n      swap1\n      tag_26\n      jump\t// in\n    tag_25:\n      tag_27\n      jump\t// in\n    tag_24:\n      stop\n        /* \"contracts/Parcel.sol\":1059:1199  function getParcel(address owner) isStaff public view returns (Parcel_land memory parcel_land) {\r... */\n    tag_10:\n        /* \"contracts/Parcel.sol\":1122:1152  Parcel_land memory parcel_land */\n      tag_28\n      tag_29\n      jump\t// in\n    tag_28:\n        /* \"contracts/Parcel.sol\":581:586  staff */\n      0x00\n      dup1\n      sload\n      swap1\n      0x0100\n      exp\n      swap1\n      div\n      0xffffffffffffffffffffffffffffffffffffffff\n      and\n        /* \"contracts/Parcel.sol\":567:586  msg.sender == staff */\n      0xffffffffffffffffffffffffffffffffffffffff\n      and\n        /* \"contracts/Parcel.sol\":567:577  msg.sender */\n      caller\n        /* \"contracts/Parcel.sol\":567:586  msg.sender == staff */\n      0xffffffffffffffffffffffffffffffffffffffff\n      and\n      eq\n        /* \"contracts/Parcel.sol\":559:620  require(msg.sender == staff, \"You are not landoffice staff.\") */\n      tag_31\n      jumpi\n      mload(0x40)\n      0x08c379a000000000000000000000000000000000000000000000000000000000\n      dup2\n      mstore\n      0x04\n      add\n      tag_32\n      swap1\n      tag_33\n      jump\t// in\n    tag_32:\n      mload(0x40)\n      dup1\n      swap2\n      sub\n      swap1\n      revert\n    tag_31:\n        /* \"contracts/Parcel.sol\":1172:1184  _parcel_land */\n      0x01\n        /* \"contracts/Parcel.sol\":1172:1191  _parcel_land[owner] */\n      0x00\n        /* \"contracts/Parcel.sol\":1185:1190  owner */\n      dup4\n        /* \"contracts/Parcel.sol\":1172:1191  _parcel_land[owner] */\n      0xffffffffffffffffffffffffffffffffffffffff\n      and\n      0xffffffffffffffffffffffffffffffffffffffff\n      and\n      dup2\n      mstore\n      0x20\n      add\n      swap1\n      dup2\n      mstore\n      0x20\n      add\n      0x00\n      keccak256\n        /* \"contracts/Parcel.sol\":1165:1191  return _parcel_land[owner] */\n      mload(0x40)\n      dup1\n      0x80\n      add\n      0x40\n      mstore\n      swap1\n      dup2\n      0x00\n      dup3\n      add\n      sload\n      dup2\n      mstore\n      0x20\n      add\n      0x01\n      dup3\n      add\n      dup1\n      sload\n      tag_35\n      swap1\n      tag_36\n      jump\t// in\n    tag_35:\n      dup1\n      0x1f\n      add\n      0x20\n      dup1\n      swap2\n      div\n      mul\n      0x20\n      add\n      mload(0x40)\n      swap1\n      dup2\n      add\n      0x40\n      mstore\n      dup1\n      swap3\n      swap2\n      swap1\n      dup2\n      dup2\n      mstore\n      0x20\n      add\n      dup3\n      dup1\n      sload\n      tag_37\n      swap1\n      tag_36\n      jump\t// in\n    tag_37:\n      dup1\n      iszero\n      tag_38\n      jumpi\n      dup1\n      0x1f\n      lt\n      tag_39\n      jumpi\n      0x0100\n      dup1\n      dup4\n      sload\n      div\n      mul\n      dup4\n      mstore\n      swap2\n      0x20\n      add\n      swap2\n      jump(tag_38)\n    tag_39:\n      dup3\n      add\n      swap2\n      swap1\n      0x00\n      mstore\n      keccak256(0x00, 0x20)\n      swap1\n    tag_40:\n      dup2\n      sload\n      dup2\n      mstore\n      swap1\n      0x01\n      add\n      swap1\n      0x20\n      add\n      dup1\n      dup4\n      gt\n      tag_40\n      jumpi\n      dup3\n      swap1\n      sub\n      0x1f\n      and\n      dup3\n      add\n      swap2\n    tag_38:\n      pop\n      pop\n      pop\n      pop\n      pop\n      dup2\n      mstore\n      0x20\n      add\n      0x02\n      dup3\n      add\n      sload\n      dup2\n      mstore\n      0x20\n      add\n      0x03\n      dup3\n      add\n      sload\n      dup2\n      mstore\n      pop\n      pop\n      swap1\n      pop\n        /* \"contracts/Parcel.sol\":1059:1199  function getParcel(address owner) isStaff public view returns (Parcel_land memory parcel_land) {\r... */\n      swap2\n      swap1\n      pop\n      jump\t// out\n        /* \"contracts/Parcel.sol\":1207:1324  function getOlgt(address owner) isStaff public view returns (Olgt memory olgt) {\r... */\n    tag_16:\n        /* \"contracts/Parcel.sol\":1268:1284  Olgt memory olgt */\n      tag_41\n      tag_42\n      jump\t// in\n    tag_41:\n        /* \"contracts/Parcel.sol\":581:586  staff */\n      0x00\n      dup1\n      sload\n      swap1\n      0x0100\n      exp\n      swap1\n      div\n      0xffffffffffffffffffffffffffffffffffffffff\n      and\n        /* \"contracts/Parcel.sol\":567:586  msg.sender == staff */\n      0xffffffffffffffffffffffffffffffffffffffff\n      and\n        /* \"contracts/Parcel.sol\":567:577  msg.sender */\n      caller\n        /* \"contracts/Parcel.sol\":567:586  msg.sender == staff */\n      0xffffffffffffffffffffffffffffffffffffffff\n      and\n      eq\n        /* \"contracts/Parcel.sol\":559:620  require(msg.sender == staff, \"You are not landoffice staff.\") */\n      tag_44\n      jumpi\n      mload(0x40)\n      0x08c379a000000000000000000000000000000000000000000000000000000000\n      dup2\n      mstore\n      0x04\n      add\n      tag_45\n      swap1\n      tag_33\n      jump\t// in\n    tag_45:\n      mload(0x40)\n      dup1\n      swap2\n      sub\n      swap1\n      revert\n    tag_44:\n        /* \"contracts/Parcel.sol\":1304:1309  _olgt */\n      0x02\n        /* \"contracts/Parcel.sol\":1304:1316  _olgt[owner] */\n      0x00\n        /* \"contracts/Parcel.sol\":1310:1315  owner */\n      dup4\n        /* \"contracts/Parcel.sol\":1304:1316  _olgt[owner] */\n      0xffffffffffffffffffffffffffffffffffffffff\n      and\n      0xffffffffffffffffffffffffffffffffffffffff\n      and\n      dup2\n      mstore\n      0x20\n      add\n      swap1\n      dup2\n      mstore\n      0x20\n      add\n      0x00\n      keccak256\n        /* \"contracts/Parcel.sol\":1297:1316  return _olgt[owner] */\n      mload(0x40)\n      dup1\n      0x40\n      add\n      0x40\n      mstore\n      swap1\n      dup2\n      0x00\n      dup3\n      add\n      dup1\n      sload\n      tag_47\n      swap1\n      tag_36\n      jump\t// in\n    tag_47:\n      dup1\n      0x1f\n      add\n      0x20\n      dup1\n      swap2\n      div\n      mul\n      0x20\n      add\n      mload(0x40)\n      swap1\n      dup2\n      add\n      0x40\n      mstore\n      dup1\n      swap3\n      swap2\n      swap1\n      dup2\n      dup2\n      mstore\n      0x20\n      add\n      dup3\n      dup1\n      sload\n      tag_48\n      swap1\n      tag_36\n      jump\t// in\n    tag_48:\n      dup1\n      iszero\n      tag_49\n      jumpi\n      dup1\n      0x1f\n      lt\n      tag_50\n      jumpi\n      0x0100\n      dup1\n      dup4\n      sload\n      div\n      mul\n      dup4\n      mstore\n      swap2\n      0x20\n      add\n      swap2\n      jump(tag_49)\n    tag_50:\n      dup3\n      add\n      swap2\n      swap1\n      0x00\n      mstore\n      keccak256(0x00, 0x20)\n      swap1\n    tag_51:\n      dup2\n      sload\n      dup2\n      mstore\n      swap1\n      0x01\n      add\n      swap1\n      0x20\n      add\n      dup1\n      dup4\n      gt\n      tag_51\n      jumpi\n      dup3\n      swap1\n      sub\n      0x1f\n      and\n      dup3\n      add\n      swap2\n    tag_49:\n      pop\n      pop\n      pop\n      pop\n      pop\n      dup2\n      mstore\n      0x20\n      add\n      0x01\n      dup3\n      add\n      sload\n      dup2\n      mstore\n      pop\n      pop\n      swap1\n      pop\n        /* \"contracts/Parcel.sol\":1207:1324  function getOlgt(address owner) isStaff public view returns (Olgt memory olgt) {\r... */\n      swap2\n      swap1\n      pop\n      jump\t// out\n        /* \"contracts/Parcel.sol\":1457:1694  function mortgage(address owner, string memory owner_name, uint price) isStaff public  {\r... */\n    tag_23:\n        /* \"contracts/Parcel.sol\":581:586  staff */\n      0x00\n      dup1\n      sload\n      swap1\n      0x0100\n      exp\n      swap1\n      div\n      0xffffffffffffffffffffffffffffffffffffffff\n      and\n        /* \"contracts/Parcel.sol\":567:586  msg.sender == staff */\n      0xffffffffffffffffffffffffffffffffffffffff\n      and\n        /* \"contracts/Parcel.sol\":567:577  msg.sender */\n      caller\n        /* \"contracts/Parcel.sol\":567:586  msg.sender == staff */\n      0xffffffffffffffffffffffffffffffffffffffff\n      and\n      eq\n        /* \"contracts/Parcel.sol\":559:620  require(msg.sender == staff, \"You are not landoffice staff.\") */\n      tag_53\n      jumpi\n      mload(0x40)\n      0x08c379a000000000000000000000000000000000000000000000000000000000\n      dup2\n      mstore\n      0x04\n      add\n      tag_54\n      swap1\n      tag_33\n      jump\t// in\n    tag_54:\n      mload(0x40)\n      dup1\n      swap2\n      sub\n      swap1\n      revert\n    tag_53:\n        /* \"contracts/Parcel.sol\":1588:1598  owner_name */\n      dup2\n        /* \"contracts/Parcel.sol\":1555:1567  _parcel_land */\n      0x01\n        /* \"contracts/Parcel.sol\":1555:1574  _parcel_land[owner] */\n      0x00\n        /* \"contracts/Parcel.sol\":1568:1573  owner */\n      dup6\n        /* \"contracts/Parcel.sol\":1555:1574  _parcel_land[owner] */\n      0xffffffffffffffffffffffffffffffffffffffff\n      and\n      0xffffffffffffffffffffffffffffffffffffffff\n      and\n      dup2\n      mstore\n      0x20\n      add\n      swap1\n      dup2\n      mstore\n      0x20\n      add\n      0x00\n      keccak256\n        /* \"contracts/Parcel.sol\":1555:1585  _parcel_land[owner].owner_name */\n      0x01\n      add\n        /* \"contracts/Parcel.sol\":1555:1598  _parcel_land[owner].owner_name = owner_name */\n      swap1\n      dup1\n      mload\n      swap1\n      0x20\n      add\n      swap1\n      tag_56\n      swap3\n      swap2\n      swap1\n      tag_57\n      jump\t// in\n    tag_56:\n      pop\n        /* \"contracts/Parcel.sol\":1634:1644  owner_name */\n      dup2\n        /* \"contracts/Parcel.sol\":1609:1614  _olgt */\n      0x02\n        /* \"contracts/Parcel.sol\":1609:1621  _olgt[owner] */\n      0x00\n        /* \"contracts/Parcel.sol\":1615:1620  owner */\n      dup6\n        /* \"contracts/Parcel.sol\":1609:1621  _olgt[owner] */\n      0xffffffffffffffffffffffffffffffffffffffff\n      and\n      0xffffffffffffffffffffffffffffffffffffffff\n      and\n      dup2\n      mstore\n      0x20\n      add\n      swap1\n      dup2\n      mstore\n      0x20\n      add\n      0x00\n      keccak256\n        /* \"contracts/Parcel.sol\":1609:1631  _olgt[owner].olgt_name */\n      0x00\n      add\n        /* \"contracts/Parcel.sol\":1609:1644  _olgt[owner].olgt_name = owner_name */\n      swap1\n      dup1\n      mload\n      swap1\n      0x20\n      add\n      swap1\n      tag_58\n      swap3\n      swap2\n      swap1\n      tag_57\n      jump\t// in\n    tag_58:\n      pop\n        /* \"contracts/Parcel.sol\":1681:1686  price */\n      dup1\n        /* \"contracts/Parcel.sol\":1655:1660  _olgt */\n      0x02\n        /* \"contracts/Parcel.sol\":1655:1667  _olgt[owner] */\n      0x00\n        /* \"contracts/Parcel.sol\":1661:1666  owner */\n      dup6\n        /* \"contracts/Parcel.sol\":1655:1667  _olgt[owner] */\n      0xffffffffffffffffffffffffffffffffffffffff\n      and\n      0xffffffffffffffffffffffffffffffffffffffff\n      and\n      dup2\n      mstore\n      0x20\n      add\n      swap1\n      dup2\n      mstore\n      0x20\n      add\n      0x00\n      keccak256\n        /* \"contracts/Parcel.sol\":1655:1678  _olgt[owner].olgt_price */\n      0x01\n      add\n        /* \"contracts/Parcel.sol\":1655:1686  _olgt[owner].olgt_price = price */\n      dup2\n      swap1\n      sstore\n      pop\n        /* \"contracts/Parcel.sol\":1457:1694  function mortgage(address owner, string memory owner_name, uint price) isStaff public  {\r... */\n      pop\n      pop\n      pop\n      jump\t// out\n        /* \"contracts/Parcel.sol\":730:1051  function createParcel(address owner, uint parcel_no, string memory owner_name, uint price, uint area) isStaff public payable {\r... */\n    tag_27:\n        /* \"contracts/Parcel.sol\":581:586  staff */\n      0x00\n      dup1\n      sload\n      swap1\n      0x0100\n      exp\n      swap1\n      div\n      0xffffffffffffffffffffffffffffffffffffffff\n      and\n        /* \"contracts/Parcel.sol\":567:586  msg.sender == staff */\n      0xffffffffffffffffffffffffffffffffffffffff\n      and\n        /* \"contracts/Parcel.sol\":567:577  msg.sender */\n      caller\n        /* \"contracts/Parcel.sol\":567:586  msg.sender == staff */\n      0xffffffffffffffffffffffffffffffffffffffff\n      and\n      eq\n        /* \"contracts/Parcel.sol\":559:620  require(msg.sender == staff, \"You are not landoffice staff.\") */\n      tag_60\n      jumpi\n      mload(0x40)\n      0x08c379a000000000000000000000000000000000000000000000000000000000\n      dup2\n      mstore\n      0x04\n      add\n      tag_61\n      swap1\n      tag_33\n      jump\t// in\n    tag_61:\n      mload(0x40)\n      dup1\n      swap2\n      sub\n      swap1\n      revert\n    tag_60:\n        /* \"contracts/Parcel.sol\":897:906  parcel_no */\n      dup4\n        /* \"contracts/Parcel.sol\":865:877  _parcel_land */\n      0x01\n        /* \"contracts/Parcel.sol\":865:884  _parcel_land[owner] */\n      0x00\n        /* \"contracts/Parcel.sol\":878:883  owner */\n      dup8\n        /* \"contracts/Parcel.sol\":865:884  _parcel_land[owner] */\n      0xffffffffffffffffffffffffffffffffffffffff\n      and\n      0xffffffffffffffffffffffffffffffffffffffff\n      and\n      dup2\n      mstore\n      0x20\n      add\n      swap1\n      dup2\n      mstore\n      0x20\n      add\n      0x00\n      keccak256\n        /* \"contracts/Parcel.sol\":865:894  _parcel_land[owner].parcel_no */\n      0x00\n      add\n        /* \"contracts/Parcel.sol\":865:906  _parcel_land[owner].parcel_no = parcel_no */\n      dup2\n      swap1\n      sstore\n      pop\n        /* \"contracts/Parcel.sol\":949:959  owner_name */\n      dup3\n        /* \"contracts/Parcel.sol\":916:928  _parcel_land */\n      0x01\n        /* \"contracts/Parcel.sol\":916:935  _parcel_land[owner] */\n      0x00\n        /* \"contracts/Parcel.sol\":929:934  owner */\n      dup8\n        /* \"contracts/Parcel.sol\":916:935  _parcel_land[owner] */\n      0xffffffffffffffffffffffffffffffffffffffff\n      and\n      0xffffffffffffffffffffffffffffffffffffffff\n      and\n      dup2\n      mstore\n      0x20\n      add\n      swap1\n      dup2\n      mstore\n      0x20\n      add\n      0x00\n      keccak256\n        /* \"contracts/Parcel.sol\":916:946  _parcel_land[owner].owner_name */\n      0x01\n      add\n        /* \"contracts/Parcel.sol\":916:959  _parcel_land[owner].owner_name = owner_name */\n      swap1\n      dup1\n      mload\n      swap1\n      0x20\n      add\n      swap1\n      tag_63\n      swap3\n      swap2\n      swap1\n      tag_57\n      jump\t// in\n    tag_63:\n      pop\n        /* \"contracts/Parcel.sol\":997:1002  price */\n      dup2\n        /* \"contracts/Parcel.sol\":969:981  _parcel_land */\n      0x01\n        /* \"contracts/Parcel.sol\":969:988  _parcel_land[owner] */\n      0x00\n        /* \"contracts/Parcel.sol\":982:987  owner */\n      dup8\n        /* \"contracts/Parcel.sol\":969:988  _parcel_land[owner] */\n      0xffffffffffffffffffffffffffffffffffffffff\n      and\n      0xffffffffffffffffffffffffffffffffffffffff\n      and\n      dup2\n      mstore\n      0x20\n      add\n      swap1\n      dup2\n      mstore\n      0x20\n      add\n      0x00\n      keccak256\n        /* \"contracts/Parcel.sol\":969:994  _parcel_land[owner].price */\n      0x02\n      add\n        /* \"contracts/Parcel.sol\":969:1002  _parcel_land[owner].price = price */\n      dup2\n      swap1\n      sstore\n      pop\n        /* \"contracts/Parcel.sol\":1039:1043  area */\n      dup1\n        /* \"contracts/Parcel.sol\":1012:1024  _parcel_land */\n      0x01\n        /* \"contracts/Parcel.sol\":1012:1031  _parcel_land[owner] */\n      0x00\n        /* \"contracts/Parcel.sol\":1025:1030  owner */\n      dup8\n        /* \"contracts/Parcel.sol\":1012:1031  _parcel_land[owner] */\n      0xffffffffffffffffffffffffffffffffffffffff\n      and\n      0xffffffffffffffffffffffffffffffffffffffff\n      and\n      dup2\n      mstore\n      0x20\n      add\n      swap1\n      dup2\n      mstore\n      0x20\n      add\n      0x00\n      keccak256\n        /* \"contracts/Parcel.sol\":1012:1036  _parcel_land[owner].area */\n      0x03\n      add\n        /* \"contracts/Parcel.sol\":1012:1043  _parcel_land[owner].area = area */\n      dup2\n      swap1\n      sstore\n      pop\n        /* \"contracts/Parcel.sol\":730:1051  function createParcel(address owner, uint parcel_no, string memory owner_name, uint price, uint area) isStaff public payable {\r... */\n      pop\n      pop\n      pop\n      pop\n      pop\n      jump\t// out\n    tag_29:\n      mload(0x40)\n      dup1\n      0x80\n      add\n      0x40\n      mstore\n      dup1\n      0x00\n      dup2\n      mstore\n      0x20\n      add\n      0x60\n      dup2\n      mstore\n      0x20\n      add\n      0x00\n      dup2\n      mstore\n      0x20\n      add\n      0x00\n      dup2\n      mstore\n      pop\n      swap1\n      jump\t// out\n    tag_42:\n      mload(0x40)\n      dup1\n      0x40\n      add\n      0x40\n      mstore\n      dup1\n      0x60\n      dup2\n      mstore\n      0x20\n      add\n      0x00\n      dup2\n      mstore\n      pop\n      swap1\n      jump\t// out\n    tag_57:\n      dup3\n      dup1\n      sload\n      tag_64\n      swap1\n      tag_36\n      jump\t// in\n    tag_64:\n      swap1\n      0x00\n      mstore\n      keccak256(0x00, 0x20)\n      swap1\n      0x1f\n      add\n      0x20\n      swap1\n      div\n      dup2\n      add\n      swap3\n      dup3\n      tag_66\n      jumpi\n      0x00\n      dup6\n      sstore\n      jump(tag_65)\n    tag_66:\n      dup3\n      0x1f\n      lt\n      tag_67\n      jumpi\n      dup1\n      mload\n      not(0xff)\n      and\n      dup4\n      dup1\n      add\n      or\n      dup6\n      sstore\n      jump(tag_65)\n    tag_67:\n      dup3\n      dup1\n      add\n      0x01\n      add\n      dup6\n      sstore\n      dup3\n      iszero\n      tag_65\n      jumpi\n      swap2\n      dup3\n      add\n    tag_68:\n      dup3\n      dup2\n      gt\n      iszero\n      tag_69\n      jumpi\n      dup3\n      mload\n      dup3\n      sstore\n      swap2\n      0x20\n      add\n      swap2\n      swap1\n      0x01\n      add\n      swap1\n      jump(tag_68)\n    tag_69:\n    tag_65:\n      pop\n      swap1\n      pop\n      tag_70\n      swap2\n      swap1\n      tag_71\n      jump\t// in\n    tag_70:\n      pop\n      swap1\n      jump\t// out\n    tag_71:\n    tag_72:\n      dup1\n      dup3\n      gt\n      iszero\n      tag_73\n      jumpi\n      0x00\n      dup2\n      0x00\n      swap1\n      sstore\n      pop\n      0x01\n      add\n      jump(tag_72)\n    tag_73:\n      pop\n      swap1\n      jump\t// out\n        /* \"#utility.yul\":7:419   */\n    tag_75:\n        /* \"#utility.yul\":85:90   */\n      0x00\n        /* \"#utility.yul\":110:176   */\n      tag_77\n        /* \"#utility.yul\":126:175   */\n      tag_78\n        /* \"#utility.yul\":168:174   */\n      dup5\n        /* \"#utility.yul\":126:175   */\n      tag_79\n      jump\t// in\n    tag_78:\n        /* \"#utility.yul\":110:176   */\n      tag_80\n      jump\t// in\n    tag_77:\n        /* \"#utility.yul\":101:176   */\n      swap1\n      pop\n        /* \"#utility.yul\":199:205   */\n      dup3\n        /* \"#utility.yul\":192:197   */\n      dup2\n        /* \"#utility.yul\":185:206   */\n      mstore\n        /* \"#utility.yul\":237:241   */\n      0x20\n        /* \"#utility.yul\":230:235   */\n      dup2\n        /* \"#utility.yul\":226:242   */\n      add\n        /* \"#utility.yul\":275:278   */\n      dup5\n        /* \"#utility.yul\":266:272   */\n      dup5\n        /* \"#utility.yul\":261:264   */\n      dup5\n        /* \"#utility.yul\":257:273   */\n      add\n        /* \"#utility.yul\":254:279   */\n      gt\n        /* \"#utility.yul\":251:363   */\n      iszero\n      tag_81\n      jumpi\n        /* \"#utility.yul\":282:361   */\n      tag_82\n      tag_83\n      jump\t// in\n    tag_82:\n        /* \"#utility.yul\":251:363   */\n    tag_81:\n        /* \"#utility.yul\":372:413   */\n      tag_84\n        /* \"#utility.yul\":406:412   */\n      dup5\n        /* \"#utility.yul\":401:404   */\n      dup3\n        /* \"#utility.yul\":396:399   */\n      dup6\n        /* \"#utility.yul\":372:413   */\n      tag_85\n      jump\t// in\n    tag_84:\n        /* \"#utility.yul\":91:419   */\n      pop\n        /* \"#utility.yul\":7:419   */\n      swap4\n      swap3\n      pop\n      pop\n      pop\n      jump\t// out\n        /* \"#utility.yul\":425:564   */\n    tag_86:\n        /* \"#utility.yul\":471:476   */\n      0x00\n        /* \"#utility.yul\":509:515   */\n      dup2\n        /* \"#utility.yul\":496:516   */\n      calldataload\n        /* \"#utility.yul\":487:516   */\n      swap1\n      pop\n        /* \"#utility.yul\":525:558   */\n      tag_88\n        /* \"#utility.yul\":552:557   */\n      dup2\n        /* \"#utility.yul\":525:558   */\n      tag_89\n      jump\t// in\n    tag_88:\n        /* \"#utility.yul\":425:564   */\n      swap3\n      swap2\n      pop\n      pop\n      jump\t// out\n        /* \"#utility.yul\":584:924   */\n    tag_90:\n        /* \"#utility.yul\":640:645   */\n      0x00\n        /* \"#utility.yul\":689:692   */\n      dup3\n        /* \"#utility.yul\":682:686   */\n      0x1f\n        /* \"#utility.yul\":674:680   */\n      dup4\n        /* \"#utility.yul\":670:687   */\n      add\n        /* \"#utility.yul\":666:693   */\n      slt\n        /* \"#utility.yul\":656:778   */\n      tag_92\n      jumpi\n        /* \"#utility.yul\":697:776   */\n      tag_93\n      tag_94\n      jump\t// in\n    tag_93:\n        /* \"#utility.yul\":656:778   */\n    tag_92:\n        /* \"#utility.yul\":814:820   */\n      dup2\n        /* \"#utility.yul\":801:821   */\n      calldataload\n        /* \"#utility.yul\":839:918   */\n      tag_95\n        /* \"#utility.yul\":914:917   */\n      dup5\n        /* \"#utility.yul\":906:912   */\n      dup3\n        /* \"#utility.yul\":899:903   */\n      0x20\n        /* \"#utility.yul\":891:897   */\n      dup7\n        /* \"#utility.yul\":887:904   */\n      add\n        /* \"#utility.yul\":839:918   */\n      tag_75\n      jump\t// in\n    tag_95:\n        /* \"#utility.yul\":830:918   */\n      swap2\n      pop\n        /* \"#utility.yul\":646:924   */\n      pop\n        /* \"#utility.yul\":584:924   */\n      swap3\n      swap2\n      pop\n      pop\n      jump\t// out\n        /* \"#utility.yul\":930:1069   */\n    tag_96:\n        /* \"#utility.yul\":976:981   */\n      0x00\n        /* \"#utility.yul\":1014:1020   */\n      dup2\n        /* \"#utility.yul\":1001:1021   */\n      calldataload\n        /* \"#utility.yul\":992:1021   */\n      swap1\n      pop\n        /* \"#utility.yul\":1030:1063   */\n      tag_98\n        /* \"#utility.yul\":1057:1062   */\n      dup2\n        /* \"#utility.yul\":1030:1063   */\n      tag_99\n      jump\t// in\n    tag_98:\n        /* \"#utility.yul\":930:1069   */\n      swap3\n      swap2\n      pop\n      pop\n      jump\t// out\n        /* \"#utility.yul\":1075:1404   */\n    tag_9:\n        /* \"#utility.yul\":1134:1140   */\n      0x00\n        /* \"#utility.yul\":1183:1185   */\n      0x20\n        /* \"#utility.yul\":1171:1180   */\n      dup3\n        /* \"#utility.yul\":1162:1169   */\n      dup5\n        /* \"#utility.yul\":1158:1181   */\n      sub\n        /* \"#utility.yul\":1154:1186   */\n      slt\n        /* \"#utility.yul\":1151:1270   */\n      iszero\n      tag_101\n      jumpi\n        /* \"#utility.yul\":1189:1268   */\n      tag_102\n      tag_103\n      jump\t// in\n    tag_102:\n        /* \"#utility.yul\":1151:1270   */\n    tag_101:\n        /* \"#utility.yul\":1309:1310   */\n      0x00\n        /* \"#utility.yul\":1334:1387   */\n      tag_104\n        /* \"#utility.yul\":1379:1386   */\n      dup5\n        /* \"#utility.yul\":1370:1376   */\n      dup3\n        /* \"#utility.yul\":1359:1368   */\n      dup6\n        /* \"#utility.yul\":1355:1377   */\n      add\n        /* \"#utility.yul\":1334:1387   */\n      tag_86\n      jump\t// in\n    tag_104:\n        /* \"#utility.yul\":1324:1387   */\n      swap2\n      pop\n        /* \"#utility.yul\":1280:1397   */\n      pop\n        /* \"#utility.yul\":1075:1404   */\n      swap3\n      swap2\n      pop\n      pop\n      jump\t// out\n        /* \"#utility.yul\":1410:2209   */\n    tag_22:\n        /* \"#utility.yul\":1497:1503   */\n      0x00\n        /* \"#utility.yul\":1505:1511   */\n      dup1\n        /* \"#utility.yul\":1513:1519   */\n      0x00\n        /* \"#utility.yul\":1562:1564   */\n      0x60\n        /* \"#utility.yul\":1550:1559   */\n      dup5\n        /* \"#utility.yul\":1541:1548   */\n      dup7\n        /* \"#utility.yul\":1537:1560   */\n      sub\n        /* \"#utility.yul\":1533:1565   */\n      slt\n        /* \"#utility.yul\":1530:1649   */\n      iszero\n      tag_106\n      jumpi\n        /* \"#utility.yul\":1568:1647   */\n      tag_107\n      tag_103\n      jump\t// in\n    tag_107:\n        /* \"#utility.yul\":1530:1649   */\n    tag_106:\n        /* \"#utility.yul\":1688:1689   */\n      0x00\n        /* \"#utility.yul\":1713:1766   */\n      tag_108\n        /* \"#utility.yul\":1758:1765   */\n      dup7\n        /* \"#utility.yul\":1749:1755   */\n      dup3\n        /* \"#utility.yul\":1738:1747   */\n      dup8\n        /* \"#utility.yul\":1734:1756   */\n      add\n        /* \"#utility.yul\":1713:1766   */\n      tag_86\n      jump\t// in\n    tag_108:\n        /* \"#utility.yul\":1703:1766   */\n      swap4\n      pop\n        /* \"#utility.yul\":1659:1776   */\n      pop\n        /* \"#utility.yul\":1843:1845   */\n      0x20\n        /* \"#utility.yul\":1832:1841   */\n      dup5\n        /* \"#utility.yul\":1828:1846   */\n      add\n        /* \"#utility.yul\":1815:1847   */\n      calldataload\n        /* \"#utility.yul\":1874:1892   */\n      0xffffffffffffffff\n        /* \"#utility.yul\":1866:1872   */\n      dup2\n        /* \"#utility.yul\":1863:1893   */\n      gt\n        /* \"#utility.yul\":1860:1977   */\n      iszero\n      tag_109\n      jumpi\n        /* \"#utility.yul\":1896:1975   */\n      tag_110\n      tag_111\n      jump\t// in\n    tag_110:\n        /* \"#utility.yul\":1860:1977   */\n    tag_109:\n        /* \"#utility.yul\":2001:2064   */\n      tag_112\n        /* \"#utility.yul\":2056:2063   */\n      dup7\n        /* \"#utility.yul\":2047:2053   */\n      dup3\n        /* \"#utility.yul\":2036:2045   */\n      dup8\n        /* \"#utility.yul\":2032:2054   */\n      add\n        /* \"#utility.yul\":2001:2064   */\n      tag_90\n      jump\t// in\n    tag_112:\n        /* \"#utility.yul\":1991:2064   */\n      swap3\n      pop\n        /* \"#utility.yul\":1786:2074   */\n      pop\n        /* \"#utility.yul\":2113:2115   */\n      0x40\n        /* \"#utility.yul\":2139:2192   */\n      tag_113\n        /* \"#utility.yul\":2184:2191   */\n      dup7\n        /* \"#utility.yul\":2175:2181   */\n      dup3\n        /* \"#utility.yul\":2164:2173   */\n      dup8\n        /* \"#utility.yul\":2160:2182   */\n      add\n        /* \"#utility.yul\":2139:2192   */\n      tag_96\n      jump\t// in\n    tag_113:\n        /* \"#utility.yul\":2129:2192   */\n      swap2\n      pop\n        /* \"#utility.yul\":2084:2202   */\n      pop\n        /* \"#utility.yul\":1410:2209   */\n      swap3\n      pop\n      swap3\n      pop\n      swap3\n      jump\t// out\n        /* \"#utility.yul\":2215:3306   */\n    tag_26:\n        /* \"#utility.yul\":2320:2326   */\n      0x00\n        /* \"#utility.yul\":2328:2334   */\n      dup1\n        /* \"#utility.yul\":2336:2342   */\n      0x00\n        /* \"#utility.yul\":2344:2350   */\n      dup1\n        /* \"#utility.yul\":2352:2358   */\n      0x00\n        /* \"#utility.yul\":2401:2404   */\n      0xa0\n        /* \"#utility.yul\":2389:2398   */\n      dup7\n        /* \"#utility.yul\":2380:2387   */\n      dup9\n        /* \"#utility.yul\":2376:2399   */\n      sub\n        /* \"#utility.yul\":2372:2405   */\n      slt\n        /* \"#utility.yul\":2369:2489   */\n      iszero\n      tag_115\n      jumpi\n        /* \"#utility.yul\":2408:2487   */\n      tag_116\n      tag_103\n      jump\t// in\n    tag_116:\n        /* \"#utility.yul\":2369:2489   */\n    tag_115:\n        /* \"#utility.yul\":2528:2529   */\n      0x00\n        /* \"#utility.yul\":2553:2606   */\n      tag_117\n        /* \"#utility.yul\":2598:2605   */\n      dup9\n        /* \"#utility.yul\":2589:2595   */\n      dup3\n        /* \"#utility.yul\":2578:2587   */\n      dup10\n        /* \"#utility.yul\":2574:2596   */\n      add\n        /* \"#utility.yul\":2553:2606   */\n      tag_86\n      jump\t// in\n    tag_117:\n        /* \"#utility.yul\":2543:2606   */\n      swap6\n      pop\n        /* \"#utility.yul\":2499:2616   */\n      pop\n        /* \"#utility.yul\":2655:2657   */\n      0x20\n        /* \"#utility.yul\":2681:2734   */\n      tag_118\n        /* \"#utility.yul\":2726:2733   */\n      dup9\n        /* \"#utility.yul\":2717:2723   */\n      dup3\n        /* \"#utility.yul\":2706:2715   */\n      dup10\n        /* \"#utility.yul\":2702:2724   */\n      add\n        /* \"#utility.yul\":2681:2734   */\n      tag_96\n      jump\t// in\n    tag_118:\n        /* \"#utility.yul\":2671:2734   */\n      swap5\n      pop\n        /* \"#utility.yul\":2626:2744   */\n      pop\n        /* \"#utility.yul\":2811:2813   */\n      0x40\n        /* \"#utility.yul\":2800:2809   */\n      dup7\n        /* \"#utility.yul\":2796:2814   */\n      add\n        /* \"#utility.yul\":2783:2815   */\n      calldataload\n        /* \"#utility.yul\":2842:2860   */\n      0xffffffffffffffff\n        /* \"#utility.yul\":2834:2840   */\n      dup2\n        /* \"#utility.yul\":2831:2861   */\n      gt\n        /* \"#utility.yul\":2828:2945   */\n      iszero\n      tag_119\n      jumpi\n        /* \"#utility.yul\":2864:2943   */\n      tag_120\n      tag_111\n      jump\t// in\n    tag_120:\n        /* \"#utility.yul\":2828:2945   */\n    tag_119:\n        /* \"#utility.yul\":2969:3032   */\n      tag_121\n        /* \"#utility.yul\":3024:3031   */\n      dup9\n        /* \"#utility.yul\":3015:3021   */\n      dup3\n        /* \"#utility.yul\":3004:3013   */\n      dup10\n        /* \"#utility.yul\":3000:3022   */\n      add\n        /* \"#utility.yul\":2969:3032   */\n      tag_90\n      jump\t// in\n    tag_121:\n        /* \"#utility.yul\":2959:3032   */\n      swap4\n      pop\n        /* \"#utility.yul\":2754:3042   */\n      pop\n        /* \"#utility.yul\":3081:3083   */\n      0x60\n        /* \"#utility.yul\":3107:3160   */\n      tag_122\n        /* \"#utility.yul\":3152:3159   */\n      dup9\n        /* \"#utility.yul\":3143:3149   */\n      dup3\n        /* \"#utility.yul\":3132:3141   */\n      dup10\n        /* \"#utility.yul\":3128:3150   */\n      add\n        /* \"#utility.yul\":3107:3160   */\n      tag_96\n      jump\t// in\n    tag_122:\n        /* \"#utility.yul\":3097:3160   */\n      swap3\n      pop\n        /* \"#utility.yul\":3052:3170   */\n      pop\n        /* \"#utility.yul\":3209:3212   */\n      0x80\n        /* \"#utility.yul\":3236:3289   */\n      tag_123\n        /* \"#utility.yul\":3281:3288   */\n      dup9\n        /* \"#utility.yul\":3272:3278   */\n      dup3\n        /* \"#utility.yul\":3261:3270   */\n      dup10\n        /* \"#utility.yul\":3257:3279   */\n      add\n        /* \"#utility.yul\":3236:3289   */\n      tag_96\n      jump\t// in\n    tag_123:\n        /* \"#utility.yul\":3226:3289   */\n      swap2\n      pop\n        /* \"#utility.yul\":3180:3299   */\n      pop\n        /* \"#utility.yul\":2215:3306   */\n      swap3\n      swap6\n      pop\n      swap3\n      swap6\n      swap1\n      swap4\n      pop\n      jump\t// out\n        /* \"#utility.yul\":3312:3656   */\n    tag_124:\n        /* \"#utility.yul\":3390:3393   */\n      0x00\n        /* \"#utility.yul\":3418:3457   */\n      tag_126\n        /* \"#utility.yul\":3451:3456   */\n      dup3\n        /* \"#utility.yul\":3418:3457   */\n      tag_127\n      jump\t// in\n    tag_126:\n        /* \"#utility.yul\":3473:3534   */\n      tag_128\n        /* \"#utility.yul\":3527:3533   */\n      dup2\n        /* \"#utility.yul\":3522:3525   */\n      dup6\n        /* \"#utility.yul\":3473:3534   */\n      tag_129\n      jump\t// in\n    tag_128:\n        /* \"#utility.yul\":3466:3534   */\n      swap4\n      pop\n        /* \"#utility.yul\":3543:3595   */\n      tag_130\n        /* \"#utility.yul\":3588:3594   */\n      dup2\n        /* \"#utility.yul\":3583:3586   */\n      dup6\n        /* \"#utility.yul\":3576:3580   */\n      0x20\n        /* \"#utility.yul\":3569:3574   */\n      dup7\n        /* \"#utility.yul\":3565:3581   */\n      add\n        /* \"#utility.yul\":3543:3595   */\n      tag_131\n      jump\t// in\n    tag_130:\n        /* \"#utility.yul\":3620:3649   */\n      tag_132\n        /* \"#utility.yul\":3642:3648   */\n      dup2\n        /* \"#utility.yul\":3620:3649   */\n      tag_133\n      jump\t// in\n    tag_132:\n        /* \"#utility.yul\":3615:3618   */\n      dup5\n        /* \"#utility.yul\":3611:3650   */\n      add\n        /* \"#utility.yul\":3604:3650   */\n      swap2\n      pop\n        /* \"#utility.yul\":3394:3656   */\n      pop\n        /* \"#utility.yul\":3312:3656   */\n      swap3\n      swap2\n      pop\n      pop\n      jump\t// out\n        /* \"#utility.yul\":3662:4028   */\n    tag_134:\n        /* \"#utility.yul\":3804:3807   */\n      0x00\n        /* \"#utility.yul\":3825:3892   */\n      tag_136\n        /* \"#utility.yul\":3889:3891   */\n      0x1d\n        /* \"#utility.yul\":3884:3887   */\n      dup4\n        /* \"#utility.yul\":3825:3892   */\n      tag_137\n      jump\t// in\n    tag_136:\n        /* \"#utility.yul\":3818:3892   */\n      swap2\n      pop\n        /* \"#utility.yul\":3901:3994   */\n      tag_138\n        /* \"#utility.yul\":3990:3993   */\n      dup3\n        /* \"#utility.yul\":3901:3994   */\n      tag_139\n      jump\t// in\n    tag_138:\n        /* \"#utility.yul\":4019:4021   */\n      0x20\n        /* \"#utility.yul\":4014:4017   */\n      dup3\n        /* \"#utility.yul\":4010:4022   */\n      add\n        /* \"#utility.yul\":4003:4022   */\n      swap1\n      pop\n        /* \"#utility.yul\":3662:4028   */\n      swap2\n      swap1\n      pop\n      jump\t// out\n        /* \"#utility.yul\":4068:4675   */\n    tag_140:\n        /* \"#utility.yul\":4177:4180   */\n      0x00\n        /* \"#utility.yul\":4213:4217   */\n      0x40\n        /* \"#utility.yul\":4208:4211   */\n      dup4\n        /* \"#utility.yul\":4204:4218   */\n      add\n        /* \"#utility.yul\":4305:4309   */\n      0x00\n        /* \"#utility.yul\":4298:4303   */\n      dup4\n        /* \"#utility.yul\":4294:4310   */\n      add\n        /* \"#utility.yul\":4288:4311   */\n      mload\n        /* \"#utility.yul\":4358:4361   */\n      dup5\n        /* \"#utility.yul\":4352:4356   */\n      dup3\n        /* \"#utility.yul\":4348:4362   */\n      sub\n        /* \"#utility.yul\":4341:4345   */\n      0x00\n        /* \"#utility.yul\":4336:4339   */\n      dup7\n        /* \"#utility.yul\":4332:4346   */\n      add\n        /* \"#utility.yul\":4325:4363   */\n      mstore\n        /* \"#utility.yul\":4384:4457   */\n      tag_142\n        /* \"#utility.yul\":4452:4456   */\n      dup3\n        /* \"#utility.yul\":4438:4450   */\n      dup3\n        /* \"#utility.yul\":4384:4457   */\n      tag_124\n      jump\t// in\n    tag_142:\n        /* \"#utility.yul\":4376:4457   */\n      swap2\n      pop\n        /* \"#utility.yul\":4228:4468   */\n      pop\n        /* \"#utility.yul\":4556:4560   */\n      0x20\n        /* \"#utility.yul\":4549:4554   */\n      dup4\n        /* \"#utility.yul\":4545:4561   */\n      add\n        /* \"#utility.yul\":4539:4562   */\n      mload\n        /* \"#utility.yul\":4575:4638   */\n      tag_143\n        /* \"#utility.yul\":4632:4636   */\n      0x20\n        /* \"#utility.yul\":4627:4630   */\n      dup7\n        /* \"#utility.yul\":4623:4637   */\n      add\n        /* \"#utility.yul\":4609:4621   */\n      dup3\n        /* \"#utility.yul\":4575:4638   */\n      tag_144\n      jump\t// in\n    tag_143:\n        /* \"#utility.yul\":4478:4648   */\n      pop\n        /* \"#utility.yul\":4665:4669   */\n      dup1\n        /* \"#utility.yul\":4658:4669   */\n      swap2\n      pop\n        /* \"#utility.yul\":4182:4675   */\n      pop\n        /* \"#utility.yul\":4068:4675   */\n      swap3\n      swap2\n      pop\n      pop\n      jump\t// out\n        /* \"#utility.yul\":4729:5699   */\n    tag_145:\n        /* \"#utility.yul\":4852:4855   */\n      0x00\n        /* \"#utility.yul\":4888:4892   */\n      0x80\n        /* \"#utility.yul\":4883:4886   */\n      dup4\n        /* \"#utility.yul\":4879:4893   */\n      add\n        /* \"#utility.yul\":4980:4984   */\n      0x00\n        /* \"#utility.yul\":4973:4978   */\n      dup4\n        /* \"#utility.yul\":4969:4985   */\n      add\n        /* \"#utility.yul\":4963:4986   */\n      mload\n        /* \"#utility.yul\":4999:5062   */\n      tag_147\n        /* \"#utility.yul\":5056:5060   */\n      0x00\n        /* \"#utility.yul\":5051:5054   */\n      dup7\n        /* \"#utility.yul\":5047:5061   */\n      add\n        /* \"#utility.yul\":5033:5045   */\n      dup3\n        /* \"#utility.yul\":4999:5062   */\n      tag_144\n      jump\t// in\n    tag_147:\n        /* \"#utility.yul\":4903:5072   */\n      pop\n        /* \"#utility.yul\":5160:5164   */\n      0x20\n        /* \"#utility.yul\":5153:5158   */\n      dup4\n        /* \"#utility.yul\":5149:5165   */\n      add\n        /* \"#utility.yul\":5143:5166   */\n      mload\n        /* \"#utility.yul\":5213:5216   */\n      dup5\n        /* \"#utility.yul\":5207:5211   */\n      dup3\n        /* \"#utility.yul\":5203:5217   */\n      sub\n        /* \"#utility.yul\":5196:5200   */\n      0x20\n        /* \"#utility.yul\":5191:5194   */\n      dup7\n        /* \"#utility.yul\":5187:5201   */\n      add\n        /* \"#utility.yul\":5180:5218   */\n      mstore\n        /* \"#utility.yul\":5239:5312   */\n      tag_148\n        /* \"#utility.yul\":5307:5311   */\n      dup3\n        /* \"#utility.yul\":5293:5305   */\n      dup3\n        /* \"#utility.yul\":5239:5312   */\n      tag_124\n      jump\t// in\n    tag_148:\n        /* \"#utility.yul\":5231:5312   */\n      swap2\n      pop\n        /* \"#utility.yul\":5082:5323   */\n      pop\n        /* \"#utility.yul\":5406:5410   */\n      0x40\n        /* \"#utility.yul\":5399:5404   */\n      dup4\n        /* \"#utility.yul\":5395:5411   */\n      add\n        /* \"#utility.yul\":5389:5412   */\n      mload\n        /* \"#utility.yul\":5425:5488   */\n      tag_149\n        /* \"#utility.yul\":5482:5486   */\n      0x40\n        /* \"#utility.yul\":5477:5480   */\n      dup7\n        /* \"#utility.yul\":5473:5487   */\n      add\n        /* \"#utility.yul\":5459:5471   */\n      dup3\n        /* \"#utility.yul\":5425:5488   */\n      tag_144\n      jump\t// in\n    tag_149:\n        /* \"#utility.yul\":5333:5498   */\n      pop\n        /* \"#utility.yul\":5580:5584   */\n      0x60\n        /* \"#utility.yul\":5573:5578   */\n      dup4\n        /* \"#utility.yul\":5569:5585   */\n      add\n        /* \"#utility.yul\":5563:5586   */\n      mload\n        /* \"#utility.yul\":5599:5662   */\n      tag_150\n        /* \"#utility.yul\":5656:5660   */\n      0x60\n        /* \"#utility.yul\":5651:5654   */\n      dup7\n        /* \"#utility.yul\":5647:5661   */\n      add\n        /* \"#utility.yul\":5633:5645   */\n      dup3\n        /* \"#utility.yul\":5599:5662   */\n      tag_144\n      jump\t// in\n    tag_150:\n        /* \"#utility.yul\":5508:5672   */\n      pop\n        /* \"#utility.yul\":5689:5693   */\n      dup1\n        /* \"#utility.yul\":5682:5693   */\n      swap2\n      pop\n        /* \"#utility.yul\":4857:5699   */\n      pop\n        /* \"#utility.yul\":4729:5699   */\n      swap3\n      swap2\n      pop\n      pop\n      jump\t// out\n        /* \"#utility.yul\":5705:5813   */\n    tag_144:\n        /* \"#utility.yul\":5782:5806   */\n      tag_152\n        /* \"#utility.yul\":5800:5805   */\n      dup2\n        /* \"#utility.yul\":5782:5806   */\n      tag_153\n      jump\t// in\n    tag_152:\n        /* \"#utility.yul\":5777:5780   */\n      dup3\n        /* \"#utility.yul\":5770:5807   */\n      mstore\n        /* \"#utility.yul\":5705:5813   */\n      pop\n      pop\n      jump\t// out\n        /* \"#utility.yul\":5819:6238   */\n    tag_33:\n        /* \"#utility.yul\":5985:5989   */\n      0x00\n        /* \"#utility.yul\":6023:6025   */\n      0x20\n        /* \"#utility.yul\":6012:6021   */\n      dup3\n        /* \"#utility.yul\":6008:6026   */\n      add\n        /* \"#utility.yul\":6000:6026   */\n      swap1\n      pop\n        /* \"#utility.yul\":6072:6081   */\n      dup2\n        /* \"#utility.yul\":6066:6070   */\n      dup2\n        /* \"#utility.yul\":6062:6082   */\n      sub\n        /* \"#utility.yul\":6058:6059   */\n      0x00\n        /* \"#utility.yul\":6047:6056   */\n      dup4\n        /* \"#utility.yul\":6043:6060   */\n      add\n        /* \"#utility.yul\":6036:6083   */\n      mstore\n        /* \"#utility.yul\":6100:6231   */\n      tag_155\n        /* \"#utility.yul\":6226:6230   */\n      dup2\n        /* \"#utility.yul\":6100:6231   */\n      tag_134\n      jump\t// in\n    tag_155:\n        /* \"#utility.yul\":6092:6231   */\n      swap1\n      pop\n        /* \"#utility.yul\":5819:6238   */\n      swap2\n      swap1\n      pop\n      jump\t// out\n        /* \"#utility.yul\":6244:6597   */\n    tag_18:\n        /* \"#utility.yul\":6377:6381   */\n      0x00\n        /* \"#utility.yul\":6415:6417   */\n      0x20\n        /* \"#utility.yul\":6404:6413   */\n      dup3\n        /* \"#utility.yul\":6400:6418   */\n      add\n        /* \"#utility.yul\":6392:6418   */\n      swap1\n      pop\n        /* \"#utility.yul\":6464:6473   */\n      dup2\n        /* \"#utility.yul\":6458:6462   */\n      dup2\n        /* \"#utility.yul\":6454:6474   */\n      sub\n        /* \"#utility.yul\":6450:6451   */\n      0x00\n        /* \"#utility.yul\":6439:6448   */\n      dup4\n        /* \"#utility.yul\":6435:6452   */\n      add\n        /* \"#utility.yul\":6428:6475   */\n      mstore\n        /* \"#utility.yul\":6492:6590   */\n      tag_157\n        /* \"#utility.yul\":6585:6589   */\n      dup2\n        /* \"#utility.yul\":6576:6582   */\n      dup5\n        /* \"#utility.yul\":6492:6590   */\n      tag_140\n      jump\t// in\n    tag_157:\n        /* \"#utility.yul\":6484:6590   */\n      swap1\n      pop\n        /* \"#utility.yul\":6244:6597   */\n      swap3\n      swap2\n      pop\n      pop\n      jump\t// out\n        /* \"#utility.yul\":6603:6984   */\n    tag_12:\n        /* \"#utility.yul\":6750:6754   */\n      0x00\n        /* \"#utility.yul\":6788:6790   */\n      0x20\n        /* \"#utility.yul\":6777:6786   */\n      dup3\n        /* \"#utility.yul\":6773:6791   */\n      add\n        /* \"#utility.yul\":6765:6791   */\n      swap1\n      pop\n        /* \"#utility.yul\":6837:6846   */\n      dup2\n        /* \"#utility.yul\":6831:6835   */\n      dup2\n        /* \"#utility.yul\":6827:6847   */\n      sub\n        /* \"#utility.yul\":6823:6824   */\n      0x00\n        /* \"#utility.yul\":6812:6821   */\n      dup4\n        /* \"#utility.yul\":6808:6825   */\n      add\n        /* \"#utility.yul\":6801:6848   */\n      mstore\n        /* \"#utility.yul\":6865:6977   */\n      tag_159\n        /* \"#utility.yul\":6972:6976   */\n      dup2\n        /* \"#utility.yul\":6963:6969   */\n      dup5\n        /* \"#utility.yul\":6865:6977   */\n      tag_145\n      jump\t// in\n    tag_159:\n        /* \"#utility.yul\":6857:6977   */\n      swap1\n      pop\n        /* \"#utility.yul\":6603:6984   */\n      swap3\n      swap2\n      pop\n      pop\n      jump\t// out\n        /* \"#utility.yul\":6990:7119   */\n    tag_80:\n        /* \"#utility.yul\":7024:7030   */\n      0x00\n        /* \"#utility.yul\":7051:7071   */\n      tag_161\n      tag_162\n      jump\t// in\n    tag_161:\n        /* \"#utility.yul\":7041:7071   */\n      swap1\n      pop\n        /* \"#utility.yul\":7080:7113   */\n      tag_163\n        /* \"#utility.yul\":7108:7112   */\n      dup3\n        /* \"#utility.yul\":7100:7106   */\n      dup3\n        /* \"#utility.yul\":7080:7113   */\n      tag_164\n      jump\t// in\n    tag_163:\n        /* \"#utility.yul\":6990:7119   */\n      swap2\n      swap1\n      pop\n      jump\t// out\n        /* \"#utility.yul\":7125:7200   */\n    tag_162:\n        /* \"#utility.yul\":7158:7164   */\n      0x00\n        /* \"#utility.yul\":7191:7193   */\n      0x40\n        /* \"#utility.yul\":7185:7194   */\n      mload\n        /* \"#utility.yul\":7175:7194   */\n      swap1\n      pop\n        /* \"#utility.yul\":7125:7200   */\n      swap1\n      jump\t// out\n        /* \"#utility.yul\":7206:7514   */\n    tag_79:\n        /* \"#utility.yul\":7268:7272   */\n      0x00\n        /* \"#utility.yul\":7358:7376   */\n      0xffffffffffffffff\n        /* \"#utility.yul\":7350:7356   */\n      dup3\n        /* \"#utility.yul\":7347:7377   */\n      gt\n        /* \"#utility.yul\":7344:7400   */\n      iszero\n      tag_167\n      jumpi\n        /* \"#utility.yul\":7380:7398   */\n      tag_168\n      tag_169\n      jump\t// in\n    tag_168:\n        /* \"#utility.yul\":7344:7400   */\n    tag_167:\n        /* \"#utility.yul\":7418:7447   */\n      tag_170\n        /* \"#utility.yul\":7440:7446   */\n      dup3\n        /* \"#utility.yul\":7418:7447   */\n      tag_133\n      jump\t// in\n    tag_170:\n        /* \"#utility.yul\":7410:7447   */\n      swap1\n      pop\n        /* \"#utility.yul\":7502:7506   */\n      0x20\n        /* \"#utility.yul\":7496:7500   */\n      dup2\n        /* \"#utility.yul\":7492:7507   */\n      add\n        /* \"#utility.yul\":7484:7507   */\n      swap1\n      pop\n        /* \"#utility.yul\":7206:7514   */\n      swap2\n      swap1\n      pop\n      jump\t// out\n        /* \"#utility.yul\":7520:7619   */\n    tag_127:\n        /* \"#utility.yul\":7572:7578   */\n      0x00\n        /* \"#utility.yul\":7606:7611   */\n      dup2\n        /* \"#utility.yul\":7600:7612   */\n      mload\n        /* \"#utility.yul\":7590:7612   */\n      swap1\n      pop\n        /* \"#utility.yul\":7520:7619   */\n      swap2\n      swap1\n      pop\n      jump\t// out\n        /* \"#utility.yul\":7625:7784   */\n    tag_129:\n        /* \"#utility.yul\":7699:7710   */\n      0x00\n        /* \"#utility.yul\":7733:7739   */\n      dup3\n        /* \"#utility.yul\":7728:7731   */\n      dup3\n        /* \"#utility.yul\":7721:7740   */\n      mstore\n        /* \"#utility.yul\":7773:7777   */\n      0x20\n        /* \"#utility.yul\":7768:7771   */\n      dup3\n        /* \"#utility.yul\":7764:7778   */\n      add\n        /* \"#utility.yul\":7749:7778   */\n      swap1\n      pop\n        /* \"#utility.yul\":7625:7784   */\n      swap3\n      swap2\n      pop\n      pop\n      jump\t// out\n        /* \"#utility.yul\":7790:7959   */\n    tag_137:\n        /* \"#utility.yul\":7874:7885   */\n      0x00\n        /* \"#utility.yul\":7908:7914   */\n      dup3\n        /* \"#utility.yul\":7903:7906   */\n      dup3\n        /* \"#utility.yul\":7896:7915   */\n      mstore\n        /* \"#utility.yul\":7948:7952   */\n      0x20\n        /* \"#utility.yul\":7943:7946   */\n      dup3\n        /* \"#utility.yul\":7939:7953   */\n      add\n        /* \"#utility.yul\":7924:7953   */\n      swap1\n      pop\n        /* \"#utility.yul\":7790:7959   */\n      swap3\n      swap2\n      pop\n      pop\n      jump\t// out\n        /* \"#utility.yul\":7965:8061   */\n    tag_174:\n        /* \"#utility.yul\":8002:8009   */\n      0x00\n        /* \"#utility.yul\":8031:8055   */\n      tag_176\n        /* \"#utility.yul\":8049:8054   */\n      dup3\n        /* \"#utility.yul\":8031:8055   */\n      tag_177\n      jump\t// in\n    tag_176:\n        /* \"#utility.yul\":8020:8055   */\n      swap1\n      pop\n        /* \"#utility.yul\":7965:8061   */\n      swap2\n      swap1\n      pop\n      jump\t// out\n        /* \"#utility.yul\":8067:8193   */\n    tag_177:\n        /* \"#utility.yul\":8104:8111   */\n      0x00\n        /* \"#utility.yul\":8144:8186   */\n      0xffffffffffffffffffffffffffffffffffffffff\n        /* \"#utility.yul\":8137:8142   */\n      dup3\n        /* \"#utility.yul\":8133:8187   */\n      and\n        /* \"#utility.yul\":8122:8187   */\n      swap1\n      pop\n        /* \"#utility.yul\":8067:8193   */\n      swap2\n      swap1\n      pop\n      jump\t// out\n        /* \"#utility.yul\":8199:8276   */\n    tag_153:\n        /* \"#utility.yul\":8236:8243   */\n      0x00\n        /* \"#utility.yul\":8265:8270   */\n      dup2\n        /* \"#utility.yul\":8254:8270   */\n      swap1\n      pop\n        /* \"#utility.yul\":8199:8276   */\n      swap2\n      swap1\n      pop\n      jump\t// out\n        /* \"#utility.yul\":8282:8436   */\n    tag_85:\n        /* \"#utility.yul\":8366:8372   */\n      dup3\n        /* \"#utility.yul\":8361:8364   */\n      dup2\n        /* \"#utility.yul\":8356:8359   */\n      dup4\n        /* \"#utility.yul\":8343:8373   */\n      calldatacopy\n        /* \"#utility.yul\":8428:8429   */\n      0x00\n        /* \"#utility.yul\":8419:8425   */\n      dup4\n        /* \"#utility.yul\":8414:8417   */\n      dup4\n        /* \"#utility.yul\":8410:8426   */\n      add\n        /* \"#utility.yul\":8403:8430   */\n      mstore\n        /* \"#utility.yul\":8282:8436   */\n      pop\n      pop\n      pop\n      jump\t// out\n        /* \"#utility.yul\":8442:8749   */\n    tag_131:\n        /* \"#utility.yul\":8510:8511   */\n      0x00\n        /* \"#utility.yul\":8520:8633   */\n    tag_182:\n        /* \"#utility.yul\":8534:8540   */\n      dup4\n        /* \"#utility.yul\":8531:8532   */\n      dup2\n        /* \"#utility.yul\":8528:8541   */\n      lt\n        /* \"#utility.yul\":8520:8633   */\n      iszero\n      tag_184\n      jumpi\n        /* \"#utility.yul\":8619:8620   */\n      dup1\n        /* \"#utility.yul\":8614:8617   */\n      dup3\n        /* \"#utility.yul\":8610:8621   */\n      add\n        /* \"#utility.yul\":8604:8622   */\n      mload\n        /* \"#utility.yul\":8600:8601   */\n      dup2\n        /* \"#utility.yul\":8595:8598   */\n      dup5\n        /* \"#utility.yul\":8591:8602   */\n      add\n        /* \"#utility.yul\":8584:8623   */\n      mstore\n        /* \"#utility.yul\":8556:8558   */\n      0x20\n        /* \"#utility.yul\":8553:8554   */\n      dup2\n        /* \"#utility.yul\":8549:8559   */\n      add\n        /* \"#utility.yul\":8544:8559   */\n      swap1\n      pop\n        /* \"#utility.yul\":8520:8633   */\n      jump(tag_182)\n    tag_184:\n        /* \"#utility.yul\":8651:8657   */\n      dup4\n        /* \"#utility.yul\":8648:8649   */\n      dup2\n        /* \"#utility.yul\":8645:8658   */\n      gt\n        /* \"#utility.yul\":8642:8743   */\n      iszero\n      tag_185\n      jumpi\n        /* \"#utility.yul\":8731:8732   */\n      0x00\n        /* \"#utility.yul\":8722:8728   */\n      dup5\n        /* \"#utility.yul\":8717:8720   */\n      dup5\n        /* \"#utility.yul\":8713:8729   */\n      add\n        /* \"#utility.yul\":8706:8733   */\n      mstore\n        /* \"#utility.yul\":8642:8743   */\n    tag_185:\n        /* \"#utility.yul\":8491:8749   */\n      pop\n        /* \"#utility.yul\":8442:8749   */\n      pop\n      pop\n      pop\n      jump\t// out\n        /* \"#utility.yul\":8755:9075   */\n    tag_36:\n        /* \"#utility.yul\":8799:8805   */\n      0x00\n        /* \"#utility.yul\":8836:8837   */\n      0x02\n        /* \"#utility.yul\":8830:8834   */\n      dup3\n        /* \"#utility.yul\":8826:8838   */\n      div\n        /* \"#utility.yul\":8816:8838   */\n      swap1\n      pop\n        /* \"#utility.yul\":8883:8884   */\n      0x01\n        /* \"#utility.yul\":8877:8881   */\n      dup3\n        /* \"#utility.yul\":8873:8885   */\n      and\n        /* \"#utility.yul\":8904:8922   */\n      dup1\n        /* \"#utility.yul\":8894:8975   */\n      tag_187\n      jumpi\n        /* \"#utility.yul\":8960:8964   */\n      0x7f\n        /* \"#utility.yul\":8952:8958   */\n      dup3\n        /* \"#utility.yul\":8948:8965   */\n      and\n        /* \"#utility.yul\":8938:8965   */\n      swap2\n      pop\n        /* \"#utility.yul\":8894:8975   */\n    tag_187:\n        /* \"#utility.yul\":9022:9024   */\n      0x20\n        /* \"#utility.yul\":9014:9020   */\n      dup3\n        /* \"#utility.yul\":9011:9025   */\n      lt\n        /* \"#utility.yul\":8991:9009   */\n      dup2\n        /* \"#utility.yul\":8988:9026   */\n      eq\n        /* \"#utility.yul\":8985:9069   */\n      iszero\n      tag_188\n      jumpi\n        /* \"#utility.yul\":9041:9059   */\n      tag_189\n      tag_190\n      jump\t// in\n    tag_189:\n        /* \"#utility.yul\":8985:9069   */\n    tag_188:\n        /* \"#utility.yul\":8806:9075   */\n      pop\n        /* \"#utility.yul\":8755:9075   */\n      swap2\n      swap1\n      pop\n      jump\t// out\n        /* \"#utility.yul\":9081:9362   */\n    tag_164:\n        /* \"#utility.yul\":9164:9191   */\n      tag_192\n        /* \"#utility.yul\":9186:9190   */\n      dup3\n        /* \"#utility.yul\":9164:9191   */\n      tag_133\n      jump\t// in\n    tag_192:\n        /* \"#utility.yul\":9156:9162   */\n      dup2\n        /* \"#utility.yul\":9152:9192   */\n      add\n        /* \"#utility.yul\":9294:9300   */\n      dup2\n        /* \"#utility.yul\":9282:9292   */\n      dup2\n        /* \"#utility.yul\":9279:9301   */\n      lt\n        /* \"#utility.yul\":9258:9276   */\n      0xffffffffffffffff\n        /* \"#utility.yul\":9246:9256   */\n      dup3\n        /* \"#utility.yul\":9243:9277   */\n      gt\n        /* \"#utility.yul\":9240:9302   */\n      or\n        /* \"#utility.yul\":9237:9325   */\n      iszero\n      tag_193\n      jumpi\n        /* \"#utility.yul\":9305:9323   */\n      tag_194\n      tag_169\n      jump\t// in\n    tag_194:\n        /* \"#utility.yul\":9237:9325   */\n    tag_193:\n        /* \"#utility.yul\":9345:9355   */\n      dup1\n        /* \"#utility.yul\":9341:9343   */\n      0x40\n        /* \"#utility.yul\":9334:9356   */\n      mstore\n        /* \"#utility.yul\":9124:9362   */\n      pop\n        /* \"#utility.yul\":9081:9362   */\n      pop\n      pop\n      jump\t// out\n        /* \"#utility.yul\":9368:9548   */\n    tag_190:\n        /* \"#utility.yul\":9416:9493   */\n      0x4e487b7100000000000000000000000000000000000000000000000000000000\n        /* \"#utility.yul\":9413:9414   */\n      0x00\n        /* \"#utility.yul\":9406:9494   */\n      mstore\n        /* \"#utility.yul\":9513:9517   */\n      0x22\n        /* \"#utility.yul\":9510:9511   */\n      0x04\n        /* \"#utility.yul\":9503:9518   */\n      mstore\n        /* \"#utility.yul\":9537:9541   */\n      0x24\n        /* \"#utility.yul\":9534:9535   */\n      0x00\n        /* \"#utility.yul\":9527:9542   */\n      revert\n        /* \"#utility.yul\":9554:9734   */\n    tag_169:\n        /* \"#utility.yul\":9602:9679   */\n      0x4e487b7100000000000000000000000000000000000000000000000000000000\n        /* \"#utility.yul\":9599:9600   */\n      0x00\n        /* \"#utility.yul\":9592:9680   */\n      mstore\n        /* \"#utility.yul\":9699:9703   */\n      0x41\n        /* \"#utility.yul\":9696:9697   */\n      0x04\n        /* \"#utility.yul\":9689:9704   */\n      mstore\n        /* \"#utility.yul\":9723:9727   */\n      0x24\n        /* \"#utility.yul\":9720:9721   */\n      0x00\n        /* \"#utility.yul\":9713:9728   */\n      revert\n        /* \"#utility.yul\":9740:9857   */\n    tag_94:\n        /* \"#utility.yul\":9849:9850   */\n      0x00\n        /* \"#utility.yul\":9846:9847   */\n      dup1\n        /* \"#utility.yul\":9839:9851   */\n      revert\n        /* \"#utility.yul\":9863:9980   */\n    tag_83:\n        /* \"#utility.yul\":9972:9973   */\n      0x00\n        /* \"#utility.yul\":9969:9970   */\n      dup1\n        /* \"#utility.yul\":9962:9974   */\n      revert\n        /* \"#utility.yul\":9986:10103   */\n    tag_111:\n        /* \"#utility.yul\":10095:10096   */\n      0x00\n        /* \"#utility.yul\":10092:10093   */\n      dup1\n        /* \"#utility.yul\":10085:10097   */\n      revert\n        /* \"#utility.yul\":10109:10226   */\n    tag_103:\n        /* \"#utility.yul\":10218:10219   */\n      0x00\n        /* \"#utility.yul\":10215:10216   */\n      dup1\n        /* \"#utility.yul\":10208:10220   */\n      revert\n        /* \"#utility.yul\":10232:10334   */\n    tag_133:\n        /* \"#utility.yul\":10273:10279   */\n      0x00\n        /* \"#utility.yul\":10324:10326   */\n      0x1f\n        /* \"#utility.yul\":10320:10327   */\n      not\n        /* \"#utility.yul\":10315:10317   */\n      0x1f\n        /* \"#utility.yul\":10308:10313   */\n      dup4\n        /* \"#utility.yul\":10304:10318   */\n      add\n        /* \"#utility.yul\":10300:10328   */\n      and\n        /* \"#utility.yul\":10290:10328   */\n      swap1\n      pop\n        /* \"#utility.yul\":10232:10334   */\n      swap2\n      swap1\n      pop\n      jump\t// out\n        /* \"#utility.yul\":10340:10519   */\n    tag_139:\n        /* \"#utility.yul\":10480:10511   */\n      0x596f7520617265206e6f74206c616e646f66666963652073746166662e000000\n        /* \"#utility.yul\":10476:10477   */\n      0x00\n        /* \"#utility.yul\":10468:10474   */\n      dup3\n        /* \"#utility.yul\":10464:10478   */\n      add\n        /* \"#utility.yul\":10457:10512   */\n      mstore\n        /* \"#utility.yul\":10340:10519   */\n      pop\n      jump\t// out\n        /* \"#utility.yul\":10525:10647   */\n    tag_89:\n        /* \"#utility.yul\":10598:10622   */\n      tag_204\n        /* \"#utility.yul\":10616:10621   */\n      dup2\n        /* \"#utility.yul\":10598:10622   */\n      tag_174\n      jump\t// in\n    tag_204:\n        /* \"#utility.yul\":10591:10596   */\n      dup2\n        /* \"#utility.yul\":10588:10623   */\n      eq\n        /* \"#utility.yul\":10578:10641   */\n      tag_205\n      jumpi\n        /* \"#utility.yul\":10637:10638   */\n      0x00\n        /* \"#utility.yul\":10634:10635   */\n      dup1\n        /* \"#utility.yul\":10627:10639   */\n      revert\n        /* \"#utility.yul\":10578:10641   */\n    tag_205:\n        /* \"#utility.yul\":10525:10647   */\n      pop\n      jump\t// out\n        /* \"#utility.yul\":10653:10775   */\n    tag_99:\n        /* \"#utility.yul\":10726:10750   */\n      tag_207\n        /* \"#utility.yul\":10744:10749   */\n      dup2\n        /* \"#utility.yul\":10726:10750   */\n      tag_153\n      jump\t// in\n    tag_207:\n        /* \"#utility.yul\":10719:10724   */\n      dup2\n        /* \"#utility.yul\":10716:10751   */\n      eq\n        /* \"#utility.yul\":10706:10769   */\n      tag_208\n      jumpi\n        /* \"#utility.yul\":10765:10766   */\n      0x00\n        /* \"#utility.yul\":10762:10763   */\n      dup1\n        /* \"#utility.yul\":10755:10767   */\n      revert\n        /* \"#utility.yul\":10706:10769   */\n    tag_208:\n        /* \"#utility.yul\":10653:10775   */\n      pop\n      jump\t// out\n\n    auxdata: 0xa26469706673582212208f2db743423b4ee05156f16cf24de0207e304851a32312f2b871afe7d099e46e64736f6c63430008070033\n}\n",
				"bytecode": {
					"linkReferences": {},
					"object": "608060405234801561001057600080fd5b50336000806101000a81548173ffffffffffffffffffffffffffffffffffffffff021916908373ffffffffffffffffffffffffffffffffffffffff160217905550610dfb806100606000396000f3fe60806040526004361061003f5760003560e01c8063198e86c614610044578063215271cb146100815780635b1dedc2146100be578063935656c2146100e7575b600080fd5b34801561005057600080fd5b5061006b600480360381019061006691906108e5565b610103565b6040516100789190610b65565b60405180910390f35b34801561008d57600080fd5b506100a860048036038101906100a391906108e5565b61029a565b6040516100b59190610b43565b60405180910390f35b3480156100ca57600080fd5b506100e560048036038101906100e09190610912565b61041d565b005b61010160048036038101906100fc9190610981565b6105a5565b005b61010b610766565b60008054906101000a900473ffffffffffffffffffffffffffffffffffffffff1673ffffffffffffffffffffffffffffffffffffffff163373ffffffffffffffffffffffffffffffffffffffff1614610199576040517f08c379a000000000000000000000000000000000000000000000000000000000815260040161019090610b23565b60405180910390fd5b600160008373ffffffffffffffffffffffffffffffffffffffff1673ffffffffffffffffffffffffffffffffffffffff168152602001908152602001600020604051806080016040529081600082015481526020016001820180546101fd90610c88565b80601f016020809104026020016040519081016040528092919081815260200182805461022990610c88565b80156102765780601f1061024b57610100808354040283529160200191610276565b820191906000526020600020905b81548152906001019060200180831161025957829003601f168201915b50505050508152602001600282015481526020016003820154815250509050919050565b6102a261078e565b60008054906101000a900473ffffffffffffffffffffffffffffffffffffffff1673ffffffffffffffffffffffffffffffffffffffff163373ffffffffffffffffffffffffffffffffffffffff1614610330576040517f08c379a000000000000000000000000000000000000000000000000000000000815260040161032790610b23565b60405180910390fd5b600260008373ffffffffffffffffffffffffffffffffffffffff1673ffffffffffffffffffffffffffffffffffffffff16815260200190815260200160002060405180604001604052908160008201805461038a90610c88565b80601f01602080910402602001604051908101604052809291908181526020018280546103b690610c88565b80156104035780601f106103d857610100808354040283529160200191610403565b820191906000526020600020905b8154815290600101906020018083116103e657829003601f168201915b505050505081526020016001820154815250509050919050565b60008054906101000a900473ffffffffffffffffffffffffffffffffffffffff1673ffffffffffffffffffffffffffffffffffffffff163373ffffffffffffffffffffffffffffffffffffffff16146104ab576040517f08c379a00000000000000000000000000000000000000000000000000000000081526004016104a290610b23565b60405180910390fd5b81600160008573ffffffffffffffffffffffffffffffffffffffff1673ffffffffffffffffffffffffffffffffffffffff16815260200190815260200160002060010190805190602001906105019291906107a8565b5081600260008573ffffffffffffffffffffffffffffffffffffffff1673ffffffffffffffffffffffffffffffffffffffff16815260200190815260200160002060000190805190602001906105589291906107a8565b5080600260008573ffffffffffffffffffffffffffffffffffffffff1673ffffffffffffffffffffffffffffffffffffffff16815260200190815260200160002060010181905550505050565b60008054906101000a900473ffffffffffffffffffffffffffffffffffffffff1673ffffffffffffffffffffffffffffffffffffffff163373ffffffffffffffffffffffffffffffffffffffff1614610633576040517f08c379a000000000000000000000000000000000000000000000000000000000815260040161062a90610b23565b60405180910390fd5b83600160008773ffffffffffffffffffffffffffffffffffffffff1673ffffffffffffffffffffffffffffffffffffffff1681526020019081526020016000206000018190555082600160008773ffffffffffffffffffffffffffffffffffffffff1673ffffffffffffffffffffffffffffffffffffffff16815260200190815260200160002060010190805190602001906106d09291906107a8565b5081600160008773ffffffffffffffffffffffffffffffffffffffff1673ffffffffffffffffffffffffffffffffffffffff1681526020019081526020016000206002018190555080600160008773ffffffffffffffffffffffffffffffffffffffff1673ffffffffffffffffffffffffffffffffffffffff168152602001908152602001600020600301819055505050505050565b6040518060800160405280600081526020016060815260200160008152602001600081525090565b604051806040016040528060608152602001600081525090565b8280546107b490610c88565b90600052602060002090601f0160209004810192826107d6576000855561081d565b82601f106107ef57805160ff191683800117855561081d565b8280016001018555821561081d579182015b8281111561081c578251825591602001919060010190610801565b5b50905061082a919061082e565b5090565b5b8082111561084757600081600090555060010161082f565b5090565b600061085e61085984610bac565b610b87565b90508281526020810184848401111561087a57610879610d4e565b5b610885848285610c46565b509392505050565b60008135905061089c81610d97565b92915050565b600082601f8301126108b7576108b6610d49565b5b81356108c784826020860161084b565b91505092915050565b6000813590506108df81610dae565b92915050565b6000602082840312156108fb576108fa610d58565b5b60006109098482850161088d565b91505092915050565b60008060006060848603121561092b5761092a610d58565b5b60006109398682870161088d565b935050602084013567ffffffffffffffff81111561095a57610959610d53565b5b610966868287016108a2565b9250506040610977868287016108d0565b9150509250925092565b600080600080600060a0868803121561099d5761099c610d58565b5b60006109ab8882890161088d565b95505060206109bc888289016108d0565b945050604086013567ffffffffffffffff8111156109dd576109dc610d53565b5b6109e9888289016108a2565b93505060606109fa888289016108d0565b9250506080610a0b888289016108d0565b9150509295509295909350565b6000610a2382610bdd565b610a2d8185610be8565b9350610a3d818560208601610c55565b610a4681610d5d565b840191505092915050565b6000610a5e601d83610bf9565b9150610a6982610d6e565b602082019050919050565b60006040830160008301518482036000860152610a918282610a18565b9150506020830151610aa66020860182610b14565b508091505092915050565b6000608083016000830151610ac96000860182610b14565b5060208301518482036020860152610ae18282610a18565b9150506040830151610af66040860182610b14565b506060830151610b096060860182610b14565b508091505092915050565b610b1d81610c3c565b82525050565b60006020820190508181036000830152610b3c81610a51565b9050919050565b60006020820190508181036000830152610b5d8184610a74565b905092915050565b60006020820190508181036000830152610b7f8184610ab1565b905092915050565b6000610b91610ba2565b9050610b9d8282610cba565b919050565b6000604051905090565b600067ffffffffffffffff821115610bc757610bc6610d1a565b5b610bd082610d5d565b9050602081019050919050565b600081519050919050565b600082825260208201905092915050565b600082825260208201905092915050565b6000610c1582610c1c565b9050919050565b600073ffffffffffffffffffffffffffffffffffffffff82169050919050565b6000819050919050565b82818337600083830152505050565b60005b83811015610c73578082015181840152602081019050610c58565b83811115610c82576000848401525b50505050565b60006002820490506001821680610ca057607f821691505b60208210811415610cb457610cb3610ceb565b5b50919050565b610cc382610d5d565b810181811067ffffffffffffffff82111715610ce257610ce1610d1a565b5b80604052505050565b7f4e487b7100000000000000000000000000000000000000000000000000000000600052602260045260246000fd5b7f4e487b7100000000000000000000000000000000000000000000000000000000600052604160045260246000fd5b600080fd5b600080fd5b600080fd5b600080fd5b6000601f19601f8301169050919050565b7f596f7520617265206e6f74206c616e646f66666963652073746166662e000000600082015250565b610da081610c0a565b8114610dab57600080fd5b50565b610db781610c3c565b8114610dc257600080fd5b5056fea26469706673582212208f2db743423b4ee05156f16cf24de0207e304851a32312f2b871afe7d099e46e64736f6c63430008070033",
					"opcodes": "PUSH1 0x80 PUSH1 0x40 MSTORE CALLVALUE DUP1 ISZERO PUSH2 0x10 JUMPI PUSH1 0x0 DUP1 REVERT JUMPDEST POP CALLER PUSH1 0x0 DUP1 PUSH2 0x100 EXP DUP2 SLOAD DUP2 PUSH20 0xFFFFFFFFFFFFFFFFFFFFFFFFFFFFFFFFFFFFFFFF MUL NOT AND SWAP1 DUP4 PUSH20 0xFFFFFFFFFFFFFFFFFFFFFFFFFFFFFFFFFFFFFFFF AND MUL OR SWAP1 SSTORE POP PUSH2 0xDFB DUP1 PUSH2 0x60 PUSH1 0x0 CODECOPY PUSH1 0x0 RETURN INVALID PUSH1 0x80 PUSH1 0x40 MSTORE PUSH1 0x4 CALLDATASIZE LT PUSH2 0x3F JUMPI PUSH1 0x0 CALLDATALOAD PUSH1 0xE0 SHR DUP1 PUSH4 0x198E86C6 EQ PUSH2 0x44 JUMPI DUP1 PUSH4 0x215271CB EQ PUSH2 0x81 JUMPI DUP1 PUSH4 0x5B1DEDC2 EQ PUSH2 0xBE JUMPI DUP1 PUSH4 0x935656C2 EQ PUSH2 0xE7 JUMPI JUMPDEST PUSH1 0x0 DUP1 REVERT JUMPDEST CALLVALUE DUP1 ISZERO PUSH2 0x50 JUMPI PUSH1 0x0 DUP1 REVERT JUMPDEST POP PUSH2 0x6B PUSH1 0x4 DUP1 CALLDATASIZE SUB DUP2 ADD SWAP1 PUSH2 0x66 SWAP2 SWAP1 PUSH2 0x8E5 JUMP JUMPDEST PUSH2 0x103 JUMP JUMPDEST PUSH1 0x40 MLOAD PUSH2 0x78 SWAP2 SWAP1 PUSH2 0xB65 JUMP JUMPDEST PUSH1 0x40 MLOAD DUP1 SWAP2 SUB SWAP1 RETURN JUMPDEST CALLVALUE DUP1 ISZERO PUSH2 0x8D JUMPI PUSH1 0x0 DUP1 REVERT JUMPDEST POP PUSH2 0xA8 PUSH1 0x4 DUP1 CALLDATASIZE SUB DUP2 ADD SWAP1 PUSH2 0xA3 SWAP2 SWAP1 PUSH2 0x8E5 JUMP JUMPDEST PUSH2 0x29A JUMP JUMPDEST PUSH1 0x40 MLOAD PUSH2 0xB5 SWAP2 SWAP1 PUSH2 0xB43 JUMP JUMPDEST PUSH1 0x40 MLOAD DUP1 SWAP2 SUB SWAP1 RETURN JUMPDEST CALLVALUE DUP1 ISZERO PUSH2 0xCA JUMPI PUSH1 0x0 DUP1 REVERT JUMPDEST POP PUSH2 0xE5 PUSH1 0x4 DUP1 CALLDATASIZE SUB DUP2 ADD SWAP1 PUSH2 0xE0 SWAP2 SWAP1 PUSH2 0x912 JUMP JUMPDEST PUSH2 0x41D JUMP JUMPDEST STOP JUMPDEST PUSH2 0x101 PUSH1 0x4 DUP1 CALLDATASIZE SUB DUP2 ADD SWAP1 PUSH2 0xFC SWAP2 SWAP1 PUSH2 0x981 JUMP JUMPDEST PUSH2 0x5A5 JUMP JUMPDEST STOP JUMPDEST PUSH2 0x10B PUSH2 0x766 JUMP JUMPDEST PUSH1 0x0 DUP1 SLOAD SWAP1 PUSH2 0x100 EXP SWAP1 DIV PUSH20 0xFFFFFFFFFFFFFFFFFFFFFFFFFFFFFFFFFFFFFFFF AND PUSH20 0xFFFFFFFFFFFFFFFFFFFFFFFFFFFFFFFFFFFFFFFF AND CALLER PUSH20 0xFFFFFFFFFFFFFFFFFFFFFFFFFFFFFFFFFFFFFFFF AND EQ PUSH2 0x199 JUMPI PUSH1 0x40 MLOAD PUSH32 0x8C379A000000000000000000000000000000000000000000000000000000000 DUP2 MSTORE PUSH1 0x4 ADD PUSH2 0x190 SWAP1 PUSH2 0xB23 JUMP JUMPDEST PUSH1 0x40 MLOAD DUP1 SWAP2 SUB SWAP1 REVERT JUMPDEST PUSH1 0x1 PUSH1 0x0 DUP4 PUSH20 0xFFFFFFFFFFFFFFFFFFFFFFFFFFFFFFFFFFFFFFFF AND PUSH20 0xFFFFFFFFFFFFFFFFFFFFFFFFFFFFFFFFFFFFFFFF AND DUP2 MSTORE PUSH1 0x20 ADD SWAP1 DUP2 MSTORE PUSH1 0x20 ADD PUSH1 0x0 KECCAK256 PUSH1 0x40 MLOAD DUP1 PUSH1 0x80 ADD PUSH1 0x40 MSTORE SWAP1 DUP2 PUSH1 0x0 DUP3 ADD SLOAD DUP2 MSTORE PUSH1 0x20 ADD PUSH1 0x1 DUP3 ADD DUP1 SLOAD PUSH2 0x1FD SWAP1 PUSH2 0xC88 JUMP JUMPDEST DUP1 PUSH1 0x1F ADD PUSH1 0x20 DUP1 SWAP2 DIV MUL PUSH1 0x20 ADD PUSH1 0x40 MLOAD SWAP1 DUP2 ADD PUSH1 0x40 MSTORE DUP1 SWAP3 SWAP2 SWAP1 DUP2 DUP2 MSTORE PUSH1 0x20 ADD DUP3 DUP1 SLOAD PUSH2 0x229 SWAP1 PUSH2 0xC88 JUMP JUMPDEST DUP1 ISZERO PUSH2 0x276 JUMPI DUP1 PUSH1 0x1F LT PUSH2 0x24B JUMPI PUSH2 0x100 DUP1 DUP4 SLOAD DIV MUL DUP4 MSTORE SWAP2 PUSH1 0x20 ADD SWAP2 PUSH2 0x276 JUMP JUMPDEST DUP3 ADD SWAP2 SWAP1 PUSH1 0x0 MSTORE PUSH1 0x20 PUSH1 0x0 KECCAK256 SWAP1 JUMPDEST DUP2 SLOAD DUP2 MSTORE SWAP1 PUSH1 0x1 ADD SWAP1 PUSH1 0x20 ADD DUP1 DUP4 GT PUSH2 0x259 JUMPI DUP3 SWAP1 SUB PUSH1 0x1F AND DUP3 ADD SWAP2 JUMPDEST POP POP POP POP POP DUP2 MSTORE PUSH1 0x20 ADD PUSH1 0x2 DUP3 ADD SLOAD DUP2 MSTORE PUSH1 0x20 ADD PUSH1 0x3 DUP3 ADD SLOAD DUP2 MSTORE POP POP SWAP1 POP SWAP2 SWAP1 POP JUMP JUMPDEST PUSH2 0x2A2 PUSH2 0x78E JUMP JUMPDEST PUSH1 0x0 DUP1 SLOAD SWAP1 PUSH2 0x100 EXP SWAP1 DIV PUSH20 0xFFFFFFFFFFFFFFFFFFFFFFFFFFFFFFFFFFFFFFFF AND PUSH20 0xFFFFFFFFFFFFFFFFFFFFFFFFFFFFFFFFFFFFFFFF AND CALLER PUSH20 0xFFFFFFFFFFFFFFFFFFFFFFFFFFFFFFFFFFFFFFFF AND EQ PUSH2 0x330 JUMPI PUSH1 0x40 MLOAD PUSH32 0x8C379A000000000000000000000000000000000000000000000000000000000 DUP2 MSTORE PUSH1 0x4 ADD PUSH2 0x327 SWAP1 PUSH2 0xB23 JUMP JUMPDEST PUSH1 0x40 MLOAD DUP1 SWAP2 SUB SWAP1 REVERT JUMPDEST PUSH1 0x2 PUSH1 0x0 DUP4 PUSH20 0xFFFFFFFFFFFFFFFFFFFFFFFFFFFFFFFFFFFFFFFF AND PUSH20 0xFFFFFFFFFFFFFFFFFFFFFFFFFFFFFFFFFFFFFFFF AND DUP2 MSTORE PUSH1 0x20 ADD SWAP1 DUP2 MSTORE PUSH1 0x20 ADD PUSH1 0x0 KECCAK256 PUSH1 0x40 MLOAD DUP1 PUSH1 0x40 ADD PUSH1 0x40 MSTORE SWAP1 DUP2 PUSH1 0x0 DUP3 ADD DUP1 SLOAD PUSH2 0x38A SWAP1 PUSH2 0xC88 JUMP JUMPDEST DUP1 PUSH1 0x1F ADD PUSH1 0x20 DUP1 SWAP2 DIV MUL PUSH1 0x20 ADD PUSH1 0x40 MLOAD SWAP1 DUP2 ADD PUSH1 0x40 MSTORE DUP1 SWAP3 SWAP2 SWAP1 DUP2 DUP2 MSTORE PUSH1 0x20 ADD DUP3 DUP1 SLOAD PUSH2 0x3B6 SWAP1 PUSH2 0xC88 JUMP JUMPDEST DUP1 ISZERO PUSH2 0x403 JUMPI DUP1 PUSH1 0x1F LT PUSH2 0x3D8 JUMPI PUSH2 0x100 DUP1 DUP4 SLOAD DIV MUL DUP4 MSTORE SWAP2 PUSH1 0x20 ADD SWAP2 PUSH2 0x403 JUMP JUMPDEST DUP3 ADD SWAP2 SWAP1 PUSH1 0x0 MSTORE PUSH1 0x20 PUSH1 0x0 KECCAK256 SWAP1 JUMPDEST DUP2 SLOAD DUP2 MSTORE SWAP1 PUSH1 0x1 ADD SWAP1 PUSH1 0x20 ADD DUP1 DUP4 GT PUSH2 0x3E6 JUMPI DUP3 SWAP1 SUB PUSH1 0x1F AND DUP3 ADD SWAP2 JUMPDEST POP POP POP POP POP DUP2 MSTORE PUSH1 0x20 ADD PUSH1 0x1 DUP3 ADD SLOAD DUP2 MSTORE POP POP SWAP1 POP SWAP2 SWAP1 POP JUMP JUMPDEST PUSH1 0x0 DUP1 SLOAD SWAP1 PUSH2 0x100 EXP SWAP1 DIV PUSH20 0xFFFFFFFFFFFFFFFFFFFFFFFFFFFFFFFFFFFFFFFF AND PUSH20 0xFFFFFFFFFFFFFFFFFFFFFFFFFFFFFFFFFFFFFFFF AND CALLER PUSH20 0xFFFFFFFFFFFFFFFFFFFFFFFFFFFFFFFFFFFFFFFF AND EQ PUSH2 0x4AB JUMPI PUSH1 0x40 MLOAD PUSH32 0x8C379A000000000000000000000000000000000000000000000000000000000 DUP2 MSTORE PUSH1 0x4 ADD PUSH2 0x4A2 SWAP1 PUSH2 0xB23 JUMP JUMPDEST PUSH1 0x40 MLOAD DUP1 SWAP2 SUB SWAP1 REVERT JUMPDEST DUP2 PUSH1 0x1 PUSH1 0x0 DUP6 PUSH20 0xFFFFFFFFFFFFFFFFFFFFFFFFFFFFFFFFFFFFFFFF AND PUSH20 0xFFFFFFFFFFFFFFFFFFFFFFFFFFFFFFFFFFFFFFFF AND DUP2 MSTORE PUSH1 0x20 ADD SWAP1 DUP2 MSTORE PUSH1 0x20 ADD PUSH1 0x0 KECCAK256 PUSH1 0x1 ADD SWAP1 DUP1 MLOAD SWAP1 PUSH1 0x20 ADD SWAP1 PUSH2 0x501 SWAP3 SWAP2 SWAP1 PUSH2 0x7A8 JUMP JUMPDEST POP DUP2 PUSH1 0x2 PUSH1 0x0 DUP6 PUSH20 0xFFFFFFFFFFFFFFFFFFFFFFFFFFFFFFFFFFFFFFFF AND PUSH20 0xFFFFFFFFFFFFFFFFFFFFFFFFFFFFFFFFFFFFFFFF AND DUP2 MSTORE PUSH1 0x20 ADD SWAP1 DUP2 MSTORE PUSH1 0x20 ADD PUSH1 0x0 KECCAK256 PUSH1 0x0 ADD SWAP1 DUP1 MLOAD SWAP1 PUSH1 0x20 ADD SWAP1 PUSH2 0x558 SWAP3 SWAP2 SWAP1 PUSH2 0x7A8 JUMP JUMPDEST POP DUP1 PUSH1 0x2 PUSH1 0x0 DUP6 PUSH20 0xFFFFFFFFFFFFFFFFFFFFFFFFFFFFFFFFFFFFFFFF AND PUSH20 0xFFFFFFFFFFFFFFFFFFFFFFFFFFFFFFFFFFFFFFFF AND DUP2 MSTORE PUSH1 0x20 ADD SWAP1 DUP2 MSTORE PUSH1 0x20 ADD PUSH1 0x0 KECCAK256 PUSH1 0x1 ADD DUP2 SWAP1 SSTORE POP POP POP POP JUMP JUMPDEST PUSH1 0x0 DUP1 SLOAD SWAP1 PUSH2 0x100 EXP SWAP1 DIV PUSH20 0xFFFFFFFFFFFFFFFFFFFFFFFFFFFFFFFFFFFFFFFF AND PUSH20 0xFFFFFFFFFFFFFFFFFFFFFFFFFFFFFFFFFFFFFFFF AND CALLER PUSH20 0xFFFFFFFFFFFFFFFFFFFFFFFFFFFFFFFFFFFFFFFF AND EQ PUSH2 0x633 JUMPI PUSH1 0x40 MLOAD PUSH32 0x8C379A000000000000000000000000000000000000000000000000000000000 DUP2 MSTORE PUSH1 0x4 ADD PUSH2 0x62A SWAP1 PUSH2 0xB23 JUMP JUMPDEST PUSH1 0x40 MLOAD DUP1 SWAP2 SUB SWAP1 REVERT JUMPDEST DUP4 PUSH1 0x1 PUSH1 0x0 DUP8 PUSH20 0xFFFFFFFFFFFFFFFFFFFFFFFFFFFFFFFFFFFFFFFF AND PUSH20 0xFFFFFFFFFFFFFFFFFFFFFFFFFFFFFFFFFFFFFFFF AND DUP2 MSTORE PUSH1 0x20 ADD SWAP1 DUP2 MSTORE PUSH1 0x20 ADD PUSH1 0x0 KECCAK256 PUSH1 0x0 ADD DUP2 SWAP1 SSTORE POP DUP3 PUSH1 0x1 PUSH1 0x0 DUP8 PUSH20 0xFFFFFFFFFFFFFFFFFFFFFFFFFFFFFFFFFFFFFFFF AND PUSH20 0xFFFFFFFFFFFFFFFFFFFFFFFFFFFFFFFFFFFFFFFF AND DUP2 MSTORE PUSH1 0x20 ADD SWAP1 DUP2 MSTORE PUSH1 0x20 ADD PUSH1 0x0 KECCAK256 PUSH1 0x1 ADD SWAP1 DUP1 MLOAD SWAP1 PUSH1 0x20 ADD SWAP1 PUSH2 0x6D0 SWAP3 SWAP2 SWAP1 PUSH2 0x7A8 JUMP JUMPDEST POP DUP2 PUSH1 0x1 PUSH1 0x0 DUP8 PUSH20 0xFFFFFFFFFFFFFFFFFFFFFFFFFFFFFFFFFFFFFFFF AND PUSH20 0xFFFFFFFFFFFFFFFFFFFFFFFFFFFFFFFFFFFFFFFF AND DUP2 MSTORE PUSH1 0x20 ADD SWAP1 DUP2 MSTORE PUSH1 0x20 ADD PUSH1 0x0 KECCAK256 PUSH1 0x2 ADD DUP2 SWAP1 SSTORE POP DUP1 PUSH1 0x1 PUSH1 0x0 DUP8 PUSH20 0xFFFFFFFFFFFFFFFFFFFFFFFFFFFFFFFFFFFFFFFF AND PUSH20 0xFFFFFFFFFFFFFFFFFFFFFFFFFFFFFFFFFFFFFFFF AND DUP2 MSTORE PUSH1 0x20 ADD SWAP1 DUP2 MSTORE PUSH1 0x20 ADD PUSH1 0x0 KECCAK256 PUSH1 0x3 ADD DUP2 SWAP1 SSTORE POP POP POP POP POP POP JUMP JUMPDEST PUSH1 0x40 MLOAD DUP1 PUSH1 0x80 ADD PUSH1 0x40 MSTORE DUP1 PUSH1 0x0 DUP2 MSTORE PUSH1 0x20 ADD PUSH1 0x60 DUP2 MSTORE PUSH1 0x20 ADD PUSH1 0x0 DUP2 MSTORE PUSH1 0x20 ADD PUSH1 0x0 DUP2 MSTORE POP SWAP1 JUMP JUMPDEST PUSH1 0x40 MLOAD DUP1 PUSH1 0x40 ADD PUSH1 0x40 MSTORE DUP1 PUSH1 0x60 DUP2 MSTORE PUSH1 0x20 ADD PUSH1 0x0 DUP2 MSTORE POP SWAP1 JUMP JUMPDEST DUP3 DUP1 SLOAD PUSH2 0x7B4 SWAP1 PUSH2 0xC88 JUMP JUMPDEST SWAP1 PUSH1 0x0 MSTORE PUSH1 0x20 PUSH1 0x0 KECCAK256 SWAP1 PUSH1 0x1F ADD PUSH1 0x20 SWAP1 DIV DUP2 ADD SWAP3 DUP3 PUSH2 0x7D6 JUMPI PUSH1 0x0 DUP6 SSTORE PUSH2 0x81D JUMP JUMPDEST DUP3 PUSH1 0x1F LT PUSH2 0x7EF JUMPI DUP1 MLOAD PUSH1 0xFF NOT AND DUP4 DUP1 ADD OR DUP6 SSTORE PUSH2 0x81D JUMP JUMPDEST DUP3 DUP1 ADD PUSH1 0x1 ADD DUP6 SSTORE DUP3 ISZERO PUSH2 0x81D JUMPI SWAP2 DUP3 ADD JUMPDEST DUP3 DUP2 GT ISZERO PUSH2 0x81C JUMPI DUP3 MLOAD DUP3 SSTORE SWAP2 PUSH1 0x20 ADD SWAP2 SWAP1 PUSH1 0x1 ADD SWAP1 PUSH2 0x801 JUMP JUMPDEST JUMPDEST POP SWAP1 POP PUSH2 0x82A SWAP2 SWAP1 PUSH2 0x82E JUMP JUMPDEST POP SWAP1 JUMP JUMPDEST JUMPDEST DUP1 DUP3 GT ISZERO PUSH2 0x847 JUMPI PUSH1 0x0 DUP2 PUSH1 0x0 SWAP1 SSTORE POP PUSH1 0x1 ADD PUSH2 0x82F JUMP JUMPDEST POP SWAP1 JUMP JUMPDEST PUSH1 0x0 PUSH2 0x85E PUSH2 0x859 DUP5 PUSH2 0xBAC JUMP JUMPDEST PUSH2 0xB87 JUMP JUMPDEST SWAP1 POP DUP3 DUP2 MSTORE PUSH1 0x20 DUP2 ADD DUP5 DUP5 DUP5 ADD GT ISZERO PUSH2 0x87A JUMPI PUSH2 0x879 PUSH2 0xD4E JUMP JUMPDEST JUMPDEST PUSH2 0x885 DUP5 DUP3 DUP6 PUSH2 0xC46 JUMP JUMPDEST POP SWAP4 SWAP3 POP POP POP JUMP JUMPDEST PUSH1 0x0 DUP2 CALLDATALOAD SWAP1 POP PUSH2 0x89C DUP2 PUSH2 0xD97 JUMP JUMPDEST SWAP3 SWAP2 POP POP JUMP JUMPDEST PUSH1 0x0 DUP3 PUSH1 0x1F DUP4 ADD SLT PUSH2 0x8B7 JUMPI PUSH2 0x8B6 PUSH2 0xD49 JUMP JUMPDEST JUMPDEST DUP2 CALLDATALOAD PUSH2 0x8C7 DUP5 DUP3 PUSH1 0x20 DUP7 ADD PUSH2 0x84B JUMP JUMPDEST SWAP2 POP POP SWAP3 SWAP2 POP POP JUMP JUMPDEST PUSH1 0x0 DUP2 CALLDATALOAD SWAP1 POP PUSH2 0x8DF DUP2 PUSH2 0xDAE JUMP JUMPDEST SWAP3 SWAP2 POP POP JUMP JUMPDEST PUSH1 0x0 PUSH1 0x20 DUP3 DUP5 SUB SLT ISZERO PUSH2 0x8FB JUMPI PUSH2 0x8FA PUSH2 0xD58 JUMP JUMPDEST JUMPDEST PUSH1 0x0 PUSH2 0x909 DUP5 DUP3 DUP6 ADD PUSH2 0x88D JUMP JUMPDEST SWAP2 POP POP SWAP3 SWAP2 POP POP JUMP JUMPDEST PUSH1 0x0 DUP1 PUSH1 0x0 PUSH1 0x60 DUP5 DUP7 SUB SLT ISZERO PUSH2 0x92B JUMPI PUSH2 0x92A PUSH2 0xD58 JUMP JUMPDEST JUMPDEST PUSH1 0x0 PUSH2 0x939 DUP7 DUP3 DUP8 ADD PUSH2 0x88D JUMP JUMPDEST SWAP4 POP POP PUSH1 0x20 DUP5 ADD CALLDATALOAD PUSH8 0xFFFFFFFFFFFFFFFF DUP2 GT ISZERO PUSH2 0x95A JUMPI PUSH2 0x959 PUSH2 0xD53 JUMP JUMPDEST JUMPDEST PUSH2 0x966 DUP7 DUP3 DUP8 ADD PUSH2 0x8A2 JUMP JUMPDEST SWAP3 POP POP PUSH1 0x40 PUSH2 0x977 DUP7 DUP3 DUP8 ADD PUSH2 0x8D0 JUMP JUMPDEST SWAP2 POP POP SWAP3 POP SWAP3 POP SWAP3 JUMP JUMPDEST PUSH1 0x0 DUP1 PUSH1 0x0 DUP1 PUSH1 0x0 PUSH1 0xA0 DUP7 DUP9 SUB SLT ISZERO PUSH2 0x99D JUMPI PUSH2 0x99C PUSH2 0xD58 JUMP JUMPDEST JUMPDEST PUSH1 0x0 PUSH2 0x9AB DUP9 DUP3 DUP10 ADD PUSH2 0x88D JUMP JUMPDEST SWAP6 POP POP PUSH1 0x20 PUSH2 0x9BC DUP9 DUP3 DUP10 ADD PUSH2 0x8D0 JUMP JUMPDEST SWAP5 POP POP PUSH1 0x40 DUP7 ADD CALLDATALOAD PUSH8 0xFFFFFFFFFFFFFFFF DUP2 GT ISZERO PUSH2 0x9DD JUMPI PUSH2 0x9DC PUSH2 0xD53 JUMP JUMPDEST JUMPDEST PUSH2 0x9E9 DUP9 DUP3 DUP10 ADD PUSH2 0x8A2 JUMP JUMPDEST SWAP4 POP POP PUSH1 0x60 PUSH2 0x9FA DUP9 DUP3 DUP10 ADD PUSH2 0x8D0 JUMP JUMPDEST SWAP3 POP POP PUSH1 0x80 PUSH2 0xA0B DUP9 DUP3 DUP10 ADD PUSH2 0x8D0 JUMP JUMPDEST SWAP2 POP POP SWAP3 SWAP6 POP SWAP3 SWAP6 SWAP1 SWAP4 POP JUMP JUMPDEST PUSH1 0x0 PUSH2 0xA23 DUP3 PUSH2 0xBDD JUMP JUMPDEST PUSH2 0xA2D DUP2 DUP6 PUSH2 0xBE8 JUMP JUMPDEST SWAP4 POP PUSH2 0xA3D DUP2 DUP6 PUSH1 0x20 DUP7 ADD PUSH2 0xC55 JUMP JUMPDEST PUSH2 0xA46 DUP2 PUSH2 0xD5D JUMP JUMPDEST DUP5 ADD SWAP2 POP POP SWAP3 SWAP2 POP POP JUMP JUMPDEST PUSH1 0x0 PUSH2 0xA5E PUSH1 0x1D DUP4 PUSH2 0xBF9 JUMP JUMPDEST SWAP2 POP PUSH2 0xA69 DUP3 PUSH2 0xD6E JUMP JUMPDEST PUSH1 0x20 DUP3 ADD SWAP1 POP SWAP2 SWAP1 POP JUMP JUMPDEST PUSH1 0x0 PUSH1 0x40 DUP4 ADD PUSH1 0x0 DUP4 ADD MLOAD DUP5 DUP3 SUB PUSH1 0x0 DUP7 ADD MSTORE PUSH2 0xA91 DUP3 DUP3 PUSH2 0xA18 JUMP JUMPDEST SWAP2 POP POP PUSH1 0x20 DUP4 ADD MLOAD PUSH2 0xAA6 PUSH1 0x20 DUP7 ADD DUP3 PUSH2 0xB14 JUMP JUMPDEST POP DUP1 SWAP2 POP POP SWAP3 SWAP2 POP POP JUMP JUMPDEST PUSH1 0x0 PUSH1 0x80 DUP4 ADD PUSH1 0x0 DUP4 ADD MLOAD PUSH2 0xAC9 PUSH1 0x0 DUP7 ADD DUP3 PUSH2 0xB14 JUMP JUMPDEST POP PUSH1 0x20 DUP4 ADD MLOAD DUP5 DUP3 SUB PUSH1 0x20 DUP7 ADD MSTORE PUSH2 0xAE1 DUP3 DUP3 PUSH2 0xA18 JUMP JUMPDEST SWAP2 POP POP PUSH1 0x40 DUP4 ADD MLOAD PUSH2 0xAF6 PUSH1 0x40 DUP7 ADD DUP3 PUSH2 0xB14 JUMP JUMPDEST POP PUSH1 0x60 DUP4 ADD MLOAD PUSH2 0xB09 PUSH1 0x60 DUP7 ADD DUP3 PUSH2 0xB14 JUMP JUMPDEST POP DUP1 SWAP2 POP POP SWAP3 SWAP2 POP POP JUMP JUMPDEST PUSH2 0xB1D DUP2 PUSH2 0xC3C JUMP JUMPDEST DUP3 MSTORE POP POP JUMP JUMPDEST PUSH1 0x0 PUSH1 0x20 DUP3 ADD SWAP1 POP DUP2 DUP2 SUB PUSH1 0x0 DUP4 ADD MSTORE PUSH2 0xB3C DUP2 PUSH2 0xA51 JUMP JUMPDEST SWAP1 POP SWAP2 SWAP1 POP JUMP JUMPDEST PUSH1 0x0 PUSH1 0x20 DUP3 ADD SWAP1 POP DUP2 DUP2 SUB PUSH1 0x0 DUP4 ADD MSTORE PUSH2 0xB5D DUP2 DUP5 PUSH2 0xA74 JUMP JUMPDEST SWAP1 POP SWAP3 SWAP2 POP POP JUMP JUMPDEST PUSH1 0x0 PUSH1 0x20 DUP3 ADD SWAP1 POP DUP2 DUP2 SUB PUSH1 0x0 DUP4 ADD MSTORE PUSH2 0xB7F DUP2 DUP5 PUSH2 0xAB1 JUMP JUMPDEST SWAP1 POP SWAP3 SWAP2 POP POP JUMP JUMPDEST PUSH1 0x0 PUSH2 0xB91 PUSH2 0xBA2 JUMP JUMPDEST SWAP1 POP PUSH2 0xB9D DUP3 DUP3 PUSH2 0xCBA JUMP JUMPDEST SWAP2 SWAP1 POP JUMP JUMPDEST PUSH1 0x0 PUSH1 0x40 MLOAD SWAP1 POP SWAP1 JUMP JUMPDEST PUSH1 0x0 PUSH8 0xFFFFFFFFFFFFFFFF DUP3 GT ISZERO PUSH2 0xBC7 JUMPI PUSH2 0xBC6 PUSH2 0xD1A JUMP JUMPDEST JUMPDEST PUSH2 0xBD0 DUP3 PUSH2 0xD5D JUMP JUMPDEST SWAP1 POP PUSH1 0x20 DUP2 ADD SWAP1 POP SWAP2 SWAP1 POP JUMP JUMPDEST PUSH1 0x0 DUP2 MLOAD SWAP1 POP SWAP2 SWAP1 POP JUMP JUMPDEST PUSH1 0x0 DUP3 DUP3 MSTORE PUSH1 0x20 DUP3 ADD SWAP1 POP SWAP3 SWAP2 POP POP JUMP JUMPDEST PUSH1 0x0 DUP3 DUP3 MSTORE PUSH1 0x20 DUP3 ADD SWAP1 POP SWAP3 SWAP2 POP POP JUMP JUMPDEST PUSH1 0x0 PUSH2 0xC15 DUP3 PUSH2 0xC1C JUMP JUMPDEST SWAP1 POP SWAP2 SWAP1 POP JUMP JUMPDEST PUSH1 0x0 PUSH20 0xFFFFFFFFFFFFFFFFFFFFFFFFFFFFFFFFFFFFFFFF DUP3 AND SWAP1 POP SWAP2 SWAP1 POP JUMP JUMPDEST PUSH1 0x0 DUP2 SWAP1 POP SWAP2 SWAP1 POP JUMP JUMPDEST DUP3 DUP2 DUP4 CALLDATACOPY PUSH1 0x0 DUP4 DUP4 ADD MSTORE POP POP POP JUMP JUMPDEST PUSH1 0x0 JUMPDEST DUP4 DUP2 LT ISZERO PUSH2 0xC73 JUMPI DUP1 DUP3 ADD MLOAD DUP2 DUP5 ADD MSTORE PUSH1 0x20 DUP2 ADD SWAP1 POP PUSH2 0xC58 JUMP JUMPDEST DUP4 DUP2 GT ISZERO PUSH2 0xC82 JUMPI PUSH1 0x0 DUP5 DUP5 ADD MSTORE JUMPDEST POP POP POP POP JUMP JUMPDEST PUSH1 0x0 PUSH1 0x2 DUP3 DIV SWAP1 POP PUSH1 0x1 DUP3 AND DUP1 PUSH2 0xCA0 JUMPI PUSH1 0x7F DUP3 AND SWAP2 POP JUMPDEST PUSH1 0x20 DUP3 LT DUP2 EQ ISZERO PUSH2 0xCB4 JUMPI PUSH2 0xCB3 PUSH2 0xCEB JUMP JUMPDEST JUMPDEST POP SWAP2 SWAP1 POP JUMP JUMPDEST PUSH2 0xCC3 DUP3 PUSH2 0xD5D JUMP JUMPDEST DUP2 ADD DUP2 DUP2 LT PUSH8 0xFFFFFFFFFFFFFFFF DUP3 GT OR ISZERO PUSH2 0xCE2 JUMPI PUSH2 0xCE1 PUSH2 0xD1A JUMP JUMPDEST JUMPDEST DUP1 PUSH1 0x40 MSTORE POP POP POP JUMP JUMPDEST PUSH32 0x4E487B7100000000000000000000000000000000000000000000000000000000 PUSH1 0x0 MSTORE PUSH1 0x22 PUSH1 0x4 MSTORE PUSH1 0x24 PUSH1 0x0 REVERT JUMPDEST PUSH32 0x4E487B7100000000000000000000000000000000000000000000000000000000 PUSH1 0x0 MSTORE PUSH1 0x41 PUSH1 0x4 MSTORE PUSH1 0x24 PUSH1 0x0 REVERT JUMPDEST PUSH1 0x0 DUP1 REVERT JUMPDEST PUSH1 0x0 DUP1 REVERT JUMPDEST PUSH1 0x0 DUP1 REVERT JUMPDEST PUSH1 0x0 DUP1 REVERT JUMPDEST PUSH1 0x0 PUSH1 0x1F NOT PUSH1 0x1F DUP4 ADD AND SWAP1 POP SWAP2 SWAP1 POP JUMP JUMPDEST PUSH32 0x596F7520617265206E6F74206C616E646F66666963652073746166662E000000 PUSH1 0x0 DUP3 ADD MSTORE POP JUMP JUMPDEST PUSH2 0xDA0 DUP2 PUSH2 0xC0A JUMP JUMPDEST DUP2 EQ PUSH2 0xDAB JUMPI PUSH1 0x0 DUP1 REVERT JUMPDEST POP JUMP JUMPDEST PUSH2 0xDB7 DUP2 PUSH2 0xC3C JUMP JUMPDEST DUP2 EQ PUSH2 0xDC2 JUMPI PUSH1 0x0 DUP1 REVERT JUMPDEST POP JUMP INVALID LOG2 PUSH5 0x6970667358 0x22 SLT KECCAK256 DUP16 0x2D 0xB7 NUMBER TIMESTAMP EXTCODESIZE 0x4E 0xE0 MLOAD JUMP CALL PUSH13 0xF24DE0207E304851A32312F2B8 PUSH18 0xAFE7D099E46E64736F6C6343000807003300 "
				},
				"gasEstimates": {
					"creation": {
						"codeDepositCost": "715800",
						"executionCost": "25013",
						"totalCost": "740813"
					},
					"external": {
						"createParcel(address,uint256,string,uint256,uint256)": "infinite",
						"getOlgt(address)": "infinite",
						"getParcel(address)": "infinite",
						"mortgage(address,string,uint256)": "infinite"
					}
				},
				"methodIdentifiers": {
					"createParcel(address,uint256,string,uint256,uint256)": "935656c2",
					"getOlgt(address)": "215271cb",
					"getParcel(address)": "198e86c6",
					"mortgage(address,string,uint256)": "5b1dedc2"
				}
			},
			"storageLayout": {
				"storage": [
					{
						"astId": 17,
						"contract": "contracts/Parcel.sol:Parcel",
						"label": "staff",
						"offset": 0,
						"slot": "0",
						"type": "t_address"
					},
					{
						"astId": 22,
						"contract": "contracts/Parcel.sol:Parcel",
						"label": "_parcel_land",
						"offset": 0,
						"slot": "1",
						"type": "t_mapping(t_address,t_struct(Parcel_land)10_storage)"
					},
					{
						"astId": 27,
						"contract": "contracts/Parcel.sol:Parcel",
						"label": "_olgt",
						"offset": 0,
						"slot": "2",
						"type": "t_mapping(t_address,t_struct(Olgt)15_storage)"
					}
				],
				"types": {
					"t_address": {
						"encoding": "inplace",
						"label": "address",
						"numberOfBytes": "20"
					},
					"t_mapping(t_address,t_struct(Olgt)15_storage)": {
						"encoding": "mapping",
						"key": "t_address",
						"label": "mapping(address => struct Olgt)",
						"numberOfBytes": "32",
						"value": "t_struct(Olgt)15_storage"
					},
					"t_mapping(t_address,t_struct(Parcel_land)10_storage)": {
						"encoding": "mapping",
						"key": "t_address",
						"label": "mapping(address => struct Parcel_land)",
						"numberOfBytes": "32",
						"value": "t_struct(Parcel_land)10_storage"
					},
					"t_string_storage": {
						"encoding": "bytes",
						"label": "string",
						"numberOfBytes": "32"
					},
					"t_struct(Olgt)15_storage": {
						"encoding": "inplace",
						"label": "struct Olgt",
						"members": [
							{
								"astId": 12,
								"contract": "contracts/Parcel.sol:Parcel",
								"label": "olgt_name",
								"offset": 0,
								"slot": "0",
								"type": "t_string_storage"
							},
							{
								"astId": 14,
								"contract": "contracts/Parcel.sol:Parcel",
								"label": "olgt_price",
								"offset": 0,
								"slot": "1",
								"type": "t_uint256"
							}
						],
						"numberOfBytes": "64"
					},
					"t_struct(Parcel_land)10_storage": {
						"encoding": "inplace",
						"label": "struct Parcel_land",
						"members": [
							{
								"astId": 3,
								"contract": "contracts/Parcel.sol:Parcel",
								"label": "parcel_no",
								"offset": 0,
								"slot": "0",
								"type": "t_uint256"
							},
							{
								"astId": 5,
								"contract": "contracts/Parcel.sol:Parcel",
								"label": "owner_name",
								"offset": 0,
								"slot": "1",
								"type": "t_string_storage"
							},
							{
								"astId": 7,
								"contract": "contracts/Parcel.sol:Parcel",
								"label": "price",
								"offset": 0,
								"slot": "2",
								"type": "t_uint256"
							},
							{
								"astId": 9,
								"contract": "contracts/Parcel.sol:Parcel",
								"label": "area",
								"offset": 0,
								"slot": "3",
								"type": "t_uint256"
							}
						],
						"numberOfBytes": "128"
					},
					"t_uint256": {
						"encoding": "inplace",
						"label": "uint256",
						"numberOfBytes": "32"
					}
				}
			},
			"userdoc": {
				"kind": "user",
				"methods": {},
				"version": 1
			}
		}
	}
}