{
	"contracts/Parcel.sol": {
		"Parcel": {
			"abi": [
				{
					"inputs": [],
					"stateMutability": "nonpayable",
					"type": "constructor"
				},
				{
					"inputs": [
						{
							"internalType": "uint256",
							"name": "parcel_no",
							"type": "uint256"
						},
						{
							"internalType": "string",
							"name": "owner_name",
							"type": "string"
						},
						{
							"internalType": "uint256",
							"name": "price",
							"type": "uint256"
						},
						{
							"internalType": "uint256",
							"name": "area",
							"type": "uint256"
						}
					],
					"name": "createParcel",
					"outputs": [],
					"stateMutability": "payable",
					"type": "function"
				},
				{
					"inputs": [
						{
							"internalType": "string",
							"name": "owner_name",
							"type": "string"
						},
						{
							"internalType": "uint256",
							"name": "price",
							"type": "uint256"
						}
					],
					"name": "mortgage",
					"outputs": [],
					"stateMutability": "payable",
					"type": "function"
				},
				{
					"inputs": [
						{
							"internalType": "address",
							"name": "person",
							"type": "address"
						},
						{
							"internalType": "string",
							"name": "owner_name",
							"type": "string"
						},
						{
							"internalType": "uint256",
							"name": "price",
							"type": "uint256"
						}
					],
					"name": "redeem",
					"outputs": [],
					"stateMutability": "payable",
					"type": "function"
				}
			],
			"devdoc": {
				"kind": "dev",
				"methods": {},
				"version": 1
			},
			"evm": {
				"assembly": "    /* \"contracts/Parcel.sol\":265:1812  contract Parcel {\r... */\n  mstore(0x40, 0x80)\n    /* \"contracts/Parcel.sol\":424:475  constructor() {\r... */\n  callvalue\n  dup1\n  iszero\n  tag_1\n  jumpi\n  0x00\n  dup1\n  revert\ntag_1:\n  pop\n    /* \"contracts/Parcel.sol\":457:467  msg.sender */\n  caller\n    /* \"contracts/Parcel.sol\":449:454  owner */\n  0x00\n  dup1\n    /* \"contracts/Parcel.sol\":449:467  owner = msg.sender */\n  0x0100\n  exp\n  dup2\n  sload\n  dup2\n  0xffffffffffffffffffffffffffffffffffffffff\n  mul\n  not\n  and\n  swap1\n  dup4\n  0xffffffffffffffffffffffffffffffffffffffff\n  and\n  mul\n  or\n  swap1\n  sstore\n  pop\n    /* \"contracts/Parcel.sol\":265:1812  contract Parcel {\r... */\n  dataSize(sub_0)\n  dup1\n  dataOffset(sub_0)\n  0x00\n  codecopy\n  0x00\n  return\nstop\n\nsub_0: assembly {\n        /* \"contracts/Parcel.sol\":265:1812  contract Parcel {\r... */\n      mstore(0x40, 0x80)\n      jumpi(tag_1, lt(calldatasize, 0x04))\n      shr(0xe0, calldataload(0x00))\n      dup1\n      0x4854e056\n      eq\n      tag_2\n      jumpi\n      dup1\n      0x868571ef\n      eq\n      tag_3\n      jumpi\n      dup1\n      0xbfd6843d\n      eq\n      tag_4\n      jumpi\n    tag_1:\n      0x00\n      dup1\n      revert\n        /* \"contracts/Parcel.sol\":680:978  function createParcel(uint parcel_no, string memory owner_name, uint price, uint area) public payable {\r... */\n    tag_2:\n      tag_5\n      0x04\n      dup1\n      calldatasize\n      sub\n      dup2\n      add\n      swap1\n      tag_6\n      swap2\n      swap1\n      tag_7\n      jump\t// in\n    tag_6:\n      tag_8\n      jump\t// in\n    tag_5:\n      stop\n        /* \"contracts/Parcel.sol\":1498:1807  function redeem(address person, string memory owner_name, uint price) public payable {\r... */\n    tag_3:\n      tag_9\n      0x04\n      dup1\n      calldatasize\n      sub\n      dup2\n      add\n      swap1\n      tag_10\n      swap2\n      swap1\n      tag_11\n      jump\t// in\n    tag_10:\n      tag_12\n      jump\t// in\n    tag_9:\n      stop\n        /* \"contracts/Parcel.sol\":1111:1332  function mortgage(string memory owner_name, uint price) public payable {\r... */\n    tag_4:\n      tag_13\n      0x04\n      dup1\n      calldatasize\n      sub\n      dup2\n      add\n      swap1\n      tag_14\n      swap2\n      swap1\n      tag_15\n      jump\t// in\n    tag_14:\n      tag_16\n      jump\t// in\n    tag_13:\n      stop\n        /* \"contracts/Parcel.sol\":680:978  function createParcel(uint parcel_no, string memory owner_name, uint price, uint area) public payable {\r... */\n    tag_8:\n        /* \"contracts/Parcel.sol\":824:833  parcel_no */\n      dup4\n        /* \"contracts/Parcel.sol\":792:804  _parcel_land */\n      0x05\n        /* \"contracts/Parcel.sol\":792:811  _parcel_land[owner] */\n      0x00\n        /* \"contracts/Parcel.sol\":805:810  owner */\n      dup1\n      0x00\n      swap1\n      sload\n      swap1\n      0x0100\n      exp\n      swap1\n      div\n      0xffffffffffffffffffffffffffffffffffffffff\n      and\n        /* \"contracts/Parcel.sol\":792:811  _parcel_land[owner] */\n      0xffffffffffffffffffffffffffffffffffffffff\n      and\n      0xffffffffffffffffffffffffffffffffffffffff\n      and\n      dup2\n      mstore\n      0x20\n      add\n      swap1\n      dup2\n      mstore\n      0x20\n      add\n      0x00\n      keccak256\n        /* \"contracts/Parcel.sol\":792:821  _parcel_land[owner].parcel_no */\n      0x00\n      add\n        /* \"contracts/Parcel.sol\":792:833  _parcel_land[owner].parcel_no = parcel_no */\n      dup2\n      swap1\n      sstore\n      pop\n        /* \"contracts/Parcel.sol\":876:886  owner_name */\n      dup3\n        /* \"contracts/Parcel.sol\":843:855  _parcel_land */\n      0x05\n        /* \"contracts/Parcel.sol\":843:862  _parcel_land[owner] */\n      0x00\n        /* \"contracts/Parcel.sol\":856:861  owner */\n      dup1\n      0x00\n      swap1\n      sload\n      swap1\n      0x0100\n      exp\n      swap1\n      div\n      0xffffffffffffffffffffffffffffffffffffffff\n      and\n        /* \"contracts/Parcel.sol\":843:862  _parcel_land[owner] */\n      0xffffffffffffffffffffffffffffffffffffffff\n      and\n      0xffffffffffffffffffffffffffffffffffffffff\n      and\n      dup2\n      mstore\n      0x20\n      add\n      swap1\n      dup2\n      mstore\n      0x20\n      add\n      0x00\n      keccak256\n        /* \"contracts/Parcel.sol\":843:873  _parcel_land[owner].owner_name */\n      0x01\n      add\n        /* \"contracts/Parcel.sol\":843:886  _parcel_land[owner].owner_name = owner_name */\n      swap1\n      dup1\n      mload\n      swap1\n      0x20\n      add\n      swap1\n      tag_18\n      swap3\n      swap2\n      swap1\n      tag_19\n      jump\t// in\n    tag_18:\n      pop\n        /* \"contracts/Parcel.sol\":924:929  price */\n      dup2\n        /* \"contracts/Parcel.sol\":896:908  _parcel_land */\n      0x05\n        /* \"contracts/Parcel.sol\":896:915  _parcel_land[owner] */\n      0x00\n        /* \"contracts/Parcel.sol\":909:914  owner */\n      dup1\n      0x00\n      swap1\n      sload\n      swap1\n      0x0100\n      exp\n      swap1\n      div\n      0xffffffffffffffffffffffffffffffffffffffff\n      and\n        /* \"contracts/Parcel.sol\":896:915  _parcel_land[owner] */\n      0xffffffffffffffffffffffffffffffffffffffff\n      and\n      0xffffffffffffffffffffffffffffffffffffffff\n      and\n      dup2\n      mstore\n      0x20\n      add\n      swap1\n      dup2\n      mstore\n      0x20\n      add\n      0x00\n      keccak256\n        /* \"contracts/Parcel.sol\":896:921  _parcel_land[owner].price */\n      0x02\n      add\n        /* \"contracts/Parcel.sol\":896:929  _parcel_land[owner].price = price */\n      dup2\n      swap1\n      sstore\n      pop\n        /* \"contracts/Parcel.sol\":966:970  area */\n      dup1\n        /* \"contracts/Parcel.sol\":939:951  _parcel_land */\n      0x05\n        /* \"contracts/Parcel.sol\":939:958  _parcel_land[owner] */\n      0x00\n        /* \"contracts/Parcel.sol\":952:957  owner */\n      dup1\n      0x00\n      swap1\n      sload\n      swap1\n      0x0100\n      exp\n      swap1\n      div\n      0xffffffffffffffffffffffffffffffffffffffff\n      and\n        /* \"contracts/Parcel.sol\":939:958  _parcel_land[owner] */\n      0xffffffffffffffffffffffffffffffffffffffff\n      and\n      0xffffffffffffffffffffffffffffffffffffffff\n      and\n      dup2\n      mstore\n      0x20\n      add\n      swap1\n      dup2\n      mstore\n      0x20\n      add\n      0x00\n      keccak256\n        /* \"contracts/Parcel.sol\":939:963  _parcel_land[owner].area */\n      0x03\n      add\n        /* \"contracts/Parcel.sol\":939:970  _parcel_land[owner].area = area */\n      dup2\n      swap1\n      sstore\n      pop\n        /* \"contracts/Parcel.sol\":680:978  function createParcel(uint parcel_no, string memory owner_name, uint price, uint area) public payable {\r... */\n      pop\n      pop\n      pop\n      pop\n      jump\t// out\n        /* \"contracts/Parcel.sol\":1498:1807  function redeem(address person, string memory owner_name, uint price) public payable {\r... */\n    tag_12:\n        /* \"contracts/Parcel.sol\":1629:1634  price */\n      dup1\n        /* \"contracts/Parcel.sol\":1602:1607  _olgt */\n      0x06\n        /* \"contracts/Parcel.sol\":1602:1614  _olgt[owner] */\n      0x00\n        /* \"contracts/Parcel.sol\":1608:1613  owner */\n      dup1\n      0x00\n      swap1\n      sload\n      swap1\n      0x0100\n      exp\n      swap1\n      div\n      0xffffffffffffffffffffffffffffffffffffffff\n      and\n        /* \"contracts/Parcel.sol\":1602:1614  _olgt[owner] */\n      0xffffffffffffffffffffffffffffffffffffffff\n      and\n      0xffffffffffffffffffffffffffffffffffffffff\n      and\n      dup2\n      mstore\n      0x20\n      add\n      swap1\n      dup2\n      mstore\n      0x20\n      add\n      0x00\n      keccak256\n        /* \"contracts/Parcel.sol\":1602:1625  _olgt[owner].olgt_price */\n      0x01\n      add\n      sload\n        /* \"contracts/Parcel.sol\":1602:1634  _olgt[owner].olgt_price >= price */\n      lt\n      iszero\n        /* \"contracts/Parcel.sol\":1594:1668  require(_olgt[owner].olgt_price >= price, \"Insufficient fund for redeem.\") */\n      tag_21\n      jumpi\n      mload(0x40)\n      0x08c379a000000000000000000000000000000000000000000000000000000000\n      dup2\n      mstore\n      0x04\n      add\n      tag_22\n      swap1\n      tag_23\n      jump\t// in\n    tag_22:\n      mload(0x40)\n      dup1\n      swap2\n      sub\n      swap1\n      revert\n    tag_21:\n        /* \"contracts/Parcel.sol\":1713:1723  owner_name */\n      dup2\n        /* \"contracts/Parcel.sol\":1679:1691  _parcel_land */\n      0x05\n        /* \"contracts/Parcel.sol\":1679:1699  _parcel_land[person] */\n      0x00\n        /* \"contracts/Parcel.sol\":1692:1698  person */\n      dup6\n        /* \"contracts/Parcel.sol\":1679:1699  _parcel_land[person] */\n      0xffffffffffffffffffffffffffffffffffffffff\n      and\n      0xffffffffffffffffffffffffffffffffffffffff\n      and\n      dup2\n      mstore\n      0x20\n      add\n      swap1\n      dup2\n      mstore\n      0x20\n      add\n      0x00\n      keccak256\n        /* \"contracts/Parcel.sol\":1679:1710  _parcel_land[person].owner_name */\n      0x01\n      add\n        /* \"contracts/Parcel.sol\":1679:1723  _parcel_land[person].owner_name = owner_name */\n      swap1\n      dup1\n      mload\n      swap1\n      0x20\n      add\n      swap1\n      tag_24\n      swap3\n      swap2\n      swap1\n      tag_19\n      jump\t// in\n    tag_24:\n      pop\n        /* \"contracts/Parcel.sol\":1734:1761  _olgt[owner].olgt_name = \"\" */\n      mload(0x40)\n      dup1\n      0x20\n      add\n      0x40\n      mstore\n      dup1\n      0x00\n      dup2\n      mstore\n      pop\n        /* \"contracts/Parcel.sol\":1734:1739  _olgt */\n      0x06\n        /* \"contracts/Parcel.sol\":1734:1746  _olgt[owner] */\n      0x00\n        /* \"contracts/Parcel.sol\":1740:1745  owner */\n      dup1\n      0x00\n      swap1\n      sload\n      swap1\n      0x0100\n      exp\n      swap1\n      div\n      0xffffffffffffffffffffffffffffffffffffffff\n      and\n        /* \"contracts/Parcel.sol\":1734:1746  _olgt[owner] */\n      0xffffffffffffffffffffffffffffffffffffffff\n      and\n      0xffffffffffffffffffffffffffffffffffffffff\n      and\n      dup2\n      mstore\n      0x20\n      add\n      swap1\n      dup2\n      mstore\n      0x20\n      add\n      0x00\n      keccak256\n        /* \"contracts/Parcel.sol\":1734:1756  _olgt[owner].olgt_name */\n      0x00\n      add\n        /* \"contracts/Parcel.sol\":1734:1761  _olgt[owner].olgt_name = \"\" */\n      swap1\n      dup1\n      mload\n      swap1\n      0x20\n      add\n      swap1\n      tag_25\n      swap3\n      swap2\n      swap1\n      tag_19\n      jump\t// in\n    tag_25:\n      pop\n        /* \"contracts/Parcel.sol\":1798:1799  0 */\n      0x00\n        /* \"contracts/Parcel.sol\":1772:1777  _olgt */\n      0x06\n        /* \"contracts/Parcel.sol\":1772:1784  _olgt[owner] */\n      0x00\n        /* \"contracts/Parcel.sol\":1778:1783  owner */\n      dup1\n      0x00\n      swap1\n      sload\n      swap1\n      0x0100\n      exp\n      swap1\n      div\n      0xffffffffffffffffffffffffffffffffffffffff\n      and\n        /* \"contracts/Parcel.sol\":1772:1784  _olgt[owner] */\n      0xffffffffffffffffffffffffffffffffffffffff\n      and\n      0xffffffffffffffffffffffffffffffffffffffff\n      and\n      dup2\n      mstore\n      0x20\n      add\n      swap1\n      dup2\n      mstore\n      0x20\n      add\n      0x00\n      keccak256\n        /* \"contracts/Parcel.sol\":1772:1795  _olgt[owner].olgt_price */\n      0x01\n      add\n        /* \"contracts/Parcel.sol\":1772:1799  _olgt[owner].olgt_price = 0 */\n      dup2\n      swap1\n      sstore\n      pop\n        /* \"contracts/Parcel.sol\":1498:1807  function redeem(address person, string memory owner_name, uint price) public payable {\r... */\n      pop\n      pop\n      pop\n      jump\t// out\n        /* \"contracts/Parcel.sol\":1111:1332  function mortgage(string memory owner_name, uint price) public payable {\r... */\n    tag_16:\n        /* \"contracts/Parcel.sol\":1226:1236  owner_name */\n      dup2\n        /* \"contracts/Parcel.sol\":1193:1205  _parcel_land */\n      0x05\n        /* \"contracts/Parcel.sol\":1193:1212  _parcel_land[owner] */\n      0x00\n        /* \"contracts/Parcel.sol\":1206:1211  owner */\n      dup1\n      0x00\n      swap1\n      sload\n      swap1\n      0x0100\n      exp\n      swap1\n      div\n      0xffffffffffffffffffffffffffffffffffffffff\n      and\n        /* \"contracts/Parcel.sol\":1193:1212  _parcel_land[owner] */\n      0xffffffffffffffffffffffffffffffffffffffff\n      and\n      0xffffffffffffffffffffffffffffffffffffffff\n      and\n      dup2\n      mstore\n      0x20\n      add\n      swap1\n      dup2\n      mstore\n      0x20\n      add\n      0x00\n      keccak256\n        /* \"contracts/Parcel.sol\":1193:1223  _parcel_land[owner].owner_name */\n      0x01\n      add\n        /* \"contracts/Parcel.sol\":1193:1236  _parcel_land[owner].owner_name = owner_name */\n      swap1\n      dup1\n      mload\n      swap1\n      0x20\n      add\n      swap1\n      tag_27\n      swap3\n      swap2\n      swap1\n      tag_19\n      jump\t// in\n    tag_27:\n      pop\n        /* \"contracts/Parcel.sol\":1272:1282  owner_name */\n      dup2\n        /* \"contracts/Parcel.sol\":1247:1252  _olgt */\n      0x06\n        /* \"contracts/Parcel.sol\":1247:1259  _olgt[owner] */\n      0x00\n        /* \"contracts/Parcel.sol\":1253:1258  owner */\n      dup1\n      0x00\n      swap1\n      sload\n      swap1\n      0x0100\n      exp\n      swap1\n      div\n      0xffffffffffffffffffffffffffffffffffffffff\n      and\n        /* \"contracts/Parcel.sol\":1247:1259  _olgt[owner] */\n      0xffffffffffffffffffffffffffffffffffffffff\n      and\n      0xffffffffffffffffffffffffffffffffffffffff\n      and\n      dup2\n      mstore\n      0x20\n      add\n      swap1\n      dup2\n      mstore\n      0x20\n      add\n      0x00\n      keccak256\n        /* \"contracts/Parcel.sol\":1247:1269  _olgt[owner].olgt_name */\n      0x00\n      add\n        /* \"contracts/Parcel.sol\":1247:1282  _olgt[owner].olgt_name = owner_name */\n      swap1\n      dup1\n      mload\n      swap1\n      0x20\n      add\n      swap1\n      tag_28\n      swap3\n      swap2\n      swap1\n      tag_19\n      jump\t// in\n    tag_28:\n      pop\n        /* \"contracts/Parcel.sol\":1319:1324  price */\n      dup1\n        /* \"contracts/Parcel.sol\":1293:1298  _olgt */\n      0x06\n        /* \"contracts/Parcel.sol\":1293:1305  _olgt[owner] */\n      0x00\n        /* \"contracts/Parcel.sol\":1299:1304  owner */\n      dup1\n      0x00\n      swap1\n      sload\n      swap1\n      0x0100\n      exp\n      swap1\n      div\n      0xffffffffffffffffffffffffffffffffffffffff\n      and\n        /* \"contracts/Parcel.sol\":1293:1305  _olgt[owner] */\n      0xffffffffffffffffffffffffffffffffffffffff\n      and\n      0xffffffffffffffffffffffffffffffffffffffff\n      and\n      dup2\n      mstore\n      0x20\n      add\n      swap1\n      dup2\n      mstore\n      0x20\n      add\n      0x00\n      keccak256\n        /* \"contracts/Parcel.sol\":1293:1316  _olgt[owner].olgt_price */\n      0x01\n      add\n        /* \"contracts/Parcel.sol\":1293:1324  _olgt[owner].olgt_price = price */\n      dup2\n      swap1\n      sstore\n      pop\n        /* \"contracts/Parcel.sol\":1111:1332  function mortgage(string memory owner_name, uint price) public payable {\r... */\n      pop\n      pop\n      jump\t// out\n    tag_19:\n      dup3\n      dup1\n      sload\n      tag_29\n      swap1\n      tag_30\n      jump\t// in\n    tag_29:\n      swap1\n      0x00\n      mstore\n      keccak256(0x00, 0x20)\n      swap1\n      0x1f\n      add\n      0x20\n      swap1\n      div\n      dup2\n      add\n      swap3\n      dup3\n      tag_32\n      jumpi\n      0x00\n      dup6\n      sstore\n      jump(tag_31)\n    tag_32:\n      dup3\n      0x1f\n      lt\n      tag_33\n      jumpi\n      dup1\n      mload\n      not(0xff)\n      and\n      dup4\n      dup1\n      add\n      or\n      dup6\n      sstore\n      jump(tag_31)\n    tag_33:\n      dup3\n      dup1\n      add\n      0x01\n      add\n      dup6\n      sstore\n      dup3\n      iszero\n      tag_31\n      jumpi\n      swap2\n      dup3\n      add\n    tag_34:\n      dup3\n      dup2\n      gt\n      iszero\n      tag_35\n      jumpi\n      dup3\n      mload\n      dup3\n      sstore\n      swap2\n      0x20\n      add\n      swap2\n      swap1\n      0x01\n      add\n      swap1\n      jump(tag_34)\n    tag_35:\n    tag_31:\n      pop\n      swap1\n      pop\n      tag_36\n      swap2\n      swap1\n      tag_37\n      jump\t// in\n    tag_36:\n      pop\n      swap1\n      jump\t// out\n    tag_37:\n    tag_38:\n      dup1\n      dup3\n      gt\n      iszero\n      tag_39\n      jumpi\n      0x00\n      dup2\n      0x00\n      swap1\n      sstore\n      pop\n      0x01\n      add\n      jump(tag_38)\n    tag_39:\n      pop\n      swap1\n      jump\t// out\n        /* \"#utility.yul\":7:419   */\n    tag_41:\n        /* \"#utility.yul\":85:90   */\n      0x00\n        /* \"#utility.yul\":110:176   */\n      tag_43\n        /* \"#utility.yul\":126:175   */\n      tag_44\n        /* \"#utility.yul\":168:174   */\n      dup5\n        /* \"#utility.yul\":126:175   */\n      tag_45\n      jump\t// in\n    tag_44:\n        /* \"#utility.yul\":110:176   */\n      tag_46\n      jump\t// in\n    tag_43:\n        /* \"#utility.yul\":101:176   */\n      swap1\n      pop\n        /* \"#utility.yul\":199:205   */\n      dup3\n        /* \"#utility.yul\":192:197   */\n      dup2\n        /* \"#utility.yul\":185:206   */\n      mstore\n        /* \"#utility.yul\":237:241   */\n      0x20\n        /* \"#utility.yul\":230:235   */\n      dup2\n        /* \"#utility.yul\":226:242   */\n      add\n        /* \"#utility.yul\":275:278   */\n      dup5\n        /* \"#utility.yul\":266:272   */\n      dup5\n        /* \"#utility.yul\":261:264   */\n      dup5\n        /* \"#utility.yul\":257:273   */\n      add\n        /* \"#utility.yul\":254:279   */\n      gt\n        /* \"#utility.yul\":251:363   */\n      iszero\n      tag_47\n      jumpi\n        /* \"#utility.yul\":282:361   */\n      tag_48\n      tag_49\n      jump\t// in\n    tag_48:\n        /* \"#utility.yul\":251:363   */\n    tag_47:\n        /* \"#utility.yul\":372:413   */\n      tag_50\n        /* \"#utility.yul\":406:412   */\n      dup5\n        /* \"#utility.yul\":401:404   */\n      dup3\n        /* \"#utility.yul\":396:399   */\n      dup6\n        /* \"#utility.yul\":372:413   */\n      tag_51\n      jump\t// in\n    tag_50:\n        /* \"#utility.yul\":91:419   */\n      pop\n        /* \"#utility.yul\":7:419   */\n      swap4\n      swap3\n      pop\n      pop\n      pop\n      jump\t// out\n        /* \"#utility.yul\":425:564   */\n    tag_52:\n        /* \"#utility.yul\":471:476   */\n      0x00\n        /* \"#utility.yul\":509:515   */\n      dup2\n        /* \"#utility.yul\":496:516   */\n      calldataload\n        /* \"#utility.yul\":487:516   */\n      swap1\n      pop\n        /* \"#utility.yul\":525:558   */\n      tag_54\n        /* \"#utility.yul\":552:557   */\n      dup2\n        /* \"#utility.yul\":525:558   */\n      tag_55\n      jump\t// in\n    tag_54:\n        /* \"#utility.yul\":425:564   */\n      swap3\n      swap2\n      pop\n      pop\n      jump\t// out\n        /* \"#utility.yul\":584:924   */\n    tag_56:\n        /* \"#utility.yul\":640:645   */\n      0x00\n        /* \"#utility.yul\":689:692   */\n      dup3\n        /* \"#utility.yul\":682:686   */\n      0x1f\n        /* \"#utility.yul\":674:680   */\n      dup4\n        /* \"#utility.yul\":670:687   */\n      add\n        /* \"#utility.yul\":666:693   */\n      slt\n        /* \"#utility.yul\":656:778   */\n      tag_58\n      jumpi\n        /* \"#utility.yul\":697:776   */\n      tag_59\n      tag_60\n      jump\t// in\n    tag_59:\n        /* \"#utility.yul\":656:778   */\n    tag_58:\n        /* \"#utility.yul\":814:820   */\n      dup2\n        /* \"#utility.yul\":801:821   */\n      calldataload\n        /* \"#utility.yul\":839:918   */\n      tag_61\n        /* \"#utility.yul\":914:917   */\n      dup5\n        /* \"#utility.yul\":906:912   */\n      dup3\n        /* \"#utility.yul\":899:903   */\n      0x20\n        /* \"#utility.yul\":891:897   */\n      dup7\n        /* \"#utility.yul\":887:904   */\n      add\n        /* \"#utility.yul\":839:918   */\n      tag_41\n      jump\t// in\n    tag_61:\n        /* \"#utility.yul\":830:918   */\n      swap2\n      pop\n        /* \"#utility.yul\":646:924   */\n      pop\n        /* \"#utility.yul\":584:924   */\n      swap3\n      swap2\n      pop\n      pop\n      jump\t// out\n        /* \"#utility.yul\":930:1069   */\n    tag_62:\n        /* \"#utility.yul\":976:981   */\n      0x00\n        /* \"#utility.yul\":1014:1020   */\n      dup2\n        /* \"#utility.yul\":1001:1021   */\n      calldataload\n        /* \"#utility.yul\":992:1021   */\n      swap1\n      pop\n        /* \"#utility.yul\":1030:1063   */\n      tag_64\n        /* \"#utility.yul\":1057:1062   */\n      dup2\n        /* \"#utility.yul\":1030:1063   */\n      tag_65\n      jump\t// in\n    tag_64:\n        /* \"#utility.yul\":930:1069   */\n      swap3\n      swap2\n      pop\n      pop\n      jump\t// out\n        /* \"#utility.yul\":1075:1874   */\n    tag_11:\n        /* \"#utility.yul\":1162:1168   */\n      0x00\n        /* \"#utility.yul\":1170:1176   */\n      dup1\n        /* \"#utility.yul\":1178:1184   */\n      0x00\n        /* \"#utility.yul\":1227:1229   */\n      0x60\n        /* \"#utility.yul\":1215:1224   */\n      dup5\n        /* \"#utility.yul\":1206:1213   */\n      dup7\n        /* \"#utility.yul\":1202:1225   */\n      sub\n        /* \"#utility.yul\":1198:1230   */\n      slt\n        /* \"#utility.yul\":1195:1314   */\n      iszero\n      tag_67\n      jumpi\n        /* \"#utility.yul\":1233:1312   */\n      tag_68\n      tag_69\n      jump\t// in\n    tag_68:\n        /* \"#utility.yul\":1195:1314   */\n    tag_67:\n        /* \"#utility.yul\":1353:1354   */\n      0x00\n        /* \"#utility.yul\":1378:1431   */\n      tag_70\n        /* \"#utility.yul\":1423:1430   */\n      dup7\n        /* \"#utility.yul\":1414:1420   */\n      dup3\n        /* \"#utility.yul\":1403:1412   */\n      dup8\n        /* \"#utility.yul\":1399:1421   */\n      add\n        /* \"#utility.yul\":1378:1431   */\n      tag_52\n      jump\t// in\n    tag_70:\n        /* \"#utility.yul\":1368:1431   */\n      swap4\n      pop\n        /* \"#utility.yul\":1324:1441   */\n      pop\n        /* \"#utility.yul\":1508:1510   */\n      0x20\n        /* \"#utility.yul\":1497:1506   */\n      dup5\n        /* \"#utility.yul\":1493:1511   */\n      add\n        /* \"#utility.yul\":1480:1512   */\n      calldataload\n        /* \"#utility.yul\":1539:1557   */\n      0xffffffffffffffff\n        /* \"#utility.yul\":1531:1537   */\n      dup2\n        /* \"#utility.yul\":1528:1558   */\n      gt\n        /* \"#utility.yul\":1525:1642   */\n      iszero\n      tag_71\n      jumpi\n        /* \"#utility.yul\":1561:1640   */\n      tag_72\n      tag_73\n      jump\t// in\n    tag_72:\n        /* \"#utility.yul\":1525:1642   */\n    tag_71:\n        /* \"#utility.yul\":1666:1729   */\n      tag_74\n        /* \"#utility.yul\":1721:1728   */\n      dup7\n        /* \"#utility.yul\":1712:1718   */\n      dup3\n        /* \"#utility.yul\":1701:1710   */\n      dup8\n        /* \"#utility.yul\":1697:1719   */\n      add\n        /* \"#utility.yul\":1666:1729   */\n      tag_56\n      jump\t// in\n    tag_74:\n        /* \"#utility.yul\":1656:1729   */\n      swap3\n      pop\n        /* \"#utility.yul\":1451:1739   */\n      pop\n        /* \"#utility.yul\":1778:1780   */\n      0x40\n        /* \"#utility.yul\":1804:1857   */\n      tag_75\n        /* \"#utility.yul\":1849:1856   */\n      dup7\n        /* \"#utility.yul\":1840:1846   */\n      dup3\n        /* \"#utility.yul\":1829:1838   */\n      dup8\n        /* \"#utility.yul\":1825:1847   */\n      add\n        /* \"#utility.yul\":1804:1857   */\n      tag_62\n      jump\t// in\n    tag_75:\n        /* \"#utility.yul\":1794:1857   */\n      swap2\n      pop\n        /* \"#utility.yul\":1749:1867   */\n      pop\n        /* \"#utility.yul\":1075:1874   */\n      swap3\n      pop\n      swap3\n      pop\n      swap3\n      jump\t// out\n        /* \"#utility.yul\":1880:2534   */\n    tag_15:\n        /* \"#utility.yul\":1958:1964   */\n      0x00\n        /* \"#utility.yul\":1966:1972   */\n      dup1\n        /* \"#utility.yul\":2015:2017   */\n      0x40\n        /* \"#utility.yul\":2003:2012   */\n      dup4\n        /* \"#utility.yul\":1994:2001   */\n      dup6\n        /* \"#utility.yul\":1990:2013   */\n      sub\n        /* \"#utility.yul\":1986:2018   */\n      slt\n        /* \"#utility.yul\":1983:2102   */\n      iszero\n      tag_77\n      jumpi\n        /* \"#utility.yul\":2021:2100   */\n      tag_78\n      tag_69\n      jump\t// in\n    tag_78:\n        /* \"#utility.yul\":1983:2102   */\n    tag_77:\n        /* \"#utility.yul\":2169:2170   */\n      0x00\n        /* \"#utility.yul\":2158:2167   */\n      dup4\n        /* \"#utility.yul\":2154:2171   */\n      add\n        /* \"#utility.yul\":2141:2172   */\n      calldataload\n        /* \"#utility.yul\":2199:2217   */\n      0xffffffffffffffff\n        /* \"#utility.yul\":2191:2197   */\n      dup2\n        /* \"#utility.yul\":2188:2218   */\n      gt\n        /* \"#utility.yul\":2185:2302   */\n      iszero\n      tag_79\n      jumpi\n        /* \"#utility.yul\":2221:2300   */\n      tag_80\n      tag_73\n      jump\t// in\n    tag_80:\n        /* \"#utility.yul\":2185:2302   */\n    tag_79:\n        /* \"#utility.yul\":2326:2389   */\n      tag_81\n        /* \"#utility.yul\":2381:2388   */\n      dup6\n        /* \"#utility.yul\":2372:2378   */\n      dup3\n        /* \"#utility.yul\":2361:2370   */\n      dup7\n        /* \"#utility.yul\":2357:2379   */\n      add\n        /* \"#utility.yul\":2326:2389   */\n      tag_56\n      jump\t// in\n    tag_81:\n        /* \"#utility.yul\":2316:2389   */\n      swap3\n      pop\n        /* \"#utility.yul\":2112:2399   */\n      pop\n        /* \"#utility.yul\":2438:2440   */\n      0x20\n        /* \"#utility.yul\":2464:2517   */\n      tag_82\n        /* \"#utility.yul\":2509:2516   */\n      dup6\n        /* \"#utility.yul\":2500:2506   */\n      dup3\n        /* \"#utility.yul\":2489:2498   */\n      dup7\n        /* \"#utility.yul\":2485:2507   */\n      add\n        /* \"#utility.yul\":2464:2517   */\n      tag_62\n      jump\t// in\n    tag_82:\n        /* \"#utility.yul\":2454:2517   */\n      swap2\n      pop\n        /* \"#utility.yul\":2409:2527   */\n      pop\n        /* \"#utility.yul\":1880:2534   */\n      swap3\n      pop\n      swap3\n      swap1\n      pop\n      jump\t// out\n        /* \"#utility.yul\":2540:3485   */\n    tag_7:\n        /* \"#utility.yul\":2636:2642   */\n      0x00\n        /* \"#utility.yul\":2644:2650   */\n      dup1\n        /* \"#utility.yul\":2652:2658   */\n      0x00\n        /* \"#utility.yul\":2660:2666   */\n      dup1\n        /* \"#utility.yul\":2709:2712   */\n      0x80\n        /* \"#utility.yul\":2697:2706   */\n      dup6\n        /* \"#utility.yul\":2688:2695   */\n      dup8\n        /* \"#utility.yul\":2684:2707   */\n      sub\n        /* \"#utility.yul\":2680:2713   */\n      slt\n        /* \"#utility.yul\":2677:2797   */\n      iszero\n      tag_84\n      jumpi\n        /* \"#utility.yul\":2716:2795   */\n      tag_85\n      tag_69\n      jump\t// in\n    tag_85:\n        /* \"#utility.yul\":2677:2797   */\n    tag_84:\n        /* \"#utility.yul\":2836:2837   */\n      0x00\n        /* \"#utility.yul\":2861:2914   */\n      tag_86\n        /* \"#utility.yul\":2906:2913   */\n      dup8\n        /* \"#utility.yul\":2897:2903   */\n      dup3\n        /* \"#utility.yul\":2886:2895   */\n      dup9\n        /* \"#utility.yul\":2882:2904   */\n      add\n        /* \"#utility.yul\":2861:2914   */\n      tag_62\n      jump\t// in\n    tag_86:\n        /* \"#utility.yul\":2851:2914   */\n      swap5\n      pop\n        /* \"#utility.yul\":2807:2924   */\n      pop\n        /* \"#utility.yul\":2991:2993   */\n      0x20\n        /* \"#utility.yul\":2980:2989   */\n      dup6\n        /* \"#utility.yul\":2976:2994   */\n      add\n        /* \"#utility.yul\":2963:2995   */\n      calldataload\n        /* \"#utility.yul\":3022:3040   */\n      0xffffffffffffffff\n        /* \"#utility.yul\":3014:3020   */\n      dup2\n        /* \"#utility.yul\":3011:3041   */\n      gt\n        /* \"#utility.yul\":3008:3125   */\n      iszero\n      tag_87\n      jumpi\n        /* \"#utility.yul\":3044:3123   */\n      tag_88\n      tag_73\n      jump\t// in\n    tag_88:\n        /* \"#utility.yul\":3008:3125   */\n    tag_87:\n        /* \"#utility.yul\":3149:3212   */\n      tag_89\n        /* \"#utility.yul\":3204:3211   */\n      dup8\n        /* \"#utility.yul\":3195:3201   */\n      dup3\n        /* \"#utility.yul\":3184:3193   */\n      dup9\n        /* \"#utility.yul\":3180:3202   */\n      add\n        /* \"#utility.yul\":3149:3212   */\n      tag_56\n      jump\t// in\n    tag_89:\n        /* \"#utility.yul\":3139:3212   */\n      swap4\n      pop\n        /* \"#utility.yul\":2934:3222   */\n      pop\n        /* \"#utility.yul\":3261:3263   */\n      0x40\n        /* \"#utility.yul\":3287:3340   */\n      tag_90\n        /* \"#utility.yul\":3332:3339   */\n      dup8\n        /* \"#utility.yul\":3323:3329   */\n      dup3\n        /* \"#utility.yul\":3312:3321   */\n      dup9\n        /* \"#utility.yul\":3308:3330   */\n      add\n        /* \"#utility.yul\":3287:3340   */\n      tag_62\n      jump\t// in\n    tag_90:\n        /* \"#utility.yul\":3277:3340   */\n      swap3\n      pop\n        /* \"#utility.yul\":3232:3350   */\n      pop\n        /* \"#utility.yul\":3389:3391   */\n      0x60\n        /* \"#utility.yul\":3415:3468   */\n      tag_91\n        /* \"#utility.yul\":3460:3467   */\n      dup8\n        /* \"#utility.yul\":3451:3457   */\n      dup3\n        /* \"#utility.yul\":3440:3449   */\n      dup9\n        /* \"#utility.yul\":3436:3458   */\n      add\n        /* \"#utility.yul\":3415:3468   */\n      tag_62\n      jump\t// in\n    tag_91:\n        /* \"#utility.yul\":3405:3468   */\n      swap2\n      pop\n        /* \"#utility.yul\":3360:3478   */\n      pop\n        /* \"#utility.yul\":2540:3485   */\n      swap3\n      swap6\n      swap2\n      swap5\n      pop\n      swap3\n      pop\n      jump\t// out\n        /* \"#utility.yul\":3491:3857   */\n    tag_92:\n        /* \"#utility.yul\":3633:3636   */\n      0x00\n        /* \"#utility.yul\":3654:3721   */\n      tag_94\n        /* \"#utility.yul\":3718:3720   */\n      0x1d\n        /* \"#utility.yul\":3713:3716   */\n      dup4\n        /* \"#utility.yul\":3654:3721   */\n      tag_95\n      jump\t// in\n    tag_94:\n        /* \"#utility.yul\":3647:3721   */\n      swap2\n      pop\n        /* \"#utility.yul\":3730:3823   */\n      tag_96\n        /* \"#utility.yul\":3819:3822   */\n      dup3\n        /* \"#utility.yul\":3730:3823   */\n      tag_97\n      jump\t// in\n    tag_96:\n        /* \"#utility.yul\":3848:3850   */\n      0x20\n        /* \"#utility.yul\":3843:3846   */\n      dup3\n        /* \"#utility.yul\":3839:3851   */\n      add\n        /* \"#utility.yul\":3832:3851   */\n      swap1\n      pop\n        /* \"#utility.yul\":3491:3857   */\n      swap2\n      swap1\n      pop\n      jump\t// out\n        /* \"#utility.yul\":3863:4282   */\n    tag_23:\n        /* \"#utility.yul\":4029:4033   */\n      0x00\n        /* \"#utility.yul\":4067:4069   */\n      0x20\n        /* \"#utility.yul\":4056:4065   */\n      dup3\n        /* \"#utility.yul\":4052:4070   */\n      add\n        /* \"#utility.yul\":4044:4070   */\n      swap1\n      pop\n        /* \"#utility.yul\":4116:4125   */\n      dup2\n        /* \"#utility.yul\":4110:4114   */\n      dup2\n        /* \"#utility.yul\":4106:4126   */\n      sub\n        /* \"#utility.yul\":4102:4103   */\n      0x00\n        /* \"#utility.yul\":4091:4100   */\n      dup4\n        /* \"#utility.yul\":4087:4104   */\n      add\n        /* \"#utility.yul\":4080:4127   */\n      mstore\n        /* \"#utility.yul\":4144:4275   */\n      tag_99\n        /* \"#utility.yul\":4270:4274   */\n      dup2\n        /* \"#utility.yul\":4144:4275   */\n      tag_92\n      jump\t// in\n    tag_99:\n        /* \"#utility.yul\":4136:4275   */\n      swap1\n      pop\n        /* \"#utility.yul\":3863:4282   */\n      swap2\n      swap1\n      pop\n      jump\t// out\n        /* \"#utility.yul\":4288:4417   */\n    tag_46:\n        /* \"#utility.yul\":4322:4328   */\n      0x00\n        /* \"#utility.yul\":4349:4369   */\n      tag_101\n      tag_102\n      jump\t// in\n    tag_101:\n        /* \"#utility.yul\":4339:4369   */\n      swap1\n      pop\n        /* \"#utility.yul\":4378:4411   */\n      tag_103\n        /* \"#utility.yul\":4406:4410   */\n      dup3\n        /* \"#utility.yul\":4398:4404   */\n      dup3\n        /* \"#utility.yul\":4378:4411   */\n      tag_104\n      jump\t// in\n    tag_103:\n        /* \"#utility.yul\":4288:4417   */\n      swap2\n      swap1\n      pop\n      jump\t// out\n        /* \"#utility.yul\":4423:4498   */\n    tag_102:\n        /* \"#utility.yul\":4456:4462   */\n      0x00\n        /* \"#utility.yul\":4489:4491   */\n      0x40\n        /* \"#utility.yul\":4483:4492   */\n      mload\n        /* \"#utility.yul\":4473:4492   */\n      swap1\n      pop\n        /* \"#utility.yul\":4423:4498   */\n      swap1\n      jump\t// out\n        /* \"#utility.yul\":4504:4812   */\n    tag_45:\n        /* \"#utility.yul\":4566:4570   */\n      0x00\n        /* \"#utility.yul\":4656:4674   */\n      0xffffffffffffffff\n        /* \"#utility.yul\":4648:4654   */\n      dup3\n        /* \"#utility.yul\":4645:4675   */\n      gt\n        /* \"#utility.yul\":4642:4698   */\n      iszero\n      tag_107\n      jumpi\n        /* \"#utility.yul\":4678:4696   */\n      tag_108\n      tag_109\n      jump\t// in\n    tag_108:\n        /* \"#utility.yul\":4642:4698   */\n    tag_107:\n        /* \"#utility.yul\":4716:4745   */\n      tag_110\n        /* \"#utility.yul\":4738:4744   */\n      dup3\n        /* \"#utility.yul\":4716:4745   */\n      tag_111\n      jump\t// in\n    tag_110:\n        /* \"#utility.yul\":4708:4745   */\n      swap1\n      pop\n        /* \"#utility.yul\":4800:4804   */\n      0x20\n        /* \"#utility.yul\":4794:4798   */\n      dup2\n        /* \"#utility.yul\":4790:4805   */\n      add\n        /* \"#utility.yul\":4782:4805   */\n      swap1\n      pop\n        /* \"#utility.yul\":4504:4812   */\n      swap2\n      swap1\n      pop\n      jump\t// out\n        /* \"#utility.yul\":4818:4987   */\n    tag_95:\n        /* \"#utility.yul\":4902:4913   */\n      0x00\n        /* \"#utility.yul\":4936:4942   */\n      dup3\n        /* \"#utility.yul\":4931:4934   */\n      dup3\n        /* \"#utility.yul\":4924:4943   */\n      mstore\n        /* \"#utility.yul\":4976:4980   */\n      0x20\n        /* \"#utility.yul\":4971:4974   */\n      dup3\n        /* \"#utility.yul\":4967:4981   */\n      add\n        /* \"#utility.yul\":4952:4981   */\n      swap1\n      pop\n        /* \"#utility.yul\":4818:4987   */\n      swap3\n      swap2\n      pop\n      pop\n      jump\t// out\n        /* \"#utility.yul\":4993:5089   */\n    tag_113:\n        /* \"#utility.yul\":5030:5037   */\n      0x00\n        /* \"#utility.yul\":5059:5083   */\n      tag_115\n        /* \"#utility.yul\":5077:5082   */\n      dup3\n        /* \"#utility.yul\":5059:5083   */\n      tag_116\n      jump\t// in\n    tag_115:\n        /* \"#utility.yul\":5048:5083   */\n      swap1\n      pop\n        /* \"#utility.yul\":4993:5089   */\n      swap2\n      swap1\n      pop\n      jump\t// out\n        /* \"#utility.yul\":5095:5221   */\n    tag_116:\n        /* \"#utility.yul\":5132:5139   */\n      0x00\n        /* \"#utility.yul\":5172:5214   */\n      0xffffffffffffffffffffffffffffffffffffffff\n        /* \"#utility.yul\":5165:5170   */\n      dup3\n        /* \"#utility.yul\":5161:5215   */\n      and\n        /* \"#utility.yul\":5150:5215   */\n      swap1\n      pop\n        /* \"#utility.yul\":5095:5221   */\n      swap2\n      swap1\n      pop\n      jump\t// out\n        /* \"#utility.yul\":5227:5304   */\n    tag_118:\n        /* \"#utility.yul\":5264:5271   */\n      0x00\n        /* \"#utility.yul\":5293:5298   */\n      dup2\n        /* \"#utility.yul\":5282:5298   */\n      swap1\n      pop\n        /* \"#utility.yul\":5227:5304   */\n      swap2\n      swap1\n      pop\n      jump\t// out\n        /* \"#utility.yul\":5310:5464   */\n    tag_51:\n        /* \"#utility.yul\":5394:5400   */\n      dup3\n        /* \"#utility.yul\":5389:5392   */\n      dup2\n        /* \"#utility.yul\":5384:5387   */\n      dup4\n        /* \"#utility.yul\":5371:5401   */\n      calldatacopy\n        /* \"#utility.yul\":5456:5457   */\n      0x00\n        /* \"#utility.yul\":5447:5453   */\n      dup4\n        /* \"#utility.yul\":5442:5445   */\n      dup4\n        /* \"#utility.yul\":5438:5454   */\n      add\n        /* \"#utility.yul\":5431:5458   */\n      mstore\n        /* \"#utility.yul\":5310:5464   */\n      pop\n      pop\n      pop\n      jump\t// out\n        /* \"#utility.yul\":5470:5790   */\n    tag_30:\n        /* \"#utility.yul\":5514:5520   */\n      0x00\n        /* \"#utility.yul\":5551:5552   */\n      0x02\n        /* \"#utility.yul\":5545:5549   */\n      dup3\n        /* \"#utility.yul\":5541:5553   */\n      div\n        /* \"#utility.yul\":5531:5553   */\n      swap1\n      pop\n        /* \"#utility.yul\":5598:5599   */\n      0x01\n        /* \"#utility.yul\":5592:5596   */\n      dup3\n        /* \"#utility.yul\":5588:5600   */\n      and\n        /* \"#utility.yul\":5619:5637   */\n      dup1\n        /* \"#utility.yul\":5609:5690   */\n      tag_122\n      jumpi\n        /* \"#utility.yul\":5675:5679   */\n      0x7f\n        /* \"#utility.yul\":5667:5673   */\n      dup3\n        /* \"#utility.yul\":5663:5680   */\n      and\n        /* \"#utility.yul\":5653:5680   */\n      swap2\n      pop\n        /* \"#utility.yul\":5609:5690   */\n    tag_122:\n        /* \"#utility.yul\":5737:5739   */\n      0x20\n        /* \"#utility.yul\":5729:5735   */\n      dup3\n        /* \"#utility.yul\":5726:5740   */\n      lt\n        /* \"#utility.yul\":5706:5724   */\n      dup2\n        /* \"#utility.yul\":5703:5741   */\n      eq\n        /* \"#utility.yul\":5700:5784   */\n      iszero\n      tag_123\n      jumpi\n        /* \"#utility.yul\":5756:5774   */\n      tag_124\n      tag_125\n      jump\t// in\n    tag_124:\n        /* \"#utility.yul\":5700:5784   */\n    tag_123:\n        /* \"#utility.yul\":5521:5790   */\n      pop\n        /* \"#utility.yul\":5470:5790   */\n      swap2\n      swap1\n      pop\n      jump\t// out\n        /* \"#utility.yul\":5796:6077   */\n    tag_104:\n        /* \"#utility.yul\":5879:5906   */\n      tag_127\n        /* \"#utility.yul\":5901:5905   */\n      dup3\n        /* \"#utility.yul\":5879:5906   */\n      tag_111\n      jump\t// in\n    tag_127:\n        /* \"#utility.yul\":5871:5877   */\n      dup2\n        /* \"#utility.yul\":5867:5907   */\n      add\n        /* \"#utility.yul\":6009:6015   */\n      dup2\n        /* \"#utility.yul\":5997:6007   */\n      dup2\n        /* \"#utility.yul\":5994:6016   */\n      lt\n        /* \"#utility.yul\":5973:5991   */\n      0xffffffffffffffff\n        /* \"#utility.yul\":5961:5971   */\n      dup3\n        /* \"#utility.yul\":5958:5992   */\n      gt\n        /* \"#utility.yul\":5955:6017   */\n      or\n        /* \"#utility.yul\":5952:6040   */\n      iszero\n      tag_128\n      jumpi\n        /* \"#utility.yul\":6020:6038   */\n      tag_129\n      tag_109\n      jump\t// in\n    tag_129:\n        /* \"#utility.yul\":5952:6040   */\n    tag_128:\n        /* \"#utility.yul\":6060:6070   */\n      dup1\n        /* \"#utility.yul\":6056:6058   */\n      0x40\n        /* \"#utility.yul\":6049:6071   */\n      mstore\n        /* \"#utility.yul\":5839:6077   */\n      pop\n        /* \"#utility.yul\":5796:6077   */\n      pop\n      pop\n      jump\t// out\n        /* \"#utility.yul\":6083:6263   */\n    tag_125:\n        /* \"#utility.yul\":6131:6208   */\n      0x4e487b7100000000000000000000000000000000000000000000000000000000\n        /* \"#utility.yul\":6128:6129   */\n      0x00\n        /* \"#utility.yul\":6121:6209   */\n      mstore\n        /* \"#utility.yul\":6228:6232   */\n      0x22\n        /* \"#utility.yul\":6225:6226   */\n      0x04\n        /* \"#utility.yul\":6218:6233   */\n      mstore\n        /* \"#utility.yul\":6252:6256   */\n      0x24\n        /* \"#utility.yul\":6249:6250   */\n      0x00\n        /* \"#utility.yul\":6242:6257   */\n      revert\n        /* \"#utility.yul\":6269:6449   */\n    tag_109:\n        /* \"#utility.yul\":6317:6394   */\n      0x4e487b7100000000000000000000000000000000000000000000000000000000\n        /* \"#utility.yul\":6314:6315   */\n      0x00\n        /* \"#utility.yul\":6307:6395   */\n      mstore\n        /* \"#utility.yul\":6414:6418   */\n      0x41\n        /* \"#utility.yul\":6411:6412   */\n      0x04\n        /* \"#utility.yul\":6404:6419   */\n      mstore\n        /* \"#utility.yul\":6438:6442   */\n      0x24\n        /* \"#utility.yul\":6435:6436   */\n      0x00\n        /* \"#utility.yul\":6428:6443   */\n      revert\n        /* \"#utility.yul\":6455:6572   */\n    tag_60:\n        /* \"#utility.yul\":6564:6565   */\n      0x00\n        /* \"#utility.yul\":6561:6562   */\n      dup1\n        /* \"#utility.yul\":6554:6566   */\n      revert\n        /* \"#utility.yul\":6578:6695   */\n    tag_49:\n        /* \"#utility.yul\":6687:6688   */\n      0x00\n        /* \"#utility.yul\":6684:6685   */\n      dup1\n        /* \"#utility.yul\":6677:6689   */\n      revert\n        /* \"#utility.yul\":6701:6818   */\n    tag_73:\n        /* \"#utility.yul\":6810:6811   */\n      0x00\n        /* \"#utility.yul\":6807:6808   */\n      dup1\n        /* \"#utility.yul\":6800:6812   */\n      revert\n        /* \"#utility.yul\":6824:6941   */\n    tag_69:\n        /* \"#utility.yul\":6933:6934   */\n      0x00\n        /* \"#utility.yul\":6930:6931   */\n      dup1\n        /* \"#utility.yul\":6923:6935   */\n      revert\n        /* \"#utility.yul\":6947:7049   */\n    tag_111:\n        /* \"#utility.yul\":6988:6994   */\n      0x00\n        /* \"#utility.yul\":7039:7041   */\n      0x1f\n        /* \"#utility.yul\":7035:7042   */\n      not\n        /* \"#utility.yul\":7030:7032   */\n      0x1f\n        /* \"#utility.yul\":7023:7028   */\n      dup4\n        /* \"#utility.yul\":7019:7033   */\n      add\n        /* \"#utility.yul\":7015:7043   */\n      and\n        /* \"#utility.yul\":7005:7043   */\n      swap1\n      pop\n        /* \"#utility.yul\":6947:7049   */\n      swap2\n      swap1\n      pop\n      jump\t// out\n        /* \"#utility.yul\":7055:7234   */\n    tag_97:\n        /* \"#utility.yul\":7195:7226   */\n      0x496e73756666696369656e742066756e6420666f722072656465656d2e000000\n        /* \"#utility.yul\":7191:7192   */\n      0x00\n        /* \"#utility.yul\":7183:7189   */\n      dup3\n        /* \"#utility.yul\":7179:7193   */\n      add\n        /* \"#utility.yul\":7172:7227   */\n      mstore\n        /* \"#utility.yul\":7055:7234   */\n      pop\n      jump\t// out\n        /* \"#utility.yul\":7240:7362   */\n    tag_55:\n        /* \"#utility.yul\":7313:7337   */\n      tag_139\n        /* \"#utility.yul\":7331:7336   */\n      dup2\n        /* \"#utility.yul\":7313:7337   */\n      tag_113\n      jump\t// in\n    tag_139:\n        /* \"#utility.yul\":7306:7311   */\n      dup2\n        /* \"#utility.yul\":7303:7338   */\n      eq\n        /* \"#utility.yul\":7293:7356   */\n      tag_140\n      jumpi\n        /* \"#utility.yul\":7352:7353   */\n      0x00\n        /* \"#utility.yul\":7349:7350   */\n      dup1\n        /* \"#utility.yul\":7342:7354   */\n      revert\n        /* \"#utility.yul\":7293:7356   */\n    tag_140:\n        /* \"#utility.yul\":7240:7362   */\n      pop\n      jump\t// out\n        /* \"#utility.yul\":7368:7490   */\n    tag_65:\n        /* \"#utility.yul\":7441:7465   */\n      tag_142\n        /* \"#utility.yul\":7459:7464   */\n      dup2\n        /* \"#utility.yul\":7441:7465   */\n      tag_118\n      jump\t// in\n    tag_142:\n        /* \"#utility.yul\":7434:7439   */\n      dup2\n        /* \"#utility.yul\":7431:7466   */\n      eq\n        /* \"#utility.yul\":7421:7484   */\n      tag_143\n      jumpi\n        /* \"#utility.yul\":7480:7481   */\n      0x00\n        /* \"#utility.yul\":7477:7478   */\n      dup1\n        /* \"#utility.yul\":7470:7482   */\n      revert\n        /* \"#utility.yul\":7421:7484   */\n    tag_143:\n        /* \"#utility.yul\":7368:7490   */\n      pop\n      jump\t// out\n\n    auxdata: 0xa2646970667358221220b2eab24b8e26966982bd94275944173781e92f44d06b253f80eec039314915d564736f6c63430008070033\n}\n",
				"bytecode": {
					"linkReferences": {},
					"object": "608060405234801561001057600080fd5b50336000806101000a81548173ffffffffffffffffffffffffffffffffffffffff021916908373ffffffffffffffffffffffffffffffffffffffff160217905550610a84806100606000396000f3fe6080604052600436106100345760003560e01c80634854e05614610039578063868571ef14610055578063bfd6843d14610071575b600080fd5b610053600480360381019061004e9190610799565b61008d565b005b61006f600480360381019061006a91906106ce565b610243565b005b61008b6004803603810190610086919061073d565b610435565b005b83600560008060009054906101000a900473ffffffffffffffffffffffffffffffffffffffff1673ffffffffffffffffffffffffffffffffffffffff1673ffffffffffffffffffffffffffffffffffffffff1681526020019081526020016000206000018190555082600560008060009054906101000a900473ffffffffffffffffffffffffffffffffffffffff1673ffffffffffffffffffffffffffffffffffffffff1673ffffffffffffffffffffffffffffffffffffffff168152602001908152602001600020600101908051906020019061016c929190610591565b5081600560008060009054906101000a900473ffffffffffffffffffffffffffffffffffffffff1673ffffffffffffffffffffffffffffffffffffffff1673ffffffffffffffffffffffffffffffffffffffff1681526020019081526020016000206002018190555080600560008060009054906101000a900473ffffffffffffffffffffffffffffffffffffffff1673ffffffffffffffffffffffffffffffffffffffff1673ffffffffffffffffffffffffffffffffffffffff1681526020019081526020016000206003018190555050505050565b80600660008060009054906101000a900473ffffffffffffffffffffffffffffffffffffffff1673ffffffffffffffffffffffffffffffffffffffff1673ffffffffffffffffffffffffffffffffffffffff1681526020019081526020016000206001015410156102e9576040517f08c379a00000000000000000000000000000000000000000000000000000000081526004016102e09061083f565b60405180910390fd5b81600560008573ffffffffffffffffffffffffffffffffffffffff1673ffffffffffffffffffffffffffffffffffffffff168152602001908152602001600020600101908051906020019061033f929190610591565b5060405180602001604052806000815250600660008060009054906101000a900473ffffffffffffffffffffffffffffffffffffffff1673ffffffffffffffffffffffffffffffffffffffff1673ffffffffffffffffffffffffffffffffffffffff16815260200190815260200160002060000190805190602001906103c6929190610591565b506000600660008060009054906101000a900473ffffffffffffffffffffffffffffffffffffffff1673ffffffffffffffffffffffffffffffffffffffff1673ffffffffffffffffffffffffffffffffffffffff16815260200190815260200160002060010181905550505050565b81600560008060009054906101000a900473ffffffffffffffffffffffffffffffffffffffff1673ffffffffffffffffffffffffffffffffffffffff1673ffffffffffffffffffffffffffffffffffffffff16815260200190815260200160002060010190805190602001906104ac929190610591565b5081600660008060009054906101000a900473ffffffffffffffffffffffffffffffffffffffff1673ffffffffffffffffffffffffffffffffffffffff1673ffffffffffffffffffffffffffffffffffffffff1681526020019081526020016000206000019080519060200190610524929190610591565b5080600660008060009054906101000a900473ffffffffffffffffffffffffffffffffffffffff1673ffffffffffffffffffffffffffffffffffffffff1673ffffffffffffffffffffffffffffffffffffffff168152602001908152602001600020600101819055505050565b82805461059d90610911565b90600052602060002090601f0160209004810192826105bf5760008555610606565b82601f106105d857805160ff1916838001178555610606565b82800160010185558215610606579182015b828111156106055782518255916020019190600101906105ea565b5b5090506106139190610617565b5090565b5b80821115610630576000816000905550600101610618565b5090565b600061064761064284610884565b61085f565b905082815260208101848484011115610663576106626109d7565b5b61066e848285610902565b509392505050565b60008135905061068581610a20565b92915050565b600082601f8301126106a05761069f6109d2565b5b81356106b0848260208601610634565b91505092915050565b6000813590506106c881610a37565b92915050565b6000806000606084860312156106e7576106e66109e1565b5b60006106f586828701610676565b935050602084013567ffffffffffffffff811115610716576107156109dc565b5b6107228682870161068b565b9250506040610733868287016106b9565b9150509250925092565b60008060408385031215610754576107536109e1565b5b600083013567ffffffffffffffff811115610772576107716109dc565b5b61077e8582860161068b565b925050602061078f858286016106b9565b9150509250929050565b600080600080608085870312156107b3576107b26109e1565b5b60006107c1878288016106b9565b945050602085013567ffffffffffffffff8111156107e2576107e16109dc565b5b6107ee8782880161068b565b93505060406107ff878288016106b9565b9250506060610810878288016106b9565b91505092959194509250565b6000610829601d836108b5565b9150610834826109f7565b602082019050919050565b600060208201905081810360008301526108588161081c565b9050919050565b600061086961087a565b90506108758282610943565b919050565b6000604051905090565b600067ffffffffffffffff82111561089f5761089e6109a3565b5b6108a8826109e6565b9050602081019050919050565b600082825260208201905092915050565b60006108d1826108d8565b9050919050565b600073ffffffffffffffffffffffffffffffffffffffff82169050919050565b6000819050919050565b82818337600083830152505050565b6000600282049050600182168061092957607f821691505b6020821081141561093d5761093c610974565b5b50919050565b61094c826109e6565b810181811067ffffffffffffffff8211171561096b5761096a6109a3565b5b80604052505050565b7f4e487b7100000000000000000000000000000000000000000000000000000000600052602260045260246000fd5b7f4e487b7100000000000000000000000000000000000000000000000000000000600052604160045260246000fd5b600080fd5b600080fd5b600080fd5b600080fd5b6000601f19601f8301169050919050565b7f496e73756666696369656e742066756e6420666f722072656465656d2e000000600082015250565b610a29816108c6565b8114610a3457600080fd5b50565b610a40816108f8565b8114610a4b57600080fd5b5056fea2646970667358221220b2eab24b8e26966982bd94275944173781e92f44d06b253f80eec039314915d564736f6c63430008070033",
					"opcodes": "PUSH1 0x80 PUSH1 0x40 MSTORE CALLVALUE DUP1 ISZERO PUSH2 0x10 JUMPI PUSH1 0x0 DUP1 REVERT JUMPDEST POP CALLER PUSH1 0x0 DUP1 PUSH2 0x100 EXP DUP2 SLOAD DUP2 PUSH20 0xFFFFFFFFFFFFFFFFFFFFFFFFFFFFFFFFFFFFFFFF MUL NOT AND SWAP1 DUP4 PUSH20 0xFFFFFFFFFFFFFFFFFFFFFFFFFFFFFFFFFFFFFFFF AND MUL OR SWAP1 SSTORE POP PUSH2 0xA84 DUP1 PUSH2 0x60 PUSH1 0x0 CODECOPY PUSH1 0x0 RETURN INVALID PUSH1 0x80 PUSH1 0x40 MSTORE PUSH1 0x4 CALLDATASIZE LT PUSH2 0x34 JUMPI PUSH1 0x0 CALLDATALOAD PUSH1 0xE0 SHR DUP1 PUSH4 0x4854E056 EQ PUSH2 0x39 JUMPI DUP1 PUSH4 0x868571EF EQ PUSH2 0x55 JUMPI DUP1 PUSH4 0xBFD6843D EQ PUSH2 0x71 JUMPI JUMPDEST PUSH1 0x0 DUP1 REVERT JUMPDEST PUSH2 0x53 PUSH1 0x4 DUP1 CALLDATASIZE SUB DUP2 ADD SWAP1 PUSH2 0x4E SWAP2 SWAP1 PUSH2 0x799 JUMP JUMPDEST PUSH2 0x8D JUMP JUMPDEST STOP JUMPDEST PUSH2 0x6F PUSH1 0x4 DUP1 CALLDATASIZE SUB DUP2 ADD SWAP1 PUSH2 0x6A SWAP2 SWAP1 PUSH2 0x6CE JUMP JUMPDEST PUSH2 0x243 JUMP JUMPDEST STOP JUMPDEST PUSH2 0x8B PUSH1 0x4 DUP1 CALLDATASIZE SUB DUP2 ADD SWAP1 PUSH2 0x86 SWAP2 SWAP1 PUSH2 0x73D JUMP JUMPDEST PUSH2 0x435 JUMP JUMPDEST STOP JUMPDEST DUP4 PUSH1 0x5 PUSH1 0x0 DUP1 PUSH1 0x0 SWAP1 SLOAD SWAP1 PUSH2 0x100 EXP SWAP1 DIV PUSH20 0xFFFFFFFFFFFFFFFFFFFFFFFFFFFFFFFFFFFFFFFF AND PUSH20 0xFFFFFFFFFFFFFFFFFFFFFFFFFFFFFFFFFFFFFFFF AND PUSH20 0xFFFFFFFFFFFFFFFFFFFFFFFFFFFFFFFFFFFFFFFF AND DUP2 MSTORE PUSH1 0x20 ADD SWAP1 DUP2 MSTORE PUSH1 0x20 ADD PUSH1 0x0 KECCAK256 PUSH1 0x0 ADD DUP2 SWAP1 SSTORE POP DUP3 PUSH1 0x5 PUSH1 0x0 DUP1 PUSH1 0x0 SWAP1 SLOAD SWAP1 PUSH2 0x100 EXP SWAP1 DIV PUSH20 0xFFFFFFFFFFFFFFFFFFFFFFFFFFFFFFFFFFFFFFFF AND PUSH20 0xFFFFFFFFFFFFFFFFFFFFFFFFFFFFFFFFFFFFFFFF AND PUSH20 0xFFFFFFFFFFFFFFFFFFFFFFFFFFFFFFFFFFFFFFFF AND DUP2 MSTORE PUSH1 0x20 ADD SWAP1 DUP2 MSTORE PUSH1 0x20 ADD PUSH1 0x0 KECCAK256 PUSH1 0x1 ADD SWAP1 DUP1 MLOAD SWAP1 PUSH1 0x20 ADD SWAP1 PUSH2 0x16C SWAP3 SWAP2 SWAP1 PUSH2 0x591 JUMP JUMPDEST POP DUP2 PUSH1 0x5 PUSH1 0x0 DUP1 PUSH1 0x0 SWAP1 SLOAD SWAP1 PUSH2 0x100 EXP SWAP1 DIV PUSH20 0xFFFFFFFFFFFFFFFFFFFFFFFFFFFFFFFFFFFFFFFF AND PUSH20 0xFFFFFFFFFFFFFFFFFFFFFFFFFFFFFFFFFFFFFFFF AND PUSH20 0xFFFFFFFFFFFFFFFFFFFFFFFFFFFFFFFFFFFFFFFF AND DUP2 MSTORE PUSH1 0x20 ADD SWAP1 DUP2 MSTORE PUSH1 0x20 ADD PUSH1 0x0 KECCAK256 PUSH1 0x2 ADD DUP2 SWAP1 SSTORE POP DUP1 PUSH1 0x5 PUSH1 0x0 DUP1 PUSH1 0x0 SWAP1 SLOAD SWAP1 PUSH2 0x100 EXP SWAP1 DIV PUSH20 0xFFFFFFFFFFFFFFFFFFFFFFFFFFFFFFFFFFFFFFFF AND PUSH20 0xFFFFFFFFFFFFFFFFFFFFFFFFFFFFFFFFFFFFFFFF AND PUSH20 0xFFFFFFFFFFFFFFFFFFFFFFFFFFFFFFFFFFFFFFFF AND DUP2 MSTORE PUSH1 0x20 ADD SWAP1 DUP2 MSTORE PUSH1 0x20 ADD PUSH1 0x0 KECCAK256 PUSH1 0x3 ADD DUP2 SWAP1 SSTORE POP POP POP POP POP JUMP JUMPDEST DUP1 PUSH1 0x6 PUSH1 0x0 DUP1 PUSH1 0x0 SWAP1 SLOAD SWAP1 PUSH2 0x100 EXP SWAP1 DIV PUSH20 0xFFFFFFFFFFFFFFFFFFFFFFFFFFFFFFFFFFFFFFFF AND PUSH20 0xFFFFFFFFFFFFFFFFFFFFFFFFFFFFFFFFFFFFFFFF AND PUSH20 0xFFFFFFFFFFFFFFFFFFFFFFFFFFFFFFFFFFFFFFFF AND DUP2 MSTORE PUSH1 0x20 ADD SWAP1 DUP2 MSTORE PUSH1 0x20 ADD PUSH1 0x0 KECCAK256 PUSH1 0x1 ADD SLOAD LT ISZERO PUSH2 0x2E9 JUMPI PUSH1 0x40 MLOAD PUSH32 0x8C379A000000000000000000000000000000000000000000000000000000000 DUP2 MSTORE PUSH1 0x4 ADD PUSH2 0x2E0 SWAP1 PUSH2 0x83F JUMP JUMPDEST PUSH1 0x40 MLOAD DUP1 SWAP2 SUB SWAP1 REVERT JUMPDEST DUP2 PUSH1 0x5 PUSH1 0x0 DUP6 PUSH20 0xFFFFFFFFFFFFFFFFFFFFFFFFFFFFFFFFFFFFFFFF AND PUSH20 0xFFFFFFFFFFFFFFFFFFFFFFFFFFFFFFFFFFFFFFFF AND DUP2 MSTORE PUSH1 0x20 ADD SWAP1 DUP2 MSTORE PUSH1 0x20 ADD PUSH1 0x0 KECCAK256 PUSH1 0x1 ADD SWAP1 DUP1 MLOAD SWAP1 PUSH1 0x20 ADD SWAP1 PUSH2 0x33F SWAP3 SWAP2 SWAP1 PUSH2 0x591 JUMP JUMPDEST POP PUSH1 0x40 MLOAD DUP1 PUSH1 0x20 ADD PUSH1 0x40 MSTORE DUP1 PUSH1 0x0 DUP2 MSTORE POP PUSH1 0x6 PUSH1 0x0 DUP1 PUSH1 0x0 SWAP1 SLOAD SWAP1 PUSH2 0x100 EXP SWAP1 DIV PUSH20 0xFFFFFFFFFFFFFFFFFFFFFFFFFFFFFFFFFFFFFFFF AND PUSH20 0xFFFFFFFFFFFFFFFFFFFFFFFFFFFFFFFFFFFFFFFF AND PUSH20 0xFFFFFFFFFFFFFFFFFFFFFFFFFFFFFFFFFFFFFFFF AND DUP2 MSTORE PUSH1 0x20 ADD SWAP1 DUP2 MSTORE PUSH1 0x20 ADD PUSH1 0x0 KECCAK256 PUSH1 0x0 ADD SWAP1 DUP1 MLOAD SWAP1 PUSH1 0x20 ADD SWAP1 PUSH2 0x3C6 SWAP3 SWAP2 SWAP1 PUSH2 0x591 JUMP JUMPDEST POP PUSH1 0x0 PUSH1 0x6 PUSH1 0x0 DUP1 PUSH1 0x0 SWAP1 SLOAD SWAP1 PUSH2 0x100 EXP SWAP1 DIV PUSH20 0xFFFFFFFFFFFFFFFFFFFFFFFFFFFFFFFFFFFFFFFF AND PUSH20 0xFFFFFFFFFFFFFFFFFFFFFFFFFFFFFFFFFFFFFFFF AND PUSH20 0xFFFFFFFFFFFFFFFFFFFFFFFFFFFFFFFFFFFFFFFF AND DUP2 MSTORE PUSH1 0x20 ADD SWAP1 DUP2 MSTORE PUSH1 0x20 ADD PUSH1 0x0 KECCAK256 PUSH1 0x1 ADD DUP2 SWAP1 SSTORE POP POP POP POP JUMP JUMPDEST DUP2 PUSH1 0x5 PUSH1 0x0 DUP1 PUSH1 0x0 SWAP1 SLOAD SWAP1 PUSH2 0x100 EXP SWAP1 DIV PUSH20 0xFFFFFFFFFFFFFFFFFFFFFFFFFFFFFFFFFFFFFFFF AND PUSH20 0xFFFFFFFFFFFFFFFFFFFFFFFFFFFFFFFFFFFFFFFF AND PUSH20 0xFFFFFFFFFFFFFFFFFFFFFFFFFFFFFFFFFFFFFFFF AND DUP2 MSTORE PUSH1 0x20 ADD SWAP1 DUP2 MSTORE PUSH1 0x20 ADD PUSH1 0x0 KECCAK256 PUSH1 0x1 ADD SWAP1 DUP1 MLOAD SWAP1 PUSH1 0x20 ADD SWAP1 PUSH2 0x4AC SWAP3 SWAP2 SWAP1 PUSH2 0x591 JUMP JUMPDEST POP DUP2 PUSH1 0x6 PUSH1 0x0 DUP1 PUSH1 0x0 SWAP1 SLOAD SWAP1 PUSH2 0x100 EXP SWAP1 DIV PUSH20 0xFFFFFFFFFFFFFFFFFFFFFFFFFFFFFFFFFFFFFFFF AND PUSH20 0xFFFFFFFFFFFFFFFFFFFFFFFFFFFFFFFFFFFFFFFF AND PUSH20 0xFFFFFFFFFFFFFFFFFFFFFFFFFFFFFFFFFFFFFFFF AND DUP2 MSTORE PUSH1 0x20 ADD SWAP1 DUP2 MSTORE PUSH1 0x20 ADD PUSH1 0x0 KECCAK256 PUSH1 0x0 ADD SWAP1 DUP1 MLOAD SWAP1 PUSH1 0x20 ADD SWAP1 PUSH2 0x524 SWAP3 SWAP2 SWAP1 PUSH2 0x591 JUMP JUMPDEST POP DUP1 PUSH1 0x6 PUSH1 0x0 DUP1 PUSH1 0x0 SWAP1 SLOAD SWAP1 PUSH2 0x100 EXP SWAP1 DIV PUSH20 0xFFFFFFFFFFFFFFFFFFFFFFFFFFFFFFFFFFFFFFFF AND PUSH20 0xFFFFFFFFFFFFFFFFFFFFFFFFFFFFFFFFFFFFFFFF AND PUSH20 0xFFFFFFFFFFFFFFFFFFFFFFFFFFFFFFFFFFFFFFFF AND DUP2 MSTORE PUSH1 0x20 ADD SWAP1 DUP2 MSTORE PUSH1 0x20 ADD PUSH1 0x0 KECCAK256 PUSH1 0x1 ADD DUP2 SWAP1 SSTORE POP POP POP JUMP JUMPDEST DUP3 DUP1 SLOAD PUSH2 0x59D SWAP1 PUSH2 0x911 JUMP JUMPDEST SWAP1 PUSH1 0x0 MSTORE PUSH1 0x20 PUSH1 0x0 KECCAK256 SWAP1 PUSH1 0x1F ADD PUSH1 0x20 SWAP1 DIV DUP2 ADD SWAP3 DUP3 PUSH2 0x5BF JUMPI PUSH1 0x0 DUP6 SSTORE PUSH2 0x606 JUMP JUMPDEST DUP3 PUSH1 0x1F LT PUSH2 0x5D8 JUMPI DUP1 MLOAD PUSH1 0xFF NOT AND DUP4 DUP1 ADD OR DUP6 SSTORE PUSH2 0x606 JUMP JUMPDEST DUP3 DUP1 ADD PUSH1 0x1 ADD DUP6 SSTORE DUP3 ISZERO PUSH2 0x606 JUMPI SWAP2 DUP3 ADD JUMPDEST DUP3 DUP2 GT ISZERO PUSH2 0x605 JUMPI DUP3 MLOAD DUP3 SSTORE SWAP2 PUSH1 0x20 ADD SWAP2 SWAP1 PUSH1 0x1 ADD SWAP1 PUSH2 0x5EA JUMP JUMPDEST JUMPDEST POP SWAP1 POP PUSH2 0x613 SWAP2 SWAP1 PUSH2 0x617 JUMP JUMPDEST POP SWAP1 JUMP JUMPDEST JUMPDEST DUP1 DUP3 GT ISZERO PUSH2 0x630 JUMPI PUSH1 0x0 DUP2 PUSH1 0x0 SWAP1 SSTORE POP PUSH1 0x1 ADD PUSH2 0x618 JUMP JUMPDEST POP SWAP1 JUMP JUMPDEST PUSH1 0x0 PUSH2 0x647 PUSH2 0x642 DUP5 PUSH2 0x884 JUMP JUMPDEST PUSH2 0x85F JUMP JUMPDEST SWAP1 POP DUP3 DUP2 MSTORE PUSH1 0x20 DUP2 ADD DUP5 DUP5 DUP5 ADD GT ISZERO PUSH2 0x663 JUMPI PUSH2 0x662 PUSH2 0x9D7 JUMP JUMPDEST JUMPDEST PUSH2 0x66E DUP5 DUP3 DUP6 PUSH2 0x902 JUMP JUMPDEST POP SWAP4 SWAP3 POP POP POP JUMP JUMPDEST PUSH1 0x0 DUP2 CALLDATALOAD SWAP1 POP PUSH2 0x685 DUP2 PUSH2 0xA20 JUMP JUMPDEST SWAP3 SWAP2 POP POP JUMP JUMPDEST PUSH1 0x0 DUP3 PUSH1 0x1F DUP4 ADD SLT PUSH2 0x6A0 JUMPI PUSH2 0x69F PUSH2 0x9D2 JUMP JUMPDEST JUMPDEST DUP2 CALLDATALOAD PUSH2 0x6B0 DUP5 DUP3 PUSH1 0x20 DUP7 ADD PUSH2 0x634 JUMP JUMPDEST SWAP2 POP POP SWAP3 SWAP2 POP POP JUMP JUMPDEST PUSH1 0x0 DUP2 CALLDATALOAD SWAP1 POP PUSH2 0x6C8 DUP2 PUSH2 0xA37 JUMP JUMPDEST SWAP3 SWAP2 POP POP JUMP JUMPDEST PUSH1 0x0 DUP1 PUSH1 0x0 PUSH1 0x60 DUP5 DUP7 SUB SLT ISZERO PUSH2 0x6E7 JUMPI PUSH2 0x6E6 PUSH2 0x9E1 JUMP JUMPDEST JUMPDEST PUSH1 0x0 PUSH2 0x6F5 DUP7 DUP3 DUP8 ADD PUSH2 0x676 JUMP JUMPDEST SWAP4 POP POP PUSH1 0x20 DUP5 ADD CALLDATALOAD PUSH8 0xFFFFFFFFFFFFFFFF DUP2 GT ISZERO PUSH2 0x716 JUMPI PUSH2 0x715 PUSH2 0x9DC JUMP JUMPDEST JUMPDEST PUSH2 0x722 DUP7 DUP3 DUP8 ADD PUSH2 0x68B JUMP JUMPDEST SWAP3 POP POP PUSH1 0x40 PUSH2 0x733 DUP7 DUP3 DUP8 ADD PUSH2 0x6B9 JUMP JUMPDEST SWAP2 POP POP SWAP3 POP SWAP3 POP SWAP3 JUMP JUMPDEST PUSH1 0x0 DUP1 PUSH1 0x40 DUP4 DUP6 SUB SLT ISZERO PUSH2 0x754 JUMPI PUSH2 0x753 PUSH2 0x9E1 JUMP JUMPDEST JUMPDEST PUSH1 0x0 DUP4 ADD CALLDATALOAD PUSH8 0xFFFFFFFFFFFFFFFF DUP2 GT ISZERO PUSH2 0x772 JUMPI PUSH2 0x771 PUSH2 0x9DC JUMP JUMPDEST JUMPDEST PUSH2 0x77E DUP6 DUP3 DUP7 ADD PUSH2 0x68B JUMP JUMPDEST SWAP3 POP POP PUSH1 0x20 PUSH2 0x78F DUP6 DUP3 DUP7 ADD PUSH2 0x6B9 JUMP JUMPDEST SWAP2 POP POP SWAP3 POP SWAP3 SWAP1 POP JUMP JUMPDEST PUSH1 0x0 DUP1 PUSH1 0x0 DUP1 PUSH1 0x80 DUP6 DUP8 SUB SLT ISZERO PUSH2 0x7B3 JUMPI PUSH2 0x7B2 PUSH2 0x9E1 JUMP JUMPDEST JUMPDEST PUSH1 0x0 PUSH2 0x7C1 DUP8 DUP3 DUP9 ADD PUSH2 0x6B9 JUMP JUMPDEST SWAP5 POP POP PUSH1 0x20 DUP6 ADD CALLDATALOAD PUSH8 0xFFFFFFFFFFFFFFFF DUP2 GT ISZERO PUSH2 0x7E2 JUMPI PUSH2 0x7E1 PUSH2 0x9DC JUMP JUMPDEST JUMPDEST PUSH2 0x7EE DUP8 DUP3 DUP9 ADD PUSH2 0x68B JUMP JUMPDEST SWAP4 POP POP PUSH1 0x40 PUSH2 0x7FF DUP8 DUP3 DUP9 ADD PUSH2 0x6B9 JUMP JUMPDEST SWAP3 POP POP PUSH1 0x60 PUSH2 0x810 DUP8 DUP3 DUP9 ADD PUSH2 0x6B9 JUMP JUMPDEST SWAP2 POP POP SWAP3 SWAP6 SWAP2 SWAP5 POP SWAP3 POP JUMP JUMPDEST PUSH1 0x0 PUSH2 0x829 PUSH1 0x1D DUP4 PUSH2 0x8B5 JUMP JUMPDEST SWAP2 POP PUSH2 0x834 DUP3 PUSH2 0x9F7 JUMP JUMPDEST PUSH1 0x20 DUP3 ADD SWAP1 POP SWAP2 SWAP1 POP JUMP JUMPDEST PUSH1 0x0 PUSH1 0x20 DUP3 ADD SWAP1 POP DUP2 DUP2 SUB PUSH1 0x0 DUP4 ADD MSTORE PUSH2 0x858 DUP2 PUSH2 0x81C JUMP JUMPDEST SWAP1 POP SWAP2 SWAP1 POP JUMP JUMPDEST PUSH1 0x0 PUSH2 0x869 PUSH2 0x87A JUMP JUMPDEST SWAP1 POP PUSH2 0x875 DUP3 DUP3 PUSH2 0x943 JUMP JUMPDEST SWAP2 SWAP1 POP JUMP JUMPDEST PUSH1 0x0 PUSH1 0x40 MLOAD SWAP1 POP SWAP1 JUMP JUMPDEST PUSH1 0x0 PUSH8 0xFFFFFFFFFFFFFFFF DUP3 GT ISZERO PUSH2 0x89F JUMPI PUSH2 0x89E PUSH2 0x9A3 JUMP JUMPDEST JUMPDEST PUSH2 0x8A8 DUP3 PUSH2 0x9E6 JUMP JUMPDEST SWAP1 POP PUSH1 0x20 DUP2 ADD SWAP1 POP SWAP2 SWAP1 POP JUMP JUMPDEST PUSH1 0x0 DUP3 DUP3 MSTORE PUSH1 0x20 DUP3 ADD SWAP1 POP SWAP3 SWAP2 POP POP JUMP JUMPDEST PUSH1 0x0 PUSH2 0x8D1 DUP3 PUSH2 0x8D8 JUMP JUMPDEST SWAP1 POP SWAP2 SWAP1 POP JUMP JUMPDEST PUSH1 0x0 PUSH20 0xFFFFFFFFFFFFFFFFFFFFFFFFFFFFFFFFFFFFFFFF DUP3 AND SWAP1 POP SWAP2 SWAP1 POP JUMP JUMPDEST PUSH1 0x0 DUP2 SWAP1 POP SWAP2 SWAP1 POP JUMP JUMPDEST DUP3 DUP2 DUP4 CALLDATACOPY PUSH1 0x0 DUP4 DUP4 ADD MSTORE POP POP POP JUMP JUMPDEST PUSH1 0x0 PUSH1 0x2 DUP3 DIV SWAP1 POP PUSH1 0x1 DUP3 AND DUP1 PUSH2 0x929 JUMPI PUSH1 0x7F DUP3 AND SWAP2 POP JUMPDEST PUSH1 0x20 DUP3 LT DUP2 EQ ISZERO PUSH2 0x93D JUMPI PUSH2 0x93C PUSH2 0x974 JUMP JUMPDEST JUMPDEST POP SWAP2 SWAP1 POP JUMP JUMPDEST PUSH2 0x94C DUP3 PUSH2 0x9E6 JUMP JUMPDEST DUP2 ADD DUP2 DUP2 LT PUSH8 0xFFFFFFFFFFFFFFFF DUP3 GT OR ISZERO PUSH2 0x96B JUMPI PUSH2 0x96A PUSH2 0x9A3 JUMP JUMPDEST JUMPDEST DUP1 PUSH1 0x40 MSTORE POP POP POP JUMP JUMPDEST PUSH32 0x4E487B7100000000000000000000000000000000000000000000000000000000 PUSH1 0x0 MSTORE PUSH1 0x22 PUSH1 0x4 MSTORE PUSH1 0x24 PUSH1 0x0 REVERT JUMPDEST PUSH32 0x4E487B7100000000000000000000000000000000000000000000000000000000 PUSH1 0x0 MSTORE PUSH1 0x41 PUSH1 0x4 MSTORE PUSH1 0x24 PUSH1 0x0 REVERT JUMPDEST PUSH1 0x0 DUP1 REVERT JUMPDEST PUSH1 0x0 DUP1 REVERT JUMPDEST PUSH1 0x0 DUP1 REVERT JUMPDEST PUSH1 0x0 DUP1 REVERT JUMPDEST PUSH1 0x0 PUSH1 0x1F NOT PUSH1 0x1F DUP4 ADD AND SWAP1 POP SWAP2 SWAP1 POP JUMP JUMPDEST PUSH32 0x496E73756666696369656E742066756E6420666F722072656465656D2E000000 PUSH1 0x0 DUP3 ADD MSTORE POP JUMP JUMPDEST PUSH2 0xA29 DUP2 PUSH2 0x8C6 JUMP JUMPDEST DUP2 EQ PUSH2 0xA34 JUMPI PUSH1 0x0 DUP1 REVERT JUMPDEST POP JUMP JUMPDEST PUSH2 0xA40 DUP2 PUSH2 0x8F8 JUMP JUMPDEST DUP2 EQ PUSH2 0xA4B JUMPI PUSH1 0x0 DUP1 REVERT JUMPDEST POP JUMP INVALID LOG2 PUSH5 0x6970667358 0x22 SLT KECCAK256 0xB2 0xEA 0xB2 0x4B DUP15 0x26 SWAP7 PUSH10 0x82BD94275944173781E9 0x2F DIFFICULTY 0xD0 PUSH12 0x253F80EEC039314915D56473 PUSH16 0x6C634300080700330000000000000000 "
				},
				"gasEstimates": {
					"creation": {
						"codeDepositCost": "538400",
						"executionCost": "24841",
						"totalCost": "563241"
					},
					"external": {
						"createParcel(uint256,string,uint256,uint256)": "infinite",
						"mortgage(string,uint256)": "infinite",
						"redeem(address,string,uint256)": "infinite"
					}
				},
				"methodIdentifiers": {
					"createParcel(uint256,string,uint256,uint256)": "4854e056",
					"mortgage(string,uint256)": "bfd6843d",
					"redeem(address,string,uint256)": "868571ef"
				}
			},
			"storageLayout": {
				"storage": [
					{
						"astId": 17,
						"contract": "contracts/Parcel.sol:Parcel",
						"label": "owner",
						"offset": 0,
						"slot": "0",
						"type": "t_address"
					},
					{
						"astId": 20,
						"contract": "contracts/Parcel.sol:Parcel",
						"label": "parcel_land",
						"offset": 0,
						"slot": "1",
						"type": "t_struct(Parcel_land)10_storage"
					},
					{
						"astId": 25,
						"contract": "contracts/Parcel.sol:Parcel",
						"label": "_parcel_land",
						"offset": 0,
						"slot": "5",
						"type": "t_mapping(t_address,t_struct(Parcel_land)10_storage)"
					},
					{
						"astId": 30,
						"contract": "contracts/Parcel.sol:Parcel",
						"label": "_olgt",
						"offset": 0,
						"slot": "6",
						"type": "t_mapping(t_address,t_struct(Olgt)15_storage)"
					}
				],
				"types": {
					"t_address": {
						"encoding": "inplace",
						"label": "address",
						"numberOfBytes": "20"
					},
					"t_mapping(t_address,t_struct(Olgt)15_storage)": {
						"encoding": "mapping",
						"key": "t_address",
						"label": "mapping(address => struct Olgt)",
						"numberOfBytes": "32",
						"value": "t_struct(Olgt)15_storage"
					},
					"t_mapping(t_address,t_struct(Parcel_land)10_storage)": {
						"encoding": "mapping",
						"key": "t_address",
						"label": "mapping(address => struct Parcel_land)",
						"numberOfBytes": "32",
						"value": "t_struct(Parcel_land)10_storage"
					},
					"t_string_storage": {
						"encoding": "bytes",
						"label": "string",
						"numberOfBytes": "32"
					},
					"t_struct(Olgt)15_storage": {
						"encoding": "inplace",
						"label": "struct Olgt",
						"members": [
							{
								"astId": 12,
								"contract": "contracts/Parcel.sol:Parcel",
								"label": "olgt_name",
								"offset": 0,
								"slot": "0",
								"type": "t_string_storage"
							},
							{
								"astId": 14,
								"contract": "contracts/Parcel.sol:Parcel",
								"label": "olgt_price",
								"offset": 0,
								"slot": "1",
								"type": "t_uint256"
							}
						],
						"numberOfBytes": "64"
					},
					"t_struct(Parcel_land)10_storage": {
						"encoding": "inplace",
						"label": "struct Parcel_land",
						"members": [
							{
								"astId": 3,
								"contract": "contracts/Parcel.sol:Parcel",
								"label": "parcel_no",
								"offset": 0,
								"slot": "0",
								"type": "t_uint256"
							},
							{
								"astId": 5,
								"contract": "contracts/Parcel.sol:Parcel",
								"label": "owner_name",
								"offset": 0,
								"slot": "1",
								"type": "t_string_storage"
							},
							{
								"astId": 7,
								"contract": "contracts/Parcel.sol:Parcel",
								"label": "price",
								"offset": 0,
								"slot": "2",
								"type": "t_uint256"
							},
							{
								"astId": 9,
								"contract": "contracts/Parcel.sol:Parcel",
								"label": "area",
								"offset": 0,
								"slot": "3",
								"type": "t_uint256"
							}
						],
						"numberOfBytes": "128"
					},
					"t_uint256": {
						"encoding": "inplace",
						"label": "uint256",
						"numberOfBytes": "32"
					}
				}
			},
			"userdoc": {
				"kind": "user",
				"methods": {},
				"version": 1
			}
		}
	}
}